{
	"venda_gassless_flattened.sol": {
		"NFTMarketplace": {
			"abi": [
				{
					"inputs": [
						{
							"internalType": "uint256",
							"name": "_royaltyPercentage",
							"type": "uint256"
						},
						{
							"internalType": "uint256",
							"name": "_platformFeePercentage",
							"type": "uint256"
						},
						{
							"internalType": "address",
							"name": "_royaltyAddress",
							"type": "address"
						},
						{
							"internalType": "address",
							"name": "_platformFeeAddress",
							"type": "address"
						}
					],
					"stateMutability": "nonpayable",
					"type": "constructor"
				},
				{
					"anonymous": false,
					"inputs": [
						{
							"indexed": false,
							"internalType": "address",
							"name": "userAddress",
							"type": "address"
						},
						{
							"indexed": false,
							"internalType": "address payable",
							"name": "relayerAddress",
							"type": "address"
						},
						{
							"indexed": false,
							"internalType": "bytes",
							"name": "functionSignature",
							"type": "bytes"
						}
					],
					"name": "MetaTransactionExecuted",
					"type": "event"
				},
				{
					"anonymous": false,
					"inputs": [
						{
							"indexed": true,
							"internalType": "uint256",
							"name": "listingId",
							"type": "uint256"
						}
					],
					"name": "NFTDelisted",
					"type": "event"
				},
				{
					"anonymous": false,
					"inputs": [
						{
							"indexed": true,
							"internalType": "uint256",
							"name": "listingId",
							"type": "uint256"
						},
						{
							"indexed": true,
							"internalType": "address",
							"name": "seller",
							"type": "address"
						},
						{
							"indexed": true,
							"internalType": "address",
							"name": "nftContract",
							"type": "address"
						},
						{
							"indexed": false,
							"internalType": "uint256",
							"name": "nftId",
							"type": "uint256"
						},
						{
							"indexed": false,
							"internalType": "uint256",
							"name": "price",
							"type": "uint256"
						},
						{
							"indexed": false,
							"internalType": "uint256",
							"name": "deadline",
							"type": "uint256"
						}
					],
					"name": "NFTListed",
					"type": "event"
				},
				{
					"anonymous": false,
					"inputs": [
						{
							"indexed": true,
							"internalType": "uint256",
							"name": "listingId",
							"type": "uint256"
						},
						{
							"indexed": true,
							"internalType": "address",
							"name": "seller",
							"type": "address"
						},
						{
							"indexed": true,
							"internalType": "address",
							"name": "buyer",
							"type": "address"
						},
						{
							"indexed": false,
							"internalType": "uint256",
							"name": "price",
							"type": "uint256"
						}
					],
					"name": "NFTSold",
					"type": "event"
				},
				{
					"anonymous": false,
					"inputs": [
						{
							"indexed": true,
							"internalType": "address",
							"name": "previousOwner",
							"type": "address"
						},
						{
							"indexed": true,
							"internalType": "address",
							"name": "newOwner",
							"type": "address"
						}
					],
					"name": "OwnershipTransferred",
					"type": "event"
				},
				{
					"anonymous": false,
					"inputs": [
						{
							"indexed": false,
							"internalType": "address",
							"name": "account",
							"type": "address"
						}
					],
					"name": "Paused",
					"type": "event"
				},
				{
					"anonymous": false,
					"inputs": [
						{
							"indexed": false,
							"internalType": "address",
							"name": "account",
							"type": "address"
						}
					],
					"name": "Unpaused",
					"type": "event"
				},
				{
					"inputs": [
						{
							"internalType": "uint256",
							"name": "",
							"type": "uint256"
						}
					],
					"name": "activeListingIds",
					"outputs": [
						{
							"internalType": "uint256",
							"name": "",
							"type": "uint256"
						}
					],
					"stateMutability": "view",
					"type": "function"
				},
				{
					"inputs": [
						{
							"internalType": "address",
							"name": "userAddress",
							"type": "address"
						},
						{
							"internalType": "bytes",
							"name": "functionSignature",
							"type": "bytes"
						},
						{
							"internalType": "bytes32",
							"name": "sigR",
							"type": "bytes32"
						},
						{
							"internalType": "bytes32",
							"name": "sigS",
							"type": "bytes32"
						},
						{
							"internalType": "uint8",
							"name": "sigV",
							"type": "uint8"
						}
					],
					"name": "executeMetaTransaction",
					"outputs": [
						{
							"internalType": "bytes",
							"name": "",
							"type": "bytes"
						}
					],
					"stateMutability": "payable",
					"type": "function"
				},
				{
					"inputs": [
						{
							"internalType": "address",
							"name": "userAddress",
							"type": "address"
						},
						{
							"internalType": "bytes",
							"name": "functionSignature",
							"type": "bytes"
						},
						{
							"internalType": "bytes32",
							"name": "sigR",
							"type": "bytes32"
						},
						{
							"internalType": "bytes32",
							"name": "sigS",
							"type": "bytes32"
						},
						{
							"internalType": "uint8",
							"name": "sigV",
							"type": "uint8"
						}
					],
					"name": "isSigner",
					"outputs": [
						{
							"internalType": "bool",
							"name": "",
							"type": "bool"
						}
					],
					"stateMutability": "view",
					"type": "function"
				},
				{
					"inputs": [
						{
							"internalType": "address",
							"name": "_nftContractAddress",
							"type": "address"
						},
						{
							"internalType": "uint256",
							"name": "_nftId",
							"type": "uint256"
						},
						{
							"internalType": "uint256",
							"name": "_price",
							"type": "uint256"
						},
						{
							"internalType": "uint256",
							"name": "_deadline",
							"type": "uint256"
						},
						{
							"internalType": "address",
							"name": "userAddress",
							"type": "address"
						}
					],
					"name": "listNFT",
					"outputs": [],
					"stateMutability": "nonpayable",
					"type": "function"
				},
				{
					"inputs": [
						{
							"internalType": "uint256",
							"name": "",
							"type": "uint256"
						}
					],
					"name": "listings",
					"outputs": [
						{
							"internalType": "address",
							"name": "nftContractAddress",
							"type": "address"
						},
						{
							"internalType": "uint256",
							"name": "nftId",
							"type": "uint256"
						},
						{
							"internalType": "address",
							"name": "seller",
							"type": "address"
						},
						{
							"internalType": "uint256",
							"name": "price",
							"type": "uint256"
						},
						{
							"internalType": "uint256",
							"name": "deadline",
							"type": "uint256"
						}
					],
					"stateMutability": "view",
					"type": "function"
				},
				{
					"inputs": [],
					"name": "nextListingId",
					"outputs": [
						{
							"internalType": "uint256",
							"name": "",
							"type": "uint256"
						}
					],
					"stateMutability": "view",
					"type": "function"
				},
				{
					"inputs": [
						{
							"internalType": "address",
							"name": "",
							"type": "address"
						}
					],
					"name": "nonces",
					"outputs": [
						{
							"internalType": "uint256",
							"name": "",
							"type": "uint256"
						}
					],
					"stateMutability": "view",
					"type": "function"
				},
				{
					"inputs": [],
					"name": "owner",
					"outputs": [
						{
							"internalType": "address",
							"name": "",
							"type": "address"
						}
					],
					"stateMutability": "view",
					"type": "function"
				},
				{
					"inputs": [],
					"name": "paused",
					"outputs": [
						{
							"internalType": "bool",
							"name": "",
							"type": "bool"
						}
					],
					"stateMutability": "view",
					"type": "function"
				},
				{
					"inputs": [],
					"name": "platformFeeAddress",
					"outputs": [
						{
							"internalType": "address",
							"name": "",
							"type": "address"
						}
					],
					"stateMutability": "view",
					"type": "function"
				},
				{
					"inputs": [],
					"name": "platformFeePercentage",
					"outputs": [
						{
							"internalType": "uint256",
							"name": "",
							"type": "uint256"
						}
					],
					"stateMutability": "view",
					"type": "function"
				},
				{
					"inputs": [],
					"name": "renounceOwnership",
					"outputs": [],
					"stateMutability": "nonpayable",
					"type": "function"
				},
				{
					"inputs": [],
					"name": "royaltyAddress",
					"outputs": [
						{
							"internalType": "address",
							"name": "",
							"type": "address"
						}
					],
					"stateMutability": "view",
					"type": "function"
				},
				{
					"inputs": [],
					"name": "royaltyPercentage",
					"outputs": [
						{
							"internalType": "uint256",
							"name": "",
							"type": "uint256"
						}
					],
					"stateMutability": "view",
					"type": "function"
				},
				{
					"inputs": [
						{
							"internalType": "address",
							"name": "newOwner",
							"type": "address"
						}
					],
					"name": "transferOwnership",
					"outputs": [],
					"stateMutability": "nonpayable",
					"type": "function"
				}
			],
			"devdoc": {
				"kind": "dev",
				"methods": {
					"owner()": {
						"details": "Returns the address of the current owner."
					},
					"paused()": {
						"details": "Returns true if the contract is paused, and false otherwise."
					},
					"renounceOwnership()": {
						"details": "Leaves the contract without owner. It will not be possible to call `onlyOwner` functions. Can only be called by the current owner. NOTE: Renouncing ownership will leave the contract without an owner, thereby disabling any functionality that is only available to the owner."
					},
					"transferOwnership(address)": {
						"details": "Transfers ownership of the contract to a new account (`newOwner`). Can only be called by the current owner."
					}
				},
				"version": 1
			},
			"evm": {
				"assembly": "    /* \"venda_gassless_flattened.sol\":14989:18449  contract NFTMarketplace is Ownable, ReentrancyGuard, Pausable {... */\n  mstore(0x40, 0x80)\n    /* \"venda_gassless_flattened.sol\":15490:15491  1 */\n  0x01\n    /* \"venda_gassless_flattened.sol\":15459:15491  uint256 public nextListingId = 1 */\n  0x09\n  sstore\n    /* \"venda_gassless_flattened.sol\":15966:16408  constructor(uint256 _royaltyPercentage, uint256 _platformFeePercentage, address _royaltyAddress, address _platformFeeAddress) {... */\n  callvalue\n  dup1\n  iszero\n  tag_1\n  jumpi\n  0x00\n  dup1\n  revert\ntag_1:\n  pop\n  mload(0x40)\n  sub(codesize, bytecodeSize)\n  dup1\n  bytecodeSize\n  dup4\n  codecopy\n  dup2\n  dup2\n  add\n  0x40\n  mstore\n  dup2\n  add\n  swap1\n  tag_2\n  swap2\n  swap1\n  tag_3\n  jump\t// in\ntag_2:\n    /* \"venda_gassless_flattened.sol\":7502:7534  _transferOwnership(_msgSender()) */\n  tag_9\n    /* \"venda_gassless_flattened.sol\":7521:7533  _msgSender() */\n  tag_10\n    /* \"venda_gassless_flattened.sol\":7521:7531  _msgSender */\n  shl(0x20, tag_11)\n    /* \"venda_gassless_flattened.sol\":7521:7533  _msgSender() */\n  0x20\n  shr\n  jump\t// in\ntag_10:\n    /* \"venda_gassless_flattened.sol\":7502:7520  _transferOwnership */\n  shl(0x20, tag_12)\n    /* \"venda_gassless_flattened.sol\":7502:7534  _transferOwnership(_msgSender()) */\n  0x20\n  shr\n  jump\t// in\ntag_9:\n    /* \"venda_gassless_flattened.sol\":1749:1750  1 */\n  0x01\n    /* \"venda_gassless_flattened.sol\":1854:1861  _status */\n  dup1\n    /* \"venda_gassless_flattened.sol\":1854:1876  _status = _NOT_ENTERED */\n  dup2\n  swap1\n  sstore\n  pop\n    /* \"venda_gassless_flattened.sol\":5027:5032  false */\n  0x00\n    /* \"venda_gassless_flattened.sol\":5017:5024  _paused */\n  0x02\n  0x00\n    /* \"venda_gassless_flattened.sol\":5017:5032  _paused = false */\n  0x0100\n  exp\n  dup2\n  sload\n  dup2\n  0xff\n  mul\n  not\n  and\n  swap1\n  dup4\n  iszero\n  iszero\n  mul\n  or\n  swap1\n  sstore\n  pop\n    /* \"venda_gassless_flattened.sol\":16137:16138  0 */\n  0x00\n    /* \"venda_gassless_flattened.sol\":16110:16139  _royaltyAddress != address(0) */\n  0xffffffffffffffffffffffffffffffffffffffff\n  and\n    /* \"venda_gassless_flattened.sol\":16110:16125  _royaltyAddress */\n  dup3\n    /* \"venda_gassless_flattened.sol\":16110:16139  _royaltyAddress != address(0) */\n  0xffffffffffffffffffffffffffffffffffffffff\n  and\n  eq\n  iszero\n    /* \"venda_gassless_flattened.sol\":16110:16176  _royaltyAddress != address(0) && _platformFeeAddress != address(0) */\n  dup1\n  iszero\n  tag_16\n  jumpi\n  pop\n    /* \"venda_gassless_flattened.sol\":16174:16175  0 */\n  0x00\n    /* \"venda_gassless_flattened.sol\":16143:16176  _platformFeeAddress != address(0) */\n  0xffffffffffffffffffffffffffffffffffffffff\n  and\n    /* \"venda_gassless_flattened.sol\":16143:16162  _platformFeeAddress */\n  dup2\n    /* \"venda_gassless_flattened.sol\":16143:16176  _platformFeeAddress != address(0) */\n  0xffffffffffffffffffffffffffffffffffffffff\n  and\n  eq\n  iszero\n    /* \"venda_gassless_flattened.sol\":16110:16176  _royaltyAddress != address(0) && _platformFeeAddress != address(0) */\ntag_16:\n    /* \"venda_gassless_flattened.sol\":16102:16205  require(_royaltyAddress != address(0) && _platformFeeAddress != address(0), \"Addresses cannot be zero\") */\n  tag_17\n  jumpi\n  mload(0x40)\n  0x08c379a000000000000000000000000000000000000000000000000000000000\n  dup2\n  mstore\n  0x04\n  add\n  tag_18\n  swap1\n  tag_19\n  jump\t// in\ntag_18:\n  mload(0x40)\n  dup1\n  swap2\n  sub\n  swap1\n  revert\ntag_17:\n    /* \"venda_gassless_flattened.sol\":16235:16253  _royaltyPercentage */\n  dup4\n    /* \"venda_gassless_flattened.sol\":16215:16232  royaltyPercentage */\n  0x04\n    /* \"venda_gassless_flattened.sol\":16215:16253  royaltyPercentage = _royaltyPercentage */\n  dup2\n  swap1\n  sstore\n  pop\n    /* \"venda_gassless_flattened.sol\":16287:16309  _platformFeePercentage */\n  dup3\n    /* \"venda_gassless_flattened.sol\":16263:16284  platformFeePercentage */\n  0x05\n    /* \"venda_gassless_flattened.sol\":16263:16309  platformFeePercentage = _platformFeePercentage */\n  dup2\n  swap1\n  sstore\n  pop\n    /* \"venda_gassless_flattened.sol\":16336:16351  _royaltyAddress */\n  dup2\n    /* \"venda_gassless_flattened.sol\":16319:16333  royaltyAddress */\n  0x06\n  0x00\n    /* \"venda_gassless_flattened.sol\":16319:16351  royaltyAddress = _royaltyAddress */\n  0x0100\n  exp\n  dup2\n  sload\n  dup2\n  0xffffffffffffffffffffffffffffffffffffffff\n  mul\n  not\n  and\n  swap1\n  dup4\n  0xffffffffffffffffffffffffffffffffffffffff\n  and\n  mul\n  or\n  swap1\n  sstore\n  pop\n    /* \"venda_gassless_flattened.sol\":16382:16401  _platformFeeAddress */\n  dup1\n    /* \"venda_gassless_flattened.sol\":16361:16379  platformFeeAddress */\n  0x07\n  0x00\n    /* \"venda_gassless_flattened.sol\":16361:16401  platformFeeAddress = _platformFeeAddress */\n  0x0100\n  exp\n  dup2\n  sload\n  dup2\n  0xffffffffffffffffffffffffffffffffffffffff\n  mul\n  not\n  and\n  swap1\n  dup4\n  0xffffffffffffffffffffffffffffffffffffffff\n  and\n  mul\n  or\n  swap1\n  sstore\n  pop\n    /* \"venda_gassless_flattened.sol\":15966:16408  constructor(uint256 _royaltyPercentage, uint256 _platformFeePercentage, address _royaltyAddress, address _platformFeeAddress) {... */\n  pop\n  pop\n  pop\n  pop\n    /* \"venda_gassless_flattened.sol\":14989:18449  contract NFTMarketplace is Ownable, ReentrancyGuard, Pausable {... */\n  jump(tag_20)\n    /* \"venda_gassless_flattened.sol\":3822:3918  function _msgSender() internal view virtual returns (address) {... */\ntag_11:\n    /* \"venda_gassless_flattened.sol\":3875:3882  address */\n  0x00\n    /* \"venda_gassless_flattened.sol\":3901:3911  msg.sender */\n  caller\n    /* \"venda_gassless_flattened.sol\":3894:3911  return msg.sender */\n  swap1\n  pop\n    /* \"venda_gassless_flattened.sol\":3822:3918  function _msgSender() internal view virtual returns (address) {... */\n  swap1\n  jump\t// out\n    /* \"venda_gassless_flattened.sol\":8992:9179  function _transferOwnership(address newOwner) internal virtual {... */\ntag_12:\n    /* \"venda_gassless_flattened.sol\":9065:9081  address oldOwner */\n  0x00\n    /* \"venda_gassless_flattened.sol\":9084:9090  _owner */\n  dup1\n  0x00\n  swap1\n  sload\n  swap1\n  0x0100\n  exp\n  swap1\n  div\n  0xffffffffffffffffffffffffffffffffffffffff\n  and\n    /* \"venda_gassless_flattened.sol\":9065:9090  address oldOwner = _owner */\n  swap1\n  pop\n    /* \"venda_gassless_flattened.sol\":9109:9117  newOwner */\n  dup2\n    /* \"venda_gassless_flattened.sol\":9100:9106  _owner */\n  0x00\n  dup1\n    /* \"venda_gassless_flattened.sol\":9100:9117  _owner = newOwner */\n  0x0100\n  exp\n  dup2\n  sload\n  dup2\n  0xffffffffffffffffffffffffffffffffffffffff\n  mul\n  not\n  and\n  swap1\n  dup4\n  0xffffffffffffffffffffffffffffffffffffffff\n  and\n  mul\n  or\n  swap1\n  sstore\n  pop\n    /* \"venda_gassless_flattened.sol\":9163:9171  newOwner */\n  dup2\n    /* \"venda_gassless_flattened.sol\":9132:9172  OwnershipTransferred(oldOwner, newOwner) */\n  0xffffffffffffffffffffffffffffffffffffffff\n  and\n    /* \"venda_gassless_flattened.sol\":9153:9161  oldOwner */\n  dup2\n    /* \"venda_gassless_flattened.sol\":9132:9172  OwnershipTransferred(oldOwner, newOwner) */\n  0xffffffffffffffffffffffffffffffffffffffff\n  and\n  0x8be0079c531659141344cd1fd0a4f28419497f9722a3daafe3b4186f6b6457e0\n  mload(0x40)\n  mload(0x40)\n  dup1\n  swap2\n  sub\n  swap1\n  log3\n    /* \"venda_gassless_flattened.sol\":8992:9179  function _transferOwnership(address newOwner) internal virtual {... */\n  pop\n  pop\n  jump\t// out\n    /* \"#utility.yul\":7:150   */\ntag_24:\n  0x00\n    /* \"#utility.yul\":95:101   */\n  dup2\n    /* \"#utility.yul\":89:102   */\n  mload\n    /* \"#utility.yul\":80:102   */\n  swap1\n  pop\n    /* \"#utility.yul\":111:144   */\n  tag_26\n    /* \"#utility.yul\":138:143   */\n  dup2\n    /* \"#utility.yul\":111:144   */\n  tag_27\n  jump\t// in\ntag_26:\n    /* \"#utility.yul\":70:150   */\n  swap3\n  swap2\n  pop\n  pop\n  jump\t// out\n    /* \"#utility.yul\":156:299   */\ntag_28:\n  0x00\n    /* \"#utility.yul\":244:250   */\n  dup2\n    /* \"#utility.yul\":238:251   */\n  mload\n    /* \"#utility.yul\":229:251   */\n  swap1\n  pop\n    /* \"#utility.yul\":260:293   */\n  tag_30\n    /* \"#utility.yul\":287:292   */\n  dup2\n    /* \"#utility.yul\":260:293   */\n  tag_31\n  jump\t// in\ntag_30:\n    /* \"#utility.yul\":219:299   */\n  swap3\n  swap2\n  pop\n  pop\n  jump\t// out\n    /* \"#utility.yul\":305:1058   */\ntag_3:\n  0x00\n  dup1\n  0x00\n  dup1\n    /* \"#utility.yul\":475:478   */\n  0x80\n    /* \"#utility.yul\":463:472   */\n  dup6\n    /* \"#utility.yul\":454:461   */\n  dup8\n    /* \"#utility.yul\":450:473   */\n  sub\n    /* \"#utility.yul\":446:479   */\n  slt\n    /* \"#utility.yul\":443:445   */\n  iszero\n  tag_33\n  jumpi\n    /* \"#utility.yul\":492:493   */\n  0x00\n    /* \"#utility.yul\":489:490   */\n  dup1\n    /* \"#utility.yul\":482:494   */\n  revert\n    /* \"#utility.yul\":443:445   */\ntag_33:\n    /* \"#utility.yul\":535:536   */\n  0x00\n    /* \"#utility.yul\":560:624   */\n  tag_34\n    /* \"#utility.yul\":616:623   */\n  dup8\n    /* \"#utility.yul\":607:613   */\n  dup3\n    /* \"#utility.yul\":596:605   */\n  dup9\n    /* \"#utility.yul\":592:614   */\n  add\n    /* \"#utility.yul\":560:624   */\n  tag_28\n  jump\t// in\ntag_34:\n    /* \"#utility.yul\":550:624   */\n  swap5\n  pop\n    /* \"#utility.yul\":506:634   */\n  pop\n    /* \"#utility.yul\":673:675   */\n  0x20\n    /* \"#utility.yul\":699:763   */\n  tag_35\n    /* \"#utility.yul\":755:762   */\n  dup8\n    /* \"#utility.yul\":746:752   */\n  dup3\n    /* \"#utility.yul\":735:744   */\n  dup9\n    /* \"#utility.yul\":731:753   */\n  add\n    /* \"#utility.yul\":699:763   */\n  tag_28\n  jump\t// in\ntag_35:\n    /* \"#utility.yul\":689:763   */\n  swap4\n  pop\n    /* \"#utility.yul\":644:773   */\n  pop\n    /* \"#utility.yul\":812:814   */\n  0x40\n    /* \"#utility.yul\":838:902   */\n  tag_36\n    /* \"#utility.yul\":894:901   */\n  dup8\n    /* \"#utility.yul\":885:891   */\n  dup3\n    /* \"#utility.yul\":874:883   */\n  dup9\n    /* \"#utility.yul\":870:892   */\n  add\n    /* \"#utility.yul\":838:902   */\n  tag_24\n  jump\t// in\ntag_36:\n    /* \"#utility.yul\":828:902   */\n  swap3\n  pop\n    /* \"#utility.yul\":783:912   */\n  pop\n    /* \"#utility.yul\":951:953   */\n  0x60\n    /* \"#utility.yul\":977:1041   */\n  tag_37\n    /* \"#utility.yul\":1033:1040   */\n  dup8\n    /* \"#utility.yul\":1024:1030   */\n  dup3\n    /* \"#utility.yul\":1013:1022   */\n  dup9\n    /* \"#utility.yul\":1009:1031   */\n  add\n    /* \"#utility.yul\":977:1041   */\n  tag_24\n  jump\t// in\ntag_37:\n    /* \"#utility.yul\":967:1041   */\n  swap2\n  pop\n    /* \"#utility.yul\":922:1051   */\n  pop\n    /* \"#utility.yul\":433:1058   */\n  swap3\n  swap6\n  swap2\n  swap5\n  pop\n  swap3\n  pop\n  jump\t// out\n    /* \"#utility.yul\":1064:1386   */\ntag_38:\n  0x00\n    /* \"#utility.yul\":1227:1294   */\n  tag_40\n    /* \"#utility.yul\":1291:1293   */\n  0x18\n    /* \"#utility.yul\":1286:1289   */\n  dup4\n    /* \"#utility.yul\":1227:1294   */\n  tag_41\n  jump\t// in\ntag_40:\n    /* \"#utility.yul\":1220:1294   */\n  swap2\n  pop\n    /* \"#utility.yul\":1324:1350   */\n  0x4164647265737365732063616e6e6f74206265207a65726f0000000000000000\n    /* \"#utility.yul\":1320:1321   */\n  0x00\n    /* \"#utility.yul\":1315:1318   */\n  dup4\n    /* \"#utility.yul\":1311:1322   */\n  add\n    /* \"#utility.yul\":1304:1351   */\n  mstore\n    /* \"#utility.yul\":1377:1379   */\n  0x20\n    /* \"#utility.yul\":1372:1375   */\n  dup3\n    /* \"#utility.yul\":1368:1380   */\n  add\n    /* \"#utility.yul\":1361:1380   */\n  swap1\n  pop\n    /* \"#utility.yul\":1210:1386   */\n  swap2\n  swap1\n  pop\n  jump\t// out\n    /* \"#utility.yul\":1392:1811   */\ntag_19:\n  0x00\n    /* \"#utility.yul\":1596:1598   */\n  0x20\n    /* \"#utility.yul\":1585:1594   */\n  dup3\n    /* \"#utility.yul\":1581:1599   */\n  add\n    /* \"#utility.yul\":1573:1599   */\n  swap1\n  pop\n    /* \"#utility.yul\":1645:1654   */\n  dup2\n    /* \"#utility.yul\":1639:1643   */\n  dup2\n    /* \"#utility.yul\":1635:1655   */\n  sub\n    /* \"#utility.yul\":1631:1632   */\n  0x00\n    /* \"#utility.yul\":1620:1629   */\n  dup4\n    /* \"#utility.yul\":1616:1633   */\n  add\n    /* \"#utility.yul\":1609:1656   */\n  mstore\n    /* \"#utility.yul\":1673:1804   */\n  tag_43\n    /* \"#utility.yul\":1799:1803   */\n  dup2\n    /* \"#utility.yul\":1673:1804   */\n  tag_38\n  jump\t// in\ntag_43:\n    /* \"#utility.yul\":1665:1804   */\n  swap1\n  pop\n    /* \"#utility.yul\":1563:1811   */\n  swap2\n  swap1\n  pop\n  jump\t// out\n    /* \"#utility.yul\":1817:1986   */\ntag_41:\n  0x00\n    /* \"#utility.yul\":1935:1941   */\n  dup3\n    /* \"#utility.yul\":1930:1933   */\n  dup3\n    /* \"#utility.yul\":1923:1942   */\n  mstore\n    /* \"#utility.yul\":1975:1979   */\n  0x20\n    /* \"#utility.yul\":1970:1973   */\n  dup3\n    /* \"#utility.yul\":1966:1980   */\n  add\n    /* \"#utility.yul\":1951:1980   */\n  swap1\n  pop\n    /* \"#utility.yul\":1913:1986   */\n  swap3\n  swap2\n  pop\n  pop\n  jump\t// out\n    /* \"#utility.yul\":1992:2088   */\ntag_45:\n  0x00\n    /* \"#utility.yul\":2058:2082   */\n  tag_47\n    /* \"#utility.yul\":2076:2081   */\n  dup3\n    /* \"#utility.yul\":2058:2082   */\n  tag_48\n  jump\t// in\ntag_47:\n    /* \"#utility.yul\":2047:2082   */\n  swap1\n  pop\n    /* \"#utility.yul\":2037:2088   */\n  swap2\n  swap1\n  pop\n  jump\t// out\n    /* \"#utility.yul\":2094:2220   */\ntag_48:\n  0x00\n    /* \"#utility.yul\":2171:2213   */\n  0xffffffffffffffffffffffffffffffffffffffff\n    /* \"#utility.yul\":2164:2169   */\n  dup3\n    /* \"#utility.yul\":2160:2214   */\n  and\n    /* \"#utility.yul\":2149:2214   */\n  swap1\n  pop\n    /* \"#utility.yul\":2139:2220   */\n  swap2\n  swap1\n  pop\n  jump\t// out\n    /* \"#utility.yul\":2226:2303   */\ntag_50:\n  0x00\n    /* \"#utility.yul\":2292:2297   */\n  dup2\n    /* \"#utility.yul\":2281:2297   */\n  swap1\n  pop\n    /* \"#utility.yul\":2271:2303   */\n  swap2\n  swap1\n  pop\n  jump\t// out\n    /* \"#utility.yul\":2309:2431   */\ntag_27:\n    /* \"#utility.yul\":2382:2406   */\n  tag_53\n    /* \"#utility.yul\":2400:2405   */\n  dup2\n    /* \"#utility.yul\":2382:2406   */\n  tag_45\n  jump\t// in\ntag_53:\n    /* \"#utility.yul\":2375:2380   */\n  dup2\n    /* \"#utility.yul\":2372:2407   */\n  eq\n    /* \"#utility.yul\":2362:2364   */\n  tag_54\n  jumpi\n    /* \"#utility.yul\":2421:2422   */\n  0x00\n    /* \"#utility.yul\":2418:2419   */\n  dup1\n    /* \"#utility.yul\":2411:2423   */\n  revert\n    /* \"#utility.yul\":2362:2364   */\ntag_54:\n    /* \"#utility.yul\":2352:2431   */\n  pop\n  jump\t// out\n    /* \"#utility.yul\":2437:2559   */\ntag_31:\n    /* \"#utility.yul\":2510:2534   */\n  tag_56\n    /* \"#utility.yul\":2528:2533   */\n  dup2\n    /* \"#utility.yul\":2510:2534   */\n  tag_50\n  jump\t// in\ntag_56:\n    /* \"#utility.yul\":2503:2508   */\n  dup2\n    /* \"#utility.yul\":2500:2535   */\n  eq\n    /* \"#utility.yul\":2490:2492   */\n  tag_57\n  jumpi\n    /* \"#utility.yul\":2549:2550   */\n  0x00\n    /* \"#utility.yul\":2546:2547   */\n  dup1\n    /* \"#utility.yul\":2539:2551   */\n  revert\n    /* \"#utility.yul\":2490:2492   */\ntag_57:\n    /* \"#utility.yul\":2480:2559   */\n  pop\n  jump\t// out\n    /* \"venda_gassless_flattened.sol\":14989:18449  contract NFTMarketplace is Ownable, ReentrancyGuard, Pausable {... */\ntag_20:\n  dataSize(sub_0)\n  dup1\n  dataOffset(sub_0)\n  0x00\n  codecopy\n  0x00\n  return\nstop\n\nsub_0: assembly {\n        /* \"venda_gassless_flattened.sol\":14989:18449  contract NFTMarketplace is Ownable, ReentrancyGuard, Pausable {... */\n      mstore(0x40, 0x80)\n      jumpi(tag_1, lt(calldatasize, 0x04))\n      shr(0xe0, calldataload(0x00))\n      dup1\n      0x8da5cb5b\n      gt\n      tag_17\n      jumpi\n      dup1\n      0xde74e57b\n      gt\n      tag_18\n      jumpi\n      dup1\n      0xde74e57b\n      eq\n      tag_13\n      jumpi\n      dup1\n      0xe3b6a1f6\n      eq\n      tag_14\n      jumpi\n      dup1\n      0xed14834f\n      eq\n      tag_15\n      jumpi\n      dup1\n      0xf2fde38b\n      eq\n      tag_16\n      jumpi\n      jump(tag_1)\n    tag_18:\n      dup1\n      0x8da5cb5b\n      eq\n      tag_9\n      jumpi\n      dup1\n      0xaaccf1ec\n      eq\n      tag_10\n      jumpi\n      dup1\n      0xad2f852a\n      eq\n      tag_11\n      jumpi\n      dup1\n      0xcdd78cfc\n      eq\n      tag_12\n      jumpi\n      jump(tag_1)\n    tag_17:\n      dup1\n      0x5c975abb\n      gt\n      tag_19\n      jumpi\n      dup1\n      0x5c975abb\n      eq\n      tag_5\n      jumpi\n      dup1\n      0x715018a6\n      eq\n      tag_6\n      jumpi\n      dup1\n      0x7ecebe00\n      eq\n      tag_7\n      jumpi\n      dup1\n      0x8a71bb2d\n      eq\n      tag_8\n      jumpi\n      jump(tag_1)\n    tag_19:\n      dup1\n      0x028ef312\n      eq\n      tag_2\n      jumpi\n      dup1\n      0x0c53c51c\n      eq\n      tag_3\n      jumpi\n      dup1\n      0x33929726\n      eq\n      tag_4\n      jumpi\n    tag_1:\n      0x00\n      dup1\n      revert\n        /* \"venda_gassless_flattened.sol\":16414:17156  function listNFT(address _nftContractAddress, uint256 _nftId, uint256 _price, uint256 _deadline, address userAddress) external whenNotPaused {... */\n    tag_2:\n      callvalue\n      dup1\n      iszero\n      tag_20\n      jumpi\n      0x00\n      dup1\n      revert\n    tag_20:\n      pop\n      tag_21\n      0x04\n      dup1\n      calldatasize\n      sub\n      dup2\n      add\n      swap1\n      tag_22\n      swap2\n      swap1\n      tag_23\n      jump\t// in\n    tag_22:\n      tag_24\n      jump\t// in\n    tag_21:\n      stop\n        /* \"venda_gassless_flattened.sol\":17223:17837  function executeMetaTransaction(address userAddress, bytes memory functionSignature, bytes32 sigR, bytes32 sigS, uint8 sigV) public payable returns(bytes memory) {... */\n    tag_3:\n      tag_25\n      0x04\n      dup1\n      calldatasize\n      sub\n      dup2\n      add\n      swap1\n      tag_26\n      swap2\n      swap1\n      tag_27\n      jump\t// in\n    tag_26:\n      tag_28\n      jump\t// in\n    tag_25:\n      mload(0x40)\n      tag_29\n      swap2\n      swap1\n      tag_30\n      jump\t// in\n    tag_29:\n      mload(0x40)\n      dup1\n      swap2\n      sub\n      swap1\n      return\n        /* \"venda_gassless_flattened.sol\":17843:18284  function isSigner(address userAddress, bytes memory functionSignature, bytes32 sigR, bytes32 sigS, uint8 sigV) public view returns(bool) {... */\n    tag_4:\n      callvalue\n      dup1\n      iszero\n      tag_31\n      jumpi\n      0x00\n      dup1\n      revert\n    tag_31:\n      pop\n      tag_32\n      0x04\n      dup1\n      calldatasize\n      sub\n      dup2\n      add\n      swap1\n      tag_33\n      swap2\n      swap1\n      tag_27\n      jump\t// in\n    tag_33:\n      tag_34\n      jump\t// in\n    tag_32:\n      mload(0x40)\n      tag_35\n      swap2\n      swap1\n      tag_36\n      jump\t// in\n    tag_35:\n      mload(0x40)\n      dup1\n      swap2\n      sub\n      swap1\n      return\n        /* \"venda_gassless_flattened.sol\":5636:5720  function paused() public view virtual returns (bool) {... */\n    tag_5:\n      callvalue\n      dup1\n      iszero\n      tag_37\n      jumpi\n      0x00\n      dup1\n      revert\n    tag_37:\n      pop\n      tag_38\n      tag_39\n      jump\t// in\n    tag_38:\n      mload(0x40)\n      tag_40\n      swap2\n      swap1\n      tag_36\n      jump\t// in\n    tag_40:\n      mload(0x40)\n      dup1\n      swap2\n      sub\n      swap1\n      return\n        /* \"venda_gassless_flattened.sol\":8390:8491  function renounceOwnership() public virtual onlyOwner {... */\n    tag_6:\n      callvalue\n      dup1\n      iszero\n      tag_41\n      jumpi\n      0x00\n      dup1\n      revert\n    tag_41:\n      pop\n      tag_42\n      tag_43\n      jump\t// in\n    tag_42:\n      stop\n        /* \"venda_gassless_flattened.sol\":15497:15538  mapping(address => uint256) public nonces */\n    tag_7:\n      callvalue\n      dup1\n      iszero\n      tag_44\n      jumpi\n      0x00\n      dup1\n      revert\n    tag_44:\n      pop\n      tag_45\n      0x04\n      dup1\n      calldatasize\n      sub\n      dup2\n      add\n      swap1\n      tag_46\n      swap2\n      swap1\n      tag_47\n      jump\t// in\n    tag_46:\n      tag_48\n      jump\t// in\n    tag_45:\n      mload(0x40)\n      tag_49\n      swap2\n      swap1\n      tag_50\n      jump\t// in\n    tag_49:\n      mload(0x40)\n      dup1\n      swap2\n      sub\n      swap1\n      return\n        /* \"venda_gassless_flattened.sol\":15256:15288  uint256 public royaltyPercentage */\n    tag_8:\n      callvalue\n      dup1\n      iszero\n      tag_51\n      jumpi\n      0x00\n      dup1\n      revert\n    tag_51:\n      pop\n      tag_52\n      tag_53\n      jump\t// in\n    tag_52:\n      mload(0x40)\n      tag_54\n      swap2\n      swap1\n      tag_50\n      jump\t// in\n    tag_54:\n      mload(0x40)\n      dup1\n      swap2\n      sub\n      swap1\n      return\n        /* \"venda_gassless_flattened.sol\":7767:7852  function owner() public view virtual returns (address) {... */\n    tag_9:\n      callvalue\n      dup1\n      iszero\n      tag_55\n      jumpi\n      0x00\n      dup1\n      revert\n    tag_55:\n      pop\n      tag_56\n      tag_57\n      jump\t// in\n    tag_56:\n      mload(0x40)\n      tag_58\n      swap2\n      swap1\n      tag_59\n      jump\t// in\n    tag_58:\n      mload(0x40)\n      dup1\n      swap2\n      sub\n      swap1\n      return\n        /* \"venda_gassless_flattened.sol\":15459:15491  uint256 public nextListingId = 1 */\n    tag_10:\n      callvalue\n      dup1\n      iszero\n      tag_60\n      jumpi\n      0x00\n      dup1\n      revert\n    tag_60:\n      pop\n      tag_61\n      tag_62\n      jump\t// in\n    tag_61:\n      mload(0x40)\n      tag_63\n      swap2\n      swap1\n      tag_50\n      jump\t// in\n    tag_63:\n      mload(0x40)\n      dup1\n      swap2\n      sub\n      swap1\n      return\n        /* \"venda_gassless_flattened.sol\":15336:15365  address public royaltyAddress */\n    tag_11:\n      callvalue\n      dup1\n      iszero\n      tag_64\n      jumpi\n      0x00\n      dup1\n      revert\n    tag_64:\n      pop\n      tag_65\n      tag_66\n      jump\t// in\n    tag_65:\n      mload(0x40)\n      tag_67\n      swap2\n      swap1\n      tag_59\n      jump\t// in\n    tag_67:\n      mload(0x40)\n      dup1\n      swap2\n      sub\n      swap1\n      return\n        /* \"venda_gassless_flattened.sol\":15294:15330  uint256 public platformFeePercentage */\n    tag_12:\n      callvalue\n      dup1\n      iszero\n      tag_68\n      jumpi\n      0x00\n      dup1\n      revert\n    tag_68:\n      pop\n      tag_69\n      tag_70\n      jump\t// in\n    tag_69:\n      mload(0x40)\n      tag_71\n      swap2\n      swap1\n      tag_50\n      jump\t// in\n    tag_71:\n      mload(0x40)\n      dup1\n      swap2\n      sub\n      swap1\n      return\n        /* \"venda_gassless_flattened.sol\":15410:15453  mapping(uint256 => Listing) public listings */\n    tag_13:\n      callvalue\n      dup1\n      iszero\n      tag_72\n      jumpi\n      0x00\n      dup1\n      revert\n    tag_72:\n      pop\n      tag_73\n      0x04\n      dup1\n      calldatasize\n      sub\n      dup2\n      add\n      swap1\n      tag_74\n      swap2\n      swap1\n      tag_75\n      jump\t// in\n    tag_74:\n      tag_76\n      jump\t// in\n    tag_73:\n      mload(0x40)\n      tag_77\n      swap6\n      swap5\n      swap4\n      swap3\n      swap2\n      swap1\n      tag_78\n      jump\t// in\n    tag_77:\n      mload(0x40)\n      dup1\n      swap2\n      sub\n      swap1\n      return\n        /* \"venda_gassless_flattened.sol\":15217:15250  uint256[] public activeListingIds */\n    tag_14:\n      callvalue\n      dup1\n      iszero\n      tag_79\n      jumpi\n      0x00\n      dup1\n      revert\n    tag_79:\n      pop\n      tag_80\n      0x04\n      dup1\n      calldatasize\n      sub\n      dup2\n      add\n      swap1\n      tag_81\n      swap2\n      swap1\n      tag_75\n      jump\t// in\n    tag_81:\n      tag_82\n      jump\t// in\n    tag_80:\n      mload(0x40)\n      tag_83\n      swap2\n      swap1\n      tag_50\n      jump\t// in\n    tag_83:\n      mload(0x40)\n      dup1\n      swap2\n      sub\n      swap1\n      return\n        /* \"venda_gassless_flattened.sol\":15371:15404  address public platformFeeAddress */\n    tag_15:\n      callvalue\n      dup1\n      iszero\n      tag_84\n      jumpi\n      0x00\n      dup1\n      revert\n    tag_84:\n      pop\n      tag_85\n      tag_86\n      jump\t// in\n    tag_85:\n      mload(0x40)\n      tag_87\n      swap2\n      swap1\n      tag_59\n      jump\t// in\n    tag_87:\n      mload(0x40)\n      dup1\n      swap2\n      sub\n      swap1\n      return\n        /* \"venda_gassless_flattened.sol\":8640:8838  function transferOwnership(address newOwner) public virtual onlyOwner {... */\n    tag_16:\n      callvalue\n      dup1\n      iszero\n      tag_88\n      jumpi\n      0x00\n      dup1\n      revert\n    tag_88:\n      pop\n      tag_89\n      0x04\n      dup1\n      calldatasize\n      sub\n      dup2\n      add\n      swap1\n      tag_90\n      swap2\n      swap1\n      tag_47\n      jump\t// in\n    tag_90:\n      tag_91\n      jump\t// in\n    tag_89:\n      stop\n        /* \"venda_gassless_flattened.sol\":16414:17156  function listNFT(address _nftContractAddress, uint256 _nftId, uint256 _price, uint256 _deadline, address userAddress) external whenNotPaused {... */\n    tag_24:\n        /* \"venda_gassless_flattened.sol\":5260:5279  _requireNotPaused() */\n      tag_93\n        /* \"venda_gassless_flattened.sol\":5260:5277  _requireNotPaused */\n      tag_94\n        /* \"venda_gassless_flattened.sol\":5260:5279  _requireNotPaused() */\n      jump\t// in\n    tag_93:\n        /* \"venda_gassless_flattened.sol\":16565:16584  IERC721 nftContract */\n      0x00\n        /* \"venda_gassless_flattened.sol\":16595:16614  _nftContractAddress */\n      dup6\n        /* \"venda_gassless_flattened.sol\":16565:16615  IERC721 nftContract = IERC721(_nftContractAddress) */\n      swap1\n      pop\n        /* \"venda_gassless_flattened.sol\":16664:16675  userAddress */\n      dup2\n        /* \"venda_gassless_flattened.sol\":16633:16675  nftContract.ownerOf(_nftId) == userAddress */\n      0xffffffffffffffffffffffffffffffffffffffff\n      and\n        /* \"venda_gassless_flattened.sol\":16633:16644  nftContract */\n      dup2\n        /* \"venda_gassless_flattened.sol\":16633:16652  nftContract.ownerOf */\n      0xffffffffffffffffffffffffffffffffffffffff\n      and\n      0x6352211e\n        /* \"venda_gassless_flattened.sol\":16653:16659  _nftId */\n      dup8\n        /* \"venda_gassless_flattened.sol\":16633:16660  nftContract.ownerOf(_nftId) */\n      mload(0x40)\n      dup3\n      0xffffffff\n      and\n      0xe0\n      shl\n      dup2\n      mstore\n      0x04\n      add\n      tag_96\n      swap2\n      swap1\n      tag_50\n      jump\t// in\n    tag_96:\n      0x20\n      mload(0x40)\n      dup1\n      dup4\n      sub\n      dup2\n      dup7\n      dup1\n      extcodesize\n      iszero\n      dup1\n      iszero\n      tag_97\n      jumpi\n      0x00\n      dup1\n      revert\n    tag_97:\n      pop\n      gas\n      staticcall\n      iszero\n      dup1\n      iszero\n      tag_99\n      jumpi\n      returndatasize\n      0x00\n      dup1\n      returndatacopy\n      revert(0x00, returndatasize)\n    tag_99:\n      pop\n      pop\n      pop\n      pop\n      mload(0x40)\n      returndatasize\n      not(0x1f)\n      0x1f\n      dup3\n      add\n      and\n      dup3\n      add\n      dup1\n      0x40\n      mstore\n      pop\n      dup2\n      add\n      swap1\n      tag_100\n      swap2\n      swap1\n      tag_101\n      jump\t// in\n    tag_100:\n        /* \"venda_gassless_flattened.sol\":16633:16675  nftContract.ownerOf(_nftId) == userAddress */\n      0xffffffffffffffffffffffffffffffffffffffff\n      and\n      eq\n        /* \"venda_gassless_flattened.sol\":16625:16712  require(nftContract.ownerOf(_nftId) == userAddress, \"You must own the NFT to list it.\") */\n      tag_102\n      jumpi\n      mload(0x40)\n      0x08c379a000000000000000000000000000000000000000000000000000000000\n      dup2\n      mstore\n      0x04\n      add\n      tag_103\n      swap1\n      tag_104\n      jump\t// in\n    tag_103:\n      mload(0x40)\n      dup1\n      swap2\n      sub\n      swap1\n      revert\n    tag_102:\n        /* \"venda_gassless_flattened.sol\":16749:16959  Listing({... */\n      mload(0x40)\n      dup1\n      0xa0\n      add\n      0x40\n      mstore\n      dup1\n        /* \"venda_gassless_flattened.sol\":16791:16810  _nftContractAddress */\n      dup8\n        /* \"venda_gassless_flattened.sol\":16749:16959  Listing({... */\n      0xffffffffffffffffffffffffffffffffffffffff\n      and\n      dup2\n      mstore\n      0x20\n      add\n        /* \"venda_gassless_flattened.sol\":16831:16837  _nftId */\n      dup7\n        /* \"venda_gassless_flattened.sol\":16749:16959  Listing({... */\n      dup2\n      mstore\n      0x20\n      add\n        /* \"venda_gassless_flattened.sol\":16859:16870  userAddress */\n      dup4\n        /* \"venda_gassless_flattened.sol\":16749:16959  Listing({... */\n      0xffffffffffffffffffffffffffffffffffffffff\n      and\n      dup2\n      mstore\n      0x20\n      add\n        /* \"venda_gassless_flattened.sol\":16891:16897  _price */\n      dup6\n        /* \"venda_gassless_flattened.sol\":16749:16959  Listing({... */\n      dup2\n      mstore\n      0x20\n      add\n        /* \"venda_gassless_flattened.sol\":16939:16948  _deadline */\n      dup5\n        /* \"venda_gassless_flattened.sol\":16921:16936  block.timestamp */\n      timestamp\n        /* \"venda_gassless_flattened.sol\":16921:16948  block.timestamp + _deadline */\n      tag_105\n      swap2\n      swap1\n      tag_106\n      jump\t// in\n    tag_105:\n        /* \"venda_gassless_flattened.sol\":16749:16959  Listing({... */\n      dup2\n      mstore\n      pop\n        /* \"venda_gassless_flattened.sol\":16723:16731  listings */\n      0x08\n        /* \"venda_gassless_flattened.sol\":16723:16746  listings[nextListingId] */\n      0x00\n        /* \"venda_gassless_flattened.sol\":16732:16745  nextListingId */\n      sload(0x09)\n        /* \"venda_gassless_flattened.sol\":16723:16746  listings[nextListingId] */\n      dup2\n      mstore\n      0x20\n      add\n      swap1\n      dup2\n      mstore\n      0x20\n      add\n      0x00\n      keccak256\n        /* \"venda_gassless_flattened.sol\":16723:16959  listings[nextListingId] = Listing({... */\n      0x00\n      dup3\n      add\n      mload\n      dup2\n      0x00\n      add\n      exp(0x0100, 0x00)\n      dup2\n      sload\n      dup2\n      0xffffffffffffffffffffffffffffffffffffffff\n      mul\n      not\n      and\n      swap1\n      dup4\n      0xffffffffffffffffffffffffffffffffffffffff\n      and\n      mul\n      or\n      swap1\n      sstore\n      pop\n      0x20\n      dup3\n      add\n      mload\n      dup2\n      0x01\n      add\n      sstore\n      0x40\n      dup3\n      add\n      mload\n      dup2\n      0x02\n      add\n      exp(0x0100, 0x00)\n      dup2\n      sload\n      dup2\n      0xffffffffffffffffffffffffffffffffffffffff\n      mul\n      not\n      and\n      swap1\n      dup4\n      0xffffffffffffffffffffffffffffffffffffffff\n      and\n      mul\n      or\n      swap1\n      sstore\n      pop\n      0x60\n      dup3\n      add\n      mload\n      dup2\n      0x03\n      add\n      sstore\n      0x80\n      dup3\n      add\n      mload\n      dup2\n      0x04\n      add\n      sstore\n      swap1\n      pop\n      pop\n        /* \"venda_gassless_flattened.sol\":16970:16986  activeListingIds */\n      0x03\n        /* \"venda_gassless_flattened.sol\":16992:17005  nextListingId */\n      sload(0x09)\n        /* \"venda_gassless_flattened.sol\":16970:17006  activeListingIds.push(nextListingId) */\n      swap1\n      dup1\n      0x01\n      dup2\n      sload\n      add\n      dup1\n      dup3\n      sstore\n      dup1\n      swap2\n      pop\n      pop\n      0x01\n      swap1\n      sub\n      swap1\n      0x00\n      mstore\n      keccak256(0x00, 0x20)\n      add\n      0x00\n      swap1\n      swap2\n      swap1\n      swap2\n      swap1\n      swap2\n      pop\n      sstore\n        /* \"venda_gassless_flattened.sol\":17059:17078  _nftContractAddress */\n      dup6\n        /* \"venda_gassless_flattened.sol\":17021:17124  NFTListed(nextListingId, userAddress, _nftContractAddress, _nftId, _price, block.timestamp + _deadline) */\n      0xffffffffffffffffffffffffffffffffffffffff\n      and\n        /* \"venda_gassless_flattened.sol\":17046:17057  userAddress */\n      dup3\n        /* \"venda_gassless_flattened.sol\":17021:17124  NFTListed(nextListingId, userAddress, _nftContractAddress, _nftId, _price, block.timestamp + _deadline) */\n      0xffffffffffffffffffffffffffffffffffffffff\n      and\n        /* \"venda_gassless_flattened.sol\":17031:17044  nextListingId */\n      sload(0x09)\n        /* \"venda_gassless_flattened.sol\":17021:17124  NFTListed(nextListingId, userAddress, _nftContractAddress, _nftId, _price, block.timestamp + _deadline) */\n      0xf33c76fec15a03b2e414df8c9dce93f5b05f8672742e0f1eb558b2161162dfcb\n        /* \"venda_gassless_flattened.sol\":17080:17086  _nftId */\n      dup9\n        /* \"venda_gassless_flattened.sol\":17088:17094  _price */\n      dup9\n        /* \"venda_gassless_flattened.sol\":17114:17123  _deadline */\n      dup9\n        /* \"venda_gassless_flattened.sol\":17096:17111  block.timestamp */\n      timestamp\n        /* \"venda_gassless_flattened.sol\":17096:17123  block.timestamp + _deadline */\n      tag_108\n      swap2\n      swap1\n      tag_106\n      jump\t// in\n    tag_108:\n        /* \"venda_gassless_flattened.sol\":17021:17124  NFTListed(nextListingId, userAddress, _nftContractAddress, _nftId, _price, block.timestamp + _deadline) */\n      mload(0x40)\n      tag_109\n      swap4\n      swap3\n      swap2\n      swap1\n      tag_110\n      jump\t// in\n    tag_109:\n      mload(0x40)\n      dup1\n      swap2\n      sub\n      swap1\n      log4\n        /* \"venda_gassless_flattened.sol\":17134:17147  nextListingId */\n      0x09\n      0x00\n        /* \"venda_gassless_flattened.sol\":17134:17149  nextListingId++ */\n      dup2\n      sload\n      dup1\n      swap3\n      swap2\n      swap1\n      tag_111\n      swap1\n      tag_112\n      jump\t// in\n    tag_111:\n      swap2\n      swap1\n      pop\n      sstore\n      pop\n        /* \"venda_gassless_flattened.sol\":5289:5290  _ */\n      pop\n        /* \"venda_gassless_flattened.sol\":16414:17156  function listNFT(address _nftContractAddress, uint256 _nftId, uint256 _price, uint256 _deadline, address userAddress) external whenNotPaused {... */\n      pop\n      pop\n      pop\n      pop\n      pop\n      jump\t// out\n        /* \"venda_gassless_flattened.sol\":17223:17837  function executeMetaTransaction(address userAddress, bytes memory functionSignature, bytes32 sigR, bytes32 sigS, uint8 sigV) public payable returns(bytes memory) {... */\n    tag_28:\n        /* \"venda_gassless_flattened.sol\":17371:17383  bytes memory */\n      0x60\n        /* \"venda_gassless_flattened.sol\":17403:17461  isSigner(userAddress, functionSignature, sigR, sigS, sigV) */\n      tag_114\n        /* \"venda_gassless_flattened.sol\":17412:17423  userAddress */\n      dup7\n        /* \"venda_gassless_flattened.sol\":17425:17442  functionSignature */\n      dup7\n        /* \"venda_gassless_flattened.sol\":17444:17448  sigR */\n      dup7\n        /* \"venda_gassless_flattened.sol\":17450:17454  sigS */\n      dup7\n        /* \"venda_gassless_flattened.sol\":17456:17460  sigV */\n      dup7\n        /* \"venda_gassless_flattened.sol\":17403:17411  isSigner */\n      tag_34\n        /* \"venda_gassless_flattened.sol\":17403:17461  isSigner(userAddress, functionSignature, sigR, sigS, sigV) */\n      jump\t// in\n    tag_114:\n        /* \"venda_gassless_flattened.sol\":17395:17499  require(isSigner(userAddress, functionSignature, sigR, sigS, sigV), \"Signer and signature do not match\") */\n      tag_115\n      jumpi\n      mload(0x40)\n      0x08c379a000000000000000000000000000000000000000000000000000000000\n      dup2\n      mstore\n      0x04\n      add\n      tag_116\n      swap1\n      tag_117\n      jump\t// in\n    tag_116:\n      mload(0x40)\n      dup1\n      swap2\n      sub\n      swap1\n      revert\n    tag_115:\n        /* \"venda_gassless_flattened.sol\":17510:17516  nonces */\n      0x0a\n        /* \"venda_gassless_flattened.sol\":17510:17529  nonces[userAddress] */\n      0x00\n        /* \"venda_gassless_flattened.sol\":17517:17528  userAddress */\n      dup8\n        /* \"venda_gassless_flattened.sol\":17510:17529  nonces[userAddress] */\n      0xffffffffffffffffffffffffffffffffffffffff\n      and\n      0xffffffffffffffffffffffffffffffffffffffff\n      and\n      dup2\n      mstore\n      0x20\n      add\n      swap1\n      dup2\n      mstore\n      0x20\n      add\n      0x00\n      keccak256\n      0x00\n        /* \"venda_gassless_flattened.sol\":17510:17531  nonces[userAddress]++ */\n      dup2\n      sload\n      dup1\n      swap3\n      swap2\n      swap1\n      tag_118\n      swap1\n      tag_112\n      jump\t// in\n    tag_118:\n      swap2\n      swap1\n      pop\n      sstore\n      pop\n        /* \"venda_gassless_flattened.sol\":17543:17555  bool success */\n      0x00\n        /* \"venda_gassless_flattened.sol\":17557:17580  bytes memory returnData */\n      dup1\n        /* \"venda_gassless_flattened.sol\":17592:17596  this */\n      address\n        /* \"venda_gassless_flattened.sol\":17584:17610  address(this).delegatecall */\n      0xffffffffffffffffffffffffffffffffffffffff\n      and\n        /* \"venda_gassless_flattened.sol\":17628:17645  functionSignature */\n      dup8\n        /* \"venda_gassless_flattened.sol\":17647:17658  userAddress */\n      dup10\n        /* \"venda_gassless_flattened.sol\":17611:17659  abi.encodePacked(functionSignature, userAddress) */\n      add(0x20, mload(0x40))\n      tag_119\n      swap3\n      swap2\n      swap1\n      tag_120\n      jump\t// in\n    tag_119:\n      mload(0x40)\n      0x20\n      dup2\n      dup4\n      sub\n      sub\n      dup2\n      mstore\n      swap1\n      0x40\n      mstore\n        /* \"venda_gassless_flattened.sol\":17584:17660  address(this).delegatecall(abi.encodePacked(functionSignature, userAddress)) */\n      mload(0x40)\n      tag_121\n      swap2\n      swap1\n      tag_122\n      jump\t// in\n    tag_121:\n      0x00\n      mload(0x40)\n      dup1\n      dup4\n      sub\n      dup2\n      dup6\n      gas\n      delegatecall\n      swap2\n      pop\n      pop\n      returndatasize\n      dup1\n      0x00\n      dup2\n      eq\n      tag_125\n      jumpi\n      mload(0x40)\n      swap2\n      pop\n      and(add(returndatasize, 0x3f), not(0x1f))\n      dup3\n      add\n      0x40\n      mstore\n      returndatasize\n      dup3\n      mstore\n      returndatasize\n      0x00\n      0x20\n      dup5\n      add\n      returndatacopy\n      jump(tag_124)\n    tag_125:\n      0x60\n      swap2\n      pop\n    tag_124:\n      pop\n        /* \"venda_gassless_flattened.sol\":17542:17660  (bool success, bytes memory returnData) = address(this).delegatecall(abi.encodePacked(functionSignature, userAddress)) */\n      swap2\n      pop\n      swap2\n      pop\n        /* \"venda_gassless_flattened.sol\":17678:17685  success */\n      dup2\n        /* \"venda_gassless_flattened.sol\":17670:17710  require(success, \"Function call failed\") */\n      tag_126\n      jumpi\n      mload(0x40)\n      0x08c379a000000000000000000000000000000000000000000000000000000000\n      dup2\n      mstore\n      0x04\n      add\n      tag_127\n      swap1\n      tag_128\n      jump\t// in\n    tag_127:\n      mload(0x40)\n      dup1\n      swap2\n      sub\n      swap1\n      revert\n    tag_126:\n        /* \"venda_gassless_flattened.sol\":17726:17802  MetaTransactionExecuted(userAddress, payable(msg.sender), functionSignature) */\n      0x5845892132946850460bff5a0083f71031bc5bf9aadcd40f1de79423eac9b10b\n        /* \"venda_gassless_flattened.sol\":17750:17761  userAddress */\n      dup9\n        /* \"venda_gassless_flattened.sol\":17771:17781  msg.sender */\n      caller\n        /* \"venda_gassless_flattened.sol\":17784:17801  functionSignature */\n      dup10\n        /* \"venda_gassless_flattened.sol\":17726:17802  MetaTransactionExecuted(userAddress, payable(msg.sender), functionSignature) */\n      mload(0x40)\n      tag_129\n      swap4\n      swap3\n      swap2\n      swap1\n      tag_130\n      jump\t// in\n    tag_129:\n      mload(0x40)\n      dup1\n      swap2\n      sub\n      swap1\n      log1\n        /* \"venda_gassless_flattened.sol\":17820:17830  returnData */\n      dup1\n        /* \"venda_gassless_flattened.sol\":17813:17830  return returnData */\n      swap3\n      pop\n      pop\n      pop\n        /* \"venda_gassless_flattened.sol\":17223:17837  function executeMetaTransaction(address userAddress, bytes memory functionSignature, bytes32 sigR, bytes32 sigS, uint8 sigV) public payable returns(bytes memory) {... */\n      swap6\n      swap5\n      pop\n      pop\n      pop\n      pop\n      pop\n      jump\t// out\n        /* \"venda_gassless_flattened.sol\":17843:18284  function isSigner(address userAddress, bytes memory functionSignature, bytes32 sigR, bytes32 sigS, uint8 sigV) public view returns(bool) {... */\n    tag_34:\n        /* \"venda_gassless_flattened.sol\":17974:17978  bool */\n      0x00\n        /* \"venda_gassless_flattened.sol\":17990:18007  address msgSender */\n      dup1\n        /* \"venda_gassless_flattened.sol\":18010:18021  userAddress */\n      dup7\n        /* \"venda_gassless_flattened.sol\":17990:18021  address msgSender = userAddress */\n      swap1\n      pop\n        /* \"venda_gassless_flattened.sol\":18031:18044  uint256 nonce */\n      0x00\n        /* \"venda_gassless_flattened.sol\":18047:18053  nonces */\n      0x0a\n        /* \"venda_gassless_flattened.sol\":18047:18066  nonces[userAddress] */\n      0x00\n        /* \"venda_gassless_flattened.sol\":18054:18065  userAddress */\n      dup10\n        /* \"venda_gassless_flattened.sol\":18047:18066  nonces[userAddress] */\n      0xffffffffffffffffffffffffffffffffffffffff\n      and\n      0xffffffffffffffffffffffffffffffffffffffff\n      and\n      dup2\n      mstore\n      0x20\n      add\n      swap1\n      dup2\n      mstore\n      0x20\n      add\n      0x00\n      keccak256\n      sload\n        /* \"venda_gassless_flattened.sol\":18031:18066  uint256 nonce = nonces[userAddress] */\n      swap1\n      pop\n        /* \"venda_gassless_flattened.sol\":18076:18091  bytes32 msgHash */\n      0x00\n        /* \"venda_gassless_flattened.sol\":18094:18174  prefixed(keccak256(abi.encodePacked(msgSender, nonce, this, functionSignature))) */\n      tag_132\n        /* \"venda_gassless_flattened.sol\":18130:18139  msgSender */\n      dup4\n        /* \"venda_gassless_flattened.sol\":18141:18146  nonce */\n      dup4\n        /* \"venda_gassless_flattened.sol\":18148:18152  this */\n      address\n        /* \"venda_gassless_flattened.sol\":18154:18171  functionSignature */\n      dup12\n        /* \"venda_gassless_flattened.sol\":18113:18172  abi.encodePacked(msgSender, nonce, this, functionSignature) */\n      add(0x20, mload(0x40))\n      tag_133\n      swap5\n      swap4\n      swap3\n      swap2\n      swap1\n      tag_134\n      jump\t// in\n    tag_133:\n      mload(0x40)\n      0x20\n      dup2\n      dup4\n      sub\n      sub\n      dup2\n      mstore\n      swap1\n      0x40\n      mstore\n        /* \"venda_gassless_flattened.sol\":18103:18173  keccak256(abi.encodePacked(msgSender, nonce, this, functionSignature)) */\n      dup1\n      mload\n      swap1\n      0x20\n      add\n      keccak256\n        /* \"venda_gassless_flattened.sol\":18094:18102  prefixed */\n      tag_135\n        /* \"venda_gassless_flattened.sol\":18094:18174  prefixed(keccak256(abi.encodePacked(msgSender, nonce, this, functionSignature))) */\n      jump\t// in\n    tag_132:\n        /* \"venda_gassless_flattened.sol\":18076:18174  bytes32 msgHash = prefixed(keccak256(abi.encodePacked(msgSender, nonce, this, functionSignature))) */\n      swap1\n      pop\n        /* \"venda_gassless_flattened.sol\":18184:18198  address signer */\n      0x00\n        /* \"venda_gassless_flattened.sol\":18201:18237  ecrecover(msgHash, sigV, sigR, sigS) */\n      0x01\n        /* \"venda_gassless_flattened.sol\":18211:18218  msgHash */\n      dup3\n        /* \"venda_gassless_flattened.sol\":18220:18224  sigV */\n      dup8\n        /* \"venda_gassless_flattened.sol\":18226:18230  sigR */\n      dup11\n        /* \"venda_gassless_flattened.sol\":18232:18236  sigS */\n      dup11\n        /* \"venda_gassless_flattened.sol\":18201:18237  ecrecover(msgHash, sigV, sigR, sigS) */\n      mload(0x40)\n      0x00\n      dup2\n      mstore\n      0x20\n      add\n      0x40\n      mstore\n      mload(0x40)\n      tag_136\n      swap5\n      swap4\n      swap3\n      swap2\n      swap1\n      tag_137\n      jump\t// in\n    tag_136:\n      0x20\n      mload(0x40)\n      0x20\n      dup2\n      sub\n      swap1\n      dup1\n      dup5\n      sub\n      swap1\n      dup6\n      gas\n      staticcall\n      iszero\n      dup1\n      iszero\n      tag_139\n      jumpi\n      returndatasize\n      0x00\n      dup1\n      returndatacopy\n      revert(0x00, returndatasize)\n    tag_139:\n      pop\n      pop\n      pop\n      mload(sub(mload(0x40), 0x20))\n        /* \"venda_gassless_flattened.sol\":18184:18237  address signer = ecrecover(msgHash, sigV, sigR, sigS) */\n      swap1\n      pop\n        /* \"venda_gassless_flattened.sol\":18265:18276  userAddress */\n      dup10\n        /* \"venda_gassless_flattened.sol\":18255:18276  signer == userAddress */\n      0xffffffffffffffffffffffffffffffffffffffff\n      and\n        /* \"venda_gassless_flattened.sol\":18255:18261  signer */\n      dup2\n        /* \"venda_gassless_flattened.sol\":18255:18276  signer == userAddress */\n      0xffffffffffffffffffffffffffffffffffffffff\n      and\n      eq\n        /* \"venda_gassless_flattened.sol\":18247:18277  return (signer == userAddress) */\n      swap5\n      pop\n      pop\n      pop\n      pop\n      pop\n        /* \"venda_gassless_flattened.sol\":17843:18284  function isSigner(address userAddress, bytes memory functionSignature, bytes32 sigR, bytes32 sigS, uint8 sigV) public view returns(bool) {... */\n      swap6\n      swap5\n      pop\n      pop\n      pop\n      pop\n      pop\n      jump\t// out\n        /* \"venda_gassless_flattened.sol\":5636:5720  function paused() public view virtual returns (bool) {... */\n    tag_39:\n        /* \"venda_gassless_flattened.sol\":5683:5687  bool */\n      0x00\n        /* \"venda_gassless_flattened.sol\":5706:5713  _paused */\n      0x02\n      0x00\n      swap1\n      sload\n      swap1\n      0x0100\n      exp\n      swap1\n      div\n      0xff\n      and\n        /* \"venda_gassless_flattened.sol\":5699:5713  return _paused */\n      swap1\n      pop\n        /* \"venda_gassless_flattened.sol\":5636:5720  function paused() public view virtual returns (bool) {... */\n      swap1\n      jump\t// out\n        /* \"venda_gassless_flattened.sol\":8390:8491  function renounceOwnership() public virtual onlyOwner {... */\n    tag_43:\n        /* \"venda_gassless_flattened.sol\":7660:7673  _checkOwner() */\n      tag_142\n        /* \"venda_gassless_flattened.sol\":7660:7671  _checkOwner */\n      tag_143\n        /* \"venda_gassless_flattened.sol\":7660:7673  _checkOwner() */\n      jump\t// in\n    tag_142:\n        /* \"venda_gassless_flattened.sol\":8454:8484  _transferOwnership(address(0)) */\n      tag_145\n        /* \"venda_gassless_flattened.sol\":8481:8482  0 */\n      0x00\n        /* \"venda_gassless_flattened.sol\":8454:8472  _transferOwnership */\n      tag_146\n        /* \"venda_gassless_flattened.sol\":8454:8484  _transferOwnership(address(0)) */\n      jump\t// in\n    tag_145:\n        /* \"venda_gassless_flattened.sol\":8390:8491  function renounceOwnership() public virtual onlyOwner {... */\n      jump\t// out\n        /* \"venda_gassless_flattened.sol\":15497:15538  mapping(address => uint256) public nonces */\n    tag_48:\n      mstore(0x20, 0x0a)\n      dup1\n      0x00\n      mstore\n      keccak256(0x00, 0x40)\n      0x00\n      swap2\n      pop\n      swap1\n      pop\n      sload\n      dup2\n      jump\t// out\n        /* \"venda_gassless_flattened.sol\":15256:15288  uint256 public royaltyPercentage */\n    tag_53:\n      sload(0x04)\n      dup2\n      jump\t// out\n        /* \"venda_gassless_flattened.sol\":7767:7852  function owner() public view virtual returns (address) {... */\n    tag_57:\n        /* \"venda_gassless_flattened.sol\":7813:7820  address */\n      0x00\n        /* \"venda_gassless_flattened.sol\":7839:7845  _owner */\n      dup1\n      0x00\n      swap1\n      sload\n      swap1\n      0x0100\n      exp\n      swap1\n      div\n      0xffffffffffffffffffffffffffffffffffffffff\n      and\n        /* \"venda_gassless_flattened.sol\":7832:7845  return _owner */\n      swap1\n      pop\n        /* \"venda_gassless_flattened.sol\":7767:7852  function owner() public view virtual returns (address) {... */\n      swap1\n      jump\t// out\n        /* \"venda_gassless_flattened.sol\":15459:15491  uint256 public nextListingId = 1 */\n    tag_62:\n      sload(0x09)\n      dup2\n      jump\t// out\n        /* \"venda_gassless_flattened.sol\":15336:15365  address public royaltyAddress */\n    tag_66:\n      0x06\n      0x00\n      swap1\n      sload\n      swap1\n      0x0100\n      exp\n      swap1\n      div\n      0xffffffffffffffffffffffffffffffffffffffff\n      and\n      dup2\n      jump\t// out\n        /* \"venda_gassless_flattened.sol\":15294:15330  uint256 public platformFeePercentage */\n    tag_70:\n      sload(0x05)\n      dup2\n      jump\t// out\n        /* \"venda_gassless_flattened.sol\":15410:15453  mapping(uint256 => Listing) public listings */\n    tag_76:\n      mstore(0x20, 0x08)\n      dup1\n      0x00\n      mstore\n      keccak256(0x00, 0x40)\n      0x00\n      swap2\n      pop\n      swap1\n      pop\n      dup1\n      0x00\n      add\n      0x00\n      swap1\n      sload\n      swap1\n      0x0100\n      exp\n      swap1\n      div\n      0xffffffffffffffffffffffffffffffffffffffff\n      and\n      swap1\n      dup1\n      0x01\n      add\n      sload\n      swap1\n      dup1\n      0x02\n      add\n      0x00\n      swap1\n      sload\n      swap1\n      0x0100\n      exp\n      swap1\n      div\n      0xffffffffffffffffffffffffffffffffffffffff\n      and\n      swap1\n      dup1\n      0x03\n      add\n      sload\n      swap1\n      dup1\n      0x04\n      add\n      sload\n      swap1\n      pop\n      dup6\n      jump\t// out\n        /* \"venda_gassless_flattened.sol\":15217:15250  uint256[] public activeListingIds */\n    tag_82:\n      0x03\n      dup2\n      dup2\n      sload\n      dup2\n      lt\n      tag_148\n      jumpi\n      0x00\n      dup1\n      revert\n    tag_148:\n      swap1\n      0x00\n      mstore\n      keccak256(0x00, 0x20)\n      add\n      0x00\n      swap2\n      pop\n      swap1\n      pop\n      sload\n      dup2\n      jump\t// out\n        /* \"venda_gassless_flattened.sol\":15371:15404  address public platformFeeAddress */\n    tag_86:\n      0x07\n      0x00\n      swap1\n      sload\n      swap1\n      0x0100\n      exp\n      swap1\n      div\n      0xffffffffffffffffffffffffffffffffffffffff\n      and\n      dup2\n      jump\t// out\n        /* \"venda_gassless_flattened.sol\":8640:8838  function transferOwnership(address newOwner) public virtual onlyOwner {... */\n    tag_91:\n        /* \"venda_gassless_flattened.sol\":7660:7673  _checkOwner() */\n      tag_151\n        /* \"venda_gassless_flattened.sol\":7660:7671  _checkOwner */\n      tag_143\n        /* \"venda_gassless_flattened.sol\":7660:7673  _checkOwner() */\n      jump\t// in\n    tag_151:\n        /* \"venda_gassless_flattened.sol\":8748:8749  0 */\n      0x00\n        /* \"venda_gassless_flattened.sol\":8728:8750  newOwner != address(0) */\n      0xffffffffffffffffffffffffffffffffffffffff\n      and\n        /* \"venda_gassless_flattened.sol\":8728:8736  newOwner */\n      dup2\n        /* \"venda_gassless_flattened.sol\":8728:8750  newOwner != address(0) */\n      0xffffffffffffffffffffffffffffffffffffffff\n      and\n      eq\n      iszero\n        /* \"venda_gassless_flattened.sol\":8720:8793  require(newOwner != address(0), \"Ownable: new owner is the zero address\") */\n      tag_153\n      jumpi\n      mload(0x40)\n      0x08c379a000000000000000000000000000000000000000000000000000000000\n      dup2\n      mstore\n      0x04\n      add\n      tag_154\n      swap1\n      tag_155\n      jump\t// in\n    tag_154:\n      mload(0x40)\n      dup1\n      swap2\n      sub\n      swap1\n      revert\n    tag_153:\n        /* \"venda_gassless_flattened.sol\":8803:8831  _transferOwnership(newOwner) */\n      tag_156\n        /* \"venda_gassless_flattened.sol\":8822:8830  newOwner */\n      dup2\n        /* \"venda_gassless_flattened.sol\":8803:8821  _transferOwnership */\n      tag_146\n        /* \"venda_gassless_flattened.sol\":8803:8831  _transferOwnership(newOwner) */\n      jump\t// in\n    tag_156:\n        /* \"venda_gassless_flattened.sol\":8640:8838  function transferOwnership(address newOwner) public virtual onlyOwner {... */\n      pop\n      jump\t// out\n        /* \"venda_gassless_flattened.sol\":5788:5894  function _requireNotPaused() internal view virtual {... */\n    tag_94:\n        /* \"venda_gassless_flattened.sol\":5858:5866  paused() */\n      tag_158\n        /* \"venda_gassless_flattened.sol\":5858:5864  paused */\n      tag_39\n        /* \"venda_gassless_flattened.sol\":5858:5866  paused() */\n      jump\t// in\n    tag_158:\n        /* \"venda_gassless_flattened.sol\":5857:5866  !paused() */\n      iszero\n        /* \"venda_gassless_flattened.sol\":5849:5887  require(!paused(), \"Pausable: paused\") */\n      tag_159\n      jumpi\n      mload(0x40)\n      0x08c379a000000000000000000000000000000000000000000000000000000000\n      dup2\n      mstore\n      0x04\n      add\n      tag_160\n      swap1\n      tag_161\n      jump\t// in\n    tag_160:\n      mload(0x40)\n      dup1\n      swap2\n      sub\n      swap1\n      revert\n    tag_159:\n        /* \"venda_gassless_flattened.sol\":5788:5894  function _requireNotPaused() internal view virtual {... */\n      jump\t// out\n        /* \"venda_gassless_flattened.sol\":18290:18447  function prefixed(bytes32 hash) internal pure returns (bytes32) {... */\n    tag_135:\n        /* \"venda_gassless_flattened.sol\":18345:18352  bytes32 */\n      0x00\n        /* \"venda_gassless_flattened.sol\":18434:18438  hash */\n      dup2\n        /* \"venda_gassless_flattened.sol\":18381:18439  abi.encodePacked(\"\\x19Ethereum Signed Message:\\n32\", hash) */\n      add(0x20, mload(0x40))\n      tag_163\n      swap2\n      swap1\n      tag_164\n      jump\t// in\n    tag_163:\n      mload(0x40)\n      0x20\n      dup2\n      dup4\n      sub\n      sub\n      dup2\n      mstore\n      swap1\n      0x40\n      mstore\n        /* \"venda_gassless_flattened.sol\":18371:18440  keccak256(abi.encodePacked(\"\\x19Ethereum Signed Message:\\n32\", hash)) */\n      dup1\n      mload\n      swap1\n      0x20\n      add\n      keccak256\n        /* \"venda_gassless_flattened.sol\":18364:18440  return keccak256(abi.encodePacked(\"\\x19Ethereum Signed Message:\\n32\", hash)) */\n      swap1\n      pop\n        /* \"venda_gassless_flattened.sol\":18290:18447  function prefixed(bytes32 hash) internal pure returns (bytes32) {... */\n      swap2\n      swap1\n      pop\n      jump\t// out\n        /* \"venda_gassless_flattened.sol\":7925:8055  function _checkOwner() internal view virtual {... */\n    tag_143:\n        /* \"venda_gassless_flattened.sol\":7999:8011  _msgSender() */\n      tag_166\n        /* \"venda_gassless_flattened.sol\":7999:8009  _msgSender */\n      tag_167\n        /* \"venda_gassless_flattened.sol\":7999:8011  _msgSender() */\n      jump\t// in\n    tag_166:\n        /* \"venda_gassless_flattened.sol\":7988:8011  owner() == _msgSender() */\n      0xffffffffffffffffffffffffffffffffffffffff\n      and\n        /* \"venda_gassless_flattened.sol\":7988:7995  owner() */\n      tag_168\n        /* \"venda_gassless_flattened.sol\":7988:7993  owner */\n      tag_57\n        /* \"venda_gassless_flattened.sol\":7988:7995  owner() */\n      jump\t// in\n    tag_168:\n        /* \"venda_gassless_flattened.sol\":7988:8011  owner() == _msgSender() */\n      0xffffffffffffffffffffffffffffffffffffffff\n      and\n      eq\n        /* \"venda_gassless_flattened.sol\":7980:8048  require(owner() == _msgSender(), \"Ownable: caller is not the owner\") */\n      tag_169\n      jumpi\n      mload(0x40)\n      0x08c379a000000000000000000000000000000000000000000000000000000000\n      dup2\n      mstore\n      0x04\n      add\n      tag_170\n      swap1\n      tag_171\n      jump\t// in\n    tag_170:\n      mload(0x40)\n      dup1\n      swap2\n      sub\n      swap1\n      revert\n    tag_169:\n        /* \"venda_gassless_flattened.sol\":7925:8055  function _checkOwner() internal view virtual {... */\n      jump\t// out\n        /* \"venda_gassless_flattened.sol\":8992:9179  function _transferOwnership(address newOwner) internal virtual {... */\n    tag_146:\n        /* \"venda_gassless_flattened.sol\":9065:9081  address oldOwner */\n      0x00\n        /* \"venda_gassless_flattened.sol\":9084:9090  _owner */\n      dup1\n      0x00\n      swap1\n      sload\n      swap1\n      0x0100\n      exp\n      swap1\n      div\n      0xffffffffffffffffffffffffffffffffffffffff\n      and\n        /* \"venda_gassless_flattened.sol\":9065:9090  address oldOwner = _owner */\n      swap1\n      pop\n        /* \"venda_gassless_flattened.sol\":9109:9117  newOwner */\n      dup2\n        /* \"venda_gassless_flattened.sol\":9100:9106  _owner */\n      0x00\n      dup1\n        /* \"venda_gassless_flattened.sol\":9100:9117  _owner = newOwner */\n      0x0100\n      exp\n      dup2\n      sload\n      dup2\n      0xffffffffffffffffffffffffffffffffffffffff\n      mul\n      not\n      and\n      swap1\n      dup4\n      0xffffffffffffffffffffffffffffffffffffffff\n      and\n      mul\n      or\n      swap1\n      sstore\n      pop\n        /* \"venda_gassless_flattened.sol\":9163:9171  newOwner */\n      dup2\n        /* \"venda_gassless_flattened.sol\":9132:9172  OwnershipTransferred(oldOwner, newOwner) */\n      0xffffffffffffffffffffffffffffffffffffffff\n      and\n        /* \"venda_gassless_flattened.sol\":9153:9161  oldOwner */\n      dup2\n        /* \"venda_gassless_flattened.sol\":9132:9172  OwnershipTransferred(oldOwner, newOwner) */\n      0xffffffffffffffffffffffffffffffffffffffff\n      and\n      0x8be0079c531659141344cd1fd0a4f28419497f9722a3daafe3b4186f6b6457e0\n      mload(0x40)\n      mload(0x40)\n      dup1\n      swap2\n      sub\n      swap1\n      log3\n        /* \"venda_gassless_flattened.sol\":8992:9179  function _transferOwnership(address newOwner) internal virtual {... */\n      pop\n      pop\n      jump\t// out\n        /* \"venda_gassless_flattened.sol\":3822:3918  function _msgSender() internal view virtual returns (address) {... */\n    tag_167:\n        /* \"venda_gassless_flattened.sol\":3875:3882  address */\n      0x00\n        /* \"venda_gassless_flattened.sol\":3901:3911  msg.sender */\n      caller\n        /* \"venda_gassless_flattened.sol\":3894:3911  return msg.sender */\n      swap1\n      pop\n        /* \"venda_gassless_flattened.sol\":3822:3918  function _msgSender() internal view virtual returns (address) {... */\n      swap1\n      jump\t// out\n        /* \"#utility.yul\":7:349   */\n    tag_175:\n      0x00\n        /* \"#utility.yul\":109:173   */\n      tag_177\n        /* \"#utility.yul\":124:172   */\n      tag_178\n        /* \"#utility.yul\":165:171   */\n      dup5\n        /* \"#utility.yul\":124:172   */\n      tag_179\n      jump\t// in\n    tag_178:\n        /* \"#utility.yul\":109:173   */\n      tag_180\n      jump\t// in\n    tag_177:\n        /* \"#utility.yul\":100:173   */\n      swap1\n      pop\n        /* \"#utility.yul\":196:202   */\n      dup3\n        /* \"#utility.yul\":189:194   */\n      dup2\n        /* \"#utility.yul\":182:203   */\n      mstore\n        /* \"#utility.yul\":234:238   */\n      0x20\n        /* \"#utility.yul\":227:232   */\n      dup2\n        /* \"#utility.yul\":223:239   */\n      add\n        /* \"#utility.yul\":272:275   */\n      dup5\n        /* \"#utility.yul\":263:269   */\n      dup5\n        /* \"#utility.yul\":258:261   */\n      dup5\n        /* \"#utility.yul\":254:270   */\n      add\n        /* \"#utility.yul\":251:276   */\n      gt\n        /* \"#utility.yul\":248:250   */\n      iszero\n      tag_181\n      jumpi\n        /* \"#utility.yul\":289:290   */\n      0x00\n        /* \"#utility.yul\":286:287   */\n      dup1\n        /* \"#utility.yul\":279:291   */\n      revert\n        /* \"#utility.yul\":248:250   */\n    tag_181:\n        /* \"#utility.yul\":302:343   */\n      tag_182\n        /* \"#utility.yul\":336:342   */\n      dup5\n        /* \"#utility.yul\":331:334   */\n      dup3\n        /* \"#utility.yul\":326:329   */\n      dup6\n        /* \"#utility.yul\":302:343   */\n      tag_183\n      jump\t// in\n    tag_182:\n        /* \"#utility.yul\":90:349   */\n      pop\n      swap4\n      swap3\n      pop\n      pop\n      pop\n      jump\t// out\n        /* \"#utility.yul\":355:494   */\n    tag_184:\n      0x00\n        /* \"#utility.yul\":439:445   */\n      dup2\n        /* \"#utility.yul\":426:446   */\n      calldataload\n        /* \"#utility.yul\":417:446   */\n      swap1\n      pop\n        /* \"#utility.yul\":455:488   */\n      tag_186\n        /* \"#utility.yul\":482:487   */\n      dup2\n        /* \"#utility.yul\":455:488   */\n      tag_187\n      jump\t// in\n    tag_186:\n        /* \"#utility.yul\":407:494   */\n      swap3\n      swap2\n      pop\n      pop\n      jump\t// out\n        /* \"#utility.yul\":500:643   */\n    tag_188:\n      0x00\n        /* \"#utility.yul\":588:594   */\n      dup2\n        /* \"#utility.yul\":582:595   */\n      mload\n        /* \"#utility.yul\":573:595   */\n      swap1\n      pop\n        /* \"#utility.yul\":604:637   */\n      tag_190\n        /* \"#utility.yul\":631:636   */\n      dup2\n        /* \"#utility.yul\":604:637   */\n      tag_187\n      jump\t// in\n    tag_190:\n        /* \"#utility.yul\":563:643   */\n      swap3\n      swap2\n      pop\n      pop\n      jump\t// out\n        /* \"#utility.yul\":649:788   */\n    tag_191:\n      0x00\n        /* \"#utility.yul\":733:739   */\n      dup2\n        /* \"#utility.yul\":720:740   */\n      calldataload\n        /* \"#utility.yul\":711:740   */\n      swap1\n      pop\n        /* \"#utility.yul\":749:782   */\n      tag_193\n        /* \"#utility.yul\":776:781   */\n      dup2\n        /* \"#utility.yul\":749:782   */\n      tag_194\n      jump\t// in\n    tag_193:\n        /* \"#utility.yul\":701:788   */\n      swap3\n      swap2\n      pop\n      pop\n      jump\t// out\n        /* \"#utility.yul\":807:1078   */\n    tag_195:\n      0x00\n        /* \"#utility.yul\":911:914   */\n      dup3\n        /* \"#utility.yul\":904:908   */\n      0x1f\n        /* \"#utility.yul\":896:902   */\n      dup4\n        /* \"#utility.yul\":892:909   */\n      add\n        /* \"#utility.yul\":888:915   */\n      slt\n        /* \"#utility.yul\":878:880   */\n      tag_197\n      jumpi\n        /* \"#utility.yul\":929:930   */\n      0x00\n        /* \"#utility.yul\":926:927   */\n      dup1\n        /* \"#utility.yul\":919:931   */\n      revert\n        /* \"#utility.yul\":878:880   */\n    tag_197:\n        /* \"#utility.yul\":969:975   */\n      dup2\n        /* \"#utility.yul\":956:976   */\n      calldataload\n        /* \"#utility.yul\":994:1072   */\n      tag_198\n        /* \"#utility.yul\":1068:1071   */\n      dup5\n        /* \"#utility.yul\":1060:1066   */\n      dup3\n        /* \"#utility.yul\":1053:1057   */\n      0x20\n        /* \"#utility.yul\":1045:1051   */\n      dup7\n        /* \"#utility.yul\":1041:1058   */\n      add\n        /* \"#utility.yul\":994:1072   */\n      tag_175\n      jump\t// in\n    tag_198:\n        /* \"#utility.yul\":985:1072   */\n      swap2\n      pop\n        /* \"#utility.yul\":868:1078   */\n      pop\n      swap3\n      swap2\n      pop\n      pop\n      jump\t// out\n        /* \"#utility.yul\":1084:1223   */\n    tag_199:\n      0x00\n        /* \"#utility.yul\":1168:1174   */\n      dup2\n        /* \"#utility.yul\":1155:1175   */\n      calldataload\n        /* \"#utility.yul\":1146:1175   */\n      swap1\n      pop\n        /* \"#utility.yul\":1184:1217   */\n      tag_201\n        /* \"#utility.yul\":1211:1216   */\n      dup2\n        /* \"#utility.yul\":1184:1217   */\n      tag_202\n      jump\t// in\n    tag_201:\n        /* \"#utility.yul\":1136:1223   */\n      swap3\n      swap2\n      pop\n      pop\n      jump\t// out\n        /* \"#utility.yul\":1229:1364   */\n    tag_203:\n      0x00\n        /* \"#utility.yul\":1311:1317   */\n      dup2\n        /* \"#utility.yul\":1298:1318   */\n      calldataload\n        /* \"#utility.yul\":1289:1318   */\n      swap1\n      pop\n        /* \"#utility.yul\":1327:1358   */\n      tag_205\n        /* \"#utility.yul\":1352:1357   */\n      dup2\n        /* \"#utility.yul\":1327:1358   */\n      tag_206\n      jump\t// in\n    tag_205:\n        /* \"#utility.yul\":1279:1364   */\n      swap3\n      swap2\n      pop\n      pop\n      jump\t// out\n        /* \"#utility.yul\":1370:1632   */\n    tag_47:\n      0x00\n        /* \"#utility.yul\":1478:1480   */\n      0x20\n        /* \"#utility.yul\":1466:1475   */\n      dup3\n        /* \"#utility.yul\":1457:1464   */\n      dup5\n        /* \"#utility.yul\":1453:1476   */\n      sub\n        /* \"#utility.yul\":1449:1481   */\n      slt\n        /* \"#utility.yul\":1446:1448   */\n      iszero\n      tag_208\n      jumpi\n        /* \"#utility.yul\":1494:1495   */\n      0x00\n        /* \"#utility.yul\":1491:1492   */\n      dup1\n        /* \"#utility.yul\":1484:1496   */\n      revert\n        /* \"#utility.yul\":1446:1448   */\n    tag_208:\n        /* \"#utility.yul\":1537:1538   */\n      0x00\n        /* \"#utility.yul\":1562:1615   */\n      tag_209\n        /* \"#utility.yul\":1607:1614   */\n      dup5\n        /* \"#utility.yul\":1598:1604   */\n      dup3\n        /* \"#utility.yul\":1587:1596   */\n      dup6\n        /* \"#utility.yul\":1583:1605   */\n      add\n        /* \"#utility.yul\":1562:1615   */\n      tag_184\n      jump\t// in\n    tag_209:\n        /* \"#utility.yul\":1552:1615   */\n      swap2\n      pop\n        /* \"#utility.yul\":1508:1625   */\n      pop\n        /* \"#utility.yul\":1436:1632   */\n      swap3\n      swap2\n      pop\n      pop\n      jump\t// out\n        /* \"#utility.yul\":1638:1922   */\n    tag_101:\n      0x00\n        /* \"#utility.yul\":1757:1759   */\n      0x20\n        /* \"#utility.yul\":1745:1754   */\n      dup3\n        /* \"#utility.yul\":1736:1743   */\n      dup5\n        /* \"#utility.yul\":1732:1755   */\n      sub\n        /* \"#utility.yul\":1728:1760   */\n      slt\n        /* \"#utility.yul\":1725:1727   */\n      iszero\n      tag_211\n      jumpi\n        /* \"#utility.yul\":1773:1774   */\n      0x00\n        /* \"#utility.yul\":1770:1771   */\n      dup1\n        /* \"#utility.yul\":1763:1775   */\n      revert\n        /* \"#utility.yul\":1725:1727   */\n    tag_211:\n        /* \"#utility.yul\":1816:1817   */\n      0x00\n        /* \"#utility.yul\":1841:1905   */\n      tag_212\n        /* \"#utility.yul\":1897:1904   */\n      dup5\n        /* \"#utility.yul\":1888:1894   */\n      dup3\n        /* \"#utility.yul\":1877:1886   */\n      dup6\n        /* \"#utility.yul\":1873:1895   */\n      add\n        /* \"#utility.yul\":1841:1905   */\n      tag_188\n      jump\t// in\n    tag_212:\n        /* \"#utility.yul\":1831:1905   */\n      swap2\n      pop\n        /* \"#utility.yul\":1787:1915   */\n      pop\n        /* \"#utility.yul\":1715:1922   */\n      swap3\n      swap2\n      pop\n      pop\n      jump\t// out\n        /* \"#utility.yul\":1928:2879   */\n    tag_27:\n      0x00\n      dup1\n      0x00\n      dup1\n      0x00\n        /* \"#utility.yul\":2111:2114   */\n      0xa0\n        /* \"#utility.yul\":2099:2108   */\n      dup7\n        /* \"#utility.yul\":2090:2097   */\n      dup9\n        /* \"#utility.yul\":2086:2109   */\n      sub\n        /* \"#utility.yul\":2082:2115   */\n      slt\n        /* \"#utility.yul\":2079:2081   */\n      iszero\n      tag_214\n      jumpi\n        /* \"#utility.yul\":2128:2129   */\n      0x00\n        /* \"#utility.yul\":2125:2126   */\n      dup1\n        /* \"#utility.yul\":2118:2130   */\n      revert\n        /* \"#utility.yul\":2079:2081   */\n    tag_214:\n        /* \"#utility.yul\":2171:2172   */\n      0x00\n        /* \"#utility.yul\":2196:2249   */\n      tag_215\n        /* \"#utility.yul\":2241:2248   */\n      dup9\n        /* \"#utility.yul\":2232:2238   */\n      dup3\n        /* \"#utility.yul\":2221:2230   */\n      dup10\n        /* \"#utility.yul\":2217:2239   */\n      add\n        /* \"#utility.yul\":2196:2249   */\n      tag_184\n      jump\t// in\n    tag_215:\n        /* \"#utility.yul\":2186:2249   */\n      swap6\n      pop\n        /* \"#utility.yul\":2142:2259   */\n      pop\n        /* \"#utility.yul\":2326:2328   */\n      0x20\n        /* \"#utility.yul\":2315:2324   */\n      dup7\n        /* \"#utility.yul\":2311:2329   */\n      add\n        /* \"#utility.yul\":2298:2330   */\n      calldataload\n        /* \"#utility.yul\":2357:2375   */\n      0xffffffffffffffff\n        /* \"#utility.yul\":2349:2355   */\n      dup2\n        /* \"#utility.yul\":2346:2376   */\n      gt\n        /* \"#utility.yul\":2343:2345   */\n      iszero\n      tag_216\n      jumpi\n        /* \"#utility.yul\":2389:2390   */\n      0x00\n        /* \"#utility.yul\":2386:2387   */\n      dup1\n        /* \"#utility.yul\":2379:2391   */\n      revert\n        /* \"#utility.yul\":2343:2345   */\n    tag_216:\n        /* \"#utility.yul\":2417:2479   */\n      tag_217\n        /* \"#utility.yul\":2471:2478   */\n      dup9\n        /* \"#utility.yul\":2462:2468   */\n      dup3\n        /* \"#utility.yul\":2451:2460   */\n      dup10\n        /* \"#utility.yul\":2447:2469   */\n      add\n        /* \"#utility.yul\":2417:2479   */\n      tag_195\n      jump\t// in\n    tag_217:\n        /* \"#utility.yul\":2407:2479   */\n      swap5\n      pop\n        /* \"#utility.yul\":2269:2489   */\n      pop\n        /* \"#utility.yul\":2528:2530   */\n      0x40\n        /* \"#utility.yul\":2554:2607   */\n      tag_218\n        /* \"#utility.yul\":2599:2606   */\n      dup9\n        /* \"#utility.yul\":2590:2596   */\n      dup3\n        /* \"#utility.yul\":2579:2588   */\n      dup10\n        /* \"#utility.yul\":2575:2597   */\n      add\n        /* \"#utility.yul\":2554:2607   */\n      tag_191\n      jump\t// in\n    tag_218:\n        /* \"#utility.yul\":2544:2607   */\n      swap4\n      pop\n        /* \"#utility.yul\":2499:2617   */\n      pop\n        /* \"#utility.yul\":2656:2658   */\n      0x60\n        /* \"#utility.yul\":2682:2735   */\n      tag_219\n        /* \"#utility.yul\":2727:2734   */\n      dup9\n        /* \"#utility.yul\":2718:2724   */\n      dup3\n        /* \"#utility.yul\":2707:2716   */\n      dup10\n        /* \"#utility.yul\":2703:2725   */\n      add\n        /* \"#utility.yul\":2682:2735   */\n      tag_191\n      jump\t// in\n    tag_219:\n        /* \"#utility.yul\":2672:2735   */\n      swap3\n      pop\n        /* \"#utility.yul\":2627:2745   */\n      pop\n        /* \"#utility.yul\":2784:2787   */\n      0x80\n        /* \"#utility.yul\":2811:2862   */\n      tag_220\n        /* \"#utility.yul\":2854:2861   */\n      dup9\n        /* \"#utility.yul\":2845:2851   */\n      dup3\n        /* \"#utility.yul\":2834:2843   */\n      dup10\n        /* \"#utility.yul\":2830:2852   */\n      add\n        /* \"#utility.yul\":2811:2862   */\n      tag_203\n      jump\t// in\n    tag_220:\n        /* \"#utility.yul\":2801:2862   */\n      swap2\n      pop\n        /* \"#utility.yul\":2755:2872   */\n      pop\n        /* \"#utility.yul\":2069:2879   */\n      swap3\n      swap6\n      pop\n      swap3\n      swap6\n      swap1\n      swap4\n      pop\n      jump\t// out\n        /* \"#utility.yul\":2885:3729   */\n    tag_23:\n      0x00\n      dup1\n      0x00\n      dup1\n      0x00\n        /* \"#utility.yul\":3061:3064   */\n      0xa0\n        /* \"#utility.yul\":3049:3058   */\n      dup7\n        /* \"#utility.yul\":3040:3047   */\n      dup9\n        /* \"#utility.yul\":3036:3059   */\n      sub\n        /* \"#utility.yul\":3032:3065   */\n      slt\n        /* \"#utility.yul\":3029:3031   */\n      iszero\n      tag_222\n      jumpi\n        /* \"#utility.yul\":3078:3079   */\n      0x00\n        /* \"#utility.yul\":3075:3076   */\n      dup1\n        /* \"#utility.yul\":3068:3080   */\n      revert\n        /* \"#utility.yul\":3029:3031   */\n    tag_222:\n        /* \"#utility.yul\":3121:3122   */\n      0x00\n        /* \"#utility.yul\":3146:3199   */\n      tag_223\n        /* \"#utility.yul\":3191:3198   */\n      dup9\n        /* \"#utility.yul\":3182:3188   */\n      dup3\n        /* \"#utility.yul\":3171:3180   */\n      dup10\n        /* \"#utility.yul\":3167:3189   */\n      add\n        /* \"#utility.yul\":3146:3199   */\n      tag_184\n      jump\t// in\n    tag_223:\n        /* \"#utility.yul\":3136:3199   */\n      swap6\n      pop\n        /* \"#utility.yul\":3092:3209   */\n      pop\n        /* \"#utility.yul\":3248:3250   */\n      0x20\n        /* \"#utility.yul\":3274:3327   */\n      tag_224\n        /* \"#utility.yul\":3319:3326   */\n      dup9\n        /* \"#utility.yul\":3310:3316   */\n      dup3\n        /* \"#utility.yul\":3299:3308   */\n      dup10\n        /* \"#utility.yul\":3295:3317   */\n      add\n        /* \"#utility.yul\":3274:3327   */\n      tag_199\n      jump\t// in\n    tag_224:\n        /* \"#utility.yul\":3264:3327   */\n      swap5\n      pop\n        /* \"#utility.yul\":3219:3337   */\n      pop\n        /* \"#utility.yul\":3376:3378   */\n      0x40\n        /* \"#utility.yul\":3402:3455   */\n      tag_225\n        /* \"#utility.yul\":3447:3454   */\n      dup9\n        /* \"#utility.yul\":3438:3444   */\n      dup3\n        /* \"#utility.yul\":3427:3436   */\n      dup10\n        /* \"#utility.yul\":3423:3445   */\n      add\n        /* \"#utility.yul\":3402:3455   */\n      tag_199\n      jump\t// in\n    tag_225:\n        /* \"#utility.yul\":3392:3455   */\n      swap4\n      pop\n        /* \"#utility.yul\":3347:3465   */\n      pop\n        /* \"#utility.yul\":3504:3506   */\n      0x60\n        /* \"#utility.yul\":3530:3583   */\n      tag_226\n        /* \"#utility.yul\":3575:3582   */\n      dup9\n        /* \"#utility.yul\":3566:3572   */\n      dup3\n        /* \"#utility.yul\":3555:3564   */\n      dup10\n        /* \"#utility.yul\":3551:3573   */\n      add\n        /* \"#utility.yul\":3530:3583   */\n      tag_199\n      jump\t// in\n    tag_226:\n        /* \"#utility.yul\":3520:3583   */\n      swap3\n      pop\n        /* \"#utility.yul\":3475:3593   */\n      pop\n        /* \"#utility.yul\":3632:3635   */\n      0x80\n        /* \"#utility.yul\":3659:3712   */\n      tag_227\n        /* \"#utility.yul\":3704:3711   */\n      dup9\n        /* \"#utility.yul\":3695:3701   */\n      dup3\n        /* \"#utility.yul\":3684:3693   */\n      dup10\n        /* \"#utility.yul\":3680:3702   */\n      add\n        /* \"#utility.yul\":3659:3712   */\n      tag_184\n      jump\t// in\n    tag_227:\n        /* \"#utility.yul\":3649:3712   */\n      swap2\n      pop\n        /* \"#utility.yul\":3603:3722   */\n      pop\n        /* \"#utility.yul\":3019:3729   */\n      swap3\n      swap6\n      pop\n      swap3\n      swap6\n      swap1\n      swap4\n      pop\n      jump\t// out\n        /* \"#utility.yul\":3735:3997   */\n    tag_75:\n      0x00\n        /* \"#utility.yul\":3843:3845   */\n      0x20\n        /* \"#utility.yul\":3831:3840   */\n      dup3\n        /* \"#utility.yul\":3822:3829   */\n      dup5\n        /* \"#utility.yul\":3818:3841   */\n      sub\n        /* \"#utility.yul\":3814:3846   */\n      slt\n        /* \"#utility.yul\":3811:3813   */\n      iszero\n      tag_229\n      jumpi\n        /* \"#utility.yul\":3859:3860   */\n      0x00\n        /* \"#utility.yul\":3856:3857   */\n      dup1\n        /* \"#utility.yul\":3849:3861   */\n      revert\n        /* \"#utility.yul\":3811:3813   */\n    tag_229:\n        /* \"#utility.yul\":3902:3903   */\n      0x00\n        /* \"#utility.yul\":3927:3980   */\n      tag_230\n        /* \"#utility.yul\":3972:3979   */\n      dup5\n        /* \"#utility.yul\":3963:3969   */\n      dup3\n        /* \"#utility.yul\":3952:3961   */\n      dup6\n        /* \"#utility.yul\":3948:3970   */\n      add\n        /* \"#utility.yul\":3927:3980   */\n      tag_199\n      jump\t// in\n    tag_230:\n        /* \"#utility.yul\":3917:3980   */\n      swap2\n      pop\n        /* \"#utility.yul\":3873:3990   */\n      pop\n        /* \"#utility.yul\":3801:3997   */\n      swap3\n      swap2\n      pop\n      pop\n      jump\t// out\n        /* \"#utility.yul\":4003:4145   */\n    tag_231:\n        /* \"#utility.yul\":4106:4138   */\n      tag_233\n        /* \"#utility.yul\":4132:4137   */\n      dup2\n        /* \"#utility.yul\":4106:4138   */\n      tag_234\n      jump\t// in\n    tag_233:\n        /* \"#utility.yul\":4101:4104   */\n      dup3\n        /* \"#utility.yul\":4094:4139   */\n      mstore\n        /* \"#utility.yul\":4084:4145   */\n      pop\n      pop\n      jump\t// out\n        /* \"#utility.yul\":4151:4269   */\n    tag_235:\n        /* \"#utility.yul\":4238:4262   */\n      tag_237\n        /* \"#utility.yul\":4256:4261   */\n      dup2\n        /* \"#utility.yul\":4238:4262   */\n      tag_238\n      jump\t// in\n    tag_237:\n        /* \"#utility.yul\":4233:4236   */\n      dup3\n        /* \"#utility.yul\":4226:4263   */\n      mstore\n        /* \"#utility.yul\":4216:4269   */\n      pop\n      pop\n      jump\t// out\n        /* \"#utility.yul\":4275:4432   */\n    tag_239:\n        /* \"#utility.yul\":4380:4425   */\n      tag_241\n        /* \"#utility.yul\":4400:4424   */\n      tag_242\n        /* \"#utility.yul\":4418:4423   */\n      dup3\n        /* \"#utility.yul\":4400:4424   */\n      tag_238\n      jump\t// in\n    tag_242:\n        /* \"#utility.yul\":4380:4425   */\n      tag_243\n      jump\t// in\n    tag_241:\n        /* \"#utility.yul\":4375:4378   */\n      dup3\n        /* \"#utility.yul\":4368:4426   */\n      mstore\n        /* \"#utility.yul\":4358:4432   */\n      pop\n      pop\n      jump\t// out\n        /* \"#utility.yul\":4438:4547   */\n    tag_244:\n        /* \"#utility.yul\":4519:4540   */\n      tag_246\n        /* \"#utility.yul\":4534:4539   */\n      dup2\n        /* \"#utility.yul\":4519:4540   */\n      tag_247\n      jump\t// in\n    tag_246:\n        /* \"#utility.yul\":4514:4517   */\n      dup3\n        /* \"#utility.yul\":4507:4541   */\n      mstore\n        /* \"#utility.yul\":4497:4547   */\n      pop\n      pop\n      jump\t// out\n        /* \"#utility.yul\":4553:4671   */\n    tag_248:\n        /* \"#utility.yul\":4640:4664   */\n      tag_250\n        /* \"#utility.yul\":4658:4663   */\n      dup2\n        /* \"#utility.yul\":4640:4664   */\n      tag_251\n      jump\t// in\n    tag_250:\n        /* \"#utility.yul\":4635:4638   */\n      dup3\n        /* \"#utility.yul\":4628:4665   */\n      mstore\n        /* \"#utility.yul\":4618:4671   */\n      pop\n      pop\n      jump\t// out\n        /* \"#utility.yul\":4677:4834   */\n    tag_252:\n        /* \"#utility.yul\":4782:4827   */\n      tag_254\n        /* \"#utility.yul\":4802:4826   */\n      tag_255\n        /* \"#utility.yul\":4820:4825   */\n      dup3\n        /* \"#utility.yul\":4802:4826   */\n      tag_251\n      jump\t// in\n    tag_255:\n        /* \"#utility.yul\":4782:4827   */\n      tag_256\n      jump\t// in\n    tag_254:\n        /* \"#utility.yul\":4777:4780   */\n      dup3\n        /* \"#utility.yul\":4770:4828   */\n      mstore\n        /* \"#utility.yul\":4760:4834   */\n      pop\n      pop\n      jump\t// out\n        /* \"#utility.yul\":4840:5200   */\n    tag_257:\n      0x00\n        /* \"#utility.yul\":4954:4992   */\n      tag_259\n        /* \"#utility.yul\":4986:4991   */\n      dup3\n        /* \"#utility.yul\":4954:4992   */\n      tag_260\n      jump\t// in\n    tag_259:\n        /* \"#utility.yul\":5008:5078   */\n      tag_261\n        /* \"#utility.yul\":5071:5077   */\n      dup2\n        /* \"#utility.yul\":5066:5069   */\n      dup6\n        /* \"#utility.yul\":5008:5078   */\n      tag_262\n      jump\t// in\n    tag_261:\n        /* \"#utility.yul\":5001:5078   */\n      swap4\n      pop\n        /* \"#utility.yul\":5087:5139   */\n      tag_263\n        /* \"#utility.yul\":5132:5138   */\n      dup2\n        /* \"#utility.yul\":5127:5130   */\n      dup6\n        /* \"#utility.yul\":5120:5124   */\n      0x20\n        /* \"#utility.yul\":5113:5118   */\n      dup7\n        /* \"#utility.yul\":5109:5125   */\n      add\n        /* \"#utility.yul\":5087:5139   */\n      tag_264\n      jump\t// in\n    tag_263:\n        /* \"#utility.yul\":5164:5193   */\n      tag_265\n        /* \"#utility.yul\":5186:5192   */\n      dup2\n        /* \"#utility.yul\":5164:5193   */\n      tag_266\n      jump\t// in\n    tag_265:\n        /* \"#utility.yul\":5159:5162   */\n      dup5\n        /* \"#utility.yul\":5155:5194   */\n      add\n        /* \"#utility.yul\":5148:5194   */\n      swap2\n      pop\n        /* \"#utility.yul\":4930:5200   */\n      pop\n      swap3\n      swap2\n      pop\n      pop\n      jump\t// out\n        /* \"#utility.yul\":5206:5579   */\n    tag_267:\n      0x00\n        /* \"#utility.yul\":5338:5376   */\n      tag_269\n        /* \"#utility.yul\":5370:5375   */\n      dup3\n        /* \"#utility.yul\":5338:5376   */\n      tag_260\n      jump\t// in\n    tag_269:\n        /* \"#utility.yul\":5392:5480   */\n      tag_270\n        /* \"#utility.yul\":5473:5479   */\n      dup2\n        /* \"#utility.yul\":5468:5471   */\n      dup6\n        /* \"#utility.yul\":5392:5480   */\n      tag_271\n      jump\t// in\n    tag_270:\n        /* \"#utility.yul\":5385:5480   */\n      swap4\n      pop\n        /* \"#utility.yul\":5489:5541   */\n      tag_272\n        /* \"#utility.yul\":5534:5540   */\n      dup2\n        /* \"#utility.yul\":5529:5532   */\n      dup6\n        /* \"#utility.yul\":5522:5526   */\n      0x20\n        /* \"#utility.yul\":5515:5520   */\n      dup7\n        /* \"#utility.yul\":5511:5527   */\n      add\n        /* \"#utility.yul\":5489:5541   */\n      tag_264\n      jump\t// in\n    tag_272:\n        /* \"#utility.yul\":5566:5572   */\n      dup1\n        /* \"#utility.yul\":5561:5564   */\n      dup5\n        /* \"#utility.yul\":5557:5573   */\n      add\n        /* \"#utility.yul\":5550:5573   */\n      swap2\n      pop\n        /* \"#utility.yul\":5314:5579   */\n      pop\n      swap3\n      swap2\n      pop\n      pop\n      jump\t// out\n        /* \"#utility.yul\":5585:5799   */\n    tag_273:\n        /* \"#utility.yul\":5712:5792   */\n      tag_275\n        /* \"#utility.yul\":5732:5791   */\n      tag_276\n        /* \"#utility.yul\":5785:5790   */\n      dup3\n        /* \"#utility.yul\":5732:5791   */\n      tag_277\n      jump\t// in\n    tag_276:\n        /* \"#utility.yul\":5712:5792   */\n      tag_243\n      jump\t// in\n    tag_275:\n        /* \"#utility.yul\":5707:5710   */\n      dup3\n        /* \"#utility.yul\":5700:5793   */\n      mstore\n        /* \"#utility.yul\":5690:5799   */\n      pop\n      pop\n      jump\t// out\n        /* \"#utility.yul\":5805:6123   */\n    tag_278:\n      0x00\n        /* \"#utility.yul\":5968:6035   */\n      tag_280\n        /* \"#utility.yul\":6032:6034   */\n      0x14\n        /* \"#utility.yul\":6027:6030   */\n      dup4\n        /* \"#utility.yul\":5968:6035   */\n      tag_281\n      jump\t// in\n    tag_280:\n        /* \"#utility.yul\":5961:6035   */\n      swap2\n      pop\n        /* \"#utility.yul\":6065:6087   */\n      0x46756e6374696f6e2063616c6c206661696c6564000000000000000000000000\n        /* \"#utility.yul\":6061:6062   */\n      0x00\n        /* \"#utility.yul\":6056:6059   */\n      dup4\n        /* \"#utility.yul\":6052:6063   */\n      add\n        /* \"#utility.yul\":6045:6088   */\n      mstore\n        /* \"#utility.yul\":6114:6116   */\n      0x20\n        /* \"#utility.yul\":6109:6112   */\n      dup3\n        /* \"#utility.yul\":6105:6117   */\n      add\n        /* \"#utility.yul\":6098:6117   */\n      swap1\n      pop\n        /* \"#utility.yul\":5951:6123   */\n      swap2\n      swap1\n      pop\n      jump\t// out\n        /* \"#utility.yul\":6129:6527   */\n    tag_282:\n      0x00\n        /* \"#utility.yul\":6310:6395   */\n      tag_284\n        /* \"#utility.yul\":6392:6394   */\n      0x1c\n        /* \"#utility.yul\":6387:6390   */\n      dup4\n        /* \"#utility.yul\":6310:6395   */\n      tag_285\n      jump\t// in\n    tag_284:\n        /* \"#utility.yul\":6303:6395   */\n      swap2\n      pop\n        /* \"#utility.yul\":6425:6491   */\n      0x19457468657265756d205369676e6564204d6573736167653a0a333200000000\n        /* \"#utility.yul\":6421:6422   */\n      0x00\n        /* \"#utility.yul\":6416:6419   */\n      dup4\n        /* \"#utility.yul\":6412:6423   */\n      add\n        /* \"#utility.yul\":6405:6492   */\n      mstore\n        /* \"#utility.yul\":6518:6520   */\n      0x1c\n        /* \"#utility.yul\":6513:6516   */\n      dup3\n        /* \"#utility.yul\":6509:6521   */\n      add\n        /* \"#utility.yul\":6502:6521   */\n      swap1\n      pop\n        /* \"#utility.yul\":6293:6527   */\n      swap2\n      swap1\n      pop\n      jump\t// out\n        /* \"#utility.yul\":6533:6903   */\n    tag_286:\n      0x00\n        /* \"#utility.yul\":6696:6763   */\n      tag_288\n        /* \"#utility.yul\":6760:6762   */\n      0x26\n        /* \"#utility.yul\":6755:6758   */\n      dup4\n        /* \"#utility.yul\":6696:6763   */\n      tag_281\n      jump\t// in\n    tag_288:\n        /* \"#utility.yul\":6689:6763   */\n      swap2\n      pop\n        /* \"#utility.yul\":6793:6827   */\n      0x4f776e61626c653a206e6577206f776e657220697320746865207a65726f2061\n        /* \"#utility.yul\":6789:6790   */\n      0x00\n        /* \"#utility.yul\":6784:6787   */\n      dup4\n        /* \"#utility.yul\":6780:6791   */\n      add\n        /* \"#utility.yul\":6773:6828   */\n      mstore\n        /* \"#utility.yul\":6859:6867   */\n      0x6464726573730000000000000000000000000000000000000000000000000000\n        /* \"#utility.yul\":6854:6856   */\n      0x20\n        /* \"#utility.yul\":6849:6852   */\n      dup4\n        /* \"#utility.yul\":6845:6857   */\n      add\n        /* \"#utility.yul\":6838:6868   */\n      mstore\n        /* \"#utility.yul\":6894:6896   */\n      0x40\n        /* \"#utility.yul\":6889:6892   */\n      dup3\n        /* \"#utility.yul\":6885:6897   */\n      add\n        /* \"#utility.yul\":6878:6897   */\n      swap1\n      pop\n        /* \"#utility.yul\":6679:6903   */\n      swap2\n      swap1\n      pop\n      jump\t// out\n        /* \"#utility.yul\":6909:7239   */\n    tag_289:\n      0x00\n        /* \"#utility.yul\":7072:7139   */\n      tag_291\n        /* \"#utility.yul\":7136:7138   */\n      0x20\n        /* \"#utility.yul\":7131:7134   */\n      dup4\n        /* \"#utility.yul\":7072:7139   */\n      tag_281\n      jump\t// in\n    tag_291:\n        /* \"#utility.yul\":7065:7139   */\n      swap2\n      pop\n        /* \"#utility.yul\":7169:7203   */\n      0x596f75206d757374206f776e20746865204e465420746f206c6973742069742e\n        /* \"#utility.yul\":7165:7166   */\n      0x00\n        /* \"#utility.yul\":7160:7163   */\n      dup4\n        /* \"#utility.yul\":7156:7167   */\n      add\n        /* \"#utility.yul\":7149:7204   */\n      mstore\n        /* \"#utility.yul\":7230:7232   */\n      0x20\n        /* \"#utility.yul\":7225:7228   */\n      dup3\n        /* \"#utility.yul\":7221:7233   */\n      add\n        /* \"#utility.yul\":7214:7233   */\n      swap1\n      pop\n        /* \"#utility.yul\":7055:7239   */\n      swap2\n      swap1\n      pop\n      jump\t// out\n        /* \"#utility.yul\":7245:7559   */\n    tag_292:\n      0x00\n        /* \"#utility.yul\":7408:7475   */\n      tag_294\n        /* \"#utility.yul\":7472:7474   */\n      0x10\n        /* \"#utility.yul\":7467:7470   */\n      dup4\n        /* \"#utility.yul\":7408:7475   */\n      tag_281\n      jump\t// in\n    tag_294:\n        /* \"#utility.yul\":7401:7475   */\n      swap2\n      pop\n        /* \"#utility.yul\":7505:7523   */\n      0x5061757361626c653a2070617573656400000000000000000000000000000000\n        /* \"#utility.yul\":7501:7502   */\n      0x00\n        /* \"#utility.yul\":7496:7499   */\n      dup4\n        /* \"#utility.yul\":7492:7503   */\n      add\n        /* \"#utility.yul\":7485:7524   */\n      mstore\n        /* \"#utility.yul\":7550:7552   */\n      0x20\n        /* \"#utility.yul\":7545:7548   */\n      dup3\n        /* \"#utility.yul\":7541:7553   */\n      add\n        /* \"#utility.yul\":7534:7553   */\n      swap1\n      pop\n        /* \"#utility.yul\":7391:7559   */\n      swap2\n      swap1\n      pop\n      jump\t// out\n        /* \"#utility.yul\":7565:7895   */\n    tag_295:\n      0x00\n        /* \"#utility.yul\":7728:7795   */\n      tag_297\n        /* \"#utility.yul\":7792:7794   */\n      0x20\n        /* \"#utility.yul\":7787:7790   */\n      dup4\n        /* \"#utility.yul\":7728:7795   */\n      tag_281\n      jump\t// in\n    tag_297:\n        /* \"#utility.yul\":7721:7795   */\n      swap2\n      pop\n        /* \"#utility.yul\":7825:7859   */\n      0x4f776e61626c653a2063616c6c6572206973206e6f7420746865206f776e6572\n        /* \"#utility.yul\":7821:7822   */\n      0x00\n        /* \"#utility.yul\":7816:7819   */\n      dup4\n        /* \"#utility.yul\":7812:7823   */\n      add\n        /* \"#utility.yul\":7805:7860   */\n      mstore\n        /* \"#utility.yul\":7886:7888   */\n      0x20\n        /* \"#utility.yul\":7881:7884   */\n      dup3\n        /* \"#utility.yul\":7877:7889   */\n      add\n        /* \"#utility.yul\":7870:7889   */\n      swap1\n      pop\n        /* \"#utility.yul\":7711:7895   */\n      swap2\n      swap1\n      pop\n      jump\t// out\n        /* \"#utility.yul\":7901:8266   */\n    tag_298:\n      0x00\n        /* \"#utility.yul\":8064:8131   */\n      tag_300\n        /* \"#utility.yul\":8128:8130   */\n      0x21\n        /* \"#utility.yul\":8123:8126   */\n      dup4\n        /* \"#utility.yul\":8064:8131   */\n      tag_281\n      jump\t// in\n    tag_300:\n        /* \"#utility.yul\":8057:8131   */\n      swap2\n      pop\n        /* \"#utility.yul\":8161:8195   */\n      0x5369676e657220616e64207369676e617475726520646f206e6f74206d617463\n        /* \"#utility.yul\":8157:8158   */\n      0x00\n        /* \"#utility.yul\":8152:8155   */\n      dup4\n        /* \"#utility.yul\":8148:8159   */\n      add\n        /* \"#utility.yul\":8141:8196   */\n      mstore\n        /* \"#utility.yul\":8227:8230   */\n      0x6800000000000000000000000000000000000000000000000000000000000000\n        /* \"#utility.yul\":8222:8224   */\n      0x20\n        /* \"#utility.yul\":8217:8220   */\n      dup4\n        /* \"#utility.yul\":8213:8225   */\n      add\n        /* \"#utility.yul\":8206:8231   */\n      mstore\n        /* \"#utility.yul\":8257:8259   */\n      0x40\n        /* \"#utility.yul\":8252:8255   */\n      dup3\n        /* \"#utility.yul\":8248:8260   */\n      add\n        /* \"#utility.yul\":8241:8260   */\n      swap1\n      pop\n        /* \"#utility.yul\":8047:8266   */\n      swap2\n      swap1\n      pop\n      jump\t// out\n        /* \"#utility.yul\":8272:8390   */\n    tag_301:\n        /* \"#utility.yul\":8359:8383   */\n      tag_303\n        /* \"#utility.yul\":8377:8382   */\n      dup2\n        /* \"#utility.yul\":8359:8383   */\n      tag_304\n      jump\t// in\n    tag_303:\n        /* \"#utility.yul\":8354:8357   */\n      dup3\n        /* \"#utility.yul\":8347:8384   */\n      mstore\n        /* \"#utility.yul\":8337:8390   */\n      pop\n      pop\n      jump\t// out\n        /* \"#utility.yul\":8396:8553   */\n    tag_305:\n        /* \"#utility.yul\":8501:8546   */\n      tag_307\n        /* \"#utility.yul\":8521:8545   */\n      tag_308\n        /* \"#utility.yul\":8539:8544   */\n      dup3\n        /* \"#utility.yul\":8521:8545   */\n      tag_304\n      jump\t// in\n    tag_308:\n        /* \"#utility.yul\":8501:8546   */\n      tag_309\n      jump\t// in\n    tag_307:\n        /* \"#utility.yul\":8496:8499   */\n      dup3\n        /* \"#utility.yul\":8489:8547   */\n      mstore\n        /* \"#utility.yul\":8479:8553   */\n      pop\n      pop\n      jump\t// out\n        /* \"#utility.yul\":8559:8671   */\n    tag_310:\n        /* \"#utility.yul\":8642:8664   */\n      tag_312\n        /* \"#utility.yul\":8658:8663   */\n      dup2\n        /* \"#utility.yul\":8642:8664   */\n      tag_313\n      jump\t// in\n    tag_312:\n        /* \"#utility.yul\":8637:8640   */\n      dup3\n        /* \"#utility.yul\":8630:8665   */\n      mstore\n        /* \"#utility.yul\":8620:8671   */\n      pop\n      pop\n      jump\t// out\n        /* \"#utility.yul\":8677:9415   */\n    tag_134:\n      0x00\n        /* \"#utility.yul\":8928:9003   */\n      tag_315\n        /* \"#utility.yul\":8999:9002   */\n      dup3\n        /* \"#utility.yul\":8990:8996   */\n      dup8\n        /* \"#utility.yul\":8928:9003   */\n      tag_239\n      jump\t// in\n    tag_315:\n        /* \"#utility.yul\":9028:9030   */\n      0x14\n        /* \"#utility.yul\":9023:9026   */\n      dup3\n        /* \"#utility.yul\":9019:9031   */\n      add\n        /* \"#utility.yul\":9012:9031   */\n      swap2\n      pop\n        /* \"#utility.yul\":9041:9116   */\n      tag_316\n        /* \"#utility.yul\":9112:9115   */\n      dup3\n        /* \"#utility.yul\":9103:9109   */\n      dup7\n        /* \"#utility.yul\":9041:9116   */\n      tag_305\n      jump\t// in\n    tag_316:\n        /* \"#utility.yul\":9141:9143   */\n      0x20\n        /* \"#utility.yul\":9136:9139   */\n      dup3\n        /* \"#utility.yul\":9132:9144   */\n      add\n        /* \"#utility.yul\":9125:9144   */\n      swap2\n      pop\n        /* \"#utility.yul\":9154:9251   */\n      tag_317\n        /* \"#utility.yul\":9247:9250   */\n      dup3\n        /* \"#utility.yul\":9238:9244   */\n      dup6\n        /* \"#utility.yul\":9154:9251   */\n      tag_273\n      jump\t// in\n    tag_317:\n        /* \"#utility.yul\":9276:9278   */\n      0x14\n        /* \"#utility.yul\":9271:9274   */\n      dup3\n        /* \"#utility.yul\":9267:9279   */\n      add\n        /* \"#utility.yul\":9260:9279   */\n      swap2\n      pop\n        /* \"#utility.yul\":9296:9389   */\n      tag_318\n        /* \"#utility.yul\":9385:9388   */\n      dup3\n        /* \"#utility.yul\":9376:9382   */\n      dup5\n        /* \"#utility.yul\":9296:9389   */\n      tag_267\n      jump\t// in\n    tag_318:\n        /* \"#utility.yul\":9289:9389   */\n      swap2\n      pop\n        /* \"#utility.yul\":9406:9409   */\n      dup2\n        /* \"#utility.yul\":9399:9409   */\n      swap1\n      pop\n        /* \"#utility.yul\":8917:9415   */\n      swap6\n      swap5\n      pop\n      pop\n      pop\n      pop\n      pop\n      jump\t// out\n        /* \"#utility.yul\":9421:9692   */\n    tag_122:\n      0x00\n        /* \"#utility.yul\":9573:9666   */\n      tag_320\n        /* \"#utility.yul\":9662:9665   */\n      dup3\n        /* \"#utility.yul\":9653:9659   */\n      dup5\n        /* \"#utility.yul\":9573:9666   */\n      tag_267\n      jump\t// in\n    tag_320:\n        /* \"#utility.yul\":9566:9666   */\n      swap2\n      pop\n        /* \"#utility.yul\":9683:9686   */\n      dup2\n        /* \"#utility.yul\":9676:9686   */\n      swap1\n      pop\n        /* \"#utility.yul\":9555:9692   */\n      swap3\n      swap2\n      pop\n      pop\n      jump\t// out\n        /* \"#utility.yul\":9698:10110   */\n    tag_120:\n      0x00\n        /* \"#utility.yul\":9878:9971   */\n      tag_322\n        /* \"#utility.yul\":9967:9970   */\n      dup3\n        /* \"#utility.yul\":9958:9964   */\n      dup6\n        /* \"#utility.yul\":9878:9971   */\n      tag_267\n      jump\t// in\n    tag_322:\n        /* \"#utility.yul\":9871:9971   */\n      swap2\n      pop\n        /* \"#utility.yul\":9981:10056   */\n      tag_323\n        /* \"#utility.yul\":10052:10055   */\n      dup3\n        /* \"#utility.yul\":10043:10049   */\n      dup5\n        /* \"#utility.yul\":9981:10056   */\n      tag_239\n      jump\t// in\n    tag_323:\n        /* \"#utility.yul\":10081:10083   */\n      0x14\n        /* \"#utility.yul\":10076:10079   */\n      dup3\n        /* \"#utility.yul\":10072:10084   */\n      add\n        /* \"#utility.yul\":10065:10084   */\n      swap2\n      pop\n        /* \"#utility.yul\":10101:10104   */\n      dup2\n        /* \"#utility.yul\":10094:10104   */\n      swap1\n      pop\n        /* \"#utility.yul\":9860:10110   */\n      swap4\n      swap3\n      pop\n      pop\n      pop\n      jump\t// out\n        /* \"#utility.yul\":10116:10638   */\n    tag_164:\n      0x00\n        /* \"#utility.yul\":10351:10499   */\n      tag_325\n        /* \"#utility.yul\":10495:10498   */\n      dup3\n        /* \"#utility.yul\":10351:10499   */\n      tag_282\n      jump\t// in\n    tag_325:\n        /* \"#utility.yul\":10344:10499   */\n      swap2\n      pop\n        /* \"#utility.yul\":10509:10584   */\n      tag_326\n        /* \"#utility.yul\":10580:10583   */\n      dup3\n        /* \"#utility.yul\":10571:10577   */\n      dup5\n        /* \"#utility.yul\":10509:10584   */\n      tag_252\n      jump\t// in\n    tag_326:\n        /* \"#utility.yul\":10609:10611   */\n      0x20\n        /* \"#utility.yul\":10604:10607   */\n      dup3\n        /* \"#utility.yul\":10600:10612   */\n      add\n        /* \"#utility.yul\":10593:10612   */\n      swap2\n      pop\n        /* \"#utility.yul\":10629:10632   */\n      dup2\n        /* \"#utility.yul\":10622:10632   */\n      swap1\n      pop\n        /* \"#utility.yul\":10333:10638   */\n      swap3\n      swap2\n      pop\n      pop\n      jump\t// out\n        /* \"#utility.yul\":10644:10866   */\n    tag_59:\n      0x00\n        /* \"#utility.yul\":10775:10777   */\n      0x20\n        /* \"#utility.yul\":10764:10773   */\n      dup3\n        /* \"#utility.yul\":10760:10778   */\n      add\n        /* \"#utility.yul\":10752:10778   */\n      swap1\n      pop\n        /* \"#utility.yul\":10788:10859   */\n      tag_328\n        /* \"#utility.yul\":10856:10857   */\n      0x00\n        /* \"#utility.yul\":10845:10854   */\n      dup4\n        /* \"#utility.yul\":10841:10858   */\n      add\n        /* \"#utility.yul\":10832:10838   */\n      dup5\n        /* \"#utility.yul\":10788:10859   */\n      tag_235\n      jump\t// in\n    tag_328:\n        /* \"#utility.yul\":10742:10866   */\n      swap3\n      swap2\n      pop\n      pop\n      jump\t// out\n        /* \"#utility.yul\":10872:11433   */\n    tag_130:\n      0x00\n        /* \"#utility.yul\":11093:11095   */\n      0x60\n        /* \"#utility.yul\":11082:11091   */\n      dup3\n        /* \"#utility.yul\":11078:11096   */\n      add\n        /* \"#utility.yul\":11070:11096   */\n      swap1\n      pop\n        /* \"#utility.yul\":11106:11177   */\n      tag_330\n        /* \"#utility.yul\":11174:11175   */\n      0x00\n        /* \"#utility.yul\":11163:11172   */\n      dup4\n        /* \"#utility.yul\":11159:11176   */\n      add\n        /* \"#utility.yul\":11150:11156   */\n      dup7\n        /* \"#utility.yul\":11106:11177   */\n      tag_235\n      jump\t// in\n    tag_330:\n        /* \"#utility.yul\":11187:11275   */\n      tag_331\n        /* \"#utility.yul\":11271:11273   */\n      0x20\n        /* \"#utility.yul\":11260:11269   */\n      dup4\n        /* \"#utility.yul\":11256:11274   */\n      add\n        /* \"#utility.yul\":11247:11253   */\n      dup6\n        /* \"#utility.yul\":11187:11275   */\n      tag_231\n      jump\t// in\n    tag_331:\n        /* \"#utility.yul\":11322:11331   */\n      dup2\n        /* \"#utility.yul\":11316:11320   */\n      dup2\n        /* \"#utility.yul\":11312:11332   */\n      sub\n        /* \"#utility.yul\":11307:11309   */\n      0x40\n        /* \"#utility.yul\":11296:11305   */\n      dup4\n        /* \"#utility.yul\":11292:11310   */\n      add\n        /* \"#utility.yul\":11285:11333   */\n      mstore\n        /* \"#utility.yul\":11350:11426   */\n      tag_332\n        /* \"#utility.yul\":11421:11425   */\n      dup2\n        /* \"#utility.yul\":11412:11418   */\n      dup5\n        /* \"#utility.yul\":11350:11426   */\n      tag_257\n      jump\t// in\n    tag_332:\n        /* \"#utility.yul\":11342:11426   */\n      swap1\n      pop\n        /* \"#utility.yul\":11060:11433   */\n      swap5\n      swap4\n      pop\n      pop\n      pop\n      pop\n      jump\t// out\n        /* \"#utility.yul\":11439:12103   */\n    tag_78:\n      0x00\n        /* \"#utility.yul\":11682:11685   */\n      0xa0\n        /* \"#utility.yul\":11671:11680   */\n      dup3\n        /* \"#utility.yul\":11667:11686   */\n      add\n        /* \"#utility.yul\":11659:11686   */\n      swap1\n      pop\n        /* \"#utility.yul\":11696:11767   */\n      tag_334\n        /* \"#utility.yul\":11764:11765   */\n      0x00\n        /* \"#utility.yul\":11753:11762   */\n      dup4\n        /* \"#utility.yul\":11749:11766   */\n      add\n        /* \"#utility.yul\":11740:11746   */\n      dup9\n        /* \"#utility.yul\":11696:11767   */\n      tag_235\n      jump\t// in\n    tag_334:\n        /* \"#utility.yul\":11777:11849   */\n      tag_335\n        /* \"#utility.yul\":11845:11847   */\n      0x20\n        /* \"#utility.yul\":11834:11843   */\n      dup4\n        /* \"#utility.yul\":11830:11848   */\n      add\n        /* \"#utility.yul\":11821:11827   */\n      dup8\n        /* \"#utility.yul\":11777:11849   */\n      tag_301\n      jump\t// in\n    tag_335:\n        /* \"#utility.yul\":11859:11931   */\n      tag_336\n        /* \"#utility.yul\":11927:11929   */\n      0x40\n        /* \"#utility.yul\":11916:11925   */\n      dup4\n        /* \"#utility.yul\":11912:11930   */\n      add\n        /* \"#utility.yul\":11903:11909   */\n      dup7\n        /* \"#utility.yul\":11859:11931   */\n      tag_235\n      jump\t// in\n    tag_336:\n        /* \"#utility.yul\":11941:12013   */\n      tag_337\n        /* \"#utility.yul\":12009:12011   */\n      0x60\n        /* \"#utility.yul\":11998:12007   */\n      dup4\n        /* \"#utility.yul\":11994:12012   */\n      add\n        /* \"#utility.yul\":11985:11991   */\n      dup6\n        /* \"#utility.yul\":11941:12013   */\n      tag_301\n      jump\t// in\n    tag_337:\n        /* \"#utility.yul\":12023:12096   */\n      tag_338\n        /* \"#utility.yul\":12091:12094   */\n      0x80\n        /* \"#utility.yul\":12080:12089   */\n      dup4\n        /* \"#utility.yul\":12076:12095   */\n      add\n        /* \"#utility.yul\":12067:12073   */\n      dup5\n        /* \"#utility.yul\":12023:12096   */\n      tag_301\n      jump\t// in\n    tag_338:\n        /* \"#utility.yul\":11649:12103   */\n      swap7\n      swap6\n      pop\n      pop\n      pop\n      pop\n      pop\n      pop\n      jump\t// out\n        /* \"#utility.yul\":12109:12319   */\n    tag_36:\n      0x00\n        /* \"#utility.yul\":12234:12236   */\n      0x20\n        /* \"#utility.yul\":12223:12232   */\n      dup3\n        /* \"#utility.yul\":12219:12237   */\n      add\n        /* \"#utility.yul\":12211:12237   */\n      swap1\n      pop\n        /* \"#utility.yul\":12247:12312   */\n      tag_340\n        /* \"#utility.yul\":12309:12310   */\n      0x00\n        /* \"#utility.yul\":12298:12307   */\n      dup4\n        /* \"#utility.yul\":12294:12311   */\n      add\n        /* \"#utility.yul\":12285:12291   */\n      dup5\n        /* \"#utility.yul\":12247:12312   */\n      tag_244\n      jump\t// in\n    tag_340:\n        /* \"#utility.yul\":12201:12319   */\n      swap3\n      swap2\n      pop\n      pop\n      jump\t// out\n        /* \"#utility.yul\":12325:12870   */\n    tag_137:\n      0x00\n        /* \"#utility.yul\":12536:12539   */\n      0x80\n        /* \"#utility.yul\":12525:12534   */\n      dup3\n        /* \"#utility.yul\":12521:12540   */\n      add\n        /* \"#utility.yul\":12513:12540   */\n      swap1\n      pop\n        /* \"#utility.yul\":12550:12621   */\n      tag_342\n        /* \"#utility.yul\":12618:12619   */\n      0x00\n        /* \"#utility.yul\":12607:12616   */\n      dup4\n        /* \"#utility.yul\":12603:12620   */\n      add\n        /* \"#utility.yul\":12594:12600   */\n      dup8\n        /* \"#utility.yul\":12550:12621   */\n      tag_248\n      jump\t// in\n    tag_342:\n        /* \"#utility.yul\":12631:12699   */\n      tag_343\n        /* \"#utility.yul\":12695:12697   */\n      0x20\n        /* \"#utility.yul\":12684:12693   */\n      dup4\n        /* \"#utility.yul\":12680:12698   */\n      add\n        /* \"#utility.yul\":12671:12677   */\n      dup7\n        /* \"#utility.yul\":12631:12699   */\n      tag_310\n      jump\t// in\n    tag_343:\n        /* \"#utility.yul\":12709:12781   */\n      tag_344\n        /* \"#utility.yul\":12777:12779   */\n      0x40\n        /* \"#utility.yul\":12766:12775   */\n      dup4\n        /* \"#utility.yul\":12762:12780   */\n      add\n        /* \"#utility.yul\":12753:12759   */\n      dup6\n        /* \"#utility.yul\":12709:12781   */\n      tag_248\n      jump\t// in\n    tag_344:\n        /* \"#utility.yul\":12791:12863   */\n      tag_345\n        /* \"#utility.yul\":12859:12861   */\n      0x60\n        /* \"#utility.yul\":12848:12857   */\n      dup4\n        /* \"#utility.yul\":12844:12862   */\n      add\n        /* \"#utility.yul\":12835:12841   */\n      dup5\n        /* \"#utility.yul\":12791:12863   */\n      tag_248\n      jump\t// in\n    tag_345:\n        /* \"#utility.yul\":12503:12870   */\n      swap6\n      swap5\n      pop\n      pop\n      pop\n      pop\n      pop\n      jump\t// out\n        /* \"#utility.yul\":12876:13185   */\n    tag_30:\n      0x00\n        /* \"#utility.yul\":13025:13027   */\n      0x20\n        /* \"#utility.yul\":13014:13023   */\n      dup3\n        /* \"#utility.yul\":13010:13028   */\n      add\n        /* \"#utility.yul\":13002:13028   */\n      swap1\n      pop\n        /* \"#utility.yul\":13074:13083   */\n      dup2\n        /* \"#utility.yul\":13068:13072   */\n      dup2\n        /* \"#utility.yul\":13064:13084   */\n      sub\n        /* \"#utility.yul\":13060:13061   */\n      0x00\n        /* \"#utility.yul\":13049:13058   */\n      dup4\n        /* \"#utility.yul\":13045:13062   */\n      add\n        /* \"#utility.yul\":13038:13085   */\n      mstore\n        /* \"#utility.yul\":13102:13178   */\n      tag_347\n        /* \"#utility.yul\":13173:13177   */\n      dup2\n        /* \"#utility.yul\":13164:13170   */\n      dup5\n        /* \"#utility.yul\":13102:13178   */\n      tag_257\n      jump\t// in\n    tag_347:\n        /* \"#utility.yul\":13094:13178   */\n      swap1\n      pop\n        /* \"#utility.yul\":12992:13185   */\n      swap3\n      swap2\n      pop\n      pop\n      jump\t// out\n        /* \"#utility.yul\":13191:13610   */\n    tag_128:\n      0x00\n        /* \"#utility.yul\":13395:13397   */\n      0x20\n        /* \"#utility.yul\":13384:13393   */\n      dup3\n        /* \"#utility.yul\":13380:13398   */\n      add\n        /* \"#utility.yul\":13372:13398   */\n      swap1\n      pop\n        /* \"#utility.yul\":13444:13453   */\n      dup2\n        /* \"#utility.yul\":13438:13442   */\n      dup2\n        /* \"#utility.yul\":13434:13454   */\n      sub\n        /* \"#utility.yul\":13430:13431   */\n      0x00\n        /* \"#utility.yul\":13419:13428   */\n      dup4\n        /* \"#utility.yul\":13415:13432   */\n      add\n        /* \"#utility.yul\":13408:13455   */\n      mstore\n        /* \"#utility.yul\":13472:13603   */\n      tag_349\n        /* \"#utility.yul\":13598:13602   */\n      dup2\n        /* \"#utility.yul\":13472:13603   */\n      tag_278\n      jump\t// in\n    tag_349:\n        /* \"#utility.yul\":13464:13603   */\n      swap1\n      pop\n        /* \"#utility.yul\":13362:13610   */\n      swap2\n      swap1\n      pop\n      jump\t// out\n        /* \"#utility.yul\":13616:14035   */\n    tag_155:\n      0x00\n        /* \"#utility.yul\":13820:13822   */\n      0x20\n        /* \"#utility.yul\":13809:13818   */\n      dup3\n        /* \"#utility.yul\":13805:13823   */\n      add\n        /* \"#utility.yul\":13797:13823   */\n      swap1\n      pop\n        /* \"#utility.yul\":13869:13878   */\n      dup2\n        /* \"#utility.yul\":13863:13867   */\n      dup2\n        /* \"#utility.yul\":13859:13879   */\n      sub\n        /* \"#utility.yul\":13855:13856   */\n      0x00\n        /* \"#utility.yul\":13844:13853   */\n      dup4\n        /* \"#utility.yul\":13840:13857   */\n      add\n        /* \"#utility.yul\":13833:13880   */\n      mstore\n        /* \"#utility.yul\":13897:14028   */\n      tag_351\n        /* \"#utility.yul\":14023:14027   */\n      dup2\n        /* \"#utility.yul\":13897:14028   */\n      tag_286\n      jump\t// in\n    tag_351:\n        /* \"#utility.yul\":13889:14028   */\n      swap1\n      pop\n        /* \"#utility.yul\":13787:14035   */\n      swap2\n      swap1\n      pop\n      jump\t// out\n        /* \"#utility.yul\":14041:14460   */\n    tag_104:\n      0x00\n        /* \"#utility.yul\":14245:14247   */\n      0x20\n        /* \"#utility.yul\":14234:14243   */\n      dup3\n        /* \"#utility.yul\":14230:14248   */\n      add\n        /* \"#utility.yul\":14222:14248   */\n      swap1\n      pop\n        /* \"#utility.yul\":14294:14303   */\n      dup2\n        /* \"#utility.yul\":14288:14292   */\n      dup2\n        /* \"#utility.yul\":14284:14304   */\n      sub\n        /* \"#utility.yul\":14280:14281   */\n      0x00\n        /* \"#utility.yul\":14269:14278   */\n      dup4\n        /* \"#utility.yul\":14265:14282   */\n      add\n        /* \"#utility.yul\":14258:14305   */\n      mstore\n        /* \"#utility.yul\":14322:14453   */\n      tag_353\n        /* \"#utility.yul\":14448:14452   */\n      dup2\n        /* \"#utility.yul\":14322:14453   */\n      tag_289\n      jump\t// in\n    tag_353:\n        /* \"#utility.yul\":14314:14453   */\n      swap1\n      pop\n        /* \"#utility.yul\":14212:14460   */\n      swap2\n      swap1\n      pop\n      jump\t// out\n        /* \"#utility.yul\":14466:14885   */\n    tag_161:\n      0x00\n        /* \"#utility.yul\":14670:14672   */\n      0x20\n        /* \"#utility.yul\":14659:14668   */\n      dup3\n        /* \"#utility.yul\":14655:14673   */\n      add\n        /* \"#utility.yul\":14647:14673   */\n      swap1\n      pop\n        /* \"#utility.yul\":14719:14728   */\n      dup2\n        /* \"#utility.yul\":14713:14717   */\n      dup2\n        /* \"#utility.yul\":14709:14729   */\n      sub\n        /* \"#utility.yul\":14705:14706   */\n      0x00\n        /* \"#utility.yul\":14694:14703   */\n      dup4\n        /* \"#utility.yul\":14690:14707   */\n      add\n        /* \"#utility.yul\":14683:14730   */\n      mstore\n        /* \"#utility.yul\":14747:14878   */\n      tag_355\n        /* \"#utility.yul\":14873:14877   */\n      dup2\n        /* \"#utility.yul\":14747:14878   */\n      tag_292\n      jump\t// in\n    tag_355:\n        /* \"#utility.yul\":14739:14878   */\n      swap1\n      pop\n        /* \"#utility.yul\":14637:14885   */\n      swap2\n      swap1\n      pop\n      jump\t// out\n        /* \"#utility.yul\":14891:15310   */\n    tag_171:\n      0x00\n        /* \"#utility.yul\":15095:15097   */\n      0x20\n        /* \"#utility.yul\":15084:15093   */\n      dup3\n        /* \"#utility.yul\":15080:15098   */\n      add\n        /* \"#utility.yul\":15072:15098   */\n      swap1\n      pop\n        /* \"#utility.yul\":15144:15153   */\n      dup2\n        /* \"#utility.yul\":15138:15142   */\n      dup2\n        /* \"#utility.yul\":15134:15154   */\n      sub\n        /* \"#utility.yul\":15130:15131   */\n      0x00\n        /* \"#utility.yul\":15119:15128   */\n      dup4\n        /* \"#utility.yul\":15115:15132   */\n      add\n        /* \"#utility.yul\":15108:15155   */\n      mstore\n        /* \"#utility.yul\":15172:15303   */\n      tag_357\n        /* \"#utility.yul\":15298:15302   */\n      dup2\n        /* \"#utility.yul\":15172:15303   */\n      tag_295\n      jump\t// in\n    tag_357:\n        /* \"#utility.yul\":15164:15303   */\n      swap1\n      pop\n        /* \"#utility.yul\":15062:15310   */\n      swap2\n      swap1\n      pop\n      jump\t// out\n        /* \"#utility.yul\":15316:15735   */\n    tag_117:\n      0x00\n        /* \"#utility.yul\":15520:15522   */\n      0x20\n        /* \"#utility.yul\":15509:15518   */\n      dup3\n        /* \"#utility.yul\":15505:15523   */\n      add\n        /* \"#utility.yul\":15497:15523   */\n      swap1\n      pop\n        /* \"#utility.yul\":15569:15578   */\n      dup2\n        /* \"#utility.yul\":15563:15567   */\n      dup2\n        /* \"#utility.yul\":15559:15579   */\n      sub\n        /* \"#utility.yul\":15555:15556   */\n      0x00\n        /* \"#utility.yul\":15544:15553   */\n      dup4\n        /* \"#utility.yul\":15540:15557   */\n      add\n        /* \"#utility.yul\":15533:15580   */\n      mstore\n        /* \"#utility.yul\":15597:15728   */\n      tag_359\n        /* \"#utility.yul\":15723:15727   */\n      dup2\n        /* \"#utility.yul\":15597:15728   */\n      tag_298\n      jump\t// in\n    tag_359:\n        /* \"#utility.yul\":15589:15728   */\n      swap1\n      pop\n        /* \"#utility.yul\":15487:15735   */\n      swap2\n      swap1\n      pop\n      jump\t// out\n        /* \"#utility.yul\":15741:15963   */\n    tag_50:\n      0x00\n        /* \"#utility.yul\":15872:15874   */\n      0x20\n        /* \"#utility.yul\":15861:15870   */\n      dup3\n        /* \"#utility.yul\":15857:15875   */\n      add\n        /* \"#utility.yul\":15849:15875   */\n      swap1\n      pop\n        /* \"#utility.yul\":15885:15956   */\n      tag_361\n        /* \"#utility.yul\":15953:15954   */\n      0x00\n        /* \"#utility.yul\":15942:15951   */\n      dup4\n        /* \"#utility.yul\":15938:15955   */\n      add\n        /* \"#utility.yul\":15929:15935   */\n      dup5\n        /* \"#utility.yul\":15885:15956   */\n      tag_301\n      jump\t// in\n    tag_361:\n        /* \"#utility.yul\":15839:15963   */\n      swap3\n      swap2\n      pop\n      pop\n      jump\t// out\n        /* \"#utility.yul\":15969:16411   */\n    tag_110:\n      0x00\n        /* \"#utility.yul\":16156:16158   */\n      0x60\n        /* \"#utility.yul\":16145:16154   */\n      dup3\n        /* \"#utility.yul\":16141:16159   */\n      add\n        /* \"#utility.yul\":16133:16159   */\n      swap1\n      pop\n        /* \"#utility.yul\":16169:16240   */\n      tag_363\n        /* \"#utility.yul\":16237:16238   */\n      0x00\n        /* \"#utility.yul\":16226:16235   */\n      dup4\n        /* \"#utility.yul\":16222:16239   */\n      add\n        /* \"#utility.yul\":16213:16219   */\n      dup7\n        /* \"#utility.yul\":16169:16240   */\n      tag_301\n      jump\t// in\n    tag_363:\n        /* \"#utility.yul\":16250:16322   */\n      tag_364\n        /* \"#utility.yul\":16318:16320   */\n      0x20\n        /* \"#utility.yul\":16307:16316   */\n      dup4\n        /* \"#utility.yul\":16303:16321   */\n      add\n        /* \"#utility.yul\":16294:16300   */\n      dup6\n        /* \"#utility.yul\":16250:16322   */\n      tag_301\n      jump\t// in\n    tag_364:\n        /* \"#utility.yul\":16332:16404   */\n      tag_365\n        /* \"#utility.yul\":16400:16402   */\n      0x40\n        /* \"#utility.yul\":16389:16398   */\n      dup4\n        /* \"#utility.yul\":16385:16403   */\n      add\n        /* \"#utility.yul\":16376:16382   */\n      dup5\n        /* \"#utility.yul\":16332:16404   */\n      tag_301\n      jump\t// in\n    tag_365:\n        /* \"#utility.yul\":16123:16411   */\n      swap5\n      swap4\n      pop\n      pop\n      pop\n      pop\n      jump\t// out\n        /* \"#utility.yul\":16417:16700   */\n    tag_180:\n      0x00\n        /* \"#utility.yul\":16483:16485   */\n      0x40\n        /* \"#utility.yul\":16477:16486   */\n      mload\n        /* \"#utility.yul\":16467:16486   */\n      swap1\n      pop\n        /* \"#utility.yul\":16525:16529   */\n      dup2\n        /* \"#utility.yul\":16517:16523   */\n      dup2\n        /* \"#utility.yul\":16513:16530   */\n      add\n        /* \"#utility.yul\":16632:16638   */\n      dup2\n        /* \"#utility.yul\":16620:16630   */\n      dup2\n        /* \"#utility.yul\":16617:16639   */\n      lt\n        /* \"#utility.yul\":16596:16614   */\n      0xffffffffffffffff\n        /* \"#utility.yul\":16584:16594   */\n      dup3\n        /* \"#utility.yul\":16581:16615   */\n      gt\n        /* \"#utility.yul\":16578:16640   */\n      or\n        /* \"#utility.yul\":16575:16577   */\n      iszero\n      tag_367\n      jumpi\n        /* \"#utility.yul\":16643:16661   */\n      tag_368\n      tag_369\n      jump\t// in\n    tag_368:\n        /* \"#utility.yul\":16575:16577   */\n    tag_367:\n        /* \"#utility.yul\":16683:16693   */\n      dup1\n        /* \"#utility.yul\":16679:16681   */\n      0x40\n        /* \"#utility.yul\":16672:16694   */\n      mstore\n        /* \"#utility.yul\":16457:16700   */\n      pop\n      swap2\n      swap1\n      pop\n      jump\t// out\n        /* \"#utility.yul\":16706:17037   */\n    tag_179:\n      0x00\n        /* \"#utility.yul\":16857:16875   */\n      0xffffffffffffffff\n        /* \"#utility.yul\":16849:16855   */\n      dup3\n        /* \"#utility.yul\":16846:16876   */\n      gt\n        /* \"#utility.yul\":16843:16845   */\n      iszero\n      tag_371\n      jumpi\n        /* \"#utility.yul\":16879:16897   */\n      tag_372\n      tag_369\n      jump\t// in\n    tag_372:\n        /* \"#utility.yul\":16843:16845   */\n    tag_371:\n        /* \"#utility.yul\":16964:16968   */\n      0x1f\n        /* \"#utility.yul\":16960:16969   */\n      not\n        /* \"#utility.yul\":16953:16957   */\n      0x1f\n        /* \"#utility.yul\":16945:16951   */\n      dup4\n        /* \"#utility.yul\":16941:16958   */\n      add\n        /* \"#utility.yul\":16937:16970   */\n      and\n        /* \"#utility.yul\":16929:16970   */\n      swap1\n      pop\n        /* \"#utility.yul\":17025:17029   */\n      0x20\n        /* \"#utility.yul\":17019:17023   */\n      dup2\n        /* \"#utility.yul\":17015:17030   */\n      add\n        /* \"#utility.yul\":17007:17030   */\n      swap1\n      pop\n        /* \"#utility.yul\":16772:17037   */\n      swap2\n      swap1\n      pop\n      jump\t// out\n        /* \"#utility.yul\":17043:17141   */\n    tag_260:\n      0x00\n        /* \"#utility.yul\":17128:17133   */\n      dup2\n        /* \"#utility.yul\":17122:17134   */\n      mload\n        /* \"#utility.yul\":17112:17134   */\n      swap1\n      pop\n        /* \"#utility.yul\":17101:17141   */\n      swap2\n      swap1\n      pop\n      jump\t// out\n        /* \"#utility.yul\":17147:17315   */\n    tag_262:\n      0x00\n        /* \"#utility.yul\":17264:17270   */\n      dup3\n        /* \"#utility.yul\":17259:17262   */\n      dup3\n        /* \"#utility.yul\":17252:17271   */\n      mstore\n        /* \"#utility.yul\":17304:17308   */\n      0x20\n        /* \"#utility.yul\":17299:17302   */\n      dup3\n        /* \"#utility.yul\":17295:17309   */\n      add\n        /* \"#utility.yul\":17280:17309   */\n      swap1\n      pop\n        /* \"#utility.yul\":17242:17315   */\n      swap3\n      swap2\n      pop\n      pop\n      jump\t// out\n        /* \"#utility.yul\":17321:17468   */\n    tag_271:\n      0x00\n        /* \"#utility.yul\":17459:17462   */\n      dup2\n        /* \"#utility.yul\":17444:17462   */\n      swap1\n      pop\n        /* \"#utility.yul\":17434:17468   */\n      swap3\n      swap2\n      pop\n      pop\n      jump\t// out\n        /* \"#utility.yul\":17474:17643   */\n    tag_281:\n      0x00\n        /* \"#utility.yul\":17592:17598   */\n      dup3\n        /* \"#utility.yul\":17587:17590   */\n      dup3\n        /* \"#utility.yul\":17580:17599   */\n      mstore\n        /* \"#utility.yul\":17632:17636   */\n      0x20\n        /* \"#utility.yul\":17627:17630   */\n      dup3\n        /* \"#utility.yul\":17623:17637   */\n      add\n        /* \"#utility.yul\":17608:17637   */\n      swap1\n      pop\n        /* \"#utility.yul\":17570:17643   */\n      swap3\n      swap2\n      pop\n      pop\n      jump\t// out\n        /* \"#utility.yul\":17649:17797   */\n    tag_285:\n      0x00\n        /* \"#utility.yul\":17788:17791   */\n      dup2\n        /* \"#utility.yul\":17773:17791   */\n      swap1\n      pop\n        /* \"#utility.yul\":17763:17797   */\n      swap3\n      swap2\n      pop\n      pop\n      jump\t// out\n        /* \"#utility.yul\":17803:18108   */\n    tag_106:\n      0x00\n        /* \"#utility.yul\":17862:17882   */\n      tag_379\n        /* \"#utility.yul\":17880:17881   */\n      dup3\n        /* \"#utility.yul\":17862:17882   */\n      tag_304\n      jump\t// in\n    tag_379:\n        /* \"#utility.yul\":17857:17882   */\n      swap2\n      pop\n        /* \"#utility.yul\":17896:17916   */\n      tag_380\n        /* \"#utility.yul\":17914:17915   */\n      dup4\n        /* \"#utility.yul\":17896:17916   */\n      tag_304\n      jump\t// in\n    tag_380:\n        /* \"#utility.yul\":17891:17916   */\n      swap3\n      pop\n        /* \"#utility.yul\":18050:18051   */\n      dup3\n        /* \"#utility.yul\":17982:18048   */\n      0xffffffffffffffffffffffffffffffffffffffffffffffffffffffffffffffff\n        /* \"#utility.yul\":17978:18052   */\n      sub\n        /* \"#utility.yul\":17975:17976   */\n      dup3\n        /* \"#utility.yul\":17972:18053   */\n      gt\n        /* \"#utility.yul\":17969:17971   */\n      iszero\n      tag_381\n      jumpi\n        /* \"#utility.yul\":18056:18074   */\n      tag_382\n      tag_383\n      jump\t// in\n    tag_382:\n        /* \"#utility.yul\":17969:17971   */\n    tag_381:\n        /* \"#utility.yul\":18100:18101   */\n      dup3\n        /* \"#utility.yul\":18097:18098   */\n      dup3\n        /* \"#utility.yul\":18093:18102   */\n      add\n        /* \"#utility.yul\":18086:18102   */\n      swap1\n      pop\n        /* \"#utility.yul\":17847:18108   */\n      swap3\n      swap2\n      pop\n      pop\n      jump\t// out\n        /* \"#utility.yul\":18114:18210   */\n    tag_238:\n      0x00\n        /* \"#utility.yul\":18180:18204   */\n      tag_385\n        /* \"#utility.yul\":18198:18203   */\n      dup3\n        /* \"#utility.yul\":18180:18204   */\n      tag_386\n      jump\t// in\n    tag_385:\n        /* \"#utility.yul\":18169:18204   */\n      swap1\n      pop\n        /* \"#utility.yul\":18159:18210   */\n      swap2\n      swap1\n      pop\n      jump\t// out\n        /* \"#utility.yul\":18216:18320   */\n    tag_234:\n      0x00\n        /* \"#utility.yul\":18290:18314   */\n      tag_388\n        /* \"#utility.yul\":18308:18313   */\n      dup3\n        /* \"#utility.yul\":18290:18314   */\n      tag_386\n      jump\t// in\n    tag_388:\n        /* \"#utility.yul\":18279:18314   */\n      swap1\n      pop\n        /* \"#utility.yul\":18269:18320   */\n      swap2\n      swap1\n      pop\n      jump\t// out\n        /* \"#utility.yul\":18326:18416   */\n    tag_247:\n      0x00\n        /* \"#utility.yul\":18403:18408   */\n      dup2\n        /* \"#utility.yul\":18396:18409   */\n      iszero\n        /* \"#utility.yul\":18389:18410   */\n      iszero\n        /* \"#utility.yul\":18378:18410   */\n      swap1\n      pop\n        /* \"#utility.yul\":18368:18416   */\n      swap2\n      swap1\n      pop\n      jump\t// out\n        /* \"#utility.yul\":18422:18499   */\n    tag_251:\n      0x00\n        /* \"#utility.yul\":18488:18493   */\n      dup2\n        /* \"#utility.yul\":18477:18493   */\n      swap1\n      pop\n        /* \"#utility.yul\":18467:18499   */\n      swap2\n      swap1\n      pop\n      jump\t// out\n        /* \"#utility.yul\":18505:18631   */\n    tag_386:\n      0x00\n        /* \"#utility.yul\":18582:18624   */\n      0xffffffffffffffffffffffffffffffffffffffff\n        /* \"#utility.yul\":18575:18580   */\n      dup3\n        /* \"#utility.yul\":18571:18625   */\n      and\n        /* \"#utility.yul\":18560:18625   */\n      swap1\n      pop\n        /* \"#utility.yul\":18550:18631   */\n      swap2\n      swap1\n      pop\n      jump\t// out\n        /* \"#utility.yul\":18637:18714   */\n    tag_304:\n      0x00\n        /* \"#utility.yul\":18703:18708   */\n      dup2\n        /* \"#utility.yul\":18692:18708   */\n      swap1\n      pop\n        /* \"#utility.yul\":18682:18714   */\n      swap2\n      swap1\n      pop\n      jump\t// out\n        /* \"#utility.yul\":18720:18806   */\n    tag_313:\n      0x00\n        /* \"#utility.yul\":18795:18799   */\n      0xff\n        /* \"#utility.yul\":18788:18793   */\n      dup3\n        /* \"#utility.yul\":18784:18800   */\n      and\n        /* \"#utility.yul\":18773:18800   */\n      swap1\n      pop\n        /* \"#utility.yul\":18763:18806   */\n      swap2\n      swap1\n      pop\n      jump\t// out\n        /* \"#utility.yul\":18812:18982   */\n    tag_277:\n      0x00\n        /* \"#utility.yul\":18917:18976   */\n      tag_395\n        /* \"#utility.yul\":18970:18975   */\n      dup3\n        /* \"#utility.yul\":18917:18976   */\n      tag_396\n      jump\t// in\n    tag_395:\n        /* \"#utility.yul\":18904:18976   */\n      swap1\n      pop\n        /* \"#utility.yul\":18894:18982   */\n      swap2\n      swap1\n      pop\n      jump\t// out\n        /* \"#utility.yul\":18988:19123   */\n    tag_396:\n      0x00\n        /* \"#utility.yul\":19093:19117   */\n      tag_398\n        /* \"#utility.yul\":19111:19116   */\n      dup3\n        /* \"#utility.yul\":19093:19117   */\n      tag_386\n      jump\t// in\n    tag_398:\n        /* \"#utility.yul\":19080:19117   */\n      swap1\n      pop\n        /* \"#utility.yul\":19070:19123   */\n      swap2\n      swap1\n      pop\n      jump\t// out\n        /* \"#utility.yul\":19129:19283   */\n    tag_183:\n        /* \"#utility.yul\":19213:19219   */\n      dup3\n        /* \"#utility.yul\":19208:19211   */\n      dup2\n        /* \"#utility.yul\":19203:19206   */\n      dup4\n        /* \"#utility.yul\":19190:19220   */\n      calldatacopy\n        /* \"#utility.yul\":19275:19276   */\n      0x00\n        /* \"#utility.yul\":19266:19272   */\n      dup4\n        /* \"#utility.yul\":19261:19264   */\n      dup4\n        /* \"#utility.yul\":19257:19273   */\n      add\n        /* \"#utility.yul\":19250:19277   */\n      mstore\n        /* \"#utility.yul\":19180:19283   */\n      pop\n      pop\n      pop\n      jump\t// out\n        /* \"#utility.yul\":19289:19596   */\n    tag_264:\n        /* \"#utility.yul\":19357:19358   */\n      0x00\n        /* \"#utility.yul\":19367:19480   */\n    tag_401:\n        /* \"#utility.yul\":19381:19387   */\n      dup4\n        /* \"#utility.yul\":19378:19379   */\n      dup2\n        /* \"#utility.yul\":19375:19388   */\n      lt\n        /* \"#utility.yul\":19367:19480   */\n      iszero\n      tag_403\n      jumpi\n        /* \"#utility.yul\":19466:19467   */\n      dup1\n        /* \"#utility.yul\":19461:19464   */\n      dup3\n        /* \"#utility.yul\":19457:19468   */\n      add\n        /* \"#utility.yul\":19451:19469   */\n      mload\n        /* \"#utility.yul\":19447:19448   */\n      dup2\n        /* \"#utility.yul\":19442:19445   */\n      dup5\n        /* \"#utility.yul\":19438:19449   */\n      add\n        /* \"#utility.yul\":19431:19470   */\n      mstore\n        /* \"#utility.yul\":19403:19405   */\n      0x20\n        /* \"#utility.yul\":19400:19401   */\n      dup2\n        /* \"#utility.yul\":19396:19406   */\n      add\n        /* \"#utility.yul\":19391:19406   */\n      swap1\n      pop\n        /* \"#utility.yul\":19367:19480   */\n      jump(tag_401)\n    tag_403:\n        /* \"#utility.yul\":19498:19504   */\n      dup4\n        /* \"#utility.yul\":19495:19496   */\n      dup2\n        /* \"#utility.yul\":19492:19505   */\n      gt\n        /* \"#utility.yul\":19489:19491   */\n      iszero\n      tag_404\n      jumpi\n        /* \"#utility.yul\":19578:19579   */\n      0x00\n        /* \"#utility.yul\":19569:19575   */\n      dup5\n        /* \"#utility.yul\":19564:19567   */\n      dup5\n        /* \"#utility.yul\":19560:19576   */\n      add\n        /* \"#utility.yul\":19553:19580   */\n      mstore\n        /* \"#utility.yul\":19489:19491   */\n    tag_404:\n        /* \"#utility.yul\":19338:19596   */\n      pop\n      pop\n      pop\n      pop\n      jump\t// out\n        /* \"#utility.yul\":19602:19835   */\n    tag_112:\n      0x00\n        /* \"#utility.yul\":19664:19688   */\n      tag_406\n        /* \"#utility.yul\":19682:19687   */\n      dup3\n        /* \"#utility.yul\":19664:19688   */\n      tag_304\n      jump\t// in\n    tag_406:\n        /* \"#utility.yul\":19655:19688   */\n      swap2\n      pop\n        /* \"#utility.yul\":19710:19776   */\n      0xffffffffffffffffffffffffffffffffffffffffffffffffffffffffffffffff\n        /* \"#utility.yul\":19703:19708   */\n      dup3\n        /* \"#utility.yul\":19700:19777   */\n      eq\n        /* \"#utility.yul\":19697:19699   */\n      iszero\n      tag_407\n      jumpi\n        /* \"#utility.yul\":19780:19798   */\n      tag_408\n      tag_383\n      jump\t// in\n    tag_408:\n        /* \"#utility.yul\":19697:19699   */\n    tag_407:\n        /* \"#utility.yul\":19827:19828   */\n      0x01\n        /* \"#utility.yul\":19820:19825   */\n      dup3\n        /* \"#utility.yul\":19816:19829   */\n      add\n        /* \"#utility.yul\":19809:19829   */\n      swap1\n      pop\n        /* \"#utility.yul\":19645:19835   */\n      swap2\n      swap1\n      pop\n      jump\t// out\n        /* \"#utility.yul\":19841:19941   */\n    tag_243:\n      0x00\n        /* \"#utility.yul\":19909:19935   */\n      tag_410\n        /* \"#utility.yul\":19929:19934   */\n      dup3\n        /* \"#utility.yul\":19909:19935   */\n      tag_411\n      jump\t// in\n    tag_410:\n        /* \"#utility.yul\":19898:19935   */\n      swap1\n      pop\n        /* \"#utility.yul\":19888:19941   */\n      swap2\n      swap1\n      pop\n      jump\t// out\n        /* \"#utility.yul\":19947:20026   */\n    tag_256:\n      0x00\n        /* \"#utility.yul\":20015:20020   */\n      dup2\n        /* \"#utility.yul\":20004:20020   */\n      swap1\n      pop\n        /* \"#utility.yul\":19994:20026   */\n      swap2\n      swap1\n      pop\n      jump\t// out\n        /* \"#utility.yul\":20032:20126   */\n    tag_411:\n      0x00\n        /* \"#utility.yul\":20100:20120   */\n      tag_414\n        /* \"#utility.yul\":20114:20119   */\n      dup3\n        /* \"#utility.yul\":20100:20120   */\n      tag_415\n      jump\t// in\n    tag_414:\n        /* \"#utility.yul\":20089:20120   */\n      swap1\n      pop\n        /* \"#utility.yul\":20079:20126   */\n      swap2\n      swap1\n      pop\n      jump\t// out\n        /* \"#utility.yul\":20132:20211   */\n    tag_309:\n      0x00\n        /* \"#utility.yul\":20200:20205   */\n      dup2\n        /* \"#utility.yul\":20189:20205   */\n      swap1\n      pop\n        /* \"#utility.yul\":20179:20211   */\n      swap2\n      swap1\n      pop\n      jump\t// out\n        /* \"#utility.yul\":20217:20397   */\n    tag_383:\n        /* \"#utility.yul\":20265:20342   */\n      0x4e487b7100000000000000000000000000000000000000000000000000000000\n        /* \"#utility.yul\":20262:20263   */\n      0x00\n        /* \"#utility.yul\":20255:20343   */\n      mstore\n        /* \"#utility.yul\":20362:20366   */\n      0x11\n        /* \"#utility.yul\":20359:20360   */\n      0x04\n        /* \"#utility.yul\":20352:20367   */\n      mstore\n        /* \"#utility.yul\":20386:20390   */\n      0x24\n        /* \"#utility.yul\":20383:20384   */\n      0x00\n        /* \"#utility.yul\":20376:20391   */\n      revert\n        /* \"#utility.yul\":20403:20583   */\n    tag_369:\n        /* \"#utility.yul\":20451:20528   */\n      0x4e487b7100000000000000000000000000000000000000000000000000000000\n        /* \"#utility.yul\":20448:20449   */\n      0x00\n        /* \"#utility.yul\":20441:20529   */\n      mstore\n        /* \"#utility.yul\":20548:20552   */\n      0x41\n        /* \"#utility.yul\":20545:20546   */\n      0x04\n        /* \"#utility.yul\":20538:20553   */\n      mstore\n        /* \"#utility.yul\":20572:20576   */\n      0x24\n        /* \"#utility.yul\":20569:20570   */\n      0x00\n        /* \"#utility.yul\":20562:20577   */\n      revert\n        /* \"#utility.yul\":20589:20691   */\n    tag_266:\n      0x00\n        /* \"#utility.yul\":20681:20683   */\n      0x1f\n        /* \"#utility.yul\":20677:20684   */\n      not\n        /* \"#utility.yul\":20672:20674   */\n      0x1f\n        /* \"#utility.yul\":20665:20670   */\n      dup4\n        /* \"#utility.yul\":20661:20675   */\n      add\n        /* \"#utility.yul\":20657:20685   */\n      and\n        /* \"#utility.yul\":20647:20685   */\n      swap1\n      pop\n        /* \"#utility.yul\":20637:20691   */\n      swap2\n      swap1\n      pop\n      jump\t// out\n        /* \"#utility.yul\":20697:20791   */\n    tag_415:\n      0x00\n        /* \"#utility.yul\":20778:20783   */\n      dup2\n        /* \"#utility.yul\":20774:20776   */\n      0x60\n        /* \"#utility.yul\":20770:20784   */\n      shl\n        /* \"#utility.yul\":20749:20784   */\n      swap1\n      pop\n        /* \"#utility.yul\":20739:20791   */\n      swap2\n      swap1\n      pop\n      jump\t// out\n        /* \"#utility.yul\":20797:20919   */\n    tag_187:\n        /* \"#utility.yul\":20870:20894   */\n      tag_422\n        /* \"#utility.yul\":20888:20893   */\n      dup2\n        /* \"#utility.yul\":20870:20894   */\n      tag_238\n      jump\t// in\n    tag_422:\n        /* \"#utility.yul\":20863:20868   */\n      dup2\n        /* \"#utility.yul\":20860:20895   */\n      eq\n        /* \"#utility.yul\":20850:20852   */\n      tag_423\n      jumpi\n        /* \"#utility.yul\":20909:20910   */\n      0x00\n        /* \"#utility.yul\":20906:20907   */\n      dup1\n        /* \"#utility.yul\":20899:20911   */\n      revert\n        /* \"#utility.yul\":20850:20852   */\n    tag_423:\n        /* \"#utility.yul\":20840:20919   */\n      pop\n      jump\t// out\n        /* \"#utility.yul\":20925:21047   */\n    tag_194:\n        /* \"#utility.yul\":20998:21022   */\n      tag_425\n        /* \"#utility.yul\":21016:21021   */\n      dup2\n        /* \"#utility.yul\":20998:21022   */\n      tag_251\n      jump\t// in\n    tag_425:\n        /* \"#utility.yul\":20991:20996   */\n      dup2\n        /* \"#utility.yul\":20988:21023   */\n      eq\n        /* \"#utility.yul\":20978:20980   */\n      tag_426\n      jumpi\n        /* \"#utility.yul\":21037:21038   */\n      0x00\n        /* \"#utility.yul\":21034:21035   */\n      dup1\n        /* \"#utility.yul\":21027:21039   */\n      revert\n        /* \"#utility.yul\":20978:20980   */\n    tag_426:\n        /* \"#utility.yul\":20968:21047   */\n      pop\n      jump\t// out\n        /* \"#utility.yul\":21053:21175   */\n    tag_202:\n        /* \"#utility.yul\":21126:21150   */\n      tag_428\n        /* \"#utility.yul\":21144:21149   */\n      dup2\n        /* \"#utility.yul\":21126:21150   */\n      tag_304\n      jump\t// in\n    tag_428:\n        /* \"#utility.yul\":21119:21124   */\n      dup2\n        /* \"#utility.yul\":21116:21151   */\n      eq\n        /* \"#utility.yul\":21106:21108   */\n      tag_429\n      jumpi\n        /* \"#utility.yul\":21165:21166   */\n      0x00\n        /* \"#utility.yul\":21162:21163   */\n      dup1\n        /* \"#utility.yul\":21155:21167   */\n      revert\n        /* \"#utility.yul\":21106:21108   */\n    tag_429:\n        /* \"#utility.yul\":21096:21175   */\n      pop\n      jump\t// out\n        /* \"#utility.yul\":21181:21299   */\n    tag_206:\n        /* \"#utility.yul\":21252:21274   */\n      tag_431\n        /* \"#utility.yul\":21268:21273   */\n      dup2\n        /* \"#utility.yul\":21252:21274   */\n      tag_313\n      jump\t// in\n    tag_431:\n        /* \"#utility.yul\":21245:21250   */\n      dup2\n        /* \"#utility.yul\":21242:21275   */\n      eq\n        /* \"#utility.yul\":21232:21234   */\n      tag_432\n      jumpi\n        /* \"#utility.yul\":21289:21290   */\n      0x00\n        /* \"#utility.yul\":21286:21287   */\n      dup1\n        /* \"#utility.yul\":21279:21291   */\n      revert\n        /* \"#utility.yul\":21232:21234   */\n    tag_432:\n        /* \"#utility.yul\":21222:21299   */\n      pop\n      jump\t// out\n\n    auxdata: 0xa2646970667358221220006fecb051e5f543a9f9f38daf770a1a9eeab98ab67d7fa970cb5ffaab340ce964736f6c63430008000033\n}\n",
				"bytecode": {
					"linkReferences": {},
					"object": "608060405260016009553480156200001657600080fd5b5060405162001cfb38038062001cfb83398181016040528101906200003c9190620002bf565b6200005c62000050620001c560201b60201c565b620001cd60201b60201c565b600180819055506000600260006101000a81548160ff021916908315150217905550600073ffffffffffffffffffffffffffffffffffffffff168273ffffffffffffffffffffffffffffffffffffffff1614158015620000e95750600073ffffffffffffffffffffffffffffffffffffffff168173ffffffffffffffffffffffffffffffffffffffff1614155b6200012b576040517f08c379a000000000000000000000000000000000000000000000000000000000815260040162000122906200036d565b60405180910390fd5b836004819055508260058190555081600660006101000a81548173ffffffffffffffffffffffffffffffffffffffff021916908373ffffffffffffffffffffffffffffffffffffffff16021790555080600760006101000a81548173ffffffffffffffffffffffffffffffffffffffff021916908373ffffffffffffffffffffffffffffffffffffffff1602179055505050505062000412565b600033905090565b60008060009054906101000a900473ffffffffffffffffffffffffffffffffffffffff169050816000806101000a81548173ffffffffffffffffffffffffffffffffffffffff021916908373ffffffffffffffffffffffffffffffffffffffff1602179055508173ffffffffffffffffffffffffffffffffffffffff168173ffffffffffffffffffffffffffffffffffffffff167f8be0079c531659141344cd1fd0a4f28419497f9722a3daafe3b4186f6b6457e060405160405180910390a35050565b600081519050620002a281620003de565b92915050565b600081519050620002b981620003f8565b92915050565b60008060008060808587031215620002d657600080fd5b6000620002e687828801620002a8565b9450506020620002f987828801620002a8565b93505060406200030c8782880162000291565b92505060606200031f8782880162000291565b91505092959194509250565b60006200033a6018836200038f565b91507f4164647265737365732063616e6e6f74206265207a65726f00000000000000006000830152602082019050919050565b6000602082019050818103600083015262000388816200032b565b9050919050565b600082825260208201905092915050565b6000620003ad82620003b4565b9050919050565b600073ffffffffffffffffffffffffffffffffffffffff82169050919050565b6000819050919050565b620003e981620003a0565b8114620003f557600080fd5b50565b6200040381620003d4565b81146200040f57600080fd5b50565b6118d980620004226000396000f3fe6080604052600436106100e85760003560e01c80638da5cb5b1161008a578063de74e57b11610059578063de74e57b146102d9578063e3b6a1f61461031a578063ed14834f14610357578063f2fde38b14610382576100e8565b80638da5cb5b1461022d578063aaccf1ec14610258578063ad2f852a14610283578063cdd78cfc146102ae576100e8565b80635c975abb116100c65780635c975abb14610183578063715018a6146101ae5780637ecebe00146101c55780638a71bb2d14610202576100e8565b8063028ef312146100ed5780630c53c51c146101165780633392972614610146575b600080fd5b3480156100f957600080fd5b50610114600480360381019061010f9190610ebe565b6103ab565b005b610130600480360381019061012b9190610e2f565b610692565b60405161013d9190611445565b60405180910390f35b34801561015257600080fd5b5061016d60048036038101906101689190610e2f565b61084c565b60405161017a91906113e5565b60405180910390f35b34801561018f57600080fd5b50610198610960565b6040516101a591906113e5565b60405180910390f35b3480156101ba57600080fd5b506101c3610977565b005b3480156101d157600080fd5b506101ec60048036038101906101e79190610ddd565b61098b565b6040516101f99190611527565b60405180910390f35b34801561020e57600080fd5b506102176109a3565b6040516102249190611527565b60405180910390f35b34801561023957600080fd5b506102426109a9565b60405161024f9190611339565b60405180910390f35b34801561026457600080fd5b5061026d6109d2565b60405161027a9190611527565b60405180910390f35b34801561028f57600080fd5b506102986109d8565b6040516102a59190611339565b60405180910390f35b3480156102ba57600080fd5b506102c36109fe565b6040516102d09190611527565b60405180910390f35b3480156102e557600080fd5b5061030060048036038101906102fb9190610f35565b610a04565b604051610311959493929190611392565b60405180910390f35b34801561032657600080fd5b50610341600480360381019061033c9190610f35565b610a7a565b60405161034e9190611527565b60405180910390f35b34801561036357600080fd5b5061036c610a9e565b6040516103799190611339565b60405180910390f35b34801561038e57600080fd5b506103a960048036038101906103a49190610ddd565b610ac4565b005b6103b3610b48565b60008590508173ffffffffffffffffffffffffffffffffffffffff168173ffffffffffffffffffffffffffffffffffffffff16636352211e876040518263ffffffff1660e01b81526004016104089190611527565b60206040518083038186803b15801561042057600080fd5b505afa158015610434573d6000803e3d6000fd5b505050506040513d601f19601f820116820180604052508101906104589190610e06565b73ffffffffffffffffffffffffffffffffffffffff16146104ae576040517f08c379a00000000000000000000000000000000000000000000000000000000081526004016104a5906114a7565b60405180910390fd5b6040518060a001604052808773ffffffffffffffffffffffffffffffffffffffff1681526020018681526020018373ffffffffffffffffffffffffffffffffffffffff1681526020018581526020018442610509919061161d565b81525060086000600954815260200190815260200160002060008201518160000160006101000a81548173ffffffffffffffffffffffffffffffffffffffff021916908373ffffffffffffffffffffffffffffffffffffffff1602179055506020820151816001015560408201518160020160006101000a81548173ffffffffffffffffffffffffffffffffffffffff021916908373ffffffffffffffffffffffffffffffffffffffff1602179055506060820151816003015560808201518160040155905050600360095490806001815401808255809150506001900390600052602060002001600090919091909150558573ffffffffffffffffffffffffffffffffffffffff168273ffffffffffffffffffffffffffffffffffffffff166009547ff33c76fec15a03b2e414df8c9dce93f5b05f8672742e0f1eb558b2161162dfcb8888884261065b919061161d565b60405161066a93929190611542565b60405180910390a4600960008154809291906106859061174a565b9190505550505050505050565b60606106a1868686868661084c565b6106e0576040517f08c379a00000000000000000000000000000000000000000000000000000000081526004016106d790611507565b60405180910390fd5b600a60008773ffffffffffffffffffffffffffffffffffffffff1673ffffffffffffffffffffffffffffffffffffffff16815260200190815260200160002060008154809291906107309061174a565b91905055506000803073ffffffffffffffffffffffffffffffffffffffff1687896040516020016107629291906112eb565b60405160208183030381529060405260405161077e91906112d4565b600060405180830381855af49150503d80600081146107b9576040519150601f19603f3d011682016040523d82523d6000602084013e6107be565b606091505b509150915081610803576040517f08c379a00000000000000000000000000000000000000000000000000000000081526004016107fa90611467565b60405180910390fd5b7f5845892132946850460bff5a0083f71031bc5bf9aadcd40f1de79423eac9b10b88338960405161083693929190611354565b60405180910390a1809250505095945050505050565b6000808690506000600a60008973ffffffffffffffffffffffffffffffffffffffff1673ffffffffffffffffffffffffffffffffffffffff16815260200190815260200160002054905060006108cd8383308b6040516020016108b2949392919061128a565b60405160208183030381529060405280519060200120610b92565b90506000600182878a8a604051600081526020016040526040516108f49493929190611400565b6020604051602081039080840390855afa158015610916573d6000803e3d6000fd5b5050506020604051035190508973ffffffffffffffffffffffffffffffffffffffff168173ffffffffffffffffffffffffffffffffffffffff161494505050505095945050505050565b6000600260009054906101000a900460ff16905090565b61097f610bc2565b6109896000610c40565b565b600a6020528060005260406000206000915090505481565b60045481565b60008060009054906101000a900473ffffffffffffffffffffffffffffffffffffffff16905090565b60095481565b600660009054906101000a900473ffffffffffffffffffffffffffffffffffffffff1681565b60055481565b60086020528060005260406000206000915090508060000160009054906101000a900473ffffffffffffffffffffffffffffffffffffffff16908060010154908060020160009054906101000a900473ffffffffffffffffffffffffffffffffffffffff16908060030154908060040154905085565b60038181548110610a8a57600080fd5b906000526020600020016000915090505481565b600760009054906101000a900473ffffffffffffffffffffffffffffffffffffffff1681565b610acc610bc2565b600073ffffffffffffffffffffffffffffffffffffffff168173ffffffffffffffffffffffffffffffffffffffff161415610b3c576040517f08c379a0000000000000000000000000000000000000000000000000000000008152600401610b3390611487565b60405180910390fd5b610b4581610c40565b50565b610b50610960565b15610b90576040517f08c379a0000000000000000000000000000000000000000000000000000000008152600401610b87906114c7565b60405180910390fd5b565b600081604051602001610ba59190611313565b604051602081830303815290604052805190602001209050919050565b610bca610d04565b73ffffffffffffffffffffffffffffffffffffffff16610be86109a9565b73ffffffffffffffffffffffffffffffffffffffff1614610c3e576040517f08c379a0000000000000000000000000000000000000000000000000000000008152600401610c35906114e7565b60405180910390fd5b565b60008060009054906101000a900473ffffffffffffffffffffffffffffffffffffffff169050816000806101000a81548173ffffffffffffffffffffffffffffffffffffffff021916908373ffffffffffffffffffffffffffffffffffffffff1602179055508173ffffffffffffffffffffffffffffffffffffffff168173ffffffffffffffffffffffffffffffffffffffff167f8be0079c531659141344cd1fd0a4f28419497f9722a3daafe3b4186f6b6457e060405160405180910390a35050565b600033905090565b6000610d1f610d1a846115aa565b611579565b905082815260208101848484011115610d3757600080fd5b610d42848285611708565b509392505050565b600081359050610d5981611847565b92915050565b600081519050610d6e81611847565b92915050565b600081359050610d838161185e565b92915050565b600082601f830112610d9a57600080fd5b8135610daa848260208601610d0c565b91505092915050565b600081359050610dc281611875565b92915050565b600081359050610dd78161188c565b92915050565b600060208284031215610def57600080fd5b6000610dfd84828501610d4a565b91505092915050565b600060208284031215610e1857600080fd5b6000610e2684828501610d5f565b91505092915050565b600080600080600060a08688031215610e4757600080fd5b6000610e5588828901610d4a565b955050602086013567ffffffffffffffff811115610e7257600080fd5b610e7e88828901610d89565b9450506040610e8f88828901610d74565b9350506060610ea088828901610d74565b9250506080610eb188828901610dc8565b9150509295509295909350565b600080600080600060a08688031215610ed657600080fd5b6000610ee488828901610d4a565b9550506020610ef588828901610db3565b9450506040610f0688828901610db3565b9350506060610f1788828901610db3565b9250506080610f2888828901610d4a565b9150509295509295909350565b600060208284031215610f4757600080fd5b6000610f5584828501610db3565b91505092915050565b610f6781611685565b82525050565b610f7681611673565b82525050565b610f8d610f8882611673565b611793565b82525050565b610f9c81611697565b82525050565b610fab816116a3565b82525050565b610fc2610fbd826116a3565b6117a5565b82525050565b6000610fd3826115da565b610fdd81856115e5565b9350610fed818560208601611717565b610ff681611829565b840191505092915050565b600061100c826115da565b61101681856115f6565b9350611026818560208601611717565b80840191505092915050565b61104361103e826116e4565b611793565b82525050565b6000611056601483611601565b91507f46756e6374696f6e2063616c6c206661696c65640000000000000000000000006000830152602082019050919050565b6000611096601c83611612565b91507f19457468657265756d205369676e6564204d6573736167653a0a3332000000006000830152601c82019050919050565b60006110d6602683611601565b91507f4f776e61626c653a206e6577206f776e657220697320746865207a65726f206160008301527f64647265737300000000000000000000000000000000000000000000000000006020830152604082019050919050565b600061113c602083611601565b91507f596f75206d757374206f776e20746865204e465420746f206c6973742069742e6000830152602082019050919050565b600061117c601083611601565b91507f5061757361626c653a20706175736564000000000000000000000000000000006000830152602082019050919050565b60006111bc602083611601565b91507f4f776e61626c653a2063616c6c6572206973206e6f7420746865206f776e65726000830152602082019050919050565b60006111fc602183611601565b91507f5369676e657220616e64207369676e617475726520646f206e6f74206d61746360008301527f68000000000000000000000000000000000000000000000000000000000000006020830152604082019050919050565b61125e816116cd565b82525050565b611275611270826116cd565b6117c1565b82525050565b611284816116d7565b82525050565b60006112968287610f7c565b6014820191506112a68286611264565b6020820191506112b68285611032565b6014820191506112c68284611001565b915081905095945050505050565b60006112e08284611001565b915081905092915050565b60006112f78285611001565b91506113038284610f7c565b6014820191508190509392505050565b600061131e82611089565b915061132a8284610fb1565b60208201915081905092915050565b600060208201905061134e6000830184610f6d565b92915050565b60006060820190506113696000830186610f6d565b6113766020830185610f5e565b81810360408301526113888184610fc8565b9050949350505050565b600060a0820190506113a76000830188610f6d565b6113b46020830187611255565b6113c16040830186610f6d565b6113ce6060830185611255565b6113db6080830184611255565b9695505050505050565b60006020820190506113fa6000830184610f93565b92915050565b60006080820190506114156000830187610fa2565b611422602083018661127b565b61142f6040830185610fa2565b61143c6060830184610fa2565b95945050505050565b6000602082019050818103600083015261145f8184610fc8565b905092915050565b6000602082019050818103600083015261148081611049565b9050919050565b600060208201905081810360008301526114a0816110c9565b9050919050565b600060208201905081810360008301526114c08161112f565b9050919050565b600060208201905081810360008301526114e08161116f565b9050919050565b60006020820190508181036000830152611500816111af565b9050919050565b60006020820190508181036000830152611520816111ef565b9050919050565b600060208201905061153c6000830184611255565b92915050565b60006060820190506115576000830186611255565b6115646020830185611255565b6115716040830184611255565b949350505050565b6000604051905081810181811067ffffffffffffffff821117156115a05761159f6117fa565b5b8060405250919050565b600067ffffffffffffffff8211156115c5576115c46117fa565b5b601f19601f8301169050602081019050919050565b600081519050919050565b600082825260208201905092915050565b600081905092915050565b600082825260208201905092915050565b600081905092915050565b6000611628826116cd565b9150611633836116cd565b9250827fffffffffffffffffffffffffffffffffffffffffffffffffffffffffffffffff03821115611668576116676117cb565b5b828201905092915050565b600061167e826116ad565b9050919050565b6000611690826116ad565b9050919050565b60008115159050919050565b6000819050919050565b600073ffffffffffffffffffffffffffffffffffffffff82169050919050565b6000819050919050565b600060ff82169050919050565b60006116ef826116f6565b9050919050565b6000611701826116ad565b9050919050565b82818337600083830152505050565b60005b8381101561173557808201518184015260208101905061171a565b83811115611744576000848401525b50505050565b6000611755826116cd565b91507fffffffffffffffffffffffffffffffffffffffffffffffffffffffffffffffff821415611788576117876117cb565b5b600182019050919050565b600061179e826117af565b9050919050565b6000819050919050565b60006117ba8261183a565b9050919050565b6000819050919050565b7f4e487b7100000000000000000000000000000000000000000000000000000000600052601160045260246000fd5b7f4e487b7100000000000000000000000000000000000000000000000000000000600052604160045260246000fd5b6000601f19601f8301169050919050565b60008160601b9050919050565b61185081611673565b811461185b57600080fd5b50565b611867816116a3565b811461187257600080fd5b50565b61187e816116cd565b811461188957600080fd5b50565b611895816116d7565b81146118a057600080fd5b5056fea2646970667358221220006fecb051e5f543a9f9f38daf770a1a9eeab98ab67d7fa970cb5ffaab340ce964736f6c63430008000033",
					"opcodes": "PUSH1 0x80 PUSH1 0x40 MSTORE PUSH1 0x1 PUSH1 0x9 SSTORE CALLVALUE DUP1 ISZERO PUSH3 0x16 JUMPI PUSH1 0x0 DUP1 REVERT JUMPDEST POP PUSH1 0x40 MLOAD PUSH3 0x1CFB CODESIZE SUB DUP1 PUSH3 0x1CFB DUP4 CODECOPY DUP2 DUP2 ADD PUSH1 0x40 MSTORE DUP2 ADD SWAP1 PUSH3 0x3C SWAP2 SWAP1 PUSH3 0x2BF JUMP JUMPDEST PUSH3 0x5C PUSH3 0x50 PUSH3 0x1C5 PUSH1 0x20 SHL PUSH1 0x20 SHR JUMP JUMPDEST PUSH3 0x1CD PUSH1 0x20 SHL PUSH1 0x20 SHR JUMP JUMPDEST PUSH1 0x1 DUP1 DUP2 SWAP1 SSTORE POP PUSH1 0x0 PUSH1 0x2 PUSH1 0x0 PUSH2 0x100 EXP DUP2 SLOAD DUP2 PUSH1 0xFF MUL NOT AND SWAP1 DUP4 ISZERO ISZERO MUL OR SWAP1 SSTORE POP PUSH1 0x0 PUSH20 0xFFFFFFFFFFFFFFFFFFFFFFFFFFFFFFFFFFFFFFFF AND DUP3 PUSH20 0xFFFFFFFFFFFFFFFFFFFFFFFFFFFFFFFFFFFFFFFF AND EQ ISZERO DUP1 ISZERO PUSH3 0xE9 JUMPI POP PUSH1 0x0 PUSH20 0xFFFFFFFFFFFFFFFFFFFFFFFFFFFFFFFFFFFFFFFF AND DUP2 PUSH20 0xFFFFFFFFFFFFFFFFFFFFFFFFFFFFFFFFFFFFFFFF AND EQ ISZERO JUMPDEST PUSH3 0x12B JUMPI PUSH1 0x40 MLOAD PUSH32 0x8C379A000000000000000000000000000000000000000000000000000000000 DUP2 MSTORE PUSH1 0x4 ADD PUSH3 0x122 SWAP1 PUSH3 0x36D JUMP JUMPDEST PUSH1 0x40 MLOAD DUP1 SWAP2 SUB SWAP1 REVERT JUMPDEST DUP4 PUSH1 0x4 DUP2 SWAP1 SSTORE POP DUP3 PUSH1 0x5 DUP2 SWAP1 SSTORE POP DUP2 PUSH1 0x6 PUSH1 0x0 PUSH2 0x100 EXP DUP2 SLOAD DUP2 PUSH20 0xFFFFFFFFFFFFFFFFFFFFFFFFFFFFFFFFFFFFFFFF MUL NOT AND SWAP1 DUP4 PUSH20 0xFFFFFFFFFFFFFFFFFFFFFFFFFFFFFFFFFFFFFFFF AND MUL OR SWAP1 SSTORE POP DUP1 PUSH1 0x7 PUSH1 0x0 PUSH2 0x100 EXP DUP2 SLOAD DUP2 PUSH20 0xFFFFFFFFFFFFFFFFFFFFFFFFFFFFFFFFFFFFFFFF MUL NOT AND SWAP1 DUP4 PUSH20 0xFFFFFFFFFFFFFFFFFFFFFFFFFFFFFFFFFFFFFFFF AND MUL OR SWAP1 SSTORE POP POP POP POP POP PUSH3 0x412 JUMP JUMPDEST PUSH1 0x0 CALLER SWAP1 POP SWAP1 JUMP JUMPDEST PUSH1 0x0 DUP1 PUSH1 0x0 SWAP1 SLOAD SWAP1 PUSH2 0x100 EXP SWAP1 DIV PUSH20 0xFFFFFFFFFFFFFFFFFFFFFFFFFFFFFFFFFFFFFFFF AND SWAP1 POP DUP2 PUSH1 0x0 DUP1 PUSH2 0x100 EXP DUP2 SLOAD DUP2 PUSH20 0xFFFFFFFFFFFFFFFFFFFFFFFFFFFFFFFFFFFFFFFF MUL NOT AND SWAP1 DUP4 PUSH20 0xFFFFFFFFFFFFFFFFFFFFFFFFFFFFFFFFFFFFFFFF AND MUL OR SWAP1 SSTORE POP DUP2 PUSH20 0xFFFFFFFFFFFFFFFFFFFFFFFFFFFFFFFFFFFFFFFF AND DUP2 PUSH20 0xFFFFFFFFFFFFFFFFFFFFFFFFFFFFFFFFFFFFFFFF AND PUSH32 0x8BE0079C531659141344CD1FD0A4F28419497F9722A3DAAFE3B4186F6B6457E0 PUSH1 0x40 MLOAD PUSH1 0x40 MLOAD DUP1 SWAP2 SUB SWAP1 LOG3 POP POP JUMP JUMPDEST PUSH1 0x0 DUP2 MLOAD SWAP1 POP PUSH3 0x2A2 DUP2 PUSH3 0x3DE JUMP JUMPDEST SWAP3 SWAP2 POP POP JUMP JUMPDEST PUSH1 0x0 DUP2 MLOAD SWAP1 POP PUSH3 0x2B9 DUP2 PUSH3 0x3F8 JUMP JUMPDEST SWAP3 SWAP2 POP POP JUMP JUMPDEST PUSH1 0x0 DUP1 PUSH1 0x0 DUP1 PUSH1 0x80 DUP6 DUP8 SUB SLT ISZERO PUSH3 0x2D6 JUMPI PUSH1 0x0 DUP1 REVERT JUMPDEST PUSH1 0x0 PUSH3 0x2E6 DUP8 DUP3 DUP9 ADD PUSH3 0x2A8 JUMP JUMPDEST SWAP5 POP POP PUSH1 0x20 PUSH3 0x2F9 DUP8 DUP3 DUP9 ADD PUSH3 0x2A8 JUMP JUMPDEST SWAP4 POP POP PUSH1 0x40 PUSH3 0x30C DUP8 DUP3 DUP9 ADD PUSH3 0x291 JUMP JUMPDEST SWAP3 POP POP PUSH1 0x60 PUSH3 0x31F DUP8 DUP3 DUP9 ADD PUSH3 0x291 JUMP JUMPDEST SWAP2 POP POP SWAP3 SWAP6 SWAP2 SWAP5 POP SWAP3 POP JUMP JUMPDEST PUSH1 0x0 PUSH3 0x33A PUSH1 0x18 DUP4 PUSH3 0x38F JUMP JUMPDEST SWAP2 POP PUSH32 0x4164647265737365732063616E6E6F74206265207A65726F0000000000000000 PUSH1 0x0 DUP4 ADD MSTORE PUSH1 0x20 DUP3 ADD SWAP1 POP SWAP2 SWAP1 POP JUMP JUMPDEST PUSH1 0x0 PUSH1 0x20 DUP3 ADD SWAP1 POP DUP2 DUP2 SUB PUSH1 0x0 DUP4 ADD MSTORE PUSH3 0x388 DUP2 PUSH3 0x32B JUMP JUMPDEST SWAP1 POP SWAP2 SWAP1 POP JUMP JUMPDEST PUSH1 0x0 DUP3 DUP3 MSTORE PUSH1 0x20 DUP3 ADD SWAP1 POP SWAP3 SWAP2 POP POP JUMP JUMPDEST PUSH1 0x0 PUSH3 0x3AD DUP3 PUSH3 0x3B4 JUMP JUMPDEST SWAP1 POP SWAP2 SWAP1 POP JUMP JUMPDEST PUSH1 0x0 PUSH20 0xFFFFFFFFFFFFFFFFFFFFFFFFFFFFFFFFFFFFFFFF DUP3 AND SWAP1 POP SWAP2 SWAP1 POP JUMP JUMPDEST PUSH1 0x0 DUP2 SWAP1 POP SWAP2 SWAP1 POP JUMP JUMPDEST PUSH3 0x3E9 DUP2 PUSH3 0x3A0 JUMP JUMPDEST DUP2 EQ PUSH3 0x3F5 JUMPI PUSH1 0x0 DUP1 REVERT JUMPDEST POP JUMP JUMPDEST PUSH3 0x403 DUP2 PUSH3 0x3D4 JUMP JUMPDEST DUP2 EQ PUSH3 0x40F JUMPI PUSH1 0x0 DUP1 REVERT JUMPDEST POP JUMP JUMPDEST PUSH2 0x18D9 DUP1 PUSH3 0x422 PUSH1 0x0 CODECOPY PUSH1 0x0 RETURN INVALID PUSH1 0x80 PUSH1 0x40 MSTORE PUSH1 0x4 CALLDATASIZE LT PUSH2 0xE8 JUMPI PUSH1 0x0 CALLDATALOAD PUSH1 0xE0 SHR DUP1 PUSH4 0x8DA5CB5B GT PUSH2 0x8A JUMPI DUP1 PUSH4 0xDE74E57B GT PUSH2 0x59 JUMPI DUP1 PUSH4 0xDE74E57B EQ PUSH2 0x2D9 JUMPI DUP1 PUSH4 0xE3B6A1F6 EQ PUSH2 0x31A JUMPI DUP1 PUSH4 0xED14834F EQ PUSH2 0x357 JUMPI DUP1 PUSH4 0xF2FDE38B EQ PUSH2 0x382 JUMPI PUSH2 0xE8 JUMP JUMPDEST DUP1 PUSH4 0x8DA5CB5B EQ PUSH2 0x22D JUMPI DUP1 PUSH4 0xAACCF1EC EQ PUSH2 0x258 JUMPI DUP1 PUSH4 0xAD2F852A EQ PUSH2 0x283 JUMPI DUP1 PUSH4 0xCDD78CFC EQ PUSH2 0x2AE JUMPI PUSH2 0xE8 JUMP JUMPDEST DUP1 PUSH4 0x5C975ABB GT PUSH2 0xC6 JUMPI DUP1 PUSH4 0x5C975ABB EQ PUSH2 0x183 JUMPI DUP1 PUSH4 0x715018A6 EQ PUSH2 0x1AE JUMPI DUP1 PUSH4 0x7ECEBE00 EQ PUSH2 0x1C5 JUMPI DUP1 PUSH4 0x8A71BB2D EQ PUSH2 0x202 JUMPI PUSH2 0xE8 JUMP JUMPDEST DUP1 PUSH4 0x28EF312 EQ PUSH2 0xED JUMPI DUP1 PUSH4 0xC53C51C EQ PUSH2 0x116 JUMPI DUP1 PUSH4 0x33929726 EQ PUSH2 0x146 JUMPI JUMPDEST PUSH1 0x0 DUP1 REVERT JUMPDEST CALLVALUE DUP1 ISZERO PUSH2 0xF9 JUMPI PUSH1 0x0 DUP1 REVERT JUMPDEST POP PUSH2 0x114 PUSH1 0x4 DUP1 CALLDATASIZE SUB DUP2 ADD SWAP1 PUSH2 0x10F SWAP2 SWAP1 PUSH2 0xEBE JUMP JUMPDEST PUSH2 0x3AB JUMP JUMPDEST STOP JUMPDEST PUSH2 0x130 PUSH1 0x4 DUP1 CALLDATASIZE SUB DUP2 ADD SWAP1 PUSH2 0x12B SWAP2 SWAP1 PUSH2 0xE2F JUMP JUMPDEST PUSH2 0x692 JUMP JUMPDEST PUSH1 0x40 MLOAD PUSH2 0x13D SWAP2 SWAP1 PUSH2 0x1445 JUMP JUMPDEST PUSH1 0x40 MLOAD DUP1 SWAP2 SUB SWAP1 RETURN JUMPDEST CALLVALUE DUP1 ISZERO PUSH2 0x152 JUMPI PUSH1 0x0 DUP1 REVERT JUMPDEST POP PUSH2 0x16D PUSH1 0x4 DUP1 CALLDATASIZE SUB DUP2 ADD SWAP1 PUSH2 0x168 SWAP2 SWAP1 PUSH2 0xE2F JUMP JUMPDEST PUSH2 0x84C JUMP JUMPDEST PUSH1 0x40 MLOAD PUSH2 0x17A SWAP2 SWAP1 PUSH2 0x13E5 JUMP JUMPDEST PUSH1 0x40 MLOAD DUP1 SWAP2 SUB SWAP1 RETURN JUMPDEST CALLVALUE DUP1 ISZERO PUSH2 0x18F JUMPI PUSH1 0x0 DUP1 REVERT JUMPDEST POP PUSH2 0x198 PUSH2 0x960 JUMP JUMPDEST PUSH1 0x40 MLOAD PUSH2 0x1A5 SWAP2 SWAP1 PUSH2 0x13E5 JUMP JUMPDEST PUSH1 0x40 MLOAD DUP1 SWAP2 SUB SWAP1 RETURN JUMPDEST CALLVALUE DUP1 ISZERO PUSH2 0x1BA JUMPI PUSH1 0x0 DUP1 REVERT JUMPDEST POP PUSH2 0x1C3 PUSH2 0x977 JUMP JUMPDEST STOP JUMPDEST CALLVALUE DUP1 ISZERO PUSH2 0x1D1 JUMPI PUSH1 0x0 DUP1 REVERT JUMPDEST POP PUSH2 0x1EC PUSH1 0x4 DUP1 CALLDATASIZE SUB DUP2 ADD SWAP1 PUSH2 0x1E7 SWAP2 SWAP1 PUSH2 0xDDD JUMP JUMPDEST PUSH2 0x98B JUMP JUMPDEST PUSH1 0x40 MLOAD PUSH2 0x1F9 SWAP2 SWAP1 PUSH2 0x1527 JUMP JUMPDEST PUSH1 0x40 MLOAD DUP1 SWAP2 SUB SWAP1 RETURN JUMPDEST CALLVALUE DUP1 ISZERO PUSH2 0x20E JUMPI PUSH1 0x0 DUP1 REVERT JUMPDEST POP PUSH2 0x217 PUSH2 0x9A3 JUMP JUMPDEST PUSH1 0x40 MLOAD PUSH2 0x224 SWAP2 SWAP1 PUSH2 0x1527 JUMP JUMPDEST PUSH1 0x40 MLOAD DUP1 SWAP2 SUB SWAP1 RETURN JUMPDEST CALLVALUE DUP1 ISZERO PUSH2 0x239 JUMPI PUSH1 0x0 DUP1 REVERT JUMPDEST POP PUSH2 0x242 PUSH2 0x9A9 JUMP JUMPDEST PUSH1 0x40 MLOAD PUSH2 0x24F SWAP2 SWAP1 PUSH2 0x1339 JUMP JUMPDEST PUSH1 0x40 MLOAD DUP1 SWAP2 SUB SWAP1 RETURN JUMPDEST CALLVALUE DUP1 ISZERO PUSH2 0x264 JUMPI PUSH1 0x0 DUP1 REVERT JUMPDEST POP PUSH2 0x26D PUSH2 0x9D2 JUMP JUMPDEST PUSH1 0x40 MLOAD PUSH2 0x27A SWAP2 SWAP1 PUSH2 0x1527 JUMP JUMPDEST PUSH1 0x40 MLOAD DUP1 SWAP2 SUB SWAP1 RETURN JUMPDEST CALLVALUE DUP1 ISZERO PUSH2 0x28F JUMPI PUSH1 0x0 DUP1 REVERT JUMPDEST POP PUSH2 0x298 PUSH2 0x9D8 JUMP JUMPDEST PUSH1 0x40 MLOAD PUSH2 0x2A5 SWAP2 SWAP1 PUSH2 0x1339 JUMP JUMPDEST PUSH1 0x40 MLOAD DUP1 SWAP2 SUB SWAP1 RETURN JUMPDEST CALLVALUE DUP1 ISZERO PUSH2 0x2BA JUMPI PUSH1 0x0 DUP1 REVERT JUMPDEST POP PUSH2 0x2C3 PUSH2 0x9FE JUMP JUMPDEST PUSH1 0x40 MLOAD PUSH2 0x2D0 SWAP2 SWAP1 PUSH2 0x1527 JUMP JUMPDEST PUSH1 0x40 MLOAD DUP1 SWAP2 SUB SWAP1 RETURN JUMPDEST CALLVALUE DUP1 ISZERO PUSH2 0x2E5 JUMPI PUSH1 0x0 DUP1 REVERT JUMPDEST POP PUSH2 0x300 PUSH1 0x4 DUP1 CALLDATASIZE SUB DUP2 ADD SWAP1 PUSH2 0x2FB SWAP2 SWAP1 PUSH2 0xF35 JUMP JUMPDEST PUSH2 0xA04 JUMP JUMPDEST PUSH1 0x40 MLOAD PUSH2 0x311 SWAP6 SWAP5 SWAP4 SWAP3 SWAP2 SWAP1 PUSH2 0x1392 JUMP JUMPDEST PUSH1 0x40 MLOAD DUP1 SWAP2 SUB SWAP1 RETURN JUMPDEST CALLVALUE DUP1 ISZERO PUSH2 0x326 JUMPI PUSH1 0x0 DUP1 REVERT JUMPDEST POP PUSH2 0x341 PUSH1 0x4 DUP1 CALLDATASIZE SUB DUP2 ADD SWAP1 PUSH2 0x33C SWAP2 SWAP1 PUSH2 0xF35 JUMP JUMPDEST PUSH2 0xA7A JUMP JUMPDEST PUSH1 0x40 MLOAD PUSH2 0x34E SWAP2 SWAP1 PUSH2 0x1527 JUMP JUMPDEST PUSH1 0x40 MLOAD DUP1 SWAP2 SUB SWAP1 RETURN JUMPDEST CALLVALUE DUP1 ISZERO PUSH2 0x363 JUMPI PUSH1 0x0 DUP1 REVERT JUMPDEST POP PUSH2 0x36C PUSH2 0xA9E JUMP JUMPDEST PUSH1 0x40 MLOAD PUSH2 0x379 SWAP2 SWAP1 PUSH2 0x1339 JUMP JUMPDEST PUSH1 0x40 MLOAD DUP1 SWAP2 SUB SWAP1 RETURN JUMPDEST CALLVALUE DUP1 ISZERO PUSH2 0x38E JUMPI PUSH1 0x0 DUP1 REVERT JUMPDEST POP PUSH2 0x3A9 PUSH1 0x4 DUP1 CALLDATASIZE SUB DUP2 ADD SWAP1 PUSH2 0x3A4 SWAP2 SWAP1 PUSH2 0xDDD JUMP JUMPDEST PUSH2 0xAC4 JUMP JUMPDEST STOP JUMPDEST PUSH2 0x3B3 PUSH2 0xB48 JUMP JUMPDEST PUSH1 0x0 DUP6 SWAP1 POP DUP2 PUSH20 0xFFFFFFFFFFFFFFFFFFFFFFFFFFFFFFFFFFFFFFFF AND DUP2 PUSH20 0xFFFFFFFFFFFFFFFFFFFFFFFFFFFFFFFFFFFFFFFF AND PUSH4 0x6352211E DUP8 PUSH1 0x40 MLOAD DUP3 PUSH4 0xFFFFFFFF AND PUSH1 0xE0 SHL DUP2 MSTORE PUSH1 0x4 ADD PUSH2 0x408 SWAP2 SWAP1 PUSH2 0x1527 JUMP JUMPDEST PUSH1 0x20 PUSH1 0x40 MLOAD DUP1 DUP4 SUB DUP2 DUP7 DUP1 EXTCODESIZE ISZERO DUP1 ISZERO PUSH2 0x420 JUMPI PUSH1 0x0 DUP1 REVERT JUMPDEST POP GAS STATICCALL ISZERO DUP1 ISZERO PUSH2 0x434 JUMPI RETURNDATASIZE PUSH1 0x0 DUP1 RETURNDATACOPY RETURNDATASIZE PUSH1 0x0 REVERT JUMPDEST POP POP POP POP PUSH1 0x40 MLOAD RETURNDATASIZE PUSH1 0x1F NOT PUSH1 0x1F DUP3 ADD AND DUP3 ADD DUP1 PUSH1 0x40 MSTORE POP DUP2 ADD SWAP1 PUSH2 0x458 SWAP2 SWAP1 PUSH2 0xE06 JUMP JUMPDEST PUSH20 0xFFFFFFFFFFFFFFFFFFFFFFFFFFFFFFFFFFFFFFFF AND EQ PUSH2 0x4AE JUMPI PUSH1 0x40 MLOAD PUSH32 0x8C379A000000000000000000000000000000000000000000000000000000000 DUP2 MSTORE PUSH1 0x4 ADD PUSH2 0x4A5 SWAP1 PUSH2 0x14A7 JUMP JUMPDEST PUSH1 0x40 MLOAD DUP1 SWAP2 SUB SWAP1 REVERT JUMPDEST PUSH1 0x40 MLOAD DUP1 PUSH1 0xA0 ADD PUSH1 0x40 MSTORE DUP1 DUP8 PUSH20 0xFFFFFFFFFFFFFFFFFFFFFFFFFFFFFFFFFFFFFFFF AND DUP2 MSTORE PUSH1 0x20 ADD DUP7 DUP2 MSTORE PUSH1 0x20 ADD DUP4 PUSH20 0xFFFFFFFFFFFFFFFFFFFFFFFFFFFFFFFFFFFFFFFF AND DUP2 MSTORE PUSH1 0x20 ADD DUP6 DUP2 MSTORE PUSH1 0x20 ADD DUP5 TIMESTAMP PUSH2 0x509 SWAP2 SWAP1 PUSH2 0x161D JUMP JUMPDEST DUP2 MSTORE POP PUSH1 0x8 PUSH1 0x0 PUSH1 0x9 SLOAD DUP2 MSTORE PUSH1 0x20 ADD SWAP1 DUP2 MSTORE PUSH1 0x20 ADD PUSH1 0x0 KECCAK256 PUSH1 0x0 DUP3 ADD MLOAD DUP2 PUSH1 0x0 ADD PUSH1 0x0 PUSH2 0x100 EXP DUP2 SLOAD DUP2 PUSH20 0xFFFFFFFFFFFFFFFFFFFFFFFFFFFFFFFFFFFFFFFF MUL NOT AND SWAP1 DUP4 PUSH20 0xFFFFFFFFFFFFFFFFFFFFFFFFFFFFFFFFFFFFFFFF AND MUL OR SWAP1 SSTORE POP PUSH1 0x20 DUP3 ADD MLOAD DUP2 PUSH1 0x1 ADD SSTORE PUSH1 0x40 DUP3 ADD MLOAD DUP2 PUSH1 0x2 ADD PUSH1 0x0 PUSH2 0x100 EXP DUP2 SLOAD DUP2 PUSH20 0xFFFFFFFFFFFFFFFFFFFFFFFFFFFFFFFFFFFFFFFF MUL NOT AND SWAP1 DUP4 PUSH20 0xFFFFFFFFFFFFFFFFFFFFFFFFFFFFFFFFFFFFFFFF AND MUL OR SWAP1 SSTORE POP PUSH1 0x60 DUP3 ADD MLOAD DUP2 PUSH1 0x3 ADD SSTORE PUSH1 0x80 DUP3 ADD MLOAD DUP2 PUSH1 0x4 ADD SSTORE SWAP1 POP POP PUSH1 0x3 PUSH1 0x9 SLOAD SWAP1 DUP1 PUSH1 0x1 DUP2 SLOAD ADD DUP1 DUP3 SSTORE DUP1 SWAP2 POP POP PUSH1 0x1 SWAP1 SUB SWAP1 PUSH1 0x0 MSTORE PUSH1 0x20 PUSH1 0x0 KECCAK256 ADD PUSH1 0x0 SWAP1 SWAP2 SWAP1 SWAP2 SWAP1 SWAP2 POP SSTORE DUP6 PUSH20 0xFFFFFFFFFFFFFFFFFFFFFFFFFFFFFFFFFFFFFFFF AND DUP3 PUSH20 0xFFFFFFFFFFFFFFFFFFFFFFFFFFFFFFFFFFFFFFFF AND PUSH1 0x9 SLOAD PUSH32 0xF33C76FEC15A03B2E414DF8C9DCE93F5B05F8672742E0F1EB558B2161162DFCB DUP9 DUP9 DUP9 TIMESTAMP PUSH2 0x65B SWAP2 SWAP1 PUSH2 0x161D JUMP JUMPDEST PUSH1 0x40 MLOAD PUSH2 0x66A SWAP4 SWAP3 SWAP2 SWAP1 PUSH2 0x1542 JUMP JUMPDEST PUSH1 0x40 MLOAD DUP1 SWAP2 SUB SWAP1 LOG4 PUSH1 0x9 PUSH1 0x0 DUP2 SLOAD DUP1 SWAP3 SWAP2 SWAP1 PUSH2 0x685 SWAP1 PUSH2 0x174A JUMP JUMPDEST SWAP2 SWAP1 POP SSTORE POP POP POP POP POP POP POP JUMP JUMPDEST PUSH1 0x60 PUSH2 0x6A1 DUP7 DUP7 DUP7 DUP7 DUP7 PUSH2 0x84C JUMP JUMPDEST PUSH2 0x6E0 JUMPI PUSH1 0x40 MLOAD PUSH32 0x8C379A000000000000000000000000000000000000000000000000000000000 DUP2 MSTORE PUSH1 0x4 ADD PUSH2 0x6D7 SWAP1 PUSH2 0x1507 JUMP JUMPDEST PUSH1 0x40 MLOAD DUP1 SWAP2 SUB SWAP1 REVERT JUMPDEST PUSH1 0xA PUSH1 0x0 DUP8 PUSH20 0xFFFFFFFFFFFFFFFFFFFFFFFFFFFFFFFFFFFFFFFF AND PUSH20 0xFFFFFFFFFFFFFFFFFFFFFFFFFFFFFFFFFFFFFFFF AND DUP2 MSTORE PUSH1 0x20 ADD SWAP1 DUP2 MSTORE PUSH1 0x20 ADD PUSH1 0x0 KECCAK256 PUSH1 0x0 DUP2 SLOAD DUP1 SWAP3 SWAP2 SWAP1 PUSH2 0x730 SWAP1 PUSH2 0x174A JUMP JUMPDEST SWAP2 SWAP1 POP SSTORE POP PUSH1 0x0 DUP1 ADDRESS PUSH20 0xFFFFFFFFFFFFFFFFFFFFFFFFFFFFFFFFFFFFFFFF AND DUP8 DUP10 PUSH1 0x40 MLOAD PUSH1 0x20 ADD PUSH2 0x762 SWAP3 SWAP2 SWAP1 PUSH2 0x12EB JUMP JUMPDEST PUSH1 0x40 MLOAD PUSH1 0x20 DUP2 DUP4 SUB SUB DUP2 MSTORE SWAP1 PUSH1 0x40 MSTORE PUSH1 0x40 MLOAD PUSH2 0x77E SWAP2 SWAP1 PUSH2 0x12D4 JUMP JUMPDEST PUSH1 0x0 PUSH1 0x40 MLOAD DUP1 DUP4 SUB DUP2 DUP6 GAS DELEGATECALL SWAP2 POP POP RETURNDATASIZE DUP1 PUSH1 0x0 DUP2 EQ PUSH2 0x7B9 JUMPI PUSH1 0x40 MLOAD SWAP2 POP PUSH1 0x1F NOT PUSH1 0x3F RETURNDATASIZE ADD AND DUP3 ADD PUSH1 0x40 MSTORE RETURNDATASIZE DUP3 MSTORE RETURNDATASIZE PUSH1 0x0 PUSH1 0x20 DUP5 ADD RETURNDATACOPY PUSH2 0x7BE JUMP JUMPDEST PUSH1 0x60 SWAP2 POP JUMPDEST POP SWAP2 POP SWAP2 POP DUP2 PUSH2 0x803 JUMPI PUSH1 0x40 MLOAD PUSH32 0x8C379A000000000000000000000000000000000000000000000000000000000 DUP2 MSTORE PUSH1 0x4 ADD PUSH2 0x7FA SWAP1 PUSH2 0x1467 JUMP JUMPDEST PUSH1 0x40 MLOAD DUP1 SWAP2 SUB SWAP1 REVERT JUMPDEST PUSH32 0x5845892132946850460BFF5A0083F71031BC5BF9AADCD40F1DE79423EAC9B10B DUP9 CALLER DUP10 PUSH1 0x40 MLOAD PUSH2 0x836 SWAP4 SWAP3 SWAP2 SWAP1 PUSH2 0x1354 JUMP JUMPDEST PUSH1 0x40 MLOAD DUP1 SWAP2 SUB SWAP1 LOG1 DUP1 SWAP3 POP POP POP SWAP6 SWAP5 POP POP POP POP POP JUMP JUMPDEST PUSH1 0x0 DUP1 DUP7 SWAP1 POP PUSH1 0x0 PUSH1 0xA PUSH1 0x0 DUP10 PUSH20 0xFFFFFFFFFFFFFFFFFFFFFFFFFFFFFFFFFFFFFFFF AND PUSH20 0xFFFFFFFFFFFFFFFFFFFFFFFFFFFFFFFFFFFFFFFF AND DUP2 MSTORE PUSH1 0x20 ADD SWAP1 DUP2 MSTORE PUSH1 0x20 ADD PUSH1 0x0 KECCAK256 SLOAD SWAP1 POP PUSH1 0x0 PUSH2 0x8CD DUP4 DUP4 ADDRESS DUP12 PUSH1 0x40 MLOAD PUSH1 0x20 ADD PUSH2 0x8B2 SWAP5 SWAP4 SWAP3 SWAP2 SWAP1 PUSH2 0x128A JUMP JUMPDEST PUSH1 0x40 MLOAD PUSH1 0x20 DUP2 DUP4 SUB SUB DUP2 MSTORE SWAP1 PUSH1 0x40 MSTORE DUP1 MLOAD SWAP1 PUSH1 0x20 ADD KECCAK256 PUSH2 0xB92 JUMP JUMPDEST SWAP1 POP PUSH1 0x0 PUSH1 0x1 DUP3 DUP8 DUP11 DUP11 PUSH1 0x40 MLOAD PUSH1 0x0 DUP2 MSTORE PUSH1 0x20 ADD PUSH1 0x40 MSTORE PUSH1 0x40 MLOAD PUSH2 0x8F4 SWAP5 SWAP4 SWAP3 SWAP2 SWAP1 PUSH2 0x1400 JUMP JUMPDEST PUSH1 0x20 PUSH1 0x40 MLOAD PUSH1 0x20 DUP2 SUB SWAP1 DUP1 DUP5 SUB SWAP1 DUP6 GAS STATICCALL ISZERO DUP1 ISZERO PUSH2 0x916 JUMPI RETURNDATASIZE PUSH1 0x0 DUP1 RETURNDATACOPY RETURNDATASIZE PUSH1 0x0 REVERT JUMPDEST POP POP POP PUSH1 0x20 PUSH1 0x40 MLOAD SUB MLOAD SWAP1 POP DUP10 PUSH20 0xFFFFFFFFFFFFFFFFFFFFFFFFFFFFFFFFFFFFFFFF AND DUP2 PUSH20 0xFFFFFFFFFFFFFFFFFFFFFFFFFFFFFFFFFFFFFFFF AND EQ SWAP5 POP POP POP POP POP SWAP6 SWAP5 POP POP POP POP POP JUMP JUMPDEST PUSH1 0x0 PUSH1 0x2 PUSH1 0x0 SWAP1 SLOAD SWAP1 PUSH2 0x100 EXP SWAP1 DIV PUSH1 0xFF AND SWAP1 POP SWAP1 JUMP JUMPDEST PUSH2 0x97F PUSH2 0xBC2 JUMP JUMPDEST PUSH2 0x989 PUSH1 0x0 PUSH2 0xC40 JUMP JUMPDEST JUMP JUMPDEST PUSH1 0xA PUSH1 0x20 MSTORE DUP1 PUSH1 0x0 MSTORE PUSH1 0x40 PUSH1 0x0 KECCAK256 PUSH1 0x0 SWAP2 POP SWAP1 POP SLOAD DUP2 JUMP JUMPDEST PUSH1 0x4 SLOAD DUP2 JUMP JUMPDEST PUSH1 0x0 DUP1 PUSH1 0x0 SWAP1 SLOAD SWAP1 PUSH2 0x100 EXP SWAP1 DIV PUSH20 0xFFFFFFFFFFFFFFFFFFFFFFFFFFFFFFFFFFFFFFFF AND SWAP1 POP SWAP1 JUMP JUMPDEST PUSH1 0x9 SLOAD DUP2 JUMP JUMPDEST PUSH1 0x6 PUSH1 0x0 SWAP1 SLOAD SWAP1 PUSH2 0x100 EXP SWAP1 DIV PUSH20 0xFFFFFFFFFFFFFFFFFFFFFFFFFFFFFFFFFFFFFFFF AND DUP2 JUMP JUMPDEST PUSH1 0x5 SLOAD DUP2 JUMP JUMPDEST PUSH1 0x8 PUSH1 0x20 MSTORE DUP1 PUSH1 0x0 MSTORE PUSH1 0x40 PUSH1 0x0 KECCAK256 PUSH1 0x0 SWAP2 POP SWAP1 POP DUP1 PUSH1 0x0 ADD PUSH1 0x0 SWAP1 SLOAD SWAP1 PUSH2 0x100 EXP SWAP1 DIV PUSH20 0xFFFFFFFFFFFFFFFFFFFFFFFFFFFFFFFFFFFFFFFF AND SWAP1 DUP1 PUSH1 0x1 ADD SLOAD SWAP1 DUP1 PUSH1 0x2 ADD PUSH1 0x0 SWAP1 SLOAD SWAP1 PUSH2 0x100 EXP SWAP1 DIV PUSH20 0xFFFFFFFFFFFFFFFFFFFFFFFFFFFFFFFFFFFFFFFF AND SWAP1 DUP1 PUSH1 0x3 ADD SLOAD SWAP1 DUP1 PUSH1 0x4 ADD SLOAD SWAP1 POP DUP6 JUMP JUMPDEST PUSH1 0x3 DUP2 DUP2 SLOAD DUP2 LT PUSH2 0xA8A JUMPI PUSH1 0x0 DUP1 REVERT JUMPDEST SWAP1 PUSH1 0x0 MSTORE PUSH1 0x20 PUSH1 0x0 KECCAK256 ADD PUSH1 0x0 SWAP2 POP SWAP1 POP SLOAD DUP2 JUMP JUMPDEST PUSH1 0x7 PUSH1 0x0 SWAP1 SLOAD SWAP1 PUSH2 0x100 EXP SWAP1 DIV PUSH20 0xFFFFFFFFFFFFFFFFFFFFFFFFFFFFFFFFFFFFFFFF AND DUP2 JUMP JUMPDEST PUSH2 0xACC PUSH2 0xBC2 JUMP JUMPDEST PUSH1 0x0 PUSH20 0xFFFFFFFFFFFFFFFFFFFFFFFFFFFFFFFFFFFFFFFF AND DUP2 PUSH20 0xFFFFFFFFFFFFFFFFFFFFFFFFFFFFFFFFFFFFFFFF AND EQ ISZERO PUSH2 0xB3C JUMPI PUSH1 0x40 MLOAD PUSH32 0x8C379A000000000000000000000000000000000000000000000000000000000 DUP2 MSTORE PUSH1 0x4 ADD PUSH2 0xB33 SWAP1 PUSH2 0x1487 JUMP JUMPDEST PUSH1 0x40 MLOAD DUP1 SWAP2 SUB SWAP1 REVERT JUMPDEST PUSH2 0xB45 DUP2 PUSH2 0xC40 JUMP JUMPDEST POP JUMP JUMPDEST PUSH2 0xB50 PUSH2 0x960 JUMP JUMPDEST ISZERO PUSH2 0xB90 JUMPI PUSH1 0x40 MLOAD PUSH32 0x8C379A000000000000000000000000000000000000000000000000000000000 DUP2 MSTORE PUSH1 0x4 ADD PUSH2 0xB87 SWAP1 PUSH2 0x14C7 JUMP JUMPDEST PUSH1 0x40 MLOAD DUP1 SWAP2 SUB SWAP1 REVERT JUMPDEST JUMP JUMPDEST PUSH1 0x0 DUP2 PUSH1 0x40 MLOAD PUSH1 0x20 ADD PUSH2 0xBA5 SWAP2 SWAP1 PUSH2 0x1313 JUMP JUMPDEST PUSH1 0x40 MLOAD PUSH1 0x20 DUP2 DUP4 SUB SUB DUP2 MSTORE SWAP1 PUSH1 0x40 MSTORE DUP1 MLOAD SWAP1 PUSH1 0x20 ADD KECCAK256 SWAP1 POP SWAP2 SWAP1 POP JUMP JUMPDEST PUSH2 0xBCA PUSH2 0xD04 JUMP JUMPDEST PUSH20 0xFFFFFFFFFFFFFFFFFFFFFFFFFFFFFFFFFFFFFFFF AND PUSH2 0xBE8 PUSH2 0x9A9 JUMP JUMPDEST PUSH20 0xFFFFFFFFFFFFFFFFFFFFFFFFFFFFFFFFFFFFFFFF AND EQ PUSH2 0xC3E JUMPI PUSH1 0x40 MLOAD PUSH32 0x8C379A000000000000000000000000000000000000000000000000000000000 DUP2 MSTORE PUSH1 0x4 ADD PUSH2 0xC35 SWAP1 PUSH2 0x14E7 JUMP JUMPDEST PUSH1 0x40 MLOAD DUP1 SWAP2 SUB SWAP1 REVERT JUMPDEST JUMP JUMPDEST PUSH1 0x0 DUP1 PUSH1 0x0 SWAP1 SLOAD SWAP1 PUSH2 0x100 EXP SWAP1 DIV PUSH20 0xFFFFFFFFFFFFFFFFFFFFFFFFFFFFFFFFFFFFFFFF AND SWAP1 POP DUP2 PUSH1 0x0 DUP1 PUSH2 0x100 EXP DUP2 SLOAD DUP2 PUSH20 0xFFFFFFFFFFFFFFFFFFFFFFFFFFFFFFFFFFFFFFFF MUL NOT AND SWAP1 DUP4 PUSH20 0xFFFFFFFFFFFFFFFFFFFFFFFFFFFFFFFFFFFFFFFF AND MUL OR SWAP1 SSTORE POP DUP2 PUSH20 0xFFFFFFFFFFFFFFFFFFFFFFFFFFFFFFFFFFFFFFFF AND DUP2 PUSH20 0xFFFFFFFFFFFFFFFFFFFFFFFFFFFFFFFFFFFFFFFF AND PUSH32 0x8BE0079C531659141344CD1FD0A4F28419497F9722A3DAAFE3B4186F6B6457E0 PUSH1 0x40 MLOAD PUSH1 0x40 MLOAD DUP1 SWAP2 SUB SWAP1 LOG3 POP POP JUMP JUMPDEST PUSH1 0x0 CALLER SWAP1 POP SWAP1 JUMP JUMPDEST PUSH1 0x0 PUSH2 0xD1F PUSH2 0xD1A DUP5 PUSH2 0x15AA JUMP JUMPDEST PUSH2 0x1579 JUMP JUMPDEST SWAP1 POP DUP3 DUP2 MSTORE PUSH1 0x20 DUP2 ADD DUP5 DUP5 DUP5 ADD GT ISZERO PUSH2 0xD37 JUMPI PUSH1 0x0 DUP1 REVERT JUMPDEST PUSH2 0xD42 DUP5 DUP3 DUP6 PUSH2 0x1708 JUMP JUMPDEST POP SWAP4 SWAP3 POP POP POP JUMP JUMPDEST PUSH1 0x0 DUP2 CALLDATALOAD SWAP1 POP PUSH2 0xD59 DUP2 PUSH2 0x1847 JUMP JUMPDEST SWAP3 SWAP2 POP POP JUMP JUMPDEST PUSH1 0x0 DUP2 MLOAD SWAP1 POP PUSH2 0xD6E DUP2 PUSH2 0x1847 JUMP JUMPDEST SWAP3 SWAP2 POP POP JUMP JUMPDEST PUSH1 0x0 DUP2 CALLDATALOAD SWAP1 POP PUSH2 0xD83 DUP2 PUSH2 0x185E JUMP JUMPDEST SWAP3 SWAP2 POP POP JUMP JUMPDEST PUSH1 0x0 DUP3 PUSH1 0x1F DUP4 ADD SLT PUSH2 0xD9A JUMPI PUSH1 0x0 DUP1 REVERT JUMPDEST DUP2 CALLDATALOAD PUSH2 0xDAA DUP5 DUP3 PUSH1 0x20 DUP7 ADD PUSH2 0xD0C JUMP JUMPDEST SWAP2 POP POP SWAP3 SWAP2 POP POP JUMP JUMPDEST PUSH1 0x0 DUP2 CALLDATALOAD SWAP1 POP PUSH2 0xDC2 DUP2 PUSH2 0x1875 JUMP JUMPDEST SWAP3 SWAP2 POP POP JUMP JUMPDEST PUSH1 0x0 DUP2 CALLDATALOAD SWAP1 POP PUSH2 0xDD7 DUP2 PUSH2 0x188C JUMP JUMPDEST SWAP3 SWAP2 POP POP JUMP JUMPDEST PUSH1 0x0 PUSH1 0x20 DUP3 DUP5 SUB SLT ISZERO PUSH2 0xDEF JUMPI PUSH1 0x0 DUP1 REVERT JUMPDEST PUSH1 0x0 PUSH2 0xDFD DUP5 DUP3 DUP6 ADD PUSH2 0xD4A JUMP JUMPDEST SWAP2 POP POP SWAP3 SWAP2 POP POP JUMP JUMPDEST PUSH1 0x0 PUSH1 0x20 DUP3 DUP5 SUB SLT ISZERO PUSH2 0xE18 JUMPI PUSH1 0x0 DUP1 REVERT JUMPDEST PUSH1 0x0 PUSH2 0xE26 DUP5 DUP3 DUP6 ADD PUSH2 0xD5F JUMP JUMPDEST SWAP2 POP POP SWAP3 SWAP2 POP POP JUMP JUMPDEST PUSH1 0x0 DUP1 PUSH1 0x0 DUP1 PUSH1 0x0 PUSH1 0xA0 DUP7 DUP9 SUB SLT ISZERO PUSH2 0xE47 JUMPI PUSH1 0x0 DUP1 REVERT JUMPDEST PUSH1 0x0 PUSH2 0xE55 DUP9 DUP3 DUP10 ADD PUSH2 0xD4A JUMP JUMPDEST SWAP6 POP POP PUSH1 0x20 DUP7 ADD CALLDATALOAD PUSH8 0xFFFFFFFFFFFFFFFF DUP2 GT ISZERO PUSH2 0xE72 JUMPI PUSH1 0x0 DUP1 REVERT JUMPDEST PUSH2 0xE7E DUP9 DUP3 DUP10 ADD PUSH2 0xD89 JUMP JUMPDEST SWAP5 POP POP PUSH1 0x40 PUSH2 0xE8F DUP9 DUP3 DUP10 ADD PUSH2 0xD74 JUMP JUMPDEST SWAP4 POP POP PUSH1 0x60 PUSH2 0xEA0 DUP9 DUP3 DUP10 ADD PUSH2 0xD74 JUMP JUMPDEST SWAP3 POP POP PUSH1 0x80 PUSH2 0xEB1 DUP9 DUP3 DUP10 ADD PUSH2 0xDC8 JUMP JUMPDEST SWAP2 POP POP SWAP3 SWAP6 POP SWAP3 SWAP6 SWAP1 SWAP4 POP JUMP JUMPDEST PUSH1 0x0 DUP1 PUSH1 0x0 DUP1 PUSH1 0x0 PUSH1 0xA0 DUP7 DUP9 SUB SLT ISZERO PUSH2 0xED6 JUMPI PUSH1 0x0 DUP1 REVERT JUMPDEST PUSH1 0x0 PUSH2 0xEE4 DUP9 DUP3 DUP10 ADD PUSH2 0xD4A JUMP JUMPDEST SWAP6 POP POP PUSH1 0x20 PUSH2 0xEF5 DUP9 DUP3 DUP10 ADD PUSH2 0xDB3 JUMP JUMPDEST SWAP5 POP POP PUSH1 0x40 PUSH2 0xF06 DUP9 DUP3 DUP10 ADD PUSH2 0xDB3 JUMP JUMPDEST SWAP4 POP POP PUSH1 0x60 PUSH2 0xF17 DUP9 DUP3 DUP10 ADD PUSH2 0xDB3 JUMP JUMPDEST SWAP3 POP POP PUSH1 0x80 PUSH2 0xF28 DUP9 DUP3 DUP10 ADD PUSH2 0xD4A JUMP JUMPDEST SWAP2 POP POP SWAP3 SWAP6 POP SWAP3 SWAP6 SWAP1 SWAP4 POP JUMP JUMPDEST PUSH1 0x0 PUSH1 0x20 DUP3 DUP5 SUB SLT ISZERO PUSH2 0xF47 JUMPI PUSH1 0x0 DUP1 REVERT JUMPDEST PUSH1 0x0 PUSH2 0xF55 DUP5 DUP3 DUP6 ADD PUSH2 0xDB3 JUMP JUMPDEST SWAP2 POP POP SWAP3 SWAP2 POP POP JUMP JUMPDEST PUSH2 0xF67 DUP2 PUSH2 0x1685 JUMP JUMPDEST DUP3 MSTORE POP POP JUMP JUMPDEST PUSH2 0xF76 DUP2 PUSH2 0x1673 JUMP JUMPDEST DUP3 MSTORE POP POP JUMP JUMPDEST PUSH2 0xF8D PUSH2 0xF88 DUP3 PUSH2 0x1673 JUMP JUMPDEST PUSH2 0x1793 JUMP JUMPDEST DUP3 MSTORE POP POP JUMP JUMPDEST PUSH2 0xF9C DUP2 PUSH2 0x1697 JUMP JUMPDEST DUP3 MSTORE POP POP JUMP JUMPDEST PUSH2 0xFAB DUP2 PUSH2 0x16A3 JUMP JUMPDEST DUP3 MSTORE POP POP JUMP JUMPDEST PUSH2 0xFC2 PUSH2 0xFBD DUP3 PUSH2 0x16A3 JUMP JUMPDEST PUSH2 0x17A5 JUMP JUMPDEST DUP3 MSTORE POP POP JUMP JUMPDEST PUSH1 0x0 PUSH2 0xFD3 DUP3 PUSH2 0x15DA JUMP JUMPDEST PUSH2 0xFDD DUP2 DUP6 PUSH2 0x15E5 JUMP JUMPDEST SWAP4 POP PUSH2 0xFED DUP2 DUP6 PUSH1 0x20 DUP7 ADD PUSH2 0x1717 JUMP JUMPDEST PUSH2 0xFF6 DUP2 PUSH2 0x1829 JUMP JUMPDEST DUP5 ADD SWAP2 POP POP SWAP3 SWAP2 POP POP JUMP JUMPDEST PUSH1 0x0 PUSH2 0x100C DUP3 PUSH2 0x15DA JUMP JUMPDEST PUSH2 0x1016 DUP2 DUP6 PUSH2 0x15F6 JUMP JUMPDEST SWAP4 POP PUSH2 0x1026 DUP2 DUP6 PUSH1 0x20 DUP7 ADD PUSH2 0x1717 JUMP JUMPDEST DUP1 DUP5 ADD SWAP2 POP POP SWAP3 SWAP2 POP POP JUMP JUMPDEST PUSH2 0x1043 PUSH2 0x103E DUP3 PUSH2 0x16E4 JUMP JUMPDEST PUSH2 0x1793 JUMP JUMPDEST DUP3 MSTORE POP POP JUMP JUMPDEST PUSH1 0x0 PUSH2 0x1056 PUSH1 0x14 DUP4 PUSH2 0x1601 JUMP JUMPDEST SWAP2 POP PUSH32 0x46756E6374696F6E2063616C6C206661696C6564000000000000000000000000 PUSH1 0x0 DUP4 ADD MSTORE PUSH1 0x20 DUP3 ADD SWAP1 POP SWAP2 SWAP1 POP JUMP JUMPDEST PUSH1 0x0 PUSH2 0x1096 PUSH1 0x1C DUP4 PUSH2 0x1612 JUMP JUMPDEST SWAP2 POP PUSH32 0x19457468657265756D205369676E6564204D6573736167653A0A333200000000 PUSH1 0x0 DUP4 ADD MSTORE PUSH1 0x1C DUP3 ADD SWAP1 POP SWAP2 SWAP1 POP JUMP JUMPDEST PUSH1 0x0 PUSH2 0x10D6 PUSH1 0x26 DUP4 PUSH2 0x1601 JUMP JUMPDEST SWAP2 POP PUSH32 0x4F776E61626C653A206E6577206F776E657220697320746865207A65726F2061 PUSH1 0x0 DUP4 ADD MSTORE PUSH32 0x6464726573730000000000000000000000000000000000000000000000000000 PUSH1 0x20 DUP4 ADD MSTORE PUSH1 0x40 DUP3 ADD SWAP1 POP SWAP2 SWAP1 POP JUMP JUMPDEST PUSH1 0x0 PUSH2 0x113C PUSH1 0x20 DUP4 PUSH2 0x1601 JUMP JUMPDEST SWAP2 POP PUSH32 0x596F75206D757374206F776E20746865204E465420746F206C6973742069742E PUSH1 0x0 DUP4 ADD MSTORE PUSH1 0x20 DUP3 ADD SWAP1 POP SWAP2 SWAP1 POP JUMP JUMPDEST PUSH1 0x0 PUSH2 0x117C PUSH1 0x10 DUP4 PUSH2 0x1601 JUMP JUMPDEST SWAP2 POP PUSH32 0x5061757361626C653A2070617573656400000000000000000000000000000000 PUSH1 0x0 DUP4 ADD MSTORE PUSH1 0x20 DUP3 ADD SWAP1 POP SWAP2 SWAP1 POP JUMP JUMPDEST PUSH1 0x0 PUSH2 0x11BC PUSH1 0x20 DUP4 PUSH2 0x1601 JUMP JUMPDEST SWAP2 POP PUSH32 0x4F776E61626C653A2063616C6C6572206973206E6F7420746865206F776E6572 PUSH1 0x0 DUP4 ADD MSTORE PUSH1 0x20 DUP3 ADD SWAP1 POP SWAP2 SWAP1 POP JUMP JUMPDEST PUSH1 0x0 PUSH2 0x11FC PUSH1 0x21 DUP4 PUSH2 0x1601 JUMP JUMPDEST SWAP2 POP PUSH32 0x5369676E657220616E64207369676E617475726520646F206E6F74206D617463 PUSH1 0x0 DUP4 ADD MSTORE PUSH32 0x6800000000000000000000000000000000000000000000000000000000000000 PUSH1 0x20 DUP4 ADD MSTORE PUSH1 0x40 DUP3 ADD SWAP1 POP SWAP2 SWAP1 POP JUMP JUMPDEST PUSH2 0x125E DUP2 PUSH2 0x16CD JUMP JUMPDEST DUP3 MSTORE POP POP JUMP JUMPDEST PUSH2 0x1275 PUSH2 0x1270 DUP3 PUSH2 0x16CD JUMP JUMPDEST PUSH2 0x17C1 JUMP JUMPDEST DUP3 MSTORE POP POP JUMP JUMPDEST PUSH2 0x1284 DUP2 PUSH2 0x16D7 JUMP JUMPDEST DUP3 MSTORE POP POP JUMP JUMPDEST PUSH1 0x0 PUSH2 0x1296 DUP3 DUP8 PUSH2 0xF7C JUMP JUMPDEST PUSH1 0x14 DUP3 ADD SWAP2 POP PUSH2 0x12A6 DUP3 DUP7 PUSH2 0x1264 JUMP JUMPDEST PUSH1 0x20 DUP3 ADD SWAP2 POP PUSH2 0x12B6 DUP3 DUP6 PUSH2 0x1032 JUMP JUMPDEST PUSH1 0x14 DUP3 ADD SWAP2 POP PUSH2 0x12C6 DUP3 DUP5 PUSH2 0x1001 JUMP JUMPDEST SWAP2 POP DUP2 SWAP1 POP SWAP6 SWAP5 POP POP POP POP POP JUMP JUMPDEST PUSH1 0x0 PUSH2 0x12E0 DUP3 DUP5 PUSH2 0x1001 JUMP JUMPDEST SWAP2 POP DUP2 SWAP1 POP SWAP3 SWAP2 POP POP JUMP JUMPDEST PUSH1 0x0 PUSH2 0x12F7 DUP3 DUP6 PUSH2 0x1001 JUMP JUMPDEST SWAP2 POP PUSH2 0x1303 DUP3 DUP5 PUSH2 0xF7C JUMP JUMPDEST PUSH1 0x14 DUP3 ADD SWAP2 POP DUP2 SWAP1 POP SWAP4 SWAP3 POP POP POP JUMP JUMPDEST PUSH1 0x0 PUSH2 0x131E DUP3 PUSH2 0x1089 JUMP JUMPDEST SWAP2 POP PUSH2 0x132A DUP3 DUP5 PUSH2 0xFB1 JUMP JUMPDEST PUSH1 0x20 DUP3 ADD SWAP2 POP DUP2 SWAP1 POP SWAP3 SWAP2 POP POP JUMP JUMPDEST PUSH1 0x0 PUSH1 0x20 DUP3 ADD SWAP1 POP PUSH2 0x134E PUSH1 0x0 DUP4 ADD DUP5 PUSH2 0xF6D JUMP JUMPDEST SWAP3 SWAP2 POP POP JUMP JUMPDEST PUSH1 0x0 PUSH1 0x60 DUP3 ADD SWAP1 POP PUSH2 0x1369 PUSH1 0x0 DUP4 ADD DUP7 PUSH2 0xF6D JUMP JUMPDEST PUSH2 0x1376 PUSH1 0x20 DUP4 ADD DUP6 PUSH2 0xF5E JUMP JUMPDEST DUP2 DUP2 SUB PUSH1 0x40 DUP4 ADD MSTORE PUSH2 0x1388 DUP2 DUP5 PUSH2 0xFC8 JUMP JUMPDEST SWAP1 POP SWAP5 SWAP4 POP POP POP POP JUMP JUMPDEST PUSH1 0x0 PUSH1 0xA0 DUP3 ADD SWAP1 POP PUSH2 0x13A7 PUSH1 0x0 DUP4 ADD DUP9 PUSH2 0xF6D JUMP JUMPDEST PUSH2 0x13B4 PUSH1 0x20 DUP4 ADD DUP8 PUSH2 0x1255 JUMP JUMPDEST PUSH2 0x13C1 PUSH1 0x40 DUP4 ADD DUP7 PUSH2 0xF6D JUMP JUMPDEST PUSH2 0x13CE PUSH1 0x60 DUP4 ADD DUP6 PUSH2 0x1255 JUMP JUMPDEST PUSH2 0x13DB PUSH1 0x80 DUP4 ADD DUP5 PUSH2 0x1255 JUMP JUMPDEST SWAP7 SWAP6 POP POP POP POP POP POP JUMP JUMPDEST PUSH1 0x0 PUSH1 0x20 DUP3 ADD SWAP1 POP PUSH2 0x13FA PUSH1 0x0 DUP4 ADD DUP5 PUSH2 0xF93 JUMP JUMPDEST SWAP3 SWAP2 POP POP JUMP JUMPDEST PUSH1 0x0 PUSH1 0x80 DUP3 ADD SWAP1 POP PUSH2 0x1415 PUSH1 0x0 DUP4 ADD DUP8 PUSH2 0xFA2 JUMP JUMPDEST PUSH2 0x1422 PUSH1 0x20 DUP4 ADD DUP7 PUSH2 0x127B JUMP JUMPDEST PUSH2 0x142F PUSH1 0x40 DUP4 ADD DUP6 PUSH2 0xFA2 JUMP JUMPDEST PUSH2 0x143C PUSH1 0x60 DUP4 ADD DUP5 PUSH2 0xFA2 JUMP JUMPDEST SWAP6 SWAP5 POP POP POP POP POP JUMP JUMPDEST PUSH1 0x0 PUSH1 0x20 DUP3 ADD SWAP1 POP DUP2 DUP2 SUB PUSH1 0x0 DUP4 ADD MSTORE PUSH2 0x145F DUP2 DUP5 PUSH2 0xFC8 JUMP JUMPDEST SWAP1 POP SWAP3 SWAP2 POP POP JUMP JUMPDEST PUSH1 0x0 PUSH1 0x20 DUP3 ADD SWAP1 POP DUP2 DUP2 SUB PUSH1 0x0 DUP4 ADD MSTORE PUSH2 0x1480 DUP2 PUSH2 0x1049 JUMP JUMPDEST SWAP1 POP SWAP2 SWAP1 POP JUMP JUMPDEST PUSH1 0x0 PUSH1 0x20 DUP3 ADD SWAP1 POP DUP2 DUP2 SUB PUSH1 0x0 DUP4 ADD MSTORE PUSH2 0x14A0 DUP2 PUSH2 0x10C9 JUMP JUMPDEST SWAP1 POP SWAP2 SWAP1 POP JUMP JUMPDEST PUSH1 0x0 PUSH1 0x20 DUP3 ADD SWAP1 POP DUP2 DUP2 SUB PUSH1 0x0 DUP4 ADD MSTORE PUSH2 0x14C0 DUP2 PUSH2 0x112F JUMP JUMPDEST SWAP1 POP SWAP2 SWAP1 POP JUMP JUMPDEST PUSH1 0x0 PUSH1 0x20 DUP3 ADD SWAP1 POP DUP2 DUP2 SUB PUSH1 0x0 DUP4 ADD MSTORE PUSH2 0x14E0 DUP2 PUSH2 0x116F JUMP JUMPDEST SWAP1 POP SWAP2 SWAP1 POP JUMP JUMPDEST PUSH1 0x0 PUSH1 0x20 DUP3 ADD SWAP1 POP DUP2 DUP2 SUB PUSH1 0x0 DUP4 ADD MSTORE PUSH2 0x1500 DUP2 PUSH2 0x11AF JUMP JUMPDEST SWAP1 POP SWAP2 SWAP1 POP JUMP JUMPDEST PUSH1 0x0 PUSH1 0x20 DUP3 ADD SWAP1 POP DUP2 DUP2 SUB PUSH1 0x0 DUP4 ADD MSTORE PUSH2 0x1520 DUP2 PUSH2 0x11EF JUMP JUMPDEST SWAP1 POP SWAP2 SWAP1 POP JUMP JUMPDEST PUSH1 0x0 PUSH1 0x20 DUP3 ADD SWAP1 POP PUSH2 0x153C PUSH1 0x0 DUP4 ADD DUP5 PUSH2 0x1255 JUMP JUMPDEST SWAP3 SWAP2 POP POP JUMP JUMPDEST PUSH1 0x0 PUSH1 0x60 DUP3 ADD SWAP1 POP PUSH2 0x1557 PUSH1 0x0 DUP4 ADD DUP7 PUSH2 0x1255 JUMP JUMPDEST PUSH2 0x1564 PUSH1 0x20 DUP4 ADD DUP6 PUSH2 0x1255 JUMP JUMPDEST PUSH2 0x1571 PUSH1 0x40 DUP4 ADD DUP5 PUSH2 0x1255 JUMP JUMPDEST SWAP5 SWAP4 POP POP POP POP JUMP JUMPDEST PUSH1 0x0 PUSH1 0x40 MLOAD SWAP1 POP DUP2 DUP2 ADD DUP2 DUP2 LT PUSH8 0xFFFFFFFFFFFFFFFF DUP3 GT OR ISZERO PUSH2 0x15A0 JUMPI PUSH2 0x159F PUSH2 0x17FA JUMP JUMPDEST JUMPDEST DUP1 PUSH1 0x40 MSTORE POP SWAP2 SWAP1 POP JUMP JUMPDEST PUSH1 0x0 PUSH8 0xFFFFFFFFFFFFFFFF DUP3 GT ISZERO PUSH2 0x15C5 JUMPI PUSH2 0x15C4 PUSH2 0x17FA JUMP JUMPDEST JUMPDEST PUSH1 0x1F NOT PUSH1 0x1F DUP4 ADD AND SWAP1 POP PUSH1 0x20 DUP2 ADD SWAP1 POP SWAP2 SWAP1 POP JUMP JUMPDEST PUSH1 0x0 DUP2 MLOAD SWAP1 POP SWAP2 SWAP1 POP JUMP JUMPDEST PUSH1 0x0 DUP3 DUP3 MSTORE PUSH1 0x20 DUP3 ADD SWAP1 POP SWAP3 SWAP2 POP POP JUMP JUMPDEST PUSH1 0x0 DUP2 SWAP1 POP SWAP3 SWAP2 POP POP JUMP JUMPDEST PUSH1 0x0 DUP3 DUP3 MSTORE PUSH1 0x20 DUP3 ADD SWAP1 POP SWAP3 SWAP2 POP POP JUMP JUMPDEST PUSH1 0x0 DUP2 SWAP1 POP SWAP3 SWAP2 POP POP JUMP JUMPDEST PUSH1 0x0 PUSH2 0x1628 DUP3 PUSH2 0x16CD JUMP JUMPDEST SWAP2 POP PUSH2 0x1633 DUP4 PUSH2 0x16CD JUMP JUMPDEST SWAP3 POP DUP3 PUSH32 0xFFFFFFFFFFFFFFFFFFFFFFFFFFFFFFFFFFFFFFFFFFFFFFFFFFFFFFFFFFFFFFFF SUB DUP3 GT ISZERO PUSH2 0x1668 JUMPI PUSH2 0x1667 PUSH2 0x17CB JUMP JUMPDEST JUMPDEST DUP3 DUP3 ADD SWAP1 POP SWAP3 SWAP2 POP POP JUMP JUMPDEST PUSH1 0x0 PUSH2 0x167E DUP3 PUSH2 0x16AD JUMP JUMPDEST SWAP1 POP SWAP2 SWAP1 POP JUMP JUMPDEST PUSH1 0x0 PUSH2 0x1690 DUP3 PUSH2 0x16AD JUMP JUMPDEST SWAP1 POP SWAP2 SWAP1 POP JUMP JUMPDEST PUSH1 0x0 DUP2 ISZERO ISZERO SWAP1 POP SWAP2 SWAP1 POP JUMP JUMPDEST PUSH1 0x0 DUP2 SWAP1 POP SWAP2 SWAP1 POP JUMP JUMPDEST PUSH1 0x0 PUSH20 0xFFFFFFFFFFFFFFFFFFFFFFFFFFFFFFFFFFFFFFFF DUP3 AND SWAP1 POP SWAP2 SWAP1 POP JUMP JUMPDEST PUSH1 0x0 DUP2 SWAP1 POP SWAP2 SWAP1 POP JUMP JUMPDEST PUSH1 0x0 PUSH1 0xFF DUP3 AND SWAP1 POP SWAP2 SWAP1 POP JUMP JUMPDEST PUSH1 0x0 PUSH2 0x16EF DUP3 PUSH2 0x16F6 JUMP JUMPDEST SWAP1 POP SWAP2 SWAP1 POP JUMP JUMPDEST PUSH1 0x0 PUSH2 0x1701 DUP3 PUSH2 0x16AD JUMP JUMPDEST SWAP1 POP SWAP2 SWAP1 POP JUMP JUMPDEST DUP3 DUP2 DUP4 CALLDATACOPY PUSH1 0x0 DUP4 DUP4 ADD MSTORE POP POP POP JUMP JUMPDEST PUSH1 0x0 JUMPDEST DUP4 DUP2 LT ISZERO PUSH2 0x1735 JUMPI DUP1 DUP3 ADD MLOAD DUP2 DUP5 ADD MSTORE PUSH1 0x20 DUP2 ADD SWAP1 POP PUSH2 0x171A JUMP JUMPDEST DUP4 DUP2 GT ISZERO PUSH2 0x1744 JUMPI PUSH1 0x0 DUP5 DUP5 ADD MSTORE JUMPDEST POP POP POP POP JUMP JUMPDEST PUSH1 0x0 PUSH2 0x1755 DUP3 PUSH2 0x16CD JUMP JUMPDEST SWAP2 POP PUSH32 0xFFFFFFFFFFFFFFFFFFFFFFFFFFFFFFFFFFFFFFFFFFFFFFFFFFFFFFFFFFFFFFFF DUP3 EQ ISZERO PUSH2 0x1788 JUMPI PUSH2 0x1787 PUSH2 0x17CB JUMP JUMPDEST JUMPDEST PUSH1 0x1 DUP3 ADD SWAP1 POP SWAP2 SWAP1 POP JUMP JUMPDEST PUSH1 0x0 PUSH2 0x179E DUP3 PUSH2 0x17AF JUMP JUMPDEST SWAP1 POP SWAP2 SWAP1 POP JUMP JUMPDEST PUSH1 0x0 DUP2 SWAP1 POP SWAP2 SWAP1 POP JUMP JUMPDEST PUSH1 0x0 PUSH2 0x17BA DUP3 PUSH2 0x183A JUMP JUMPDEST SWAP1 POP SWAP2 SWAP1 POP JUMP JUMPDEST PUSH1 0x0 DUP2 SWAP1 POP SWAP2 SWAP1 POP JUMP JUMPDEST PUSH32 0x4E487B7100000000000000000000000000000000000000000000000000000000 PUSH1 0x0 MSTORE PUSH1 0x11 PUSH1 0x4 MSTORE PUSH1 0x24 PUSH1 0x0 REVERT JUMPDEST PUSH32 0x4E487B7100000000000000000000000000000000000000000000000000000000 PUSH1 0x0 MSTORE PUSH1 0x41 PUSH1 0x4 MSTORE PUSH1 0x24 PUSH1 0x0 REVERT JUMPDEST PUSH1 0x0 PUSH1 0x1F NOT PUSH1 0x1F DUP4 ADD AND SWAP1 POP SWAP2 SWAP1 POP JUMP JUMPDEST PUSH1 0x0 DUP2 PUSH1 0x60 SHL SWAP1 POP SWAP2 SWAP1 POP JUMP JUMPDEST PUSH2 0x1850 DUP2 PUSH2 0x1673 JUMP JUMPDEST DUP2 EQ PUSH2 0x185B JUMPI PUSH1 0x0 DUP1 REVERT JUMPDEST POP JUMP JUMPDEST PUSH2 0x1867 DUP2 PUSH2 0x16A3 JUMP JUMPDEST DUP2 EQ PUSH2 0x1872 JUMPI PUSH1 0x0 DUP1 REVERT JUMPDEST POP JUMP JUMPDEST PUSH2 0x187E DUP2 PUSH2 0x16CD JUMP JUMPDEST DUP2 EQ PUSH2 0x1889 JUMPI PUSH1 0x0 DUP1 REVERT JUMPDEST POP JUMP JUMPDEST PUSH2 0x1895 DUP2 PUSH2 0x16D7 JUMP JUMPDEST DUP2 EQ PUSH2 0x18A0 JUMPI PUSH1 0x0 DUP1 REVERT JUMPDEST POP JUMP INVALID LOG2 PUSH5 0x6970667358 0x22 SLT KECCAK256 STOP PUSH16 0xECB051E5F543A9F9F38DAF770A1A9EEA 0xB9 DUP11 0xB6 PUSH30 0x7FA970CB5FFAAB340CE964736F6C63430008000033000000000000000000 "
				},
				"gasEstimates": {
					"creation": {
						"codeDepositCost": "1272200",
						"executionCost": "infinite",
						"totalCost": "infinite"
					},
					"external": {
						"activeListingIds(uint256)": "infinite",
						"executeMetaTransaction(address,bytes,bytes32,bytes32,uint8)": "infinite",
						"isSigner(address,bytes,bytes32,bytes32,uint8)": "infinite",
						"listNFT(address,uint256,uint256,uint256,address)": "infinite",
						"listings(uint256)": "infinite",
						"nextListingId()": "1174",
						"nonces(address)": "1581",
						"owner()": "1245",
						"paused()": "1202",
						"platformFeeAddress()": "1280",
						"platformFeePercentage()": "1218",
						"renounceOwnership()": "24443",
						"royaltyAddress()": "1281",
						"royaltyPercentage()": "1218",
						"transferOwnership(address)": "24835"
					},
					"internal": {
						"prefixed(bytes32)": "infinite"
					}
				},
				"methodIdentifiers": {
					"activeListingIds(uint256)": "e3b6a1f6",
					"executeMetaTransaction(address,bytes,bytes32,bytes32,uint8)": "0c53c51c",
					"isSigner(address,bytes,bytes32,bytes32,uint8)": "33929726",
					"listNFT(address,uint256,uint256,uint256,address)": "028ef312",
					"listings(uint256)": "de74e57b",
					"nextListingId()": "aaccf1ec",
					"nonces(address)": "7ecebe00",
					"owner()": "8da5cb5b",
					"paused()": "5c975abb",
					"platformFeeAddress()": "ed14834f",
					"platformFeePercentage()": "cdd78cfc",
					"renounceOwnership()": "715018a6",
					"royaltyAddress()": "ad2f852a",
					"royaltyPercentage()": "8a71bb2d",
					"transferOwnership(address)": "f2fde38b"
				}
			},
			"storageLayout": {
				"storage": [
					{
						"astId": 197,
						"contract": "venda_gassless_flattened.sol:NFTMarketplace",
						"label": "_owner",
						"offset": 0,
						"slot": "0",
						"type": "t_address"
					},
					{
						"astId": 10,
						"contract": "venda_gassless_flattened.sol:NFTMarketplace",
						"label": "_status",
						"offset": 0,
						"slot": "1",
						"type": "t_uint256"
					},
					{
						"astId": 101,
						"contract": "venda_gassless_flattened.sol:NFTMarketplace",
						"label": "_paused",
						"offset": 0,
						"slot": "2",
						"type": "t_bool"
					},
					{
						"astId": 448,
						"contract": "venda_gassless_flattened.sol:NFTMarketplace",
						"label": "activeListingIds",
						"offset": 0,
						"slot": "3",
						"type": "t_array(t_uint256)dyn_storage"
					},
					{
						"astId": 450,
						"contract": "venda_gassless_flattened.sol:NFTMarketplace",
						"label": "royaltyPercentage",
						"offset": 0,
						"slot": "4",
						"type": "t_uint256"
					},
					{
						"astId": 452,
						"contract": "venda_gassless_flattened.sol:NFTMarketplace",
						"label": "platformFeePercentage",
						"offset": 0,
						"slot": "5",
						"type": "t_uint256"
					},
					{
						"astId": 454,
						"contract": "venda_gassless_flattened.sol:NFTMarketplace",
						"label": "royaltyAddress",
						"offset": 0,
						"slot": "6",
						"type": "t_address"
					},
					{
						"astId": 456,
						"contract": "venda_gassless_flattened.sol:NFTMarketplace",
						"label": "platformFeeAddress",
						"offset": 0,
						"slot": "7",
						"type": "t_address"
					},
					{
						"astId": 461,
						"contract": "venda_gassless_flattened.sol:NFTMarketplace",
						"label": "listings",
						"offset": 0,
						"slot": "8",
						"type": "t_mapping(t_uint256,t_struct(Listing)445_storage)"
					},
					{
						"astId": 464,
						"contract": "venda_gassless_flattened.sol:NFTMarketplace",
						"label": "nextListingId",
						"offset": 0,
						"slot": "9",
						"type": "t_uint256"
					},
					{
						"astId": 468,
						"contract": "venda_gassless_flattened.sol:NFTMarketplace",
						"label": "nonces",
						"offset": 0,
						"slot": "10",
						"type": "t_mapping(t_address,t_uint256)"
					}
				],
				"types": {
					"t_address": {
						"encoding": "inplace",
						"label": "address",
						"numberOfBytes": "20"
					},
					"t_array(t_uint256)dyn_storage": {
						"base": "t_uint256",
						"encoding": "dynamic_array",
						"label": "uint256[]",
						"numberOfBytes": "32"
					},
					"t_bool": {
						"encoding": "inplace",
						"label": "bool",
						"numberOfBytes": "1"
					},
					"t_mapping(t_address,t_uint256)": {
						"encoding": "mapping",
						"key": "t_address",
						"label": "mapping(address => uint256)",
						"numberOfBytes": "32",
						"value": "t_uint256"
					},
					"t_mapping(t_uint256,t_struct(Listing)445_storage)": {
						"encoding": "mapping",
						"key": "t_uint256",
						"label": "mapping(uint256 => struct NFTMarketplace.Listing)",
						"numberOfBytes": "32",
						"value": "t_struct(Listing)445_storage"
					},
					"t_struct(Listing)445_storage": {
						"encoding": "inplace",
						"label": "struct NFTMarketplace.Listing",
						"members": [
							{
								"astId": 436,
								"contract": "venda_gassless_flattened.sol:NFTMarketplace",
								"label": "nftContractAddress",
								"offset": 0,
								"slot": "0",
								"type": "t_address"
							},
							{
								"astId": 438,
								"contract": "venda_gassless_flattened.sol:NFTMarketplace",
								"label": "nftId",
								"offset": 0,
								"slot": "1",
								"type": "t_uint256"
							},
							{
								"astId": 440,
								"contract": "venda_gassless_flattened.sol:NFTMarketplace",
								"label": "seller",
								"offset": 0,
								"slot": "2",
								"type": "t_address"
							},
							{
								"astId": 442,
								"contract": "venda_gassless_flattened.sol:NFTMarketplace",
								"label": "price",
								"offset": 0,
								"slot": "3",
								"type": "t_uint256"
							},
							{
								"astId": 444,
								"contract": "venda_gassless_flattened.sol:NFTMarketplace",
								"label": "deadline",
								"offset": 0,
								"slot": "4",
								"type": "t_uint256"
							}
						],
						"numberOfBytes": "160"
					},
					"t_uint256": {
						"encoding": "inplace",
						"label": "uint256",
						"numberOfBytes": "32"
					}
				}
			},
			"userdoc": {
				"kind": "user",
				"methods": {},
				"version": 1
			}
		}
	}
}