{
	"venda_8_21.sol": {
		"NFTMarketplace": {
			"abi": [
				{
					"inputs": [
						{
							"internalType": "uint256",
							"name": "_royaltyPercentage",
							"type": "uint256"
						},
						{
							"internalType": "uint256",
							"name": "_platformFeePercentage",
							"type": "uint256"
						},
						{
							"internalType": "address",
							"name": "_royaltyAddress",
							"type": "address"
						},
						{
							"internalType": "address",
							"name": "_platformFeeAddress",
							"type": "address"
						}
					],
					"stateMutability": "nonpayable",
					"type": "constructor"
				},
				{
					"anonymous": false,
					"inputs": [
						{
							"indexed": true,
							"internalType": "uint256",
							"name": "listingId",
							"type": "uint256"
						}
					],
					"name": "NFTDelisted",
					"type": "event"
				},
				{
					"anonymous": false,
					"inputs": [
						{
							"indexed": true,
							"internalType": "uint256",
							"name": "listingId",
							"type": "uint256"
						},
						{
							"indexed": true,
							"internalType": "address",
							"name": "seller",
							"type": "address"
						},
						{
							"indexed": true,
							"internalType": "address",
							"name": "nftContract",
							"type": "address"
						},
						{
							"indexed": false,
							"internalType": "uint256",
							"name": "nftId",
							"type": "uint256"
						},
						{
							"indexed": false,
							"internalType": "uint256",
							"name": "price",
							"type": "uint256"
						},
						{
							"indexed": false,
							"internalType": "uint256",
							"name": "deadline",
							"type": "uint256"
						}
					],
					"name": "NFTListed",
					"type": "event"
				},
				{
					"anonymous": false,
					"inputs": [
						{
							"indexed": true,
							"internalType": "uint256",
							"name": "listingId",
							"type": "uint256"
						},
						{
							"indexed": true,
							"internalType": "address",
							"name": "seller",
							"type": "address"
						},
						{
							"indexed": true,
							"internalType": "address",
							"name": "buyer",
							"type": "address"
						},
						{
							"indexed": false,
							"internalType": "uint256",
							"name": "price",
							"type": "uint256"
						}
					],
					"name": "NFTSold",
					"type": "event"
				},
				{
					"anonymous": false,
					"inputs": [
						{
							"indexed": true,
							"internalType": "address",
							"name": "previousOwner",
							"type": "address"
						},
						{
							"indexed": true,
							"internalType": "address",
							"name": "newOwner",
							"type": "address"
						}
					],
					"name": "OwnershipTransferred",
					"type": "event"
				},
				{
					"anonymous": false,
					"inputs": [
						{
							"indexed": false,
							"internalType": "address",
							"name": "account",
							"type": "address"
						}
					],
					"name": "Paused",
					"type": "event"
				},
				{
					"anonymous": false,
					"inputs": [
						{
							"indexed": false,
							"internalType": "address",
							"name": "account",
							"type": "address"
						}
					],
					"name": "Unpaused",
					"type": "event"
				},
				{
					"inputs": [
						{
							"internalType": "uint256",
							"name": "",
							"type": "uint256"
						}
					],
					"name": "activeListingIds",
					"outputs": [
						{
							"internalType": "uint256",
							"name": "",
							"type": "uint256"
						}
					],
					"stateMutability": "view",
					"type": "function"
				},
				{
					"inputs": [
						{
							"internalType": "uint256",
							"name": "_listingId",
							"type": "uint256"
						}
					],
					"name": "buyNFT",
					"outputs": [],
					"stateMutability": "payable",
					"type": "function"
				},
				{
					"inputs": [
						{
							"internalType": "uint256",
							"name": "_listingId",
							"type": "uint256"
						}
					],
					"name": "delistNFT",
					"outputs": [],
					"stateMutability": "nonpayable",
					"type": "function"
				},
				{
					"inputs": [
						{
							"internalType": "address",
							"name": "_nftContractAddress",
							"type": "address"
						},
						{
							"internalType": "uint256",
							"name": "_nftId",
							"type": "uint256"
						},
						{
							"internalType": "uint256",
							"name": "_price",
							"type": "uint256"
						},
						{
							"internalType": "uint256",
							"name": "_deadline",
							"type": "uint256"
						}
					],
					"name": "listNFT",
					"outputs": [],
					"stateMutability": "nonpayable",
					"type": "function"
				},
				{
					"inputs": [
						{
							"internalType": "uint256",
							"name": "",
							"type": "uint256"
						}
					],
					"name": "listings",
					"outputs": [
						{
							"internalType": "address",
							"name": "nftContractAddress",
							"type": "address"
						},
						{
							"internalType": "uint256",
							"name": "nftId",
							"type": "uint256"
						},
						{
							"internalType": "address",
							"name": "seller",
							"type": "address"
						},
						{
							"internalType": "uint256",
							"name": "price",
							"type": "uint256"
						},
						{
							"internalType": "uint256",
							"name": "deadline",
							"type": "uint256"
						}
					],
					"stateMutability": "view",
					"type": "function"
				},
				{
					"inputs": [],
					"name": "nextListingId",
					"outputs": [
						{
							"internalType": "uint256",
							"name": "",
							"type": "uint256"
						}
					],
					"stateMutability": "view",
					"type": "function"
				},
				{
					"inputs": [],
					"name": "owner",
					"outputs": [
						{
							"internalType": "address",
							"name": "",
							"type": "address"
						}
					],
					"stateMutability": "view",
					"type": "function"
				},
				{
					"inputs": [],
					"name": "pause",
					"outputs": [],
					"stateMutability": "nonpayable",
					"type": "function"
				},
				{
					"inputs": [],
					"name": "paused",
					"outputs": [
						{
							"internalType": "bool",
							"name": "",
							"type": "bool"
						}
					],
					"stateMutability": "view",
					"type": "function"
				},
				{
					"inputs": [],
					"name": "platformFeeAddress",
					"outputs": [
						{
							"internalType": "address",
							"name": "",
							"type": "address"
						}
					],
					"stateMutability": "view",
					"type": "function"
				},
				{
					"inputs": [],
					"name": "platformFeePercentage",
					"outputs": [
						{
							"internalType": "uint256",
							"name": "",
							"type": "uint256"
						}
					],
					"stateMutability": "view",
					"type": "function"
				},
				{
					"inputs": [],
					"name": "renounceOwnership",
					"outputs": [],
					"stateMutability": "nonpayable",
					"type": "function"
				},
				{
					"inputs": [],
					"name": "royaltyAddress",
					"outputs": [
						{
							"internalType": "address",
							"name": "",
							"type": "address"
						}
					],
					"stateMutability": "view",
					"type": "function"
				},
				{
					"inputs": [],
					"name": "royaltyPercentage",
					"outputs": [
						{
							"internalType": "uint256",
							"name": "",
							"type": "uint256"
						}
					],
					"stateMutability": "view",
					"type": "function"
				},
				{
					"inputs": [
						{
							"internalType": "address",
							"name": "newOwner",
							"type": "address"
						}
					],
					"name": "transferOwnership",
					"outputs": [],
					"stateMutability": "nonpayable",
					"type": "function"
				},
				{
					"inputs": [],
					"name": "unpause",
					"outputs": [],
					"stateMutability": "nonpayable",
					"type": "function"
				},
				{
					"inputs": [
						{
							"internalType": "address",
							"name": "_newRoyaltyAddress",
							"type": "address"
						},
						{
							"internalType": "address",
							"name": "_newPlatformFeeAddress",
							"type": "address"
						}
					],
					"name": "updateFeeAddresses",
					"outputs": [],
					"stateMutability": "nonpayable",
					"type": "function"
				},
				{
					"inputs": [
						{
							"internalType": "uint256",
							"name": "_newRoyaltyPercentage",
							"type": "uint256"
						},
						{
							"internalType": "uint256",
							"name": "_newPlatformFeePercentage",
							"type": "uint256"
						}
					],
					"name": "updateFeePercentages",
					"outputs": [],
					"stateMutability": "nonpayable",
					"type": "function"
				}
			],
			"devdoc": {
				"events": {
					"Paused(address)": {
						"details": "Emitted when the pause is triggered by `account`."
					},
					"Unpaused(address)": {
						"details": "Emitted when the pause is lifted by `account`."
					}
				},
				"kind": "dev",
				"methods": {
					"owner()": {
						"details": "Returns the address of the current owner."
					},
					"paused()": {
						"details": "Returns true if the contract is paused, and false otherwise."
					},
					"renounceOwnership()": {
						"details": "Leaves the contract without owner. It will not be possible to call `onlyOwner` functions. Can only be called by the current owner. NOTE: Renouncing ownership will leave the contract without an owner, thereby disabling any functionality that is only available to the owner."
					},
					"transferOwnership(address)": {
						"details": "Transfers ownership of the contract to a new account (`newOwner`). Can only be called by the current owner."
					}
				},
				"version": 1
			},
			"evm": {
				"assembly": "    /* \"venda_8_21.sol\":291:5280  contract NFTMarketplace is Ownable, ReentrancyGuard, Pausable {... */\n  mstore(0x40, 0x80)\n    /* \"venda_8_21.sol\":981:982  1 */\n  0x01\n    /* \"venda_8_21.sol\":950:982  uint256 public nextListingId = 1 */\n  0x09\n  sstore\n    /* \"venda_8_21.sol\":1386:1828  constructor(uint256 _royaltyPercentage, uint256 _platformFeePercentage, address _royaltyAddress, address _platformFeeAddress) {... */\n  callvalue\n  dup1\n  iszero\n  tag_1\n  jumpi\n  0x00\n  dup1\n  revert\ntag_1:\n  pop\n  mload(0x40)\n  sub(codesize, bytecodeSize)\n  dup1\n  bytecodeSize\n  dup4\n  codecopy\n  dup2\n  dup2\n  add\n  0x40\n  mstore\n  dup2\n  add\n  swap1\n  tag_2\n  swap2\n  swap1\n  tag_3\n  jump\t// in\ntag_2:\n    /* \"@openzeppelin/contracts/access/Ownable.sol\":936:968  _transferOwnership(_msgSender()) */\n  tag_9\n    /* \"@openzeppelin/contracts/access/Ownable.sol\":955:967  _msgSender() */\n  tag_10\n    /* \"@openzeppelin/contracts/access/Ownable.sol\":955:965  _msgSender */\n  shl(0x20, tag_11)\n    /* \"@openzeppelin/contracts/access/Ownable.sol\":955:967  _msgSender() */\n  0x20\n  shr\n  jump\t// in\ntag_10:\n    /* \"@openzeppelin/contracts/access/Ownable.sol\":936:954  _transferOwnership */\n  shl(0x20, tag_12)\n    /* \"@openzeppelin/contracts/access/Ownable.sol\":936:968  _transferOwnership(_msgSender()) */\n  0x20\n  shr\n  jump\t// in\ntag_9:\n    /* \"@openzeppelin/contracts/security/ReentrancyGuard.sol\":1716:1717  1 */\n  0x01\n    /* \"@openzeppelin/contracts/security/ReentrancyGuard.sol\":1821:1828  _status */\n  dup1\n    /* \"@openzeppelin/contracts/security/ReentrancyGuard.sol\":1821:1843  _status = _NOT_ENTERED */\n  dup2\n  swap1\n  sstore\n  pop\n    /* \"@openzeppelin/contracts/security/Pausable.sol\":1006:1011  false */\n  0x00\n    /* \"@openzeppelin/contracts/security/Pausable.sol\":996:1003  _paused */\n  0x02\n  0x00\n    /* \"@openzeppelin/contracts/security/Pausable.sol\":996:1011  _paused = false */\n  0x0100\n  exp\n  dup2\n  sload\n  dup2\n  0xff\n  mul\n  not\n  and\n  swap1\n  dup4\n  iszero\n  iszero\n  mul\n  or\n  swap1\n  sstore\n  pop\n    /* \"venda_8_21.sol\":1557:1558  0 */\n  0x00\n    /* \"venda_8_21.sol\":1530:1559  _royaltyAddress != address(0) */\n  0xffffffffffffffffffffffffffffffffffffffff\n  and\n    /* \"venda_8_21.sol\":1530:1545  _royaltyAddress */\n  dup3\n    /* \"venda_8_21.sol\":1530:1559  _royaltyAddress != address(0) */\n  0xffffffffffffffffffffffffffffffffffffffff\n  and\n  eq\n  iszero\n    /* \"venda_8_21.sol\":1530:1596  _royaltyAddress != address(0) && _platformFeeAddress != address(0) */\n  dup1\n  iszero\n  tag_16\n  jumpi\n  pop\n    /* \"venda_8_21.sol\":1594:1595  0 */\n  0x00\n    /* \"venda_8_21.sol\":1563:1596  _platformFeeAddress != address(0) */\n  0xffffffffffffffffffffffffffffffffffffffff\n  and\n    /* \"venda_8_21.sol\":1563:1582  _platformFeeAddress */\n  dup2\n    /* \"venda_8_21.sol\":1563:1596  _platformFeeAddress != address(0) */\n  0xffffffffffffffffffffffffffffffffffffffff\n  and\n  eq\n  iszero\n    /* \"venda_8_21.sol\":1530:1596  _royaltyAddress != address(0) && _platformFeeAddress != address(0) */\ntag_16:\n    /* \"venda_8_21.sol\":1522:1625  require(_royaltyAddress != address(0) && _platformFeeAddress != address(0), \"Addresses cannot be zero\") */\n  tag_17\n  jumpi\n  mload(0x40)\n  0x08c379a000000000000000000000000000000000000000000000000000000000\n  dup2\n  mstore\n  0x04\n  add\n  tag_18\n  swap1\n  tag_19\n  jump\t// in\ntag_18:\n  mload(0x40)\n  dup1\n  swap2\n  sub\n  swap1\n  revert\ntag_17:\n    /* \"venda_8_21.sol\":1655:1673  _royaltyPercentage */\n  dup4\n    /* \"venda_8_21.sol\":1635:1652  royaltyPercentage */\n  0x04\n    /* \"venda_8_21.sol\":1635:1673  royaltyPercentage = _royaltyPercentage */\n  dup2\n  swap1\n  sstore\n  pop\n    /* \"venda_8_21.sol\":1707:1729  _platformFeePercentage */\n  dup3\n    /* \"venda_8_21.sol\":1683:1704  platformFeePercentage */\n  0x05\n    /* \"venda_8_21.sol\":1683:1729  platformFeePercentage = _platformFeePercentage */\n  dup2\n  swap1\n  sstore\n  pop\n    /* \"venda_8_21.sol\":1756:1771  _royaltyAddress */\n  dup2\n    /* \"venda_8_21.sol\":1739:1753  royaltyAddress */\n  0x06\n  0x00\n    /* \"venda_8_21.sol\":1739:1771  royaltyAddress = _royaltyAddress */\n  0x0100\n  exp\n  dup2\n  sload\n  dup2\n  0xffffffffffffffffffffffffffffffffffffffff\n  mul\n  not\n  and\n  swap1\n  dup4\n  0xffffffffffffffffffffffffffffffffffffffff\n  and\n  mul\n  or\n  swap1\n  sstore\n  pop\n    /* \"venda_8_21.sol\":1802:1821  _platformFeeAddress */\n  dup1\n    /* \"venda_8_21.sol\":1781:1799  platformFeeAddress */\n  0x07\n  0x00\n    /* \"venda_8_21.sol\":1781:1821  platformFeeAddress = _platformFeeAddress */\n  0x0100\n  exp\n  dup2\n  sload\n  dup2\n  0xffffffffffffffffffffffffffffffffffffffff\n  mul\n  not\n  and\n  swap1\n  dup4\n  0xffffffffffffffffffffffffffffffffffffffff\n  and\n  mul\n  or\n  swap1\n  sstore\n  pop\n    /* \"venda_8_21.sol\":1386:1828  constructor(uint256 _royaltyPercentage, uint256 _platformFeePercentage, address _royaltyAddress, address _platformFeeAddress) {... */\n  pop\n  pop\n  pop\n  pop\n    /* \"venda_8_21.sol\":291:5280  contract NFTMarketplace is Ownable, ReentrancyGuard, Pausable {... */\n  jump(tag_20)\n    /* \"@openzeppelin/contracts/utils/Context.sol\":640:736  function _msgSender() internal view virtual returns (address) {... */\ntag_11:\n    /* \"@openzeppelin/contracts/utils/Context.sol\":693:700  address */\n  0x00\n    /* \"@openzeppelin/contracts/utils/Context.sol\":719:729  msg.sender */\n  caller\n    /* \"@openzeppelin/contracts/utils/Context.sol\":712:729  return msg.sender */\n  swap1\n  pop\n    /* \"@openzeppelin/contracts/utils/Context.sol\":640:736  function _msgSender() internal view virtual returns (address) {... */\n  swap1\n  jump\t// out\n    /* \"@openzeppelin/contracts/access/Ownable.sol\":2426:2613  function _transferOwnership(address newOwner) internal virtual {... */\ntag_12:\n    /* \"@openzeppelin/contracts/access/Ownable.sol\":2499:2515  address oldOwner */\n  0x00\n    /* \"@openzeppelin/contracts/access/Ownable.sol\":2518:2524  _owner */\n  dup1\n  0x00\n  swap1\n  sload\n  swap1\n  0x0100\n  exp\n  swap1\n  div\n  0xffffffffffffffffffffffffffffffffffffffff\n  and\n    /* \"@openzeppelin/contracts/access/Ownable.sol\":2499:2524  address oldOwner = _owner */\n  swap1\n  pop\n    /* \"@openzeppelin/contracts/access/Ownable.sol\":2543:2551  newOwner */\n  dup2\n    /* \"@openzeppelin/contracts/access/Ownable.sol\":2534:2540  _owner */\n  0x00\n  dup1\n    /* \"@openzeppelin/contracts/access/Ownable.sol\":2534:2551  _owner = newOwner */\n  0x0100\n  exp\n  dup2\n  sload\n  dup2\n  0xffffffffffffffffffffffffffffffffffffffff\n  mul\n  not\n  and\n  swap1\n  dup4\n  0xffffffffffffffffffffffffffffffffffffffff\n  and\n  mul\n  or\n  swap1\n  sstore\n  pop\n    /* \"@openzeppelin/contracts/access/Ownable.sol\":2597:2605  newOwner */\n  dup2\n    /* \"@openzeppelin/contracts/access/Ownable.sol\":2566:2606  OwnershipTransferred(oldOwner, newOwner) */\n  0xffffffffffffffffffffffffffffffffffffffff\n  and\n    /* \"@openzeppelin/contracts/access/Ownable.sol\":2587:2595  oldOwner */\n  dup2\n    /* \"@openzeppelin/contracts/access/Ownable.sol\":2566:2606  OwnershipTransferred(oldOwner, newOwner) */\n  0xffffffffffffffffffffffffffffffffffffffff\n  and\n  0x8be0079c531659141344cd1fd0a4f28419497f9722a3daafe3b4186f6b6457e0\n  mload(0x40)\n  mload(0x40)\n  dup1\n  swap2\n  sub\n  swap1\n  log3\n    /* \"@openzeppelin/contracts/access/Ownable.sol\":2489:2613  {... */\n  pop\n    /* \"@openzeppelin/contracts/access/Ownable.sol\":2426:2613  function _transferOwnership(address newOwner) internal virtual {... */\n  pop\n  jump\t// out\n    /* \"#utility.yul\":88:205   */\ntag_24:\n    /* \"#utility.yul\":197:198   */\n  0x00\n    /* \"#utility.yul\":194:195   */\n  dup1\n    /* \"#utility.yul\":187:199   */\n  revert\n    /* \"#utility.yul\":334:411   */\ntag_26:\n    /* \"#utility.yul\":371:378   */\n  0x00\n    /* \"#utility.yul\":400:405   */\n  dup2\n    /* \"#utility.yul\":389:405   */\n  swap1\n  pop\n    /* \"#utility.yul\":334:411   */\n  swap2\n  swap1\n  pop\n  jump\t// out\n    /* \"#utility.yul\":417:539   */\ntag_27:\n    /* \"#utility.yul\":490:514   */\n  tag_42\n    /* \"#utility.yul\":508:513   */\n  dup2\n    /* \"#utility.yul\":490:514   */\n  tag_26\n  jump\t// in\ntag_42:\n    /* \"#utility.yul\":483:488   */\n  dup2\n    /* \"#utility.yul\":480:515   */\n  eq\n    /* \"#utility.yul\":470:533   */\n  tag_43\n  jumpi\n    /* \"#utility.yul\":529:530   */\n  0x00\n    /* \"#utility.yul\":526:527   */\n  dup1\n    /* \"#utility.yul\":519:531   */\n  revert\n    /* \"#utility.yul\":470:533   */\ntag_43:\n    /* \"#utility.yul\":417:539   */\n  pop\n  jump\t// out\n    /* \"#utility.yul\":545:688   */\ntag_28:\n    /* \"#utility.yul\":602:607   */\n  0x00\n    /* \"#utility.yul\":633:639   */\n  dup2\n    /* \"#utility.yul\":627:640   */\n  mload\n    /* \"#utility.yul\":618:640   */\n  swap1\n  pop\n    /* \"#utility.yul\":649:682   */\n  tag_45\n    /* \"#utility.yul\":676:681   */\n  dup2\n    /* \"#utility.yul\":649:682   */\n  tag_27\n  jump\t// in\ntag_45:\n    /* \"#utility.yul\":545:688   */\n  swap3\n  swap2\n  pop\n  pop\n  jump\t// out\n    /* \"#utility.yul\":694:820   */\ntag_29:\n    /* \"#utility.yul\":731:738   */\n  0x00\n    /* \"#utility.yul\":771:813   */\n  0xffffffffffffffffffffffffffffffffffffffff\n    /* \"#utility.yul\":764:769   */\n  dup3\n    /* \"#utility.yul\":760:814   */\n  and\n    /* \"#utility.yul\":749:814   */\n  swap1\n  pop\n    /* \"#utility.yul\":694:820   */\n  swap2\n  swap1\n  pop\n  jump\t// out\n    /* \"#utility.yul\":826:922   */\ntag_30:\n    /* \"#utility.yul\":863:870   */\n  0x00\n    /* \"#utility.yul\":892:916   */\n  tag_48\n    /* \"#utility.yul\":910:915   */\n  dup3\n    /* \"#utility.yul\":892:916   */\n  tag_29\n  jump\t// in\ntag_48:\n    /* \"#utility.yul\":881:916   */\n  swap1\n  pop\n    /* \"#utility.yul\":826:922   */\n  swap2\n  swap1\n  pop\n  jump\t// out\n    /* \"#utility.yul\":928:1050   */\ntag_31:\n    /* \"#utility.yul\":1001:1025   */\n  tag_50\n    /* \"#utility.yul\":1019:1024   */\n  dup2\n    /* \"#utility.yul\":1001:1025   */\n  tag_30\n  jump\t// in\ntag_50:\n    /* \"#utility.yul\":994:999   */\n  dup2\n    /* \"#utility.yul\":991:1026   */\n  eq\n    /* \"#utility.yul\":981:1044   */\n  tag_51\n  jumpi\n    /* \"#utility.yul\":1040:1041   */\n  0x00\n    /* \"#utility.yul\":1037:1038   */\n  dup1\n    /* \"#utility.yul\":1030:1042   */\n  revert\n    /* \"#utility.yul\":981:1044   */\ntag_51:\n    /* \"#utility.yul\":928:1050   */\n  pop\n  jump\t// out\n    /* \"#utility.yul\":1056:1199   */\ntag_32:\n    /* \"#utility.yul\":1113:1118   */\n  0x00\n    /* \"#utility.yul\":1144:1150   */\n  dup2\n    /* \"#utility.yul\":1138:1151   */\n  mload\n    /* \"#utility.yul\":1129:1151   */\n  swap1\n  pop\n    /* \"#utility.yul\":1160:1193   */\n  tag_53\n    /* \"#utility.yul\":1187:1192   */\n  dup2\n    /* \"#utility.yul\":1160:1193   */\n  tag_31\n  jump\t// in\ntag_53:\n    /* \"#utility.yul\":1056:1199   */\n  swap3\n  swap2\n  pop\n  pop\n  jump\t// out\n    /* \"#utility.yul\":1205:2025   */\ntag_3:\n    /* \"#utility.yul\":1302:1308   */\n  0x00\n    /* \"#utility.yul\":1310:1316   */\n  dup1\n    /* \"#utility.yul\":1318:1324   */\n  0x00\n    /* \"#utility.yul\":1326:1332   */\n  dup1\n    /* \"#utility.yul\":1375:1378   */\n  0x80\n    /* \"#utility.yul\":1363:1372   */\n  dup6\n    /* \"#utility.yul\":1354:1361   */\n  dup8\n    /* \"#utility.yul\":1350:1373   */\n  sub\n    /* \"#utility.yul\":1346:1379   */\n  slt\n    /* \"#utility.yul\":1343:1463   */\n  iszero\n  tag_55\n  jumpi\n    /* \"#utility.yul\":1382:1461   */\n  tag_56\n  tag_24\n  jump\t// in\ntag_56:\n    /* \"#utility.yul\":1343:1463   */\ntag_55:\n    /* \"#utility.yul\":1502:1503   */\n  0x00\n    /* \"#utility.yul\":1527:1591   */\n  tag_57\n    /* \"#utility.yul\":1583:1590   */\n  dup8\n    /* \"#utility.yul\":1574:1580   */\n  dup3\n    /* \"#utility.yul\":1563:1572   */\n  dup9\n    /* \"#utility.yul\":1559:1581   */\n  add\n    /* \"#utility.yul\":1527:1591   */\n  tag_28\n  jump\t// in\ntag_57:\n    /* \"#utility.yul\":1517:1591   */\n  swap5\n  pop\n    /* \"#utility.yul\":1473:1601   */\n  pop\n    /* \"#utility.yul\":1640:1642   */\n  0x20\n    /* \"#utility.yul\":1666:1730   */\n  tag_58\n    /* \"#utility.yul\":1722:1729   */\n  dup8\n    /* \"#utility.yul\":1713:1719   */\n  dup3\n    /* \"#utility.yul\":1702:1711   */\n  dup9\n    /* \"#utility.yul\":1698:1720   */\n  add\n    /* \"#utility.yul\":1666:1730   */\n  tag_28\n  jump\t// in\ntag_58:\n    /* \"#utility.yul\":1656:1730   */\n  swap4\n  pop\n    /* \"#utility.yul\":1611:1740   */\n  pop\n    /* \"#utility.yul\":1779:1781   */\n  0x40\n    /* \"#utility.yul\":1805:1869   */\n  tag_59\n    /* \"#utility.yul\":1861:1868   */\n  dup8\n    /* \"#utility.yul\":1852:1858   */\n  dup3\n    /* \"#utility.yul\":1841:1850   */\n  dup9\n    /* \"#utility.yul\":1837:1859   */\n  add\n    /* \"#utility.yul\":1805:1869   */\n  tag_32\n  jump\t// in\ntag_59:\n    /* \"#utility.yul\":1795:1869   */\n  swap3\n  pop\n    /* \"#utility.yul\":1750:1879   */\n  pop\n    /* \"#utility.yul\":1918:1920   */\n  0x60\n    /* \"#utility.yul\":1944:2008   */\n  tag_60\n    /* \"#utility.yul\":2000:2007   */\n  dup8\n    /* \"#utility.yul\":1991:1997   */\n  dup3\n    /* \"#utility.yul\":1980:1989   */\n  dup9\n    /* \"#utility.yul\":1976:1998   */\n  add\n    /* \"#utility.yul\":1944:2008   */\n  tag_32\n  jump\t// in\ntag_60:\n    /* \"#utility.yul\":1934:2008   */\n  swap2\n  pop\n    /* \"#utility.yul\":1889:2018   */\n  pop\n    /* \"#utility.yul\":1205:2025   */\n  swap3\n  swap6\n  swap2\n  swap5\n  pop\n  swap3\n  pop\n  jump\t// out\n    /* \"#utility.yul\":2031:2200   */\ntag_33:\n    /* \"#utility.yul\":2115:2126   */\n  0x00\n    /* \"#utility.yul\":2149:2155   */\n  dup3\n    /* \"#utility.yul\":2144:2147   */\n  dup3\n    /* \"#utility.yul\":2137:2156   */\n  mstore\n    /* \"#utility.yul\":2189:2193   */\n  0x20\n    /* \"#utility.yul\":2184:2187   */\n  dup3\n    /* \"#utility.yul\":2180:2194   */\n  add\n    /* \"#utility.yul\":2165:2194   */\n  swap1\n  pop\n    /* \"#utility.yul\":2031:2200   */\n  swap3\n  swap2\n  pop\n  pop\n  jump\t// out\n    /* \"#utility.yul\":2206:2380   */\ntag_34:\n    /* \"#utility.yul\":2346:2372   */\n  0x4164647265737365732063616e6e6f74206265207a65726f0000000000000000\n    /* \"#utility.yul\":2342:2343   */\n  0x00\n    /* \"#utility.yul\":2334:2340   */\n  dup3\n    /* \"#utility.yul\":2330:2344   */\n  add\n    /* \"#utility.yul\":2323:2373   */\n  mstore\n    /* \"#utility.yul\":2206:2380   */\n  pop\n  jump\t// out\n    /* \"#utility.yul\":2386:2752   */\ntag_35:\n    /* \"#utility.yul\":2528:2531   */\n  0x00\n    /* \"#utility.yul\":2549:2616   */\n  tag_64\n    /* \"#utility.yul\":2613:2615   */\n  0x18\n    /* \"#utility.yul\":2608:2611   */\n  dup4\n    /* \"#utility.yul\":2549:2616   */\n  tag_33\n  jump\t// in\ntag_64:\n    /* \"#utility.yul\":2542:2616   */\n  swap2\n  pop\n    /* \"#utility.yul\":2625:2718   */\n  tag_65\n    /* \"#utility.yul\":2714:2717   */\n  dup3\n    /* \"#utility.yul\":2625:2718   */\n  tag_34\n  jump\t// in\ntag_65:\n    /* \"#utility.yul\":2743:2745   */\n  0x20\n    /* \"#utility.yul\":2738:2741   */\n  dup3\n    /* \"#utility.yul\":2734:2746   */\n  add\n    /* \"#utility.yul\":2727:2746   */\n  swap1\n  pop\n    /* \"#utility.yul\":2386:2752   */\n  swap2\n  swap1\n  pop\n  jump\t// out\n    /* \"#utility.yul\":2758:3177   */\ntag_19:\n    /* \"#utility.yul\":2924:2928   */\n  0x00\n    /* \"#utility.yul\":2962:2964   */\n  0x20\n    /* \"#utility.yul\":2951:2960   */\n  dup3\n    /* \"#utility.yul\":2947:2965   */\n  add\n    /* \"#utility.yul\":2939:2965   */\n  swap1\n  pop\n    /* \"#utility.yul\":3011:3020   */\n  dup2\n    /* \"#utility.yul\":3005:3009   */\n  dup2\n    /* \"#utility.yul\":3001:3021   */\n  sub\n    /* \"#utility.yul\":2997:2998   */\n  0x00\n    /* \"#utility.yul\":2986:2995   */\n  dup4\n    /* \"#utility.yul\":2982:2999   */\n  add\n    /* \"#utility.yul\":2975:3022   */\n  mstore\n    /* \"#utility.yul\":3039:3170   */\n  tag_67\n    /* \"#utility.yul\":3165:3169   */\n  dup2\n    /* \"#utility.yul\":3039:3170   */\n  tag_35\n  jump\t// in\ntag_67:\n    /* \"#utility.yul\":3031:3170   */\n  swap1\n  pop\n    /* \"#utility.yul\":2758:3177   */\n  swap2\n  swap1\n  pop\n  jump\t// out\n    /* \"venda_8_21.sol\":291:5280  contract NFTMarketplace is Ownable, ReentrancyGuard, Pausable {... */\ntag_20:\n  dataSize(sub_0)\n  dup1\n  dataOffset(sub_0)\n  0x00\n  codecopy\n  0x00\n  return\nstop\n\nsub_0: assembly {\n        /* \"venda_8_21.sol\":291:5280  contract NFTMarketplace is Ownable, ReentrancyGuard, Pausable {... */\n      mstore(0x40, 0x80)\n      jumpi(tag_1, lt(calldatasize, 0x04))\n      shr(0xe0, calldataload(0x00))\n      dup1\n      0x8da5cb5b\n      gt\n      tag_20\n      jumpi\n      dup1\n      0xcdd78cfc\n      gt\n      tag_21\n      jumpi\n      dup1\n      0xcdd78cfc\n      eq\n      tag_15\n      jumpi\n      dup1\n      0xde74e57b\n      eq\n      tag_16\n      jumpi\n      dup1\n      0xe3b6a1f6\n      eq\n      tag_17\n      jumpi\n      dup1\n      0xed14834f\n      eq\n      tag_18\n      jumpi\n      dup1\n      0xf2fde38b\n      eq\n      tag_19\n      jumpi\n      jump(tag_1)\n    tag_21:\n      dup1\n      0x8da5cb5b\n      eq\n      tag_11\n      jumpi\n      dup1\n      0xaaccf1ec\n      eq\n      tag_12\n      jumpi\n      dup1\n      0xad2f852a\n      eq\n      tag_13\n      jumpi\n      dup1\n      0xcb917b9c\n      eq\n      tag_14\n      jumpi\n      jump(tag_1)\n    tag_20:\n      dup1\n      0x5e4e8d65\n      gt\n      tag_22\n      jumpi\n      dup1\n      0x5e4e8d65\n      eq\n      tag_6\n      jumpi\n      dup1\n      0x715018a6\n      eq\n      tag_7\n      jumpi\n      dup1\n      0x78578bb3\n      eq\n      tag_8\n      jumpi\n      dup1\n      0x8456cb59\n      eq\n      tag_9\n      jumpi\n      dup1\n      0x8a71bb2d\n      eq\n      tag_10\n      jumpi\n      jump(tag_1)\n    tag_22:\n      dup1\n      0x3c44a5f0\n      eq\n      tag_2\n      jumpi\n      dup1\n      0x3f4ba83a\n      eq\n      tag_3\n      jumpi\n      dup1\n      0x51ed8288\n      eq\n      tag_4\n      jumpi\n      dup1\n      0x5c975abb\n      eq\n      tag_5\n      jumpi\n    tag_1:\n      0x00\n      dup1\n      revert\n        /* \"venda_8_21.sol\":1869:2621  function listNFT(address _nftContractAddress, uint256 _nftId, uint256 _price, uint256 _deadline) external whenNotPaused {... */\n    tag_2:\n      callvalue\n      dup1\n      iszero\n      tag_23\n      jumpi\n      0x00\n      dup1\n      revert\n    tag_23:\n      pop\n      tag_24\n      0x04\n      dup1\n      calldatasize\n      sub\n      dup2\n      add\n      swap1\n      tag_25\n      swap2\n      swap1\n      tag_26\n      jump\t// in\n    tag_25:\n      tag_27\n      jump\t// in\n    tag_24:\n      stop\n        /* \"venda_8_21.sol\":4446:4511  function unpause() external onlyOwner {... */\n    tag_3:\n      callvalue\n      dup1\n      iszero\n      tag_28\n      jumpi\n      0x00\n      dup1\n      revert\n    tag_28:\n      pop\n      tag_29\n      tag_30\n      jump\t// in\n    tag_29:\n      stop\n        /* \"venda_8_21.sol\":2661:3907  function buyNFT(uint256 _listingId) external payable whenNotPaused nonReentrant {... */\n    tag_4:\n      tag_31\n      0x04\n      dup1\n      calldatasize\n      sub\n      dup2\n      add\n      swap1\n      tag_32\n      swap2\n      swap1\n      tag_33\n      jump\t// in\n    tag_32:\n      tag_34\n      jump\t// in\n    tag_31:\n      stop\n        /* \"@openzeppelin/contracts/security/Pausable.sol\":1615:1699  function paused() public view virtual returns (bool) {... */\n    tag_5:\n      callvalue\n      dup1\n      iszero\n      tag_35\n      jumpi\n      0x00\n      dup1\n      revert\n    tag_35:\n      pop\n      tag_36\n      tag_37\n      jump\t// in\n    tag_36:\n      mload(0x40)\n      tag_38\n      swap2\n      swap1\n      tag_39\n      jump\t// in\n    tag_38:\n      mload(0x40)\n      dup1\n      swap2\n      sub\n      swap1\n      return\n        /* \"venda_8_21.sol\":4612:4943  function updateFeeAddresses(address _newRoyaltyAddress, address _newPlatformFeeAddress) external onlyOwner {... */\n    tag_6:\n      callvalue\n      dup1\n      iszero\n      tag_40\n      jumpi\n      0x00\n      dup1\n      revert\n    tag_40:\n      pop\n      tag_41\n      0x04\n      dup1\n      calldatasize\n      sub\n      dup2\n      add\n      swap1\n      tag_42\n      swap2\n      swap1\n      tag_43\n      jump\t// in\n    tag_42:\n      tag_44\n      jump\t// in\n    tag_41:\n      stop\n        /* \"@openzeppelin/contracts/access/Ownable.sol\":1824:1925  function renounceOwnership() public virtual onlyOwner {... */\n    tag_7:\n      callvalue\n      dup1\n      iszero\n      tag_45\n      jumpi\n      0x00\n      dup1\n      revert\n    tag_45:\n      pop\n      tag_46\n      tag_47\n      jump\t// in\n    tag_46:\n      stop\n        /* \"venda_8_21.sol\":5046:5278  function updateFeePercentages(uint256 _newRoyaltyPercentage, uint256 _newPlatformFeePercentage) external onlyOwner {... */\n    tag_8:\n      callvalue\n      dup1\n      iszero\n      tag_48\n      jumpi\n      0x00\n      dup1\n      revert\n    tag_48:\n      pop\n      tag_49\n      0x04\n      dup1\n      calldatasize\n      sub\n      dup2\n      add\n      swap1\n      tag_50\n      swap2\n      swap1\n      tag_51\n      jump\t// in\n    tag_50:\n      tag_52\n      jump\t// in\n    tag_49:\n      stop\n        /* \"venda_8_21.sol\":4305:4366  function pause() external onlyOwner {... */\n    tag_9:\n      callvalue\n      dup1\n      iszero\n      tag_53\n      jumpi\n      0x00\n      dup1\n      revert\n    tag_53:\n      pop\n      tag_54\n      tag_55\n      jump\t// in\n    tag_54:\n      stop\n        /* \"venda_8_21.sol\":652:684  uint256 public royaltyPercentage */\n    tag_10:\n      callvalue\n      dup1\n      iszero\n      tag_56\n      jumpi\n      0x00\n      dup1\n      revert\n    tag_56:\n      pop\n      tag_57\n      tag_58\n      jump\t// in\n    tag_57:\n      mload(0x40)\n      tag_59\n      swap2\n      swap1\n      tag_60\n      jump\t// in\n    tag_59:\n      mload(0x40)\n      dup1\n      swap2\n      sub\n      swap1\n      return\n        /* \"@openzeppelin/contracts/access/Ownable.sol\":1201:1286  function owner() public view virtual returns (address) {... */\n    tag_11:\n      callvalue\n      dup1\n      iszero\n      tag_61\n      jumpi\n      0x00\n      dup1\n      revert\n    tag_61:\n      pop\n      tag_62\n      tag_63\n      jump\t// in\n    tag_62:\n      mload(0x40)\n      tag_64\n      swap2\n      swap1\n      tag_65\n      jump\t// in\n    tag_64:\n      mload(0x40)\n      dup1\n      swap2\n      sub\n      swap1\n      return\n        /* \"venda_8_21.sol\":950:982  uint256 public nextListingId = 1 */\n    tag_12:\n      callvalue\n      dup1\n      iszero\n      tag_66\n      jumpi\n      0x00\n      dup1\n      revert\n    tag_66:\n      pop\n      tag_67\n      tag_68\n      jump\t// in\n    tag_67:\n      mload(0x40)\n      tag_69\n      swap2\n      swap1\n      tag_60\n      jump\t// in\n    tag_69:\n      mload(0x40)\n      dup1\n      swap2\n      sub\n      swap1\n      return\n        /* \"venda_8_21.sol\":780:809  address public royaltyAddress */\n    tag_13:\n      callvalue\n      dup1\n      iszero\n      tag_70\n      jumpi\n      0x00\n      dup1\n      revert\n    tag_70:\n      pop\n      tag_71\n      tag_72\n      jump\t// in\n    tag_71:\n      mload(0x40)\n      tag_73\n      swap2\n      swap1\n      tag_65\n      jump\t// in\n    tag_73:\n      mload(0x40)\n      dup1\n      swap2\n      sub\n      swap1\n      return\n        /* \"venda_8_21.sol\":3950:4227  function delistNFT(uint256 _listingId) external {... */\n    tag_14:\n      callvalue\n      dup1\n      iszero\n      tag_74\n      jumpi\n      0x00\n      dup1\n      revert\n    tag_74:\n      pop\n      tag_75\n      0x04\n      dup1\n      calldatasize\n      sub\n      dup2\n      add\n      swap1\n      tag_76\n      swap2\n      swap1\n      tag_33\n      jump\t// in\n    tag_76:\n      tag_77\n      jump\t// in\n    tag_75:\n      stop\n        /* \"venda_8_21.sol\":691:727  uint256 public platformFeePercentage */\n    tag_15:\n      callvalue\n      dup1\n      iszero\n      tag_78\n      jumpi\n      0x00\n      dup1\n      revert\n    tag_78:\n      pop\n      tag_79\n      tag_80\n      jump\t// in\n    tag_79:\n      mload(0x40)\n      tag_81\n      swap2\n      swap1\n      tag_60\n      jump\t// in\n    tag_81:\n      mload(0x40)\n      dup1\n      swap2\n      sub\n      swap1\n      return\n        /* \"venda_8_21.sol\":896:939  mapping(uint256 => Listing) public listings */\n    tag_16:\n      callvalue\n      dup1\n      iszero\n      tag_82\n      jumpi\n      0x00\n      dup1\n      revert\n    tag_82:\n      pop\n      tag_83\n      0x04\n      dup1\n      calldatasize\n      sub\n      dup2\n      add\n      swap1\n      tag_84\n      swap2\n      swap1\n      tag_33\n      jump\t// in\n    tag_84:\n      tag_85\n      jump\t// in\n    tag_83:\n      mload(0x40)\n      tag_86\n      swap6\n      swap5\n      swap4\n      swap3\n      swap2\n      swap1\n      tag_87\n      jump\t// in\n    tag_86:\n      mload(0x40)\n      dup1\n      swap2\n      sub\n      swap1\n      return\n        /* \"venda_8_21.sol\":564:597  uint256[] public activeListingIds */\n    tag_17:\n      callvalue\n      dup1\n      iszero\n      tag_88\n      jumpi\n      0x00\n      dup1\n      revert\n    tag_88:\n      pop\n      tag_89\n      0x04\n      dup1\n      calldatasize\n      sub\n      dup2\n      add\n      swap1\n      tag_90\n      swap2\n      swap1\n      tag_33\n      jump\t// in\n    tag_90:\n      tag_91\n      jump\t// in\n    tag_89:\n      mload(0x40)\n      tag_92\n      swap2\n      swap1\n      tag_60\n      jump\t// in\n    tag_92:\n      mload(0x40)\n      dup1\n      swap2\n      sub\n      swap1\n      return\n        /* \"venda_8_21.sol\":815:848  address public platformFeeAddress */\n    tag_18:\n      callvalue\n      dup1\n      iszero\n      tag_93\n      jumpi\n      0x00\n      dup1\n      revert\n    tag_93:\n      pop\n      tag_94\n      tag_95\n      jump\t// in\n    tag_94:\n      mload(0x40)\n      tag_96\n      swap2\n      swap1\n      tag_65\n      jump\t// in\n    tag_96:\n      mload(0x40)\n      dup1\n      swap2\n      sub\n      swap1\n      return\n        /* \"@openzeppelin/contracts/access/Ownable.sol\":2074:2272  function transferOwnership(address newOwner) public virtual onlyOwner {... */\n    tag_19:\n      callvalue\n      dup1\n      iszero\n      tag_97\n      jumpi\n      0x00\n      dup1\n      revert\n    tag_97:\n      pop\n      tag_98\n      0x04\n      dup1\n      calldatasize\n      sub\n      dup2\n      add\n      swap1\n      tag_99\n      swap2\n      swap1\n      tag_100\n      jump\t// in\n    tag_99:\n      tag_101\n      jump\t// in\n    tag_98:\n      stop\n        /* \"venda_8_21.sol\":1869:2621  function listNFT(address _nftContractAddress, uint256 _nftId, uint256 _price, uint256 _deadline) external whenNotPaused {... */\n    tag_27:\n        /* \"@openzeppelin/contracts/security/Pausable.sol\":1239:1258  _requireNotPaused() */\n      tag_103\n        /* \"@openzeppelin/contracts/security/Pausable.sol\":1239:1256  _requireNotPaused */\n      tag_104\n        /* \"@openzeppelin/contracts/security/Pausable.sol\":1239:1258  _requireNotPaused() */\n      jump\t// in\n    tag_103:\n        /* \"venda_8_21.sol\":1999:2018  IERC721 nftContract */\n      0x00\n        /* \"venda_8_21.sol\":2029:2048  _nftContractAddress */\n      dup5\n        /* \"venda_8_21.sol\":1999:2049  IERC721 nftContract = IERC721(_nftContractAddress) */\n      swap1\n      pop\n        /* \"venda_8_21.sol\":2098:2108  msg.sender */\n      caller\n        /* \"venda_8_21.sol\":2067:2108  nftContract.ownerOf(_nftId) == msg.sender */\n      0xffffffffffffffffffffffffffffffffffffffff\n      and\n        /* \"venda_8_21.sol\":2067:2078  nftContract */\n      dup2\n        /* \"venda_8_21.sol\":2067:2086  nftContract.ownerOf */\n      0xffffffffffffffffffffffffffffffffffffffff\n      and\n      0x6352211e\n        /* \"venda_8_21.sol\":2087:2093  _nftId */\n      dup7\n        /* \"venda_8_21.sol\":2067:2094  nftContract.ownerOf(_nftId) */\n      mload(0x40)\n      dup3\n      0xffffffff\n      and\n      0xe0\n      shl\n      dup2\n      mstore\n      0x04\n      add\n      tag_106\n      swap2\n      swap1\n      tag_60\n      jump\t// in\n    tag_106:\n      0x20\n      mload(0x40)\n      dup1\n      dup4\n      sub\n      dup2\n      dup7\n      gas\n      staticcall\n      iszero\n      dup1\n      iszero\n      tag_108\n      jumpi\n      returndatasize\n      0x00\n      dup1\n      returndatacopy\n      revert(0x00, returndatasize)\n    tag_108:\n      pop\n      pop\n      pop\n      pop\n      mload(0x40)\n      returndatasize\n      not(0x1f)\n      0x1f\n      dup3\n      add\n      and\n      dup3\n      add\n      dup1\n      0x40\n      mstore\n      pop\n      dup2\n      add\n      swap1\n      tag_109\n      swap2\n      swap1\n      tag_110\n      jump\t// in\n    tag_109:\n        /* \"venda_8_21.sol\":2067:2108  nftContract.ownerOf(_nftId) == msg.sender */\n      0xffffffffffffffffffffffffffffffffffffffff\n      and\n      eq\n        /* \"venda_8_21.sol\":2059:2145  require(nftContract.ownerOf(_nftId) == msg.sender, \"You must own the NFT to list it.\") */\n      tag_111\n      jumpi\n      mload(0x40)\n      0x08c379a000000000000000000000000000000000000000000000000000000000\n      dup2\n      mstore\n      0x04\n      add\n      tag_112\n      swap1\n      tag_113\n      jump\t// in\n    tag_112:\n      mload(0x40)\n      dup1\n      swap2\n      sub\n      swap1\n      revert\n    tag_111:\n        /* \"venda_8_21.sol\":2190:2399  Listing({... */\n      mload(0x40)\n      dup1\n      0xa0\n      add\n      0x40\n      mstore\n      dup1\n        /* \"venda_8_21.sol\":2232:2251  _nftContractAddress */\n      dup7\n        /* \"venda_8_21.sol\":2190:2399  Listing({... */\n      0xffffffffffffffffffffffffffffffffffffffff\n      and\n      dup2\n      mstore\n      0x20\n      add\n        /* \"venda_8_21.sol\":2272:2278  _nftId */\n      dup6\n        /* \"venda_8_21.sol\":2190:2399  Listing({... */\n      dup2\n      mstore\n      0x20\n      add\n        /* \"venda_8_21.sol\":2300:2310  msg.sender */\n      caller\n        /* \"venda_8_21.sol\":2190:2399  Listing({... */\n      0xffffffffffffffffffffffffffffffffffffffff\n      and\n      dup2\n      mstore\n      0x20\n      add\n        /* \"venda_8_21.sol\":2331:2337  _price */\n      dup5\n        /* \"venda_8_21.sol\":2190:2399  Listing({... */\n      dup2\n      mstore\n      0x20\n      add\n        /* \"venda_8_21.sol\":2379:2388  _deadline */\n      dup4\n        /* \"venda_8_21.sol\":2361:2376  block.timestamp */\n      timestamp\n        /* \"venda_8_21.sol\":2361:2388  block.timestamp + _deadline */\n      tag_114\n      swap2\n      swap1\n      tag_115\n      jump\t// in\n    tag_114:\n        /* \"venda_8_21.sol\":2190:2399  Listing({... */\n      dup2\n      mstore\n      pop\n        /* \"venda_8_21.sol\":2164:2172  listings */\n      0x08\n        /* \"venda_8_21.sol\":2164:2187  listings[nextListingId] */\n      0x00\n        /* \"venda_8_21.sol\":2173:2186  nextListingId */\n      sload(0x09)\n        /* \"venda_8_21.sol\":2164:2187  listings[nextListingId] */\n      dup2\n      mstore\n      0x20\n      add\n      swap1\n      dup2\n      mstore\n      0x20\n      add\n      0x00\n      keccak256\n        /* \"venda_8_21.sol\":2164:2399  listings[nextListingId] = Listing({... */\n      0x00\n      dup3\n      add\n      mload\n      dup2\n      0x00\n      add\n      exp(0x0100, 0x00)\n      dup2\n      sload\n      dup2\n      0xffffffffffffffffffffffffffffffffffffffff\n      mul\n      not\n      and\n      swap1\n      dup4\n      0xffffffffffffffffffffffffffffffffffffffff\n      and\n      mul\n      or\n      swap1\n      sstore\n      pop\n      0x20\n      dup3\n      add\n      mload\n      dup2\n      0x01\n      add\n      sstore\n      0x40\n      dup3\n      add\n      mload\n      dup2\n      0x02\n      add\n      exp(0x0100, 0x00)\n      dup2\n      sload\n      dup2\n      0xffffffffffffffffffffffffffffffffffffffff\n      mul\n      not\n      and\n      swap1\n      dup4\n      0xffffffffffffffffffffffffffffffffffffffff\n      and\n      mul\n      or\n      swap1\n      sstore\n      pop\n      0x60\n      dup3\n      add\n      mload\n      dup2\n      0x03\n      add\n      sstore\n      0x80\n      dup3\n      add\n      mload\n      dup2\n      0x04\n      add\n      sstore\n      swap1\n      pop\n      pop\n        /* \"venda_8_21.sol\":2418:2434  activeListingIds */\n      0x03\n        /* \"venda_8_21.sol\":2440:2453  nextListingId */\n      sload(0x09)\n        /* \"venda_8_21.sol\":2418:2454  activeListingIds.push(nextListingId) */\n      swap1\n      dup1\n      0x01\n      dup2\n      sload\n      add\n      dup1\n      dup3\n      sstore\n      dup1\n      swap2\n      pop\n      pop\n      0x01\n      swap1\n      sub\n      swap1\n      0x00\n      mstore\n      keccak256(0x00, 0x20)\n      add\n      0x00\n      swap1\n      swap2\n      swap1\n      swap2\n      swap1\n      swap2\n      pop\n      sstore\n        /* \"venda_8_21.sol\":2515:2534  _nftContractAddress */\n      dup5\n        /* \"venda_8_21.sol\":2478:2580  NFTListed(nextListingId, msg.sender, _nftContractAddress, _nftId, _price, block.timestamp + _deadline) */\n      0xffffffffffffffffffffffffffffffffffffffff\n      and\n        /* \"venda_8_21.sol\":2503:2513  msg.sender */\n      caller\n        /* \"venda_8_21.sol\":2478:2580  NFTListed(nextListingId, msg.sender, _nftContractAddress, _nftId, _price, block.timestamp + _deadline) */\n      0xffffffffffffffffffffffffffffffffffffffff\n      and\n        /* \"venda_8_21.sol\":2488:2501  nextListingId */\n      sload(0x09)\n        /* \"venda_8_21.sol\":2478:2580  NFTListed(nextListingId, msg.sender, _nftContractAddress, _nftId, _price, block.timestamp + _deadline) */\n      0xf33c76fec15a03b2e414df8c9dce93f5b05f8672742e0f1eb558b2161162dfcb\n        /* \"venda_8_21.sol\":2536:2542  _nftId */\n      dup8\n        /* \"venda_8_21.sol\":2544:2550  _price */\n      dup8\n        /* \"venda_8_21.sol\":2570:2579  _deadline */\n      dup8\n        /* \"venda_8_21.sol\":2552:2567  block.timestamp */\n      timestamp\n        /* \"venda_8_21.sol\":2552:2579  block.timestamp + _deadline */\n      tag_117\n      swap2\n      swap1\n      tag_115\n      jump\t// in\n    tag_117:\n        /* \"venda_8_21.sol\":2478:2580  NFTListed(nextListingId, msg.sender, _nftContractAddress, _nftId, _price, block.timestamp + _deadline) */\n      mload(0x40)\n      tag_118\n      swap4\n      swap3\n      swap2\n      swap1\n      tag_119\n      jump\t// in\n    tag_118:\n      mload(0x40)\n      dup1\n      swap2\n      sub\n      swap1\n      log4\n        /* \"venda_8_21.sol\":2599:2612  nextListingId */\n      0x09\n      0x00\n        /* \"venda_8_21.sol\":2599:2614  nextListingId++ */\n      dup2\n      sload\n      dup1\n      swap3\n      swap2\n      swap1\n      tag_120\n      swap1\n      tag_121\n      jump\t// in\n    tag_120:\n      swap2\n      swap1\n      pop\n      sstore\n      pop\n        /* \"venda_8_21.sol\":1989:2621  {... */\n      pop\n        /* \"venda_8_21.sol\":1869:2621  function listNFT(address _nftContractAddress, uint256 _nftId, uint256 _price, uint256 _deadline) external whenNotPaused {... */\n      pop\n      pop\n      pop\n      pop\n      jump\t// out\n        /* \"venda_8_21.sol\":4446:4511  function unpause() external onlyOwner {... */\n    tag_30:\n        /* \"@openzeppelin/contracts/access/Ownable.sol\":1094:1107  _checkOwner() */\n      tag_123\n        /* \"@openzeppelin/contracts/access/Ownable.sol\":1094:1105  _checkOwner */\n      tag_124\n        /* \"@openzeppelin/contracts/access/Ownable.sol\":1094:1107  _checkOwner() */\n      jump\t// in\n    tag_123:\n        /* \"venda_8_21.sol\":4494:4504  _unpause() */\n      tag_126\n        /* \"venda_8_21.sol\":4494:4502  _unpause */\n      tag_127\n        /* \"venda_8_21.sol\":4494:4504  _unpause() */\n      jump\t// in\n    tag_126:\n        /* \"venda_8_21.sol\":4446:4511  function unpause() external onlyOwner {... */\n      jump\t// out\n        /* \"venda_8_21.sol\":2661:3907  function buyNFT(uint256 _listingId) external payable whenNotPaused nonReentrant {... */\n    tag_34:\n        /* \"@openzeppelin/contracts/security/Pausable.sol\":1239:1258  _requireNotPaused() */\n      tag_129\n        /* \"@openzeppelin/contracts/security/Pausable.sol\":1239:1256  _requireNotPaused */\n      tag_104\n        /* \"@openzeppelin/contracts/security/Pausable.sol\":1239:1258  _requireNotPaused() */\n      jump\t// in\n    tag_129:\n        /* \"@openzeppelin/contracts/security/ReentrancyGuard.sol\":2261:2282  _nonReentrantBefore() */\n      tag_131\n        /* \"@openzeppelin/contracts/security/ReentrancyGuard.sol\":2261:2280  _nonReentrantBefore */\n      tag_132\n        /* \"@openzeppelin/contracts/security/ReentrancyGuard.sol\":2261:2282  _nonReentrantBefore() */\n      jump\t// in\n    tag_131:\n        /* \"venda_8_21.sol\":2751:2774  Listing storage listing */\n      0x00\n        /* \"venda_8_21.sol\":2777:2785  listings */\n      0x08\n        /* \"venda_8_21.sol\":2777:2797  listings[_listingId] */\n      0x00\n        /* \"venda_8_21.sol\":2786:2796  _listingId */\n      dup4\n        /* \"venda_8_21.sol\":2777:2797  listings[_listingId] */\n      dup2\n      mstore\n      0x20\n      add\n      swap1\n      dup2\n      mstore\n      0x20\n      add\n      0x00\n      keccak256\n        /* \"venda_8_21.sol\":2751:2797  Listing storage listing = listings[_listingId] */\n      swap1\n      pop\n        /* \"venda_8_21.sol\":2841:2842  0 */\n      0x00\n        /* \"venda_8_21.sol\":2815:2843  listing.seller != address(0) */\n      0xffffffffffffffffffffffffffffffffffffffff\n      and\n        /* \"venda_8_21.sol\":2815:2822  listing */\n      dup2\n        /* \"venda_8_21.sol\":2815:2829  listing.seller */\n      0x02\n      add\n      0x00\n      swap1\n      sload\n      swap1\n      0x0100\n      exp\n      swap1\n      div\n      0xffffffffffffffffffffffffffffffffffffffff\n      and\n        /* \"venda_8_21.sol\":2815:2843  listing.seller != address(0) */\n      0xffffffffffffffffffffffffffffffffffffffff\n      and\n      sub\n        /* \"venda_8_21.sol\":2807:2871  require(listing.seller != address(0), \"Listing does not exist.\") */\n      tag_134\n      jumpi\n      mload(0x40)\n      0x08c379a000000000000000000000000000000000000000000000000000000000\n      dup2\n      mstore\n      0x04\n      add\n      tag_135\n      swap1\n      tag_136\n      jump\t// in\n    tag_135:\n      mload(0x40)\n      dup1\n      swap2\n      sub\n      swap1\n      revert\n    tag_134:\n        /* \"venda_8_21.sol\":2908:2915  listing */\n      dup1\n        /* \"venda_8_21.sol\":2908:2924  listing.deadline */\n      0x04\n      add\n      sload\n        /* \"venda_8_21.sol\":2889:2904  block.timestamp */\n      timestamp\n        /* \"venda_8_21.sol\":2889:2924  block.timestamp <= listing.deadline */\n      gt\n      iszero\n        /* \"venda_8_21.sol\":2881:2954  require(block.timestamp <= listing.deadline, \"This listing has expired.\") */\n      tag_137\n      jumpi\n      mload(0x40)\n      0x08c379a000000000000000000000000000000000000000000000000000000000\n      dup2\n      mstore\n      0x04\n      add\n      tag_138\n      swap1\n      tag_139\n      jump\t// in\n    tag_138:\n      mload(0x40)\n      dup1\n      swap2\n      sub\n      swap1\n      revert\n    tag_137:\n        /* \"venda_8_21.sol\":2985:2992  listing */\n      dup1\n        /* \"venda_8_21.sol\":2985:2998  listing.price */\n      0x03\n      add\n      sload\n        /* \"venda_8_21.sol\":2972:2981  msg.value */\n      callvalue\n        /* \"venda_8_21.sol\":2972:2998  msg.value == listing.price */\n      eq\n        /* \"venda_8_21.sol\":2964:3049  require(msg.value == listing.price, \"Sent value must be equal to the listing price.\") */\n      tag_140\n      jumpi\n      mload(0x40)\n      0x08c379a000000000000000000000000000000000000000000000000000000000\n      dup2\n      mstore\n      0x04\n      add\n      tag_141\n      swap1\n      tag_142\n      jump\t// in\n    tag_141:\n      mload(0x40)\n      dup1\n      swap2\n      sub\n      swap1\n      revert\n    tag_140:\n        /* \"venda_8_21.sol\":3068:3089  uint256 royaltyAmount */\n      0x00\n        /* \"venda_8_21.sol\":3130:3135  10000 */\n      0x2710\n        /* \"venda_8_21.sol\":3109:3126  royaltyPercentage */\n      sload(0x04)\n        /* \"venda_8_21.sol\":3093:3100  listing */\n      dup4\n        /* \"venda_8_21.sol\":3093:3106  listing.price */\n      0x03\n      add\n      sload\n        /* \"venda_8_21.sol\":3093:3126  listing.price * royaltyPercentage */\n      tag_143\n      swap2\n      swap1\n      tag_144\n      jump\t// in\n    tag_143:\n        /* \"venda_8_21.sol\":3092:3135  (listing.price * royaltyPercentage) / 10000 */\n      tag_145\n      swap2\n      swap1\n      tag_146\n      jump\t// in\n    tag_145:\n        /* \"venda_8_21.sol\":3068:3135  uint256 royaltyAmount = (listing.price * royaltyPercentage) / 10000 */\n      swap1\n      pop\n        /* \"venda_8_21.sol\":3145:3164  uint256 platformFee */\n      0x00\n        /* \"venda_8_21.sol\":3209:3214  10000 */\n      0x2710\n        /* \"venda_8_21.sol\":3184:3205  platformFeePercentage */\n      sload(0x05)\n        /* \"venda_8_21.sol\":3168:3175  listing */\n      dup5\n        /* \"venda_8_21.sol\":3168:3181  listing.price */\n      0x03\n      add\n      sload\n        /* \"venda_8_21.sol\":3168:3205  listing.price * platformFeePercentage */\n      tag_147\n      swap2\n      swap1\n      tag_144\n      jump\t// in\n    tag_147:\n        /* \"venda_8_21.sol\":3167:3214  (listing.price * platformFeePercentage) / 10000 */\n      tag_148\n      swap2\n      swap1\n      tag_146\n      jump\t// in\n    tag_148:\n        /* \"venda_8_21.sol\":3145:3214  uint256 platformFee = (listing.price * platformFeePercentage) / 10000 */\n      swap1\n      pop\n        /* \"venda_8_21.sol\":3224:3244  uint256 sellerAmount */\n      0x00\n        /* \"venda_8_21.sol\":3279:3290  platformFee */\n      dup2\n        /* \"venda_8_21.sol\":3263:3276  royaltyAmount */\n      dup4\n        /* \"venda_8_21.sol\":3247:3254  listing */\n      dup6\n        /* \"venda_8_21.sol\":3247:3260  listing.price */\n      0x03\n      add\n      sload\n        /* \"venda_8_21.sol\":3247:3276  listing.price - royaltyAmount */\n      tag_149\n      swap2\n      swap1\n      tag_150\n      jump\t// in\n    tag_149:\n        /* \"venda_8_21.sol\":3247:3290  listing.price - royaltyAmount - platformFee */\n      tag_151\n      swap2\n      swap1\n      tag_150\n      jump\t// in\n    tag_151:\n        /* \"venda_8_21.sol\":3224:3290  uint256 sellerAmount = listing.price - royaltyAmount - platformFee */\n      swap1\n      pop\n        /* \"venda_8_21.sol\":3309:3328  IERC721 nftContract */\n      0x00\n        /* \"venda_8_21.sol\":3339:3346  listing */\n      dup5\n        /* \"venda_8_21.sol\":3339:3365  listing.nftContractAddress */\n      0x00\n      add\n      0x00\n      swap1\n      sload\n      swap1\n      0x0100\n      exp\n      swap1\n      div\n      0xffffffffffffffffffffffffffffffffffffffff\n      and\n        /* \"venda_8_21.sol\":3309:3366  IERC721 nftContract = IERC721(listing.nftContractAddress) */\n      swap1\n      pop\n        /* \"venda_8_21.sol\":3422:3429  listing */\n      dup5\n        /* \"venda_8_21.sol\":3422:3436  listing.seller */\n      0x02\n      add\n      0x00\n      swap1\n      sload\n      swap1\n      0x0100\n      exp\n      swap1\n      div\n      0xffffffffffffffffffffffffffffffffffffffff\n      and\n        /* \"venda_8_21.sol\":3384:3436  nftContract.ownerOf(listing.nftId) == listing.seller */\n      0xffffffffffffffffffffffffffffffffffffffff\n      and\n        /* \"venda_8_21.sol\":3384:3395  nftContract */\n      dup2\n        /* \"venda_8_21.sol\":3384:3403  nftContract.ownerOf */\n      0xffffffffffffffffffffffffffffffffffffffff\n      and\n      0x6352211e\n        /* \"venda_8_21.sol\":3404:3411  listing */\n      dup8\n        /* \"venda_8_21.sol\":3404:3417  listing.nftId */\n      0x01\n      add\n      sload\n        /* \"venda_8_21.sol\":3384:3418  nftContract.ownerOf(listing.nftId) */\n      mload(0x40)\n      dup3\n      0xffffffff\n      and\n      0xe0\n      shl\n      dup2\n      mstore\n      0x04\n      add\n      tag_152\n      swap2\n      swap1\n      tag_60\n      jump\t// in\n    tag_152:\n      0x20\n      mload(0x40)\n      dup1\n      dup4\n      sub\n      dup2\n      dup7\n      gas\n      staticcall\n      iszero\n      dup1\n      iszero\n      tag_154\n      jumpi\n      returndatasize\n      0x00\n      dup1\n      returndatacopy\n      revert(0x00, returndatasize)\n    tag_154:\n      pop\n      pop\n      pop\n      pop\n      mload(0x40)\n      returndatasize\n      not(0x1f)\n      0x1f\n      dup3\n      add\n      and\n      dup3\n      add\n      dup1\n      0x40\n      mstore\n      pop\n      dup2\n      add\n      swap1\n      tag_155\n      swap2\n      swap1\n      tag_110\n      jump\t// in\n    tag_155:\n        /* \"venda_8_21.sol\":3384:3436  nftContract.ownerOf(listing.nftId) == listing.seller */\n      0xffffffffffffffffffffffffffffffffffffffff\n      and\n      eq\n        /* \"venda_8_21.sol\":3376:3471  require(nftContract.ownerOf(listing.nftId) == listing.seller, \"Seller no longer owns the NFT.\") */\n      tag_156\n      jumpi\n      mload(0x40)\n      0x08c379a000000000000000000000000000000000000000000000000000000000\n      dup2\n      mstore\n      0x04\n      add\n      tag_157\n      swap1\n      tag_158\n      jump\t// in\n    tag_157:\n      mload(0x40)\n      dup1\n      swap2\n      sub\n      swap1\n      revert\n    tag_156:\n        /* \"venda_8_21.sol\":3490:3501  nftContract */\n      dup1\n        /* \"venda_8_21.sol\":3490:3518  nftContract.safeTransferFrom */\n      0xffffffffffffffffffffffffffffffffffffffff\n      and\n      0x42842e0e\n        /* \"venda_8_21.sol\":3519:3526  listing */\n      dup7\n        /* \"venda_8_21.sol\":3519:3533  listing.seller */\n      0x02\n      add\n      0x00\n      swap1\n      sload\n      swap1\n      0x0100\n      exp\n      swap1\n      div\n      0xffffffffffffffffffffffffffffffffffffffff\n      and\n        /* \"venda_8_21.sol\":3535:3545  msg.sender */\n      caller\n        /* \"venda_8_21.sol\":3547:3554  listing */\n      dup9\n        /* \"venda_8_21.sol\":3547:3560  listing.nftId */\n      0x01\n      add\n      sload\n        /* \"venda_8_21.sol\":3490:3561  nftContract.safeTransferFrom(listing.seller, msg.sender, listing.nftId) */\n      mload(0x40)\n      dup5\n      0xffffffff\n      and\n      0xe0\n      shl\n      dup2\n      mstore\n      0x04\n      add\n      tag_159\n      swap4\n      swap3\n      swap2\n      swap1\n      tag_160\n      jump\t// in\n    tag_159:\n      0x00\n      mload(0x40)\n      dup1\n      dup4\n      sub\n      dup2\n      0x00\n      dup8\n      dup1\n      extcodesize\n      iszero\n      dup1\n      iszero\n      tag_161\n      jumpi\n      0x00\n      dup1\n      revert\n    tag_161:\n      pop\n      gas\n      call\n      iszero\n      dup1\n      iszero\n      tag_163\n      jumpi\n      returndatasize\n      0x00\n      dup1\n      returndatacopy\n      revert(0x00, returndatasize)\n    tag_163:\n      pop\n      pop\n      pop\n      pop\n        /* \"venda_8_21.sol\":3588:3595  listing */\n      dup5\n        /* \"venda_8_21.sol\":3588:3602  listing.seller */\n      0x02\n      add\n      0x00\n      swap1\n      sload\n      swap1\n      0x0100\n      exp\n      swap1\n      div\n      0xffffffffffffffffffffffffffffffffffffffff\n      and\n        /* \"venda_8_21.sol\":3580:3612  payable(listing.seller).transfer */\n      0xffffffffffffffffffffffffffffffffffffffff\n      and\n        /* \"venda_8_21.sol\":3580:3626  payable(listing.seller).transfer(sellerAmount) */\n      0x08fc\n        /* \"venda_8_21.sol\":3613:3625  sellerAmount */\n      dup4\n        /* \"venda_8_21.sol\":3580:3626  payable(listing.seller).transfer(sellerAmount) */\n      swap1\n      dup2\n      iszero\n      mul\n      swap1\n      mload(0x40)\n      0x00\n      mload(0x40)\n      dup1\n      dup4\n      sub\n      dup2\n      dup6\n      dup9\n      dup9\n      call\n      swap4\n      pop\n      pop\n      pop\n      pop\n      iszero\n      dup1\n      iszero\n      tag_165\n      jumpi\n      returndatasize\n      0x00\n      dup1\n      returndatacopy\n      revert(0x00, returndatasize)\n    tag_165:\n      pop\n        /* \"venda_8_21.sol\":3644:3658  royaltyAddress */\n      0x06\n      0x00\n      swap1\n      sload\n      swap1\n      0x0100\n      exp\n      swap1\n      div\n      0xffffffffffffffffffffffffffffffffffffffff\n      and\n        /* \"venda_8_21.sol\":3636:3668  payable(royaltyAddress).transfer */\n      0xffffffffffffffffffffffffffffffffffffffff\n      and\n        /* \"venda_8_21.sol\":3636:3683  payable(royaltyAddress).transfer(royaltyAmount) */\n      0x08fc\n        /* \"venda_8_21.sol\":3669:3682  royaltyAmount */\n      dup6\n        /* \"venda_8_21.sol\":3636:3683  payable(royaltyAddress).transfer(royaltyAmount) */\n      swap1\n      dup2\n      iszero\n      mul\n      swap1\n      mload(0x40)\n      0x00\n      mload(0x40)\n      dup1\n      dup4\n      sub\n      dup2\n      dup6\n      dup9\n      dup9\n      call\n      swap4\n      pop\n      pop\n      pop\n      pop\n      iszero\n      dup1\n      iszero\n      tag_167\n      jumpi\n      returndatasize\n      0x00\n      dup1\n      returndatacopy\n      revert(0x00, returndatasize)\n    tag_167:\n      pop\n        /* \"venda_8_21.sol\":3701:3719  platformFeeAddress */\n      0x07\n      0x00\n      swap1\n      sload\n      swap1\n      0x0100\n      exp\n      swap1\n      div\n      0xffffffffffffffffffffffffffffffffffffffff\n      and\n        /* \"venda_8_21.sol\":3693:3729  payable(platformFeeAddress).transfer */\n      0xffffffffffffffffffffffffffffffffffffffff\n      and\n        /* \"venda_8_21.sol\":3693:3742  payable(platformFeeAddress).transfer(platformFee) */\n      0x08fc\n        /* \"venda_8_21.sol\":3730:3741  platformFee */\n      dup5\n        /* \"venda_8_21.sol\":3693:3742  payable(platformFeeAddress).transfer(platformFee) */\n      swap1\n      dup2\n      iszero\n      mul\n      swap1\n      mload(0x40)\n      0x00\n      mload(0x40)\n      dup1\n      dup4\n      sub\n      dup2\n      dup6\n      dup9\n      dup9\n      call\n      swap4\n      pop\n      pop\n      pop\n      pop\n      iszero\n      dup1\n      iszero\n      tag_169\n      jumpi\n      returndatasize\n      0x00\n      dup1\n      returndatacopy\n      revert(0x00, returndatasize)\n    tag_169:\n      pop\n        /* \"venda_8_21.sol\":3802:3812  msg.sender */\n      caller\n        /* \"venda_8_21.sol\":3766:3828  NFTSold(_listingId, listing.seller, msg.sender, listing.price) */\n      0xffffffffffffffffffffffffffffffffffffffff\n      and\n        /* \"venda_8_21.sol\":3786:3793  listing */\n      dup6\n        /* \"venda_8_21.sol\":3786:3800  listing.seller */\n      0x02\n      add\n      0x00\n      swap1\n      sload\n      swap1\n      0x0100\n      exp\n      swap1\n      div\n      0xffffffffffffffffffffffffffffffffffffffff\n      and\n        /* \"venda_8_21.sol\":3766:3828  NFTSold(_listingId, listing.seller, msg.sender, listing.price) */\n      0xffffffffffffffffffffffffffffffffffffffff\n      and\n        /* \"venda_8_21.sol\":3774:3784  _listingId */\n      dup8\n        /* \"venda_8_21.sol\":3766:3828  NFTSold(_listingId, listing.seller, msg.sender, listing.price) */\n      0x8562eb94748e30bb0071e932744ce902b460c683474fcb3bfd567ffa16b1afb2\n        /* \"venda_8_21.sol\":3814:3821  listing */\n      dup9\n        /* \"venda_8_21.sol\":3814:3827  listing.price */\n      0x03\n      add\n      sload\n        /* \"venda_8_21.sol\":3766:3828  NFTSold(_listingId, listing.seller, msg.sender, listing.price) */\n      mload(0x40)\n      tag_170\n      swap2\n      swap1\n      tag_60\n      jump\t// in\n    tag_170:\n      mload(0x40)\n      dup1\n      swap2\n      sub\n      swap1\n      log4\n        /* \"venda_8_21.sol\":3880:3888  listings */\n      0x08\n        /* \"venda_8_21.sol\":3880:3900  listings[_listingId] */\n      0x00\n        /* \"venda_8_21.sol\":3889:3899  _listingId */\n      dup8\n        /* \"venda_8_21.sol\":3880:3900  listings[_listingId] */\n      dup2\n      mstore\n      0x20\n      add\n      swap1\n      dup2\n      mstore\n      0x20\n      add\n      0x00\n      keccak256\n      0x00\n        /* \"venda_8_21.sol\":3873:3900  delete listings[_listingId] */\n      dup1\n      dup3\n      add\n      exp(0x0100, 0x00)\n      dup2\n      sload\n      swap1\n      0xffffffffffffffffffffffffffffffffffffffff\n      mul\n      not\n      and\n      swap1\n      sstore\n      0x01\n      dup3\n      add\n      0x00\n      swap1\n      sstore\n      0x02\n      dup3\n      add\n      exp(0x0100, 0x00)\n      dup2\n      sload\n      swap1\n      0xffffffffffffffffffffffffffffffffffffffff\n      mul\n      not\n      and\n      swap1\n      sstore\n      0x03\n      dup3\n      add\n      0x00\n      swap1\n      sstore\n      0x04\n      dup3\n      add\n      0x00\n      swap1\n      sstore\n      pop\n      pop\n        /* \"venda_8_21.sol\":2741:3907  {... */\n      pop\n      pop\n      pop\n      pop\n      pop\n        /* \"@openzeppelin/contracts/security/ReentrancyGuard.sol\":2303:2323  _nonReentrantAfter() */\n      tag_171\n        /* \"@openzeppelin/contracts/security/ReentrancyGuard.sol\":2303:2321  _nonReentrantAfter */\n      tag_172\n        /* \"@openzeppelin/contracts/security/ReentrancyGuard.sol\":2303:2323  _nonReentrantAfter() */\n      jump\t// in\n    tag_171:\n        /* \"venda_8_21.sol\":2661:3907  function buyNFT(uint256 _listingId) external payable whenNotPaused nonReentrant {... */\n      pop\n      jump\t// out\n        /* \"@openzeppelin/contracts/security/Pausable.sol\":1615:1699  function paused() public view virtual returns (bool) {... */\n    tag_37:\n        /* \"@openzeppelin/contracts/security/Pausable.sol\":1662:1666  bool */\n      0x00\n        /* \"@openzeppelin/contracts/security/Pausable.sol\":1685:1692  _paused */\n      0x02\n      0x00\n      swap1\n      sload\n      swap1\n      0x0100\n      exp\n      swap1\n      div\n      0xff\n      and\n        /* \"@openzeppelin/contracts/security/Pausable.sol\":1678:1692  return _paused */\n      swap1\n      pop\n        /* \"@openzeppelin/contracts/security/Pausable.sol\":1615:1699  function paused() public view virtual returns (bool) {... */\n      swap1\n      jump\t// out\n        /* \"venda_8_21.sol\":4612:4943  function updateFeeAddresses(address _newRoyaltyAddress, address _newPlatformFeeAddress) external onlyOwner {... */\n    tag_44:\n        /* \"@openzeppelin/contracts/access/Ownable.sol\":1094:1107  _checkOwner() */\n      tag_175\n        /* \"@openzeppelin/contracts/access/Ownable.sol\":1094:1105  _checkOwner */\n      tag_124\n        /* \"@openzeppelin/contracts/access/Ownable.sol\":1094:1107  _checkOwner() */\n      jump\t// in\n    tag_175:\n        /* \"venda_8_21.sol\":4767:4768  0 */\n      0x00\n        /* \"venda_8_21.sol\":4737:4769  _newRoyaltyAddress != address(0) */\n      0xffffffffffffffffffffffffffffffffffffffff\n      and\n        /* \"venda_8_21.sol\":4737:4755  _newRoyaltyAddress */\n      dup3\n        /* \"venda_8_21.sol\":4737:4769  _newRoyaltyAddress != address(0) */\n      0xffffffffffffffffffffffffffffffffffffffff\n      and\n      eq\n      iszero\n        /* \"venda_8_21.sol\":4737:4809  _newRoyaltyAddress != address(0) && _newPlatformFeeAddress != address(0) */\n      dup1\n      iszero\n      tag_177\n      jumpi\n      pop\n        /* \"venda_8_21.sol\":4807:4808  0 */\n      0x00\n        /* \"venda_8_21.sol\":4773:4809  _newPlatformFeeAddress != address(0) */\n      0xffffffffffffffffffffffffffffffffffffffff\n      and\n        /* \"venda_8_21.sol\":4773:4795  _newPlatformFeeAddress */\n      dup2\n        /* \"venda_8_21.sol\":4773:4809  _newPlatformFeeAddress != address(0) */\n      0xffffffffffffffffffffffffffffffffffffffff\n      and\n      eq\n      iszero\n        /* \"venda_8_21.sol\":4737:4809  _newRoyaltyAddress != address(0) && _newPlatformFeeAddress != address(0) */\n    tag_177:\n        /* \"venda_8_21.sol\":4729:4838  require(_newRoyaltyAddress != address(0) && _newPlatformFeeAddress != address(0), \"Addresses cannot be zero\") */\n      tag_178\n      jumpi\n      mload(0x40)\n      0x08c379a000000000000000000000000000000000000000000000000000000000\n      dup2\n      mstore\n      0x04\n      add\n      tag_179\n      swap1\n      tag_180\n      jump\t// in\n    tag_179:\n      mload(0x40)\n      dup1\n      swap2\n      sub\n      swap1\n      revert\n    tag_178:\n        /* \"venda_8_21.sol\":4865:4883  _newRoyaltyAddress */\n      dup2\n        /* \"venda_8_21.sol\":4848:4862  royaltyAddress */\n      0x06\n      0x00\n        /* \"venda_8_21.sol\":4848:4883  royaltyAddress = _newRoyaltyAddress */\n      0x0100\n      exp\n      dup2\n      sload\n      dup2\n      0xffffffffffffffffffffffffffffffffffffffff\n      mul\n      not\n      and\n      swap1\n      dup4\n      0xffffffffffffffffffffffffffffffffffffffff\n      and\n      mul\n      or\n      swap1\n      sstore\n      pop\n        /* \"venda_8_21.sol\":4914:4936  _newPlatformFeeAddress */\n      dup1\n        /* \"venda_8_21.sol\":4893:4911  platformFeeAddress */\n      0x07\n      0x00\n        /* \"venda_8_21.sol\":4893:4936  platformFeeAddress = _newPlatformFeeAddress */\n      0x0100\n      exp\n      dup2\n      sload\n      dup2\n      0xffffffffffffffffffffffffffffffffffffffff\n      mul\n      not\n      and\n      swap1\n      dup4\n      0xffffffffffffffffffffffffffffffffffffffff\n      and\n      mul\n      or\n      swap1\n      sstore\n      pop\n        /* \"venda_8_21.sol\":4612:4943  function updateFeeAddresses(address _newRoyaltyAddress, address _newPlatformFeeAddress) external onlyOwner {... */\n      pop\n      pop\n      jump\t// out\n        /* \"@openzeppelin/contracts/access/Ownable.sol\":1824:1925  function renounceOwnership() public virtual onlyOwner {... */\n    tag_47:\n        /* \"@openzeppelin/contracts/access/Ownable.sol\":1094:1107  _checkOwner() */\n      tag_182\n        /* \"@openzeppelin/contracts/access/Ownable.sol\":1094:1105  _checkOwner */\n      tag_124\n        /* \"@openzeppelin/contracts/access/Ownable.sol\":1094:1107  _checkOwner() */\n      jump\t// in\n    tag_182:\n        /* \"@openzeppelin/contracts/access/Ownable.sol\":1888:1918  _transferOwnership(address(0)) */\n      tag_184\n        /* \"@openzeppelin/contracts/access/Ownable.sol\":1915:1916  0 */\n      0x00\n        /* \"@openzeppelin/contracts/access/Ownable.sol\":1888:1906  _transferOwnership */\n      tag_185\n        /* \"@openzeppelin/contracts/access/Ownable.sol\":1888:1918  _transferOwnership(address(0)) */\n      jump\t// in\n    tag_184:\n        /* \"@openzeppelin/contracts/access/Ownable.sol\":1824:1925  function renounceOwnership() public virtual onlyOwner {... */\n      jump\t// out\n        /* \"venda_8_21.sol\":5046:5278  function updateFeePercentages(uint256 _newRoyaltyPercentage, uint256 _newPlatformFeePercentage) external onlyOwner {... */\n    tag_52:\n        /* \"@openzeppelin/contracts/access/Ownable.sol\":1094:1107  _checkOwner() */\n      tag_187\n        /* \"@openzeppelin/contracts/access/Ownable.sol\":1094:1105  _checkOwner */\n      tag_124\n        /* \"@openzeppelin/contracts/access/Ownable.sol\":1094:1107  _checkOwner() */\n      jump\t// in\n    tag_187:\n        /* \"venda_8_21.sol\":5191:5212  _newRoyaltyPercentage */\n      dup2\n        /* \"venda_8_21.sol\":5171:5188  royaltyPercentage */\n      0x04\n        /* \"venda_8_21.sol\":5171:5212  royaltyPercentage = _newRoyaltyPercentage */\n      dup2\n      swap1\n      sstore\n      pop\n        /* \"venda_8_21.sol\":5246:5271  _newPlatformFeePercentage */\n      dup1\n        /* \"venda_8_21.sol\":5222:5243  platformFeePercentage */\n      0x05\n        /* \"venda_8_21.sol\":5222:5271  platformFeePercentage = _newPlatformFeePercentage */\n      dup2\n      swap1\n      sstore\n      pop\n        /* \"venda_8_21.sol\":5046:5278  function updateFeePercentages(uint256 _newRoyaltyPercentage, uint256 _newPlatformFeePercentage) external onlyOwner {... */\n      pop\n      pop\n      jump\t// out\n        /* \"venda_8_21.sol\":4305:4366  function pause() external onlyOwner {... */\n    tag_55:\n        /* \"@openzeppelin/contracts/access/Ownable.sol\":1094:1107  _checkOwner() */\n      tag_190\n        /* \"@openzeppelin/contracts/access/Ownable.sol\":1094:1105  _checkOwner */\n      tag_124\n        /* \"@openzeppelin/contracts/access/Ownable.sol\":1094:1107  _checkOwner() */\n      jump\t// in\n    tag_190:\n        /* \"venda_8_21.sol\":4351:4359  _pause() */\n      tag_192\n        /* \"venda_8_21.sol\":4351:4357  _pause */\n      tag_193\n        /* \"venda_8_21.sol\":4351:4359  _pause() */\n      jump\t// in\n    tag_192:\n        /* \"venda_8_21.sol\":4305:4366  function pause() external onlyOwner {... */\n      jump\t// out\n        /* \"venda_8_21.sol\":652:684  uint256 public royaltyPercentage */\n    tag_58:\n      sload(0x04)\n      dup2\n      jump\t// out\n        /* \"@openzeppelin/contracts/access/Ownable.sol\":1201:1286  function owner() public view virtual returns (address) {... */\n    tag_63:\n        /* \"@openzeppelin/contracts/access/Ownable.sol\":1247:1254  address */\n      0x00\n        /* \"@openzeppelin/contracts/access/Ownable.sol\":1273:1279  _owner */\n      dup1\n      0x00\n      swap1\n      sload\n      swap1\n      0x0100\n      exp\n      swap1\n      div\n      0xffffffffffffffffffffffffffffffffffffffff\n      and\n        /* \"@openzeppelin/contracts/access/Ownable.sol\":1266:1279  return _owner */\n      swap1\n      pop\n        /* \"@openzeppelin/contracts/access/Ownable.sol\":1201:1286  function owner() public view virtual returns (address) {... */\n      swap1\n      jump\t// out\n        /* \"venda_8_21.sol\":950:982  uint256 public nextListingId = 1 */\n    tag_68:\n      sload(0x09)\n      dup2\n      jump\t// out\n        /* \"venda_8_21.sol\":780:809  address public royaltyAddress */\n    tag_72:\n      0x06\n      0x00\n      swap1\n      sload\n      swap1\n      0x0100\n      exp\n      swap1\n      div\n      0xffffffffffffffffffffffffffffffffffffffff\n      and\n      dup2\n      jump\t// out\n        /* \"venda_8_21.sol\":3950:4227  function delistNFT(uint256 _listingId) external {... */\n    tag_77:\n        /* \"venda_8_21.sol\":4047:4057  msg.sender */\n      caller\n        /* \"venda_8_21.sol\":4016:4057  listings[_listingId].seller == msg.sender */\n      0xffffffffffffffffffffffffffffffffffffffff\n      and\n        /* \"venda_8_21.sol\":4016:4024  listings */\n      0x08\n        /* \"venda_8_21.sol\":4016:4036  listings[_listingId] */\n      0x00\n        /* \"venda_8_21.sol\":4025:4035  _listingId */\n      dup4\n        /* \"venda_8_21.sol\":4016:4036  listings[_listingId] */\n      dup2\n      mstore\n      0x20\n      add\n      swap1\n      dup2\n      mstore\n      0x20\n      add\n      0x00\n      keccak256\n        /* \"venda_8_21.sol\":4016:4043  listings[_listingId].seller */\n      0x02\n      add\n      0x00\n      swap1\n      sload\n      swap1\n      0x0100\n      exp\n      swap1\n      div\n      0xffffffffffffffffffffffffffffffffffffffff\n      and\n        /* \"venda_8_21.sol\":4016:4057  listings[_listingId].seller == msg.sender */\n      0xffffffffffffffffffffffffffffffffffffffff\n      and\n      eq\n        /* \"venda_8_21.sol\":4008:4101  require(listings[_listingId].seller == msg.sender, \"You are not the seller of this listing.\") */\n      tag_196\n      jumpi\n      mload(0x40)\n      0x08c379a000000000000000000000000000000000000000000000000000000000\n      dup2\n      mstore\n      0x04\n      add\n      tag_197\n      swap1\n      tag_198\n      jump\t// in\n    tag_197:\n      mload(0x40)\n      dup1\n      swap2\n      sub\n      swap1\n      revert\n    tag_196:\n        /* \"venda_8_21.sol\":4153:4161  listings */\n      0x08\n        /* \"venda_8_21.sol\":4153:4173  listings[_listingId] */\n      0x00\n        /* \"venda_8_21.sol\":4162:4172  _listingId */\n      dup3\n        /* \"venda_8_21.sol\":4153:4173  listings[_listingId] */\n      dup2\n      mstore\n      0x20\n      add\n      swap1\n      dup2\n      mstore\n      0x20\n      add\n      0x00\n      keccak256\n      0x00\n        /* \"venda_8_21.sol\":4146:4173  delete listings[_listingId] */\n      dup1\n      dup3\n      add\n      exp(0x0100, 0x00)\n      dup2\n      sload\n      swap1\n      0xffffffffffffffffffffffffffffffffffffffff\n      mul\n      not\n      and\n      swap1\n      sstore\n      0x01\n      dup3\n      add\n      0x00\n      swap1\n      sstore\n      0x02\n      dup3\n      add\n      exp(0x0100, 0x00)\n      dup2\n      sload\n      swap1\n      0xffffffffffffffffffffffffffffffffffffffff\n      mul\n      not\n      and\n      swap1\n      sstore\n      0x03\n      dup3\n      add\n      0x00\n      swap1\n      sstore\n      0x04\n      dup3\n      add\n      0x00\n      swap1\n      sstore\n      pop\n      pop\n        /* \"venda_8_21.sol\":4209:4219  _listingId */\n      dup1\n        /* \"venda_8_21.sol\":4197:4220  NFTDelisted(_listingId) */\n      0xc0c55a6edead4433d18cb1e287a0a20a2fa003a6f483bc9823d2e504d70d1c67\n      mload(0x40)\n      mload(0x40)\n      dup1\n      swap2\n      sub\n      swap1\n      log2\n        /* \"venda_8_21.sol\":3950:4227  function delistNFT(uint256 _listingId) external {... */\n      pop\n      jump\t// out\n        /* \"venda_8_21.sol\":691:727  uint256 public platformFeePercentage */\n    tag_80:\n      sload(0x05)\n      dup2\n      jump\t// out\n        /* \"venda_8_21.sol\":896:939  mapping(uint256 => Listing) public listings */\n    tag_85:\n      mstore(0x20, 0x08)\n      dup1\n      0x00\n      mstore\n      keccak256(0x00, 0x40)\n      0x00\n      swap2\n      pop\n      swap1\n      pop\n      dup1\n      0x00\n      add\n      0x00\n      swap1\n      sload\n      swap1\n      0x0100\n      exp\n      swap1\n      div\n      0xffffffffffffffffffffffffffffffffffffffff\n      and\n      swap1\n      dup1\n      0x01\n      add\n      sload\n      swap1\n      dup1\n      0x02\n      add\n      0x00\n      swap1\n      sload\n      swap1\n      0x0100\n      exp\n      swap1\n      div\n      0xffffffffffffffffffffffffffffffffffffffff\n      and\n      swap1\n      dup1\n      0x03\n      add\n      sload\n      swap1\n      dup1\n      0x04\n      add\n      sload\n      swap1\n      pop\n      dup6\n      jump\t// out\n        /* \"venda_8_21.sol\":564:597  uint256[] public activeListingIds */\n    tag_91:\n      0x03\n      dup2\n      dup2\n      sload\n      dup2\n      lt\n      tag_199\n      jumpi\n      0x00\n      dup1\n      revert\n    tag_199:\n      swap1\n      0x00\n      mstore\n      keccak256(0x00, 0x20)\n      add\n      0x00\n      swap2\n      pop\n      swap1\n      pop\n      sload\n      dup2\n      jump\t// out\n        /* \"venda_8_21.sol\":815:848  address public platformFeeAddress */\n    tag_95:\n      0x07\n      0x00\n      swap1\n      sload\n      swap1\n      0x0100\n      exp\n      swap1\n      div\n      0xffffffffffffffffffffffffffffffffffffffff\n      and\n      dup2\n      jump\t// out\n        /* \"@openzeppelin/contracts/access/Ownable.sol\":2074:2272  function transferOwnership(address newOwner) public virtual onlyOwner {... */\n    tag_101:\n        /* \"@openzeppelin/contracts/access/Ownable.sol\":1094:1107  _checkOwner() */\n      tag_202\n        /* \"@openzeppelin/contracts/access/Ownable.sol\":1094:1105  _checkOwner */\n      tag_124\n        /* \"@openzeppelin/contracts/access/Ownable.sol\":1094:1107  _checkOwner() */\n      jump\t// in\n    tag_202:\n        /* \"@openzeppelin/contracts/access/Ownable.sol\":2182:2183  0 */\n      0x00\n        /* \"@openzeppelin/contracts/access/Ownable.sol\":2162:2184  newOwner != address(0) */\n      0xffffffffffffffffffffffffffffffffffffffff\n      and\n        /* \"@openzeppelin/contracts/access/Ownable.sol\":2162:2170  newOwner */\n      dup2\n        /* \"@openzeppelin/contracts/access/Ownable.sol\":2162:2184  newOwner != address(0) */\n      0xffffffffffffffffffffffffffffffffffffffff\n      and\n      sub\n        /* \"@openzeppelin/contracts/access/Ownable.sol\":2154:2227  require(newOwner != address(0), \"Ownable: new owner is the zero address\") */\n      tag_204\n      jumpi\n      mload(0x40)\n      0x08c379a000000000000000000000000000000000000000000000000000000000\n      dup2\n      mstore\n      0x04\n      add\n      tag_205\n      swap1\n      tag_206\n      jump\t// in\n    tag_205:\n      mload(0x40)\n      dup1\n      swap2\n      sub\n      swap1\n      revert\n    tag_204:\n        /* \"@openzeppelin/contracts/access/Ownable.sol\":2237:2265  _transferOwnership(newOwner) */\n      tag_207\n        /* \"@openzeppelin/contracts/access/Ownable.sol\":2256:2264  newOwner */\n      dup2\n        /* \"@openzeppelin/contracts/access/Ownable.sol\":2237:2255  _transferOwnership */\n      tag_185\n        /* \"@openzeppelin/contracts/access/Ownable.sol\":2237:2265  _transferOwnership(newOwner) */\n      jump\t// in\n    tag_207:\n        /* \"@openzeppelin/contracts/access/Ownable.sol\":2074:2272  function transferOwnership(address newOwner) public virtual onlyOwner {... */\n      pop\n      jump\t// out\n        /* \"@openzeppelin/contracts/security/Pausable.sol\":1767:1873  function _requireNotPaused() internal view virtual {... */\n    tag_104:\n        /* \"@openzeppelin/contracts/security/Pausable.sol\":1837:1845  paused() */\n      tag_209\n        /* \"@openzeppelin/contracts/security/Pausable.sol\":1837:1843  paused */\n      tag_37\n        /* \"@openzeppelin/contracts/security/Pausable.sol\":1837:1845  paused() */\n      jump\t// in\n    tag_209:\n        /* \"@openzeppelin/contracts/security/Pausable.sol\":1836:1845  !paused() */\n      iszero\n        /* \"@openzeppelin/contracts/security/Pausable.sol\":1828:1866  require(!paused(), \"Pausable: paused\") */\n      tag_210\n      jumpi\n      mload(0x40)\n      0x08c379a000000000000000000000000000000000000000000000000000000000\n      dup2\n      mstore\n      0x04\n      add\n      tag_211\n      swap1\n      tag_212\n      jump\t// in\n    tag_211:\n      mload(0x40)\n      dup1\n      swap2\n      sub\n      swap1\n      revert\n    tag_210:\n        /* \"@openzeppelin/contracts/security/Pausable.sol\":1767:1873  function _requireNotPaused() internal view virtual {... */\n      jump\t// out\n        /* \"@openzeppelin/contracts/access/Ownable.sol\":1359:1489  function _checkOwner() internal view virtual {... */\n    tag_124:\n        /* \"@openzeppelin/contracts/access/Ownable.sol\":1433:1445  _msgSender() */\n      tag_214\n        /* \"@openzeppelin/contracts/access/Ownable.sol\":1433:1443  _msgSender */\n      tag_215\n        /* \"@openzeppelin/contracts/access/Ownable.sol\":1433:1445  _msgSender() */\n      jump\t// in\n    tag_214:\n        /* \"@openzeppelin/contracts/access/Ownable.sol\":1422:1445  owner() == _msgSender() */\n      0xffffffffffffffffffffffffffffffffffffffff\n      and\n        /* \"@openzeppelin/contracts/access/Ownable.sol\":1422:1429  owner() */\n      tag_216\n        /* \"@openzeppelin/contracts/access/Ownable.sol\":1422:1427  owner */\n      tag_63\n        /* \"@openzeppelin/contracts/access/Ownable.sol\":1422:1429  owner() */\n      jump\t// in\n    tag_216:\n        /* \"@openzeppelin/contracts/access/Ownable.sol\":1422:1445  owner() == _msgSender() */\n      0xffffffffffffffffffffffffffffffffffffffff\n      and\n      eq\n        /* \"@openzeppelin/contracts/access/Ownable.sol\":1414:1482  require(owner() == _msgSender(), \"Ownable: caller is not the owner\") */\n      tag_217\n      jumpi\n      mload(0x40)\n      0x08c379a000000000000000000000000000000000000000000000000000000000\n      dup2\n      mstore\n      0x04\n      add\n      tag_218\n      swap1\n      tag_219\n      jump\t// in\n    tag_218:\n      mload(0x40)\n      dup1\n      swap2\n      sub\n      swap1\n      revert\n    tag_217:\n        /* \"@openzeppelin/contracts/access/Ownable.sol\":1359:1489  function _checkOwner() internal view virtual {... */\n      jump\t// out\n        /* \"@openzeppelin/contracts/security/Pausable.sol\":2433:2550  function _unpause() internal virtual whenPaused {... */\n    tag_127:\n        /* \"@openzeppelin/contracts/security/Pausable.sol\":1486:1502  _requirePaused() */\n      tag_221\n        /* \"@openzeppelin/contracts/security/Pausable.sol\":1486:1500  _requirePaused */\n      tag_222\n        /* \"@openzeppelin/contracts/security/Pausable.sol\":1486:1502  _requirePaused() */\n      jump\t// in\n    tag_221:\n        /* \"@openzeppelin/contracts/security/Pausable.sol\":2501:2506  false */\n      0x00\n        /* \"@openzeppelin/contracts/security/Pausable.sol\":2491:2498  _paused */\n      0x02\n      0x00\n        /* \"@openzeppelin/contracts/security/Pausable.sol\":2491:2506  _paused = false */\n      0x0100\n      exp\n      dup2\n      sload\n      dup2\n      0xff\n      mul\n      not\n      and\n      swap1\n      dup4\n      iszero\n      iszero\n      mul\n      or\n      swap1\n      sstore\n      pop\n        /* \"@openzeppelin/contracts/security/Pausable.sol\":2521:2543  Unpaused(_msgSender()) */\n      0x5db9ee0a495bf2e6ff9c91a7834c1ba4fdd244a5e8aa4e537bd38aeae4b073aa\n        /* \"@openzeppelin/contracts/security/Pausable.sol\":2530:2542  _msgSender() */\n      tag_224\n        /* \"@openzeppelin/contracts/security/Pausable.sol\":2530:2540  _msgSender */\n      tag_215\n        /* \"@openzeppelin/contracts/security/Pausable.sol\":2530:2542  _msgSender() */\n      jump\t// in\n    tag_224:\n        /* \"@openzeppelin/contracts/security/Pausable.sol\":2521:2543  Unpaused(_msgSender()) */\n      mload(0x40)\n      tag_225\n      swap2\n      swap1\n      tag_65\n      jump\t// in\n    tag_225:\n      mload(0x40)\n      dup1\n      swap2\n      sub\n      swap1\n      log1\n        /* \"@openzeppelin/contracts/security/Pausable.sol\":2433:2550  function _unpause() internal virtual whenPaused {... */\n      jump\t// out\n        /* \"@openzeppelin/contracts/security/ReentrancyGuard.sol\":2336:2623  function _nonReentrantBefore() private {... */\n    tag_132:\n        /* \"@openzeppelin/contracts/security/ReentrancyGuard.sol\":1759:1760  2 */\n      0x02\n        /* \"@openzeppelin/contracts/security/ReentrancyGuard.sol\":2468:2475  _status */\n      sload(0x01)\n        /* \"@openzeppelin/contracts/security/ReentrancyGuard.sol\":2468:2487  _status != _ENTERED */\n      sub\n        /* \"@openzeppelin/contracts/security/ReentrancyGuard.sol\":2460:2523  require(_status != _ENTERED, \"ReentrancyGuard: reentrant call\") */\n      tag_227\n      jumpi\n      mload(0x40)\n      0x08c379a000000000000000000000000000000000000000000000000000000000\n      dup2\n      mstore\n      0x04\n      add\n      tag_228\n      swap1\n      tag_229\n      jump\t// in\n    tag_228:\n      mload(0x40)\n      dup1\n      swap2\n      sub\n      swap1\n      revert\n    tag_227:\n        /* \"@openzeppelin/contracts/security/ReentrancyGuard.sol\":1759:1760  2 */\n      0x02\n        /* \"@openzeppelin/contracts/security/ReentrancyGuard.sol\":2598:2605  _status */\n      0x01\n        /* \"@openzeppelin/contracts/security/ReentrancyGuard.sol\":2598:2616  _status = _ENTERED */\n      dup2\n      swap1\n      sstore\n      pop\n        /* \"@openzeppelin/contracts/security/ReentrancyGuard.sol\":2336:2623  function _nonReentrantBefore() private {... */\n      jump\t// out\n        /* \"@openzeppelin/contracts/security/ReentrancyGuard.sol\":2629:2838  function _nonReentrantAfter() private {... */\n    tag_172:\n        /* \"@openzeppelin/contracts/security/ReentrancyGuard.sol\":1716:1717  1 */\n      0x01\n        /* \"@openzeppelin/contracts/security/ReentrancyGuard.sol\":2809:2816  _status */\n      dup1\n        /* \"@openzeppelin/contracts/security/ReentrancyGuard.sol\":2809:2831  _status = _NOT_ENTERED */\n      dup2\n      swap1\n      sstore\n      pop\n        /* \"@openzeppelin/contracts/security/ReentrancyGuard.sol\":2629:2838  function _nonReentrantAfter() private {... */\n      jump\t// out\n        /* \"@openzeppelin/contracts/access/Ownable.sol\":2426:2613  function _transferOwnership(address newOwner) internal virtual {... */\n    tag_185:\n        /* \"@openzeppelin/contracts/access/Ownable.sol\":2499:2515  address oldOwner */\n      0x00\n        /* \"@openzeppelin/contracts/access/Ownable.sol\":2518:2524  _owner */\n      dup1\n      0x00\n      swap1\n      sload\n      swap1\n      0x0100\n      exp\n      swap1\n      div\n      0xffffffffffffffffffffffffffffffffffffffff\n      and\n        /* \"@openzeppelin/contracts/access/Ownable.sol\":2499:2524  address oldOwner = _owner */\n      swap1\n      pop\n        /* \"@openzeppelin/contracts/access/Ownable.sol\":2543:2551  newOwner */\n      dup2\n        /* \"@openzeppelin/contracts/access/Ownable.sol\":2534:2540  _owner */\n      0x00\n      dup1\n        /* \"@openzeppelin/contracts/access/Ownable.sol\":2534:2551  _owner = newOwner */\n      0x0100\n      exp\n      dup2\n      sload\n      dup2\n      0xffffffffffffffffffffffffffffffffffffffff\n      mul\n      not\n      and\n      swap1\n      dup4\n      0xffffffffffffffffffffffffffffffffffffffff\n      and\n      mul\n      or\n      swap1\n      sstore\n      pop\n        /* \"@openzeppelin/contracts/access/Ownable.sol\":2597:2605  newOwner */\n      dup2\n        /* \"@openzeppelin/contracts/access/Ownable.sol\":2566:2606  OwnershipTransferred(oldOwner, newOwner) */\n      0xffffffffffffffffffffffffffffffffffffffff\n      and\n        /* \"@openzeppelin/contracts/access/Ownable.sol\":2587:2595  oldOwner */\n      dup2\n        /* \"@openzeppelin/contracts/access/Ownable.sol\":2566:2606  OwnershipTransferred(oldOwner, newOwner) */\n      0xffffffffffffffffffffffffffffffffffffffff\n      and\n      0x8be0079c531659141344cd1fd0a4f28419497f9722a3daafe3b4186f6b6457e0\n      mload(0x40)\n      mload(0x40)\n      dup1\n      swap2\n      sub\n      swap1\n      log3\n        /* \"@openzeppelin/contracts/access/Ownable.sol\":2489:2613  {... */\n      pop\n        /* \"@openzeppelin/contracts/access/Ownable.sol\":2426:2613  function _transferOwnership(address newOwner) internal virtual {... */\n      pop\n      jump\t// out\n        /* \"@openzeppelin/contracts/security/Pausable.sol\":2186:2301  function _pause() internal virtual whenNotPaused {... */\n    tag_193:\n        /* \"@openzeppelin/contracts/security/Pausable.sol\":1239:1258  _requireNotPaused() */\n      tag_233\n        /* \"@openzeppelin/contracts/security/Pausable.sol\":1239:1256  _requireNotPaused */\n      tag_104\n        /* \"@openzeppelin/contracts/security/Pausable.sol\":1239:1258  _requireNotPaused() */\n      jump\t// in\n    tag_233:\n        /* \"@openzeppelin/contracts/security/Pausable.sol\":2255:2259  true */\n      0x01\n        /* \"@openzeppelin/contracts/security/Pausable.sol\":2245:2252  _paused */\n      0x02\n      0x00\n        /* \"@openzeppelin/contracts/security/Pausable.sol\":2245:2259  _paused = true */\n      0x0100\n      exp\n      dup2\n      sload\n      dup2\n      0xff\n      mul\n      not\n      and\n      swap1\n      dup4\n      iszero\n      iszero\n      mul\n      or\n      swap1\n      sstore\n      pop\n        /* \"@openzeppelin/contracts/security/Pausable.sol\":2274:2294  Paused(_msgSender()) */\n      0x62e78cea01bee320cd4e420270b5ea74000d11b0c9f74754ebdbfc544b05a258\n        /* \"@openzeppelin/contracts/security/Pausable.sol\":2281:2293  _msgSender() */\n      tag_235\n        /* \"@openzeppelin/contracts/security/Pausable.sol\":2281:2291  _msgSender */\n      tag_215\n        /* \"@openzeppelin/contracts/security/Pausable.sol\":2281:2293  _msgSender() */\n      jump\t// in\n    tag_235:\n        /* \"@openzeppelin/contracts/security/Pausable.sol\":2274:2294  Paused(_msgSender()) */\n      mload(0x40)\n      tag_236\n      swap2\n      swap1\n      tag_65\n      jump\t// in\n    tag_236:\n      mload(0x40)\n      dup1\n      swap2\n      sub\n      swap1\n      log1\n        /* \"@openzeppelin/contracts/security/Pausable.sol\":2186:2301  function _pause() internal virtual whenNotPaused {... */\n      jump\t// out\n        /* \"@openzeppelin/contracts/utils/Context.sol\":640:736  function _msgSender() internal view virtual returns (address) {... */\n    tag_215:\n        /* \"@openzeppelin/contracts/utils/Context.sol\":693:700  address */\n      0x00\n        /* \"@openzeppelin/contracts/utils/Context.sol\":719:729  msg.sender */\n      caller\n        /* \"@openzeppelin/contracts/utils/Context.sol\":712:729  return msg.sender */\n      swap1\n      pop\n        /* \"@openzeppelin/contracts/utils/Context.sol\":640:736  function _msgSender() internal view virtual returns (address) {... */\n      swap1\n      jump\t// out\n        /* \"@openzeppelin/contracts/security/Pausable.sol\":1945:2051  function _requirePaused() internal view virtual {... */\n    tag_222:\n        /* \"@openzeppelin/contracts/security/Pausable.sol\":2011:2019  paused() */\n      tag_239\n        /* \"@openzeppelin/contracts/security/Pausable.sol\":2011:2017  paused */\n      tag_37\n        /* \"@openzeppelin/contracts/security/Pausable.sol\":2011:2019  paused() */\n      jump\t// in\n    tag_239:\n        /* \"@openzeppelin/contracts/security/Pausable.sol\":2003:2044  require(paused(), \"Pausable: not paused\") */\n      tag_240\n      jumpi\n      mload(0x40)\n      0x08c379a000000000000000000000000000000000000000000000000000000000\n      dup2\n      mstore\n      0x04\n      add\n      tag_241\n      swap1\n      tag_242\n      jump\t// in\n    tag_241:\n      mload(0x40)\n      dup1\n      swap2\n      sub\n      swap1\n      revert\n    tag_240:\n        /* \"@openzeppelin/contracts/security/Pausable.sol\":1945:2051  function _requirePaused() internal view virtual {... */\n      jump\t// out\n        /* \"#utility.yul\":88:205   */\n    tag_244:\n        /* \"#utility.yul\":197:198   */\n      0x00\n        /* \"#utility.yul\":194:195   */\n      dup1\n        /* \"#utility.yul\":187:199   */\n      revert\n        /* \"#utility.yul\":334:460   */\n    tag_246:\n        /* \"#utility.yul\":371:378   */\n      0x00\n        /* \"#utility.yul\":411:453   */\n      0xffffffffffffffffffffffffffffffffffffffff\n        /* \"#utility.yul\":404:409   */\n      dup3\n        /* \"#utility.yul\":400:454   */\n      and\n        /* \"#utility.yul\":389:454   */\n      swap1\n      pop\n        /* \"#utility.yul\":334:460   */\n      swap2\n      swap1\n      pop\n      jump\t// out\n        /* \"#utility.yul\":466:562   */\n    tag_247:\n        /* \"#utility.yul\":503:510   */\n      0x00\n        /* \"#utility.yul\":532:556   */\n      tag_291\n        /* \"#utility.yul\":550:555   */\n      dup3\n        /* \"#utility.yul\":532:556   */\n      tag_246\n      jump\t// in\n    tag_291:\n        /* \"#utility.yul\":521:556   */\n      swap1\n      pop\n        /* \"#utility.yul\":466:562   */\n      swap2\n      swap1\n      pop\n      jump\t// out\n        /* \"#utility.yul\":568:690   */\n    tag_248:\n        /* \"#utility.yul\":641:665   */\n      tag_293\n        /* \"#utility.yul\":659:664   */\n      dup2\n        /* \"#utility.yul\":641:665   */\n      tag_247\n      jump\t// in\n    tag_293:\n        /* \"#utility.yul\":634:639   */\n      dup2\n        /* \"#utility.yul\":631:666   */\n      eq\n        /* \"#utility.yul\":621:684   */\n      tag_294\n      jumpi\n        /* \"#utility.yul\":680:681   */\n      0x00\n        /* \"#utility.yul\":677:678   */\n      dup1\n        /* \"#utility.yul\":670:682   */\n      revert\n        /* \"#utility.yul\":621:684   */\n    tag_294:\n        /* \"#utility.yul\":568:690   */\n      pop\n      jump\t// out\n        /* \"#utility.yul\":696:835   */\n    tag_249:\n        /* \"#utility.yul\":742:747   */\n      0x00\n        /* \"#utility.yul\":780:786   */\n      dup2\n        /* \"#utility.yul\":767:787   */\n      calldataload\n        /* \"#utility.yul\":758:787   */\n      swap1\n      pop\n        /* \"#utility.yul\":796:829   */\n      tag_296\n        /* \"#utility.yul\":823:828   */\n      dup2\n        /* \"#utility.yul\":796:829   */\n      tag_248\n      jump\t// in\n    tag_296:\n        /* \"#utility.yul\":696:835   */\n      swap3\n      swap2\n      pop\n      pop\n      jump\t// out\n        /* \"#utility.yul\":841:918   */\n    tag_250:\n        /* \"#utility.yul\":878:885   */\n      0x00\n        /* \"#utility.yul\":907:912   */\n      dup2\n        /* \"#utility.yul\":896:912   */\n      swap1\n      pop\n        /* \"#utility.yul\":841:918   */\n      swap2\n      swap1\n      pop\n      jump\t// out\n        /* \"#utility.yul\":924:1046   */\n    tag_251:\n        /* \"#utility.yul\":997:1021   */\n      tag_299\n        /* \"#utility.yul\":1015:1020   */\n      dup2\n        /* \"#utility.yul\":997:1021   */\n      tag_250\n      jump\t// in\n    tag_299:\n        /* \"#utility.yul\":990:995   */\n      dup2\n        /* \"#utility.yul\":987:1022   */\n      eq\n        /* \"#utility.yul\":977:1040   */\n      tag_300\n      jumpi\n        /* \"#utility.yul\":1036:1037   */\n      0x00\n        /* \"#utility.yul\":1033:1034   */\n      dup1\n        /* \"#utility.yul\":1026:1038   */\n      revert\n        /* \"#utility.yul\":977:1040   */\n    tag_300:\n        /* \"#utility.yul\":924:1046   */\n      pop\n      jump\t// out\n        /* \"#utility.yul\":1052:1191   */\n    tag_252:\n        /* \"#utility.yul\":1098:1103   */\n      0x00\n        /* \"#utility.yul\":1136:1142   */\n      dup2\n        /* \"#utility.yul\":1123:1143   */\n      calldataload\n        /* \"#utility.yul\":1114:1143   */\n      swap1\n      pop\n        /* \"#utility.yul\":1152:1185   */\n      tag_302\n        /* \"#utility.yul\":1179:1184   */\n      dup2\n        /* \"#utility.yul\":1152:1185   */\n      tag_251\n      jump\t// in\n    tag_302:\n        /* \"#utility.yul\":1052:1191   */\n      swap3\n      swap2\n      pop\n      pop\n      jump\t// out\n        /* \"#utility.yul\":1197:1962   */\n    tag_26:\n        /* \"#utility.yul\":1283:1289   */\n      0x00\n        /* \"#utility.yul\":1291:1297   */\n      dup1\n        /* \"#utility.yul\":1299:1305   */\n      0x00\n        /* \"#utility.yul\":1307:1313   */\n      dup1\n        /* \"#utility.yul\":1356:1359   */\n      0x80\n        /* \"#utility.yul\":1344:1353   */\n      dup6\n        /* \"#utility.yul\":1335:1342   */\n      dup8\n        /* \"#utility.yul\":1331:1354   */\n      sub\n        /* \"#utility.yul\":1327:1360   */\n      slt\n        /* \"#utility.yul\":1324:1444   */\n      iszero\n      tag_304\n      jumpi\n        /* \"#utility.yul\":1363:1442   */\n      tag_305\n      tag_244\n      jump\t// in\n    tag_305:\n        /* \"#utility.yul\":1324:1444   */\n    tag_304:\n        /* \"#utility.yul\":1483:1484   */\n      0x00\n        /* \"#utility.yul\":1508:1561   */\n      tag_306\n        /* \"#utility.yul\":1553:1560   */\n      dup8\n        /* \"#utility.yul\":1544:1550   */\n      dup3\n        /* \"#utility.yul\":1533:1542   */\n      dup9\n        /* \"#utility.yul\":1529:1551   */\n      add\n        /* \"#utility.yul\":1508:1561   */\n      tag_249\n      jump\t// in\n    tag_306:\n        /* \"#utility.yul\":1498:1561   */\n      swap5\n      pop\n        /* \"#utility.yul\":1454:1571   */\n      pop\n        /* \"#utility.yul\":1610:1612   */\n      0x20\n        /* \"#utility.yul\":1636:1689   */\n      tag_307\n        /* \"#utility.yul\":1681:1688   */\n      dup8\n        /* \"#utility.yul\":1672:1678   */\n      dup3\n        /* \"#utility.yul\":1661:1670   */\n      dup9\n        /* \"#utility.yul\":1657:1679   */\n      add\n        /* \"#utility.yul\":1636:1689   */\n      tag_252\n      jump\t// in\n    tag_307:\n        /* \"#utility.yul\":1626:1689   */\n      swap4\n      pop\n        /* \"#utility.yul\":1581:1699   */\n      pop\n        /* \"#utility.yul\":1738:1740   */\n      0x40\n        /* \"#utility.yul\":1764:1817   */\n      tag_308\n        /* \"#utility.yul\":1809:1816   */\n      dup8\n        /* \"#utility.yul\":1800:1806   */\n      dup3\n        /* \"#utility.yul\":1789:1798   */\n      dup9\n        /* \"#utility.yul\":1785:1807   */\n      add\n        /* \"#utility.yul\":1764:1817   */\n      tag_252\n      jump\t// in\n    tag_308:\n        /* \"#utility.yul\":1754:1817   */\n      swap3\n      pop\n        /* \"#utility.yul\":1709:1827   */\n      pop\n        /* \"#utility.yul\":1866:1868   */\n      0x60\n        /* \"#utility.yul\":1892:1945   */\n      tag_309\n        /* \"#utility.yul\":1937:1944   */\n      dup8\n        /* \"#utility.yul\":1928:1934   */\n      dup3\n        /* \"#utility.yul\":1917:1926   */\n      dup9\n        /* \"#utility.yul\":1913:1935   */\n      add\n        /* \"#utility.yul\":1892:1945   */\n      tag_252\n      jump\t// in\n    tag_309:\n        /* \"#utility.yul\":1882:1945   */\n      swap2\n      pop\n        /* \"#utility.yul\":1837:1955   */\n      pop\n        /* \"#utility.yul\":1197:1962   */\n      swap3\n      swap6\n      swap2\n      swap5\n      pop\n      swap3\n      pop\n      jump\t// out\n        /* \"#utility.yul\":1968:2297   */\n    tag_33:\n        /* \"#utility.yul\":2027:2033   */\n      0x00\n        /* \"#utility.yul\":2076:2078   */\n      0x20\n        /* \"#utility.yul\":2064:2073   */\n      dup3\n        /* \"#utility.yul\":2055:2062   */\n      dup5\n        /* \"#utility.yul\":2051:2074   */\n      sub\n        /* \"#utility.yul\":2047:2079   */\n      slt\n        /* \"#utility.yul\":2044:2163   */\n      iszero\n      tag_311\n      jumpi\n        /* \"#utility.yul\":2082:2161   */\n      tag_312\n      tag_244\n      jump\t// in\n    tag_312:\n        /* \"#utility.yul\":2044:2163   */\n    tag_311:\n        /* \"#utility.yul\":2202:2203   */\n      0x00\n        /* \"#utility.yul\":2227:2280   */\n      tag_313\n        /* \"#utility.yul\":2272:2279   */\n      dup5\n        /* \"#utility.yul\":2263:2269   */\n      dup3\n        /* \"#utility.yul\":2252:2261   */\n      dup6\n        /* \"#utility.yul\":2248:2270   */\n      add\n        /* \"#utility.yul\":2227:2280   */\n      tag_252\n      jump\t// in\n    tag_313:\n        /* \"#utility.yul\":2217:2280   */\n      swap2\n      pop\n        /* \"#utility.yul\":2173:2290   */\n      pop\n        /* \"#utility.yul\":1968:2297   */\n      swap3\n      swap2\n      pop\n      pop\n      jump\t// out\n        /* \"#utility.yul\":2303:2393   */\n    tag_253:\n        /* \"#utility.yul\":2337:2344   */\n      0x00\n        /* \"#utility.yul\":2380:2385   */\n      dup2\n        /* \"#utility.yul\":2373:2386   */\n      iszero\n        /* \"#utility.yul\":2366:2387   */\n      iszero\n        /* \"#utility.yul\":2355:2387   */\n      swap1\n      pop\n        /* \"#utility.yul\":2303:2393   */\n      swap2\n      swap1\n      pop\n      jump\t// out\n        /* \"#utility.yul\":2399:2508   */\n    tag_254:\n        /* \"#utility.yul\":2480:2501   */\n      tag_316\n        /* \"#utility.yul\":2495:2500   */\n      dup2\n        /* \"#utility.yul\":2480:2501   */\n      tag_253\n      jump\t// in\n    tag_316:\n        /* \"#utility.yul\":2475:2478   */\n      dup3\n        /* \"#utility.yul\":2468:2502   */\n      mstore\n        /* \"#utility.yul\":2399:2508   */\n      pop\n      pop\n      jump\t// out\n        /* \"#utility.yul\":2514:2724   */\n    tag_39:\n        /* \"#utility.yul\":2601:2605   */\n      0x00\n        /* \"#utility.yul\":2639:2641   */\n      0x20\n        /* \"#utility.yul\":2628:2637   */\n      dup3\n        /* \"#utility.yul\":2624:2642   */\n      add\n        /* \"#utility.yul\":2616:2642   */\n      swap1\n      pop\n        /* \"#utility.yul\":2652:2717   */\n      tag_318\n        /* \"#utility.yul\":2714:2715   */\n      0x00\n        /* \"#utility.yul\":2703:2712   */\n      dup4\n        /* \"#utility.yul\":2699:2716   */\n      add\n        /* \"#utility.yul\":2690:2696   */\n      dup5\n        /* \"#utility.yul\":2652:2717   */\n      tag_254\n      jump\t// in\n    tag_318:\n        /* \"#utility.yul\":2514:2724   */\n      swap3\n      swap2\n      pop\n      pop\n      jump\t// out\n        /* \"#utility.yul\":2730:3204   */\n    tag_43:\n        /* \"#utility.yul\":2798:2804   */\n      0x00\n        /* \"#utility.yul\":2806:2812   */\n      dup1\n        /* \"#utility.yul\":2855:2857   */\n      0x40\n        /* \"#utility.yul\":2843:2852   */\n      dup4\n        /* \"#utility.yul\":2834:2841   */\n      dup6\n        /* \"#utility.yul\":2830:2853   */\n      sub\n        /* \"#utility.yul\":2826:2858   */\n      slt\n        /* \"#utility.yul\":2823:2942   */\n      iszero\n      tag_320\n      jumpi\n        /* \"#utility.yul\":2861:2940   */\n      tag_321\n      tag_244\n      jump\t// in\n    tag_321:\n        /* \"#utility.yul\":2823:2942   */\n    tag_320:\n        /* \"#utility.yul\":2981:2982   */\n      0x00\n        /* \"#utility.yul\":3006:3059   */\n      tag_322\n        /* \"#utility.yul\":3051:3058   */\n      dup6\n        /* \"#utility.yul\":3042:3048   */\n      dup3\n        /* \"#utility.yul\":3031:3040   */\n      dup7\n        /* \"#utility.yul\":3027:3049   */\n      add\n        /* \"#utility.yul\":3006:3059   */\n      tag_249\n      jump\t// in\n    tag_322:\n        /* \"#utility.yul\":2996:3059   */\n      swap3\n      pop\n        /* \"#utility.yul\":2952:3069   */\n      pop\n        /* \"#utility.yul\":3108:3110   */\n      0x20\n        /* \"#utility.yul\":3134:3187   */\n      tag_323\n        /* \"#utility.yul\":3179:3186   */\n      dup6\n        /* \"#utility.yul\":3170:3176   */\n      dup3\n        /* \"#utility.yul\":3159:3168   */\n      dup7\n        /* \"#utility.yul\":3155:3177   */\n      add\n        /* \"#utility.yul\":3134:3187   */\n      tag_249\n      jump\t// in\n    tag_323:\n        /* \"#utility.yul\":3124:3187   */\n      swap2\n      pop\n        /* \"#utility.yul\":3079:3197   */\n      pop\n        /* \"#utility.yul\":2730:3204   */\n      swap3\n      pop\n      swap3\n      swap1\n      pop\n      jump\t// out\n        /* \"#utility.yul\":3210:3684   */\n    tag_51:\n        /* \"#utility.yul\":3278:3284   */\n      0x00\n        /* \"#utility.yul\":3286:3292   */\n      dup1\n        /* \"#utility.yul\":3335:3337   */\n      0x40\n        /* \"#utility.yul\":3323:3332   */\n      dup4\n        /* \"#utility.yul\":3314:3321   */\n      dup6\n        /* \"#utility.yul\":3310:3333   */\n      sub\n        /* \"#utility.yul\":3306:3338   */\n      slt\n        /* \"#utility.yul\":3303:3422   */\n      iszero\n      tag_325\n      jumpi\n        /* \"#utility.yul\":3341:3420   */\n      tag_326\n      tag_244\n      jump\t// in\n    tag_326:\n        /* \"#utility.yul\":3303:3422   */\n    tag_325:\n        /* \"#utility.yul\":3461:3462   */\n      0x00\n        /* \"#utility.yul\":3486:3539   */\n      tag_327\n        /* \"#utility.yul\":3531:3538   */\n      dup6\n        /* \"#utility.yul\":3522:3528   */\n      dup3\n        /* \"#utility.yul\":3511:3520   */\n      dup7\n        /* \"#utility.yul\":3507:3529   */\n      add\n        /* \"#utility.yul\":3486:3539   */\n      tag_252\n      jump\t// in\n    tag_327:\n        /* \"#utility.yul\":3476:3539   */\n      swap3\n      pop\n        /* \"#utility.yul\":3432:3549   */\n      pop\n        /* \"#utility.yul\":3588:3590   */\n      0x20\n        /* \"#utility.yul\":3614:3667   */\n      tag_328\n        /* \"#utility.yul\":3659:3666   */\n      dup6\n        /* \"#utility.yul\":3650:3656   */\n      dup3\n        /* \"#utility.yul\":3639:3648   */\n      dup7\n        /* \"#utility.yul\":3635:3657   */\n      add\n        /* \"#utility.yul\":3614:3667   */\n      tag_252\n      jump\t// in\n    tag_328:\n        /* \"#utility.yul\":3604:3667   */\n      swap2\n      pop\n        /* \"#utility.yul\":3559:3677   */\n      pop\n        /* \"#utility.yul\":3210:3684   */\n      swap3\n      pop\n      swap3\n      swap1\n      pop\n      jump\t// out\n        /* \"#utility.yul\":3690:3808   */\n    tag_255:\n        /* \"#utility.yul\":3777:3801   */\n      tag_330\n        /* \"#utility.yul\":3795:3800   */\n      dup2\n        /* \"#utility.yul\":3777:3801   */\n      tag_250\n      jump\t// in\n    tag_330:\n        /* \"#utility.yul\":3772:3775   */\n      dup3\n        /* \"#utility.yul\":3765:3802   */\n      mstore\n        /* \"#utility.yul\":3690:3808   */\n      pop\n      pop\n      jump\t// out\n        /* \"#utility.yul\":3814:4036   */\n    tag_60:\n        /* \"#utility.yul\":3907:3911   */\n      0x00\n        /* \"#utility.yul\":3945:3947   */\n      0x20\n        /* \"#utility.yul\":3934:3943   */\n      dup3\n        /* \"#utility.yul\":3930:3948   */\n      add\n        /* \"#utility.yul\":3922:3948   */\n      swap1\n      pop\n        /* \"#utility.yul\":3958:4029   */\n      tag_332\n        /* \"#utility.yul\":4026:4027   */\n      0x00\n        /* \"#utility.yul\":4015:4024   */\n      dup4\n        /* \"#utility.yul\":4011:4028   */\n      add\n        /* \"#utility.yul\":4002:4008   */\n      dup5\n        /* \"#utility.yul\":3958:4029   */\n      tag_255\n      jump\t// in\n    tag_332:\n        /* \"#utility.yul\":3814:4036   */\n      swap3\n      swap2\n      pop\n      pop\n      jump\t// out\n        /* \"#utility.yul\":4042:4160   */\n    tag_256:\n        /* \"#utility.yul\":4129:4153   */\n      tag_334\n        /* \"#utility.yul\":4147:4152   */\n      dup2\n        /* \"#utility.yul\":4129:4153   */\n      tag_247\n      jump\t// in\n    tag_334:\n        /* \"#utility.yul\":4124:4127   */\n      dup3\n        /* \"#utility.yul\":4117:4154   */\n      mstore\n        /* \"#utility.yul\":4042:4160   */\n      pop\n      pop\n      jump\t// out\n        /* \"#utility.yul\":4166:4388   */\n    tag_65:\n        /* \"#utility.yul\":4259:4263   */\n      0x00\n        /* \"#utility.yul\":4297:4299   */\n      0x20\n        /* \"#utility.yul\":4286:4295   */\n      dup3\n        /* \"#utility.yul\":4282:4300   */\n      add\n        /* \"#utility.yul\":4274:4300   */\n      swap1\n      pop\n        /* \"#utility.yul\":4310:4381   */\n      tag_336\n        /* \"#utility.yul\":4378:4379   */\n      0x00\n        /* \"#utility.yul\":4367:4376   */\n      dup4\n        /* \"#utility.yul\":4363:4380   */\n      add\n        /* \"#utility.yul\":4354:4360   */\n      dup5\n        /* \"#utility.yul\":4310:4381   */\n      tag_256\n      jump\t// in\n    tag_336:\n        /* \"#utility.yul\":4166:4388   */\n      swap3\n      swap2\n      pop\n      pop\n      jump\t// out\n        /* \"#utility.yul\":4394:5058   */\n    tag_87:\n        /* \"#utility.yul\":4599:4603   */\n      0x00\n        /* \"#utility.yul\":4637:4640   */\n      0xa0\n        /* \"#utility.yul\":4626:4635   */\n      dup3\n        /* \"#utility.yul\":4622:4641   */\n      add\n        /* \"#utility.yul\":4614:4641   */\n      swap1\n      pop\n        /* \"#utility.yul\":4651:4722   */\n      tag_338\n        /* \"#utility.yul\":4719:4720   */\n      0x00\n        /* \"#utility.yul\":4708:4717   */\n      dup4\n        /* \"#utility.yul\":4704:4721   */\n      add\n        /* \"#utility.yul\":4695:4701   */\n      dup9\n        /* \"#utility.yul\":4651:4722   */\n      tag_256\n      jump\t// in\n    tag_338:\n        /* \"#utility.yul\":4732:4804   */\n      tag_339\n        /* \"#utility.yul\":4800:4802   */\n      0x20\n        /* \"#utility.yul\":4789:4798   */\n      dup4\n        /* \"#utility.yul\":4785:4803   */\n      add\n        /* \"#utility.yul\":4776:4782   */\n      dup8\n        /* \"#utility.yul\":4732:4804   */\n      tag_255\n      jump\t// in\n    tag_339:\n        /* \"#utility.yul\":4814:4886   */\n      tag_340\n        /* \"#utility.yul\":4882:4884   */\n      0x40\n        /* \"#utility.yul\":4871:4880   */\n      dup4\n        /* \"#utility.yul\":4867:4885   */\n      add\n        /* \"#utility.yul\":4858:4864   */\n      dup7\n        /* \"#utility.yul\":4814:4886   */\n      tag_256\n      jump\t// in\n    tag_340:\n        /* \"#utility.yul\":4896:4968   */\n      tag_341\n        /* \"#utility.yul\":4964:4966   */\n      0x60\n        /* \"#utility.yul\":4953:4962   */\n      dup4\n        /* \"#utility.yul\":4949:4967   */\n      add\n        /* \"#utility.yul\":4940:4946   */\n      dup6\n        /* \"#utility.yul\":4896:4968   */\n      tag_255\n      jump\t// in\n    tag_341:\n        /* \"#utility.yul\":4978:5051   */\n      tag_342\n        /* \"#utility.yul\":5046:5049   */\n      0x80\n        /* \"#utility.yul\":5035:5044   */\n      dup4\n        /* \"#utility.yul\":5031:5050   */\n      add\n        /* \"#utility.yul\":5022:5028   */\n      dup5\n        /* \"#utility.yul\":4978:5051   */\n      tag_255\n      jump\t// in\n    tag_342:\n        /* \"#utility.yul\":4394:5058   */\n      swap7\n      swap6\n      pop\n      pop\n      pop\n      pop\n      pop\n      pop\n      jump\t// out\n        /* \"#utility.yul\":5064:5393   */\n    tag_100:\n        /* \"#utility.yul\":5123:5129   */\n      0x00\n        /* \"#utility.yul\":5172:5174   */\n      0x20\n        /* \"#utility.yul\":5160:5169   */\n      dup3\n        /* \"#utility.yul\":5151:5158   */\n      dup5\n        /* \"#utility.yul\":5147:5170   */\n      sub\n        /* \"#utility.yul\":5143:5175   */\n      slt\n        /* \"#utility.yul\":5140:5259   */\n      iszero\n      tag_344\n      jumpi\n        /* \"#utility.yul\":5178:5257   */\n      tag_345\n      tag_244\n      jump\t// in\n    tag_345:\n        /* \"#utility.yul\":5140:5259   */\n    tag_344:\n        /* \"#utility.yul\":5298:5299   */\n      0x00\n        /* \"#utility.yul\":5323:5376   */\n      tag_346\n        /* \"#utility.yul\":5368:5375   */\n      dup5\n        /* \"#utility.yul\":5359:5365   */\n      dup3\n        /* \"#utility.yul\":5348:5357   */\n      dup6\n        /* \"#utility.yul\":5344:5366   */\n      add\n        /* \"#utility.yul\":5323:5376   */\n      tag_249\n      jump\t// in\n    tag_346:\n        /* \"#utility.yul\":5313:5376   */\n      swap2\n      pop\n        /* \"#utility.yul\":5269:5386   */\n      pop\n        /* \"#utility.yul\":5064:5393   */\n      swap3\n      swap2\n      pop\n      pop\n      jump\t// out\n        /* \"#utility.yul\":5399:5542   */\n    tag_257:\n        /* \"#utility.yul\":5456:5461   */\n      0x00\n        /* \"#utility.yul\":5487:5493   */\n      dup2\n        /* \"#utility.yul\":5481:5494   */\n      mload\n        /* \"#utility.yul\":5472:5494   */\n      swap1\n      pop\n        /* \"#utility.yul\":5503:5536   */\n      tag_348\n        /* \"#utility.yul\":5530:5535   */\n      dup2\n        /* \"#utility.yul\":5503:5536   */\n      tag_248\n      jump\t// in\n    tag_348:\n        /* \"#utility.yul\":5399:5542   */\n      swap3\n      swap2\n      pop\n      pop\n      jump\t// out\n        /* \"#utility.yul\":5548:5899   */\n    tag_110:\n        /* \"#utility.yul\":5618:5624   */\n      0x00\n        /* \"#utility.yul\":5667:5669   */\n      0x20\n        /* \"#utility.yul\":5655:5664   */\n      dup3\n        /* \"#utility.yul\":5646:5653   */\n      dup5\n        /* \"#utility.yul\":5642:5665   */\n      sub\n        /* \"#utility.yul\":5638:5670   */\n      slt\n        /* \"#utility.yul\":5635:5754   */\n      iszero\n      tag_350\n      jumpi\n        /* \"#utility.yul\":5673:5752   */\n      tag_351\n      tag_244\n      jump\t// in\n    tag_351:\n        /* \"#utility.yul\":5635:5754   */\n    tag_350:\n        /* \"#utility.yul\":5793:5794   */\n      0x00\n        /* \"#utility.yul\":5818:5882   */\n      tag_352\n        /* \"#utility.yul\":5874:5881   */\n      dup5\n        /* \"#utility.yul\":5865:5871   */\n      dup3\n        /* \"#utility.yul\":5854:5863   */\n      dup6\n        /* \"#utility.yul\":5850:5872   */\n      add\n        /* \"#utility.yul\":5818:5882   */\n      tag_257\n      jump\t// in\n    tag_352:\n        /* \"#utility.yul\":5808:5882   */\n      swap2\n      pop\n        /* \"#utility.yul\":5764:5892   */\n      pop\n        /* \"#utility.yul\":5548:5899   */\n      swap3\n      swap2\n      pop\n      pop\n      jump\t// out\n        /* \"#utility.yul\":5905:6074   */\n    tag_258:\n        /* \"#utility.yul\":5989:6000   */\n      0x00\n        /* \"#utility.yul\":6023:6029   */\n      dup3\n        /* \"#utility.yul\":6018:6021   */\n      dup3\n        /* \"#utility.yul\":6011:6030   */\n      mstore\n        /* \"#utility.yul\":6063:6067   */\n      0x20\n        /* \"#utility.yul\":6058:6061   */\n      dup3\n        /* \"#utility.yul\":6054:6068   */\n      add\n        /* \"#utility.yul\":6039:6068   */\n      swap1\n      pop\n        /* \"#utility.yul\":5905:6074   */\n      swap3\n      swap2\n      pop\n      pop\n      jump\t// out\n        /* \"#utility.yul\":6080:6262   */\n    tag_259:\n        /* \"#utility.yul\":6220:6254   */\n      0x596f75206d757374206f776e20746865204e465420746f206c6973742069742e\n        /* \"#utility.yul\":6216:6217   */\n      0x00\n        /* \"#utility.yul\":6208:6214   */\n      dup3\n        /* \"#utility.yul\":6204:6218   */\n      add\n        /* \"#utility.yul\":6197:6255   */\n      mstore\n        /* \"#utility.yul\":6080:6262   */\n      pop\n      jump\t// out\n        /* \"#utility.yul\":6268:6634   */\n    tag_260:\n        /* \"#utility.yul\":6410:6413   */\n      0x00\n        /* \"#utility.yul\":6431:6498   */\n      tag_356\n        /* \"#utility.yul\":6495:6497   */\n      0x20\n        /* \"#utility.yul\":6490:6493   */\n      dup4\n        /* \"#utility.yul\":6431:6498   */\n      tag_258\n      jump\t// in\n    tag_356:\n        /* \"#utility.yul\":6424:6498   */\n      swap2\n      pop\n        /* \"#utility.yul\":6507:6600   */\n      tag_357\n        /* \"#utility.yul\":6596:6599   */\n      dup3\n        /* \"#utility.yul\":6507:6600   */\n      tag_259\n      jump\t// in\n    tag_357:\n        /* \"#utility.yul\":6625:6627   */\n      0x20\n        /* \"#utility.yul\":6620:6623   */\n      dup3\n        /* \"#utility.yul\":6616:6628   */\n      add\n        /* \"#utility.yul\":6609:6628   */\n      swap1\n      pop\n        /* \"#utility.yul\":6268:6634   */\n      swap2\n      swap1\n      pop\n      jump\t// out\n        /* \"#utility.yul\":6640:7059   */\n    tag_113:\n        /* \"#utility.yul\":6806:6810   */\n      0x00\n        /* \"#utility.yul\":6844:6846   */\n      0x20\n        /* \"#utility.yul\":6833:6842   */\n      dup3\n        /* \"#utility.yul\":6829:6847   */\n      add\n        /* \"#utility.yul\":6821:6847   */\n      swap1\n      pop\n        /* \"#utility.yul\":6893:6902   */\n      dup2\n        /* \"#utility.yul\":6887:6891   */\n      dup2\n        /* \"#utility.yul\":6883:6903   */\n      sub\n        /* \"#utility.yul\":6879:6880   */\n      0x00\n        /* \"#utility.yul\":6868:6877   */\n      dup4\n        /* \"#utility.yul\":6864:6881   */\n      add\n        /* \"#utility.yul\":6857:6904   */\n      mstore\n        /* \"#utility.yul\":6921:7052   */\n      tag_359\n        /* \"#utility.yul\":7047:7051   */\n      dup2\n        /* \"#utility.yul\":6921:7052   */\n      tag_260\n      jump\t// in\n    tag_359:\n        /* \"#utility.yul\":6913:7052   */\n      swap1\n      pop\n        /* \"#utility.yul\":6640:7059   */\n      swap2\n      swap1\n      pop\n      jump\t// out\n        /* \"#utility.yul\":7065:7245   */\n    tag_261:\n        /* \"#utility.yul\":7113:7190   */\n      0x4e487b7100000000000000000000000000000000000000000000000000000000\n        /* \"#utility.yul\":7110:7111   */\n      0x00\n        /* \"#utility.yul\":7103:7191   */\n      mstore\n        /* \"#utility.yul\":7210:7214   */\n      0x11\n        /* \"#utility.yul\":7207:7208   */\n      0x04\n        /* \"#utility.yul\":7200:7215   */\n      mstore\n        /* \"#utility.yul\":7234:7238   */\n      0x24\n        /* \"#utility.yul\":7231:7232   */\n      0x00\n        /* \"#utility.yul\":7224:7239   */\n      revert\n        /* \"#utility.yul\":7251:7442   */\n    tag_115:\n        /* \"#utility.yul\":7291:7294   */\n      0x00\n        /* \"#utility.yul\":7310:7330   */\n      tag_362\n        /* \"#utility.yul\":7328:7329   */\n      dup3\n        /* \"#utility.yul\":7310:7330   */\n      tag_250\n      jump\t// in\n    tag_362:\n        /* \"#utility.yul\":7305:7330   */\n      swap2\n      pop\n        /* \"#utility.yul\":7344:7364   */\n      tag_363\n        /* \"#utility.yul\":7362:7363   */\n      dup4\n        /* \"#utility.yul\":7344:7364   */\n      tag_250\n      jump\t// in\n    tag_363:\n        /* \"#utility.yul\":7339:7364   */\n      swap3\n      pop\n        /* \"#utility.yul\":7387:7388   */\n      dup3\n        /* \"#utility.yul\":7384:7385   */\n      dup3\n        /* \"#utility.yul\":7380:7389   */\n      add\n        /* \"#utility.yul\":7373:7389   */\n      swap1\n      pop\n        /* \"#utility.yul\":7408:7411   */\n      dup1\n        /* \"#utility.yul\":7405:7406   */\n      dup3\n        /* \"#utility.yul\":7402:7412   */\n      gt\n        /* \"#utility.yul\":7399:7435   */\n      iszero\n      tag_364\n      jumpi\n        /* \"#utility.yul\":7415:7433   */\n      tag_365\n      tag_261\n      jump\t// in\n    tag_365:\n        /* \"#utility.yul\":7399:7435   */\n    tag_364:\n        /* \"#utility.yul\":7251:7442   */\n      swap3\n      swap2\n      pop\n      pop\n      jump\t// out\n        /* \"#utility.yul\":7448:7890   */\n    tag_119:\n        /* \"#utility.yul\":7597:7601   */\n      0x00\n        /* \"#utility.yul\":7635:7637   */\n      0x60\n        /* \"#utility.yul\":7624:7633   */\n      dup3\n        /* \"#utility.yul\":7620:7638   */\n      add\n        /* \"#utility.yul\":7612:7638   */\n      swap1\n      pop\n        /* \"#utility.yul\":7648:7719   */\n      tag_367\n        /* \"#utility.yul\":7716:7717   */\n      0x00\n        /* \"#utility.yul\":7705:7714   */\n      dup4\n        /* \"#utility.yul\":7701:7718   */\n      add\n        /* \"#utility.yul\":7692:7698   */\n      dup7\n        /* \"#utility.yul\":7648:7719   */\n      tag_255\n      jump\t// in\n    tag_367:\n        /* \"#utility.yul\":7729:7801   */\n      tag_368\n        /* \"#utility.yul\":7797:7799   */\n      0x20\n        /* \"#utility.yul\":7786:7795   */\n      dup4\n        /* \"#utility.yul\":7782:7800   */\n      add\n        /* \"#utility.yul\":7773:7779   */\n      dup6\n        /* \"#utility.yul\":7729:7801   */\n      tag_255\n      jump\t// in\n    tag_368:\n        /* \"#utility.yul\":7811:7883   */\n      tag_369\n        /* \"#utility.yul\":7879:7881   */\n      0x40\n        /* \"#utility.yul\":7868:7877   */\n      dup4\n        /* \"#utility.yul\":7864:7882   */\n      add\n        /* \"#utility.yul\":7855:7861   */\n      dup5\n        /* \"#utility.yul\":7811:7883   */\n      tag_255\n      jump\t// in\n    tag_369:\n        /* \"#utility.yul\":7448:7890   */\n      swap5\n      swap4\n      pop\n      pop\n      pop\n      pop\n      jump\t// out\n        /* \"#utility.yul\":7896:8129   */\n    tag_121:\n        /* \"#utility.yul\":7935:7938   */\n      0x00\n        /* \"#utility.yul\":7958:7982   */\n      tag_371\n        /* \"#utility.yul\":7976:7981   */\n      dup3\n        /* \"#utility.yul\":7958:7982   */\n      tag_250\n      jump\t// in\n    tag_371:\n        /* \"#utility.yul\":7949:7982   */\n      swap2\n      pop\n        /* \"#utility.yul\":8004:8070   */\n      0xffffffffffffffffffffffffffffffffffffffffffffffffffffffffffffffff\n        /* \"#utility.yul\":7997:8002   */\n      dup3\n        /* \"#utility.yul\":7994:8071   */\n      sub\n        /* \"#utility.yul\":7991:8094   */\n      tag_372\n      jumpi\n        /* \"#utility.yul\":8074:8092   */\n      tag_373\n      tag_261\n      jump\t// in\n    tag_373:\n        /* \"#utility.yul\":7991:8094   */\n    tag_372:\n        /* \"#utility.yul\":8121:8122   */\n      0x01\n        /* \"#utility.yul\":8114:8119   */\n      dup3\n        /* \"#utility.yul\":8110:8123   */\n      add\n        /* \"#utility.yul\":8103:8123   */\n      swap1\n      pop\n        /* \"#utility.yul\":7896:8129   */\n      swap2\n      swap1\n      pop\n      jump\t// out\n        /* \"#utility.yul\":8135:8308   */\n    tag_262:\n        /* \"#utility.yul\":8275:8300   */\n      0x4c697374696e6720646f6573206e6f742065786973742e000000000000000000\n        /* \"#utility.yul\":8271:8272   */\n      0x00\n        /* \"#utility.yul\":8263:8269   */\n      dup3\n        /* \"#utility.yul\":8259:8273   */\n      add\n        /* \"#utility.yul\":8252:8301   */\n      mstore\n        /* \"#utility.yul\":8135:8308   */\n      pop\n      jump\t// out\n        /* \"#utility.yul\":8314:8680   */\n    tag_263:\n        /* \"#utility.yul\":8456:8459   */\n      0x00\n        /* \"#utility.yul\":8477:8544   */\n      tag_376\n        /* \"#utility.yul\":8541:8543   */\n      0x17\n        /* \"#utility.yul\":8536:8539   */\n      dup4\n        /* \"#utility.yul\":8477:8544   */\n      tag_258\n      jump\t// in\n    tag_376:\n        /* \"#utility.yul\":8470:8544   */\n      swap2\n      pop\n        /* \"#utility.yul\":8553:8646   */\n      tag_377\n        /* \"#utility.yul\":8642:8645   */\n      dup3\n        /* \"#utility.yul\":8553:8646   */\n      tag_262\n      jump\t// in\n    tag_377:\n        /* \"#utility.yul\":8671:8673   */\n      0x20\n        /* \"#utility.yul\":8666:8669   */\n      dup3\n        /* \"#utility.yul\":8662:8674   */\n      add\n        /* \"#utility.yul\":8655:8674   */\n      swap1\n      pop\n        /* \"#utility.yul\":8314:8680   */\n      swap2\n      swap1\n      pop\n      jump\t// out\n        /* \"#utility.yul\":8686:9105   */\n    tag_136:\n        /* \"#utility.yul\":8852:8856   */\n      0x00\n        /* \"#utility.yul\":8890:8892   */\n      0x20\n        /* \"#utility.yul\":8879:8888   */\n      dup3\n        /* \"#utility.yul\":8875:8893   */\n      add\n        /* \"#utility.yul\":8867:8893   */\n      swap1\n      pop\n        /* \"#utility.yul\":8939:8948   */\n      dup2\n        /* \"#utility.yul\":8933:8937   */\n      dup2\n        /* \"#utility.yul\":8929:8949   */\n      sub\n        /* \"#utility.yul\":8925:8926   */\n      0x00\n        /* \"#utility.yul\":8914:8923   */\n      dup4\n        /* \"#utility.yul\":8910:8927   */\n      add\n        /* \"#utility.yul\":8903:8950   */\n      mstore\n        /* \"#utility.yul\":8967:9098   */\n      tag_379\n        /* \"#utility.yul\":9093:9097   */\n      dup2\n        /* \"#utility.yul\":8967:9098   */\n      tag_263\n      jump\t// in\n    tag_379:\n        /* \"#utility.yul\":8959:9098   */\n      swap1\n      pop\n        /* \"#utility.yul\":8686:9105   */\n      swap2\n      swap1\n      pop\n      jump\t// out\n        /* \"#utility.yul\":9111:9286   */\n    tag_264:\n        /* \"#utility.yul\":9251:9278   */\n      0x54686973206c697374696e672068617320657870697265642e00000000000000\n        /* \"#utility.yul\":9247:9248   */\n      0x00\n        /* \"#utility.yul\":9239:9245   */\n      dup3\n        /* \"#utility.yul\":9235:9249   */\n      add\n        /* \"#utility.yul\":9228:9279   */\n      mstore\n        /* \"#utility.yul\":9111:9286   */\n      pop\n      jump\t// out\n        /* \"#utility.yul\":9292:9658   */\n    tag_265:\n        /* \"#utility.yul\":9434:9437   */\n      0x00\n        /* \"#utility.yul\":9455:9522   */\n      tag_382\n        /* \"#utility.yul\":9519:9521   */\n      0x19\n        /* \"#utility.yul\":9514:9517   */\n      dup4\n        /* \"#utility.yul\":9455:9522   */\n      tag_258\n      jump\t// in\n    tag_382:\n        /* \"#utility.yul\":9448:9522   */\n      swap2\n      pop\n        /* \"#utility.yul\":9531:9624   */\n      tag_383\n        /* \"#utility.yul\":9620:9623   */\n      dup3\n        /* \"#utility.yul\":9531:9624   */\n      tag_264\n      jump\t// in\n    tag_383:\n        /* \"#utility.yul\":9649:9651   */\n      0x20\n        /* \"#utility.yul\":9644:9647   */\n      dup3\n        /* \"#utility.yul\":9640:9652   */\n      add\n        /* \"#utility.yul\":9633:9652   */\n      swap1\n      pop\n        /* \"#utility.yul\":9292:9658   */\n      swap2\n      swap1\n      pop\n      jump\t// out\n        /* \"#utility.yul\":9664:10083   */\n    tag_139:\n        /* \"#utility.yul\":9830:9834   */\n      0x00\n        /* \"#utility.yul\":9868:9870   */\n      0x20\n        /* \"#utility.yul\":9857:9866   */\n      dup3\n        /* \"#utility.yul\":9853:9871   */\n      add\n        /* \"#utility.yul\":9845:9871   */\n      swap1\n      pop\n        /* \"#utility.yul\":9917:9926   */\n      dup2\n        /* \"#utility.yul\":9911:9915   */\n      dup2\n        /* \"#utility.yul\":9907:9927   */\n      sub\n        /* \"#utility.yul\":9903:9904   */\n      0x00\n        /* \"#utility.yul\":9892:9901   */\n      dup4\n        /* \"#utility.yul\":9888:9905   */\n      add\n        /* \"#utility.yul\":9881:9928   */\n      mstore\n        /* \"#utility.yul\":9945:10076   */\n      tag_385\n        /* \"#utility.yul\":10071:10075   */\n      dup2\n        /* \"#utility.yul\":9945:10076   */\n      tag_265\n      jump\t// in\n    tag_385:\n        /* \"#utility.yul\":9937:10076   */\n      swap1\n      pop\n        /* \"#utility.yul\":9664:10083   */\n      swap2\n      swap1\n      pop\n      jump\t// out\n        /* \"#utility.yul\":10089:10322   */\n    tag_266:\n        /* \"#utility.yul\":10229:10263   */\n      0x53656e742076616c7565206d75737420626520657175616c20746f2074686520\n        /* \"#utility.yul\":10225:10226   */\n      0x00\n        /* \"#utility.yul\":10217:10223   */\n      dup3\n        /* \"#utility.yul\":10213:10227   */\n      add\n        /* \"#utility.yul\":10206:10264   */\n      mstore\n        /* \"#utility.yul\":10298:10314   */\n      0x6c697374696e672070726963652e000000000000000000000000000000000000\n        /* \"#utility.yul\":10293:10295   */\n      0x20\n        /* \"#utility.yul\":10285:10291   */\n      dup3\n        /* \"#utility.yul\":10281:10296   */\n      add\n        /* \"#utility.yul\":10274:10315   */\n      mstore\n        /* \"#utility.yul\":10089:10322   */\n      pop\n      jump\t// out\n        /* \"#utility.yul\":10328:10694   */\n    tag_267:\n        /* \"#utility.yul\":10470:10473   */\n      0x00\n        /* \"#utility.yul\":10491:10558   */\n      tag_388\n        /* \"#utility.yul\":10555:10557   */\n      0x2e\n        /* \"#utility.yul\":10550:10553   */\n      dup4\n        /* \"#utility.yul\":10491:10558   */\n      tag_258\n      jump\t// in\n    tag_388:\n        /* \"#utility.yul\":10484:10558   */\n      swap2\n      pop\n        /* \"#utility.yul\":10567:10660   */\n      tag_389\n        /* \"#utility.yul\":10656:10659   */\n      dup3\n        /* \"#utility.yul\":10567:10660   */\n      tag_266\n      jump\t// in\n    tag_389:\n        /* \"#utility.yul\":10685:10687   */\n      0x40\n        /* \"#utility.yul\":10680:10683   */\n      dup3\n        /* \"#utility.yul\":10676:10688   */\n      add\n        /* \"#utility.yul\":10669:10688   */\n      swap1\n      pop\n        /* \"#utility.yul\":10328:10694   */\n      swap2\n      swap1\n      pop\n      jump\t// out\n        /* \"#utility.yul\":10700:11119   */\n    tag_142:\n        /* \"#utility.yul\":10866:10870   */\n      0x00\n        /* \"#utility.yul\":10904:10906   */\n      0x20\n        /* \"#utility.yul\":10893:10902   */\n      dup3\n        /* \"#utility.yul\":10889:10907   */\n      add\n        /* \"#utility.yul\":10881:10907   */\n      swap1\n      pop\n        /* \"#utility.yul\":10953:10962   */\n      dup2\n        /* \"#utility.yul\":10947:10951   */\n      dup2\n        /* \"#utility.yul\":10943:10963   */\n      sub\n        /* \"#utility.yul\":10939:10940   */\n      0x00\n        /* \"#utility.yul\":10928:10937   */\n      dup4\n        /* \"#utility.yul\":10924:10941   */\n      add\n        /* \"#utility.yul\":10917:10964   */\n      mstore\n        /* \"#utility.yul\":10981:11112   */\n      tag_391\n        /* \"#utility.yul\":11107:11111   */\n      dup2\n        /* \"#utility.yul\":10981:11112   */\n      tag_267\n      jump\t// in\n    tag_391:\n        /* \"#utility.yul\":10973:11112   */\n      swap1\n      pop\n        /* \"#utility.yul\":10700:11119   */\n      swap2\n      swap1\n      pop\n      jump\t// out\n        /* \"#utility.yul\":11125:11535   */\n    tag_144:\n        /* \"#utility.yul\":11165:11172   */\n      0x00\n        /* \"#utility.yul\":11188:11208   */\n      tag_393\n        /* \"#utility.yul\":11206:11207   */\n      dup3\n        /* \"#utility.yul\":11188:11208   */\n      tag_250\n      jump\t// in\n    tag_393:\n        /* \"#utility.yul\":11183:11208   */\n      swap2\n      pop\n        /* \"#utility.yul\":11222:11242   */\n      tag_394\n        /* \"#utility.yul\":11240:11241   */\n      dup4\n        /* \"#utility.yul\":11222:11242   */\n      tag_250\n      jump\t// in\n    tag_394:\n        /* \"#utility.yul\":11217:11242   */\n      swap3\n      pop\n        /* \"#utility.yul\":11277:11278   */\n      dup3\n        /* \"#utility.yul\":11274:11275   */\n      dup3\n        /* \"#utility.yul\":11270:11279   */\n      mul\n        /* \"#utility.yul\":11299:11329   */\n      tag_395\n        /* \"#utility.yul\":11317:11328   */\n      dup2\n        /* \"#utility.yul\":11299:11329   */\n      tag_250\n      jump\t// in\n    tag_395:\n        /* \"#utility.yul\":11288:11329   */\n      swap2\n      pop\n        /* \"#utility.yul\":11478:11479   */\n      dup3\n        /* \"#utility.yul\":11469:11476   */\n      dup3\n        /* \"#utility.yul\":11465:11480   */\n      div\n        /* \"#utility.yul\":11462:11463   */\n      dup5\n        /* \"#utility.yul\":11459:11481   */\n      eq\n        /* \"#utility.yul\":11439:11440   */\n      dup4\n        /* \"#utility.yul\":11432:11441   */\n      iszero\n        /* \"#utility.yul\":11412:11495   */\n      or\n        /* \"#utility.yul\":11389:11528   */\n      tag_396\n      jumpi\n        /* \"#utility.yul\":11508:11526   */\n      tag_397\n      tag_261\n      jump\t// in\n    tag_397:\n        /* \"#utility.yul\":11389:11528   */\n    tag_396:\n        /* \"#utility.yul\":11173:11535   */\n      pop\n        /* \"#utility.yul\":11125:11535   */\n      swap3\n      swap2\n      pop\n      pop\n      jump\t// out\n        /* \"#utility.yul\":11541:11721   */\n    tag_268:\n        /* \"#utility.yul\":11589:11666   */\n      0x4e487b7100000000000000000000000000000000000000000000000000000000\n        /* \"#utility.yul\":11586:11587   */\n      0x00\n        /* \"#utility.yul\":11579:11667   */\n      mstore\n        /* \"#utility.yul\":11686:11690   */\n      0x12\n        /* \"#utility.yul\":11683:11684   */\n      0x04\n        /* \"#utility.yul\":11676:11691   */\n      mstore\n        /* \"#utility.yul\":11710:11714   */\n      0x24\n        /* \"#utility.yul\":11707:11708   */\n      0x00\n        /* \"#utility.yul\":11700:11715   */\n      revert\n        /* \"#utility.yul\":11727:11912   */\n    tag_146:\n        /* \"#utility.yul\":11767:11768   */\n      0x00\n        /* \"#utility.yul\":11784:11804   */\n      tag_400\n        /* \"#utility.yul\":11802:11803   */\n      dup3\n        /* \"#utility.yul\":11784:11804   */\n      tag_250\n      jump\t// in\n    tag_400:\n        /* \"#utility.yul\":11779:11804   */\n      swap2\n      pop\n        /* \"#utility.yul\":11818:11838   */\n      tag_401\n        /* \"#utility.yul\":11836:11837   */\n      dup4\n        /* \"#utility.yul\":11818:11838   */\n      tag_250\n      jump\t// in\n    tag_401:\n        /* \"#utility.yul\":11813:11838   */\n      swap3\n      pop\n        /* \"#utility.yul\":11857:11858   */\n      dup3\n        /* \"#utility.yul\":11847:11882   */\n      tag_402\n      jumpi\n        /* \"#utility.yul\":11862:11880   */\n      tag_403\n      tag_268\n      jump\t// in\n    tag_403:\n        /* \"#utility.yul\":11847:11882   */\n    tag_402:\n        /* \"#utility.yul\":11904:11905   */\n      dup3\n        /* \"#utility.yul\":11901:11902   */\n      dup3\n        /* \"#utility.yul\":11897:11906   */\n      div\n        /* \"#utility.yul\":11892:11906   */\n      swap1\n      pop\n        /* \"#utility.yul\":11727:11912   */\n      swap3\n      swap2\n      pop\n      pop\n      jump\t// out\n        /* \"#utility.yul\":11918:12112   */\n    tag_150:\n        /* \"#utility.yul\":11958:11962   */\n      0x00\n        /* \"#utility.yul\":11978:11998   */\n      tag_405\n        /* \"#utility.yul\":11996:11997   */\n      dup3\n        /* \"#utility.yul\":11978:11998   */\n      tag_250\n      jump\t// in\n    tag_405:\n        /* \"#utility.yul\":11973:11998   */\n      swap2\n      pop\n        /* \"#utility.yul\":12012:12032   */\n      tag_406\n        /* \"#utility.yul\":12030:12031   */\n      dup4\n        /* \"#utility.yul\":12012:12032   */\n      tag_250\n      jump\t// in\n    tag_406:\n        /* \"#utility.yul\":12007:12032   */\n      swap3\n      pop\n        /* \"#utility.yul\":12056:12057   */\n      dup3\n        /* \"#utility.yul\":12053:12054   */\n      dup3\n        /* \"#utility.yul\":12049:12058   */\n      sub\n        /* \"#utility.yul\":12041:12058   */\n      swap1\n      pop\n        /* \"#utility.yul\":12080:12081   */\n      dup2\n        /* \"#utility.yul\":12074:12078   */\n      dup2\n        /* \"#utility.yul\":12071:12082   */\n      gt\n        /* \"#utility.yul\":12068:12105   */\n      iszero\n      tag_407\n      jumpi\n        /* \"#utility.yul\":12085:12103   */\n      tag_408\n      tag_261\n      jump\t// in\n    tag_408:\n        /* \"#utility.yul\":12068:12105   */\n    tag_407:\n        /* \"#utility.yul\":11918:12112   */\n      swap3\n      swap2\n      pop\n      pop\n      jump\t// out\n        /* \"#utility.yul\":12118:12298   */\n    tag_269:\n        /* \"#utility.yul\":12258:12290   */\n      0x53656c6c6572206e6f206c6f6e676572206f776e7320746865204e46542e0000\n        /* \"#utility.yul\":12254:12255   */\n      0x00\n        /* \"#utility.yul\":12246:12252   */\n      dup3\n        /* \"#utility.yul\":12242:12256   */\n      add\n        /* \"#utility.yul\":12235:12291   */\n      mstore\n        /* \"#utility.yul\":12118:12298   */\n      pop\n      jump\t// out\n        /* \"#utility.yul\":12304:12670   */\n    tag_270:\n        /* \"#utility.yul\":12446:12449   */\n      0x00\n        /* \"#utility.yul\":12467:12534   */\n      tag_411\n        /* \"#utility.yul\":12531:12533   */\n      0x1e\n        /* \"#utility.yul\":12526:12529   */\n      dup4\n        /* \"#utility.yul\":12467:12534   */\n      tag_258\n      jump\t// in\n    tag_411:\n        /* \"#utility.yul\":12460:12534   */\n      swap2\n      pop\n        /* \"#utility.yul\":12543:12636   */\n      tag_412\n        /* \"#utility.yul\":12632:12635   */\n      dup3\n        /* \"#utility.yul\":12543:12636   */\n      tag_269\n      jump\t// in\n    tag_412:\n        /* \"#utility.yul\":12661:12663   */\n      0x20\n        /* \"#utility.yul\":12656:12659   */\n      dup3\n        /* \"#utility.yul\":12652:12664   */\n      add\n        /* \"#utility.yul\":12645:12664   */\n      swap1\n      pop\n        /* \"#utility.yul\":12304:12670   */\n      swap2\n      swap1\n      pop\n      jump\t// out\n        /* \"#utility.yul\":12676:13095   */\n    tag_158:\n        /* \"#utility.yul\":12842:12846   */\n      0x00\n        /* \"#utility.yul\":12880:12882   */\n      0x20\n        /* \"#utility.yul\":12869:12878   */\n      dup3\n        /* \"#utility.yul\":12865:12883   */\n      add\n        /* \"#utility.yul\":12857:12883   */\n      swap1\n      pop\n        /* \"#utility.yul\":12929:12938   */\n      dup2\n        /* \"#utility.yul\":12923:12927   */\n      dup2\n        /* \"#utility.yul\":12919:12939   */\n      sub\n        /* \"#utility.yul\":12915:12916   */\n      0x00\n        /* \"#utility.yul\":12904:12913   */\n      dup4\n        /* \"#utility.yul\":12900:12917   */\n      add\n        /* \"#utility.yul\":12893:12940   */\n      mstore\n        /* \"#utility.yul\":12957:13088   */\n      tag_414\n        /* \"#utility.yul\":13083:13087   */\n      dup2\n        /* \"#utility.yul\":12957:13088   */\n      tag_270\n      jump\t// in\n    tag_414:\n        /* \"#utility.yul\":12949:13088   */\n      swap1\n      pop\n        /* \"#utility.yul\":12676:13095   */\n      swap2\n      swap1\n      pop\n      jump\t// out\n        /* \"#utility.yul\":13101:13543   */\n    tag_160:\n        /* \"#utility.yul\":13250:13254   */\n      0x00\n        /* \"#utility.yul\":13288:13290   */\n      0x60\n        /* \"#utility.yul\":13277:13286   */\n      dup3\n        /* \"#utility.yul\":13273:13291   */\n      add\n        /* \"#utility.yul\":13265:13291   */\n      swap1\n      pop\n        /* \"#utility.yul\":13301:13372   */\n      tag_416\n        /* \"#utility.yul\":13369:13370   */\n      0x00\n        /* \"#utility.yul\":13358:13367   */\n      dup4\n        /* \"#utility.yul\":13354:13371   */\n      add\n        /* \"#utility.yul\":13345:13351   */\n      dup7\n        /* \"#utility.yul\":13301:13372   */\n      tag_256\n      jump\t// in\n    tag_416:\n        /* \"#utility.yul\":13382:13454   */\n      tag_417\n        /* \"#utility.yul\":13450:13452   */\n      0x20\n        /* \"#utility.yul\":13439:13448   */\n      dup4\n        /* \"#utility.yul\":13435:13453   */\n      add\n        /* \"#utility.yul\":13426:13432   */\n      dup6\n        /* \"#utility.yul\":13382:13454   */\n      tag_256\n      jump\t// in\n    tag_417:\n        /* \"#utility.yul\":13464:13536   */\n      tag_418\n        /* \"#utility.yul\":13532:13534   */\n      0x40\n        /* \"#utility.yul\":13521:13530   */\n      dup4\n        /* \"#utility.yul\":13517:13535   */\n      add\n        /* \"#utility.yul\":13508:13514   */\n      dup5\n        /* \"#utility.yul\":13464:13536   */\n      tag_255\n      jump\t// in\n    tag_418:\n        /* \"#utility.yul\":13101:13543   */\n      swap5\n      swap4\n      pop\n      pop\n      pop\n      pop\n      jump\t// out\n        /* \"#utility.yul\":13549:13723   */\n    tag_271:\n        /* \"#utility.yul\":13689:13715   */\n      0x4164647265737365732063616e6e6f74206265207a65726f0000000000000000\n        /* \"#utility.yul\":13685:13686   */\n      0x00\n        /* \"#utility.yul\":13677:13683   */\n      dup3\n        /* \"#utility.yul\":13673:13687   */\n      add\n        /* \"#utility.yul\":13666:13716   */\n      mstore\n        /* \"#utility.yul\":13549:13723   */\n      pop\n      jump\t// out\n        /* \"#utility.yul\":13729:14095   */\n    tag_272:\n        /* \"#utility.yul\":13871:13874   */\n      0x00\n        /* \"#utility.yul\":13892:13959   */\n      tag_421\n        /* \"#utility.yul\":13956:13958   */\n      0x18\n        /* \"#utility.yul\":13951:13954   */\n      dup4\n        /* \"#utility.yul\":13892:13959   */\n      tag_258\n      jump\t// in\n    tag_421:\n        /* \"#utility.yul\":13885:13959   */\n      swap2\n      pop\n        /* \"#utility.yul\":13968:14061   */\n      tag_422\n        /* \"#utility.yul\":14057:14060   */\n      dup3\n        /* \"#utility.yul\":13968:14061   */\n      tag_271\n      jump\t// in\n    tag_422:\n        /* \"#utility.yul\":14086:14088   */\n      0x20\n        /* \"#utility.yul\":14081:14084   */\n      dup3\n        /* \"#utility.yul\":14077:14089   */\n      add\n        /* \"#utility.yul\":14070:14089   */\n      swap1\n      pop\n        /* \"#utility.yul\":13729:14095   */\n      swap2\n      swap1\n      pop\n      jump\t// out\n        /* \"#utility.yul\":14101:14520   */\n    tag_180:\n        /* \"#utility.yul\":14267:14271   */\n      0x00\n        /* \"#utility.yul\":14305:14307   */\n      0x20\n        /* \"#utility.yul\":14294:14303   */\n      dup3\n        /* \"#utility.yul\":14290:14308   */\n      add\n        /* \"#utility.yul\":14282:14308   */\n      swap1\n      pop\n        /* \"#utility.yul\":14354:14363   */\n      dup2\n        /* \"#utility.yul\":14348:14352   */\n      dup2\n        /* \"#utility.yul\":14344:14364   */\n      sub\n        /* \"#utility.yul\":14340:14341   */\n      0x00\n        /* \"#utility.yul\":14329:14338   */\n      dup4\n        /* \"#utility.yul\":14325:14342   */\n      add\n        /* \"#utility.yul\":14318:14365   */\n      mstore\n        /* \"#utility.yul\":14382:14513   */\n      tag_424\n        /* \"#utility.yul\":14508:14512   */\n      dup2\n        /* \"#utility.yul\":14382:14513   */\n      tag_272\n      jump\t// in\n    tag_424:\n        /* \"#utility.yul\":14374:14513   */\n      swap1\n      pop\n        /* \"#utility.yul\":14101:14520   */\n      swap2\n      swap1\n      pop\n      jump\t// out\n        /* \"#utility.yul\":14526:14752   */\n    tag_273:\n        /* \"#utility.yul\":14666:14700   */\n      0x596f7520617265206e6f74207468652073656c6c6572206f662074686973206c\n        /* \"#utility.yul\":14662:14663   */\n      0x00\n        /* \"#utility.yul\":14654:14660   */\n      dup3\n        /* \"#utility.yul\":14650:14664   */\n      add\n        /* \"#utility.yul\":14643:14701   */\n      mstore\n        /* \"#utility.yul\":14735:14744   */\n      0x697374696e672e00000000000000000000000000000000000000000000000000\n        /* \"#utility.yul\":14730:14732   */\n      0x20\n        /* \"#utility.yul\":14722:14728   */\n      dup3\n        /* \"#utility.yul\":14718:14733   */\n      add\n        /* \"#utility.yul\":14711:14745   */\n      mstore\n        /* \"#utility.yul\":14526:14752   */\n      pop\n      jump\t// out\n        /* \"#utility.yul\":14758:15124   */\n    tag_274:\n        /* \"#utility.yul\":14900:14903   */\n      0x00\n        /* \"#utility.yul\":14921:14988   */\n      tag_427\n        /* \"#utility.yul\":14985:14987   */\n      0x27\n        /* \"#utility.yul\":14980:14983   */\n      dup4\n        /* \"#utility.yul\":14921:14988   */\n      tag_258\n      jump\t// in\n    tag_427:\n        /* \"#utility.yul\":14914:14988   */\n      swap2\n      pop\n        /* \"#utility.yul\":14997:15090   */\n      tag_428\n        /* \"#utility.yul\":15086:15089   */\n      dup3\n        /* \"#utility.yul\":14997:15090   */\n      tag_273\n      jump\t// in\n    tag_428:\n        /* \"#utility.yul\":15115:15117   */\n      0x40\n        /* \"#utility.yul\":15110:15113   */\n      dup3\n        /* \"#utility.yul\":15106:15118   */\n      add\n        /* \"#utility.yul\":15099:15118   */\n      swap1\n      pop\n        /* \"#utility.yul\":14758:15124   */\n      swap2\n      swap1\n      pop\n      jump\t// out\n        /* \"#utility.yul\":15130:15549   */\n    tag_198:\n        /* \"#utility.yul\":15296:15300   */\n      0x00\n        /* \"#utility.yul\":15334:15336   */\n      0x20\n        /* \"#utility.yul\":15323:15332   */\n      dup3\n        /* \"#utility.yul\":15319:15337   */\n      add\n        /* \"#utility.yul\":15311:15337   */\n      swap1\n      pop\n        /* \"#utility.yul\":15383:15392   */\n      dup2\n        /* \"#utility.yul\":15377:15381   */\n      dup2\n        /* \"#utility.yul\":15373:15393   */\n      sub\n        /* \"#utility.yul\":15369:15370   */\n      0x00\n        /* \"#utility.yul\":15358:15367   */\n      dup4\n        /* \"#utility.yul\":15354:15371   */\n      add\n        /* \"#utility.yul\":15347:15394   */\n      mstore\n        /* \"#utility.yul\":15411:15542   */\n      tag_430\n        /* \"#utility.yul\":15537:15541   */\n      dup2\n        /* \"#utility.yul\":15411:15542   */\n      tag_274\n      jump\t// in\n    tag_430:\n        /* \"#utility.yul\":15403:15542   */\n      swap1\n      pop\n        /* \"#utility.yul\":15130:15549   */\n      swap2\n      swap1\n      pop\n      jump\t// out\n        /* \"#utility.yul\":15555:15780   */\n    tag_275:\n        /* \"#utility.yul\":15695:15729   */\n      0x4f776e61626c653a206e6577206f776e657220697320746865207a65726f2061\n        /* \"#utility.yul\":15691:15692   */\n      0x00\n        /* \"#utility.yul\":15683:15689   */\n      dup3\n        /* \"#utility.yul\":15679:15693   */\n      add\n        /* \"#utility.yul\":15672:15730   */\n      mstore\n        /* \"#utility.yul\":15764:15772   */\n      0x6464726573730000000000000000000000000000000000000000000000000000\n        /* \"#utility.yul\":15759:15761   */\n      0x20\n        /* \"#utility.yul\":15751:15757   */\n      dup3\n        /* \"#utility.yul\":15747:15762   */\n      add\n        /* \"#utility.yul\":15740:15773   */\n      mstore\n        /* \"#utility.yul\":15555:15780   */\n      pop\n      jump\t// out\n        /* \"#utility.yul\":15786:16152   */\n    tag_276:\n        /* \"#utility.yul\":15928:15931   */\n      0x00\n        /* \"#utility.yul\":15949:16016   */\n      tag_433\n        /* \"#utility.yul\":16013:16015   */\n      0x26\n        /* \"#utility.yul\":16008:16011   */\n      dup4\n        /* \"#utility.yul\":15949:16016   */\n      tag_258\n      jump\t// in\n    tag_433:\n        /* \"#utility.yul\":15942:16016   */\n      swap2\n      pop\n        /* \"#utility.yul\":16025:16118   */\n      tag_434\n        /* \"#utility.yul\":16114:16117   */\n      dup3\n        /* \"#utility.yul\":16025:16118   */\n      tag_275\n      jump\t// in\n    tag_434:\n        /* \"#utility.yul\":16143:16145   */\n      0x40\n        /* \"#utility.yul\":16138:16141   */\n      dup3\n        /* \"#utility.yul\":16134:16146   */\n      add\n        /* \"#utility.yul\":16127:16146   */\n      swap1\n      pop\n        /* \"#utility.yul\":15786:16152   */\n      swap2\n      swap1\n      pop\n      jump\t// out\n        /* \"#utility.yul\":16158:16577   */\n    tag_206:\n        /* \"#utility.yul\":16324:16328   */\n      0x00\n        /* \"#utility.yul\":16362:16364   */\n      0x20\n        /* \"#utility.yul\":16351:16360   */\n      dup3\n        /* \"#utility.yul\":16347:16365   */\n      add\n        /* \"#utility.yul\":16339:16365   */\n      swap1\n      pop\n        /* \"#utility.yul\":16411:16420   */\n      dup2\n        /* \"#utility.yul\":16405:16409   */\n      dup2\n        /* \"#utility.yul\":16401:16421   */\n      sub\n        /* \"#utility.yul\":16397:16398   */\n      0x00\n        /* \"#utility.yul\":16386:16395   */\n      dup4\n        /* \"#utility.yul\":16382:16399   */\n      add\n        /* \"#utility.yul\":16375:16422   */\n      mstore\n        /* \"#utility.yul\":16439:16570   */\n      tag_436\n        /* \"#utility.yul\":16565:16569   */\n      dup2\n        /* \"#utility.yul\":16439:16570   */\n      tag_276\n      jump\t// in\n    tag_436:\n        /* \"#utility.yul\":16431:16570   */\n      swap1\n      pop\n        /* \"#utility.yul\":16158:16577   */\n      swap2\n      swap1\n      pop\n      jump\t// out\n        /* \"#utility.yul\":16583:16749   */\n    tag_277:\n        /* \"#utility.yul\":16723:16741   */\n      0x5061757361626c653a2070617573656400000000000000000000000000000000\n        /* \"#utility.yul\":16719:16720   */\n      0x00\n        /* \"#utility.yul\":16711:16717   */\n      dup3\n        /* \"#utility.yul\":16707:16721   */\n      add\n        /* \"#utility.yul\":16700:16742   */\n      mstore\n        /* \"#utility.yul\":16583:16749   */\n      pop\n      jump\t// out\n        /* \"#utility.yul\":16755:17121   */\n    tag_278:\n        /* \"#utility.yul\":16897:16900   */\n      0x00\n        /* \"#utility.yul\":16918:16985   */\n      tag_439\n        /* \"#utility.yul\":16982:16984   */\n      0x10\n        /* \"#utility.yul\":16977:16980   */\n      dup4\n        /* \"#utility.yul\":16918:16985   */\n      tag_258\n      jump\t// in\n    tag_439:\n        /* \"#utility.yul\":16911:16985   */\n      swap2\n      pop\n        /* \"#utility.yul\":16994:17087   */\n      tag_440\n        /* \"#utility.yul\":17083:17086   */\n      dup3\n        /* \"#utility.yul\":16994:17087   */\n      tag_277\n      jump\t// in\n    tag_440:\n        /* \"#utility.yul\":17112:17114   */\n      0x20\n        /* \"#utility.yul\":17107:17110   */\n      dup3\n        /* \"#utility.yul\":17103:17115   */\n      add\n        /* \"#utility.yul\":17096:17115   */\n      swap1\n      pop\n        /* \"#utility.yul\":16755:17121   */\n      swap2\n      swap1\n      pop\n      jump\t// out\n        /* \"#utility.yul\":17127:17546   */\n    tag_212:\n        /* \"#utility.yul\":17293:17297   */\n      0x00\n        /* \"#utility.yul\":17331:17333   */\n      0x20\n        /* \"#utility.yul\":17320:17329   */\n      dup3\n        /* \"#utility.yul\":17316:17334   */\n      add\n        /* \"#utility.yul\":17308:17334   */\n      swap1\n      pop\n        /* \"#utility.yul\":17380:17389   */\n      dup2\n        /* \"#utility.yul\":17374:17378   */\n      dup2\n        /* \"#utility.yul\":17370:17390   */\n      sub\n        /* \"#utility.yul\":17366:17367   */\n      0x00\n        /* \"#utility.yul\":17355:17364   */\n      dup4\n        /* \"#utility.yul\":17351:17368   */\n      add\n        /* \"#utility.yul\":17344:17391   */\n      mstore\n        /* \"#utility.yul\":17408:17539   */\n      tag_442\n        /* \"#utility.yul\":17534:17538   */\n      dup2\n        /* \"#utility.yul\":17408:17539   */\n      tag_278\n      jump\t// in\n    tag_442:\n        /* \"#utility.yul\":17400:17539   */\n      swap1\n      pop\n        /* \"#utility.yul\":17127:17546   */\n      swap2\n      swap1\n      pop\n      jump\t// out\n        /* \"#utility.yul\":17552:17734   */\n    tag_279:\n        /* \"#utility.yul\":17692:17726   */\n      0x4f776e61626c653a2063616c6c6572206973206e6f7420746865206f776e6572\n        /* \"#utility.yul\":17688:17689   */\n      0x00\n        /* \"#utility.yul\":17680:17686   */\n      dup3\n        /* \"#utility.yul\":17676:17690   */\n      add\n        /* \"#utility.yul\":17669:17727   */\n      mstore\n        /* \"#utility.yul\":17552:17734   */\n      pop\n      jump\t// out\n        /* \"#utility.yul\":17740:18106   */\n    tag_280:\n        /* \"#utility.yul\":17882:17885   */\n      0x00\n        /* \"#utility.yul\":17903:17970   */\n      tag_445\n        /* \"#utility.yul\":17967:17969   */\n      0x20\n        /* \"#utility.yul\":17962:17965   */\n      dup4\n        /* \"#utility.yul\":17903:17970   */\n      tag_258\n      jump\t// in\n    tag_445:\n        /* \"#utility.yul\":17896:17970   */\n      swap2\n      pop\n        /* \"#utility.yul\":17979:18072   */\n      tag_446\n        /* \"#utility.yul\":18068:18071   */\n      dup3\n        /* \"#utility.yul\":17979:18072   */\n      tag_279\n      jump\t// in\n    tag_446:\n        /* \"#utility.yul\":18097:18099   */\n      0x20\n        /* \"#utility.yul\":18092:18095   */\n      dup3\n        /* \"#utility.yul\":18088:18100   */\n      add\n        /* \"#utility.yul\":18081:18100   */\n      swap1\n      pop\n        /* \"#utility.yul\":17740:18106   */\n      swap2\n      swap1\n      pop\n      jump\t// out\n        /* \"#utility.yul\":18112:18531   */\n    tag_219:\n        /* \"#utility.yul\":18278:18282   */\n      0x00\n        /* \"#utility.yul\":18316:18318   */\n      0x20\n        /* \"#utility.yul\":18305:18314   */\n      dup3\n        /* \"#utility.yul\":18301:18319   */\n      add\n        /* \"#utility.yul\":18293:18319   */\n      swap1\n      pop\n        /* \"#utility.yul\":18365:18374   */\n      dup2\n        /* \"#utility.yul\":18359:18363   */\n      dup2\n        /* \"#utility.yul\":18355:18375   */\n      sub\n        /* \"#utility.yul\":18351:18352   */\n      0x00\n        /* \"#utility.yul\":18340:18349   */\n      dup4\n        /* \"#utility.yul\":18336:18353   */\n      add\n        /* \"#utility.yul\":18329:18376   */\n      mstore\n        /* \"#utility.yul\":18393:18524   */\n      tag_448\n        /* \"#utility.yul\":18519:18523   */\n      dup2\n        /* \"#utility.yul\":18393:18524   */\n      tag_280\n      jump\t// in\n    tag_448:\n        /* \"#utility.yul\":18385:18524   */\n      swap1\n      pop\n        /* \"#utility.yul\":18112:18531   */\n      swap2\n      swap1\n      pop\n      jump\t// out\n        /* \"#utility.yul\":18537:18718   */\n    tag_281:\n        /* \"#utility.yul\":18677:18710   */\n      0x5265656e7472616e637947756172643a207265656e7472616e742063616c6c00\n        /* \"#utility.yul\":18673:18674   */\n      0x00\n        /* \"#utility.yul\":18665:18671   */\n      dup3\n        /* \"#utility.yul\":18661:18675   */\n      add\n        /* \"#utility.yul\":18654:18711   */\n      mstore\n        /* \"#utility.yul\":18537:18718   */\n      pop\n      jump\t// out\n        /* \"#utility.yul\":18724:19090   */\n    tag_282:\n        /* \"#utility.yul\":18866:18869   */\n      0x00\n        /* \"#utility.yul\":18887:18954   */\n      tag_451\n        /* \"#utility.yul\":18951:18953   */\n      0x1f\n        /* \"#utility.yul\":18946:18949   */\n      dup4\n        /* \"#utility.yul\":18887:18954   */\n      tag_258\n      jump\t// in\n    tag_451:\n        /* \"#utility.yul\":18880:18954   */\n      swap2\n      pop\n        /* \"#utility.yul\":18963:19056   */\n      tag_452\n        /* \"#utility.yul\":19052:19055   */\n      dup3\n        /* \"#utility.yul\":18963:19056   */\n      tag_281\n      jump\t// in\n    tag_452:\n        /* \"#utility.yul\":19081:19083   */\n      0x20\n        /* \"#utility.yul\":19076:19079   */\n      dup3\n        /* \"#utility.yul\":19072:19084   */\n      add\n        /* \"#utility.yul\":19065:19084   */\n      swap1\n      pop\n        /* \"#utility.yul\":18724:19090   */\n      swap2\n      swap1\n      pop\n      jump\t// out\n        /* \"#utility.yul\":19096:19515   */\n    tag_229:\n        /* \"#utility.yul\":19262:19266   */\n      0x00\n        /* \"#utility.yul\":19300:19302   */\n      0x20\n        /* \"#utility.yul\":19289:19298   */\n      dup3\n        /* \"#utility.yul\":19285:19303   */\n      add\n        /* \"#utility.yul\":19277:19303   */\n      swap1\n      pop\n        /* \"#utility.yul\":19349:19358   */\n      dup2\n        /* \"#utility.yul\":19343:19347   */\n      dup2\n        /* \"#utility.yul\":19339:19359   */\n      sub\n        /* \"#utility.yul\":19335:19336   */\n      0x00\n        /* \"#utility.yul\":19324:19333   */\n      dup4\n        /* \"#utility.yul\":19320:19337   */\n      add\n        /* \"#utility.yul\":19313:19360   */\n      mstore\n        /* \"#utility.yul\":19377:19508   */\n      tag_454\n        /* \"#utility.yul\":19503:19507   */\n      dup2\n        /* \"#utility.yul\":19377:19508   */\n      tag_282\n      jump\t// in\n    tag_454:\n        /* \"#utility.yul\":19369:19508   */\n      swap1\n      pop\n        /* \"#utility.yul\":19096:19515   */\n      swap2\n      swap1\n      pop\n      jump\t// out\n        /* \"#utility.yul\":19521:19691   */\n    tag_283:\n        /* \"#utility.yul\":19661:19683   */\n      0x5061757361626c653a206e6f7420706175736564000000000000000000000000\n        /* \"#utility.yul\":19657:19658   */\n      0x00\n        /* \"#utility.yul\":19649:19655   */\n      dup3\n        /* \"#utility.yul\":19645:19659   */\n      add\n        /* \"#utility.yul\":19638:19684   */\n      mstore\n        /* \"#utility.yul\":19521:19691   */\n      pop\n      jump\t// out\n        /* \"#utility.yul\":19697:20063   */\n    tag_284:\n        /* \"#utility.yul\":19839:19842   */\n      0x00\n        /* \"#utility.yul\":19860:19927   */\n      tag_457\n        /* \"#utility.yul\":19924:19926   */\n      0x14\n        /* \"#utility.yul\":19919:19922   */\n      dup4\n        /* \"#utility.yul\":19860:19927   */\n      tag_258\n      jump\t// in\n    tag_457:\n        /* \"#utility.yul\":19853:19927   */\n      swap2\n      pop\n        /* \"#utility.yul\":19936:20029   */\n      tag_458\n        /* \"#utility.yul\":20025:20028   */\n      dup3\n        /* \"#utility.yul\":19936:20029   */\n      tag_283\n      jump\t// in\n    tag_458:\n        /* \"#utility.yul\":20054:20056   */\n      0x20\n        /* \"#utility.yul\":20049:20052   */\n      dup3\n        /* \"#utility.yul\":20045:20057   */\n      add\n        /* \"#utility.yul\":20038:20057   */\n      swap1\n      pop\n        /* \"#utility.yul\":19697:20063   */\n      swap2\n      swap1\n      pop\n      jump\t// out\n        /* \"#utility.yul\":20069:20488   */\n    tag_242:\n        /* \"#utility.yul\":20235:20239   */\n      0x00\n        /* \"#utility.yul\":20273:20275   */\n      0x20\n        /* \"#utility.yul\":20262:20271   */\n      dup3\n        /* \"#utility.yul\":20258:20276   */\n      add\n        /* \"#utility.yul\":20250:20276   */\n      swap1\n      pop\n        /* \"#utility.yul\":20322:20331   */\n      dup2\n        /* \"#utility.yul\":20316:20320   */\n      dup2\n        /* \"#utility.yul\":20312:20332   */\n      sub\n        /* \"#utility.yul\":20308:20309   */\n      0x00\n        /* \"#utility.yul\":20297:20306   */\n      dup4\n        /* \"#utility.yul\":20293:20310   */\n      add\n        /* \"#utility.yul\":20286:20333   */\n      mstore\n        /* \"#utility.yul\":20350:20481   */\n      tag_460\n        /* \"#utility.yul\":20476:20480   */\n      dup2\n        /* \"#utility.yul\":20350:20481   */\n      tag_284\n      jump\t// in\n    tag_460:\n        /* \"#utility.yul\":20342:20481   */\n      swap1\n      pop\n        /* \"#utility.yul\":20069:20488   */\n      swap2\n      swap1\n      pop\n      jump\t// out\n\n    auxdata: 0xa2646970667358221220f503efc6adf61d0000d94ed87e4f41e5c93a76fd7b5f52ed35b521dea45014a764736f6c63430008150033\n}\n",
				"bytecode": {
					"linkReferences": {},
					"object": "6080604052600160095534801562000015575f80fd5b50604051620022203803806200222083398181016040528101906200003b919062000323565b6200005b6200004f620001be60201b60201c565b620001c560201b60201c565b600180819055505f60025f6101000a81548160ff0219169083151502179055505f73ffffffffffffffffffffffffffffffffffffffff168273ffffffffffffffffffffffffffffffffffffffff1614158015620000e457505f73ffffffffffffffffffffffffffffffffffffffff168173ffffffffffffffffffffffffffffffffffffffff1614155b62000126576040517f08c379a00000000000000000000000000000000000000000000000000000000081526004016200011d90620003f0565b60405180910390fd5b83600481905550826005819055508160065f6101000a81548173ffffffffffffffffffffffffffffffffffffffff021916908373ffffffffffffffffffffffffffffffffffffffff1602179055508060075f6101000a81548173ffffffffffffffffffffffffffffffffffffffff021916908373ffffffffffffffffffffffffffffffffffffffff1602179055505050505062000410565b5f33905090565b5f805f9054906101000a900473ffffffffffffffffffffffffffffffffffffffff169050815f806101000a81548173ffffffffffffffffffffffffffffffffffffffff021916908373ffffffffffffffffffffffffffffffffffffffff1602179055508173ffffffffffffffffffffffffffffffffffffffff168173ffffffffffffffffffffffffffffffffffffffff167f8be0079c531659141344cd1fd0a4f28419497f9722a3daafe3b4186f6b6457e060405160405180910390a35050565b5f80fd5b5f819050919050565b6200029e816200028a565b8114620002a9575f80fd5b50565b5f81519050620002bc8162000293565b92915050565b5f73ffffffffffffffffffffffffffffffffffffffff82169050919050565b5f620002ed82620002c2565b9050919050565b620002ff81620002e1565b81146200030a575f80fd5b50565b5f815190506200031d81620002f4565b92915050565b5f805f80608085870312156200033e576200033d62000286565b5b5f6200034d87828801620002ac565b94505060206200036087828801620002ac565b935050604062000373878288016200030d565b925050606062000386878288016200030d565b91505092959194509250565b5f82825260208201905092915050565b7f4164647265737365732063616e6e6f74206265207a65726f00000000000000005f82015250565b5f620003d860188362000392565b9150620003e582620003a2565b602082019050919050565b5f6020820190508181035f8301526200040981620003ca565b9050919050565b611e02806200041e5f395ff3fe608060405260043610610108575f3560e01c80638da5cb5b11610094578063cdd78cfc11610063578063cdd78cfc146102dc578063de74e57b14610306578063e3b6a1f614610346578063ed14834f14610382578063f2fde38b146103ac57610108565b80638da5cb5b14610236578063aaccf1ec14610260578063ad2f852a1461028a578063cb917b9c146102b457610108565b80635e4e8d65116100db5780635e4e8d6514610190578063715018a6146101b857806378578bb3146101ce5780638456cb59146101f65780638a71bb2d1461020c57610108565b80633c44a5f01461010c5780633f4ba83a1461013457806351ed82881461014a5780635c975abb14610166575b5f80fd5b348015610117575f80fd5b50610132600480360381019061012d919061143f565b6103d4565b005b34801561013f575f80fd5b5061014861069e565b005b610164600480360381019061015f91906114a3565b6106b0565b005b348015610171575f80fd5b5061017a610c59565b60405161018791906114e8565b60405180910390f35b34801561019b575f80fd5b506101b660048036038101906101b19190611501565b610c6e565b005b3480156101c3575f80fd5b506101cc610da1565b005b3480156101d9575f80fd5b506101f460048036038101906101ef919061153f565b610db4565b005b348015610201575f80fd5b5061020a610dce565b005b348015610217575f80fd5b50610220610de0565b60405161022d919061158c565b60405180910390f35b348015610241575f80fd5b5061024a610de6565b60405161025791906115b4565b60405180910390f35b34801561026b575f80fd5b50610274610e0d565b604051610281919061158c565b60405180910390f35b348015610295575f80fd5b5061029e610e13565b6040516102ab91906115b4565b60405180910390f35b3480156102bf575f80fd5b506102da60048036038101906102d591906114a3565b610e38565b005b3480156102e7575f80fd5b506102f0610f7d565b6040516102fd919061158c565b60405180910390f35b348015610311575f80fd5b5061032c600480360381019061032791906114a3565b610f83565b60405161033d9594939291906115cd565b60405180910390f35b348015610351575f80fd5b5061036c600480360381019061036791906114a3565b610ff3565b604051610379919061158c565b60405180910390f35b34801561038d575f80fd5b50610396611013565b6040516103a391906115b4565b60405180910390f35b3480156103b7575f80fd5b506103d260048036038101906103cd919061161e565b611038565b005b6103dc6110ba565b5f8490503373ffffffffffffffffffffffffffffffffffffffff168173ffffffffffffffffffffffffffffffffffffffff16636352211e866040518263ffffffff1660e01b8152600401610430919061158c565b602060405180830381865afa15801561044b573d5f803e3d5ffd5b505050506040513d601f19601f8201168201806040525081019061046f919061165d565b73ffffffffffffffffffffffffffffffffffffffff16146104c5576040517f08c379a00000000000000000000000000000000000000000000000000000000081526004016104bc906116e2565b60405180910390fd5b6040518060a001604052808673ffffffffffffffffffffffffffffffffffffffff1681526020018581526020013373ffffffffffffffffffffffffffffffffffffffff1681526020018481526020018342610520919061172d565b81525060085f60095481526020019081526020015f205f820151815f015f6101000a81548173ffffffffffffffffffffffffffffffffffffffff021916908373ffffffffffffffffffffffffffffffffffffffff160217905550602082015181600101556040820151816002015f6101000a81548173ffffffffffffffffffffffffffffffffffffffff021916908373ffffffffffffffffffffffffffffffffffffffff16021790555060608201518160030155608082015181600401559050506003600954908060018154018082558091505060019003905f5260205f20015f90919091909150558473ffffffffffffffffffffffffffffffffffffffff163373ffffffffffffffffffffffffffffffffffffffff166009547ff33c76fec15a03b2e414df8c9dce93f5b05f8672742e0f1eb558b2161162dfcb87878742610669919061172d565b60405161067893929190611760565b60405180910390a460095f81548092919061069290611795565b91905055505050505050565b6106a6611104565b6106ae611182565b565b6106b86110ba565b6106c06111e3565b5f60085f8381526020019081526020015f2090505f73ffffffffffffffffffffffffffffffffffffffff16816002015f9054906101000a900473ffffffffffffffffffffffffffffffffffffffff1673ffffffffffffffffffffffffffffffffffffffff1603610765576040517f08c379a000000000000000000000000000000000000000000000000000000000815260040161075c90611826565b60405180910390fd5b80600401544211156107ac576040517f08c379a00000000000000000000000000000000000000000000000000000000081526004016107a39061188e565b60405180910390fd5b806003015434146107f2576040517f08c379a00000000000000000000000000000000000000000000000000000000081526004016107e99061191c565b60405180910390fd5b5f6127106004548360030154610808919061193a565b61081291906119a8565b90505f612710600554846003015461082a919061193a565b61083491906119a8565b90505f8183856003015461084891906119d8565b61085291906119d8565b90505f845f015f9054906101000a900473ffffffffffffffffffffffffffffffffffffffff169050846002015f9054906101000a900473ffffffffffffffffffffffffffffffffffffffff1673ffffffffffffffffffffffffffffffffffffffff168173ffffffffffffffffffffffffffffffffffffffff16636352211e87600101546040518263ffffffff1660e01b81526004016108f1919061158c565b602060405180830381865afa15801561090c573d5f803e3d5ffd5b505050506040513d601f19601f82011682018060405250810190610930919061165d565b73ffffffffffffffffffffffffffffffffffffffff1614610986576040517f08c379a000000000000000000000000000000000000000000000000000000000815260040161097d90611a55565b60405180910390fd5b8073ffffffffffffffffffffffffffffffffffffffff166342842e0e866002015f9054906101000a900473ffffffffffffffffffffffffffffffffffffffff163388600101546040518463ffffffff1660e01b81526004016109ea93929190611a73565b5f604051808303815f87803b158015610a01575f80fd5b505af1158015610a13573d5f803e3d5ffd5b50505050846002015f9054906101000a900473ffffffffffffffffffffffffffffffffffffffff1673ffffffffffffffffffffffffffffffffffffffff166108fc8390811502906040515f60405180830381858888f19350505050158015610a7d573d5f803e3d5ffd5b5060065f9054906101000a900473ffffffffffffffffffffffffffffffffffffffff1673ffffffffffffffffffffffffffffffffffffffff166108fc8590811502906040515f60405180830381858888f19350505050158015610ae2573d5f803e3d5ffd5b5060075f9054906101000a900473ffffffffffffffffffffffffffffffffffffffff1673ffffffffffffffffffffffffffffffffffffffff166108fc8490811502906040515f60405180830381858888f19350505050158015610b47573d5f803e3d5ffd5b503373ffffffffffffffffffffffffffffffffffffffff16856002015f9054906101000a900473ffffffffffffffffffffffffffffffffffffffff1673ffffffffffffffffffffffffffffffffffffffff16877f8562eb94748e30bb0071e932744ce902b460c683474fcb3bfd567ffa16b1afb28860030154604051610bcd919061158c565b60405180910390a460085f8781526020019081526020015f205f8082015f6101000a81549073ffffffffffffffffffffffffffffffffffffffff0219169055600182015f9055600282015f6101000a81549073ffffffffffffffffffffffffffffffffffffffff0219169055600382015f9055600482015f905550505050505050610c56611232565b50565b5f60025f9054906101000a900460ff16905090565b610c76611104565b5f73ffffffffffffffffffffffffffffffffffffffff168273ffffffffffffffffffffffffffffffffffffffff1614158015610cde57505f73ffffffffffffffffffffffffffffffffffffffff168173ffffffffffffffffffffffffffffffffffffffff1614155b610d1d576040517f08c379a0000000000000000000000000000000000000000000000000000000008152600401610d1490611af2565b60405180910390fd5b8160065f6101000a81548173ffffffffffffffffffffffffffffffffffffffff021916908373ffffffffffffffffffffffffffffffffffffffff1602179055508060075f6101000a81548173ffffffffffffffffffffffffffffffffffffffff021916908373ffffffffffffffffffffffffffffffffffffffff1602179055505050565b610da9611104565b610db25f61123b565b565b610dbc611104565b81600481905550806005819055505050565b610dd6611104565b610dde6112fc565b565b60045481565b5f805f9054906101000a900473ffffffffffffffffffffffffffffffffffffffff16905090565b60095481565b60065f9054906101000a900473ffffffffffffffffffffffffffffffffffffffff1681565b3373ffffffffffffffffffffffffffffffffffffffff1660085f8381526020019081526020015f206002015f9054906101000a900473ffffffffffffffffffffffffffffffffffffffff1673ffffffffffffffffffffffffffffffffffffffff1614610ed9576040517f08c379a0000000000000000000000000000000000000000000000000000000008152600401610ed090611b80565b60405180910390fd5b60085f8281526020019081526020015f205f8082015f6101000a81549073ffffffffffffffffffffffffffffffffffffffff0219169055600182015f9055600282015f6101000a81549073ffffffffffffffffffffffffffffffffffffffff0219169055600382015f9055600482015f90555050807fc0c55a6edead4433d18cb1e287a0a20a2fa003a6f483bc9823d2e504d70d1c6760405160405180910390a250565b60055481565b6008602052805f5260405f205f91509050805f015f9054906101000a900473ffffffffffffffffffffffffffffffffffffffff1690806001015490806002015f9054906101000a900473ffffffffffffffffffffffffffffffffffffffff16908060030154908060040154905085565b60038181548110611002575f80fd5b905f5260205f20015f915090505481565b60075f9054906101000a900473ffffffffffffffffffffffffffffffffffffffff1681565b611040611104565b5f73ffffffffffffffffffffffffffffffffffffffff168173ffffffffffffffffffffffffffffffffffffffff16036110ae576040517f08c379a00000000000000000000000000000000000000000000000000000000081526004016110a590611c0e565b60405180910390fd5b6110b78161123b565b50565b6110c2610c59565b15611102576040517f08c379a00000000000000000000000000000000000000000000000000000000081526004016110f990611c76565b60405180910390fd5b565b61110c61135e565b73ffffffffffffffffffffffffffffffffffffffff1661112a610de6565b73ffffffffffffffffffffffffffffffffffffffff1614611180576040517f08c379a000000000000000000000000000000000000000000000000000000000815260040161117790611cde565b60405180910390fd5b565b61118a611365565b5f60025f6101000a81548160ff0219169083151502179055507f5db9ee0a495bf2e6ff9c91a7834c1ba4fdd244a5e8aa4e537bd38aeae4b073aa6111cc61135e565b6040516111d991906115b4565b60405180910390a1565b600260015403611228576040517f08c379a000000000000000000000000000000000000000000000000000000000815260040161121f90611d46565b60405180910390fd5b6002600181905550565b60018081905550565b5f805f9054906101000a900473ffffffffffffffffffffffffffffffffffffffff169050815f806101000a81548173ffffffffffffffffffffffffffffffffffffffff021916908373ffffffffffffffffffffffffffffffffffffffff1602179055508173ffffffffffffffffffffffffffffffffffffffff168173ffffffffffffffffffffffffffffffffffffffff167f8be0079c531659141344cd1fd0a4f28419497f9722a3daafe3b4186f6b6457e060405160405180910390a35050565b6113046110ba565b600160025f6101000a81548160ff0219169083151502179055507f62e78cea01bee320cd4e420270b5ea74000d11b0c9f74754ebdbfc544b05a25861134761135e565b60405161135491906115b4565b60405180910390a1565b5f33905090565b61136d610c59565b6113ac576040517f08c379a00000000000000000000000000000000000000000000000000000000081526004016113a390611dae565b60405180910390fd5b565b5f80fd5b5f73ffffffffffffffffffffffffffffffffffffffff82169050919050565b5f6113db826113b2565b9050919050565b6113eb816113d1565b81146113f5575f80fd5b50565b5f81359050611406816113e2565b92915050565b5f819050919050565b61141e8161140c565b8114611428575f80fd5b50565b5f8135905061143981611415565b92915050565b5f805f8060808587031215611457576114566113ae565b5b5f611464878288016113f8565b94505060206114758782880161142b565b93505060406114868782880161142b565b92505060606114978782880161142b565b91505092959194509250565b5f602082840312156114b8576114b76113ae565b5b5f6114c58482850161142b565b91505092915050565b5f8115159050919050565b6114e2816114ce565b82525050565b5f6020820190506114fb5f8301846114d9565b92915050565b5f8060408385031215611517576115166113ae565b5b5f611524858286016113f8565b9250506020611535858286016113f8565b9150509250929050565b5f8060408385031215611555576115546113ae565b5b5f6115628582860161142b565b92505060206115738582860161142b565b9150509250929050565b6115868161140c565b82525050565b5f60208201905061159f5f83018461157d565b92915050565b6115ae816113d1565b82525050565b5f6020820190506115c75f8301846115a5565b92915050565b5f60a0820190506115e05f8301886115a5565b6115ed602083018761157d565b6115fa60408301866115a5565b611607606083018561157d565b611614608083018461157d565b9695505050505050565b5f60208284031215611633576116326113ae565b5b5f611640848285016113f8565b91505092915050565b5f81519050611657816113e2565b92915050565b5f60208284031215611672576116716113ae565b5b5f61167f84828501611649565b91505092915050565b5f82825260208201905092915050565b7f596f75206d757374206f776e20746865204e465420746f206c6973742069742e5f82015250565b5f6116cc602083611688565b91506116d782611698565b602082019050919050565b5f6020820190508181035f8301526116f9816116c0565b9050919050565b7f4e487b71000000000000000000000000000000000000000000000000000000005f52601160045260245ffd5b5f6117378261140c565b91506117428361140c565b925082820190508082111561175a57611759611700565b5b92915050565b5f6060820190506117735f83018661157d565b611780602083018561157d565b61178d604083018461157d565b949350505050565b5f61179f8261140c565b91507fffffffffffffffffffffffffffffffffffffffffffffffffffffffffffffffff82036117d1576117d0611700565b5b600182019050919050565b7f4c697374696e6720646f6573206e6f742065786973742e0000000000000000005f82015250565b5f611810601783611688565b915061181b826117dc565b602082019050919050565b5f6020820190508181035f83015261183d81611804565b9050919050565b7f54686973206c697374696e672068617320657870697265642e000000000000005f82015250565b5f611878601983611688565b915061188382611844565b602082019050919050565b5f6020820190508181035f8301526118a58161186c565b9050919050565b7f53656e742076616c7565206d75737420626520657175616c20746f20746865205f8201527f6c697374696e672070726963652e000000000000000000000000000000000000602082015250565b5f611906602e83611688565b9150611911826118ac565b604082019050919050565b5f6020820190508181035f830152611933816118fa565b9050919050565b5f6119448261140c565b915061194f8361140c565b925082820261195d8161140c565b9150828204841483151761197457611973611700565b5b5092915050565b7f4e487b71000000000000000000000000000000000000000000000000000000005f52601260045260245ffd5b5f6119b28261140c565b91506119bd8361140c565b9250826119cd576119cc61197b565b5b828204905092915050565b5f6119e28261140c565b91506119ed8361140c565b9250828203905081811115611a0557611a04611700565b5b92915050565b7f53656c6c6572206e6f206c6f6e676572206f776e7320746865204e46542e00005f82015250565b5f611a3f601e83611688565b9150611a4a82611a0b565b602082019050919050565b5f6020820190508181035f830152611a6c81611a33565b9050919050565b5f606082019050611a865f8301866115a5565b611a9360208301856115a5565b611aa0604083018461157d565b949350505050565b7f4164647265737365732063616e6e6f74206265207a65726f00000000000000005f82015250565b5f611adc601883611688565b9150611ae782611aa8565b602082019050919050565b5f6020820190508181035f830152611b0981611ad0565b9050919050565b7f596f7520617265206e6f74207468652073656c6c6572206f662074686973206c5f8201527f697374696e672e00000000000000000000000000000000000000000000000000602082015250565b5f611b6a602783611688565b9150611b7582611b10565b604082019050919050565b5f6020820190508181035f830152611b9781611b5e565b9050919050565b7f4f776e61626c653a206e6577206f776e657220697320746865207a65726f20615f8201527f6464726573730000000000000000000000000000000000000000000000000000602082015250565b5f611bf8602683611688565b9150611c0382611b9e565b604082019050919050565b5f6020820190508181035f830152611c2581611bec565b9050919050565b7f5061757361626c653a20706175736564000000000000000000000000000000005f82015250565b5f611c60601083611688565b9150611c6b82611c2c565b602082019050919050565b5f6020820190508181035f830152611c8d81611c54565b9050919050565b7f4f776e61626c653a2063616c6c6572206973206e6f7420746865206f776e65725f82015250565b5f611cc8602083611688565b9150611cd382611c94565b602082019050919050565b5f6020820190508181035f830152611cf581611cbc565b9050919050565b7f5265656e7472616e637947756172643a207265656e7472616e742063616c6c005f82015250565b5f611d30601f83611688565b9150611d3b82611cfc565b602082019050919050565b5f6020820190508181035f830152611d5d81611d24565b9050919050565b7f5061757361626c653a206e6f74207061757365640000000000000000000000005f82015250565b5f611d98601483611688565b9150611da382611d64565b602082019050919050565b5f6020820190508181035f830152611dc581611d8c565b905091905056fea2646970667358221220f503efc6adf61d0000d94ed87e4f41e5c93a76fd7b5f52ed35b521dea45014a764736f6c63430008150033",
					"opcodes": "PUSH1 0x80 PUSH1 0x40 MSTORE PUSH1 0x1 PUSH1 0x9 SSTORE CALLVALUE DUP1 ISZERO PUSH3 0x15 JUMPI PUSH0 DUP1 REVERT JUMPDEST POP PUSH1 0x40 MLOAD PUSH3 0x2220 CODESIZE SUB DUP1 PUSH3 0x2220 DUP4 CODECOPY DUP2 DUP2 ADD PUSH1 0x40 MSTORE DUP2 ADD SWAP1 PUSH3 0x3B SWAP2 SWAP1 PUSH3 0x323 JUMP JUMPDEST PUSH3 0x5B PUSH3 0x4F PUSH3 0x1BE PUSH1 0x20 SHL PUSH1 0x20 SHR JUMP JUMPDEST PUSH3 0x1C5 PUSH1 0x20 SHL PUSH1 0x20 SHR JUMP JUMPDEST PUSH1 0x1 DUP1 DUP2 SWAP1 SSTORE POP PUSH0 PUSH1 0x2 PUSH0 PUSH2 0x100 EXP DUP2 SLOAD DUP2 PUSH1 0xFF MUL NOT AND SWAP1 DUP4 ISZERO ISZERO MUL OR SWAP1 SSTORE POP PUSH0 PUSH20 0xFFFFFFFFFFFFFFFFFFFFFFFFFFFFFFFFFFFFFFFF AND DUP3 PUSH20 0xFFFFFFFFFFFFFFFFFFFFFFFFFFFFFFFFFFFFFFFF AND EQ ISZERO DUP1 ISZERO PUSH3 0xE4 JUMPI POP PUSH0 PUSH20 0xFFFFFFFFFFFFFFFFFFFFFFFFFFFFFFFFFFFFFFFF AND DUP2 PUSH20 0xFFFFFFFFFFFFFFFFFFFFFFFFFFFFFFFFFFFFFFFF AND EQ ISZERO JUMPDEST PUSH3 0x126 JUMPI PUSH1 0x40 MLOAD PUSH32 0x8C379A000000000000000000000000000000000000000000000000000000000 DUP2 MSTORE PUSH1 0x4 ADD PUSH3 0x11D SWAP1 PUSH3 0x3F0 JUMP JUMPDEST PUSH1 0x40 MLOAD DUP1 SWAP2 SUB SWAP1 REVERT JUMPDEST DUP4 PUSH1 0x4 DUP2 SWAP1 SSTORE POP DUP3 PUSH1 0x5 DUP2 SWAP1 SSTORE POP DUP2 PUSH1 0x6 PUSH0 PUSH2 0x100 EXP DUP2 SLOAD DUP2 PUSH20 0xFFFFFFFFFFFFFFFFFFFFFFFFFFFFFFFFFFFFFFFF MUL NOT AND SWAP1 DUP4 PUSH20 0xFFFFFFFFFFFFFFFFFFFFFFFFFFFFFFFFFFFFFFFF AND MUL OR SWAP1 SSTORE POP DUP1 PUSH1 0x7 PUSH0 PUSH2 0x100 EXP DUP2 SLOAD DUP2 PUSH20 0xFFFFFFFFFFFFFFFFFFFFFFFFFFFFFFFFFFFFFFFF MUL NOT AND SWAP1 DUP4 PUSH20 0xFFFFFFFFFFFFFFFFFFFFFFFFFFFFFFFFFFFFFFFF AND MUL OR SWAP1 SSTORE POP POP POP POP POP PUSH3 0x410 JUMP JUMPDEST PUSH0 CALLER SWAP1 POP SWAP1 JUMP JUMPDEST PUSH0 DUP1 PUSH0 SWAP1 SLOAD SWAP1 PUSH2 0x100 EXP SWAP1 DIV PUSH20 0xFFFFFFFFFFFFFFFFFFFFFFFFFFFFFFFFFFFFFFFF AND SWAP1 POP DUP2 PUSH0 DUP1 PUSH2 0x100 EXP DUP2 SLOAD DUP2 PUSH20 0xFFFFFFFFFFFFFFFFFFFFFFFFFFFFFFFFFFFFFFFF MUL NOT AND SWAP1 DUP4 PUSH20 0xFFFFFFFFFFFFFFFFFFFFFFFFFFFFFFFFFFFFFFFF AND MUL OR SWAP1 SSTORE POP DUP2 PUSH20 0xFFFFFFFFFFFFFFFFFFFFFFFFFFFFFFFFFFFFFFFF AND DUP2 PUSH20 0xFFFFFFFFFFFFFFFFFFFFFFFFFFFFFFFFFFFFFFFF AND PUSH32 0x8BE0079C531659141344CD1FD0A4F28419497F9722A3DAAFE3B4186F6B6457E0 PUSH1 0x40 MLOAD PUSH1 0x40 MLOAD DUP1 SWAP2 SUB SWAP1 LOG3 POP POP JUMP JUMPDEST PUSH0 DUP1 REVERT JUMPDEST PUSH0 DUP2 SWAP1 POP SWAP2 SWAP1 POP JUMP JUMPDEST PUSH3 0x29E DUP2 PUSH3 0x28A JUMP JUMPDEST DUP2 EQ PUSH3 0x2A9 JUMPI PUSH0 DUP1 REVERT JUMPDEST POP JUMP JUMPDEST PUSH0 DUP2 MLOAD SWAP1 POP PUSH3 0x2BC DUP2 PUSH3 0x293 JUMP JUMPDEST SWAP3 SWAP2 POP POP JUMP JUMPDEST PUSH0 PUSH20 0xFFFFFFFFFFFFFFFFFFFFFFFFFFFFFFFFFFFFFFFF DUP3 AND SWAP1 POP SWAP2 SWAP1 POP JUMP JUMPDEST PUSH0 PUSH3 0x2ED DUP3 PUSH3 0x2C2 JUMP JUMPDEST SWAP1 POP SWAP2 SWAP1 POP JUMP JUMPDEST PUSH3 0x2FF DUP2 PUSH3 0x2E1 JUMP JUMPDEST DUP2 EQ PUSH3 0x30A JUMPI PUSH0 DUP1 REVERT JUMPDEST POP JUMP JUMPDEST PUSH0 DUP2 MLOAD SWAP1 POP PUSH3 0x31D DUP2 PUSH3 0x2F4 JUMP JUMPDEST SWAP3 SWAP2 POP POP JUMP JUMPDEST PUSH0 DUP1 PUSH0 DUP1 PUSH1 0x80 DUP6 DUP8 SUB SLT ISZERO PUSH3 0x33E JUMPI PUSH3 0x33D PUSH3 0x286 JUMP JUMPDEST JUMPDEST PUSH0 PUSH3 0x34D DUP8 DUP3 DUP9 ADD PUSH3 0x2AC JUMP JUMPDEST SWAP5 POP POP PUSH1 0x20 PUSH3 0x360 DUP8 DUP3 DUP9 ADD PUSH3 0x2AC JUMP JUMPDEST SWAP4 POP POP PUSH1 0x40 PUSH3 0x373 DUP8 DUP3 DUP9 ADD PUSH3 0x30D JUMP JUMPDEST SWAP3 POP POP PUSH1 0x60 PUSH3 0x386 DUP8 DUP3 DUP9 ADD PUSH3 0x30D JUMP JUMPDEST SWAP2 POP POP SWAP3 SWAP6 SWAP2 SWAP5 POP SWAP3 POP JUMP JUMPDEST PUSH0 DUP3 DUP3 MSTORE PUSH1 0x20 DUP3 ADD SWAP1 POP SWAP3 SWAP2 POP POP JUMP JUMPDEST PUSH32 0x4164647265737365732063616E6E6F74206265207A65726F0000000000000000 PUSH0 DUP3 ADD MSTORE POP JUMP JUMPDEST PUSH0 PUSH3 0x3D8 PUSH1 0x18 DUP4 PUSH3 0x392 JUMP JUMPDEST SWAP2 POP PUSH3 0x3E5 DUP3 PUSH3 0x3A2 JUMP JUMPDEST PUSH1 0x20 DUP3 ADD SWAP1 POP SWAP2 SWAP1 POP JUMP JUMPDEST PUSH0 PUSH1 0x20 DUP3 ADD SWAP1 POP DUP2 DUP2 SUB PUSH0 DUP4 ADD MSTORE PUSH3 0x409 DUP2 PUSH3 0x3CA JUMP JUMPDEST SWAP1 POP SWAP2 SWAP1 POP JUMP JUMPDEST PUSH2 0x1E02 DUP1 PUSH3 0x41E PUSH0 CODECOPY PUSH0 RETURN INVALID PUSH1 0x80 PUSH1 0x40 MSTORE PUSH1 0x4 CALLDATASIZE LT PUSH2 0x108 JUMPI PUSH0 CALLDATALOAD PUSH1 0xE0 SHR DUP1 PUSH4 0x8DA5CB5B GT PUSH2 0x94 JUMPI DUP1 PUSH4 0xCDD78CFC GT PUSH2 0x63 JUMPI DUP1 PUSH4 0xCDD78CFC EQ PUSH2 0x2DC JUMPI DUP1 PUSH4 0xDE74E57B EQ PUSH2 0x306 JUMPI DUP1 PUSH4 0xE3B6A1F6 EQ PUSH2 0x346 JUMPI DUP1 PUSH4 0xED14834F EQ PUSH2 0x382 JUMPI DUP1 PUSH4 0xF2FDE38B EQ PUSH2 0x3AC JUMPI PUSH2 0x108 JUMP JUMPDEST DUP1 PUSH4 0x8DA5CB5B EQ PUSH2 0x236 JUMPI DUP1 PUSH4 0xAACCF1EC EQ PUSH2 0x260 JUMPI DUP1 PUSH4 0xAD2F852A EQ PUSH2 0x28A JUMPI DUP1 PUSH4 0xCB917B9C EQ PUSH2 0x2B4 JUMPI PUSH2 0x108 JUMP JUMPDEST DUP1 PUSH4 0x5E4E8D65 GT PUSH2 0xDB JUMPI DUP1 PUSH4 0x5E4E8D65 EQ PUSH2 0x190 JUMPI DUP1 PUSH4 0x715018A6 EQ PUSH2 0x1B8 JUMPI DUP1 PUSH4 0x78578BB3 EQ PUSH2 0x1CE JUMPI DUP1 PUSH4 0x8456CB59 EQ PUSH2 0x1F6 JUMPI DUP1 PUSH4 0x8A71BB2D EQ PUSH2 0x20C JUMPI PUSH2 0x108 JUMP JUMPDEST DUP1 PUSH4 0x3C44A5F0 EQ PUSH2 0x10C JUMPI DUP1 PUSH4 0x3F4BA83A EQ PUSH2 0x134 JUMPI DUP1 PUSH4 0x51ED8288 EQ PUSH2 0x14A JUMPI DUP1 PUSH4 0x5C975ABB EQ PUSH2 0x166 JUMPI JUMPDEST PUSH0 DUP1 REVERT JUMPDEST CALLVALUE DUP1 ISZERO PUSH2 0x117 JUMPI PUSH0 DUP1 REVERT JUMPDEST POP PUSH2 0x132 PUSH1 0x4 DUP1 CALLDATASIZE SUB DUP2 ADD SWAP1 PUSH2 0x12D SWAP2 SWAP1 PUSH2 0x143F JUMP JUMPDEST PUSH2 0x3D4 JUMP JUMPDEST STOP JUMPDEST CALLVALUE DUP1 ISZERO PUSH2 0x13F JUMPI PUSH0 DUP1 REVERT JUMPDEST POP PUSH2 0x148 PUSH2 0x69E JUMP JUMPDEST STOP JUMPDEST PUSH2 0x164 PUSH1 0x4 DUP1 CALLDATASIZE SUB DUP2 ADD SWAP1 PUSH2 0x15F SWAP2 SWAP1 PUSH2 0x14A3 JUMP JUMPDEST PUSH2 0x6B0 JUMP JUMPDEST STOP JUMPDEST CALLVALUE DUP1 ISZERO PUSH2 0x171 JUMPI PUSH0 DUP1 REVERT JUMPDEST POP PUSH2 0x17A PUSH2 0xC59 JUMP JUMPDEST PUSH1 0x40 MLOAD PUSH2 0x187 SWAP2 SWAP1 PUSH2 0x14E8 JUMP JUMPDEST PUSH1 0x40 MLOAD DUP1 SWAP2 SUB SWAP1 RETURN JUMPDEST CALLVALUE DUP1 ISZERO PUSH2 0x19B JUMPI PUSH0 DUP1 REVERT JUMPDEST POP PUSH2 0x1B6 PUSH1 0x4 DUP1 CALLDATASIZE SUB DUP2 ADD SWAP1 PUSH2 0x1B1 SWAP2 SWAP1 PUSH2 0x1501 JUMP JUMPDEST PUSH2 0xC6E JUMP JUMPDEST STOP JUMPDEST CALLVALUE DUP1 ISZERO PUSH2 0x1C3 JUMPI PUSH0 DUP1 REVERT JUMPDEST POP PUSH2 0x1CC PUSH2 0xDA1 JUMP JUMPDEST STOP JUMPDEST CALLVALUE DUP1 ISZERO PUSH2 0x1D9 JUMPI PUSH0 DUP1 REVERT JUMPDEST POP PUSH2 0x1F4 PUSH1 0x4 DUP1 CALLDATASIZE SUB DUP2 ADD SWAP1 PUSH2 0x1EF SWAP2 SWAP1 PUSH2 0x153F JUMP JUMPDEST PUSH2 0xDB4 JUMP JUMPDEST STOP JUMPDEST CALLVALUE DUP1 ISZERO PUSH2 0x201 JUMPI PUSH0 DUP1 REVERT JUMPDEST POP PUSH2 0x20A PUSH2 0xDCE JUMP JUMPDEST STOP JUMPDEST CALLVALUE DUP1 ISZERO PUSH2 0x217 JUMPI PUSH0 DUP1 REVERT JUMPDEST POP PUSH2 0x220 PUSH2 0xDE0 JUMP JUMPDEST PUSH1 0x40 MLOAD PUSH2 0x22D SWAP2 SWAP1 PUSH2 0x158C JUMP JUMPDEST PUSH1 0x40 MLOAD DUP1 SWAP2 SUB SWAP1 RETURN JUMPDEST CALLVALUE DUP1 ISZERO PUSH2 0x241 JUMPI PUSH0 DUP1 REVERT JUMPDEST POP PUSH2 0x24A PUSH2 0xDE6 JUMP JUMPDEST PUSH1 0x40 MLOAD PUSH2 0x257 SWAP2 SWAP1 PUSH2 0x15B4 JUMP JUMPDEST PUSH1 0x40 MLOAD DUP1 SWAP2 SUB SWAP1 RETURN JUMPDEST CALLVALUE DUP1 ISZERO PUSH2 0x26B JUMPI PUSH0 DUP1 REVERT JUMPDEST POP PUSH2 0x274 PUSH2 0xE0D JUMP JUMPDEST PUSH1 0x40 MLOAD PUSH2 0x281 SWAP2 SWAP1 PUSH2 0x158C JUMP JUMPDEST PUSH1 0x40 MLOAD DUP1 SWAP2 SUB SWAP1 RETURN JUMPDEST CALLVALUE DUP1 ISZERO PUSH2 0x295 JUMPI PUSH0 DUP1 REVERT JUMPDEST POP PUSH2 0x29E PUSH2 0xE13 JUMP JUMPDEST PUSH1 0x40 MLOAD PUSH2 0x2AB SWAP2 SWAP1 PUSH2 0x15B4 JUMP JUMPDEST PUSH1 0x40 MLOAD DUP1 SWAP2 SUB SWAP1 RETURN JUMPDEST CALLVALUE DUP1 ISZERO PUSH2 0x2BF JUMPI PUSH0 DUP1 REVERT JUMPDEST POP PUSH2 0x2DA PUSH1 0x4 DUP1 CALLDATASIZE SUB DUP2 ADD SWAP1 PUSH2 0x2D5 SWAP2 SWAP1 PUSH2 0x14A3 JUMP JUMPDEST PUSH2 0xE38 JUMP JUMPDEST STOP JUMPDEST CALLVALUE DUP1 ISZERO PUSH2 0x2E7 JUMPI PUSH0 DUP1 REVERT JUMPDEST POP PUSH2 0x2F0 PUSH2 0xF7D JUMP JUMPDEST PUSH1 0x40 MLOAD PUSH2 0x2FD SWAP2 SWAP1 PUSH2 0x158C JUMP JUMPDEST PUSH1 0x40 MLOAD DUP1 SWAP2 SUB SWAP1 RETURN JUMPDEST CALLVALUE DUP1 ISZERO PUSH2 0x311 JUMPI PUSH0 DUP1 REVERT JUMPDEST POP PUSH2 0x32C PUSH1 0x4 DUP1 CALLDATASIZE SUB DUP2 ADD SWAP1 PUSH2 0x327 SWAP2 SWAP1 PUSH2 0x14A3 JUMP JUMPDEST PUSH2 0xF83 JUMP JUMPDEST PUSH1 0x40 MLOAD PUSH2 0x33D SWAP6 SWAP5 SWAP4 SWAP3 SWAP2 SWAP1 PUSH2 0x15CD JUMP JUMPDEST PUSH1 0x40 MLOAD DUP1 SWAP2 SUB SWAP1 RETURN JUMPDEST CALLVALUE DUP1 ISZERO PUSH2 0x351 JUMPI PUSH0 DUP1 REVERT JUMPDEST POP PUSH2 0x36C PUSH1 0x4 DUP1 CALLDATASIZE SUB DUP2 ADD SWAP1 PUSH2 0x367 SWAP2 SWAP1 PUSH2 0x14A3 JUMP JUMPDEST PUSH2 0xFF3 JUMP JUMPDEST PUSH1 0x40 MLOAD PUSH2 0x379 SWAP2 SWAP1 PUSH2 0x158C JUMP JUMPDEST PUSH1 0x40 MLOAD DUP1 SWAP2 SUB SWAP1 RETURN JUMPDEST CALLVALUE DUP1 ISZERO PUSH2 0x38D JUMPI PUSH0 DUP1 REVERT JUMPDEST POP PUSH2 0x396 PUSH2 0x1013 JUMP JUMPDEST PUSH1 0x40 MLOAD PUSH2 0x3A3 SWAP2 SWAP1 PUSH2 0x15B4 JUMP JUMPDEST PUSH1 0x40 MLOAD DUP1 SWAP2 SUB SWAP1 RETURN JUMPDEST CALLVALUE DUP1 ISZERO PUSH2 0x3B7 JUMPI PUSH0 DUP1 REVERT JUMPDEST POP PUSH2 0x3D2 PUSH1 0x4 DUP1 CALLDATASIZE SUB DUP2 ADD SWAP1 PUSH2 0x3CD SWAP2 SWAP1 PUSH2 0x161E JUMP JUMPDEST PUSH2 0x1038 JUMP JUMPDEST STOP JUMPDEST PUSH2 0x3DC PUSH2 0x10BA JUMP JUMPDEST PUSH0 DUP5 SWAP1 POP CALLER PUSH20 0xFFFFFFFFFFFFFFFFFFFFFFFFFFFFFFFFFFFFFFFF AND DUP2 PUSH20 0xFFFFFFFFFFFFFFFFFFFFFFFFFFFFFFFFFFFFFFFF AND PUSH4 0x6352211E DUP7 PUSH1 0x40 MLOAD DUP3 PUSH4 0xFFFFFFFF AND PUSH1 0xE0 SHL DUP2 MSTORE PUSH1 0x4 ADD PUSH2 0x430 SWAP2 SWAP1 PUSH2 0x158C JUMP JUMPDEST PUSH1 0x20 PUSH1 0x40 MLOAD DUP1 DUP4 SUB DUP2 DUP7 GAS STATICCALL ISZERO DUP1 ISZERO PUSH2 0x44B JUMPI RETURNDATASIZE PUSH0 DUP1 RETURNDATACOPY RETURNDATASIZE PUSH0 REVERT JUMPDEST POP POP POP POP PUSH1 0x40 MLOAD RETURNDATASIZE PUSH1 0x1F NOT PUSH1 0x1F DUP3 ADD AND DUP3 ADD DUP1 PUSH1 0x40 MSTORE POP DUP2 ADD SWAP1 PUSH2 0x46F SWAP2 SWAP1 PUSH2 0x165D JUMP JUMPDEST PUSH20 0xFFFFFFFFFFFFFFFFFFFFFFFFFFFFFFFFFFFFFFFF AND EQ PUSH2 0x4C5 JUMPI PUSH1 0x40 MLOAD PUSH32 0x8C379A000000000000000000000000000000000000000000000000000000000 DUP2 MSTORE PUSH1 0x4 ADD PUSH2 0x4BC SWAP1 PUSH2 0x16E2 JUMP JUMPDEST PUSH1 0x40 MLOAD DUP1 SWAP2 SUB SWAP1 REVERT JUMPDEST PUSH1 0x40 MLOAD DUP1 PUSH1 0xA0 ADD PUSH1 0x40 MSTORE DUP1 DUP7 PUSH20 0xFFFFFFFFFFFFFFFFFFFFFFFFFFFFFFFFFFFFFFFF AND DUP2 MSTORE PUSH1 0x20 ADD DUP6 DUP2 MSTORE PUSH1 0x20 ADD CALLER PUSH20 0xFFFFFFFFFFFFFFFFFFFFFFFFFFFFFFFFFFFFFFFF AND DUP2 MSTORE PUSH1 0x20 ADD DUP5 DUP2 MSTORE PUSH1 0x20 ADD DUP4 TIMESTAMP PUSH2 0x520 SWAP2 SWAP1 PUSH2 0x172D JUMP JUMPDEST DUP2 MSTORE POP PUSH1 0x8 PUSH0 PUSH1 0x9 SLOAD DUP2 MSTORE PUSH1 0x20 ADD SWAP1 DUP2 MSTORE PUSH1 0x20 ADD PUSH0 KECCAK256 PUSH0 DUP3 ADD MLOAD DUP2 PUSH0 ADD PUSH0 PUSH2 0x100 EXP DUP2 SLOAD DUP2 PUSH20 0xFFFFFFFFFFFFFFFFFFFFFFFFFFFFFFFFFFFFFFFF MUL NOT AND SWAP1 DUP4 PUSH20 0xFFFFFFFFFFFFFFFFFFFFFFFFFFFFFFFFFFFFFFFF AND MUL OR SWAP1 SSTORE POP PUSH1 0x20 DUP3 ADD MLOAD DUP2 PUSH1 0x1 ADD SSTORE PUSH1 0x40 DUP3 ADD MLOAD DUP2 PUSH1 0x2 ADD PUSH0 PUSH2 0x100 EXP DUP2 SLOAD DUP2 PUSH20 0xFFFFFFFFFFFFFFFFFFFFFFFFFFFFFFFFFFFFFFFF MUL NOT AND SWAP1 DUP4 PUSH20 0xFFFFFFFFFFFFFFFFFFFFFFFFFFFFFFFFFFFFFFFF AND MUL OR SWAP1 SSTORE POP PUSH1 0x60 DUP3 ADD MLOAD DUP2 PUSH1 0x3 ADD SSTORE PUSH1 0x80 DUP3 ADD MLOAD DUP2 PUSH1 0x4 ADD SSTORE SWAP1 POP POP PUSH1 0x3 PUSH1 0x9 SLOAD SWAP1 DUP1 PUSH1 0x1 DUP2 SLOAD ADD DUP1 DUP3 SSTORE DUP1 SWAP2 POP POP PUSH1 0x1 SWAP1 SUB SWAP1 PUSH0 MSTORE PUSH1 0x20 PUSH0 KECCAK256 ADD PUSH0 SWAP1 SWAP2 SWAP1 SWAP2 SWAP1 SWAP2 POP SSTORE DUP5 PUSH20 0xFFFFFFFFFFFFFFFFFFFFFFFFFFFFFFFFFFFFFFFF AND CALLER PUSH20 0xFFFFFFFFFFFFFFFFFFFFFFFFFFFFFFFFFFFFFFFF AND PUSH1 0x9 SLOAD PUSH32 0xF33C76FEC15A03B2E414DF8C9DCE93F5B05F8672742E0F1EB558B2161162DFCB DUP8 DUP8 DUP8 TIMESTAMP PUSH2 0x669 SWAP2 SWAP1 PUSH2 0x172D JUMP JUMPDEST PUSH1 0x40 MLOAD PUSH2 0x678 SWAP4 SWAP3 SWAP2 SWAP1 PUSH2 0x1760 JUMP JUMPDEST PUSH1 0x40 MLOAD DUP1 SWAP2 SUB SWAP1 LOG4 PUSH1 0x9 PUSH0 DUP2 SLOAD DUP1 SWAP3 SWAP2 SWAP1 PUSH2 0x692 SWAP1 PUSH2 0x1795 JUMP JUMPDEST SWAP2 SWAP1 POP SSTORE POP POP POP POP POP POP JUMP JUMPDEST PUSH2 0x6A6 PUSH2 0x1104 JUMP JUMPDEST PUSH2 0x6AE PUSH2 0x1182 JUMP JUMPDEST JUMP JUMPDEST PUSH2 0x6B8 PUSH2 0x10BA JUMP JUMPDEST PUSH2 0x6C0 PUSH2 0x11E3 JUMP JUMPDEST PUSH0 PUSH1 0x8 PUSH0 DUP4 DUP2 MSTORE PUSH1 0x20 ADD SWAP1 DUP2 MSTORE PUSH1 0x20 ADD PUSH0 KECCAK256 SWAP1 POP PUSH0 PUSH20 0xFFFFFFFFFFFFFFFFFFFFFFFFFFFFFFFFFFFFFFFF AND DUP2 PUSH1 0x2 ADD PUSH0 SWAP1 SLOAD SWAP1 PUSH2 0x100 EXP SWAP1 DIV PUSH20 0xFFFFFFFFFFFFFFFFFFFFFFFFFFFFFFFFFFFFFFFF AND PUSH20 0xFFFFFFFFFFFFFFFFFFFFFFFFFFFFFFFFFFFFFFFF AND SUB PUSH2 0x765 JUMPI PUSH1 0x40 MLOAD PUSH32 0x8C379A000000000000000000000000000000000000000000000000000000000 DUP2 MSTORE PUSH1 0x4 ADD PUSH2 0x75C SWAP1 PUSH2 0x1826 JUMP JUMPDEST PUSH1 0x40 MLOAD DUP1 SWAP2 SUB SWAP1 REVERT JUMPDEST DUP1 PUSH1 0x4 ADD SLOAD TIMESTAMP GT ISZERO PUSH2 0x7AC JUMPI PUSH1 0x40 MLOAD PUSH32 0x8C379A000000000000000000000000000000000000000000000000000000000 DUP2 MSTORE PUSH1 0x4 ADD PUSH2 0x7A3 SWAP1 PUSH2 0x188E JUMP JUMPDEST PUSH1 0x40 MLOAD DUP1 SWAP2 SUB SWAP1 REVERT JUMPDEST DUP1 PUSH1 0x3 ADD SLOAD CALLVALUE EQ PUSH2 0x7F2 JUMPI PUSH1 0x40 MLOAD PUSH32 0x8C379A000000000000000000000000000000000000000000000000000000000 DUP2 MSTORE PUSH1 0x4 ADD PUSH2 0x7E9 SWAP1 PUSH2 0x191C JUMP JUMPDEST PUSH1 0x40 MLOAD DUP1 SWAP2 SUB SWAP1 REVERT JUMPDEST PUSH0 PUSH2 0x2710 PUSH1 0x4 SLOAD DUP4 PUSH1 0x3 ADD SLOAD PUSH2 0x808 SWAP2 SWAP1 PUSH2 0x193A JUMP JUMPDEST PUSH2 0x812 SWAP2 SWAP1 PUSH2 0x19A8 JUMP JUMPDEST SWAP1 POP PUSH0 PUSH2 0x2710 PUSH1 0x5 SLOAD DUP5 PUSH1 0x3 ADD SLOAD PUSH2 0x82A SWAP2 SWAP1 PUSH2 0x193A JUMP JUMPDEST PUSH2 0x834 SWAP2 SWAP1 PUSH2 0x19A8 JUMP JUMPDEST SWAP1 POP PUSH0 DUP2 DUP4 DUP6 PUSH1 0x3 ADD SLOAD PUSH2 0x848 SWAP2 SWAP1 PUSH2 0x19D8 JUMP JUMPDEST PUSH2 0x852 SWAP2 SWAP1 PUSH2 0x19D8 JUMP JUMPDEST SWAP1 POP PUSH0 DUP5 PUSH0 ADD PUSH0 SWAP1 SLOAD SWAP1 PUSH2 0x100 EXP SWAP1 DIV PUSH20 0xFFFFFFFFFFFFFFFFFFFFFFFFFFFFFFFFFFFFFFFF AND SWAP1 POP DUP5 PUSH1 0x2 ADD PUSH0 SWAP1 SLOAD SWAP1 PUSH2 0x100 EXP SWAP1 DIV PUSH20 0xFFFFFFFFFFFFFFFFFFFFFFFFFFFFFFFFFFFFFFFF AND PUSH20 0xFFFFFFFFFFFFFFFFFFFFFFFFFFFFFFFFFFFFFFFF AND DUP2 PUSH20 0xFFFFFFFFFFFFFFFFFFFFFFFFFFFFFFFFFFFFFFFF AND PUSH4 0x6352211E DUP8 PUSH1 0x1 ADD SLOAD PUSH1 0x40 MLOAD DUP3 PUSH4 0xFFFFFFFF AND PUSH1 0xE0 SHL DUP2 MSTORE PUSH1 0x4 ADD PUSH2 0x8F1 SWAP2 SWAP1 PUSH2 0x158C JUMP JUMPDEST PUSH1 0x20 PUSH1 0x40 MLOAD DUP1 DUP4 SUB DUP2 DUP7 GAS STATICCALL ISZERO DUP1 ISZERO PUSH2 0x90C JUMPI RETURNDATASIZE PUSH0 DUP1 RETURNDATACOPY RETURNDATASIZE PUSH0 REVERT JUMPDEST POP POP POP POP PUSH1 0x40 MLOAD RETURNDATASIZE PUSH1 0x1F NOT PUSH1 0x1F DUP3 ADD AND DUP3 ADD DUP1 PUSH1 0x40 MSTORE POP DUP2 ADD SWAP1 PUSH2 0x930 SWAP2 SWAP1 PUSH2 0x165D JUMP JUMPDEST PUSH20 0xFFFFFFFFFFFFFFFFFFFFFFFFFFFFFFFFFFFFFFFF AND EQ PUSH2 0x986 JUMPI PUSH1 0x40 MLOAD PUSH32 0x8C379A000000000000000000000000000000000000000000000000000000000 DUP2 MSTORE PUSH1 0x4 ADD PUSH2 0x97D SWAP1 PUSH2 0x1A55 JUMP JUMPDEST PUSH1 0x40 MLOAD DUP1 SWAP2 SUB SWAP1 REVERT JUMPDEST DUP1 PUSH20 0xFFFFFFFFFFFFFFFFFFFFFFFFFFFFFFFFFFFFFFFF AND PUSH4 0x42842E0E DUP7 PUSH1 0x2 ADD PUSH0 SWAP1 SLOAD SWAP1 PUSH2 0x100 EXP SWAP1 DIV PUSH20 0xFFFFFFFFFFFFFFFFFFFFFFFFFFFFFFFFFFFFFFFF AND CALLER DUP9 PUSH1 0x1 ADD SLOAD PUSH1 0x40 MLOAD DUP5 PUSH4 0xFFFFFFFF AND PUSH1 0xE0 SHL DUP2 MSTORE PUSH1 0x4 ADD PUSH2 0x9EA SWAP4 SWAP3 SWAP2 SWAP1 PUSH2 0x1A73 JUMP JUMPDEST PUSH0 PUSH1 0x40 MLOAD DUP1 DUP4 SUB DUP2 PUSH0 DUP8 DUP1 EXTCODESIZE ISZERO DUP1 ISZERO PUSH2 0xA01 JUMPI PUSH0 DUP1 REVERT JUMPDEST POP GAS CALL ISZERO DUP1 ISZERO PUSH2 0xA13 JUMPI RETURNDATASIZE PUSH0 DUP1 RETURNDATACOPY RETURNDATASIZE PUSH0 REVERT JUMPDEST POP POP POP POP DUP5 PUSH1 0x2 ADD PUSH0 SWAP1 SLOAD SWAP1 PUSH2 0x100 EXP SWAP1 DIV PUSH20 0xFFFFFFFFFFFFFFFFFFFFFFFFFFFFFFFFFFFFFFFF AND PUSH20 0xFFFFFFFFFFFFFFFFFFFFFFFFFFFFFFFFFFFFFFFF AND PUSH2 0x8FC DUP4 SWAP1 DUP2 ISZERO MUL SWAP1 PUSH1 0x40 MLOAD PUSH0 PUSH1 0x40 MLOAD DUP1 DUP4 SUB DUP2 DUP6 DUP9 DUP9 CALL SWAP4 POP POP POP POP ISZERO DUP1 ISZERO PUSH2 0xA7D JUMPI RETURNDATASIZE PUSH0 DUP1 RETURNDATACOPY RETURNDATASIZE PUSH0 REVERT JUMPDEST POP PUSH1 0x6 PUSH0 SWAP1 SLOAD SWAP1 PUSH2 0x100 EXP SWAP1 DIV PUSH20 0xFFFFFFFFFFFFFFFFFFFFFFFFFFFFFFFFFFFFFFFF AND PUSH20 0xFFFFFFFFFFFFFFFFFFFFFFFFFFFFFFFFFFFFFFFF AND PUSH2 0x8FC DUP6 SWAP1 DUP2 ISZERO MUL SWAP1 PUSH1 0x40 MLOAD PUSH0 PUSH1 0x40 MLOAD DUP1 DUP4 SUB DUP2 DUP6 DUP9 DUP9 CALL SWAP4 POP POP POP POP ISZERO DUP1 ISZERO PUSH2 0xAE2 JUMPI RETURNDATASIZE PUSH0 DUP1 RETURNDATACOPY RETURNDATASIZE PUSH0 REVERT JUMPDEST POP PUSH1 0x7 PUSH0 SWAP1 SLOAD SWAP1 PUSH2 0x100 EXP SWAP1 DIV PUSH20 0xFFFFFFFFFFFFFFFFFFFFFFFFFFFFFFFFFFFFFFFF AND PUSH20 0xFFFFFFFFFFFFFFFFFFFFFFFFFFFFFFFFFFFFFFFF AND PUSH2 0x8FC DUP5 SWAP1 DUP2 ISZERO MUL SWAP1 PUSH1 0x40 MLOAD PUSH0 PUSH1 0x40 MLOAD DUP1 DUP4 SUB DUP2 DUP6 DUP9 DUP9 CALL SWAP4 POP POP POP POP ISZERO DUP1 ISZERO PUSH2 0xB47 JUMPI RETURNDATASIZE PUSH0 DUP1 RETURNDATACOPY RETURNDATASIZE PUSH0 REVERT JUMPDEST POP CALLER PUSH20 0xFFFFFFFFFFFFFFFFFFFFFFFFFFFFFFFFFFFFFFFF AND DUP6 PUSH1 0x2 ADD PUSH0 SWAP1 SLOAD SWAP1 PUSH2 0x100 EXP SWAP1 DIV PUSH20 0xFFFFFFFFFFFFFFFFFFFFFFFFFFFFFFFFFFFFFFFF AND PUSH20 0xFFFFFFFFFFFFFFFFFFFFFFFFFFFFFFFFFFFFFFFF AND DUP8 PUSH32 0x8562EB94748E30BB0071E932744CE902B460C683474FCB3BFD567FFA16B1AFB2 DUP9 PUSH1 0x3 ADD SLOAD PUSH1 0x40 MLOAD PUSH2 0xBCD SWAP2 SWAP1 PUSH2 0x158C JUMP JUMPDEST PUSH1 0x40 MLOAD DUP1 SWAP2 SUB SWAP1 LOG4 PUSH1 0x8 PUSH0 DUP8 DUP2 MSTORE PUSH1 0x20 ADD SWAP1 DUP2 MSTORE PUSH1 0x20 ADD PUSH0 KECCAK256 PUSH0 DUP1 DUP3 ADD PUSH0 PUSH2 0x100 EXP DUP2 SLOAD SWAP1 PUSH20 0xFFFFFFFFFFFFFFFFFFFFFFFFFFFFFFFFFFFFFFFF MUL NOT AND SWAP1 SSTORE PUSH1 0x1 DUP3 ADD PUSH0 SWAP1 SSTORE PUSH1 0x2 DUP3 ADD PUSH0 PUSH2 0x100 EXP DUP2 SLOAD SWAP1 PUSH20 0xFFFFFFFFFFFFFFFFFFFFFFFFFFFFFFFFFFFFFFFF MUL NOT AND SWAP1 SSTORE PUSH1 0x3 DUP3 ADD PUSH0 SWAP1 SSTORE PUSH1 0x4 DUP3 ADD PUSH0 SWAP1 SSTORE POP POP POP POP POP POP POP PUSH2 0xC56 PUSH2 0x1232 JUMP JUMPDEST POP JUMP JUMPDEST PUSH0 PUSH1 0x2 PUSH0 SWAP1 SLOAD SWAP1 PUSH2 0x100 EXP SWAP1 DIV PUSH1 0xFF AND SWAP1 POP SWAP1 JUMP JUMPDEST PUSH2 0xC76 PUSH2 0x1104 JUMP JUMPDEST PUSH0 PUSH20 0xFFFFFFFFFFFFFFFFFFFFFFFFFFFFFFFFFFFFFFFF AND DUP3 PUSH20 0xFFFFFFFFFFFFFFFFFFFFFFFFFFFFFFFFFFFFFFFF AND EQ ISZERO DUP1 ISZERO PUSH2 0xCDE JUMPI POP PUSH0 PUSH20 0xFFFFFFFFFFFFFFFFFFFFFFFFFFFFFFFFFFFFFFFF AND DUP2 PUSH20 0xFFFFFFFFFFFFFFFFFFFFFFFFFFFFFFFFFFFFFFFF AND EQ ISZERO JUMPDEST PUSH2 0xD1D JUMPI PUSH1 0x40 MLOAD PUSH32 0x8C379A000000000000000000000000000000000000000000000000000000000 DUP2 MSTORE PUSH1 0x4 ADD PUSH2 0xD14 SWAP1 PUSH2 0x1AF2 JUMP JUMPDEST PUSH1 0x40 MLOAD DUP1 SWAP2 SUB SWAP1 REVERT JUMPDEST DUP2 PUSH1 0x6 PUSH0 PUSH2 0x100 EXP DUP2 SLOAD DUP2 PUSH20 0xFFFFFFFFFFFFFFFFFFFFFFFFFFFFFFFFFFFFFFFF MUL NOT AND SWAP1 DUP4 PUSH20 0xFFFFFFFFFFFFFFFFFFFFFFFFFFFFFFFFFFFFFFFF AND MUL OR SWAP1 SSTORE POP DUP1 PUSH1 0x7 PUSH0 PUSH2 0x100 EXP DUP2 SLOAD DUP2 PUSH20 0xFFFFFFFFFFFFFFFFFFFFFFFFFFFFFFFFFFFFFFFF MUL NOT AND SWAP1 DUP4 PUSH20 0xFFFFFFFFFFFFFFFFFFFFFFFFFFFFFFFFFFFFFFFF AND MUL OR SWAP1 SSTORE POP POP POP JUMP JUMPDEST PUSH2 0xDA9 PUSH2 0x1104 JUMP JUMPDEST PUSH2 0xDB2 PUSH0 PUSH2 0x123B JUMP JUMPDEST JUMP JUMPDEST PUSH2 0xDBC PUSH2 0x1104 JUMP JUMPDEST DUP2 PUSH1 0x4 DUP2 SWAP1 SSTORE POP DUP1 PUSH1 0x5 DUP2 SWAP1 SSTORE POP POP POP JUMP JUMPDEST PUSH2 0xDD6 PUSH2 0x1104 JUMP JUMPDEST PUSH2 0xDDE PUSH2 0x12FC JUMP JUMPDEST JUMP JUMPDEST PUSH1 0x4 SLOAD DUP2 JUMP JUMPDEST PUSH0 DUP1 PUSH0 SWAP1 SLOAD SWAP1 PUSH2 0x100 EXP SWAP1 DIV PUSH20 0xFFFFFFFFFFFFFFFFFFFFFFFFFFFFFFFFFFFFFFFF AND SWAP1 POP SWAP1 JUMP JUMPDEST PUSH1 0x9 SLOAD DUP2 JUMP JUMPDEST PUSH1 0x6 PUSH0 SWAP1 SLOAD SWAP1 PUSH2 0x100 EXP SWAP1 DIV PUSH20 0xFFFFFFFFFFFFFFFFFFFFFFFFFFFFFFFFFFFFFFFF AND DUP2 JUMP JUMPDEST CALLER PUSH20 0xFFFFFFFFFFFFFFFFFFFFFFFFFFFFFFFFFFFFFFFF AND PUSH1 0x8 PUSH0 DUP4 DUP2 MSTORE PUSH1 0x20 ADD SWAP1 DUP2 MSTORE PUSH1 0x20 ADD PUSH0 KECCAK256 PUSH1 0x2 ADD PUSH0 SWAP1 SLOAD SWAP1 PUSH2 0x100 EXP SWAP1 DIV PUSH20 0xFFFFFFFFFFFFFFFFFFFFFFFFFFFFFFFFFFFFFFFF AND PUSH20 0xFFFFFFFFFFFFFFFFFFFFFFFFFFFFFFFFFFFFFFFF AND EQ PUSH2 0xED9 JUMPI PUSH1 0x40 MLOAD PUSH32 0x8C379A000000000000000000000000000000000000000000000000000000000 DUP2 MSTORE PUSH1 0x4 ADD PUSH2 0xED0 SWAP1 PUSH2 0x1B80 JUMP JUMPDEST PUSH1 0x40 MLOAD DUP1 SWAP2 SUB SWAP1 REVERT JUMPDEST PUSH1 0x8 PUSH0 DUP3 DUP2 MSTORE PUSH1 0x20 ADD SWAP1 DUP2 MSTORE PUSH1 0x20 ADD PUSH0 KECCAK256 PUSH0 DUP1 DUP3 ADD PUSH0 PUSH2 0x100 EXP DUP2 SLOAD SWAP1 PUSH20 0xFFFFFFFFFFFFFFFFFFFFFFFFFFFFFFFFFFFFFFFF MUL NOT AND SWAP1 SSTORE PUSH1 0x1 DUP3 ADD PUSH0 SWAP1 SSTORE PUSH1 0x2 DUP3 ADD PUSH0 PUSH2 0x100 EXP DUP2 SLOAD SWAP1 PUSH20 0xFFFFFFFFFFFFFFFFFFFFFFFFFFFFFFFFFFFFFFFF MUL NOT AND SWAP1 SSTORE PUSH1 0x3 DUP3 ADD PUSH0 SWAP1 SSTORE PUSH1 0x4 DUP3 ADD PUSH0 SWAP1 SSTORE POP POP DUP1 PUSH32 0xC0C55A6EDEAD4433D18CB1E287A0A20A2FA003A6F483BC9823D2E504D70D1C67 PUSH1 0x40 MLOAD PUSH1 0x40 MLOAD DUP1 SWAP2 SUB SWAP1 LOG2 POP JUMP JUMPDEST PUSH1 0x5 SLOAD DUP2 JUMP JUMPDEST PUSH1 0x8 PUSH1 0x20 MSTORE DUP1 PUSH0 MSTORE PUSH1 0x40 PUSH0 KECCAK256 PUSH0 SWAP2 POP SWAP1 POP DUP1 PUSH0 ADD PUSH0 SWAP1 SLOAD SWAP1 PUSH2 0x100 EXP SWAP1 DIV PUSH20 0xFFFFFFFFFFFFFFFFFFFFFFFFFFFFFFFFFFFFFFFF AND SWAP1 DUP1 PUSH1 0x1 ADD SLOAD SWAP1 DUP1 PUSH1 0x2 ADD PUSH0 SWAP1 SLOAD SWAP1 PUSH2 0x100 EXP SWAP1 DIV PUSH20 0xFFFFFFFFFFFFFFFFFFFFFFFFFFFFFFFFFFFFFFFF AND SWAP1 DUP1 PUSH1 0x3 ADD SLOAD SWAP1 DUP1 PUSH1 0x4 ADD SLOAD SWAP1 POP DUP6 JUMP JUMPDEST PUSH1 0x3 DUP2 DUP2 SLOAD DUP2 LT PUSH2 0x1002 JUMPI PUSH0 DUP1 REVERT JUMPDEST SWAP1 PUSH0 MSTORE PUSH1 0x20 PUSH0 KECCAK256 ADD PUSH0 SWAP2 POP SWAP1 POP SLOAD DUP2 JUMP JUMPDEST PUSH1 0x7 PUSH0 SWAP1 SLOAD SWAP1 PUSH2 0x100 EXP SWAP1 DIV PUSH20 0xFFFFFFFFFFFFFFFFFFFFFFFFFFFFFFFFFFFFFFFF AND DUP2 JUMP JUMPDEST PUSH2 0x1040 PUSH2 0x1104 JUMP JUMPDEST PUSH0 PUSH20 0xFFFFFFFFFFFFFFFFFFFFFFFFFFFFFFFFFFFFFFFF AND DUP2 PUSH20 0xFFFFFFFFFFFFFFFFFFFFFFFFFFFFFFFFFFFFFFFF AND SUB PUSH2 0x10AE JUMPI PUSH1 0x40 MLOAD PUSH32 0x8C379A000000000000000000000000000000000000000000000000000000000 DUP2 MSTORE PUSH1 0x4 ADD PUSH2 0x10A5 SWAP1 PUSH2 0x1C0E JUMP JUMPDEST PUSH1 0x40 MLOAD DUP1 SWAP2 SUB SWAP1 REVERT JUMPDEST PUSH2 0x10B7 DUP2 PUSH2 0x123B JUMP JUMPDEST POP JUMP JUMPDEST PUSH2 0x10C2 PUSH2 0xC59 JUMP JUMPDEST ISZERO PUSH2 0x1102 JUMPI PUSH1 0x40 MLOAD PUSH32 0x8C379A000000000000000000000000000000000000000000000000000000000 DUP2 MSTORE PUSH1 0x4 ADD PUSH2 0x10F9 SWAP1 PUSH2 0x1C76 JUMP JUMPDEST PUSH1 0x40 MLOAD DUP1 SWAP2 SUB SWAP1 REVERT JUMPDEST JUMP JUMPDEST PUSH2 0x110C PUSH2 0x135E JUMP JUMPDEST PUSH20 0xFFFFFFFFFFFFFFFFFFFFFFFFFFFFFFFFFFFFFFFF AND PUSH2 0x112A PUSH2 0xDE6 JUMP JUMPDEST PUSH20 0xFFFFFFFFFFFFFFFFFFFFFFFFFFFFFFFFFFFFFFFF AND EQ PUSH2 0x1180 JUMPI PUSH1 0x40 MLOAD PUSH32 0x8C379A000000000000000000000000000000000000000000000000000000000 DUP2 MSTORE PUSH1 0x4 ADD PUSH2 0x1177 SWAP1 PUSH2 0x1CDE JUMP JUMPDEST PUSH1 0x40 MLOAD DUP1 SWAP2 SUB SWAP1 REVERT JUMPDEST JUMP JUMPDEST PUSH2 0x118A PUSH2 0x1365 JUMP JUMPDEST PUSH0 PUSH1 0x2 PUSH0 PUSH2 0x100 EXP DUP2 SLOAD DUP2 PUSH1 0xFF MUL NOT AND SWAP1 DUP4 ISZERO ISZERO MUL OR SWAP1 SSTORE POP PUSH32 0x5DB9EE0A495BF2E6FF9C91A7834C1BA4FDD244A5E8AA4E537BD38AEAE4B073AA PUSH2 0x11CC PUSH2 0x135E JUMP JUMPDEST PUSH1 0x40 MLOAD PUSH2 0x11D9 SWAP2 SWAP1 PUSH2 0x15B4 JUMP JUMPDEST PUSH1 0x40 MLOAD DUP1 SWAP2 SUB SWAP1 LOG1 JUMP JUMPDEST PUSH1 0x2 PUSH1 0x1 SLOAD SUB PUSH2 0x1228 JUMPI PUSH1 0x40 MLOAD PUSH32 0x8C379A000000000000000000000000000000000000000000000000000000000 DUP2 MSTORE PUSH1 0x4 ADD PUSH2 0x121F SWAP1 PUSH2 0x1D46 JUMP JUMPDEST PUSH1 0x40 MLOAD DUP1 SWAP2 SUB SWAP1 REVERT JUMPDEST PUSH1 0x2 PUSH1 0x1 DUP2 SWAP1 SSTORE POP JUMP JUMPDEST PUSH1 0x1 DUP1 DUP2 SWAP1 SSTORE POP JUMP JUMPDEST PUSH0 DUP1 PUSH0 SWAP1 SLOAD SWAP1 PUSH2 0x100 EXP SWAP1 DIV PUSH20 0xFFFFFFFFFFFFFFFFFFFFFFFFFFFFFFFFFFFFFFFF AND SWAP1 POP DUP2 PUSH0 DUP1 PUSH2 0x100 EXP DUP2 SLOAD DUP2 PUSH20 0xFFFFFFFFFFFFFFFFFFFFFFFFFFFFFFFFFFFFFFFF MUL NOT AND SWAP1 DUP4 PUSH20 0xFFFFFFFFFFFFFFFFFFFFFFFFFFFFFFFFFFFFFFFF AND MUL OR SWAP1 SSTORE POP DUP2 PUSH20 0xFFFFFFFFFFFFFFFFFFFFFFFFFFFFFFFFFFFFFFFF AND DUP2 PUSH20 0xFFFFFFFFFFFFFFFFFFFFFFFFFFFFFFFFFFFFFFFF AND PUSH32 0x8BE0079C531659141344CD1FD0A4F28419497F9722A3DAAFE3B4186F6B6457E0 PUSH1 0x40 MLOAD PUSH1 0x40 MLOAD DUP1 SWAP2 SUB SWAP1 LOG3 POP POP JUMP JUMPDEST PUSH2 0x1304 PUSH2 0x10BA JUMP JUMPDEST PUSH1 0x1 PUSH1 0x2 PUSH0 PUSH2 0x100 EXP DUP2 SLOAD DUP2 PUSH1 0xFF MUL NOT AND SWAP1 DUP4 ISZERO ISZERO MUL OR SWAP1 SSTORE POP PUSH32 0x62E78CEA01BEE320CD4E420270B5EA74000D11B0C9F74754EBDBFC544B05A258 PUSH2 0x1347 PUSH2 0x135E JUMP JUMPDEST PUSH1 0x40 MLOAD PUSH2 0x1354 SWAP2 SWAP1 PUSH2 0x15B4 JUMP JUMPDEST PUSH1 0x40 MLOAD DUP1 SWAP2 SUB SWAP1 LOG1 JUMP JUMPDEST PUSH0 CALLER SWAP1 POP SWAP1 JUMP JUMPDEST PUSH2 0x136D PUSH2 0xC59 JUMP JUMPDEST PUSH2 0x13AC JUMPI PUSH1 0x40 MLOAD PUSH32 0x8C379A000000000000000000000000000000000000000000000000000000000 DUP2 MSTORE PUSH1 0x4 ADD PUSH2 0x13A3 SWAP1 PUSH2 0x1DAE JUMP JUMPDEST PUSH1 0x40 MLOAD DUP1 SWAP2 SUB SWAP1 REVERT JUMPDEST JUMP JUMPDEST PUSH0 DUP1 REVERT JUMPDEST PUSH0 PUSH20 0xFFFFFFFFFFFFFFFFFFFFFFFFFFFFFFFFFFFFFFFF DUP3 AND SWAP1 POP SWAP2 SWAP1 POP JUMP JUMPDEST PUSH0 PUSH2 0x13DB DUP3 PUSH2 0x13B2 JUMP JUMPDEST SWAP1 POP SWAP2 SWAP1 POP JUMP JUMPDEST PUSH2 0x13EB DUP2 PUSH2 0x13D1 JUMP JUMPDEST DUP2 EQ PUSH2 0x13F5 JUMPI PUSH0 DUP1 REVERT JUMPDEST POP JUMP JUMPDEST PUSH0 DUP2 CALLDATALOAD SWAP1 POP PUSH2 0x1406 DUP2 PUSH2 0x13E2 JUMP JUMPDEST SWAP3 SWAP2 POP POP JUMP JUMPDEST PUSH0 DUP2 SWAP1 POP SWAP2 SWAP1 POP JUMP JUMPDEST PUSH2 0x141E DUP2 PUSH2 0x140C JUMP JUMPDEST DUP2 EQ PUSH2 0x1428 JUMPI PUSH0 DUP1 REVERT JUMPDEST POP JUMP JUMPDEST PUSH0 DUP2 CALLDATALOAD SWAP1 POP PUSH2 0x1439 DUP2 PUSH2 0x1415 JUMP JUMPDEST SWAP3 SWAP2 POP POP JUMP JUMPDEST PUSH0 DUP1 PUSH0 DUP1 PUSH1 0x80 DUP6 DUP8 SUB SLT ISZERO PUSH2 0x1457 JUMPI PUSH2 0x1456 PUSH2 0x13AE JUMP JUMPDEST JUMPDEST PUSH0 PUSH2 0x1464 DUP8 DUP3 DUP9 ADD PUSH2 0x13F8 JUMP JUMPDEST SWAP5 POP POP PUSH1 0x20 PUSH2 0x1475 DUP8 DUP3 DUP9 ADD PUSH2 0x142B JUMP JUMPDEST SWAP4 POP POP PUSH1 0x40 PUSH2 0x1486 DUP8 DUP3 DUP9 ADD PUSH2 0x142B JUMP JUMPDEST SWAP3 POP POP PUSH1 0x60 PUSH2 0x1497 DUP8 DUP3 DUP9 ADD PUSH2 0x142B JUMP JUMPDEST SWAP2 POP POP SWAP3 SWAP6 SWAP2 SWAP5 POP SWAP3 POP JUMP JUMPDEST PUSH0 PUSH1 0x20 DUP3 DUP5 SUB SLT ISZERO PUSH2 0x14B8 JUMPI PUSH2 0x14B7 PUSH2 0x13AE JUMP JUMPDEST JUMPDEST PUSH0 PUSH2 0x14C5 DUP5 DUP3 DUP6 ADD PUSH2 0x142B JUMP JUMPDEST SWAP2 POP POP SWAP3 SWAP2 POP POP JUMP JUMPDEST PUSH0 DUP2 ISZERO ISZERO SWAP1 POP SWAP2 SWAP1 POP JUMP JUMPDEST PUSH2 0x14E2 DUP2 PUSH2 0x14CE JUMP JUMPDEST DUP3 MSTORE POP POP JUMP JUMPDEST PUSH0 PUSH1 0x20 DUP3 ADD SWAP1 POP PUSH2 0x14FB PUSH0 DUP4 ADD DUP5 PUSH2 0x14D9 JUMP JUMPDEST SWAP3 SWAP2 POP POP JUMP JUMPDEST PUSH0 DUP1 PUSH1 0x40 DUP4 DUP6 SUB SLT ISZERO PUSH2 0x1517 JUMPI PUSH2 0x1516 PUSH2 0x13AE JUMP JUMPDEST JUMPDEST PUSH0 PUSH2 0x1524 DUP6 DUP3 DUP7 ADD PUSH2 0x13F8 JUMP JUMPDEST SWAP3 POP POP PUSH1 0x20 PUSH2 0x1535 DUP6 DUP3 DUP7 ADD PUSH2 0x13F8 JUMP JUMPDEST SWAP2 POP POP SWAP3 POP SWAP3 SWAP1 POP JUMP JUMPDEST PUSH0 DUP1 PUSH1 0x40 DUP4 DUP6 SUB SLT ISZERO PUSH2 0x1555 JUMPI PUSH2 0x1554 PUSH2 0x13AE JUMP JUMPDEST JUMPDEST PUSH0 PUSH2 0x1562 DUP6 DUP3 DUP7 ADD PUSH2 0x142B JUMP JUMPDEST SWAP3 POP POP PUSH1 0x20 PUSH2 0x1573 DUP6 DUP3 DUP7 ADD PUSH2 0x142B JUMP JUMPDEST SWAP2 POP POP SWAP3 POP SWAP3 SWAP1 POP JUMP JUMPDEST PUSH2 0x1586 DUP2 PUSH2 0x140C JUMP JUMPDEST DUP3 MSTORE POP POP JUMP JUMPDEST PUSH0 PUSH1 0x20 DUP3 ADD SWAP1 POP PUSH2 0x159F PUSH0 DUP4 ADD DUP5 PUSH2 0x157D JUMP JUMPDEST SWAP3 SWAP2 POP POP JUMP JUMPDEST PUSH2 0x15AE DUP2 PUSH2 0x13D1 JUMP JUMPDEST DUP3 MSTORE POP POP JUMP JUMPDEST PUSH0 PUSH1 0x20 DUP3 ADD SWAP1 POP PUSH2 0x15C7 PUSH0 DUP4 ADD DUP5 PUSH2 0x15A5 JUMP JUMPDEST SWAP3 SWAP2 POP POP JUMP JUMPDEST PUSH0 PUSH1 0xA0 DUP3 ADD SWAP1 POP PUSH2 0x15E0 PUSH0 DUP4 ADD DUP9 PUSH2 0x15A5 JUMP JUMPDEST PUSH2 0x15ED PUSH1 0x20 DUP4 ADD DUP8 PUSH2 0x157D JUMP JUMPDEST PUSH2 0x15FA PUSH1 0x40 DUP4 ADD DUP7 PUSH2 0x15A5 JUMP JUMPDEST PUSH2 0x1607 PUSH1 0x60 DUP4 ADD DUP6 PUSH2 0x157D JUMP JUMPDEST PUSH2 0x1614 PUSH1 0x80 DUP4 ADD DUP5 PUSH2 0x157D JUMP JUMPDEST SWAP7 SWAP6 POP POP POP POP POP POP JUMP JUMPDEST PUSH0 PUSH1 0x20 DUP3 DUP5 SUB SLT ISZERO PUSH2 0x1633 JUMPI PUSH2 0x1632 PUSH2 0x13AE JUMP JUMPDEST JUMPDEST PUSH0 PUSH2 0x1640 DUP5 DUP3 DUP6 ADD PUSH2 0x13F8 JUMP JUMPDEST SWAP2 POP POP SWAP3 SWAP2 POP POP JUMP JUMPDEST PUSH0 DUP2 MLOAD SWAP1 POP PUSH2 0x1657 DUP2 PUSH2 0x13E2 JUMP JUMPDEST SWAP3 SWAP2 POP POP JUMP JUMPDEST PUSH0 PUSH1 0x20 DUP3 DUP5 SUB SLT ISZERO PUSH2 0x1672 JUMPI PUSH2 0x1671 PUSH2 0x13AE JUMP JUMPDEST JUMPDEST PUSH0 PUSH2 0x167F DUP5 DUP3 DUP6 ADD PUSH2 0x1649 JUMP JUMPDEST SWAP2 POP POP SWAP3 SWAP2 POP POP JUMP JUMPDEST PUSH0 DUP3 DUP3 MSTORE PUSH1 0x20 DUP3 ADD SWAP1 POP SWAP3 SWAP2 POP POP JUMP JUMPDEST PUSH32 0x596F75206D757374206F776E20746865204E465420746F206C6973742069742E PUSH0 DUP3 ADD MSTORE POP JUMP JUMPDEST PUSH0 PUSH2 0x16CC PUSH1 0x20 DUP4 PUSH2 0x1688 JUMP JUMPDEST SWAP2 POP PUSH2 0x16D7 DUP3 PUSH2 0x1698 JUMP JUMPDEST PUSH1 0x20 DUP3 ADD SWAP1 POP SWAP2 SWAP1 POP JUMP JUMPDEST PUSH0 PUSH1 0x20 DUP3 ADD SWAP1 POP DUP2 DUP2 SUB PUSH0 DUP4 ADD MSTORE PUSH2 0x16F9 DUP2 PUSH2 0x16C0 JUMP JUMPDEST SWAP1 POP SWAP2 SWAP1 POP JUMP JUMPDEST PUSH32 0x4E487B7100000000000000000000000000000000000000000000000000000000 PUSH0 MSTORE PUSH1 0x11 PUSH1 0x4 MSTORE PUSH1 0x24 PUSH0 REVERT JUMPDEST PUSH0 PUSH2 0x1737 DUP3 PUSH2 0x140C JUMP JUMPDEST SWAP2 POP PUSH2 0x1742 DUP4 PUSH2 0x140C JUMP JUMPDEST SWAP3 POP DUP3 DUP3 ADD SWAP1 POP DUP1 DUP3 GT ISZERO PUSH2 0x175A JUMPI PUSH2 0x1759 PUSH2 0x1700 JUMP JUMPDEST JUMPDEST SWAP3 SWAP2 POP POP JUMP JUMPDEST PUSH0 PUSH1 0x60 DUP3 ADD SWAP1 POP PUSH2 0x1773 PUSH0 DUP4 ADD DUP7 PUSH2 0x157D JUMP JUMPDEST PUSH2 0x1780 PUSH1 0x20 DUP4 ADD DUP6 PUSH2 0x157D JUMP JUMPDEST PUSH2 0x178D PUSH1 0x40 DUP4 ADD DUP5 PUSH2 0x157D JUMP JUMPDEST SWAP5 SWAP4 POP POP POP POP JUMP JUMPDEST PUSH0 PUSH2 0x179F DUP3 PUSH2 0x140C JUMP JUMPDEST SWAP2 POP PUSH32 0xFFFFFFFFFFFFFFFFFFFFFFFFFFFFFFFFFFFFFFFFFFFFFFFFFFFFFFFFFFFFFFFF DUP3 SUB PUSH2 0x17D1 JUMPI PUSH2 0x17D0 PUSH2 0x1700 JUMP JUMPDEST JUMPDEST PUSH1 0x1 DUP3 ADD SWAP1 POP SWAP2 SWAP1 POP JUMP JUMPDEST PUSH32 0x4C697374696E6720646F6573206E6F742065786973742E000000000000000000 PUSH0 DUP3 ADD MSTORE POP JUMP JUMPDEST PUSH0 PUSH2 0x1810 PUSH1 0x17 DUP4 PUSH2 0x1688 JUMP JUMPDEST SWAP2 POP PUSH2 0x181B DUP3 PUSH2 0x17DC JUMP JUMPDEST PUSH1 0x20 DUP3 ADD SWAP1 POP SWAP2 SWAP1 POP JUMP JUMPDEST PUSH0 PUSH1 0x20 DUP3 ADD SWAP1 POP DUP2 DUP2 SUB PUSH0 DUP4 ADD MSTORE PUSH2 0x183D DUP2 PUSH2 0x1804 JUMP JUMPDEST SWAP1 POP SWAP2 SWAP1 POP JUMP JUMPDEST PUSH32 0x54686973206C697374696E672068617320657870697265642E00000000000000 PUSH0 DUP3 ADD MSTORE POP JUMP JUMPDEST PUSH0 PUSH2 0x1878 PUSH1 0x19 DUP4 PUSH2 0x1688 JUMP JUMPDEST SWAP2 POP PUSH2 0x1883 DUP3 PUSH2 0x1844 JUMP JUMPDEST PUSH1 0x20 DUP3 ADD SWAP1 POP SWAP2 SWAP1 POP JUMP JUMPDEST PUSH0 PUSH1 0x20 DUP3 ADD SWAP1 POP DUP2 DUP2 SUB PUSH0 DUP4 ADD MSTORE PUSH2 0x18A5 DUP2 PUSH2 0x186C JUMP JUMPDEST SWAP1 POP SWAP2 SWAP1 POP JUMP JUMPDEST PUSH32 0x53656E742076616C7565206D75737420626520657175616C20746F2074686520 PUSH0 DUP3 ADD MSTORE PUSH32 0x6C697374696E672070726963652E000000000000000000000000000000000000 PUSH1 0x20 DUP3 ADD MSTORE POP JUMP JUMPDEST PUSH0 PUSH2 0x1906 PUSH1 0x2E DUP4 PUSH2 0x1688 JUMP JUMPDEST SWAP2 POP PUSH2 0x1911 DUP3 PUSH2 0x18AC JUMP JUMPDEST PUSH1 0x40 DUP3 ADD SWAP1 POP SWAP2 SWAP1 POP JUMP JUMPDEST PUSH0 PUSH1 0x20 DUP3 ADD SWAP1 POP DUP2 DUP2 SUB PUSH0 DUP4 ADD MSTORE PUSH2 0x1933 DUP2 PUSH2 0x18FA JUMP JUMPDEST SWAP1 POP SWAP2 SWAP1 POP JUMP JUMPDEST PUSH0 PUSH2 0x1944 DUP3 PUSH2 0x140C JUMP JUMPDEST SWAP2 POP PUSH2 0x194F DUP4 PUSH2 0x140C JUMP JUMPDEST SWAP3 POP DUP3 DUP3 MUL PUSH2 0x195D DUP2 PUSH2 0x140C JUMP JUMPDEST SWAP2 POP DUP3 DUP3 DIV DUP5 EQ DUP4 ISZERO OR PUSH2 0x1974 JUMPI PUSH2 0x1973 PUSH2 0x1700 JUMP JUMPDEST JUMPDEST POP SWAP3 SWAP2 POP POP JUMP JUMPDEST PUSH32 0x4E487B7100000000000000000000000000000000000000000000000000000000 PUSH0 MSTORE PUSH1 0x12 PUSH1 0x4 MSTORE PUSH1 0x24 PUSH0 REVERT JUMPDEST PUSH0 PUSH2 0x19B2 DUP3 PUSH2 0x140C JUMP JUMPDEST SWAP2 POP PUSH2 0x19BD DUP4 PUSH2 0x140C JUMP JUMPDEST SWAP3 POP DUP3 PUSH2 0x19CD JUMPI PUSH2 0x19CC PUSH2 0x197B JUMP JUMPDEST JUMPDEST DUP3 DUP3 DIV SWAP1 POP SWAP3 SWAP2 POP POP JUMP JUMPDEST PUSH0 PUSH2 0x19E2 DUP3 PUSH2 0x140C JUMP JUMPDEST SWAP2 POP PUSH2 0x19ED DUP4 PUSH2 0x140C JUMP JUMPDEST SWAP3 POP DUP3 DUP3 SUB SWAP1 POP DUP2 DUP2 GT ISZERO PUSH2 0x1A05 JUMPI PUSH2 0x1A04 PUSH2 0x1700 JUMP JUMPDEST JUMPDEST SWAP3 SWAP2 POP POP JUMP JUMPDEST PUSH32 0x53656C6C6572206E6F206C6F6E676572206F776E7320746865204E46542E0000 PUSH0 DUP3 ADD MSTORE POP JUMP JUMPDEST PUSH0 PUSH2 0x1A3F PUSH1 0x1E DUP4 PUSH2 0x1688 JUMP JUMPDEST SWAP2 POP PUSH2 0x1A4A DUP3 PUSH2 0x1A0B JUMP JUMPDEST PUSH1 0x20 DUP3 ADD SWAP1 POP SWAP2 SWAP1 POP JUMP JUMPDEST PUSH0 PUSH1 0x20 DUP3 ADD SWAP1 POP DUP2 DUP2 SUB PUSH0 DUP4 ADD MSTORE PUSH2 0x1A6C DUP2 PUSH2 0x1A33 JUMP JUMPDEST SWAP1 POP SWAP2 SWAP1 POP JUMP JUMPDEST PUSH0 PUSH1 0x60 DUP3 ADD SWAP1 POP PUSH2 0x1A86 PUSH0 DUP4 ADD DUP7 PUSH2 0x15A5 JUMP JUMPDEST PUSH2 0x1A93 PUSH1 0x20 DUP4 ADD DUP6 PUSH2 0x15A5 JUMP JUMPDEST PUSH2 0x1AA0 PUSH1 0x40 DUP4 ADD DUP5 PUSH2 0x157D JUMP JUMPDEST SWAP5 SWAP4 POP POP POP POP JUMP JUMPDEST PUSH32 0x4164647265737365732063616E6E6F74206265207A65726F0000000000000000 PUSH0 DUP3 ADD MSTORE POP JUMP JUMPDEST PUSH0 PUSH2 0x1ADC PUSH1 0x18 DUP4 PUSH2 0x1688 JUMP JUMPDEST SWAP2 POP PUSH2 0x1AE7 DUP3 PUSH2 0x1AA8 JUMP JUMPDEST PUSH1 0x20 DUP3 ADD SWAP1 POP SWAP2 SWAP1 POP JUMP JUMPDEST PUSH0 PUSH1 0x20 DUP3 ADD SWAP1 POP DUP2 DUP2 SUB PUSH0 DUP4 ADD MSTORE PUSH2 0x1B09 DUP2 PUSH2 0x1AD0 JUMP JUMPDEST SWAP1 POP SWAP2 SWAP1 POP JUMP JUMPDEST PUSH32 0x596F7520617265206E6F74207468652073656C6C6572206F662074686973206C PUSH0 DUP3 ADD MSTORE PUSH32 0x697374696E672E00000000000000000000000000000000000000000000000000 PUSH1 0x20 DUP3 ADD MSTORE POP JUMP JUMPDEST PUSH0 PUSH2 0x1B6A PUSH1 0x27 DUP4 PUSH2 0x1688 JUMP JUMPDEST SWAP2 POP PUSH2 0x1B75 DUP3 PUSH2 0x1B10 JUMP JUMPDEST PUSH1 0x40 DUP3 ADD SWAP1 POP SWAP2 SWAP1 POP JUMP JUMPDEST PUSH0 PUSH1 0x20 DUP3 ADD SWAP1 POP DUP2 DUP2 SUB PUSH0 DUP4 ADD MSTORE PUSH2 0x1B97 DUP2 PUSH2 0x1B5E JUMP JUMPDEST SWAP1 POP SWAP2 SWAP1 POP JUMP JUMPDEST PUSH32 0x4F776E61626C653A206E6577206F776E657220697320746865207A65726F2061 PUSH0 DUP3 ADD MSTORE PUSH32 0x6464726573730000000000000000000000000000000000000000000000000000 PUSH1 0x20 DUP3 ADD MSTORE POP JUMP JUMPDEST PUSH0 PUSH2 0x1BF8 PUSH1 0x26 DUP4 PUSH2 0x1688 JUMP JUMPDEST SWAP2 POP PUSH2 0x1C03 DUP3 PUSH2 0x1B9E JUMP JUMPDEST PUSH1 0x40 DUP3 ADD SWAP1 POP SWAP2 SWAP1 POP JUMP JUMPDEST PUSH0 PUSH1 0x20 DUP3 ADD SWAP1 POP DUP2 DUP2 SUB PUSH0 DUP4 ADD MSTORE PUSH2 0x1C25 DUP2 PUSH2 0x1BEC JUMP JUMPDEST SWAP1 POP SWAP2 SWAP1 POP JUMP JUMPDEST PUSH32 0x5061757361626C653A2070617573656400000000000000000000000000000000 PUSH0 DUP3 ADD MSTORE POP JUMP JUMPDEST PUSH0 PUSH2 0x1C60 PUSH1 0x10 DUP4 PUSH2 0x1688 JUMP JUMPDEST SWAP2 POP PUSH2 0x1C6B DUP3 PUSH2 0x1C2C JUMP JUMPDEST PUSH1 0x20 DUP3 ADD SWAP1 POP SWAP2 SWAP1 POP JUMP JUMPDEST PUSH0 PUSH1 0x20 DUP3 ADD SWAP1 POP DUP2 DUP2 SUB PUSH0 DUP4 ADD MSTORE PUSH2 0x1C8D DUP2 PUSH2 0x1C54 JUMP JUMPDEST SWAP1 POP SWAP2 SWAP1 POP JUMP JUMPDEST PUSH32 0x4F776E61626C653A2063616C6C6572206973206E6F7420746865206F776E6572 PUSH0 DUP3 ADD MSTORE POP JUMP JUMPDEST PUSH0 PUSH2 0x1CC8 PUSH1 0x20 DUP4 PUSH2 0x1688 JUMP JUMPDEST SWAP2 POP PUSH2 0x1CD3 DUP3 PUSH2 0x1C94 JUMP JUMPDEST PUSH1 0x20 DUP3 ADD SWAP1 POP SWAP2 SWAP1 POP JUMP JUMPDEST PUSH0 PUSH1 0x20 DUP3 ADD SWAP1 POP DUP2 DUP2 SUB PUSH0 DUP4 ADD MSTORE PUSH2 0x1CF5 DUP2 PUSH2 0x1CBC JUMP JUMPDEST SWAP1 POP SWAP2 SWAP1 POP JUMP JUMPDEST PUSH32 0x5265656E7472616E637947756172643A207265656E7472616E742063616C6C00 PUSH0 DUP3 ADD MSTORE POP JUMP JUMPDEST PUSH0 PUSH2 0x1D30 PUSH1 0x1F DUP4 PUSH2 0x1688 JUMP JUMPDEST SWAP2 POP PUSH2 0x1D3B DUP3 PUSH2 0x1CFC JUMP JUMPDEST PUSH1 0x20 DUP3 ADD SWAP1 POP SWAP2 SWAP1 POP JUMP JUMPDEST PUSH0 PUSH1 0x20 DUP3 ADD SWAP1 POP DUP2 DUP2 SUB PUSH0 DUP4 ADD MSTORE PUSH2 0x1D5D DUP2 PUSH2 0x1D24 JUMP JUMPDEST SWAP1 POP SWAP2 SWAP1 POP JUMP JUMPDEST PUSH32 0x5061757361626C653A206E6F7420706175736564000000000000000000000000 PUSH0 DUP3 ADD MSTORE POP JUMP JUMPDEST PUSH0 PUSH2 0x1D98 PUSH1 0x14 DUP4 PUSH2 0x1688 JUMP JUMPDEST SWAP2 POP PUSH2 0x1DA3 DUP3 PUSH2 0x1D64 JUMP JUMPDEST PUSH1 0x20 DUP3 ADD SWAP1 POP SWAP2 SWAP1 POP JUMP JUMPDEST PUSH0 PUSH1 0x20 DUP3 ADD SWAP1 POP DUP2 DUP2 SUB PUSH0 DUP4 ADD MSTORE PUSH2 0x1DC5 DUP2 PUSH2 0x1D8C JUMP JUMPDEST SWAP1 POP SWAP2 SWAP1 POP JUMP INVALID LOG2 PUSH5 0x6970667358 0x22 SLT KECCAK256 CREATE2 SUB 0xEF 0xC6 0xAD 0xF6 SAR STOP STOP 0xD9 0x4E 0xD8 PUSH31 0x4F41E5C93A76FD7B5F52ED35B521DEA45014A764736F6C6343000815003300 "
				},
				"gasEstimates": {
					"creation": {
						"codeDepositCost": "1536400",
						"executionCost": "infinite",
						"totalCost": "infinite"
					},
					"external": {
						"activeListingIds(uint256)": "infinite",
						"buyNFT(uint256)": "infinite",
						"delistNFT(uint256)": "67517",
						"listNFT(address,uint256,uint256,uint256)": "infinite",
						"listings(uint256)": "infinite",
						"nextListingId()": "2470",
						"owner()": "2538",
						"pause()": "infinite",
						"paused()": "2563",
						"platformFeeAddress()": "2596",
						"platformFeePercentage()": "2447",
						"renounceOwnership()": "30435",
						"royaltyAddress()": "2575",
						"royaltyPercentage()": "2536",
						"transferOwnership(address)": "30841",
						"unpause()": "infinite",
						"updateFeeAddresses(address,address)": "infinite",
						"updateFeePercentages(uint256,uint256)": "infinite"
					}
				},
				"methodIdentifiers": {
					"activeListingIds(uint256)": "e3b6a1f6",
					"buyNFT(uint256)": "51ed8288",
					"delistNFT(uint256)": "cb917b9c",
					"listNFT(address,uint256,uint256,uint256)": "3c44a5f0",
					"listings(uint256)": "de74e57b",
					"nextListingId()": "aaccf1ec",
					"owner()": "8da5cb5b",
					"pause()": "8456cb59",
					"paused()": "5c975abb",
					"platformFeeAddress()": "ed14834f",
					"platformFeePercentage()": "cdd78cfc",
					"renounceOwnership()": "715018a6",
					"royaltyAddress()": "ad2f852a",
					"royaltyPercentage()": "8a71bb2d",
					"transferOwnership(address)": "f2fde38b",
					"unpause()": "3f4ba83a",
					"updateFeeAddresses(address,address)": "5e4e8d65",
					"updateFeePercentages(uint256,uint256)": "78578bb3"
				}
			},
			"storageLayout": {
				"storage": [
					{
						"astId": 7,
						"contract": "venda_8_21.sol:NFTMarketplace",
						"label": "_owner",
						"offset": 0,
						"slot": "0",
						"type": "t_address"
					},
					{
						"astId": 231,
						"contract": "venda_8_21.sol:NFTMarketplace",
						"label": "_status",
						"offset": 0,
						"slot": "1",
						"type": "t_uint256"
					},
					{
						"astId": 130,
						"contract": "venda_8_21.sol:NFTMarketplace",
						"label": "_paused",
						"offset": 0,
						"slot": "2",
						"type": "t_bool"
					},
					{
						"astId": 461,
						"contract": "venda_8_21.sol:NFTMarketplace",
						"label": "activeListingIds",
						"offset": 0,
						"slot": "3",
						"type": "t_array(t_uint256)dyn_storage"
					},
					{
						"astId": 463,
						"contract": "venda_8_21.sol:NFTMarketplace",
						"label": "royaltyPercentage",
						"offset": 0,
						"slot": "4",
						"type": "t_uint256"
					},
					{
						"astId": 465,
						"contract": "venda_8_21.sol:NFTMarketplace",
						"label": "platformFeePercentage",
						"offset": 0,
						"slot": "5",
						"type": "t_uint256"
					},
					{
						"astId": 467,
						"contract": "venda_8_21.sol:NFTMarketplace",
						"label": "royaltyAddress",
						"offset": 0,
						"slot": "6",
						"type": "t_address"
					},
					{
						"astId": 469,
						"contract": "venda_8_21.sol:NFTMarketplace",
						"label": "platformFeeAddress",
						"offset": 0,
						"slot": "7",
						"type": "t_address"
					},
					{
						"astId": 474,
						"contract": "venda_8_21.sol:NFTMarketplace",
						"label": "listings",
						"offset": 0,
						"slot": "8",
						"type": "t_mapping(t_uint256,t_struct(Listing)458_storage)"
					},
					{
						"astId": 477,
						"contract": "venda_8_21.sol:NFTMarketplace",
						"label": "nextListingId",
						"offset": 0,
						"slot": "9",
						"type": "t_uint256"
					}
				],
				"types": {
					"t_address": {
						"encoding": "inplace",
						"label": "address",
						"numberOfBytes": "20"
					},
					"t_array(t_uint256)dyn_storage": {
						"base": "t_uint256",
						"encoding": "dynamic_array",
						"label": "uint256[]",
						"numberOfBytes": "32"
					},
					"t_bool": {
						"encoding": "inplace",
						"label": "bool",
						"numberOfBytes": "1"
					},
					"t_mapping(t_uint256,t_struct(Listing)458_storage)": {
						"encoding": "mapping",
						"key": "t_uint256",
						"label": "mapping(uint256 => struct NFTMarketplace.Listing)",
						"numberOfBytes": "32",
						"value": "t_struct(Listing)458_storage"
					},
					"t_struct(Listing)458_storage": {
						"encoding": "inplace",
						"label": "struct NFTMarketplace.Listing",
						"members": [
							{
								"astId": 449,
								"contract": "venda_8_21.sol:NFTMarketplace",
								"label": "nftContractAddress",
								"offset": 0,
								"slot": "0",
								"type": "t_address"
							},
							{
								"astId": 451,
								"contract": "venda_8_21.sol:NFTMarketplace",
								"label": "nftId",
								"offset": 0,
								"slot": "1",
								"type": "t_uint256"
							},
							{
								"astId": 453,
								"contract": "venda_8_21.sol:NFTMarketplace",
								"label": "seller",
								"offset": 0,
								"slot": "2",
								"type": "t_address"
							},
							{
								"astId": 455,
								"contract": "venda_8_21.sol:NFTMarketplace",
								"label": "price",
								"offset": 0,
								"slot": "3",
								"type": "t_uint256"
							},
							{
								"astId": 457,
								"contract": "venda_8_21.sol:NFTMarketplace",
								"label": "deadline",
								"offset": 0,
								"slot": "4",
								"type": "t_uint256"
							}
						],
						"numberOfBytes": "160"
					},
					"t_uint256": {
						"encoding": "inplace",
						"label": "uint256",
						"numberOfBytes": "32"
					}
				}
			},
			"userdoc": {
				"kind": "user",
				"methods": {},
				"version": 1
			}
		}
	}
}