{
	"teste_flattened.sol": {
		"GotasNFTMarketplace": {
			"abi": [
				{
					"inputs": [
						{
							"internalType": "uint256",
							"name": "_royaltyPercentage",
							"type": "uint256"
						},
						{
							"internalType": "uint256",
							"name": "_platformFeePercentage",
							"type": "uint256"
						},
						{
							"internalType": "address",
							"name": "_royaltyAddress",
							"type": "address"
						},
						{
							"internalType": "address",
							"name": "_platformFeeAddress",
							"type": "address"
						}
					],
					"stateMutability": "nonpayable",
					"type": "constructor"
				},
				{
					"anonymous": false,
					"inputs": [
						{
							"indexed": true,
							"internalType": "uint256",
							"name": "listingId",
							"type": "uint256"
						}
					],
					"name": "NFTDelisted",
					"type": "event"
				},
				{
					"anonymous": false,
					"inputs": [
						{
							"indexed": true,
							"internalType": "uint256",
							"name": "listingId",
							"type": "uint256"
						},
						{
							"indexed": true,
							"internalType": "address",
							"name": "seller",
							"type": "address"
						},
						{
							"indexed": true,
							"internalType": "address",
							"name": "nftContract",
							"type": "address"
						},
						{
							"indexed": false,
							"internalType": "uint256",
							"name": "nftId",
							"type": "uint256"
						},
						{
							"indexed": false,
							"internalType": "uint256",
							"name": "price",
							"type": "uint256"
						},
						{
							"indexed": false,
							"internalType": "uint256",
							"name": "deadline",
							"type": "uint256"
						}
					],
					"name": "NFTListed",
					"type": "event"
				},
				{
					"anonymous": false,
					"inputs": [
						{
							"indexed": true,
							"internalType": "uint256",
							"name": "listingId",
							"type": "uint256"
						},
						{
							"indexed": true,
							"internalType": "address",
							"name": "seller",
							"type": "address"
						},
						{
							"indexed": true,
							"internalType": "address",
							"name": "buyer",
							"type": "address"
						},
						{
							"indexed": false,
							"internalType": "uint256",
							"name": "price",
							"type": "uint256"
						}
					],
					"name": "NFTSold",
					"type": "event"
				},
				{
					"anonymous": false,
					"inputs": [
						{
							"indexed": true,
							"internalType": "address",
							"name": "previousOwner",
							"type": "address"
						},
						{
							"indexed": true,
							"internalType": "address",
							"name": "newOwner",
							"type": "address"
						}
					],
					"name": "OwnershipTransferred",
					"type": "event"
				},
				{
					"anonymous": false,
					"inputs": [
						{
							"indexed": false,
							"internalType": "address",
							"name": "account",
							"type": "address"
						}
					],
					"name": "Paused",
					"type": "event"
				},
				{
					"anonymous": false,
					"inputs": [
						{
							"indexed": false,
							"internalType": "address",
							"name": "account",
							"type": "address"
						}
					],
					"name": "Unpaused",
					"type": "event"
				},
				{
					"inputs": [
						{
							"internalType": "uint256",
							"name": "",
							"type": "uint256"
						}
					],
					"name": "activeListingIds",
					"outputs": [
						{
							"internalType": "uint256",
							"name": "",
							"type": "uint256"
						}
					],
					"stateMutability": "view",
					"type": "function"
				},
				{
					"inputs": [
						{
							"internalType": "uint256",
							"name": "_listingId",
							"type": "uint256"
						}
					],
					"name": "buyNFT",
					"outputs": [],
					"stateMutability": "payable",
					"type": "function"
				},
				{
					"inputs": [
						{
							"internalType": "address",
							"name": "_nftContractAddress",
							"type": "address"
						},
						{
							"internalType": "uint256",
							"name": "_nftId",
							"type": "uint256"
						},
						{
							"internalType": "uint256",
							"name": "_price",
							"type": "uint256"
						},
						{
							"internalType": "uint256",
							"name": "_deadline",
							"type": "uint256"
						}
					],
					"name": "listNFT",
					"outputs": [],
					"stateMutability": "nonpayable",
					"type": "function"
				},
				{
					"inputs": [
						{
							"internalType": "uint256",
							"name": "",
							"type": "uint256"
						}
					],
					"name": "listings",
					"outputs": [
						{
							"internalType": "address",
							"name": "nftContractAddress",
							"type": "address"
						},
						{
							"internalType": "uint256",
							"name": "nftId",
							"type": "uint256"
						},
						{
							"internalType": "address",
							"name": "seller",
							"type": "address"
						},
						{
							"internalType": "uint256",
							"name": "price",
							"type": "uint256"
						},
						{
							"internalType": "uint256",
							"name": "deadline",
							"type": "uint256"
						}
					],
					"stateMutability": "view",
					"type": "function"
				},
				{
					"inputs": [],
					"name": "nextListingId",
					"outputs": [
						{
							"internalType": "uint256",
							"name": "",
							"type": "uint256"
						}
					],
					"stateMutability": "view",
					"type": "function"
				},
				{
					"inputs": [],
					"name": "owner",
					"outputs": [
						{
							"internalType": "address",
							"name": "",
							"type": "address"
						}
					],
					"stateMutability": "view",
					"type": "function"
				},
				{
					"inputs": [],
					"name": "pause",
					"outputs": [],
					"stateMutability": "nonpayable",
					"type": "function"
				},
				{
					"inputs": [],
					"name": "paused",
					"outputs": [
						{
							"internalType": "bool",
							"name": "",
							"type": "bool"
						}
					],
					"stateMutability": "view",
					"type": "function"
				},
				{
					"inputs": [],
					"name": "platformFeeAddress",
					"outputs": [
						{
							"internalType": "address",
							"name": "",
							"type": "address"
						}
					],
					"stateMutability": "view",
					"type": "function"
				},
				{
					"inputs": [],
					"name": "platformFeePercentage",
					"outputs": [
						{
							"internalType": "uint256",
							"name": "",
							"type": "uint256"
						}
					],
					"stateMutability": "view",
					"type": "function"
				},
				{
					"inputs": [],
					"name": "renounceOwnership",
					"outputs": [],
					"stateMutability": "nonpayable",
					"type": "function"
				},
				{
					"inputs": [],
					"name": "royaltyAddress",
					"outputs": [
						{
							"internalType": "address",
							"name": "",
							"type": "address"
						}
					],
					"stateMutability": "view",
					"type": "function"
				},
				{
					"inputs": [],
					"name": "royaltyPercentage",
					"outputs": [
						{
							"internalType": "uint256",
							"name": "",
							"type": "uint256"
						}
					],
					"stateMutability": "view",
					"type": "function"
				},
				{
					"inputs": [
						{
							"internalType": "address",
							"name": "newOwner",
							"type": "address"
						}
					],
					"name": "transferOwnership",
					"outputs": [],
					"stateMutability": "nonpayable",
					"type": "function"
				},
				{
					"inputs": [],
					"name": "unpause",
					"outputs": [],
					"stateMutability": "nonpayable",
					"type": "function"
				},
				{
					"inputs": [
						{
							"internalType": "address",
							"name": "_newRoyaltyAddress",
							"type": "address"
						},
						{
							"internalType": "address",
							"name": "_newPlatformFeeAddress",
							"type": "address"
						}
					],
					"name": "updateFeeAddresses",
					"outputs": [],
					"stateMutability": "nonpayable",
					"type": "function"
				},
				{
					"inputs": [
						{
							"internalType": "uint256",
							"name": "_newRoyaltyPercentage",
							"type": "uint256"
						},
						{
							"internalType": "uint256",
							"name": "_newPlatformFeePercentage",
							"type": "uint256"
						}
					],
					"name": "updateFeePercentages",
					"outputs": [],
					"stateMutability": "nonpayable",
					"type": "function"
				}
			],
			"devdoc": {
				"kind": "dev",
				"methods": {
					"owner()": {
						"details": "Returns the address of the current owner."
					},
					"paused()": {
						"details": "Returns true if the contract is paused, and false otherwise."
					},
					"renounceOwnership()": {
						"details": "Leaves the contract without owner. It will not be possible to call `onlyOwner` functions. Can only be called by the current owner. NOTE: Renouncing ownership will leave the contract without an owner, thereby disabling any functionality that is only available to the owner."
					},
					"transferOwnership(address)": {
						"details": "Transfers ownership of the contract to a new account (`newOwner`). Can only be called by the current owner."
					}
				},
				"version": 1
			},
			"evm": {
				"assembly": "    /* \"teste_flattened.sol\":14981:19034  contract GotasNFTMarketplace is Ownable, ReentrancyGuard, Pausable {... */\n  mstore(0x40, 0x80)\n    /* \"teste_flattened.sol\":15490:15491  1 */\n  0x01\n    /* \"teste_flattened.sol\":15459:15491  uint256 public nextListingId = 1 */\n  0x09\n  sstore\n    /* \"teste_flattened.sol\":15806:16248  constructor(uint256 _royaltyPercentage, uint256 _platformFeePercentage, address _royaltyAddress, address _platformFeeAddress) {... */\n  callvalue\n  dup1\n  iszero\n  tag_1\n  jumpi\n  0x00\n  dup1\n  revert\ntag_1:\n  pop\n  mload(0x40)\n  sub(codesize, bytecodeSize)\n  dup1\n  bytecodeSize\n  dup4\n  codecopy\n  dup2\n  dup2\n  add\n  0x40\n  mstore\n  dup2\n  add\n  swap1\n  tag_2\n  swap2\n  swap1\n  tag_3\n  jump\t// in\ntag_2:\n    /* \"teste_flattened.sol\":7502:7534  _transferOwnership(_msgSender()) */\n  tag_9\n    /* \"teste_flattened.sol\":7521:7533  _msgSender() */\n  tag_10\n    /* \"teste_flattened.sol\":7521:7531  _msgSender */\n  shl(0x20, tag_11)\n    /* \"teste_flattened.sol\":7521:7533  _msgSender() */\n  0x20\n  shr\n  jump\t// in\ntag_10:\n    /* \"teste_flattened.sol\":7502:7520  _transferOwnership */\n  shl(0x20, tag_12)\n    /* \"teste_flattened.sol\":7502:7534  _transferOwnership(_msgSender()) */\n  0x20\n  shr\n  jump\t// in\ntag_9:\n    /* \"teste_flattened.sol\":1749:1750  1 */\n  0x01\n    /* \"teste_flattened.sol\":1854:1861  _status */\n  dup1\n    /* \"teste_flattened.sol\":1854:1876  _status = _NOT_ENTERED */\n  dup2\n  swap1\n  sstore\n  pop\n    /* \"teste_flattened.sol\":5027:5032  false */\n  0x00\n    /* \"teste_flattened.sol\":5017:5024  _paused */\n  0x02\n  0x00\n    /* \"teste_flattened.sol\":5017:5032  _paused = false */\n  0x0100\n  exp\n  dup2\n  sload\n  dup2\n  0xff\n  mul\n  not\n  and\n  swap1\n  dup4\n  iszero\n  iszero\n  mul\n  or\n  swap1\n  sstore\n  pop\n    /* \"teste_flattened.sol\":15977:15978  0 */\n  0x00\n    /* \"teste_flattened.sol\":15950:15979  _royaltyAddress != address(0) */\n  0xffffffffffffffffffffffffffffffffffffffff\n  and\n    /* \"teste_flattened.sol\":15950:15965  _royaltyAddress */\n  dup3\n    /* \"teste_flattened.sol\":15950:15979  _royaltyAddress != address(0) */\n  0xffffffffffffffffffffffffffffffffffffffff\n  and\n  eq\n  iszero\n    /* \"teste_flattened.sol\":15950:16016  _royaltyAddress != address(0) && _platformFeeAddress != address(0) */\n  dup1\n  iszero\n  tag_16\n  jumpi\n  pop\n    /* \"teste_flattened.sol\":16014:16015  0 */\n  0x00\n    /* \"teste_flattened.sol\":15983:16016  _platformFeeAddress != address(0) */\n  0xffffffffffffffffffffffffffffffffffffffff\n  and\n    /* \"teste_flattened.sol\":15983:16002  _platformFeeAddress */\n  dup2\n    /* \"teste_flattened.sol\":15983:16016  _platformFeeAddress != address(0) */\n  0xffffffffffffffffffffffffffffffffffffffff\n  and\n  eq\n  iszero\n    /* \"teste_flattened.sol\":15950:16016  _royaltyAddress != address(0) && _platformFeeAddress != address(0) */\ntag_16:\n    /* \"teste_flattened.sol\":15942:16045  require(_royaltyAddress != address(0) && _platformFeeAddress != address(0), \"Addresses cannot be zero\") */\n  tag_17\n  jumpi\n  mload(0x40)\n  0x08c379a000000000000000000000000000000000000000000000000000000000\n  dup2\n  mstore\n  0x04\n  add\n  tag_18\n  swap1\n  tag_19\n  jump\t// in\ntag_18:\n  mload(0x40)\n  dup1\n  swap2\n  sub\n  swap1\n  revert\ntag_17:\n    /* \"teste_flattened.sol\":16075:16093  _royaltyPercentage */\n  dup4\n    /* \"teste_flattened.sol\":16055:16072  royaltyPercentage */\n  0x04\n    /* \"teste_flattened.sol\":16055:16093  royaltyPercentage = _royaltyPercentage */\n  dup2\n  swap1\n  sstore\n  pop\n    /* \"teste_flattened.sol\":16127:16149  _platformFeePercentage */\n  dup3\n    /* \"teste_flattened.sol\":16103:16124  platformFeePercentage */\n  0x05\n    /* \"teste_flattened.sol\":16103:16149  platformFeePercentage = _platformFeePercentage */\n  dup2\n  swap1\n  sstore\n  pop\n    /* \"teste_flattened.sol\":16176:16191  _royaltyAddress */\n  dup2\n    /* \"teste_flattened.sol\":16159:16173  royaltyAddress */\n  0x06\n  0x00\n    /* \"teste_flattened.sol\":16159:16191  royaltyAddress = _royaltyAddress */\n  0x0100\n  exp\n  dup2\n  sload\n  dup2\n  0xffffffffffffffffffffffffffffffffffffffff\n  mul\n  not\n  and\n  swap1\n  dup4\n  0xffffffffffffffffffffffffffffffffffffffff\n  and\n  mul\n  or\n  swap1\n  sstore\n  pop\n    /* \"teste_flattened.sol\":16222:16241  _platformFeeAddress */\n  dup1\n    /* \"teste_flattened.sol\":16201:16219  platformFeeAddress */\n  0x07\n  0x00\n    /* \"teste_flattened.sol\":16201:16241  platformFeeAddress = _platformFeeAddress */\n  0x0100\n  exp\n  dup2\n  sload\n  dup2\n  0xffffffffffffffffffffffffffffffffffffffff\n  mul\n  not\n  and\n  swap1\n  dup4\n  0xffffffffffffffffffffffffffffffffffffffff\n  and\n  mul\n  or\n  swap1\n  sstore\n  pop\n    /* \"teste_flattened.sol\":15806:16248  constructor(uint256 _royaltyPercentage, uint256 _platformFeePercentage, address _royaltyAddress, address _platformFeeAddress) {... */\n  pop\n  pop\n  pop\n  pop\n    /* \"teste_flattened.sol\":14981:19034  contract GotasNFTMarketplace is Ownable, ReentrancyGuard, Pausable {... */\n  jump(tag_20)\n    /* \"teste_flattened.sol\":3822:3918  function _msgSender() internal view virtual returns (address) {... */\ntag_11:\n    /* \"teste_flattened.sol\":3875:3882  address */\n  0x00\n    /* \"teste_flattened.sol\":3901:3911  msg.sender */\n  caller\n    /* \"teste_flattened.sol\":3894:3911  return msg.sender */\n  swap1\n  pop\n    /* \"teste_flattened.sol\":3822:3918  function _msgSender() internal view virtual returns (address) {... */\n  swap1\n  jump\t// out\n    /* \"teste_flattened.sol\":8992:9179  function _transferOwnership(address newOwner) internal virtual {... */\ntag_12:\n    /* \"teste_flattened.sol\":9065:9081  address oldOwner */\n  0x00\n    /* \"teste_flattened.sol\":9084:9090  _owner */\n  dup1\n  0x00\n  swap1\n  sload\n  swap1\n  0x0100\n  exp\n  swap1\n  div\n  0xffffffffffffffffffffffffffffffffffffffff\n  and\n    /* \"teste_flattened.sol\":9065:9090  address oldOwner = _owner */\n  swap1\n  pop\n    /* \"teste_flattened.sol\":9109:9117  newOwner */\n  dup2\n    /* \"teste_flattened.sol\":9100:9106  _owner */\n  0x00\n  dup1\n    /* \"teste_flattened.sol\":9100:9117  _owner = newOwner */\n  0x0100\n  exp\n  dup2\n  sload\n  dup2\n  0xffffffffffffffffffffffffffffffffffffffff\n  mul\n  not\n  and\n  swap1\n  dup4\n  0xffffffffffffffffffffffffffffffffffffffff\n  and\n  mul\n  or\n  swap1\n  sstore\n  pop\n    /* \"teste_flattened.sol\":9163:9171  newOwner */\n  dup2\n    /* \"teste_flattened.sol\":9132:9172  OwnershipTransferred(oldOwner, newOwner) */\n  0xffffffffffffffffffffffffffffffffffffffff\n  and\n    /* \"teste_flattened.sol\":9153:9161  oldOwner */\n  dup2\n    /* \"teste_flattened.sol\":9132:9172  OwnershipTransferred(oldOwner, newOwner) */\n  0xffffffffffffffffffffffffffffffffffffffff\n  and\n  0x8be0079c531659141344cd1fd0a4f28419497f9722a3daafe3b4186f6b6457e0\n  mload(0x40)\n  mload(0x40)\n  dup1\n  swap2\n  sub\n  swap1\n  log3\n    /* \"teste_flattened.sol\":9055:9179  {... */\n  pop\n    /* \"teste_flattened.sol\":8992:9179  function _transferOwnership(address newOwner) internal virtual {... */\n  pop\n  jump\t// out\n    /* \"#utility.yul\":88:205   */\ntag_24:\n    /* \"#utility.yul\":197:198   */\n  0x00\n    /* \"#utility.yul\":194:195   */\n  dup1\n    /* \"#utility.yul\":187:199   */\n  revert\n    /* \"#utility.yul\":334:411   */\ntag_26:\n    /* \"#utility.yul\":371:378   */\n  0x00\n    /* \"#utility.yul\":400:405   */\n  dup2\n    /* \"#utility.yul\":389:405   */\n  swap1\n  pop\n    /* \"#utility.yul\":334:411   */\n  swap2\n  swap1\n  pop\n  jump\t// out\n    /* \"#utility.yul\":417:539   */\ntag_27:\n    /* \"#utility.yul\":490:514   */\n  tag_42\n    /* \"#utility.yul\":508:513   */\n  dup2\n    /* \"#utility.yul\":490:514   */\n  tag_26\n  jump\t// in\ntag_42:\n    /* \"#utility.yul\":483:488   */\n  dup2\n    /* \"#utility.yul\":480:515   */\n  eq\n    /* \"#utility.yul\":470:533   */\n  tag_43\n  jumpi\n    /* \"#utility.yul\":529:530   */\n  0x00\n    /* \"#utility.yul\":526:527   */\n  dup1\n    /* \"#utility.yul\":519:531   */\n  revert\n    /* \"#utility.yul\":470:533   */\ntag_43:\n    /* \"#utility.yul\":417:539   */\n  pop\n  jump\t// out\n    /* \"#utility.yul\":545:688   */\ntag_28:\n    /* \"#utility.yul\":602:607   */\n  0x00\n    /* \"#utility.yul\":633:639   */\n  dup2\n    /* \"#utility.yul\":627:640   */\n  mload\n    /* \"#utility.yul\":618:640   */\n  swap1\n  pop\n    /* \"#utility.yul\":649:682   */\n  tag_45\n    /* \"#utility.yul\":676:681   */\n  dup2\n    /* \"#utility.yul\":649:682   */\n  tag_27\n  jump\t// in\ntag_45:\n    /* \"#utility.yul\":545:688   */\n  swap3\n  swap2\n  pop\n  pop\n  jump\t// out\n    /* \"#utility.yul\":694:820   */\ntag_29:\n    /* \"#utility.yul\":731:738   */\n  0x00\n    /* \"#utility.yul\":771:813   */\n  0xffffffffffffffffffffffffffffffffffffffff\n    /* \"#utility.yul\":764:769   */\n  dup3\n    /* \"#utility.yul\":760:814   */\n  and\n    /* \"#utility.yul\":749:814   */\n  swap1\n  pop\n    /* \"#utility.yul\":694:820   */\n  swap2\n  swap1\n  pop\n  jump\t// out\n    /* \"#utility.yul\":826:922   */\ntag_30:\n    /* \"#utility.yul\":863:870   */\n  0x00\n    /* \"#utility.yul\":892:916   */\n  tag_48\n    /* \"#utility.yul\":910:915   */\n  dup3\n    /* \"#utility.yul\":892:916   */\n  tag_29\n  jump\t// in\ntag_48:\n    /* \"#utility.yul\":881:916   */\n  swap1\n  pop\n    /* \"#utility.yul\":826:922   */\n  swap2\n  swap1\n  pop\n  jump\t// out\n    /* \"#utility.yul\":928:1050   */\ntag_31:\n    /* \"#utility.yul\":1001:1025   */\n  tag_50\n    /* \"#utility.yul\":1019:1024   */\n  dup2\n    /* \"#utility.yul\":1001:1025   */\n  tag_30\n  jump\t// in\ntag_50:\n    /* \"#utility.yul\":994:999   */\n  dup2\n    /* \"#utility.yul\":991:1026   */\n  eq\n    /* \"#utility.yul\":981:1044   */\n  tag_51\n  jumpi\n    /* \"#utility.yul\":1040:1041   */\n  0x00\n    /* \"#utility.yul\":1037:1038   */\n  dup1\n    /* \"#utility.yul\":1030:1042   */\n  revert\n    /* \"#utility.yul\":981:1044   */\ntag_51:\n    /* \"#utility.yul\":928:1050   */\n  pop\n  jump\t// out\n    /* \"#utility.yul\":1056:1199   */\ntag_32:\n    /* \"#utility.yul\":1113:1118   */\n  0x00\n    /* \"#utility.yul\":1144:1150   */\n  dup2\n    /* \"#utility.yul\":1138:1151   */\n  mload\n    /* \"#utility.yul\":1129:1151   */\n  swap1\n  pop\n    /* \"#utility.yul\":1160:1193   */\n  tag_53\n    /* \"#utility.yul\":1187:1192   */\n  dup2\n    /* \"#utility.yul\":1160:1193   */\n  tag_31\n  jump\t// in\ntag_53:\n    /* \"#utility.yul\":1056:1199   */\n  swap3\n  swap2\n  pop\n  pop\n  jump\t// out\n    /* \"#utility.yul\":1205:2025   */\ntag_3:\n    /* \"#utility.yul\":1302:1308   */\n  0x00\n    /* \"#utility.yul\":1310:1316   */\n  dup1\n    /* \"#utility.yul\":1318:1324   */\n  0x00\n    /* \"#utility.yul\":1326:1332   */\n  dup1\n    /* \"#utility.yul\":1375:1378   */\n  0x80\n    /* \"#utility.yul\":1363:1372   */\n  dup6\n    /* \"#utility.yul\":1354:1361   */\n  dup8\n    /* \"#utility.yul\":1350:1373   */\n  sub\n    /* \"#utility.yul\":1346:1379   */\n  slt\n    /* \"#utility.yul\":1343:1463   */\n  iszero\n  tag_55\n  jumpi\n    /* \"#utility.yul\":1382:1461   */\n  tag_56\n  tag_24\n  jump\t// in\ntag_56:\n    /* \"#utility.yul\":1343:1463   */\ntag_55:\n    /* \"#utility.yul\":1502:1503   */\n  0x00\n    /* \"#utility.yul\":1527:1591   */\n  tag_57\n    /* \"#utility.yul\":1583:1590   */\n  dup8\n    /* \"#utility.yul\":1574:1580   */\n  dup3\n    /* \"#utility.yul\":1563:1572   */\n  dup9\n    /* \"#utility.yul\":1559:1581   */\n  add\n    /* \"#utility.yul\":1527:1591   */\n  tag_28\n  jump\t// in\ntag_57:\n    /* \"#utility.yul\":1517:1591   */\n  swap5\n  pop\n    /* \"#utility.yul\":1473:1601   */\n  pop\n    /* \"#utility.yul\":1640:1642   */\n  0x20\n    /* \"#utility.yul\":1666:1730   */\n  tag_58\n    /* \"#utility.yul\":1722:1729   */\n  dup8\n    /* \"#utility.yul\":1713:1719   */\n  dup3\n    /* \"#utility.yul\":1702:1711   */\n  dup9\n    /* \"#utility.yul\":1698:1720   */\n  add\n    /* \"#utility.yul\":1666:1730   */\n  tag_28\n  jump\t// in\ntag_58:\n    /* \"#utility.yul\":1656:1730   */\n  swap4\n  pop\n    /* \"#utility.yul\":1611:1740   */\n  pop\n    /* \"#utility.yul\":1779:1781   */\n  0x40\n    /* \"#utility.yul\":1805:1869   */\n  tag_59\n    /* \"#utility.yul\":1861:1868   */\n  dup8\n    /* \"#utility.yul\":1852:1858   */\n  dup3\n    /* \"#utility.yul\":1841:1850   */\n  dup9\n    /* \"#utility.yul\":1837:1859   */\n  add\n    /* \"#utility.yul\":1805:1869   */\n  tag_32\n  jump\t// in\ntag_59:\n    /* \"#utility.yul\":1795:1869   */\n  swap3\n  pop\n    /* \"#utility.yul\":1750:1879   */\n  pop\n    /* \"#utility.yul\":1918:1920   */\n  0x60\n    /* \"#utility.yul\":1944:2008   */\n  tag_60\n    /* \"#utility.yul\":2000:2007   */\n  dup8\n    /* \"#utility.yul\":1991:1997   */\n  dup3\n    /* \"#utility.yul\":1980:1989   */\n  dup9\n    /* \"#utility.yul\":1976:1998   */\n  add\n    /* \"#utility.yul\":1944:2008   */\n  tag_32\n  jump\t// in\ntag_60:\n    /* \"#utility.yul\":1934:2008   */\n  swap2\n  pop\n    /* \"#utility.yul\":1889:2018   */\n  pop\n    /* \"#utility.yul\":1205:2025   */\n  swap3\n  swap6\n  swap2\n  swap5\n  pop\n  swap3\n  pop\n  jump\t// out\n    /* \"#utility.yul\":2031:2200   */\ntag_33:\n    /* \"#utility.yul\":2115:2126   */\n  0x00\n    /* \"#utility.yul\":2149:2155   */\n  dup3\n    /* \"#utility.yul\":2144:2147   */\n  dup3\n    /* \"#utility.yul\":2137:2156   */\n  mstore\n    /* \"#utility.yul\":2189:2193   */\n  0x20\n    /* \"#utility.yul\":2184:2187   */\n  dup3\n    /* \"#utility.yul\":2180:2194   */\n  add\n    /* \"#utility.yul\":2165:2194   */\n  swap1\n  pop\n    /* \"#utility.yul\":2031:2200   */\n  swap3\n  swap2\n  pop\n  pop\n  jump\t// out\n    /* \"#utility.yul\":2206:2380   */\ntag_34:\n    /* \"#utility.yul\":2346:2372   */\n  0x4164647265737365732063616e6e6f74206265207a65726f0000000000000000\n    /* \"#utility.yul\":2342:2343   */\n  0x00\n    /* \"#utility.yul\":2334:2340   */\n  dup3\n    /* \"#utility.yul\":2330:2344   */\n  add\n    /* \"#utility.yul\":2323:2373   */\n  mstore\n    /* \"#utility.yul\":2206:2380   */\n  pop\n  jump\t// out\n    /* \"#utility.yul\":2386:2752   */\ntag_35:\n    /* \"#utility.yul\":2528:2531   */\n  0x00\n    /* \"#utility.yul\":2549:2616   */\n  tag_64\n    /* \"#utility.yul\":2613:2615   */\n  0x18\n    /* \"#utility.yul\":2608:2611   */\n  dup4\n    /* \"#utility.yul\":2549:2616   */\n  tag_33\n  jump\t// in\ntag_64:\n    /* \"#utility.yul\":2542:2616   */\n  swap2\n  pop\n    /* \"#utility.yul\":2625:2718   */\n  tag_65\n    /* \"#utility.yul\":2714:2717   */\n  dup3\n    /* \"#utility.yul\":2625:2718   */\n  tag_34\n  jump\t// in\ntag_65:\n    /* \"#utility.yul\":2743:2745   */\n  0x20\n    /* \"#utility.yul\":2738:2741   */\n  dup3\n    /* \"#utility.yul\":2734:2746   */\n  add\n    /* \"#utility.yul\":2727:2746   */\n  swap1\n  pop\n    /* \"#utility.yul\":2386:2752   */\n  swap2\n  swap1\n  pop\n  jump\t// out\n    /* \"#utility.yul\":2758:3177   */\ntag_19:\n    /* \"#utility.yul\":2924:2928   */\n  0x00\n    /* \"#utility.yul\":2962:2964   */\n  0x20\n    /* \"#utility.yul\":2951:2960   */\n  dup3\n    /* \"#utility.yul\":2947:2965   */\n  add\n    /* \"#utility.yul\":2939:2965   */\n  swap1\n  pop\n    /* \"#utility.yul\":3011:3020   */\n  dup2\n    /* \"#utility.yul\":3005:3009   */\n  dup2\n    /* \"#utility.yul\":3001:3021   */\n  sub\n    /* \"#utility.yul\":2997:2998   */\n  0x00\n    /* \"#utility.yul\":2986:2995   */\n  dup4\n    /* \"#utility.yul\":2982:2999   */\n  add\n    /* \"#utility.yul\":2975:3022   */\n  mstore\n    /* \"#utility.yul\":3039:3170   */\n  tag_67\n    /* \"#utility.yul\":3165:3169   */\n  dup2\n    /* \"#utility.yul\":3039:3170   */\n  tag_35\n  jump\t// in\ntag_67:\n    /* \"#utility.yul\":3031:3170   */\n  swap1\n  pop\n    /* \"#utility.yul\":2758:3177   */\n  swap2\n  swap1\n  pop\n  jump\t// out\n    /* \"teste_flattened.sol\":14981:19034  contract GotasNFTMarketplace is Ownable, ReentrancyGuard, Pausable {... */\ntag_20:\n  dataSize(sub_0)\n  dup1\n  dataOffset(sub_0)\n  0x00\n  codecopy\n  0x00\n  return\nstop\n\nsub_0: assembly {\n        /* \"teste_flattened.sol\":14981:19034  contract GotasNFTMarketplace is Ownable, ReentrancyGuard, Pausable {... */\n      mstore(0x40, 0x80)\n      jumpi(tag_1, lt(calldatasize, 0x04))\n      shr(0xe0, calldataload(0x00))\n      dup1\n      0x8a71bb2d\n      gt\n      tag_19\n      jumpi\n      dup1\n      0xcdd78cfc\n      gt\n      tag_20\n      jumpi\n      dup1\n      0xcdd78cfc\n      eq\n      tag_14\n      jumpi\n      dup1\n      0xde74e57b\n      eq\n      tag_15\n      jumpi\n      dup1\n      0xe3b6a1f6\n      eq\n      tag_16\n      jumpi\n      dup1\n      0xed14834f\n      eq\n      tag_17\n      jumpi\n      dup1\n      0xf2fde38b\n      eq\n      tag_18\n      jumpi\n      jump(tag_1)\n    tag_20:\n      dup1\n      0x8a71bb2d\n      eq\n      tag_10\n      jumpi\n      dup1\n      0x8da5cb5b\n      eq\n      tag_11\n      jumpi\n      dup1\n      0xaaccf1ec\n      eq\n      tag_12\n      jumpi\n      dup1\n      0xad2f852a\n      eq\n      tag_13\n      jumpi\n      jump(tag_1)\n    tag_19:\n      dup1\n      0x5e4e8d65\n      gt\n      tag_21\n      jumpi\n      dup1\n      0x5e4e8d65\n      eq\n      tag_6\n      jumpi\n      dup1\n      0x715018a6\n      eq\n      tag_7\n      jumpi\n      dup1\n      0x78578bb3\n      eq\n      tag_8\n      jumpi\n      dup1\n      0x8456cb59\n      eq\n      tag_9\n      jumpi\n      jump(tag_1)\n    tag_21:\n      dup1\n      0x3c44a5f0\n      eq\n      tag_2\n      jumpi\n      dup1\n      0x3f4ba83a\n      eq\n      tag_3\n      jumpi\n      dup1\n      0x51ed8288\n      eq\n      tag_4\n      jumpi\n      dup1\n      0x5c975abb\n      eq\n      tag_5\n      jumpi\n    tag_1:\n      0x00\n      dup1\n      revert\n        /* \"teste_flattened.sol\":16254:17123  function listNFT(address _nftContractAddress, uint256 _nftId, uint256 _price, uint256 _deadline) external whenNotPaused nonReentrant {... */\n    tag_2:\n      callvalue\n      dup1\n      iszero\n      tag_22\n      jumpi\n      0x00\n      dup1\n      revert\n    tag_22:\n      pop\n      tag_23\n      0x04\n      dup1\n      calldatasize\n      sub\n      dup2\n      add\n      swap1\n      tag_24\n      swap2\n      swap1\n      tag_25\n      jump\t// in\n    tag_24:\n      tag_26\n      jump\t// in\n    tag_23:\n      stop\n        /* \"teste_flattened.sol\":18398:18468  function unpause() external onlyOwner nonReentrant {... */\n    tag_3:\n      callvalue\n      dup1\n      iszero\n      tag_27\n      jumpi\n      0x00\n      dup1\n      revert\n    tag_27:\n      pop\n      tag_28\n      tag_29\n      jump\t// in\n    tag_28:\n      stop\n        /* \"teste_flattened.sol\":17127:18328  function buyNFT(uint256 _listingId) external payable whenNotPaused nonReentrant {... */\n    tag_4:\n      tag_30\n      0x04\n      dup1\n      calldatasize\n      sub\n      dup2\n      add\n      swap1\n      tag_31\n      swap2\n      swap1\n      tag_32\n      jump\t// in\n    tag_31:\n      tag_33\n      jump\t// in\n    tag_30:\n      stop\n        /* \"teste_flattened.sol\":5636:5720  function paused() public view virtual returns (bool) {... */\n    tag_5:\n      callvalue\n      dup1\n      iszero\n      tag_34\n      jumpi\n      0x00\n      dup1\n      revert\n    tag_34:\n      pop\n      tag_35\n      tag_36\n      jump\t// in\n    tag_35:\n      mload(0x40)\n      tag_37\n      swap2\n      swap1\n      tag_38\n      jump\t// in\n    tag_37:\n      mload(0x40)\n      dup1\n      swap2\n      sub\n      swap1\n      return\n        /* \"teste_flattened.sol\":18470:18798  function updateFeeAddresses(address _newRoyaltyAddress, address _newPlatformFeeAddress) external onlyOwner nonReentrant {... */\n    tag_6:\n      callvalue\n      dup1\n      iszero\n      tag_39\n      jumpi\n      0x00\n      dup1\n      revert\n    tag_39:\n      pop\n      tag_40\n      0x04\n      dup1\n      calldatasize\n      sub\n      dup2\n      add\n      swap1\n      tag_41\n      swap2\n      swap1\n      tag_42\n      jump\t// in\n    tag_41:\n      tag_43\n      jump\t// in\n    tag_40:\n      stop\n        /* \"teste_flattened.sol\":8390:8491  function renounceOwnership() public virtual onlyOwner {... */\n    tag_7:\n      callvalue\n      dup1\n      iszero\n      tag_44\n      jumpi\n      0x00\n      dup1\n      revert\n    tag_44:\n      pop\n      tag_45\n      tag_46\n      jump\t// in\n    tag_45:\n      stop\n        /* \"teste_flattened.sol\":18800:19033  function updateFeePercentages(uint256 _newRoyaltyPercentage, uint256 _newPlatformFeePercentage) external onlyOwner nonReentrant {... */\n    tag_8:\n      callvalue\n      dup1\n      iszero\n      tag_47\n      jumpi\n      0x00\n      dup1\n      revert\n    tag_47:\n      pop\n      tag_48\n      0x04\n      dup1\n      calldatasize\n      sub\n      dup2\n      add\n      swap1\n      tag_49\n      swap2\n      swap1\n      tag_50\n      jump\t// in\n    tag_49:\n      tag_51\n      jump\t// in\n    tag_48:\n      stop\n        /* \"teste_flattened.sol\":18330:18396  function pause() external onlyOwner nonReentrant {... */\n    tag_9:\n      callvalue\n      dup1\n      iszero\n      tag_52\n      jumpi\n      0x00\n      dup1\n      revert\n    tag_52:\n      pop\n      tag_53\n      tag_54\n      jump\t// in\n    tag_53:\n      stop\n        /* \"teste_flattened.sol\":15253:15285  uint256 public royaltyPercentage */\n    tag_10:\n      callvalue\n      dup1\n      iszero\n      tag_55\n      jumpi\n      0x00\n      dup1\n      revert\n    tag_55:\n      pop\n      tag_56\n      tag_57\n      jump\t// in\n    tag_56:\n      mload(0x40)\n      tag_58\n      swap2\n      swap1\n      tag_59\n      jump\t// in\n    tag_58:\n      mload(0x40)\n      dup1\n      swap2\n      sub\n      swap1\n      return\n        /* \"teste_flattened.sol\":7767:7852  function owner() public view virtual returns (address) {... */\n    tag_11:\n      callvalue\n      dup1\n      iszero\n      tag_60\n      jumpi\n      0x00\n      dup1\n      revert\n    tag_60:\n      pop\n      tag_61\n      tag_62\n      jump\t// in\n    tag_61:\n      mload(0x40)\n      tag_63\n      swap2\n      swap1\n      tag_64\n      jump\t// in\n    tag_63:\n      mload(0x40)\n      dup1\n      swap2\n      sub\n      swap1\n      return\n        /* \"teste_flattened.sol\":15459:15491  uint256 public nextListingId = 1 */\n    tag_12:\n      callvalue\n      dup1\n      iszero\n      tag_65\n      jumpi\n      0x00\n      dup1\n      revert\n    tag_65:\n      pop\n      tag_66\n      tag_67\n      jump\t// in\n    tag_66:\n      mload(0x40)\n      tag_68\n      swap2\n      swap1\n      tag_59\n      jump\t// in\n    tag_68:\n      mload(0x40)\n      dup1\n      swap2\n      sub\n      swap1\n      return\n        /* \"teste_flattened.sol\":15334:15363  address public royaltyAddress */\n    tag_13:\n      callvalue\n      dup1\n      iszero\n      tag_69\n      jumpi\n      0x00\n      dup1\n      revert\n    tag_69:\n      pop\n      tag_70\n      tag_71\n      jump\t// in\n    tag_70:\n      mload(0x40)\n      tag_72\n      swap2\n      swap1\n      tag_64\n      jump\t// in\n    tag_72:\n      mload(0x40)\n      dup1\n      swap2\n      sub\n      swap1\n      return\n        /* \"teste_flattened.sol\":15291:15327  uint256 public platformFeePercentage */\n    tag_14:\n      callvalue\n      dup1\n      iszero\n      tag_73\n      jumpi\n      0x00\n      dup1\n      revert\n    tag_73:\n      pop\n      tag_74\n      tag_75\n      jump\t// in\n    tag_74:\n      mload(0x40)\n      tag_76\n      swap2\n      swap1\n      tag_59\n      jump\t// in\n    tag_76:\n      mload(0x40)\n      dup1\n      swap2\n      sub\n      swap1\n      return\n        /* \"teste_flattened.sol\":15409:15452  mapping(uint256 => Listing) public listings */\n    tag_15:\n      callvalue\n      dup1\n      iszero\n      tag_77\n      jumpi\n      0x00\n      dup1\n      revert\n    tag_77:\n      pop\n      tag_78\n      0x04\n      dup1\n      calldatasize\n      sub\n      dup2\n      add\n      swap1\n      tag_79\n      swap2\n      swap1\n      tag_32\n      jump\t// in\n    tag_79:\n      tag_80\n      jump\t// in\n    tag_78:\n      mload(0x40)\n      tag_81\n      swap6\n      swap5\n      swap4\n      swap3\n      swap2\n      swap1\n      tag_82\n      jump\t// in\n    tag_81:\n      mload(0x40)\n      dup1\n      swap2\n      sub\n      swap1\n      return\n        /* \"teste_flattened.sol\":15214:15247  uint256[] public activeListingIds */\n    tag_16:\n      callvalue\n      dup1\n      iszero\n      tag_83\n      jumpi\n      0x00\n      dup1\n      revert\n    tag_83:\n      pop\n      tag_84\n      0x04\n      dup1\n      calldatasize\n      sub\n      dup2\n      add\n      swap1\n      tag_85\n      swap2\n      swap1\n      tag_32\n      jump\t// in\n    tag_85:\n      tag_86\n      jump\t// in\n    tag_84:\n      mload(0x40)\n      tag_87\n      swap2\n      swap1\n      tag_59\n      jump\t// in\n    tag_87:\n      mload(0x40)\n      dup1\n      swap2\n      sub\n      swap1\n      return\n        /* \"teste_flattened.sol\":15369:15402  address public platformFeeAddress */\n    tag_17:\n      callvalue\n      dup1\n      iszero\n      tag_88\n      jumpi\n      0x00\n      dup1\n      revert\n    tag_88:\n      pop\n      tag_89\n      tag_90\n      jump\t// in\n    tag_89:\n      mload(0x40)\n      tag_91\n      swap2\n      swap1\n      tag_64\n      jump\t// in\n    tag_91:\n      mload(0x40)\n      dup1\n      swap2\n      sub\n      swap1\n      return\n        /* \"teste_flattened.sol\":8640:8838  function transferOwnership(address newOwner) public virtual onlyOwner {... */\n    tag_18:\n      callvalue\n      dup1\n      iszero\n      tag_92\n      jumpi\n      0x00\n      dup1\n      revert\n    tag_92:\n      pop\n      tag_93\n      0x04\n      dup1\n      calldatasize\n      sub\n      dup2\n      add\n      swap1\n      tag_94\n      swap2\n      swap1\n      tag_95\n      jump\t// in\n    tag_94:\n      tag_96\n      jump\t// in\n    tag_93:\n      stop\n        /* \"teste_flattened.sol\":16254:17123  function listNFT(address _nftContractAddress, uint256 _nftId, uint256 _price, uint256 _deadline) external whenNotPaused nonReentrant {... */\n    tag_26:\n        /* \"teste_flattened.sol\":5260:5279  _requireNotPaused() */\n      tag_98\n        /* \"teste_flattened.sol\":5260:5277  _requireNotPaused */\n      tag_99\n        /* \"teste_flattened.sol\":5260:5279  _requireNotPaused() */\n      jump\t// in\n    tag_98:\n        /* \"teste_flattened.sol\":2294:2315  _nonReentrantBefore() */\n      tag_101\n        /* \"teste_flattened.sol\":2294:2313  _nonReentrantBefore */\n      tag_102\n        /* \"teste_flattened.sol\":2294:2315  _nonReentrantBefore() */\n      jump\t// in\n    tag_101:\n        /* \"teste_flattened.sol\":16414:16415  0 */\n      0x00\n        /* \"teste_flattened.sol\":16405:16411  _price */\n      dup3\n        /* \"teste_flattened.sol\":16405:16415  _price > 0 */\n      gt\n        /* \"teste_flattened.sol\":16397:16452  require(_price > 0, \"Price must be greater than zero.\") */\n      tag_104\n      jumpi\n      mload(0x40)\n      0x08c379a000000000000000000000000000000000000000000000000000000000\n      dup2\n      mstore\n      0x04\n      add\n      tag_105\n      swap1\n      tag_106\n      jump\t// in\n    tag_105:\n      mload(0x40)\n      dup1\n      swap2\n      sub\n      swap1\n      revert\n    tag_104:\n        /* \"teste_flattened.sol\":16482:16483  0 */\n      0x00\n        /* \"teste_flattened.sol\":16470:16479  _deadline */\n      dup2\n        /* \"teste_flattened.sol\":16470:16483  _deadline > 0 */\n      gt\n        /* \"teste_flattened.sol\":16462:16523  require(_deadline > 0, \"Deadline must be greater than zero.\") */\n      tag_107\n      jumpi\n      mload(0x40)\n      0x08c379a000000000000000000000000000000000000000000000000000000000\n      dup2\n      mstore\n      0x04\n      add\n      tag_108\n      swap1\n      tag_109\n      jump\t// in\n    tag_108:\n      mload(0x40)\n      dup1\n      swap2\n      sub\n      swap1\n      revert\n    tag_107:\n        /* \"teste_flattened.sol\":16534:16553  IERC721 nftContract */\n      0x00\n        /* \"teste_flattened.sol\":16564:16583  _nftContractAddress */\n      dup5\n        /* \"teste_flattened.sol\":16534:16584  IERC721 nftContract = IERC721(_nftContractAddress) */\n      swap1\n      pop\n        /* \"teste_flattened.sol\":16633:16643  msg.sender */\n      caller\n        /* \"teste_flattened.sol\":16602:16643  nftContract.ownerOf(_nftId) == msg.sender */\n      0xffffffffffffffffffffffffffffffffffffffff\n      and\n        /* \"teste_flattened.sol\":16602:16613  nftContract */\n      dup2\n        /* \"teste_flattened.sol\":16602:16621  nftContract.ownerOf */\n      0xffffffffffffffffffffffffffffffffffffffff\n      and\n      0x6352211e\n        /* \"teste_flattened.sol\":16622:16628  _nftId */\n      dup7\n        /* \"teste_flattened.sol\":16602:16629  nftContract.ownerOf(_nftId) */\n      mload(0x40)\n      dup3\n      0xffffffff\n      and\n      0xe0\n      shl\n      dup2\n      mstore\n      0x04\n      add\n      tag_110\n      swap2\n      swap1\n      tag_59\n      jump\t// in\n    tag_110:\n      0x20\n      mload(0x40)\n      dup1\n      dup4\n      sub\n      dup2\n      dup7\n      gas\n      staticcall\n      iszero\n      dup1\n      iszero\n      tag_112\n      jumpi\n      returndatasize\n      0x00\n      dup1\n      returndatacopy\n      revert(0x00, returndatasize)\n    tag_112:\n      pop\n      pop\n      pop\n      pop\n      mload(0x40)\n      returndatasize\n      not(0x1f)\n      0x1f\n      dup3\n      add\n      and\n      dup3\n      add\n      dup1\n      0x40\n      mstore\n      pop\n      dup2\n      add\n      swap1\n      tag_113\n      swap2\n      swap1\n      tag_114\n      jump\t// in\n    tag_113:\n        /* \"teste_flattened.sol\":16602:16643  nftContract.ownerOf(_nftId) == msg.sender */\n      0xffffffffffffffffffffffffffffffffffffffff\n      and\n      eq\n        /* \"teste_flattened.sol\":16594:16680  require(nftContract.ownerOf(_nftId) == msg.sender, \"You must own the NFT to list it.\") */\n      tag_115\n      jumpi\n      mload(0x40)\n      0x08c379a000000000000000000000000000000000000000000000000000000000\n      dup2\n      mstore\n      0x04\n      add\n      tag_116\n      swap1\n      tag_117\n      jump\t// in\n    tag_116:\n      mload(0x40)\n      dup1\n      swap2\n      sub\n      swap1\n      revert\n    tag_115:\n        /* \"teste_flattened.sol\":16717:16926  Listing({... */\n      mload(0x40)\n      dup1\n      0xa0\n      add\n      0x40\n      mstore\n      dup1\n        /* \"teste_flattened.sol\":16759:16778  _nftContractAddress */\n      dup7\n        /* \"teste_flattened.sol\":16717:16926  Listing({... */\n      0xffffffffffffffffffffffffffffffffffffffff\n      and\n      dup2\n      mstore\n      0x20\n      add\n        /* \"teste_flattened.sol\":16799:16805  _nftId */\n      dup6\n        /* \"teste_flattened.sol\":16717:16926  Listing({... */\n      dup2\n      mstore\n      0x20\n      add\n        /* \"teste_flattened.sol\":16827:16837  msg.sender */\n      caller\n        /* \"teste_flattened.sol\":16717:16926  Listing({... */\n      0xffffffffffffffffffffffffffffffffffffffff\n      and\n      dup2\n      mstore\n      0x20\n      add\n        /* \"teste_flattened.sol\":16858:16864  _price */\n      dup5\n        /* \"teste_flattened.sol\":16717:16926  Listing({... */\n      dup2\n      mstore\n      0x20\n      add\n        /* \"teste_flattened.sol\":16906:16915  _deadline */\n      dup4\n        /* \"teste_flattened.sol\":16888:16903  block.timestamp */\n      timestamp\n        /* \"teste_flattened.sol\":16888:16915  block.timestamp + _deadline */\n      tag_118\n      swap2\n      swap1\n      tag_119\n      jump\t// in\n    tag_118:\n        /* \"teste_flattened.sol\":16717:16926  Listing({... */\n      dup2\n      mstore\n      pop\n        /* \"teste_flattened.sol\":16691:16699  listings */\n      0x08\n        /* \"teste_flattened.sol\":16691:16714  listings[nextListingId] */\n      0x00\n        /* \"teste_flattened.sol\":16700:16713  nextListingId */\n      sload(0x09)\n        /* \"teste_flattened.sol\":16691:16714  listings[nextListingId] */\n      dup2\n      mstore\n      0x20\n      add\n      swap1\n      dup2\n      mstore\n      0x20\n      add\n      0x00\n      keccak256\n        /* \"teste_flattened.sol\":16691:16926  listings[nextListingId] = Listing({... */\n      0x00\n      dup3\n      add\n      mload\n      dup2\n      0x00\n      add\n      exp(0x0100, 0x00)\n      dup2\n      sload\n      dup2\n      0xffffffffffffffffffffffffffffffffffffffff\n      mul\n      not\n      and\n      swap1\n      dup4\n      0xffffffffffffffffffffffffffffffffffffffff\n      and\n      mul\n      or\n      swap1\n      sstore\n      pop\n      0x20\n      dup3\n      add\n      mload\n      dup2\n      0x01\n      add\n      sstore\n      0x40\n      dup3\n      add\n      mload\n      dup2\n      0x02\n      add\n      exp(0x0100, 0x00)\n      dup2\n      sload\n      dup2\n      0xffffffffffffffffffffffffffffffffffffffff\n      mul\n      not\n      and\n      swap1\n      dup4\n      0xffffffffffffffffffffffffffffffffffffffff\n      and\n      mul\n      or\n      swap1\n      sstore\n      pop\n      0x60\n      dup3\n      add\n      mload\n      dup2\n      0x03\n      add\n      sstore\n      0x80\n      dup3\n      add\n      mload\n      dup2\n      0x04\n      add\n      sstore\n      swap1\n      pop\n      pop\n        /* \"teste_flattened.sol\":16937:16953  activeListingIds */\n      0x03\n        /* \"teste_flattened.sol\":16959:16972  nextListingId */\n      sload(0x09)\n        /* \"teste_flattened.sol\":16937:16973  activeListingIds.push(nextListingId) */\n      swap1\n      dup1\n      0x01\n      dup2\n      sload\n      add\n      dup1\n      dup3\n      sstore\n      dup1\n      swap2\n      pop\n      pop\n      0x01\n      swap1\n      sub\n      swap1\n      0x00\n      mstore\n      keccak256(0x00, 0x20)\n      add\n      0x00\n      swap1\n      swap2\n      swap1\n      swap2\n      swap1\n      swap2\n      pop\n      sstore\n        /* \"teste_flattened.sol\":17026:17045  _nftContractAddress */\n      dup5\n        /* \"teste_flattened.sol\":16989:17091  NFTListed(nextListingId, msg.sender, _nftContractAddress, _nftId, _price, block.timestamp + _deadline) */\n      0xffffffffffffffffffffffffffffffffffffffff\n      and\n        /* \"teste_flattened.sol\":17014:17024  msg.sender */\n      caller\n        /* \"teste_flattened.sol\":16989:17091  NFTListed(nextListingId, msg.sender, _nftContractAddress, _nftId, _price, block.timestamp + _deadline) */\n      0xffffffffffffffffffffffffffffffffffffffff\n      and\n        /* \"teste_flattened.sol\":16999:17012  nextListingId */\n      sload(0x09)\n        /* \"teste_flattened.sol\":16989:17091  NFTListed(nextListingId, msg.sender, _nftContractAddress, _nftId, _price, block.timestamp + _deadline) */\n      0xf33c76fec15a03b2e414df8c9dce93f5b05f8672742e0f1eb558b2161162dfcb\n        /* \"teste_flattened.sol\":17047:17053  _nftId */\n      dup8\n        /* \"teste_flattened.sol\":17055:17061  _price */\n      dup8\n        /* \"teste_flattened.sol\":17081:17090  _deadline */\n      dup8\n        /* \"teste_flattened.sol\":17063:17078  block.timestamp */\n      timestamp\n        /* \"teste_flattened.sol\":17063:17090  block.timestamp + _deadline */\n      tag_121\n      swap2\n      swap1\n      tag_119\n      jump\t// in\n    tag_121:\n        /* \"teste_flattened.sol\":16989:17091  NFTListed(nextListingId, msg.sender, _nftContractAddress, _nftId, _price, block.timestamp + _deadline) */\n      mload(0x40)\n      tag_122\n      swap4\n      swap3\n      swap2\n      swap1\n      tag_123\n      jump\t// in\n    tag_122:\n      mload(0x40)\n      dup1\n      swap2\n      sub\n      swap1\n      log4\n        /* \"teste_flattened.sol\":17101:17114  nextListingId */\n      0x09\n      0x00\n        /* \"teste_flattened.sol\":17101:17116  nextListingId++ */\n      dup2\n      sload\n      dup1\n      swap3\n      swap2\n      swap1\n      tag_124\n      swap1\n      tag_125\n      jump\t// in\n    tag_124:\n      swap2\n      swap1\n      pop\n      sstore\n      pop\n        /* \"teste_flattened.sol\":16387:17123  {... */\n      pop\n        /* \"teste_flattened.sol\":2336:2356  _nonReentrantAfter() */\n      tag_126\n        /* \"teste_flattened.sol\":2336:2354  _nonReentrantAfter */\n      tag_127\n        /* \"teste_flattened.sol\":2336:2356  _nonReentrantAfter() */\n      jump\t// in\n    tag_126:\n        /* \"teste_flattened.sol\":16254:17123  function listNFT(address _nftContractAddress, uint256 _nftId, uint256 _price, uint256 _deadline) external whenNotPaused nonReentrant {... */\n      pop\n      pop\n      pop\n      pop\n      jump\t// out\n        /* \"teste_flattened.sol\":18398:18468  function unpause() external onlyOwner nonReentrant {... */\n    tag_29:\n        /* \"teste_flattened.sol\":7660:7673  _checkOwner() */\n      tag_129\n        /* \"teste_flattened.sol\":7660:7671  _checkOwner */\n      tag_130\n        /* \"teste_flattened.sol\":7660:7673  _checkOwner() */\n      jump\t// in\n    tag_129:\n        /* \"teste_flattened.sol\":2294:2315  _nonReentrantBefore() */\n      tag_132\n        /* \"teste_flattened.sol\":2294:2313  _nonReentrantBefore */\n      tag_102\n        /* \"teste_flattened.sol\":2294:2315  _nonReentrantBefore() */\n      jump\t// in\n    tag_132:\n        /* \"teste_flattened.sol\":18455:18465  _unpause() */\n      tag_134\n        /* \"teste_flattened.sol\":18455:18463  _unpause */\n      tag_135\n        /* \"teste_flattened.sol\":18455:18465  _unpause() */\n      jump\t// in\n    tag_134:\n        /* \"teste_flattened.sol\":2336:2356  _nonReentrantAfter() */\n      tag_136\n        /* \"teste_flattened.sol\":2336:2354  _nonReentrantAfter */\n      tag_127\n        /* \"teste_flattened.sol\":2336:2356  _nonReentrantAfter() */\n      jump\t// in\n    tag_136:\n        /* \"teste_flattened.sol\":18398:18468  function unpause() external onlyOwner nonReentrant {... */\n      jump\t// out\n        /* \"teste_flattened.sol\":17127:18328  function buyNFT(uint256 _listingId) external payable whenNotPaused nonReentrant {... */\n    tag_33:\n        /* \"teste_flattened.sol\":5260:5279  _requireNotPaused() */\n      tag_138\n        /* \"teste_flattened.sol\":5260:5277  _requireNotPaused */\n      tag_99\n        /* \"teste_flattened.sol\":5260:5279  _requireNotPaused() */\n      jump\t// in\n    tag_138:\n        /* \"teste_flattened.sol\":2294:2315  _nonReentrantBefore() */\n      tag_140\n        /* \"teste_flattened.sol\":2294:2313  _nonReentrantBefore */\n      tag_102\n        /* \"teste_flattened.sol\":2294:2315  _nonReentrantBefore() */\n      jump\t// in\n    tag_140:\n        /* \"teste_flattened.sol\":17213:17227  address seller */\n      0x00\n        /* \"teste_flattened.sol\":17254:17255  0 */\n      dup1\n        /* \"teste_flattened.sol\":17242:17251  msg.value */\n      callvalue\n        /* \"teste_flattened.sol\":17242:17255  msg.value > 0 */\n      gt\n        /* \"teste_flattened.sol\":17234:17297  require(msg.value > 0, \"Sent value must be greater than zero.\") */\n      tag_142\n      jumpi\n      mload(0x40)\n      0x08c379a000000000000000000000000000000000000000000000000000000000\n      dup2\n      mstore\n      0x04\n      add\n      tag_143\n      swap1\n      tag_144\n      jump\t// in\n    tag_143:\n      mload(0x40)\n      dup1\n      swap2\n      sub\n      swap1\n      revert\n    tag_142:\n        /* \"teste_flattened.sol\":17304:17327  Listing storage listing */\n      0x00\n        /* \"teste_flattened.sol\":17330:17338  listings */\n      0x08\n        /* \"teste_flattened.sol\":17330:17350  listings[_listingId] */\n      0x00\n        /* \"teste_flattened.sol\":17339:17349  _listingId */\n      dup5\n        /* \"teste_flattened.sol\":17330:17350  listings[_listingId] */\n      dup2\n      mstore\n      0x20\n      add\n      swap1\n      dup2\n      mstore\n      0x20\n      add\n      0x00\n      keccak256\n        /* \"teste_flattened.sol\":17304:17350  Listing storage listing = listings[_listingId] */\n      swap1\n      pop\n        /* \"teste_flattened.sol\":17390:17391  0 */\n      0x00\n        /* \"teste_flattened.sol\":17364:17392  listing.seller != address(0) */\n      0xffffffffffffffffffffffffffffffffffffffff\n      and\n        /* \"teste_flattened.sol\":17364:17371  listing */\n      dup2\n        /* \"teste_flattened.sol\":17364:17378  listing.seller */\n      0x02\n      add\n      0x00\n      swap1\n      sload\n      swap1\n      0x0100\n      exp\n      swap1\n      div\n      0xffffffffffffffffffffffffffffffffffffffff\n      and\n        /* \"teste_flattened.sol\":17364:17392  listing.seller != address(0) */\n      0xffffffffffffffffffffffffffffffffffffffff\n      and\n      sub\n        /* \"teste_flattened.sol\":17356:17420  require(listing.seller != address(0), \"Listing does not exist.\") */\n      tag_145\n      jumpi\n      mload(0x40)\n      0x08c379a000000000000000000000000000000000000000000000000000000000\n      dup2\n      mstore\n      0x04\n      add\n      tag_146\n      swap1\n      tag_147\n      jump\t// in\n    tag_146:\n      mload(0x40)\n      dup1\n      swap2\n      sub\n      swap1\n      revert\n    tag_145:\n        /* \"teste_flattened.sol\":17453:17460  listing */\n      dup1\n        /* \"teste_flattened.sol\":17453:17469  listing.deadline */\n      0x04\n      add\n      sload\n        /* \"teste_flattened.sol\":17434:17449  block.timestamp */\n      timestamp\n        /* \"teste_flattened.sol\":17434:17469  block.timestamp <= listing.deadline */\n      gt\n      iszero\n        /* \"teste_flattened.sol\":17426:17499  require(block.timestamp <= listing.deadline, \"This listing has expired.\") */\n      tag_148\n      jumpi\n      mload(0x40)\n      0x08c379a000000000000000000000000000000000000000000000000000000000\n      dup2\n      mstore\n      0x04\n      add\n      tag_149\n      swap1\n      tag_150\n      jump\t// in\n    tag_149:\n      mload(0x40)\n      dup1\n      swap2\n      sub\n      swap1\n      revert\n    tag_148:\n        /* \"teste_flattened.sol\":17526:17533  listing */\n      dup1\n        /* \"teste_flattened.sol\":17526:17539  listing.price */\n      0x03\n      add\n      sload\n        /* \"teste_flattened.sol\":17513:17522  msg.value */\n      callvalue\n        /* \"teste_flattened.sol\":17513:17539  msg.value == listing.price */\n      eq\n        /* \"teste_flattened.sol\":17505:17590  require(msg.value == listing.price, \"Sent value must be equal to the listing price.\") */\n      tag_151\n      jumpi\n      mload(0x40)\n      0x08c379a000000000000000000000000000000000000000000000000000000000\n      dup2\n      mstore\n      0x04\n      add\n      tag_152\n      swap1\n      tag_153\n      jump\t// in\n    tag_152:\n      mload(0x40)\n      dup1\n      swap2\n      sub\n      swap1\n      revert\n    tag_151:\n        /* \"teste_flattened.sol\":17597:17618  uint256 royaltyAmount */\n      0x00\n        /* \"teste_flattened.sol\":17649:17656  listing */\n      dup2\n        /* \"teste_flattened.sol\":17649:17662  listing.price */\n      0x03\n      add\n      sload\n        /* \"teste_flattened.sol\":17641:17646  10000 */\n      0x2710\n        /* \"teste_flattened.sol\":17621:17638  royaltyPercentage */\n      sload(0x04)\n        /* \"teste_flattened.sol\":17621:17646  royaltyPercentage / 10000 */\n      tag_154\n      swap2\n      swap1\n      tag_155\n      jump\t// in\n    tag_154:\n        /* \"teste_flattened.sol\":17621:17662  royaltyPercentage / 10000 * listing.price */\n      tag_156\n      swap2\n      swap1\n      tag_157\n      jump\t// in\n    tag_156:\n        /* \"teste_flattened.sol\":17597:17662  uint256 royaltyAmount = royaltyPercentage / 10000 * listing.price */\n      swap1\n      pop\n        /* \"teste_flattened.sol\":17668:17687  uint256 platformFee */\n      0x00\n        /* \"teste_flattened.sol\":17722:17729  listing */\n      dup3\n        /* \"teste_flattened.sol\":17722:17735  listing.price */\n      0x03\n      add\n      sload\n        /* \"teste_flattened.sol\":17714:17719  10000 */\n      0x2710\n        /* \"teste_flattened.sol\":17690:17711  platformFeePercentage */\n      sload(0x05)\n        /* \"teste_flattened.sol\":17690:17719  platformFeePercentage / 10000 */\n      tag_158\n      swap2\n      swap1\n      tag_155\n      jump\t// in\n    tag_158:\n        /* \"teste_flattened.sol\":17690:17735  platformFeePercentage / 10000 * listing.price */\n      tag_159\n      swap2\n      swap1\n      tag_157\n      jump\t// in\n    tag_159:\n        /* \"teste_flattened.sol\":17668:17735  uint256 platformFee = platformFeePercentage / 10000 * listing.price */\n      swap1\n      pop\n        /* \"teste_flattened.sol\":17741:17761  uint256 sellerAmount */\n      0x00\n        /* \"teste_flattened.sol\":17796:17807  platformFee */\n      dup2\n        /* \"teste_flattened.sol\":17780:17793  royaltyAmount */\n      dup4\n        /* \"teste_flattened.sol\":17764:17771  listing */\n      dup6\n        /* \"teste_flattened.sol\":17764:17777  listing.price */\n      0x03\n      add\n      sload\n        /* \"teste_flattened.sol\":17764:17793  listing.price - royaltyAmount */\n      tag_160\n      swap2\n      swap1\n      tag_161\n      jump\t// in\n    tag_160:\n        /* \"teste_flattened.sol\":17764:17807  listing.price - royaltyAmount - platformFee */\n      tag_162\n      swap2\n      swap1\n      tag_161\n      jump\t// in\n    tag_162:\n        /* \"teste_flattened.sol\":17741:17807  uint256 sellerAmount = listing.price - royaltyAmount - platformFee */\n      swap1\n      pop\n        /* \"teste_flattened.sol\":17823:17830  listing */\n      dup4\n        /* \"teste_flattened.sol\":17823:17837  listing.seller */\n      0x02\n      add\n      0x00\n      swap1\n      sload\n      swap1\n      0x0100\n      exp\n      swap1\n      div\n      0xffffffffffffffffffffffffffffffffffffffff\n      and\n        /* \"teste_flattened.sol\":17814:17837  seller = listing.seller */\n      swap5\n      pop\n        /* \"teste_flattened.sol\":17844:17863  IERC721 nftContract */\n      0x00\n        /* \"teste_flattened.sol\":17874:17881  listing */\n      dup5\n        /* \"teste_flattened.sol\":17874:17900  listing.nftContractAddress */\n      0x00\n      add\n      0x00\n      swap1\n      sload\n      swap1\n      0x0100\n      exp\n      swap1\n      div\n      0xffffffffffffffffffffffffffffffffffffffff\n      and\n        /* \"teste_flattened.sol\":17844:17901  IERC721 nftContract = IERC721(listing.nftContractAddress) */\n      swap1\n      pop\n        /* \"teste_flattened.sol\":17953:17959  seller */\n      dup6\n        /* \"teste_flattened.sol\":17915:17959  nftContract.ownerOf(listing.nftId) == seller */\n      0xffffffffffffffffffffffffffffffffffffffff\n      and\n        /* \"teste_flattened.sol\":17915:17926  nftContract */\n      dup2\n        /* \"teste_flattened.sol\":17915:17934  nftContract.ownerOf */\n      0xffffffffffffffffffffffffffffffffffffffff\n      and\n      0x6352211e\n        /* \"teste_flattened.sol\":17935:17942  listing */\n      dup8\n        /* \"teste_flattened.sol\":17935:17948  listing.nftId */\n      0x01\n      add\n      sload\n        /* \"teste_flattened.sol\":17915:17949  nftContract.ownerOf(listing.nftId) */\n      mload(0x40)\n      dup3\n      0xffffffff\n      and\n      0xe0\n      shl\n      dup2\n      mstore\n      0x04\n      add\n      tag_163\n      swap2\n      swap1\n      tag_59\n      jump\t// in\n    tag_163:\n      0x20\n      mload(0x40)\n      dup1\n      dup4\n      sub\n      dup2\n      dup7\n      gas\n      staticcall\n      iszero\n      dup1\n      iszero\n      tag_165\n      jumpi\n      returndatasize\n      0x00\n      dup1\n      returndatacopy\n      revert(0x00, returndatasize)\n    tag_165:\n      pop\n      pop\n      pop\n      pop\n      mload(0x40)\n      returndatasize\n      not(0x1f)\n      0x1f\n      dup3\n      add\n      and\n      dup3\n      add\n      dup1\n      0x40\n      mstore\n      pop\n      dup2\n      add\n      swap1\n      tag_166\n      swap2\n      swap1\n      tag_114\n      jump\t// in\n    tag_166:\n        /* \"teste_flattened.sol\":17915:17959  nftContract.ownerOf(listing.nftId) == seller */\n      0xffffffffffffffffffffffffffffffffffffffff\n      and\n      eq\n        /* \"teste_flattened.sol\":17907:17994  require(nftContract.ownerOf(listing.nftId) == seller, \"Seller no longer owns the NFT.\") */\n      tag_167\n      jumpi\n      mload(0x40)\n      0x08c379a000000000000000000000000000000000000000000000000000000000\n      dup2\n      mstore\n      0x04\n      add\n      tag_168\n      swap1\n      tag_169\n      jump\t// in\n    tag_168:\n      mload(0x40)\n      dup1\n      swap2\n      sub\n      swap1\n      revert\n    tag_167:\n        /* \"teste_flattened.sol\":18001:18012  nftContract */\n      dup1\n        /* \"teste_flattened.sol\":18001:18029  nftContract.safeTransferFrom */\n      0xffffffffffffffffffffffffffffffffffffffff\n      and\n      0x42842e0e\n        /* \"teste_flattened.sol\":18030:18036  seller */\n      dup8\n        /* \"teste_flattened.sol\":18038:18048  msg.sender */\n      caller\n        /* \"teste_flattened.sol\":18050:18057  listing */\n      dup9\n        /* \"teste_flattened.sol\":18050:18063  listing.nftId */\n      0x01\n      add\n      sload\n        /* \"teste_flattened.sol\":18001:18064  nftContract.safeTransferFrom(seller, msg.sender, listing.nftId) */\n      mload(0x40)\n      dup5\n      0xffffffff\n      and\n      0xe0\n      shl\n      dup2\n      mstore\n      0x04\n      add\n      tag_170\n      swap4\n      swap3\n      swap2\n      swap1\n      tag_171\n      jump\t// in\n    tag_170:\n      0x00\n      mload(0x40)\n      dup1\n      dup4\n      sub\n      dup2\n      0x00\n      dup8\n      dup1\n      extcodesize\n      iszero\n      dup1\n      iszero\n      tag_172\n      jumpi\n      0x00\n      dup1\n      revert\n    tag_172:\n      pop\n      gas\n      call\n      iszero\n      dup1\n      iszero\n      tag_174\n      jumpi\n      returndatasize\n      0x00\n      dup1\n      returndatacopy\n      revert(0x00, returndatasize)\n    tag_174:\n      pop\n      pop\n      pop\n      pop\n        /* \"teste_flattened.sol\":18079:18085  seller */\n      dup6\n        /* \"teste_flattened.sol\":18071:18095  payable(seller).transfer */\n      0xffffffffffffffffffffffffffffffffffffffff\n      and\n        /* \"teste_flattened.sol\":18071:18109  payable(seller).transfer(sellerAmount) */\n      0x08fc\n        /* \"teste_flattened.sol\":18096:18108  sellerAmount */\n      dup4\n        /* \"teste_flattened.sol\":18071:18109  payable(seller).transfer(sellerAmount) */\n      swap1\n      dup2\n      iszero\n      mul\n      swap1\n      mload(0x40)\n      0x00\n      mload(0x40)\n      dup1\n      dup4\n      sub\n      dup2\n      dup6\n      dup9\n      dup9\n      call\n      swap4\n      pop\n      pop\n      pop\n      pop\n      iszero\n      dup1\n      iszero\n      tag_176\n      jumpi\n      returndatasize\n      0x00\n      dup1\n      returndatacopy\n      revert(0x00, returndatasize)\n    tag_176:\n      pop\n        /* \"teste_flattened.sol\":18123:18137  royaltyAddress */\n      0x06\n      0x00\n      swap1\n      sload\n      swap1\n      0x0100\n      exp\n      swap1\n      div\n      0xffffffffffffffffffffffffffffffffffffffff\n      and\n        /* \"teste_flattened.sol\":18115:18147  payable(royaltyAddress).transfer */\n      0xffffffffffffffffffffffffffffffffffffffff\n      and\n        /* \"teste_flattened.sol\":18115:18162  payable(royaltyAddress).transfer(royaltyAmount) */\n      0x08fc\n        /* \"teste_flattened.sol\":18148:18161  royaltyAmount */\n      dup6\n        /* \"teste_flattened.sol\":18115:18162  payable(royaltyAddress).transfer(royaltyAmount) */\n      swap1\n      dup2\n      iszero\n      mul\n      swap1\n      mload(0x40)\n      0x00\n      mload(0x40)\n      dup1\n      dup4\n      sub\n      dup2\n      dup6\n      dup9\n      dup9\n      call\n      swap4\n      pop\n      pop\n      pop\n      pop\n      iszero\n      dup1\n      iszero\n      tag_178\n      jumpi\n      returndatasize\n      0x00\n      dup1\n      returndatacopy\n      revert(0x00, returndatasize)\n    tag_178:\n      pop\n        /* \"teste_flattened.sol\":18176:18194  platformFeeAddress */\n      0x07\n      0x00\n      swap1\n      sload\n      swap1\n      0x0100\n      exp\n      swap1\n      div\n      0xffffffffffffffffffffffffffffffffffffffff\n      and\n        /* \"teste_flattened.sol\":18168:18204  payable(platformFeeAddress).transfer */\n      0xffffffffffffffffffffffffffffffffffffffff\n      and\n        /* \"teste_flattened.sol\":18168:18217  payable(platformFeeAddress).transfer(platformFee) */\n      0x08fc\n        /* \"teste_flattened.sol\":18205:18216  platformFee */\n      dup5\n        /* \"teste_flattened.sol\":18168:18217  payable(platformFeeAddress).transfer(platformFee) */\n      swap1\n      dup2\n      iszero\n      mul\n      swap1\n      mload(0x40)\n      0x00\n      mload(0x40)\n      dup1\n      dup4\n      sub\n      dup2\n      dup6\n      dup9\n      dup9\n      call\n      swap4\n      pop\n      pop\n      pop\n      pop\n      iszero\n      dup1\n      iszero\n      tag_180\n      jumpi\n      returndatasize\n      0x00\n      dup1\n      returndatacopy\n      revert(0x00, returndatasize)\n    tag_180:\n      pop\n        /* \"teste_flattened.sol\":18265:18275  msg.sender */\n      caller\n        /* \"teste_flattened.sol\":18229:18291  NFTSold(_listingId, listing.seller, msg.sender, listing.price) */\n      0xffffffffffffffffffffffffffffffffffffffff\n      and\n        /* \"teste_flattened.sol\":18249:18256  listing */\n      dup6\n        /* \"teste_flattened.sol\":18249:18263  listing.seller */\n      0x02\n      add\n      0x00\n      swap1\n      sload\n      swap1\n      0x0100\n      exp\n      swap1\n      div\n      0xffffffffffffffffffffffffffffffffffffffff\n      and\n        /* \"teste_flattened.sol\":18229:18291  NFTSold(_listingId, listing.seller, msg.sender, listing.price) */\n      0xffffffffffffffffffffffffffffffffffffffff\n      and\n        /* \"teste_flattened.sol\":18237:18247  _listingId */\n      dup9\n        /* \"teste_flattened.sol\":18229:18291  NFTSold(_listingId, listing.seller, msg.sender, listing.price) */\n      0x8562eb94748e30bb0071e932744ce902b460c683474fcb3bfd567ffa16b1afb2\n        /* \"teste_flattened.sol\":18277:18284  listing */\n      dup9\n        /* \"teste_flattened.sol\":18277:18290  listing.price */\n      0x03\n      add\n      sload\n        /* \"teste_flattened.sol\":18229:18291  NFTSold(_listingId, listing.seller, msg.sender, listing.price) */\n      mload(0x40)\n      tag_181\n      swap2\n      swap1\n      tag_59\n      jump\t// in\n    tag_181:\n      mload(0x40)\n      dup1\n      swap2\n      sub\n      swap1\n      log4\n        /* \"teste_flattened.sol\":18305:18313  listings */\n      0x08\n        /* \"teste_flattened.sol\":18305:18325  listings[_listingId] */\n      0x00\n        /* \"teste_flattened.sol\":18314:18324  _listingId */\n      dup9\n        /* \"teste_flattened.sol\":18305:18325  listings[_listingId] */\n      dup2\n      mstore\n      0x20\n      add\n      swap1\n      dup2\n      mstore\n      0x20\n      add\n      0x00\n      keccak256\n      0x00\n        /* \"teste_flattened.sol\":18298:18325  delete listings[_listingId] */\n      dup1\n      dup3\n      add\n      exp(0x0100, 0x00)\n      dup2\n      sload\n      swap1\n      0xffffffffffffffffffffffffffffffffffffffff\n      mul\n      not\n      and\n      swap1\n      sstore\n      0x01\n      dup3\n      add\n      0x00\n      swap1\n      sstore\n      0x02\n      dup3\n      add\n      exp(0x0100, 0x00)\n      dup2\n      sload\n      swap1\n      0xffffffffffffffffffffffffffffffffffffffff\n      mul\n      not\n      and\n      swap1\n      sstore\n      0x03\n      dup3\n      add\n      0x00\n      swap1\n      sstore\n      0x04\n      dup3\n      add\n      0x00\n      swap1\n      sstore\n      pop\n      pop\n        /* \"teste_flattened.sol\":17207:18328  {... */\n      pop\n      pop\n      pop\n      pop\n      pop\n      pop\n        /* \"teste_flattened.sol\":2336:2356  _nonReentrantAfter() */\n      tag_182\n        /* \"teste_flattened.sol\":2336:2354  _nonReentrantAfter */\n      tag_127\n        /* \"teste_flattened.sol\":2336:2356  _nonReentrantAfter() */\n      jump\t// in\n    tag_182:\n        /* \"teste_flattened.sol\":17127:18328  function buyNFT(uint256 _listingId) external payable whenNotPaused nonReentrant {... */\n      pop\n      jump\t// out\n        /* \"teste_flattened.sol\":5636:5720  function paused() public view virtual returns (bool) {... */\n    tag_36:\n        /* \"teste_flattened.sol\":5683:5687  bool */\n      0x00\n        /* \"teste_flattened.sol\":5706:5713  _paused */\n      0x02\n      0x00\n      swap1\n      sload\n      swap1\n      0x0100\n      exp\n      swap1\n      div\n      0xff\n      and\n        /* \"teste_flattened.sol\":5699:5713  return _paused */\n      swap1\n      pop\n        /* \"teste_flattened.sol\":5636:5720  function paused() public view virtual returns (bool) {... */\n      swap1\n      jump\t// out\n        /* \"teste_flattened.sol\":18470:18798  function updateFeeAddresses(address _newRoyaltyAddress, address _newPlatformFeeAddress) external onlyOwner nonReentrant {... */\n    tag_43:\n        /* \"teste_flattened.sol\":7660:7673  _checkOwner() */\n      tag_185\n        /* \"teste_flattened.sol\":7660:7671  _checkOwner */\n      tag_130\n        /* \"teste_flattened.sol\":7660:7673  _checkOwner() */\n      jump\t// in\n    tag_185:\n        /* \"teste_flattened.sol\":2294:2315  _nonReentrantBefore() */\n      tag_187\n        /* \"teste_flattened.sol\":2294:2313  _nonReentrantBefore */\n      tag_102\n        /* \"teste_flattened.sol\":2294:2315  _nonReentrantBefore() */\n      jump\t// in\n    tag_187:\n        /* \"teste_flattened.sol\":18634:18635  0 */\n      0x00\n        /* \"teste_flattened.sol\":18604:18636  _newRoyaltyAddress != address(0) */\n      0xffffffffffffffffffffffffffffffffffffffff\n      and\n        /* \"teste_flattened.sol\":18604:18622  _newRoyaltyAddress */\n      dup3\n        /* \"teste_flattened.sol\":18604:18636  _newRoyaltyAddress != address(0) */\n      0xffffffffffffffffffffffffffffffffffffffff\n      and\n      eq\n      iszero\n        /* \"teste_flattened.sol\":18604:18676  _newRoyaltyAddress != address(0) && _newPlatformFeeAddress != address(0) */\n      dup1\n      iszero\n      tag_189\n      jumpi\n      pop\n        /* \"teste_flattened.sol\":18674:18675  0 */\n      0x00\n        /* \"teste_flattened.sol\":18640:18676  _newPlatformFeeAddress != address(0) */\n      0xffffffffffffffffffffffffffffffffffffffff\n      and\n        /* \"teste_flattened.sol\":18640:18662  _newPlatformFeeAddress */\n      dup2\n        /* \"teste_flattened.sol\":18640:18676  _newPlatformFeeAddress != address(0) */\n      0xffffffffffffffffffffffffffffffffffffffff\n      and\n      eq\n      iszero\n        /* \"teste_flattened.sol\":18604:18676  _newRoyaltyAddress != address(0) && _newPlatformFeeAddress != address(0) */\n    tag_189:\n        /* \"teste_flattened.sol\":18596:18705  require(_newRoyaltyAddress != address(0) && _newPlatformFeeAddress != address(0), \"Addresses cannot be zero\") */\n      tag_190\n      jumpi\n      mload(0x40)\n      0x08c379a000000000000000000000000000000000000000000000000000000000\n      dup2\n      mstore\n      0x04\n      add\n      tag_191\n      swap1\n      tag_192\n      jump\t// in\n    tag_191:\n      mload(0x40)\n      dup1\n      swap2\n      sub\n      swap1\n      revert\n    tag_190:\n        /* \"teste_flattened.sol\":18728:18746  _newRoyaltyAddress */\n      dup2\n        /* \"teste_flattened.sol\":18711:18725  royaltyAddress */\n      0x06\n      0x00\n        /* \"teste_flattened.sol\":18711:18746  royaltyAddress = _newRoyaltyAddress */\n      0x0100\n      exp\n      dup2\n      sload\n      dup2\n      0xffffffffffffffffffffffffffffffffffffffff\n      mul\n      not\n      and\n      swap1\n      dup4\n      0xffffffffffffffffffffffffffffffffffffffff\n      and\n      mul\n      or\n      swap1\n      sstore\n      pop\n        /* \"teste_flattened.sol\":18773:18795  _newPlatformFeeAddress */\n      dup1\n        /* \"teste_flattened.sol\":18752:18770  platformFeeAddress */\n      0x07\n      0x00\n        /* \"teste_flattened.sol\":18752:18795  platformFeeAddress = _newPlatformFeeAddress */\n      0x0100\n      exp\n      dup2\n      sload\n      dup2\n      0xffffffffffffffffffffffffffffffffffffffff\n      mul\n      not\n      and\n      swap1\n      dup4\n      0xffffffffffffffffffffffffffffffffffffffff\n      and\n      mul\n      or\n      swap1\n      sstore\n      pop\n        /* \"teste_flattened.sol\":2336:2356  _nonReentrantAfter() */\n      tag_193\n        /* \"teste_flattened.sol\":2336:2354  _nonReentrantAfter */\n      tag_127\n        /* \"teste_flattened.sol\":2336:2356  _nonReentrantAfter() */\n      jump\t// in\n    tag_193:\n        /* \"teste_flattened.sol\":18470:18798  function updateFeeAddresses(address _newRoyaltyAddress, address _newPlatformFeeAddress) external onlyOwner nonReentrant {... */\n      pop\n      pop\n      jump\t// out\n        /* \"teste_flattened.sol\":8390:8491  function renounceOwnership() public virtual onlyOwner {... */\n    tag_46:\n        /* \"teste_flattened.sol\":7660:7673  _checkOwner() */\n      tag_195\n        /* \"teste_flattened.sol\":7660:7671  _checkOwner */\n      tag_130\n        /* \"teste_flattened.sol\":7660:7673  _checkOwner() */\n      jump\t// in\n    tag_195:\n        /* \"teste_flattened.sol\":8454:8484  _transferOwnership(address(0)) */\n      tag_197\n        /* \"teste_flattened.sol\":8481:8482  0 */\n      0x00\n        /* \"teste_flattened.sol\":8454:8472  _transferOwnership */\n      tag_198\n        /* \"teste_flattened.sol\":8454:8484  _transferOwnership(address(0)) */\n      jump\t// in\n    tag_197:\n        /* \"teste_flattened.sol\":8390:8491  function renounceOwnership() public virtual onlyOwner {... */\n      jump\t// out\n        /* \"teste_flattened.sol\":18800:19033  function updateFeePercentages(uint256 _newRoyaltyPercentage, uint256 _newPlatformFeePercentage) external onlyOwner nonReentrant {... */\n    tag_51:\n        /* \"teste_flattened.sol\":7660:7673  _checkOwner() */\n      tag_200\n        /* \"teste_flattened.sol\":7660:7671  _checkOwner */\n      tag_130\n        /* \"teste_flattened.sol\":7660:7673  _checkOwner() */\n      jump\t// in\n    tag_200:\n        /* \"teste_flattened.sol\":2294:2315  _nonReentrantBefore() */\n      tag_202\n        /* \"teste_flattened.sol\":2294:2313  _nonReentrantBefore */\n      tag_102\n        /* \"teste_flattened.sol\":2294:2315  _nonReentrantBefore() */\n      jump\t// in\n    tag_202:\n        /* \"teste_flattened.sol\":18954:18975  _newRoyaltyPercentage */\n      dup2\n        /* \"teste_flattened.sol\":18934:18951  royaltyPercentage */\n      0x04\n        /* \"teste_flattened.sol\":18934:18975  royaltyPercentage = _newRoyaltyPercentage */\n      dup2\n      swap1\n      sstore\n      pop\n        /* \"teste_flattened.sol\":19005:19030  _newPlatformFeePercentage */\n      dup1\n        /* \"teste_flattened.sol\":18981:19002  platformFeePercentage */\n      0x05\n        /* \"teste_flattened.sol\":18981:19030  platformFeePercentage = _newPlatformFeePercentage */\n      dup2\n      swap1\n      sstore\n      pop\n        /* \"teste_flattened.sol\":2336:2356  _nonReentrantAfter() */\n      tag_204\n        /* \"teste_flattened.sol\":2336:2354  _nonReentrantAfter */\n      tag_127\n        /* \"teste_flattened.sol\":2336:2356  _nonReentrantAfter() */\n      jump\t// in\n    tag_204:\n        /* \"teste_flattened.sol\":18800:19033  function updateFeePercentages(uint256 _newRoyaltyPercentage, uint256 _newPlatformFeePercentage) external onlyOwner nonReentrant {... */\n      pop\n      pop\n      jump\t// out\n        /* \"teste_flattened.sol\":18330:18396  function pause() external onlyOwner nonReentrant {... */\n    tag_54:\n        /* \"teste_flattened.sol\":7660:7673  _checkOwner() */\n      tag_206\n        /* \"teste_flattened.sol\":7660:7671  _checkOwner */\n      tag_130\n        /* \"teste_flattened.sol\":7660:7673  _checkOwner() */\n      jump\t// in\n    tag_206:\n        /* \"teste_flattened.sol\":2294:2315  _nonReentrantBefore() */\n      tag_208\n        /* \"teste_flattened.sol\":2294:2313  _nonReentrantBefore */\n      tag_102\n        /* \"teste_flattened.sol\":2294:2315  _nonReentrantBefore() */\n      jump\t// in\n    tag_208:\n        /* \"teste_flattened.sol\":18385:18393  _pause() */\n      tag_210\n        /* \"teste_flattened.sol\":18385:18391  _pause */\n      tag_211\n        /* \"teste_flattened.sol\":18385:18393  _pause() */\n      jump\t// in\n    tag_210:\n        /* \"teste_flattened.sol\":2336:2356  _nonReentrantAfter() */\n      tag_212\n        /* \"teste_flattened.sol\":2336:2354  _nonReentrantAfter */\n      tag_127\n        /* \"teste_flattened.sol\":2336:2356  _nonReentrantAfter() */\n      jump\t// in\n    tag_212:\n        /* \"teste_flattened.sol\":18330:18396  function pause() external onlyOwner nonReentrant {... */\n      jump\t// out\n        /* \"teste_flattened.sol\":15253:15285  uint256 public royaltyPercentage */\n    tag_57:\n      sload(0x04)\n      dup2\n      jump\t// out\n        /* \"teste_flattened.sol\":7767:7852  function owner() public view virtual returns (address) {... */\n    tag_62:\n        /* \"teste_flattened.sol\":7813:7820  address */\n      0x00\n        /* \"teste_flattened.sol\":7839:7845  _owner */\n      dup1\n      0x00\n      swap1\n      sload\n      swap1\n      0x0100\n      exp\n      swap1\n      div\n      0xffffffffffffffffffffffffffffffffffffffff\n      and\n        /* \"teste_flattened.sol\":7832:7845  return _owner */\n      swap1\n      pop\n        /* \"teste_flattened.sol\":7767:7852  function owner() public view virtual returns (address) {... */\n      swap1\n      jump\t// out\n        /* \"teste_flattened.sol\":15459:15491  uint256 public nextListingId = 1 */\n    tag_67:\n      sload(0x09)\n      dup2\n      jump\t// out\n        /* \"teste_flattened.sol\":15334:15363  address public royaltyAddress */\n    tag_71:\n      0x06\n      0x00\n      swap1\n      sload\n      swap1\n      0x0100\n      exp\n      swap1\n      div\n      0xffffffffffffffffffffffffffffffffffffffff\n      and\n      dup2\n      jump\t// out\n        /* \"teste_flattened.sol\":15291:15327  uint256 public platformFeePercentage */\n    tag_75:\n      sload(0x05)\n      dup2\n      jump\t// out\n        /* \"teste_flattened.sol\":15409:15452  mapping(uint256 => Listing) public listings */\n    tag_80:\n      mstore(0x20, 0x08)\n      dup1\n      0x00\n      mstore\n      keccak256(0x00, 0x40)\n      0x00\n      swap2\n      pop\n      swap1\n      pop\n      dup1\n      0x00\n      add\n      0x00\n      swap1\n      sload\n      swap1\n      0x0100\n      exp\n      swap1\n      div\n      0xffffffffffffffffffffffffffffffffffffffff\n      and\n      swap1\n      dup1\n      0x01\n      add\n      sload\n      swap1\n      dup1\n      0x02\n      add\n      0x00\n      swap1\n      sload\n      swap1\n      0x0100\n      exp\n      swap1\n      div\n      0xffffffffffffffffffffffffffffffffffffffff\n      and\n      swap1\n      dup1\n      0x03\n      add\n      sload\n      swap1\n      dup1\n      0x04\n      add\n      sload\n      swap1\n      pop\n      dup6\n      jump\t// out\n        /* \"teste_flattened.sol\":15214:15247  uint256[] public activeListingIds */\n    tag_86:\n      0x03\n      dup2\n      dup2\n      sload\n      dup2\n      lt\n      tag_214\n      jumpi\n      0x00\n      dup1\n      revert\n    tag_214:\n      swap1\n      0x00\n      mstore\n      keccak256(0x00, 0x20)\n      add\n      0x00\n      swap2\n      pop\n      swap1\n      pop\n      sload\n      dup2\n      jump\t// out\n        /* \"teste_flattened.sol\":15369:15402  address public platformFeeAddress */\n    tag_90:\n      0x07\n      0x00\n      swap1\n      sload\n      swap1\n      0x0100\n      exp\n      swap1\n      div\n      0xffffffffffffffffffffffffffffffffffffffff\n      and\n      dup2\n      jump\t// out\n        /* \"teste_flattened.sol\":8640:8838  function transferOwnership(address newOwner) public virtual onlyOwner {... */\n    tag_96:\n        /* \"teste_flattened.sol\":7660:7673  _checkOwner() */\n      tag_217\n        /* \"teste_flattened.sol\":7660:7671  _checkOwner */\n      tag_130\n        /* \"teste_flattened.sol\":7660:7673  _checkOwner() */\n      jump\t// in\n    tag_217:\n        /* \"teste_flattened.sol\":8748:8749  0 */\n      0x00\n        /* \"teste_flattened.sol\":8728:8750  newOwner != address(0) */\n      0xffffffffffffffffffffffffffffffffffffffff\n      and\n        /* \"teste_flattened.sol\":8728:8736  newOwner */\n      dup2\n        /* \"teste_flattened.sol\":8728:8750  newOwner != address(0) */\n      0xffffffffffffffffffffffffffffffffffffffff\n      and\n      sub\n        /* \"teste_flattened.sol\":8720:8793  require(newOwner != address(0), \"Ownable: new owner is the zero address\") */\n      tag_219\n      jumpi\n      mload(0x40)\n      0x08c379a000000000000000000000000000000000000000000000000000000000\n      dup2\n      mstore\n      0x04\n      add\n      tag_220\n      swap1\n      tag_221\n      jump\t// in\n    tag_220:\n      mload(0x40)\n      dup1\n      swap2\n      sub\n      swap1\n      revert\n    tag_219:\n        /* \"teste_flattened.sol\":8803:8831  _transferOwnership(newOwner) */\n      tag_222\n        /* \"teste_flattened.sol\":8822:8830  newOwner */\n      dup2\n        /* \"teste_flattened.sol\":8803:8821  _transferOwnership */\n      tag_198\n        /* \"teste_flattened.sol\":8803:8831  _transferOwnership(newOwner) */\n      jump\t// in\n    tag_222:\n        /* \"teste_flattened.sol\":8640:8838  function transferOwnership(address newOwner) public virtual onlyOwner {... */\n      pop\n      jump\t// out\n        /* \"teste_flattened.sol\":5788:5894  function _requireNotPaused() internal view virtual {... */\n    tag_99:\n        /* \"teste_flattened.sol\":5858:5866  paused() */\n      tag_224\n        /* \"teste_flattened.sol\":5858:5864  paused */\n      tag_36\n        /* \"teste_flattened.sol\":5858:5866  paused() */\n      jump\t// in\n    tag_224:\n        /* \"teste_flattened.sol\":5857:5866  !paused() */\n      iszero\n        /* \"teste_flattened.sol\":5849:5887  require(!paused(), \"Pausable: paused\") */\n      tag_225\n      jumpi\n      mload(0x40)\n      0x08c379a000000000000000000000000000000000000000000000000000000000\n      dup2\n      mstore\n      0x04\n      add\n      tag_226\n      swap1\n      tag_227\n      jump\t// in\n    tag_226:\n      mload(0x40)\n      dup1\n      swap2\n      sub\n      swap1\n      revert\n    tag_225:\n        /* \"teste_flattened.sol\":5788:5894  function _requireNotPaused() internal view virtual {... */\n      jump\t// out\n        /* \"teste_flattened.sol\":2369:2656  function _nonReentrantBefore() private {... */\n    tag_102:\n        /* \"teste_flattened.sol\":1792:1793  2 */\n      0x02\n        /* \"teste_flattened.sol\":2501:2508  _status */\n      sload(0x01)\n        /* \"teste_flattened.sol\":2501:2520  _status != _ENTERED */\n      sub\n        /* \"teste_flattened.sol\":2493:2556  require(_status != _ENTERED, \"ReentrancyGuard: reentrant call\") */\n      tag_229\n      jumpi\n      mload(0x40)\n      0x08c379a000000000000000000000000000000000000000000000000000000000\n      dup2\n      mstore\n      0x04\n      add\n      tag_230\n      swap1\n      tag_231\n      jump\t// in\n    tag_230:\n      mload(0x40)\n      dup1\n      swap2\n      sub\n      swap1\n      revert\n    tag_229:\n        /* \"teste_flattened.sol\":1792:1793  2 */\n      0x02\n        /* \"teste_flattened.sol\":2631:2638  _status */\n      0x01\n        /* \"teste_flattened.sol\":2631:2649  _status = _ENTERED */\n      dup2\n      swap1\n      sstore\n      pop\n        /* \"teste_flattened.sol\":2369:2656  function _nonReentrantBefore() private {... */\n      jump\t// out\n        /* \"teste_flattened.sol\":2662:2871  function _nonReentrantAfter() private {... */\n    tag_127:\n        /* \"teste_flattened.sol\":1749:1750  1 */\n      0x01\n        /* \"teste_flattened.sol\":2842:2849  _status */\n      dup1\n        /* \"teste_flattened.sol\":2842:2864  _status = _NOT_ENTERED */\n      dup2\n      swap1\n      sstore\n      pop\n        /* \"teste_flattened.sol\":2662:2871  function _nonReentrantAfter() private {... */\n      jump\t// out\n        /* \"teste_flattened.sol\":7925:8055  function _checkOwner() internal view virtual {... */\n    tag_130:\n        /* \"teste_flattened.sol\":7999:8011  _msgSender() */\n      tag_234\n        /* \"teste_flattened.sol\":7999:8009  _msgSender */\n      tag_235\n        /* \"teste_flattened.sol\":7999:8011  _msgSender() */\n      jump\t// in\n    tag_234:\n        /* \"teste_flattened.sol\":7988:8011  owner() == _msgSender() */\n      0xffffffffffffffffffffffffffffffffffffffff\n      and\n        /* \"teste_flattened.sol\":7988:7995  owner() */\n      tag_236\n        /* \"teste_flattened.sol\":7988:7993  owner */\n      tag_62\n        /* \"teste_flattened.sol\":7988:7995  owner() */\n      jump\t// in\n    tag_236:\n        /* \"teste_flattened.sol\":7988:8011  owner() == _msgSender() */\n      0xffffffffffffffffffffffffffffffffffffffff\n      and\n      eq\n        /* \"teste_flattened.sol\":7980:8048  require(owner() == _msgSender(), \"Ownable: caller is not the owner\") */\n      tag_237\n      jumpi\n      mload(0x40)\n      0x08c379a000000000000000000000000000000000000000000000000000000000\n      dup2\n      mstore\n      0x04\n      add\n      tag_238\n      swap1\n      tag_239\n      jump\t// in\n    tag_238:\n      mload(0x40)\n      dup1\n      swap2\n      sub\n      swap1\n      revert\n    tag_237:\n        /* \"teste_flattened.sol\":7925:8055  function _checkOwner() internal view virtual {... */\n      jump\t// out\n        /* \"teste_flattened.sol\":6454:6571  function _unpause() internal virtual whenPaused {... */\n    tag_135:\n        /* \"teste_flattened.sol\":5507:5523  _requirePaused() */\n      tag_241\n        /* \"teste_flattened.sol\":5507:5521  _requirePaused */\n      tag_242\n        /* \"teste_flattened.sol\":5507:5523  _requirePaused() */\n      jump\t// in\n    tag_241:\n        /* \"teste_flattened.sol\":6522:6527  false */\n      0x00\n        /* \"teste_flattened.sol\":6512:6519  _paused */\n      0x02\n      0x00\n        /* \"teste_flattened.sol\":6512:6527  _paused = false */\n      0x0100\n      exp\n      dup2\n      sload\n      dup2\n      0xff\n      mul\n      not\n      and\n      swap1\n      dup4\n      iszero\n      iszero\n      mul\n      or\n      swap1\n      sstore\n      pop\n        /* \"teste_flattened.sol\":6542:6564  Unpaused(_msgSender()) */\n      0x5db9ee0a495bf2e6ff9c91a7834c1ba4fdd244a5e8aa4e537bd38aeae4b073aa\n        /* \"teste_flattened.sol\":6551:6563  _msgSender() */\n      tag_244\n        /* \"teste_flattened.sol\":6551:6561  _msgSender */\n      tag_235\n        /* \"teste_flattened.sol\":6551:6563  _msgSender() */\n      jump\t// in\n    tag_244:\n        /* \"teste_flattened.sol\":6542:6564  Unpaused(_msgSender()) */\n      mload(0x40)\n      tag_245\n      swap2\n      swap1\n      tag_64\n      jump\t// in\n    tag_245:\n      mload(0x40)\n      dup1\n      swap2\n      sub\n      swap1\n      log1\n        /* \"teste_flattened.sol\":6454:6571  function _unpause() internal virtual whenPaused {... */\n      jump\t// out\n        /* \"teste_flattened.sol\":8992:9179  function _transferOwnership(address newOwner) internal virtual {... */\n    tag_198:\n        /* \"teste_flattened.sol\":9065:9081  address oldOwner */\n      0x00\n        /* \"teste_flattened.sol\":9084:9090  _owner */\n      dup1\n      0x00\n      swap1\n      sload\n      swap1\n      0x0100\n      exp\n      swap1\n      div\n      0xffffffffffffffffffffffffffffffffffffffff\n      and\n        /* \"teste_flattened.sol\":9065:9090  address oldOwner = _owner */\n      swap1\n      pop\n        /* \"teste_flattened.sol\":9109:9117  newOwner */\n      dup2\n        /* \"teste_flattened.sol\":9100:9106  _owner */\n      0x00\n      dup1\n        /* \"teste_flattened.sol\":9100:9117  _owner = newOwner */\n      0x0100\n      exp\n      dup2\n      sload\n      dup2\n      0xffffffffffffffffffffffffffffffffffffffff\n      mul\n      not\n      and\n      swap1\n      dup4\n      0xffffffffffffffffffffffffffffffffffffffff\n      and\n      mul\n      or\n      swap1\n      sstore\n      pop\n        /* \"teste_flattened.sol\":9163:9171  newOwner */\n      dup2\n        /* \"teste_flattened.sol\":9132:9172  OwnershipTransferred(oldOwner, newOwner) */\n      0xffffffffffffffffffffffffffffffffffffffff\n      and\n        /* \"teste_flattened.sol\":9153:9161  oldOwner */\n      dup2\n        /* \"teste_flattened.sol\":9132:9172  OwnershipTransferred(oldOwner, newOwner) */\n      0xffffffffffffffffffffffffffffffffffffffff\n      and\n      0x8be0079c531659141344cd1fd0a4f28419497f9722a3daafe3b4186f6b6457e0\n      mload(0x40)\n      mload(0x40)\n      dup1\n      swap2\n      sub\n      swap1\n      log3\n        /* \"teste_flattened.sol\":9055:9179  {... */\n      pop\n        /* \"teste_flattened.sol\":8992:9179  function _transferOwnership(address newOwner) internal virtual {... */\n      pop\n      jump\t// out\n        /* \"teste_flattened.sol\":6207:6322  function _pause() internal virtual whenNotPaused {... */\n    tag_211:\n        /* \"teste_flattened.sol\":5260:5279  _requireNotPaused() */\n      tag_248\n        /* \"teste_flattened.sol\":5260:5277  _requireNotPaused */\n      tag_99\n        /* \"teste_flattened.sol\":5260:5279  _requireNotPaused() */\n      jump\t// in\n    tag_248:\n        /* \"teste_flattened.sol\":6276:6280  true */\n      0x01\n        /* \"teste_flattened.sol\":6266:6273  _paused */\n      0x02\n      0x00\n        /* \"teste_flattened.sol\":6266:6280  _paused = true */\n      0x0100\n      exp\n      dup2\n      sload\n      dup2\n      0xff\n      mul\n      not\n      and\n      swap1\n      dup4\n      iszero\n      iszero\n      mul\n      or\n      swap1\n      sstore\n      pop\n        /* \"teste_flattened.sol\":6295:6315  Paused(_msgSender()) */\n      0x62e78cea01bee320cd4e420270b5ea74000d11b0c9f74754ebdbfc544b05a258\n        /* \"teste_flattened.sol\":6302:6314  _msgSender() */\n      tag_250\n        /* \"teste_flattened.sol\":6302:6312  _msgSender */\n      tag_235\n        /* \"teste_flattened.sol\":6302:6314  _msgSender() */\n      jump\t// in\n    tag_250:\n        /* \"teste_flattened.sol\":6295:6315  Paused(_msgSender()) */\n      mload(0x40)\n      tag_251\n      swap2\n      swap1\n      tag_64\n      jump\t// in\n    tag_251:\n      mload(0x40)\n      dup1\n      swap2\n      sub\n      swap1\n      log1\n        /* \"teste_flattened.sol\":6207:6322  function _pause() internal virtual whenNotPaused {... */\n      jump\t// out\n        /* \"teste_flattened.sol\":3822:3918  function _msgSender() internal view virtual returns (address) {... */\n    tag_235:\n        /* \"teste_flattened.sol\":3875:3882  address */\n      0x00\n        /* \"teste_flattened.sol\":3901:3911  msg.sender */\n      caller\n        /* \"teste_flattened.sol\":3894:3911  return msg.sender */\n      swap1\n      pop\n        /* \"teste_flattened.sol\":3822:3918  function _msgSender() internal view virtual returns (address) {... */\n      swap1\n      jump\t// out\n        /* \"teste_flattened.sol\":5966:6072  function _requirePaused() internal view virtual {... */\n    tag_242:\n        /* \"teste_flattened.sol\":6032:6040  paused() */\n      tag_254\n        /* \"teste_flattened.sol\":6032:6038  paused */\n      tag_36\n        /* \"teste_flattened.sol\":6032:6040  paused() */\n      jump\t// in\n    tag_254:\n        /* \"teste_flattened.sol\":6024:6065  require(paused(), \"Pausable: not paused\") */\n      tag_255\n      jumpi\n      mload(0x40)\n      0x08c379a000000000000000000000000000000000000000000000000000000000\n      dup2\n      mstore\n      0x04\n      add\n      tag_256\n      swap1\n      tag_257\n      jump\t// in\n    tag_256:\n      mload(0x40)\n      dup1\n      swap2\n      sub\n      swap1\n      revert\n    tag_255:\n        /* \"teste_flattened.sol\":5966:6072  function _requirePaused() internal view virtual {... */\n      jump\t// out\n        /* \"#utility.yul\":88:205   */\n    tag_259:\n        /* \"#utility.yul\":197:198   */\n      0x00\n        /* \"#utility.yul\":194:195   */\n      dup1\n        /* \"#utility.yul\":187:199   */\n      revert\n        /* \"#utility.yul\":334:460   */\n    tag_261:\n        /* \"#utility.yul\":371:378   */\n      0x00\n        /* \"#utility.yul\":411:453   */\n      0xffffffffffffffffffffffffffffffffffffffff\n        /* \"#utility.yul\":404:409   */\n      dup3\n        /* \"#utility.yul\":400:454   */\n      and\n        /* \"#utility.yul\":389:454   */\n      swap1\n      pop\n        /* \"#utility.yul\":334:460   */\n      swap2\n      swap1\n      pop\n      jump\t// out\n        /* \"#utility.yul\":466:562   */\n    tag_262:\n        /* \"#utility.yul\":503:510   */\n      0x00\n        /* \"#utility.yul\":532:556   */\n      tag_310\n        /* \"#utility.yul\":550:555   */\n      dup3\n        /* \"#utility.yul\":532:556   */\n      tag_261\n      jump\t// in\n    tag_310:\n        /* \"#utility.yul\":521:556   */\n      swap1\n      pop\n        /* \"#utility.yul\":466:562   */\n      swap2\n      swap1\n      pop\n      jump\t// out\n        /* \"#utility.yul\":568:690   */\n    tag_263:\n        /* \"#utility.yul\":641:665   */\n      tag_312\n        /* \"#utility.yul\":659:664   */\n      dup2\n        /* \"#utility.yul\":641:665   */\n      tag_262\n      jump\t// in\n    tag_312:\n        /* \"#utility.yul\":634:639   */\n      dup2\n        /* \"#utility.yul\":631:666   */\n      eq\n        /* \"#utility.yul\":621:684   */\n      tag_313\n      jumpi\n        /* \"#utility.yul\":680:681   */\n      0x00\n        /* \"#utility.yul\":677:678   */\n      dup1\n        /* \"#utility.yul\":670:682   */\n      revert\n        /* \"#utility.yul\":621:684   */\n    tag_313:\n        /* \"#utility.yul\":568:690   */\n      pop\n      jump\t// out\n        /* \"#utility.yul\":696:835   */\n    tag_264:\n        /* \"#utility.yul\":742:747   */\n      0x00\n        /* \"#utility.yul\":780:786   */\n      dup2\n        /* \"#utility.yul\":767:787   */\n      calldataload\n        /* \"#utility.yul\":758:787   */\n      swap1\n      pop\n        /* \"#utility.yul\":796:829   */\n      tag_315\n        /* \"#utility.yul\":823:828   */\n      dup2\n        /* \"#utility.yul\":796:829   */\n      tag_263\n      jump\t// in\n    tag_315:\n        /* \"#utility.yul\":696:835   */\n      swap3\n      swap2\n      pop\n      pop\n      jump\t// out\n        /* \"#utility.yul\":841:918   */\n    tag_265:\n        /* \"#utility.yul\":878:885   */\n      0x00\n        /* \"#utility.yul\":907:912   */\n      dup2\n        /* \"#utility.yul\":896:912   */\n      swap1\n      pop\n        /* \"#utility.yul\":841:918   */\n      swap2\n      swap1\n      pop\n      jump\t// out\n        /* \"#utility.yul\":924:1046   */\n    tag_266:\n        /* \"#utility.yul\":997:1021   */\n      tag_318\n        /* \"#utility.yul\":1015:1020   */\n      dup2\n        /* \"#utility.yul\":997:1021   */\n      tag_265\n      jump\t// in\n    tag_318:\n        /* \"#utility.yul\":990:995   */\n      dup2\n        /* \"#utility.yul\":987:1022   */\n      eq\n        /* \"#utility.yul\":977:1040   */\n      tag_319\n      jumpi\n        /* \"#utility.yul\":1036:1037   */\n      0x00\n        /* \"#utility.yul\":1033:1034   */\n      dup1\n        /* \"#utility.yul\":1026:1038   */\n      revert\n        /* \"#utility.yul\":977:1040   */\n    tag_319:\n        /* \"#utility.yul\":924:1046   */\n      pop\n      jump\t// out\n        /* \"#utility.yul\":1052:1191   */\n    tag_267:\n        /* \"#utility.yul\":1098:1103   */\n      0x00\n        /* \"#utility.yul\":1136:1142   */\n      dup2\n        /* \"#utility.yul\":1123:1143   */\n      calldataload\n        /* \"#utility.yul\":1114:1143   */\n      swap1\n      pop\n        /* \"#utility.yul\":1152:1185   */\n      tag_321\n        /* \"#utility.yul\":1179:1184   */\n      dup2\n        /* \"#utility.yul\":1152:1185   */\n      tag_266\n      jump\t// in\n    tag_321:\n        /* \"#utility.yul\":1052:1191   */\n      swap3\n      swap2\n      pop\n      pop\n      jump\t// out\n        /* \"#utility.yul\":1197:1962   */\n    tag_25:\n        /* \"#utility.yul\":1283:1289   */\n      0x00\n        /* \"#utility.yul\":1291:1297   */\n      dup1\n        /* \"#utility.yul\":1299:1305   */\n      0x00\n        /* \"#utility.yul\":1307:1313   */\n      dup1\n        /* \"#utility.yul\":1356:1359   */\n      0x80\n        /* \"#utility.yul\":1344:1353   */\n      dup6\n        /* \"#utility.yul\":1335:1342   */\n      dup8\n        /* \"#utility.yul\":1331:1354   */\n      sub\n        /* \"#utility.yul\":1327:1360   */\n      slt\n        /* \"#utility.yul\":1324:1444   */\n      iszero\n      tag_323\n      jumpi\n        /* \"#utility.yul\":1363:1442   */\n      tag_324\n      tag_259\n      jump\t// in\n    tag_324:\n        /* \"#utility.yul\":1324:1444   */\n    tag_323:\n        /* \"#utility.yul\":1483:1484   */\n      0x00\n        /* \"#utility.yul\":1508:1561   */\n      tag_325\n        /* \"#utility.yul\":1553:1560   */\n      dup8\n        /* \"#utility.yul\":1544:1550   */\n      dup3\n        /* \"#utility.yul\":1533:1542   */\n      dup9\n        /* \"#utility.yul\":1529:1551   */\n      add\n        /* \"#utility.yul\":1508:1561   */\n      tag_264\n      jump\t// in\n    tag_325:\n        /* \"#utility.yul\":1498:1561   */\n      swap5\n      pop\n        /* \"#utility.yul\":1454:1571   */\n      pop\n        /* \"#utility.yul\":1610:1612   */\n      0x20\n        /* \"#utility.yul\":1636:1689   */\n      tag_326\n        /* \"#utility.yul\":1681:1688   */\n      dup8\n        /* \"#utility.yul\":1672:1678   */\n      dup3\n        /* \"#utility.yul\":1661:1670   */\n      dup9\n        /* \"#utility.yul\":1657:1679   */\n      add\n        /* \"#utility.yul\":1636:1689   */\n      tag_267\n      jump\t// in\n    tag_326:\n        /* \"#utility.yul\":1626:1689   */\n      swap4\n      pop\n        /* \"#utility.yul\":1581:1699   */\n      pop\n        /* \"#utility.yul\":1738:1740   */\n      0x40\n        /* \"#utility.yul\":1764:1817   */\n      tag_327\n        /* \"#utility.yul\":1809:1816   */\n      dup8\n        /* \"#utility.yul\":1800:1806   */\n      dup3\n        /* \"#utility.yul\":1789:1798   */\n      dup9\n        /* \"#utility.yul\":1785:1807   */\n      add\n        /* \"#utility.yul\":1764:1817   */\n      tag_267\n      jump\t// in\n    tag_327:\n        /* \"#utility.yul\":1754:1817   */\n      swap3\n      pop\n        /* \"#utility.yul\":1709:1827   */\n      pop\n        /* \"#utility.yul\":1866:1868   */\n      0x60\n        /* \"#utility.yul\":1892:1945   */\n      tag_328\n        /* \"#utility.yul\":1937:1944   */\n      dup8\n        /* \"#utility.yul\":1928:1934   */\n      dup3\n        /* \"#utility.yul\":1917:1926   */\n      dup9\n        /* \"#utility.yul\":1913:1935   */\n      add\n        /* \"#utility.yul\":1892:1945   */\n      tag_267\n      jump\t// in\n    tag_328:\n        /* \"#utility.yul\":1882:1945   */\n      swap2\n      pop\n        /* \"#utility.yul\":1837:1955   */\n      pop\n        /* \"#utility.yul\":1197:1962   */\n      swap3\n      swap6\n      swap2\n      swap5\n      pop\n      swap3\n      pop\n      jump\t// out\n        /* \"#utility.yul\":1968:2297   */\n    tag_32:\n        /* \"#utility.yul\":2027:2033   */\n      0x00\n        /* \"#utility.yul\":2076:2078   */\n      0x20\n        /* \"#utility.yul\":2064:2073   */\n      dup3\n        /* \"#utility.yul\":2055:2062   */\n      dup5\n        /* \"#utility.yul\":2051:2074   */\n      sub\n        /* \"#utility.yul\":2047:2079   */\n      slt\n        /* \"#utility.yul\":2044:2163   */\n      iszero\n      tag_330\n      jumpi\n        /* \"#utility.yul\":2082:2161   */\n      tag_331\n      tag_259\n      jump\t// in\n    tag_331:\n        /* \"#utility.yul\":2044:2163   */\n    tag_330:\n        /* \"#utility.yul\":2202:2203   */\n      0x00\n        /* \"#utility.yul\":2227:2280   */\n      tag_332\n        /* \"#utility.yul\":2272:2279   */\n      dup5\n        /* \"#utility.yul\":2263:2269   */\n      dup3\n        /* \"#utility.yul\":2252:2261   */\n      dup6\n        /* \"#utility.yul\":2248:2270   */\n      add\n        /* \"#utility.yul\":2227:2280   */\n      tag_267\n      jump\t// in\n    tag_332:\n        /* \"#utility.yul\":2217:2280   */\n      swap2\n      pop\n        /* \"#utility.yul\":2173:2290   */\n      pop\n        /* \"#utility.yul\":1968:2297   */\n      swap3\n      swap2\n      pop\n      pop\n      jump\t// out\n        /* \"#utility.yul\":2303:2393   */\n    tag_268:\n        /* \"#utility.yul\":2337:2344   */\n      0x00\n        /* \"#utility.yul\":2380:2385   */\n      dup2\n        /* \"#utility.yul\":2373:2386   */\n      iszero\n        /* \"#utility.yul\":2366:2387   */\n      iszero\n        /* \"#utility.yul\":2355:2387   */\n      swap1\n      pop\n        /* \"#utility.yul\":2303:2393   */\n      swap2\n      swap1\n      pop\n      jump\t// out\n        /* \"#utility.yul\":2399:2508   */\n    tag_269:\n        /* \"#utility.yul\":2480:2501   */\n      tag_335\n        /* \"#utility.yul\":2495:2500   */\n      dup2\n        /* \"#utility.yul\":2480:2501   */\n      tag_268\n      jump\t// in\n    tag_335:\n        /* \"#utility.yul\":2475:2478   */\n      dup3\n        /* \"#utility.yul\":2468:2502   */\n      mstore\n        /* \"#utility.yul\":2399:2508   */\n      pop\n      pop\n      jump\t// out\n        /* \"#utility.yul\":2514:2724   */\n    tag_38:\n        /* \"#utility.yul\":2601:2605   */\n      0x00\n        /* \"#utility.yul\":2639:2641   */\n      0x20\n        /* \"#utility.yul\":2628:2637   */\n      dup3\n        /* \"#utility.yul\":2624:2642   */\n      add\n        /* \"#utility.yul\":2616:2642   */\n      swap1\n      pop\n        /* \"#utility.yul\":2652:2717   */\n      tag_337\n        /* \"#utility.yul\":2714:2715   */\n      0x00\n        /* \"#utility.yul\":2703:2712   */\n      dup4\n        /* \"#utility.yul\":2699:2716   */\n      add\n        /* \"#utility.yul\":2690:2696   */\n      dup5\n        /* \"#utility.yul\":2652:2717   */\n      tag_269\n      jump\t// in\n    tag_337:\n        /* \"#utility.yul\":2514:2724   */\n      swap3\n      swap2\n      pop\n      pop\n      jump\t// out\n        /* \"#utility.yul\":2730:3204   */\n    tag_42:\n        /* \"#utility.yul\":2798:2804   */\n      0x00\n        /* \"#utility.yul\":2806:2812   */\n      dup1\n        /* \"#utility.yul\":2855:2857   */\n      0x40\n        /* \"#utility.yul\":2843:2852   */\n      dup4\n        /* \"#utility.yul\":2834:2841   */\n      dup6\n        /* \"#utility.yul\":2830:2853   */\n      sub\n        /* \"#utility.yul\":2826:2858   */\n      slt\n        /* \"#utility.yul\":2823:2942   */\n      iszero\n      tag_339\n      jumpi\n        /* \"#utility.yul\":2861:2940   */\n      tag_340\n      tag_259\n      jump\t// in\n    tag_340:\n        /* \"#utility.yul\":2823:2942   */\n    tag_339:\n        /* \"#utility.yul\":2981:2982   */\n      0x00\n        /* \"#utility.yul\":3006:3059   */\n      tag_341\n        /* \"#utility.yul\":3051:3058   */\n      dup6\n        /* \"#utility.yul\":3042:3048   */\n      dup3\n        /* \"#utility.yul\":3031:3040   */\n      dup7\n        /* \"#utility.yul\":3027:3049   */\n      add\n        /* \"#utility.yul\":3006:3059   */\n      tag_264\n      jump\t// in\n    tag_341:\n        /* \"#utility.yul\":2996:3059   */\n      swap3\n      pop\n        /* \"#utility.yul\":2952:3069   */\n      pop\n        /* \"#utility.yul\":3108:3110   */\n      0x20\n        /* \"#utility.yul\":3134:3187   */\n      tag_342\n        /* \"#utility.yul\":3179:3186   */\n      dup6\n        /* \"#utility.yul\":3170:3176   */\n      dup3\n        /* \"#utility.yul\":3159:3168   */\n      dup7\n        /* \"#utility.yul\":3155:3177   */\n      add\n        /* \"#utility.yul\":3134:3187   */\n      tag_264\n      jump\t// in\n    tag_342:\n        /* \"#utility.yul\":3124:3187   */\n      swap2\n      pop\n        /* \"#utility.yul\":3079:3197   */\n      pop\n        /* \"#utility.yul\":2730:3204   */\n      swap3\n      pop\n      swap3\n      swap1\n      pop\n      jump\t// out\n        /* \"#utility.yul\":3210:3684   */\n    tag_50:\n        /* \"#utility.yul\":3278:3284   */\n      0x00\n        /* \"#utility.yul\":3286:3292   */\n      dup1\n        /* \"#utility.yul\":3335:3337   */\n      0x40\n        /* \"#utility.yul\":3323:3332   */\n      dup4\n        /* \"#utility.yul\":3314:3321   */\n      dup6\n        /* \"#utility.yul\":3310:3333   */\n      sub\n        /* \"#utility.yul\":3306:3338   */\n      slt\n        /* \"#utility.yul\":3303:3422   */\n      iszero\n      tag_344\n      jumpi\n        /* \"#utility.yul\":3341:3420   */\n      tag_345\n      tag_259\n      jump\t// in\n    tag_345:\n        /* \"#utility.yul\":3303:3422   */\n    tag_344:\n        /* \"#utility.yul\":3461:3462   */\n      0x00\n        /* \"#utility.yul\":3486:3539   */\n      tag_346\n        /* \"#utility.yul\":3531:3538   */\n      dup6\n        /* \"#utility.yul\":3522:3528   */\n      dup3\n        /* \"#utility.yul\":3511:3520   */\n      dup7\n        /* \"#utility.yul\":3507:3529   */\n      add\n        /* \"#utility.yul\":3486:3539   */\n      tag_267\n      jump\t// in\n    tag_346:\n        /* \"#utility.yul\":3476:3539   */\n      swap3\n      pop\n        /* \"#utility.yul\":3432:3549   */\n      pop\n        /* \"#utility.yul\":3588:3590   */\n      0x20\n        /* \"#utility.yul\":3614:3667   */\n      tag_347\n        /* \"#utility.yul\":3659:3666   */\n      dup6\n        /* \"#utility.yul\":3650:3656   */\n      dup3\n        /* \"#utility.yul\":3639:3648   */\n      dup7\n        /* \"#utility.yul\":3635:3657   */\n      add\n        /* \"#utility.yul\":3614:3667   */\n      tag_267\n      jump\t// in\n    tag_347:\n        /* \"#utility.yul\":3604:3667   */\n      swap2\n      pop\n        /* \"#utility.yul\":3559:3677   */\n      pop\n        /* \"#utility.yul\":3210:3684   */\n      swap3\n      pop\n      swap3\n      swap1\n      pop\n      jump\t// out\n        /* \"#utility.yul\":3690:3808   */\n    tag_270:\n        /* \"#utility.yul\":3777:3801   */\n      tag_349\n        /* \"#utility.yul\":3795:3800   */\n      dup2\n        /* \"#utility.yul\":3777:3801   */\n      tag_265\n      jump\t// in\n    tag_349:\n        /* \"#utility.yul\":3772:3775   */\n      dup3\n        /* \"#utility.yul\":3765:3802   */\n      mstore\n        /* \"#utility.yul\":3690:3808   */\n      pop\n      pop\n      jump\t// out\n        /* \"#utility.yul\":3814:4036   */\n    tag_59:\n        /* \"#utility.yul\":3907:3911   */\n      0x00\n        /* \"#utility.yul\":3945:3947   */\n      0x20\n        /* \"#utility.yul\":3934:3943   */\n      dup3\n        /* \"#utility.yul\":3930:3948   */\n      add\n        /* \"#utility.yul\":3922:3948   */\n      swap1\n      pop\n        /* \"#utility.yul\":3958:4029   */\n      tag_351\n        /* \"#utility.yul\":4026:4027   */\n      0x00\n        /* \"#utility.yul\":4015:4024   */\n      dup4\n        /* \"#utility.yul\":4011:4028   */\n      add\n        /* \"#utility.yul\":4002:4008   */\n      dup5\n        /* \"#utility.yul\":3958:4029   */\n      tag_270\n      jump\t// in\n    tag_351:\n        /* \"#utility.yul\":3814:4036   */\n      swap3\n      swap2\n      pop\n      pop\n      jump\t// out\n        /* \"#utility.yul\":4042:4160   */\n    tag_271:\n        /* \"#utility.yul\":4129:4153   */\n      tag_353\n        /* \"#utility.yul\":4147:4152   */\n      dup2\n        /* \"#utility.yul\":4129:4153   */\n      tag_262\n      jump\t// in\n    tag_353:\n        /* \"#utility.yul\":4124:4127   */\n      dup3\n        /* \"#utility.yul\":4117:4154   */\n      mstore\n        /* \"#utility.yul\":4042:4160   */\n      pop\n      pop\n      jump\t// out\n        /* \"#utility.yul\":4166:4388   */\n    tag_64:\n        /* \"#utility.yul\":4259:4263   */\n      0x00\n        /* \"#utility.yul\":4297:4299   */\n      0x20\n        /* \"#utility.yul\":4286:4295   */\n      dup3\n        /* \"#utility.yul\":4282:4300   */\n      add\n        /* \"#utility.yul\":4274:4300   */\n      swap1\n      pop\n        /* \"#utility.yul\":4310:4381   */\n      tag_355\n        /* \"#utility.yul\":4378:4379   */\n      0x00\n        /* \"#utility.yul\":4367:4376   */\n      dup4\n        /* \"#utility.yul\":4363:4380   */\n      add\n        /* \"#utility.yul\":4354:4360   */\n      dup5\n        /* \"#utility.yul\":4310:4381   */\n      tag_271\n      jump\t// in\n    tag_355:\n        /* \"#utility.yul\":4166:4388   */\n      swap3\n      swap2\n      pop\n      pop\n      jump\t// out\n        /* \"#utility.yul\":4394:5058   */\n    tag_82:\n        /* \"#utility.yul\":4599:4603   */\n      0x00\n        /* \"#utility.yul\":4637:4640   */\n      0xa0\n        /* \"#utility.yul\":4626:4635   */\n      dup3\n        /* \"#utility.yul\":4622:4641   */\n      add\n        /* \"#utility.yul\":4614:4641   */\n      swap1\n      pop\n        /* \"#utility.yul\":4651:4722   */\n      tag_357\n        /* \"#utility.yul\":4719:4720   */\n      0x00\n        /* \"#utility.yul\":4708:4717   */\n      dup4\n        /* \"#utility.yul\":4704:4721   */\n      add\n        /* \"#utility.yul\":4695:4701   */\n      dup9\n        /* \"#utility.yul\":4651:4722   */\n      tag_271\n      jump\t// in\n    tag_357:\n        /* \"#utility.yul\":4732:4804   */\n      tag_358\n        /* \"#utility.yul\":4800:4802   */\n      0x20\n        /* \"#utility.yul\":4789:4798   */\n      dup4\n        /* \"#utility.yul\":4785:4803   */\n      add\n        /* \"#utility.yul\":4776:4782   */\n      dup8\n        /* \"#utility.yul\":4732:4804   */\n      tag_270\n      jump\t// in\n    tag_358:\n        /* \"#utility.yul\":4814:4886   */\n      tag_359\n        /* \"#utility.yul\":4882:4884   */\n      0x40\n        /* \"#utility.yul\":4871:4880   */\n      dup4\n        /* \"#utility.yul\":4867:4885   */\n      add\n        /* \"#utility.yul\":4858:4864   */\n      dup7\n        /* \"#utility.yul\":4814:4886   */\n      tag_271\n      jump\t// in\n    tag_359:\n        /* \"#utility.yul\":4896:4968   */\n      tag_360\n        /* \"#utility.yul\":4964:4966   */\n      0x60\n        /* \"#utility.yul\":4953:4962   */\n      dup4\n        /* \"#utility.yul\":4949:4967   */\n      add\n        /* \"#utility.yul\":4940:4946   */\n      dup6\n        /* \"#utility.yul\":4896:4968   */\n      tag_270\n      jump\t// in\n    tag_360:\n        /* \"#utility.yul\":4978:5051   */\n      tag_361\n        /* \"#utility.yul\":5046:5049   */\n      0x80\n        /* \"#utility.yul\":5035:5044   */\n      dup4\n        /* \"#utility.yul\":5031:5050   */\n      add\n        /* \"#utility.yul\":5022:5028   */\n      dup5\n        /* \"#utility.yul\":4978:5051   */\n      tag_270\n      jump\t// in\n    tag_361:\n        /* \"#utility.yul\":4394:5058   */\n      swap7\n      swap6\n      pop\n      pop\n      pop\n      pop\n      pop\n      pop\n      jump\t// out\n        /* \"#utility.yul\":5064:5393   */\n    tag_95:\n        /* \"#utility.yul\":5123:5129   */\n      0x00\n        /* \"#utility.yul\":5172:5174   */\n      0x20\n        /* \"#utility.yul\":5160:5169   */\n      dup3\n        /* \"#utility.yul\":5151:5158   */\n      dup5\n        /* \"#utility.yul\":5147:5170   */\n      sub\n        /* \"#utility.yul\":5143:5175   */\n      slt\n        /* \"#utility.yul\":5140:5259   */\n      iszero\n      tag_363\n      jumpi\n        /* \"#utility.yul\":5178:5257   */\n      tag_364\n      tag_259\n      jump\t// in\n    tag_364:\n        /* \"#utility.yul\":5140:5259   */\n    tag_363:\n        /* \"#utility.yul\":5298:5299   */\n      0x00\n        /* \"#utility.yul\":5323:5376   */\n      tag_365\n        /* \"#utility.yul\":5368:5375   */\n      dup5\n        /* \"#utility.yul\":5359:5365   */\n      dup3\n        /* \"#utility.yul\":5348:5357   */\n      dup6\n        /* \"#utility.yul\":5344:5366   */\n      add\n        /* \"#utility.yul\":5323:5376   */\n      tag_264\n      jump\t// in\n    tag_365:\n        /* \"#utility.yul\":5313:5376   */\n      swap2\n      pop\n        /* \"#utility.yul\":5269:5386   */\n      pop\n        /* \"#utility.yul\":5064:5393   */\n      swap3\n      swap2\n      pop\n      pop\n      jump\t// out\n        /* \"#utility.yul\":5399:5568   */\n    tag_272:\n        /* \"#utility.yul\":5483:5494   */\n      0x00\n        /* \"#utility.yul\":5517:5523   */\n      dup3\n        /* \"#utility.yul\":5512:5515   */\n      dup3\n        /* \"#utility.yul\":5505:5524   */\n      mstore\n        /* \"#utility.yul\":5557:5561   */\n      0x20\n        /* \"#utility.yul\":5552:5555   */\n      dup3\n        /* \"#utility.yul\":5548:5562   */\n      add\n        /* \"#utility.yul\":5533:5562   */\n      swap1\n      pop\n        /* \"#utility.yul\":5399:5568   */\n      swap3\n      swap2\n      pop\n      pop\n      jump\t// out\n        /* \"#utility.yul\":5574:5756   */\n    tag_273:\n        /* \"#utility.yul\":5714:5748   */\n      0x5072696365206d7573742062652067726561746572207468616e207a65726f2e\n        /* \"#utility.yul\":5710:5711   */\n      0x00\n        /* \"#utility.yul\":5702:5708   */\n      dup3\n        /* \"#utility.yul\":5698:5712   */\n      add\n        /* \"#utility.yul\":5691:5749   */\n      mstore\n        /* \"#utility.yul\":5574:5756   */\n      pop\n      jump\t// out\n        /* \"#utility.yul\":5762:6128   */\n    tag_274:\n        /* \"#utility.yul\":5904:5907   */\n      0x00\n        /* \"#utility.yul\":5925:5992   */\n      tag_369\n        /* \"#utility.yul\":5989:5991   */\n      0x20\n        /* \"#utility.yul\":5984:5987   */\n      dup4\n        /* \"#utility.yul\":5925:5992   */\n      tag_272\n      jump\t// in\n    tag_369:\n        /* \"#utility.yul\":5918:5992   */\n      swap2\n      pop\n        /* \"#utility.yul\":6001:6094   */\n      tag_370\n        /* \"#utility.yul\":6090:6093   */\n      dup3\n        /* \"#utility.yul\":6001:6094   */\n      tag_273\n      jump\t// in\n    tag_370:\n        /* \"#utility.yul\":6119:6121   */\n      0x20\n        /* \"#utility.yul\":6114:6117   */\n      dup3\n        /* \"#utility.yul\":6110:6122   */\n      add\n        /* \"#utility.yul\":6103:6122   */\n      swap1\n      pop\n        /* \"#utility.yul\":5762:6128   */\n      swap2\n      swap1\n      pop\n      jump\t// out\n        /* \"#utility.yul\":6134:6553   */\n    tag_106:\n        /* \"#utility.yul\":6300:6304   */\n      0x00\n        /* \"#utility.yul\":6338:6340   */\n      0x20\n        /* \"#utility.yul\":6327:6336   */\n      dup3\n        /* \"#utility.yul\":6323:6341   */\n      add\n        /* \"#utility.yul\":6315:6341   */\n      swap1\n      pop\n        /* \"#utility.yul\":6387:6396   */\n      dup2\n        /* \"#utility.yul\":6381:6385   */\n      dup2\n        /* \"#utility.yul\":6377:6397   */\n      sub\n        /* \"#utility.yul\":6373:6374   */\n      0x00\n        /* \"#utility.yul\":6362:6371   */\n      dup4\n        /* \"#utility.yul\":6358:6375   */\n      add\n        /* \"#utility.yul\":6351:6398   */\n      mstore\n        /* \"#utility.yul\":6415:6546   */\n      tag_372\n        /* \"#utility.yul\":6541:6545   */\n      dup2\n        /* \"#utility.yul\":6415:6546   */\n      tag_274\n      jump\t// in\n    tag_372:\n        /* \"#utility.yul\":6407:6546   */\n      swap1\n      pop\n        /* \"#utility.yul\":6134:6553   */\n      swap2\n      swap1\n      pop\n      jump\t// out\n        /* \"#utility.yul\":6559:6781   */\n    tag_275:\n        /* \"#utility.yul\":6699:6733   */\n      0x446561646c696e65206d7573742062652067726561746572207468616e207a65\n        /* \"#utility.yul\":6695:6696   */\n      0x00\n        /* \"#utility.yul\":6687:6693   */\n      dup3\n        /* \"#utility.yul\":6683:6697   */\n      add\n        /* \"#utility.yul\":6676:6734   */\n      mstore\n        /* \"#utility.yul\":6768:6773   */\n      0x726f2e0000000000000000000000000000000000000000000000000000000000\n        /* \"#utility.yul\":6763:6765   */\n      0x20\n        /* \"#utility.yul\":6755:6761   */\n      dup3\n        /* \"#utility.yul\":6751:6766   */\n      add\n        /* \"#utility.yul\":6744:6774   */\n      mstore\n        /* \"#utility.yul\":6559:6781   */\n      pop\n      jump\t// out\n        /* \"#utility.yul\":6787:7153   */\n    tag_276:\n        /* \"#utility.yul\":6929:6932   */\n      0x00\n        /* \"#utility.yul\":6950:7017   */\n      tag_375\n        /* \"#utility.yul\":7014:7016   */\n      0x23\n        /* \"#utility.yul\":7009:7012   */\n      dup4\n        /* \"#utility.yul\":6950:7017   */\n      tag_272\n      jump\t// in\n    tag_375:\n        /* \"#utility.yul\":6943:7017   */\n      swap2\n      pop\n        /* \"#utility.yul\":7026:7119   */\n      tag_376\n        /* \"#utility.yul\":7115:7118   */\n      dup3\n        /* \"#utility.yul\":7026:7119   */\n      tag_275\n      jump\t// in\n    tag_376:\n        /* \"#utility.yul\":7144:7146   */\n      0x40\n        /* \"#utility.yul\":7139:7142   */\n      dup3\n        /* \"#utility.yul\":7135:7147   */\n      add\n        /* \"#utility.yul\":7128:7147   */\n      swap1\n      pop\n        /* \"#utility.yul\":6787:7153   */\n      swap2\n      swap1\n      pop\n      jump\t// out\n        /* \"#utility.yul\":7159:7578   */\n    tag_109:\n        /* \"#utility.yul\":7325:7329   */\n      0x00\n        /* \"#utility.yul\":7363:7365   */\n      0x20\n        /* \"#utility.yul\":7352:7361   */\n      dup3\n        /* \"#utility.yul\":7348:7366   */\n      add\n        /* \"#utility.yul\":7340:7366   */\n      swap1\n      pop\n        /* \"#utility.yul\":7412:7421   */\n      dup2\n        /* \"#utility.yul\":7406:7410   */\n      dup2\n        /* \"#utility.yul\":7402:7422   */\n      sub\n        /* \"#utility.yul\":7398:7399   */\n      0x00\n        /* \"#utility.yul\":7387:7396   */\n      dup4\n        /* \"#utility.yul\":7383:7400   */\n      add\n        /* \"#utility.yul\":7376:7423   */\n      mstore\n        /* \"#utility.yul\":7440:7571   */\n      tag_378\n        /* \"#utility.yul\":7566:7570   */\n      dup2\n        /* \"#utility.yul\":7440:7571   */\n      tag_276\n      jump\t// in\n    tag_378:\n        /* \"#utility.yul\":7432:7571   */\n      swap1\n      pop\n        /* \"#utility.yul\":7159:7578   */\n      swap2\n      swap1\n      pop\n      jump\t// out\n        /* \"#utility.yul\":7584:7727   */\n    tag_277:\n        /* \"#utility.yul\":7641:7646   */\n      0x00\n        /* \"#utility.yul\":7672:7678   */\n      dup2\n        /* \"#utility.yul\":7666:7679   */\n      mload\n        /* \"#utility.yul\":7657:7679   */\n      swap1\n      pop\n        /* \"#utility.yul\":7688:7721   */\n      tag_380\n        /* \"#utility.yul\":7715:7720   */\n      dup2\n        /* \"#utility.yul\":7688:7721   */\n      tag_263\n      jump\t// in\n    tag_380:\n        /* \"#utility.yul\":7584:7727   */\n      swap3\n      swap2\n      pop\n      pop\n      jump\t// out\n        /* \"#utility.yul\":7733:8084   */\n    tag_114:\n        /* \"#utility.yul\":7803:7809   */\n      0x00\n        /* \"#utility.yul\":7852:7854   */\n      0x20\n        /* \"#utility.yul\":7840:7849   */\n      dup3\n        /* \"#utility.yul\":7831:7838   */\n      dup5\n        /* \"#utility.yul\":7827:7850   */\n      sub\n        /* \"#utility.yul\":7823:7855   */\n      slt\n        /* \"#utility.yul\":7820:7939   */\n      iszero\n      tag_382\n      jumpi\n        /* \"#utility.yul\":7858:7937   */\n      tag_383\n      tag_259\n      jump\t// in\n    tag_383:\n        /* \"#utility.yul\":7820:7939   */\n    tag_382:\n        /* \"#utility.yul\":7978:7979   */\n      0x00\n        /* \"#utility.yul\":8003:8067   */\n      tag_384\n        /* \"#utility.yul\":8059:8066   */\n      dup5\n        /* \"#utility.yul\":8050:8056   */\n      dup3\n        /* \"#utility.yul\":8039:8048   */\n      dup6\n        /* \"#utility.yul\":8035:8057   */\n      add\n        /* \"#utility.yul\":8003:8067   */\n      tag_277\n      jump\t// in\n    tag_384:\n        /* \"#utility.yul\":7993:8067   */\n      swap2\n      pop\n        /* \"#utility.yul\":7949:8077   */\n      pop\n        /* \"#utility.yul\":7733:8084   */\n      swap3\n      swap2\n      pop\n      pop\n      jump\t// out\n        /* \"#utility.yul\":8090:8272   */\n    tag_278:\n        /* \"#utility.yul\":8230:8264   */\n      0x596f75206d757374206f776e20746865204e465420746f206c6973742069742e\n        /* \"#utility.yul\":8226:8227   */\n      0x00\n        /* \"#utility.yul\":8218:8224   */\n      dup3\n        /* \"#utility.yul\":8214:8228   */\n      add\n        /* \"#utility.yul\":8207:8265   */\n      mstore\n        /* \"#utility.yul\":8090:8272   */\n      pop\n      jump\t// out\n        /* \"#utility.yul\":8278:8644   */\n    tag_279:\n        /* \"#utility.yul\":8420:8423   */\n      0x00\n        /* \"#utility.yul\":8441:8508   */\n      tag_387\n        /* \"#utility.yul\":8505:8507   */\n      0x20\n        /* \"#utility.yul\":8500:8503   */\n      dup4\n        /* \"#utility.yul\":8441:8508   */\n      tag_272\n      jump\t// in\n    tag_387:\n        /* \"#utility.yul\":8434:8508   */\n      swap2\n      pop\n        /* \"#utility.yul\":8517:8610   */\n      tag_388\n        /* \"#utility.yul\":8606:8609   */\n      dup3\n        /* \"#utility.yul\":8517:8610   */\n      tag_278\n      jump\t// in\n    tag_388:\n        /* \"#utility.yul\":8635:8637   */\n      0x20\n        /* \"#utility.yul\":8630:8633   */\n      dup3\n        /* \"#utility.yul\":8626:8638   */\n      add\n        /* \"#utility.yul\":8619:8638   */\n      swap1\n      pop\n        /* \"#utility.yul\":8278:8644   */\n      swap2\n      swap1\n      pop\n      jump\t// out\n        /* \"#utility.yul\":8650:9069   */\n    tag_117:\n        /* \"#utility.yul\":8816:8820   */\n      0x00\n        /* \"#utility.yul\":8854:8856   */\n      0x20\n        /* \"#utility.yul\":8843:8852   */\n      dup3\n        /* \"#utility.yul\":8839:8857   */\n      add\n        /* \"#utility.yul\":8831:8857   */\n      swap1\n      pop\n        /* \"#utility.yul\":8903:8912   */\n      dup2\n        /* \"#utility.yul\":8897:8901   */\n      dup2\n        /* \"#utility.yul\":8893:8913   */\n      sub\n        /* \"#utility.yul\":8889:8890   */\n      0x00\n        /* \"#utility.yul\":8878:8887   */\n      dup4\n        /* \"#utility.yul\":8874:8891   */\n      add\n        /* \"#utility.yul\":8867:8914   */\n      mstore\n        /* \"#utility.yul\":8931:9062   */\n      tag_390\n        /* \"#utility.yul\":9057:9061   */\n      dup2\n        /* \"#utility.yul\":8931:9062   */\n      tag_279\n      jump\t// in\n    tag_390:\n        /* \"#utility.yul\":8923:9062   */\n      swap1\n      pop\n        /* \"#utility.yul\":8650:9069   */\n      swap2\n      swap1\n      pop\n      jump\t// out\n        /* \"#utility.yul\":9075:9255   */\n    tag_280:\n        /* \"#utility.yul\":9123:9200   */\n      0x4e487b7100000000000000000000000000000000000000000000000000000000\n        /* \"#utility.yul\":9120:9121   */\n      0x00\n        /* \"#utility.yul\":9113:9201   */\n      mstore\n        /* \"#utility.yul\":9220:9224   */\n      0x11\n        /* \"#utility.yul\":9217:9218   */\n      0x04\n        /* \"#utility.yul\":9210:9225   */\n      mstore\n        /* \"#utility.yul\":9244:9248   */\n      0x24\n        /* \"#utility.yul\":9241:9242   */\n      0x00\n        /* \"#utility.yul\":9234:9249   */\n      revert\n        /* \"#utility.yul\":9261:9452   */\n    tag_119:\n        /* \"#utility.yul\":9301:9304   */\n      0x00\n        /* \"#utility.yul\":9320:9340   */\n      tag_393\n        /* \"#utility.yul\":9338:9339   */\n      dup3\n        /* \"#utility.yul\":9320:9340   */\n      tag_265\n      jump\t// in\n    tag_393:\n        /* \"#utility.yul\":9315:9340   */\n      swap2\n      pop\n        /* \"#utility.yul\":9354:9374   */\n      tag_394\n        /* \"#utility.yul\":9372:9373   */\n      dup4\n        /* \"#utility.yul\":9354:9374   */\n      tag_265\n      jump\t// in\n    tag_394:\n        /* \"#utility.yul\":9349:9374   */\n      swap3\n      pop\n        /* \"#utility.yul\":9397:9398   */\n      dup3\n        /* \"#utility.yul\":9394:9395   */\n      dup3\n        /* \"#utility.yul\":9390:9399   */\n      add\n        /* \"#utility.yul\":9383:9399   */\n      swap1\n      pop\n        /* \"#utility.yul\":9418:9421   */\n      dup1\n        /* \"#utility.yul\":9415:9416   */\n      dup3\n        /* \"#utility.yul\":9412:9422   */\n      gt\n        /* \"#utility.yul\":9409:9445   */\n      iszero\n      tag_395\n      jumpi\n        /* \"#utility.yul\":9425:9443   */\n      tag_396\n      tag_280\n      jump\t// in\n    tag_396:\n        /* \"#utility.yul\":9409:9445   */\n    tag_395:\n        /* \"#utility.yul\":9261:9452   */\n      swap3\n      swap2\n      pop\n      pop\n      jump\t// out\n        /* \"#utility.yul\":9458:9900   */\n    tag_123:\n        /* \"#utility.yul\":9607:9611   */\n      0x00\n        /* \"#utility.yul\":9645:9647   */\n      0x60\n        /* \"#utility.yul\":9634:9643   */\n      dup3\n        /* \"#utility.yul\":9630:9648   */\n      add\n        /* \"#utility.yul\":9622:9648   */\n      swap1\n      pop\n        /* \"#utility.yul\":9658:9729   */\n      tag_398\n        /* \"#utility.yul\":9726:9727   */\n      0x00\n        /* \"#utility.yul\":9715:9724   */\n      dup4\n        /* \"#utility.yul\":9711:9728   */\n      add\n        /* \"#utility.yul\":9702:9708   */\n      dup7\n        /* \"#utility.yul\":9658:9729   */\n      tag_270\n      jump\t// in\n    tag_398:\n        /* \"#utility.yul\":9739:9811   */\n      tag_399\n        /* \"#utility.yul\":9807:9809   */\n      0x20\n        /* \"#utility.yul\":9796:9805   */\n      dup4\n        /* \"#utility.yul\":9792:9810   */\n      add\n        /* \"#utility.yul\":9783:9789   */\n      dup6\n        /* \"#utility.yul\":9739:9811   */\n      tag_270\n      jump\t// in\n    tag_399:\n        /* \"#utility.yul\":9821:9893   */\n      tag_400\n        /* \"#utility.yul\":9889:9891   */\n      0x40\n        /* \"#utility.yul\":9878:9887   */\n      dup4\n        /* \"#utility.yul\":9874:9892   */\n      add\n        /* \"#utility.yul\":9865:9871   */\n      dup5\n        /* \"#utility.yul\":9821:9893   */\n      tag_270\n      jump\t// in\n    tag_400:\n        /* \"#utility.yul\":9458:9900   */\n      swap5\n      swap4\n      pop\n      pop\n      pop\n      pop\n      jump\t// out\n        /* \"#utility.yul\":9906:10139   */\n    tag_125:\n        /* \"#utility.yul\":9945:9948   */\n      0x00\n        /* \"#utility.yul\":9968:9992   */\n      tag_402\n        /* \"#utility.yul\":9986:9991   */\n      dup3\n        /* \"#utility.yul\":9968:9992   */\n      tag_265\n      jump\t// in\n    tag_402:\n        /* \"#utility.yul\":9959:9992   */\n      swap2\n      pop\n        /* \"#utility.yul\":10014:10080   */\n      0xffffffffffffffffffffffffffffffffffffffffffffffffffffffffffffffff\n        /* \"#utility.yul\":10007:10012   */\n      dup3\n        /* \"#utility.yul\":10004:10081   */\n      sub\n        /* \"#utility.yul\":10001:10104   */\n      tag_403\n      jumpi\n        /* \"#utility.yul\":10084:10102   */\n      tag_404\n      tag_280\n      jump\t// in\n    tag_404:\n        /* \"#utility.yul\":10001:10104   */\n    tag_403:\n        /* \"#utility.yul\":10131:10132   */\n      0x01\n        /* \"#utility.yul\":10124:10129   */\n      dup3\n        /* \"#utility.yul\":10120:10133   */\n      add\n        /* \"#utility.yul\":10113:10133   */\n      swap1\n      pop\n        /* \"#utility.yul\":9906:10139   */\n      swap2\n      swap1\n      pop\n      jump\t// out\n        /* \"#utility.yul\":10145:10369   */\n    tag_281:\n        /* \"#utility.yul\":10285:10319   */\n      0x53656e742076616c7565206d7573742062652067726561746572207468616e20\n        /* \"#utility.yul\":10281:10282   */\n      0x00\n        /* \"#utility.yul\":10273:10279   */\n      dup3\n        /* \"#utility.yul\":10269:10283   */\n      add\n        /* \"#utility.yul\":10262:10320   */\n      mstore\n        /* \"#utility.yul\":10354:10361   */\n      0x7a65726f2e000000000000000000000000000000000000000000000000000000\n        /* \"#utility.yul\":10349:10351   */\n      0x20\n        /* \"#utility.yul\":10341:10347   */\n      dup3\n        /* \"#utility.yul\":10337:10352   */\n      add\n        /* \"#utility.yul\":10330:10362   */\n      mstore\n        /* \"#utility.yul\":10145:10369   */\n      pop\n      jump\t// out\n        /* \"#utility.yul\":10375:10741   */\n    tag_282:\n        /* \"#utility.yul\":10517:10520   */\n      0x00\n        /* \"#utility.yul\":10538:10605   */\n      tag_407\n        /* \"#utility.yul\":10602:10604   */\n      0x25\n        /* \"#utility.yul\":10597:10600   */\n      dup4\n        /* \"#utility.yul\":10538:10605   */\n      tag_272\n      jump\t// in\n    tag_407:\n        /* \"#utility.yul\":10531:10605   */\n      swap2\n      pop\n        /* \"#utility.yul\":10614:10707   */\n      tag_408\n        /* \"#utility.yul\":10703:10706   */\n      dup3\n        /* \"#utility.yul\":10614:10707   */\n      tag_281\n      jump\t// in\n    tag_408:\n        /* \"#utility.yul\":10732:10734   */\n      0x40\n        /* \"#utility.yul\":10727:10730   */\n      dup3\n        /* \"#utility.yul\":10723:10735   */\n      add\n        /* \"#utility.yul\":10716:10735   */\n      swap1\n      pop\n        /* \"#utility.yul\":10375:10741   */\n      swap2\n      swap1\n      pop\n      jump\t// out\n        /* \"#utility.yul\":10747:11166   */\n    tag_144:\n        /* \"#utility.yul\":10913:10917   */\n      0x00\n        /* \"#utility.yul\":10951:10953   */\n      0x20\n        /* \"#utility.yul\":10940:10949   */\n      dup3\n        /* \"#utility.yul\":10936:10954   */\n      add\n        /* \"#utility.yul\":10928:10954   */\n      swap1\n      pop\n        /* \"#utility.yul\":11000:11009   */\n      dup2\n        /* \"#utility.yul\":10994:10998   */\n      dup2\n        /* \"#utility.yul\":10990:11010   */\n      sub\n        /* \"#utility.yul\":10986:10987   */\n      0x00\n        /* \"#utility.yul\":10975:10984   */\n      dup4\n        /* \"#utility.yul\":10971:10988   */\n      add\n        /* \"#utility.yul\":10964:11011   */\n      mstore\n        /* \"#utility.yul\":11028:11159   */\n      tag_410\n        /* \"#utility.yul\":11154:11158   */\n      dup2\n        /* \"#utility.yul\":11028:11159   */\n      tag_282\n      jump\t// in\n    tag_410:\n        /* \"#utility.yul\":11020:11159   */\n      swap1\n      pop\n        /* \"#utility.yul\":10747:11166   */\n      swap2\n      swap1\n      pop\n      jump\t// out\n        /* \"#utility.yul\":11172:11345   */\n    tag_283:\n        /* \"#utility.yul\":11312:11337   */\n      0x4c697374696e6720646f6573206e6f742065786973742e000000000000000000\n        /* \"#utility.yul\":11308:11309   */\n      0x00\n        /* \"#utility.yul\":11300:11306   */\n      dup3\n        /* \"#utility.yul\":11296:11310   */\n      add\n        /* \"#utility.yul\":11289:11338   */\n      mstore\n        /* \"#utility.yul\":11172:11345   */\n      pop\n      jump\t// out\n        /* \"#utility.yul\":11351:11717   */\n    tag_284:\n        /* \"#utility.yul\":11493:11496   */\n      0x00\n        /* \"#utility.yul\":11514:11581   */\n      tag_413\n        /* \"#utility.yul\":11578:11580   */\n      0x17\n        /* \"#utility.yul\":11573:11576   */\n      dup4\n        /* \"#utility.yul\":11514:11581   */\n      tag_272\n      jump\t// in\n    tag_413:\n        /* \"#utility.yul\":11507:11581   */\n      swap2\n      pop\n        /* \"#utility.yul\":11590:11683   */\n      tag_414\n        /* \"#utility.yul\":11679:11682   */\n      dup3\n        /* \"#utility.yul\":11590:11683   */\n      tag_283\n      jump\t// in\n    tag_414:\n        /* \"#utility.yul\":11708:11710   */\n      0x20\n        /* \"#utility.yul\":11703:11706   */\n      dup3\n        /* \"#utility.yul\":11699:11711   */\n      add\n        /* \"#utility.yul\":11692:11711   */\n      swap1\n      pop\n        /* \"#utility.yul\":11351:11717   */\n      swap2\n      swap1\n      pop\n      jump\t// out\n        /* \"#utility.yul\":11723:12142   */\n    tag_147:\n        /* \"#utility.yul\":11889:11893   */\n      0x00\n        /* \"#utility.yul\":11927:11929   */\n      0x20\n        /* \"#utility.yul\":11916:11925   */\n      dup3\n        /* \"#utility.yul\":11912:11930   */\n      add\n        /* \"#utility.yul\":11904:11930   */\n      swap1\n      pop\n        /* \"#utility.yul\":11976:11985   */\n      dup2\n        /* \"#utility.yul\":11970:11974   */\n      dup2\n        /* \"#utility.yul\":11966:11986   */\n      sub\n        /* \"#utility.yul\":11962:11963   */\n      0x00\n        /* \"#utility.yul\":11951:11960   */\n      dup4\n        /* \"#utility.yul\":11947:11964   */\n      add\n        /* \"#utility.yul\":11940:11987   */\n      mstore\n        /* \"#utility.yul\":12004:12135   */\n      tag_416\n        /* \"#utility.yul\":12130:12134   */\n      dup2\n        /* \"#utility.yul\":12004:12135   */\n      tag_284\n      jump\t// in\n    tag_416:\n        /* \"#utility.yul\":11996:12135   */\n      swap1\n      pop\n        /* \"#utility.yul\":11723:12142   */\n      swap2\n      swap1\n      pop\n      jump\t// out\n        /* \"#utility.yul\":12148:12323   */\n    tag_285:\n        /* \"#utility.yul\":12288:12315   */\n      0x54686973206c697374696e672068617320657870697265642e00000000000000\n        /* \"#utility.yul\":12284:12285   */\n      0x00\n        /* \"#utility.yul\":12276:12282   */\n      dup3\n        /* \"#utility.yul\":12272:12286   */\n      add\n        /* \"#utility.yul\":12265:12316   */\n      mstore\n        /* \"#utility.yul\":12148:12323   */\n      pop\n      jump\t// out\n        /* \"#utility.yul\":12329:12695   */\n    tag_286:\n        /* \"#utility.yul\":12471:12474   */\n      0x00\n        /* \"#utility.yul\":12492:12559   */\n      tag_419\n        /* \"#utility.yul\":12556:12558   */\n      0x19\n        /* \"#utility.yul\":12551:12554   */\n      dup4\n        /* \"#utility.yul\":12492:12559   */\n      tag_272\n      jump\t// in\n    tag_419:\n        /* \"#utility.yul\":12485:12559   */\n      swap2\n      pop\n        /* \"#utility.yul\":12568:12661   */\n      tag_420\n        /* \"#utility.yul\":12657:12660   */\n      dup3\n        /* \"#utility.yul\":12568:12661   */\n      tag_285\n      jump\t// in\n    tag_420:\n        /* \"#utility.yul\":12686:12688   */\n      0x20\n        /* \"#utility.yul\":12681:12684   */\n      dup3\n        /* \"#utility.yul\":12677:12689   */\n      add\n        /* \"#utility.yul\":12670:12689   */\n      swap1\n      pop\n        /* \"#utility.yul\":12329:12695   */\n      swap2\n      swap1\n      pop\n      jump\t// out\n        /* \"#utility.yul\":12701:13120   */\n    tag_150:\n        /* \"#utility.yul\":12867:12871   */\n      0x00\n        /* \"#utility.yul\":12905:12907   */\n      0x20\n        /* \"#utility.yul\":12894:12903   */\n      dup3\n        /* \"#utility.yul\":12890:12908   */\n      add\n        /* \"#utility.yul\":12882:12908   */\n      swap1\n      pop\n        /* \"#utility.yul\":12954:12963   */\n      dup2\n        /* \"#utility.yul\":12948:12952   */\n      dup2\n        /* \"#utility.yul\":12944:12964   */\n      sub\n        /* \"#utility.yul\":12940:12941   */\n      0x00\n        /* \"#utility.yul\":12929:12938   */\n      dup4\n        /* \"#utility.yul\":12925:12942   */\n      add\n        /* \"#utility.yul\":12918:12965   */\n      mstore\n        /* \"#utility.yul\":12982:13113   */\n      tag_422\n        /* \"#utility.yul\":13108:13112   */\n      dup2\n        /* \"#utility.yul\":12982:13113   */\n      tag_286\n      jump\t// in\n    tag_422:\n        /* \"#utility.yul\":12974:13113   */\n      swap1\n      pop\n        /* \"#utility.yul\":12701:13120   */\n      swap2\n      swap1\n      pop\n      jump\t// out\n        /* \"#utility.yul\":13126:13359   */\n    tag_287:\n        /* \"#utility.yul\":13266:13300   */\n      0x53656e742076616c7565206d75737420626520657175616c20746f2074686520\n        /* \"#utility.yul\":13262:13263   */\n      0x00\n        /* \"#utility.yul\":13254:13260   */\n      dup3\n        /* \"#utility.yul\":13250:13264   */\n      add\n        /* \"#utility.yul\":13243:13301   */\n      mstore\n        /* \"#utility.yul\":13335:13351   */\n      0x6c697374696e672070726963652e000000000000000000000000000000000000\n        /* \"#utility.yul\":13330:13332   */\n      0x20\n        /* \"#utility.yul\":13322:13328   */\n      dup3\n        /* \"#utility.yul\":13318:13333   */\n      add\n        /* \"#utility.yul\":13311:13352   */\n      mstore\n        /* \"#utility.yul\":13126:13359   */\n      pop\n      jump\t// out\n        /* \"#utility.yul\":13365:13731   */\n    tag_288:\n        /* \"#utility.yul\":13507:13510   */\n      0x00\n        /* \"#utility.yul\":13528:13595   */\n      tag_425\n        /* \"#utility.yul\":13592:13594   */\n      0x2e\n        /* \"#utility.yul\":13587:13590   */\n      dup4\n        /* \"#utility.yul\":13528:13595   */\n      tag_272\n      jump\t// in\n    tag_425:\n        /* \"#utility.yul\":13521:13595   */\n      swap2\n      pop\n        /* \"#utility.yul\":13604:13697   */\n      tag_426\n        /* \"#utility.yul\":13693:13696   */\n      dup3\n        /* \"#utility.yul\":13604:13697   */\n      tag_287\n      jump\t// in\n    tag_426:\n        /* \"#utility.yul\":13722:13724   */\n      0x40\n        /* \"#utility.yul\":13717:13720   */\n      dup3\n        /* \"#utility.yul\":13713:13725   */\n      add\n        /* \"#utility.yul\":13706:13725   */\n      swap1\n      pop\n        /* \"#utility.yul\":13365:13731   */\n      swap2\n      swap1\n      pop\n      jump\t// out\n        /* \"#utility.yul\":13737:14156   */\n    tag_153:\n        /* \"#utility.yul\":13903:13907   */\n      0x00\n        /* \"#utility.yul\":13941:13943   */\n      0x20\n        /* \"#utility.yul\":13930:13939   */\n      dup3\n        /* \"#utility.yul\":13926:13944   */\n      add\n        /* \"#utility.yul\":13918:13944   */\n      swap1\n      pop\n        /* \"#utility.yul\":13990:13999   */\n      dup2\n        /* \"#utility.yul\":13984:13988   */\n      dup2\n        /* \"#utility.yul\":13980:14000   */\n      sub\n        /* \"#utility.yul\":13976:13977   */\n      0x00\n        /* \"#utility.yul\":13965:13974   */\n      dup4\n        /* \"#utility.yul\":13961:13978   */\n      add\n        /* \"#utility.yul\":13954:14001   */\n      mstore\n        /* \"#utility.yul\":14018:14149   */\n      tag_428\n        /* \"#utility.yul\":14144:14148   */\n      dup2\n        /* \"#utility.yul\":14018:14149   */\n      tag_288\n      jump\t// in\n    tag_428:\n        /* \"#utility.yul\":14010:14149   */\n      swap1\n      pop\n        /* \"#utility.yul\":13737:14156   */\n      swap2\n      swap1\n      pop\n      jump\t// out\n        /* \"#utility.yul\":14162:14342   */\n    tag_289:\n        /* \"#utility.yul\":14210:14287   */\n      0x4e487b7100000000000000000000000000000000000000000000000000000000\n        /* \"#utility.yul\":14207:14208   */\n      0x00\n        /* \"#utility.yul\":14200:14288   */\n      mstore\n        /* \"#utility.yul\":14307:14311   */\n      0x12\n        /* \"#utility.yul\":14304:14305   */\n      0x04\n        /* \"#utility.yul\":14297:14312   */\n      mstore\n        /* \"#utility.yul\":14331:14335   */\n      0x24\n        /* \"#utility.yul\":14328:14329   */\n      0x00\n        /* \"#utility.yul\":14321:14336   */\n      revert\n        /* \"#utility.yul\":14348:14533   */\n    tag_155:\n        /* \"#utility.yul\":14388:14389   */\n      0x00\n        /* \"#utility.yul\":14405:14425   */\n      tag_431\n        /* \"#utility.yul\":14423:14424   */\n      dup3\n        /* \"#utility.yul\":14405:14425   */\n      tag_265\n      jump\t// in\n    tag_431:\n        /* \"#utility.yul\":14400:14425   */\n      swap2\n      pop\n        /* \"#utility.yul\":14439:14459   */\n      tag_432\n        /* \"#utility.yul\":14457:14458   */\n      dup4\n        /* \"#utility.yul\":14439:14459   */\n      tag_265\n      jump\t// in\n    tag_432:\n        /* \"#utility.yul\":14434:14459   */\n      swap3\n      pop\n        /* \"#utility.yul\":14478:14479   */\n      dup3\n        /* \"#utility.yul\":14468:14503   */\n      tag_433\n      jumpi\n        /* \"#utility.yul\":14483:14501   */\n      tag_434\n      tag_289\n      jump\t// in\n    tag_434:\n        /* \"#utility.yul\":14468:14503   */\n    tag_433:\n        /* \"#utility.yul\":14525:14526   */\n      dup3\n        /* \"#utility.yul\":14522:14523   */\n      dup3\n        /* \"#utility.yul\":14518:14527   */\n      div\n        /* \"#utility.yul\":14513:14527   */\n      swap1\n      pop\n        /* \"#utility.yul\":14348:14533   */\n      swap3\n      swap2\n      pop\n      pop\n      jump\t// out\n        /* \"#utility.yul\":14539:14887   */\n    tag_157:\n        /* \"#utility.yul\":14579:14586   */\n      0x00\n        /* \"#utility.yul\":14602:14622   */\n      tag_436\n        /* \"#utility.yul\":14620:14621   */\n      dup3\n        /* \"#utility.yul\":14602:14622   */\n      tag_265\n      jump\t// in\n    tag_436:\n        /* \"#utility.yul\":14597:14622   */\n      swap2\n      pop\n        /* \"#utility.yul\":14636:14656   */\n      tag_437\n        /* \"#utility.yul\":14654:14655   */\n      dup4\n        /* \"#utility.yul\":14636:14656   */\n      tag_265\n      jump\t// in\n    tag_437:\n        /* \"#utility.yul\":14631:14656   */\n      swap3\n      pop\n        /* \"#utility.yul\":14824:14825   */\n      dup2\n        /* \"#utility.yul\":14756:14822   */\n      0xffffffffffffffffffffffffffffffffffffffffffffffffffffffffffffffff\n        /* \"#utility.yul\":14752:14826   */\n      div\n        /* \"#utility.yul\":14749:14750   */\n      dup4\n        /* \"#utility.yul\":14746:14827   */\n      gt\n        /* \"#utility.yul\":14741:14742   */\n      dup3\n        /* \"#utility.yul\":14734:14743   */\n      iszero\n        /* \"#utility.yul\":14727:14744   */\n      iszero\n        /* \"#utility.yul\":14723:14828   */\n      and\n        /* \"#utility.yul\":14720:14851   */\n      iszero\n      tag_438\n      jumpi\n        /* \"#utility.yul\":14831:14849   */\n      tag_439\n      tag_280\n      jump\t// in\n    tag_439:\n        /* \"#utility.yul\":14720:14851   */\n    tag_438:\n        /* \"#utility.yul\":14879:14880   */\n      dup3\n        /* \"#utility.yul\":14876:14877   */\n      dup3\n        /* \"#utility.yul\":14872:14881   */\n      mul\n        /* \"#utility.yul\":14861:14881   */\n      swap1\n      pop\n        /* \"#utility.yul\":14539:14887   */\n      swap3\n      swap2\n      pop\n      pop\n      jump\t// out\n        /* \"#utility.yul\":14893:15087   */\n    tag_161:\n        /* \"#utility.yul\":14933:14937   */\n      0x00\n        /* \"#utility.yul\":14953:14973   */\n      tag_441\n        /* \"#utility.yul\":14971:14972   */\n      dup3\n        /* \"#utility.yul\":14953:14973   */\n      tag_265\n      jump\t// in\n    tag_441:\n        /* \"#utility.yul\":14948:14973   */\n      swap2\n      pop\n        /* \"#utility.yul\":14987:15007   */\n      tag_442\n        /* \"#utility.yul\":15005:15006   */\n      dup4\n        /* \"#utility.yul\":14987:15007   */\n      tag_265\n      jump\t// in\n    tag_442:\n        /* \"#utility.yul\":14982:15007   */\n      swap3\n      pop\n        /* \"#utility.yul\":15031:15032   */\n      dup3\n        /* \"#utility.yul\":15028:15029   */\n      dup3\n        /* \"#utility.yul\":15024:15033   */\n      sub\n        /* \"#utility.yul\":15016:15033   */\n      swap1\n      pop\n        /* \"#utility.yul\":15055:15056   */\n      dup2\n        /* \"#utility.yul\":15049:15053   */\n      dup2\n        /* \"#utility.yul\":15046:15057   */\n      gt\n        /* \"#utility.yul\":15043:15080   */\n      iszero\n      tag_443\n      jumpi\n        /* \"#utility.yul\":15060:15078   */\n      tag_444\n      tag_280\n      jump\t// in\n    tag_444:\n        /* \"#utility.yul\":15043:15080   */\n    tag_443:\n        /* \"#utility.yul\":14893:15087   */\n      swap3\n      swap2\n      pop\n      pop\n      jump\t// out\n        /* \"#utility.yul\":15093:15273   */\n    tag_290:\n        /* \"#utility.yul\":15233:15265   */\n      0x53656c6c6572206e6f206c6f6e676572206f776e7320746865204e46542e0000\n        /* \"#utility.yul\":15229:15230   */\n      0x00\n        /* \"#utility.yul\":15221:15227   */\n      dup3\n        /* \"#utility.yul\":15217:15231   */\n      add\n        /* \"#utility.yul\":15210:15266   */\n      mstore\n        /* \"#utility.yul\":15093:15273   */\n      pop\n      jump\t// out\n        /* \"#utility.yul\":15279:15645   */\n    tag_291:\n        /* \"#utility.yul\":15421:15424   */\n      0x00\n        /* \"#utility.yul\":15442:15509   */\n      tag_447\n        /* \"#utility.yul\":15506:15508   */\n      0x1e\n        /* \"#utility.yul\":15501:15504   */\n      dup4\n        /* \"#utility.yul\":15442:15509   */\n      tag_272\n      jump\t// in\n    tag_447:\n        /* \"#utility.yul\":15435:15509   */\n      swap2\n      pop\n        /* \"#utility.yul\":15518:15611   */\n      tag_448\n        /* \"#utility.yul\":15607:15610   */\n      dup3\n        /* \"#utility.yul\":15518:15611   */\n      tag_290\n      jump\t// in\n    tag_448:\n        /* \"#utility.yul\":15636:15638   */\n      0x20\n        /* \"#utility.yul\":15631:15634   */\n      dup3\n        /* \"#utility.yul\":15627:15639   */\n      add\n        /* \"#utility.yul\":15620:15639   */\n      swap1\n      pop\n        /* \"#utility.yul\":15279:15645   */\n      swap2\n      swap1\n      pop\n      jump\t// out\n        /* \"#utility.yul\":15651:16070   */\n    tag_169:\n        /* \"#utility.yul\":15817:15821   */\n      0x00\n        /* \"#utility.yul\":15855:15857   */\n      0x20\n        /* \"#utility.yul\":15844:15853   */\n      dup3\n        /* \"#utility.yul\":15840:15858   */\n      add\n        /* \"#utility.yul\":15832:15858   */\n      swap1\n      pop\n        /* \"#utility.yul\":15904:15913   */\n      dup2\n        /* \"#utility.yul\":15898:15902   */\n      dup2\n        /* \"#utility.yul\":15894:15914   */\n      sub\n        /* \"#utility.yul\":15890:15891   */\n      0x00\n        /* \"#utility.yul\":15879:15888   */\n      dup4\n        /* \"#utility.yul\":15875:15892   */\n      add\n        /* \"#utility.yul\":15868:15915   */\n      mstore\n        /* \"#utility.yul\":15932:16063   */\n      tag_450\n        /* \"#utility.yul\":16058:16062   */\n      dup2\n        /* \"#utility.yul\":15932:16063   */\n      tag_291\n      jump\t// in\n    tag_450:\n        /* \"#utility.yul\":15924:16063   */\n      swap1\n      pop\n        /* \"#utility.yul\":15651:16070   */\n      swap2\n      swap1\n      pop\n      jump\t// out\n        /* \"#utility.yul\":16076:16518   */\n    tag_171:\n        /* \"#utility.yul\":16225:16229   */\n      0x00\n        /* \"#utility.yul\":16263:16265   */\n      0x60\n        /* \"#utility.yul\":16252:16261   */\n      dup3\n        /* \"#utility.yul\":16248:16266   */\n      add\n        /* \"#utility.yul\":16240:16266   */\n      swap1\n      pop\n        /* \"#utility.yul\":16276:16347   */\n      tag_452\n        /* \"#utility.yul\":16344:16345   */\n      0x00\n        /* \"#utility.yul\":16333:16342   */\n      dup4\n        /* \"#utility.yul\":16329:16346   */\n      add\n        /* \"#utility.yul\":16320:16326   */\n      dup7\n        /* \"#utility.yul\":16276:16347   */\n      tag_271\n      jump\t// in\n    tag_452:\n        /* \"#utility.yul\":16357:16429   */\n      tag_453\n        /* \"#utility.yul\":16425:16427   */\n      0x20\n        /* \"#utility.yul\":16414:16423   */\n      dup4\n        /* \"#utility.yul\":16410:16428   */\n      add\n        /* \"#utility.yul\":16401:16407   */\n      dup6\n        /* \"#utility.yul\":16357:16429   */\n      tag_271\n      jump\t// in\n    tag_453:\n        /* \"#utility.yul\":16439:16511   */\n      tag_454\n        /* \"#utility.yul\":16507:16509   */\n      0x40\n        /* \"#utility.yul\":16496:16505   */\n      dup4\n        /* \"#utility.yul\":16492:16510   */\n      add\n        /* \"#utility.yul\":16483:16489   */\n      dup5\n        /* \"#utility.yul\":16439:16511   */\n      tag_270\n      jump\t// in\n    tag_454:\n        /* \"#utility.yul\":16076:16518   */\n      swap5\n      swap4\n      pop\n      pop\n      pop\n      pop\n      jump\t// out\n        /* \"#utility.yul\":16524:16698   */\n    tag_292:\n        /* \"#utility.yul\":16664:16690   */\n      0x4164647265737365732063616e6e6f74206265207a65726f0000000000000000\n        /* \"#utility.yul\":16660:16661   */\n      0x00\n        /* \"#utility.yul\":16652:16658   */\n      dup3\n        /* \"#utility.yul\":16648:16662   */\n      add\n        /* \"#utility.yul\":16641:16691   */\n      mstore\n        /* \"#utility.yul\":16524:16698   */\n      pop\n      jump\t// out\n        /* \"#utility.yul\":16704:17070   */\n    tag_293:\n        /* \"#utility.yul\":16846:16849   */\n      0x00\n        /* \"#utility.yul\":16867:16934   */\n      tag_457\n        /* \"#utility.yul\":16931:16933   */\n      0x18\n        /* \"#utility.yul\":16926:16929   */\n      dup4\n        /* \"#utility.yul\":16867:16934   */\n      tag_272\n      jump\t// in\n    tag_457:\n        /* \"#utility.yul\":16860:16934   */\n      swap2\n      pop\n        /* \"#utility.yul\":16943:17036   */\n      tag_458\n        /* \"#utility.yul\":17032:17035   */\n      dup3\n        /* \"#utility.yul\":16943:17036   */\n      tag_292\n      jump\t// in\n    tag_458:\n        /* \"#utility.yul\":17061:17063   */\n      0x20\n        /* \"#utility.yul\":17056:17059   */\n      dup3\n        /* \"#utility.yul\":17052:17064   */\n      add\n        /* \"#utility.yul\":17045:17064   */\n      swap1\n      pop\n        /* \"#utility.yul\":16704:17070   */\n      swap2\n      swap1\n      pop\n      jump\t// out\n        /* \"#utility.yul\":17076:17495   */\n    tag_192:\n        /* \"#utility.yul\":17242:17246   */\n      0x00\n        /* \"#utility.yul\":17280:17282   */\n      0x20\n        /* \"#utility.yul\":17269:17278   */\n      dup3\n        /* \"#utility.yul\":17265:17283   */\n      add\n        /* \"#utility.yul\":17257:17283   */\n      swap1\n      pop\n        /* \"#utility.yul\":17329:17338   */\n      dup2\n        /* \"#utility.yul\":17323:17327   */\n      dup2\n        /* \"#utility.yul\":17319:17339   */\n      sub\n        /* \"#utility.yul\":17315:17316   */\n      0x00\n        /* \"#utility.yul\":17304:17313   */\n      dup4\n        /* \"#utility.yul\":17300:17317   */\n      add\n        /* \"#utility.yul\":17293:17340   */\n      mstore\n        /* \"#utility.yul\":17357:17488   */\n      tag_460\n        /* \"#utility.yul\":17483:17487   */\n      dup2\n        /* \"#utility.yul\":17357:17488   */\n      tag_293\n      jump\t// in\n    tag_460:\n        /* \"#utility.yul\":17349:17488   */\n      swap1\n      pop\n        /* \"#utility.yul\":17076:17495   */\n      swap2\n      swap1\n      pop\n      jump\t// out\n        /* \"#utility.yul\":17501:17726   */\n    tag_294:\n        /* \"#utility.yul\":17641:17675   */\n      0x4f776e61626c653a206e6577206f776e657220697320746865207a65726f2061\n        /* \"#utility.yul\":17637:17638   */\n      0x00\n        /* \"#utility.yul\":17629:17635   */\n      dup3\n        /* \"#utility.yul\":17625:17639   */\n      add\n        /* \"#utility.yul\":17618:17676   */\n      mstore\n        /* \"#utility.yul\":17710:17718   */\n      0x6464726573730000000000000000000000000000000000000000000000000000\n        /* \"#utility.yul\":17705:17707   */\n      0x20\n        /* \"#utility.yul\":17697:17703   */\n      dup3\n        /* \"#utility.yul\":17693:17708   */\n      add\n        /* \"#utility.yul\":17686:17719   */\n      mstore\n        /* \"#utility.yul\":17501:17726   */\n      pop\n      jump\t// out\n        /* \"#utility.yul\":17732:18098   */\n    tag_295:\n        /* \"#utility.yul\":17874:17877   */\n      0x00\n        /* \"#utility.yul\":17895:17962   */\n      tag_463\n        /* \"#utility.yul\":17959:17961   */\n      0x26\n        /* \"#utility.yul\":17954:17957   */\n      dup4\n        /* \"#utility.yul\":17895:17962   */\n      tag_272\n      jump\t// in\n    tag_463:\n        /* \"#utility.yul\":17888:17962   */\n      swap2\n      pop\n        /* \"#utility.yul\":17971:18064   */\n      tag_464\n        /* \"#utility.yul\":18060:18063   */\n      dup3\n        /* \"#utility.yul\":17971:18064   */\n      tag_294\n      jump\t// in\n    tag_464:\n        /* \"#utility.yul\":18089:18091   */\n      0x40\n        /* \"#utility.yul\":18084:18087   */\n      dup3\n        /* \"#utility.yul\":18080:18092   */\n      add\n        /* \"#utility.yul\":18073:18092   */\n      swap1\n      pop\n        /* \"#utility.yul\":17732:18098   */\n      swap2\n      swap1\n      pop\n      jump\t// out\n        /* \"#utility.yul\":18104:18523   */\n    tag_221:\n        /* \"#utility.yul\":18270:18274   */\n      0x00\n        /* \"#utility.yul\":18308:18310   */\n      0x20\n        /* \"#utility.yul\":18297:18306   */\n      dup3\n        /* \"#utility.yul\":18293:18311   */\n      add\n        /* \"#utility.yul\":18285:18311   */\n      swap1\n      pop\n        /* \"#utility.yul\":18357:18366   */\n      dup2\n        /* \"#utility.yul\":18351:18355   */\n      dup2\n        /* \"#utility.yul\":18347:18367   */\n      sub\n        /* \"#utility.yul\":18343:18344   */\n      0x00\n        /* \"#utility.yul\":18332:18341   */\n      dup4\n        /* \"#utility.yul\":18328:18345   */\n      add\n        /* \"#utility.yul\":18321:18368   */\n      mstore\n        /* \"#utility.yul\":18385:18516   */\n      tag_466\n        /* \"#utility.yul\":18511:18515   */\n      dup2\n        /* \"#utility.yul\":18385:18516   */\n      tag_295\n      jump\t// in\n    tag_466:\n        /* \"#utility.yul\":18377:18516   */\n      swap1\n      pop\n        /* \"#utility.yul\":18104:18523   */\n      swap2\n      swap1\n      pop\n      jump\t// out\n        /* \"#utility.yul\":18529:18695   */\n    tag_296:\n        /* \"#utility.yul\":18669:18687   */\n      0x5061757361626c653a2070617573656400000000000000000000000000000000\n        /* \"#utility.yul\":18665:18666   */\n      0x00\n        /* \"#utility.yul\":18657:18663   */\n      dup3\n        /* \"#utility.yul\":18653:18667   */\n      add\n        /* \"#utility.yul\":18646:18688   */\n      mstore\n        /* \"#utility.yul\":18529:18695   */\n      pop\n      jump\t// out\n        /* \"#utility.yul\":18701:19067   */\n    tag_297:\n        /* \"#utility.yul\":18843:18846   */\n      0x00\n        /* \"#utility.yul\":18864:18931   */\n      tag_469\n        /* \"#utility.yul\":18928:18930   */\n      0x10\n        /* \"#utility.yul\":18923:18926   */\n      dup4\n        /* \"#utility.yul\":18864:18931   */\n      tag_272\n      jump\t// in\n    tag_469:\n        /* \"#utility.yul\":18857:18931   */\n      swap2\n      pop\n        /* \"#utility.yul\":18940:19033   */\n      tag_470\n        /* \"#utility.yul\":19029:19032   */\n      dup3\n        /* \"#utility.yul\":18940:19033   */\n      tag_296\n      jump\t// in\n    tag_470:\n        /* \"#utility.yul\":19058:19060   */\n      0x20\n        /* \"#utility.yul\":19053:19056   */\n      dup3\n        /* \"#utility.yul\":19049:19061   */\n      add\n        /* \"#utility.yul\":19042:19061   */\n      swap1\n      pop\n        /* \"#utility.yul\":18701:19067   */\n      swap2\n      swap1\n      pop\n      jump\t// out\n        /* \"#utility.yul\":19073:19492   */\n    tag_227:\n        /* \"#utility.yul\":19239:19243   */\n      0x00\n        /* \"#utility.yul\":19277:19279   */\n      0x20\n        /* \"#utility.yul\":19266:19275   */\n      dup3\n        /* \"#utility.yul\":19262:19280   */\n      add\n        /* \"#utility.yul\":19254:19280   */\n      swap1\n      pop\n        /* \"#utility.yul\":19326:19335   */\n      dup2\n        /* \"#utility.yul\":19320:19324   */\n      dup2\n        /* \"#utility.yul\":19316:19336   */\n      sub\n        /* \"#utility.yul\":19312:19313   */\n      0x00\n        /* \"#utility.yul\":19301:19310   */\n      dup4\n        /* \"#utility.yul\":19297:19314   */\n      add\n        /* \"#utility.yul\":19290:19337   */\n      mstore\n        /* \"#utility.yul\":19354:19485   */\n      tag_472\n        /* \"#utility.yul\":19480:19484   */\n      dup2\n        /* \"#utility.yul\":19354:19485   */\n      tag_297\n      jump\t// in\n    tag_472:\n        /* \"#utility.yul\":19346:19485   */\n      swap1\n      pop\n        /* \"#utility.yul\":19073:19492   */\n      swap2\n      swap1\n      pop\n      jump\t// out\n        /* \"#utility.yul\":19498:19679   */\n    tag_298:\n        /* \"#utility.yul\":19638:19671   */\n      0x5265656e7472616e637947756172643a207265656e7472616e742063616c6c00\n        /* \"#utility.yul\":19634:19635   */\n      0x00\n        /* \"#utility.yul\":19626:19632   */\n      dup3\n        /* \"#utility.yul\":19622:19636   */\n      add\n        /* \"#utility.yul\":19615:19672   */\n      mstore\n        /* \"#utility.yul\":19498:19679   */\n      pop\n      jump\t// out\n        /* \"#utility.yul\":19685:20051   */\n    tag_299:\n        /* \"#utility.yul\":19827:19830   */\n      0x00\n        /* \"#utility.yul\":19848:19915   */\n      tag_475\n        /* \"#utility.yul\":19912:19914   */\n      0x1f\n        /* \"#utility.yul\":19907:19910   */\n      dup4\n        /* \"#utility.yul\":19848:19915   */\n      tag_272\n      jump\t// in\n    tag_475:\n        /* \"#utility.yul\":19841:19915   */\n      swap2\n      pop\n        /* \"#utility.yul\":19924:20017   */\n      tag_476\n        /* \"#utility.yul\":20013:20016   */\n      dup3\n        /* \"#utility.yul\":19924:20017   */\n      tag_298\n      jump\t// in\n    tag_476:\n        /* \"#utility.yul\":20042:20044   */\n      0x20\n        /* \"#utility.yul\":20037:20040   */\n      dup3\n        /* \"#utility.yul\":20033:20045   */\n      add\n        /* \"#utility.yul\":20026:20045   */\n      swap1\n      pop\n        /* \"#utility.yul\":19685:20051   */\n      swap2\n      swap1\n      pop\n      jump\t// out\n        /* \"#utility.yul\":20057:20476   */\n    tag_231:\n        /* \"#utility.yul\":20223:20227   */\n      0x00\n        /* \"#utility.yul\":20261:20263   */\n      0x20\n        /* \"#utility.yul\":20250:20259   */\n      dup3\n        /* \"#utility.yul\":20246:20264   */\n      add\n        /* \"#utility.yul\":20238:20264   */\n      swap1\n      pop\n        /* \"#utility.yul\":20310:20319   */\n      dup2\n        /* \"#utility.yul\":20304:20308   */\n      dup2\n        /* \"#utility.yul\":20300:20320   */\n      sub\n        /* \"#utility.yul\":20296:20297   */\n      0x00\n        /* \"#utility.yul\":20285:20294   */\n      dup4\n        /* \"#utility.yul\":20281:20298   */\n      add\n        /* \"#utility.yul\":20274:20321   */\n      mstore\n        /* \"#utility.yul\":20338:20469   */\n      tag_478\n        /* \"#utility.yul\":20464:20468   */\n      dup2\n        /* \"#utility.yul\":20338:20469   */\n      tag_299\n      jump\t// in\n    tag_478:\n        /* \"#utility.yul\":20330:20469   */\n      swap1\n      pop\n        /* \"#utility.yul\":20057:20476   */\n      swap2\n      swap1\n      pop\n      jump\t// out\n        /* \"#utility.yul\":20482:20664   */\n    tag_300:\n        /* \"#utility.yul\":20622:20656   */\n      0x4f776e61626c653a2063616c6c6572206973206e6f7420746865206f776e6572\n        /* \"#utility.yul\":20618:20619   */\n      0x00\n        /* \"#utility.yul\":20610:20616   */\n      dup3\n        /* \"#utility.yul\":20606:20620   */\n      add\n        /* \"#utility.yul\":20599:20657   */\n      mstore\n        /* \"#utility.yul\":20482:20664   */\n      pop\n      jump\t// out\n        /* \"#utility.yul\":20670:21036   */\n    tag_301:\n        /* \"#utility.yul\":20812:20815   */\n      0x00\n        /* \"#utility.yul\":20833:20900   */\n      tag_481\n        /* \"#utility.yul\":20897:20899   */\n      0x20\n        /* \"#utility.yul\":20892:20895   */\n      dup4\n        /* \"#utility.yul\":20833:20900   */\n      tag_272\n      jump\t// in\n    tag_481:\n        /* \"#utility.yul\":20826:20900   */\n      swap2\n      pop\n        /* \"#utility.yul\":20909:21002   */\n      tag_482\n        /* \"#utility.yul\":20998:21001   */\n      dup3\n        /* \"#utility.yul\":20909:21002   */\n      tag_300\n      jump\t// in\n    tag_482:\n        /* \"#utility.yul\":21027:21029   */\n      0x20\n        /* \"#utility.yul\":21022:21025   */\n      dup3\n        /* \"#utility.yul\":21018:21030   */\n      add\n        /* \"#utility.yul\":21011:21030   */\n      swap1\n      pop\n        /* \"#utility.yul\":20670:21036   */\n      swap2\n      swap1\n      pop\n      jump\t// out\n        /* \"#utility.yul\":21042:21461   */\n    tag_239:\n        /* \"#utility.yul\":21208:21212   */\n      0x00\n        /* \"#utility.yul\":21246:21248   */\n      0x20\n        /* \"#utility.yul\":21235:21244   */\n      dup3\n        /* \"#utility.yul\":21231:21249   */\n      add\n        /* \"#utility.yul\":21223:21249   */\n      swap1\n      pop\n        /* \"#utility.yul\":21295:21304   */\n      dup2\n        /* \"#utility.yul\":21289:21293   */\n      dup2\n        /* \"#utility.yul\":21285:21305   */\n      sub\n        /* \"#utility.yul\":21281:21282   */\n      0x00\n        /* \"#utility.yul\":21270:21279   */\n      dup4\n        /* \"#utility.yul\":21266:21283   */\n      add\n        /* \"#utility.yul\":21259:21306   */\n      mstore\n        /* \"#utility.yul\":21323:21454   */\n      tag_484\n        /* \"#utility.yul\":21449:21453   */\n      dup2\n        /* \"#utility.yul\":21323:21454   */\n      tag_301\n      jump\t// in\n    tag_484:\n        /* \"#utility.yul\":21315:21454   */\n      swap1\n      pop\n        /* \"#utility.yul\":21042:21461   */\n      swap2\n      swap1\n      pop\n      jump\t// out\n        /* \"#utility.yul\":21467:21637   */\n    tag_302:\n        /* \"#utility.yul\":21607:21629   */\n      0x5061757361626c653a206e6f7420706175736564000000000000000000000000\n        /* \"#utility.yul\":21603:21604   */\n      0x00\n        /* \"#utility.yul\":21595:21601   */\n      dup3\n        /* \"#utility.yul\":21591:21605   */\n      add\n        /* \"#utility.yul\":21584:21630   */\n      mstore\n        /* \"#utility.yul\":21467:21637   */\n      pop\n      jump\t// out\n        /* \"#utility.yul\":21643:22009   */\n    tag_303:\n        /* \"#utility.yul\":21785:21788   */\n      0x00\n        /* \"#utility.yul\":21806:21873   */\n      tag_487\n        /* \"#utility.yul\":21870:21872   */\n      0x14\n        /* \"#utility.yul\":21865:21868   */\n      dup4\n        /* \"#utility.yul\":21806:21873   */\n      tag_272\n      jump\t// in\n    tag_487:\n        /* \"#utility.yul\":21799:21873   */\n      swap2\n      pop\n        /* \"#utility.yul\":21882:21975   */\n      tag_488\n        /* \"#utility.yul\":21971:21974   */\n      dup3\n        /* \"#utility.yul\":21882:21975   */\n      tag_302\n      jump\t// in\n    tag_488:\n        /* \"#utility.yul\":22000:22002   */\n      0x20\n        /* \"#utility.yul\":21995:21998   */\n      dup3\n        /* \"#utility.yul\":21991:22003   */\n      add\n        /* \"#utility.yul\":21984:22003   */\n      swap1\n      pop\n        /* \"#utility.yul\":21643:22009   */\n      swap2\n      swap1\n      pop\n      jump\t// out\n        /* \"#utility.yul\":22015:22434   */\n    tag_257:\n        /* \"#utility.yul\":22181:22185   */\n      0x00\n        /* \"#utility.yul\":22219:22221   */\n      0x20\n        /* \"#utility.yul\":22208:22217   */\n      dup3\n        /* \"#utility.yul\":22204:22222   */\n      add\n        /* \"#utility.yul\":22196:22222   */\n      swap1\n      pop\n        /* \"#utility.yul\":22268:22277   */\n      dup2\n        /* \"#utility.yul\":22262:22266   */\n      dup2\n        /* \"#utility.yul\":22258:22278   */\n      sub\n        /* \"#utility.yul\":22254:22255   */\n      0x00\n        /* \"#utility.yul\":22243:22252   */\n      dup4\n        /* \"#utility.yul\":22239:22256   */\n      add\n        /* \"#utility.yul\":22232:22279   */\n      mstore\n        /* \"#utility.yul\":22296:22427   */\n      tag_490\n        /* \"#utility.yul\":22422:22426   */\n      dup2\n        /* \"#utility.yul\":22296:22427   */\n      tag_303\n      jump\t// in\n    tag_490:\n        /* \"#utility.yul\":22288:22427   */\n      swap1\n      pop\n        /* \"#utility.yul\":22015:22434   */\n      swap2\n      swap1\n      pop\n      jump\t// out\n\n    auxdata: 0xa2646970667358221220112253d8b5d50e5bf950e9467ff0d740dae796172a379aec1181af952b2e7c6b64736f6c63430008100033\n}\n",
				"bytecode": {
					"linkReferences": {},
					"object": "608060405260016009553480156200001657600080fd5b50604051620023733803806200237383398181016040528101906200003c919062000336565b6200005c62000050620001c560201b60201c565b620001cd60201b60201c565b600180819055506000600260006101000a81548160ff021916908315150217905550600073ffffffffffffffffffffffffffffffffffffffff168273ffffffffffffffffffffffffffffffffffffffff1614158015620000e95750600073ffffffffffffffffffffffffffffffffffffffff168173ffffffffffffffffffffffffffffffffffffffff1614155b6200012b576040517f08c379a0000000000000000000000000000000000000000000000000000000008152600401620001229062000409565b60405180910390fd5b836004819055508260058190555081600660006101000a81548173ffffffffffffffffffffffffffffffffffffffff021916908373ffffffffffffffffffffffffffffffffffffffff16021790555080600760006101000a81548173ffffffffffffffffffffffffffffffffffffffff021916908373ffffffffffffffffffffffffffffffffffffffff160217905550505050506200042b565b600033905090565b60008060009054906101000a900473ffffffffffffffffffffffffffffffffffffffff169050816000806101000a81548173ffffffffffffffffffffffffffffffffffffffff021916908373ffffffffffffffffffffffffffffffffffffffff1602179055508173ffffffffffffffffffffffffffffffffffffffff168173ffffffffffffffffffffffffffffffffffffffff167f8be0079c531659141344cd1fd0a4f28419497f9722a3daafe3b4186f6b6457e060405160405180910390a35050565b600080fd5b6000819050919050565b620002ab8162000296565b8114620002b757600080fd5b50565b600081519050620002cb81620002a0565b92915050565b600073ffffffffffffffffffffffffffffffffffffffff82169050919050565b6000620002fe82620002d1565b9050919050565b6200031081620002f1565b81146200031c57600080fd5b50565b600081519050620003308162000305565b92915050565b6000806000806080858703121562000353576200035262000291565b5b60006200036387828801620002ba565b94505060206200037687828801620002ba565b935050604062000389878288016200031f565b92505060606200039c878288016200031f565b91505092959194509250565b600082825260208201905092915050565b7f4164647265737365732063616e6e6f74206265207a65726f0000000000000000600082015250565b6000620003f1601883620003a8565b9150620003fe82620003b9565b602082019050919050565b600060208201905081810360008301526200042481620003e2565b9050919050565b611f38806200043b6000396000f3fe6080604052600436106100fe5760003560e01c80638a71bb2d11610095578063cdd78cfc11610064578063cdd78cfc146102b6578063de74e57b146102e1578063e3b6a1f614610322578063ed14834f1461035f578063f2fde38b1461038a576100fe565b80638a71bb2d1461020a5780638da5cb5b14610235578063aaccf1ec14610260578063ad2f852a1461028b576100fe565b80635e4e8d65116100d15780635e4e8d651461018a578063715018a6146101b357806378578bb3146101ca5780638456cb59146101f3576100fe565b80633c44a5f0146101035780633f4ba83a1461012c57806351ed8288146101435780635c975abb1461015f575b600080fd5b34801561010f57600080fd5b5061012a6004803603810190610125919061140a565b6103b3565b005b34801561013857600080fd5b50610141610720565b005b61015d60048036038101906101589190611471565b610742565b005b34801561016b57600080fd5b50610174610d14565b60405161018191906114b9565b60405180910390f35b34801561019657600080fd5b506101b160048036038101906101ac91906114d4565b610d2b565b005b3480156101bf57600080fd5b506101c8610e72565b005b3480156101d657600080fd5b506101f160048036038101906101ec9190611514565b610e86565b005b3480156101ff57600080fd5b50610208610eb0565b005b34801561021657600080fd5b5061021f610ed2565b60405161022c9190611563565b60405180910390f35b34801561024157600080fd5b5061024a610ed8565b604051610257919061158d565b60405180910390f35b34801561026c57600080fd5b50610275610f01565b6040516102829190611563565b60405180910390f35b34801561029757600080fd5b506102a0610f07565b6040516102ad919061158d565b60405180910390f35b3480156102c257600080fd5b506102cb610f2d565b6040516102d89190611563565b60405180910390f35b3480156102ed57600080fd5b5061030860048036038101906103039190611471565b610f33565b6040516103199594939291906115a8565b60405180910390f35b34801561032e57600080fd5b5061034960048036038101906103449190611471565b610fa9565b6040516103569190611563565b60405180910390f35b34801561036b57600080fd5b50610374610fcd565b604051610381919061158d565b60405180910390f35b34801561039657600080fd5b506103b160048036038101906103ac91906115fb565b610ff3565b005b6103bb611076565b6103c36110c0565b60008211610406576040517f08c379a00000000000000000000000000000000000000000000000000000000081526004016103fd90611685565b60405180910390fd5b60008111610449576040517f08c379a000000000000000000000000000000000000000000000000000000000815260040161044090611717565b60405180910390fd5b60008490503373ffffffffffffffffffffffffffffffffffffffff168173ffffffffffffffffffffffffffffffffffffffff16636352211e866040518263ffffffff1660e01b815260040161049e9190611563565b602060405180830381865afa1580156104bb573d6000803e3d6000fd5b505050506040513d601f19601f820116820180604052508101906104df919061174c565b73ffffffffffffffffffffffffffffffffffffffff1614610535576040517f08c379a000000000000000000000000000000000000000000000000000000000815260040161052c906117c5565b60405180910390fd5b6040518060a001604052808673ffffffffffffffffffffffffffffffffffffffff1681526020018581526020013373ffffffffffffffffffffffffffffffffffffffff16815260200184815260200183426105909190611814565b81525060086000600954815260200190815260200160002060008201518160000160006101000a81548173ffffffffffffffffffffffffffffffffffffffff021916908373ffffffffffffffffffffffffffffffffffffffff1602179055506020820151816001015560408201518160020160006101000a81548173ffffffffffffffffffffffffffffffffffffffff021916908373ffffffffffffffffffffffffffffffffffffffff1602179055506060820151816003015560808201518160040155905050600360095490806001815401808255809150506001900390600052602060002001600090919091909150558473ffffffffffffffffffffffffffffffffffffffff163373ffffffffffffffffffffffffffffffffffffffff166009547ff33c76fec15a03b2e414df8c9dce93f5b05f8672742e0f1eb558b2161162dfcb878787426106e29190611814565b6040516106f193929190611848565b60405180910390a46009600081548092919061070c9061187f565b91905055505061071a61110f565b50505050565b610728611118565b6107306110c0565b610738611196565b61074061110f565b565b61074a611076565b6107526110c0565b6000803411610796576040517f08c379a000000000000000000000000000000000000000000000000000000000815260040161078d90611939565b60405180910390fd5b6000600860008481526020019081526020016000209050600073ffffffffffffffffffffffffffffffffffffffff168160020160009054906101000a900473ffffffffffffffffffffffffffffffffffffffff1673ffffffffffffffffffffffffffffffffffffffff1603610840576040517f08c379a0000000000000000000000000000000000000000000000000000000008152600401610837906119a5565b60405180910390fd5b8060040154421115610887576040517f08c379a000000000000000000000000000000000000000000000000000000000815260040161087e90611a11565b60405180910390fd5b806003015434146108cd576040517f08c379a00000000000000000000000000000000000000000000000000000000081526004016108c490611aa3565b60405180910390fd5b600081600301546127106004546108e49190611af2565b6108ee9190611b23565b9050600082600301546127106005546109079190611af2565b6109119190611b23565b90506000818385600301546109269190611b7d565b6109309190611b7d565b90508360020160009054906101000a900473ffffffffffffffffffffffffffffffffffffffff16945060008460000160009054906101000a900473ffffffffffffffffffffffffffffffffffffffff1690508573ffffffffffffffffffffffffffffffffffffffff168173ffffffffffffffffffffffffffffffffffffffff16636352211e87600101546040518263ffffffff1660e01b81526004016109d69190611563565b602060405180830381865afa1580156109f3573d6000803e3d6000fd5b505050506040513d601f19601f82011682018060405250810190610a17919061174c565b73ffffffffffffffffffffffffffffffffffffffff1614610a6d576040517f08c379a0000000000000000000000000000000000000000000000000000000008152600401610a6490611bfd565b60405180910390fd5b8073ffffffffffffffffffffffffffffffffffffffff166342842e0e873388600101546040518463ffffffff1660e01b8152600401610aae93929190611c1d565b600060405180830381600087803b158015610ac857600080fd5b505af1158015610adc573d6000803e3d6000fd5b505050508573ffffffffffffffffffffffffffffffffffffffff166108fc839081150290604051600060405180830381858888f19350505050158015610b26573d6000803e3d6000fd5b50600660009054906101000a900473ffffffffffffffffffffffffffffffffffffffff1673ffffffffffffffffffffffffffffffffffffffff166108fc859081150290604051600060405180830381858888f19350505050158015610b8f573d6000803e3d6000fd5b50600760009054906101000a900473ffffffffffffffffffffffffffffffffffffffff1673ffffffffffffffffffffffffffffffffffffffff166108fc849081150290604051600060405180830381858888f19350505050158015610bf8573d6000803e3d6000fd5b503373ffffffffffffffffffffffffffffffffffffffff168560020160009054906101000a900473ffffffffffffffffffffffffffffffffffffffff1673ffffffffffffffffffffffffffffffffffffffff16887f8562eb94748e30bb0071e932744ce902b460c683474fcb3bfd567ffa16b1afb28860030154604051610c7f9190611563565b60405180910390a460086000888152602001908152602001600020600080820160006101000a81549073ffffffffffffffffffffffffffffffffffffffff021916905560018201600090556002820160006101000a81549073ffffffffffffffffffffffffffffffffffffffff0219169055600382016000905560048201600090555050505050505050610d1161110f565b50565b6000600260009054906101000a900460ff16905090565b610d33611118565b610d3b6110c0565b600073ffffffffffffffffffffffffffffffffffffffff168273ffffffffffffffffffffffffffffffffffffffff1614158015610da55750600073ffffffffffffffffffffffffffffffffffffffff168173ffffffffffffffffffffffffffffffffffffffff1614155b610de4576040517f08c379a0000000000000000000000000000000000000000000000000000000008152600401610ddb90611ca0565b60405180910390fd5b81600660006101000a81548173ffffffffffffffffffffffffffffffffffffffff021916908373ffffffffffffffffffffffffffffffffffffffff16021790555080600760006101000a81548173ffffffffffffffffffffffffffffffffffffffff021916908373ffffffffffffffffffffffffffffffffffffffff160217905550610e6e61110f565b5050565b610e7a611118565b610e8460006111f9565b565b610e8e611118565b610e966110c0565b8160048190555080600581905550610eac61110f565b5050565b610eb8611118565b610ec06110c0565b610ec86112bd565b610ed061110f565b565b60045481565b60008060009054906101000a900473ffffffffffffffffffffffffffffffffffffffff16905090565b60095481565b600660009054906101000a900473ffffffffffffffffffffffffffffffffffffffff1681565b60055481565b60086020528060005260406000206000915090508060000160009054906101000a900473ffffffffffffffffffffffffffffffffffffffff16908060010154908060020160009054906101000a900473ffffffffffffffffffffffffffffffffffffffff16908060030154908060040154905085565b60038181548110610fb957600080fd5b906000526020600020016000915090505481565b600760009054906101000a900473ffffffffffffffffffffffffffffffffffffffff1681565b610ffb611118565b600073ffffffffffffffffffffffffffffffffffffffff168173ffffffffffffffffffffffffffffffffffffffff160361106a576040517f08c379a000000000000000000000000000000000000000000000000000000000815260040161106190611d32565b60405180910390fd5b611073816111f9565b50565b61107e610d14565b156110be576040517f08c379a00000000000000000000000000000000000000000000000000000000081526004016110b590611d9e565b60405180910390fd5b565b600260015403611105576040517f08c379a00000000000000000000000000000000000000000000000000000000081526004016110fc90611e0a565b60405180910390fd5b6002600181905550565b60018081905550565b611120611320565b73ffffffffffffffffffffffffffffffffffffffff1661113e610ed8565b73ffffffffffffffffffffffffffffffffffffffff1614611194576040517f08c379a000000000000000000000000000000000000000000000000000000000815260040161118b90611e76565b60405180910390fd5b565b61119e611328565b6000600260006101000a81548160ff0219169083151502179055507f5db9ee0a495bf2e6ff9c91a7834c1ba4fdd244a5e8aa4e537bd38aeae4b073aa6111e2611320565b6040516111ef919061158d565b60405180910390a1565b60008060009054906101000a900473ffffffffffffffffffffffffffffffffffffffff169050816000806101000a81548173ffffffffffffffffffffffffffffffffffffffff021916908373ffffffffffffffffffffffffffffffffffffffff1602179055508173ffffffffffffffffffffffffffffffffffffffff168173ffffffffffffffffffffffffffffffffffffffff167f8be0079c531659141344cd1fd0a4f28419497f9722a3daafe3b4186f6b6457e060405160405180910390a35050565b6112c5611076565b6001600260006101000a81548160ff0219169083151502179055507f62e78cea01bee320cd4e420270b5ea74000d11b0c9f74754ebdbfc544b05a258611309611320565b604051611316919061158d565b60405180910390a1565b600033905090565b611330610d14565b61136f576040517f08c379a000000000000000000000000000000000000000000000000000000000815260040161136690611ee2565b60405180910390fd5b565b600080fd5b600073ffffffffffffffffffffffffffffffffffffffff82169050919050565b60006113a182611376565b9050919050565b6113b181611396565b81146113bc57600080fd5b50565b6000813590506113ce816113a8565b92915050565b6000819050919050565b6113e7816113d4565b81146113f257600080fd5b50565b600081359050611404816113de565b92915050565b6000806000806080858703121561142457611423611371565b5b6000611432878288016113bf565b9450506020611443878288016113f5565b9350506040611454878288016113f5565b9250506060611465878288016113f5565b91505092959194509250565b60006020828403121561148757611486611371565b5b6000611495848285016113f5565b91505092915050565b60008115159050919050565b6114b38161149e565b82525050565b60006020820190506114ce60008301846114aa565b92915050565b600080604083850312156114eb576114ea611371565b5b60006114f9858286016113bf565b925050602061150a858286016113bf565b9150509250929050565b6000806040838503121561152b5761152a611371565b5b6000611539858286016113f5565b925050602061154a858286016113f5565b9150509250929050565b61155d816113d4565b82525050565b60006020820190506115786000830184611554565b92915050565b61158781611396565b82525050565b60006020820190506115a2600083018461157e565b92915050565b600060a0820190506115bd600083018861157e565b6115ca6020830187611554565b6115d7604083018661157e565b6115e46060830185611554565b6115f16080830184611554565b9695505050505050565b60006020828403121561161157611610611371565b5b600061161f848285016113bf565b91505092915050565b600082825260208201905092915050565b7f5072696365206d7573742062652067726561746572207468616e207a65726f2e600082015250565b600061166f602083611628565b915061167a82611639565b602082019050919050565b6000602082019050818103600083015261169e81611662565b9050919050565b7f446561646c696e65206d7573742062652067726561746572207468616e207a6560008201527f726f2e0000000000000000000000000000000000000000000000000000000000602082015250565b6000611701602383611628565b915061170c826116a5565b604082019050919050565b60006020820190508181036000830152611730816116f4565b9050919050565b600081519050611746816113a8565b92915050565b60006020828403121561176257611761611371565b5b600061177084828501611737565b91505092915050565b7f596f75206d757374206f776e20746865204e465420746f206c6973742069742e600082015250565b60006117af602083611628565b91506117ba82611779565b602082019050919050565b600060208201905081810360008301526117de816117a2565b9050919050565b7f4e487b7100000000000000000000000000000000000000000000000000000000600052601160045260246000fd5b600061181f826113d4565b915061182a836113d4565b9250828201905080821115611842576118416117e5565b5b92915050565b600060608201905061185d6000830186611554565b61186a6020830185611554565b6118776040830184611554565b949350505050565b600061188a826113d4565b91507fffffffffffffffffffffffffffffffffffffffffffffffffffffffffffffffff82036118bc576118bb6117e5565b5b600182019050919050565b7f53656e742076616c7565206d7573742062652067726561746572207468616e2060008201527f7a65726f2e000000000000000000000000000000000000000000000000000000602082015250565b6000611923602583611628565b915061192e826118c7565b604082019050919050565b6000602082019050818103600083015261195281611916565b9050919050565b7f4c697374696e6720646f6573206e6f742065786973742e000000000000000000600082015250565b600061198f601783611628565b915061199a82611959565b602082019050919050565b600060208201905081810360008301526119be81611982565b9050919050565b7f54686973206c697374696e672068617320657870697265642e00000000000000600082015250565b60006119fb601983611628565b9150611a06826119c5565b602082019050919050565b60006020820190508181036000830152611a2a816119ee565b9050919050565b7f53656e742076616c7565206d75737420626520657175616c20746f207468652060008201527f6c697374696e672070726963652e000000000000000000000000000000000000602082015250565b6000611a8d602e83611628565b9150611a9882611a31565b604082019050919050565b60006020820190508181036000830152611abc81611a80565b9050919050565b7f4e487b7100000000000000000000000000000000000000000000000000000000600052601260045260246000fd5b6000611afd826113d4565b9150611b08836113d4565b925082611b1857611b17611ac3565b5b828204905092915050565b6000611b2e826113d4565b9150611b39836113d4565b9250817fffffffffffffffffffffffffffffffffffffffffffffffffffffffffffffffff0483118215151615611b7257611b716117e5565b5b828202905092915050565b6000611b88826113d4565b9150611b93836113d4565b9250828203905081811115611bab57611baa6117e5565b5b92915050565b7f53656c6c6572206e6f206c6f6e676572206f776e7320746865204e46542e0000600082015250565b6000611be7601e83611628565b9150611bf282611bb1565b602082019050919050565b60006020820190508181036000830152611c1681611bda565b9050919050565b6000606082019050611c32600083018661157e565b611c3f602083018561157e565b611c4c6040830184611554565b949350505050565b7f4164647265737365732063616e6e6f74206265207a65726f0000000000000000600082015250565b6000611c8a601883611628565b9150611c9582611c54565b602082019050919050565b60006020820190508181036000830152611cb981611c7d565b9050919050565b7f4f776e61626c653a206e6577206f776e657220697320746865207a65726f206160008201527f6464726573730000000000000000000000000000000000000000000000000000602082015250565b6000611d1c602683611628565b9150611d2782611cc0565b604082019050919050565b60006020820190508181036000830152611d4b81611d0f565b9050919050565b7f5061757361626c653a2070617573656400000000000000000000000000000000600082015250565b6000611d88601083611628565b9150611d9382611d52565b602082019050919050565b60006020820190508181036000830152611db781611d7b565b9050919050565b7f5265656e7472616e637947756172643a207265656e7472616e742063616c6c00600082015250565b6000611df4601f83611628565b9150611dff82611dbe565b602082019050919050565b60006020820190508181036000830152611e2381611de7565b9050919050565b7f4f776e61626c653a2063616c6c6572206973206e6f7420746865206f776e6572600082015250565b6000611e60602083611628565b9150611e6b82611e2a565b602082019050919050565b60006020820190508181036000830152611e8f81611e53565b9050919050565b7f5061757361626c653a206e6f7420706175736564000000000000000000000000600082015250565b6000611ecc601483611628565b9150611ed782611e96565b602082019050919050565b60006020820190508181036000830152611efb81611ebf565b905091905056fea2646970667358221220112253d8b5d50e5bf950e9467ff0d740dae796172a379aec1181af952b2e7c6b64736f6c63430008100033",
					"opcodes": "PUSH1 0x80 PUSH1 0x40 MSTORE PUSH1 0x1 PUSH1 0x9 SSTORE CALLVALUE DUP1 ISZERO PUSH3 0x16 JUMPI PUSH1 0x0 DUP1 REVERT JUMPDEST POP PUSH1 0x40 MLOAD PUSH3 0x2373 CODESIZE SUB DUP1 PUSH3 0x2373 DUP4 CODECOPY DUP2 DUP2 ADD PUSH1 0x40 MSTORE DUP2 ADD SWAP1 PUSH3 0x3C SWAP2 SWAP1 PUSH3 0x336 JUMP JUMPDEST PUSH3 0x5C PUSH3 0x50 PUSH3 0x1C5 PUSH1 0x20 SHL PUSH1 0x20 SHR JUMP JUMPDEST PUSH3 0x1CD PUSH1 0x20 SHL PUSH1 0x20 SHR JUMP JUMPDEST PUSH1 0x1 DUP1 DUP2 SWAP1 SSTORE POP PUSH1 0x0 PUSH1 0x2 PUSH1 0x0 PUSH2 0x100 EXP DUP2 SLOAD DUP2 PUSH1 0xFF MUL NOT AND SWAP1 DUP4 ISZERO ISZERO MUL OR SWAP1 SSTORE POP PUSH1 0x0 PUSH20 0xFFFFFFFFFFFFFFFFFFFFFFFFFFFFFFFFFFFFFFFF AND DUP3 PUSH20 0xFFFFFFFFFFFFFFFFFFFFFFFFFFFFFFFFFFFFFFFF AND EQ ISZERO DUP1 ISZERO PUSH3 0xE9 JUMPI POP PUSH1 0x0 PUSH20 0xFFFFFFFFFFFFFFFFFFFFFFFFFFFFFFFFFFFFFFFF AND DUP2 PUSH20 0xFFFFFFFFFFFFFFFFFFFFFFFFFFFFFFFFFFFFFFFF AND EQ ISZERO JUMPDEST PUSH3 0x12B JUMPI PUSH1 0x40 MLOAD PUSH32 0x8C379A000000000000000000000000000000000000000000000000000000000 DUP2 MSTORE PUSH1 0x4 ADD PUSH3 0x122 SWAP1 PUSH3 0x409 JUMP JUMPDEST PUSH1 0x40 MLOAD DUP1 SWAP2 SUB SWAP1 REVERT JUMPDEST DUP4 PUSH1 0x4 DUP2 SWAP1 SSTORE POP DUP3 PUSH1 0x5 DUP2 SWAP1 SSTORE POP DUP2 PUSH1 0x6 PUSH1 0x0 PUSH2 0x100 EXP DUP2 SLOAD DUP2 PUSH20 0xFFFFFFFFFFFFFFFFFFFFFFFFFFFFFFFFFFFFFFFF MUL NOT AND SWAP1 DUP4 PUSH20 0xFFFFFFFFFFFFFFFFFFFFFFFFFFFFFFFFFFFFFFFF AND MUL OR SWAP1 SSTORE POP DUP1 PUSH1 0x7 PUSH1 0x0 PUSH2 0x100 EXP DUP2 SLOAD DUP2 PUSH20 0xFFFFFFFFFFFFFFFFFFFFFFFFFFFFFFFFFFFFFFFF MUL NOT AND SWAP1 DUP4 PUSH20 0xFFFFFFFFFFFFFFFFFFFFFFFFFFFFFFFFFFFFFFFF AND MUL OR SWAP1 SSTORE POP POP POP POP POP PUSH3 0x42B JUMP JUMPDEST PUSH1 0x0 CALLER SWAP1 POP SWAP1 JUMP JUMPDEST PUSH1 0x0 DUP1 PUSH1 0x0 SWAP1 SLOAD SWAP1 PUSH2 0x100 EXP SWAP1 DIV PUSH20 0xFFFFFFFFFFFFFFFFFFFFFFFFFFFFFFFFFFFFFFFF AND SWAP1 POP DUP2 PUSH1 0x0 DUP1 PUSH2 0x100 EXP DUP2 SLOAD DUP2 PUSH20 0xFFFFFFFFFFFFFFFFFFFFFFFFFFFFFFFFFFFFFFFF MUL NOT AND SWAP1 DUP4 PUSH20 0xFFFFFFFFFFFFFFFFFFFFFFFFFFFFFFFFFFFFFFFF AND MUL OR SWAP1 SSTORE POP DUP2 PUSH20 0xFFFFFFFFFFFFFFFFFFFFFFFFFFFFFFFFFFFFFFFF AND DUP2 PUSH20 0xFFFFFFFFFFFFFFFFFFFFFFFFFFFFFFFFFFFFFFFF AND PUSH32 0x8BE0079C531659141344CD1FD0A4F28419497F9722A3DAAFE3B4186F6B6457E0 PUSH1 0x40 MLOAD PUSH1 0x40 MLOAD DUP1 SWAP2 SUB SWAP1 LOG3 POP POP JUMP JUMPDEST PUSH1 0x0 DUP1 REVERT JUMPDEST PUSH1 0x0 DUP2 SWAP1 POP SWAP2 SWAP1 POP JUMP JUMPDEST PUSH3 0x2AB DUP2 PUSH3 0x296 JUMP JUMPDEST DUP2 EQ PUSH3 0x2B7 JUMPI PUSH1 0x0 DUP1 REVERT JUMPDEST POP JUMP JUMPDEST PUSH1 0x0 DUP2 MLOAD SWAP1 POP PUSH3 0x2CB DUP2 PUSH3 0x2A0 JUMP JUMPDEST SWAP3 SWAP2 POP POP JUMP JUMPDEST PUSH1 0x0 PUSH20 0xFFFFFFFFFFFFFFFFFFFFFFFFFFFFFFFFFFFFFFFF DUP3 AND SWAP1 POP SWAP2 SWAP1 POP JUMP JUMPDEST PUSH1 0x0 PUSH3 0x2FE DUP3 PUSH3 0x2D1 JUMP JUMPDEST SWAP1 POP SWAP2 SWAP1 POP JUMP JUMPDEST PUSH3 0x310 DUP2 PUSH3 0x2F1 JUMP JUMPDEST DUP2 EQ PUSH3 0x31C JUMPI PUSH1 0x0 DUP1 REVERT JUMPDEST POP JUMP JUMPDEST PUSH1 0x0 DUP2 MLOAD SWAP1 POP PUSH3 0x330 DUP2 PUSH3 0x305 JUMP JUMPDEST SWAP3 SWAP2 POP POP JUMP JUMPDEST PUSH1 0x0 DUP1 PUSH1 0x0 DUP1 PUSH1 0x80 DUP6 DUP8 SUB SLT ISZERO PUSH3 0x353 JUMPI PUSH3 0x352 PUSH3 0x291 JUMP JUMPDEST JUMPDEST PUSH1 0x0 PUSH3 0x363 DUP8 DUP3 DUP9 ADD PUSH3 0x2BA JUMP JUMPDEST SWAP5 POP POP PUSH1 0x20 PUSH3 0x376 DUP8 DUP3 DUP9 ADD PUSH3 0x2BA JUMP JUMPDEST SWAP4 POP POP PUSH1 0x40 PUSH3 0x389 DUP8 DUP3 DUP9 ADD PUSH3 0x31F JUMP JUMPDEST SWAP3 POP POP PUSH1 0x60 PUSH3 0x39C DUP8 DUP3 DUP9 ADD PUSH3 0x31F JUMP JUMPDEST SWAP2 POP POP SWAP3 SWAP6 SWAP2 SWAP5 POP SWAP3 POP JUMP JUMPDEST PUSH1 0x0 DUP3 DUP3 MSTORE PUSH1 0x20 DUP3 ADD SWAP1 POP SWAP3 SWAP2 POP POP JUMP JUMPDEST PUSH32 0x4164647265737365732063616E6E6F74206265207A65726F0000000000000000 PUSH1 0x0 DUP3 ADD MSTORE POP JUMP JUMPDEST PUSH1 0x0 PUSH3 0x3F1 PUSH1 0x18 DUP4 PUSH3 0x3A8 JUMP JUMPDEST SWAP2 POP PUSH3 0x3FE DUP3 PUSH3 0x3B9 JUMP JUMPDEST PUSH1 0x20 DUP3 ADD SWAP1 POP SWAP2 SWAP1 POP JUMP JUMPDEST PUSH1 0x0 PUSH1 0x20 DUP3 ADD SWAP1 POP DUP2 DUP2 SUB PUSH1 0x0 DUP4 ADD MSTORE PUSH3 0x424 DUP2 PUSH3 0x3E2 JUMP JUMPDEST SWAP1 POP SWAP2 SWAP1 POP JUMP JUMPDEST PUSH2 0x1F38 DUP1 PUSH3 0x43B PUSH1 0x0 CODECOPY PUSH1 0x0 RETURN INVALID PUSH1 0x80 PUSH1 0x40 MSTORE PUSH1 0x4 CALLDATASIZE LT PUSH2 0xFE JUMPI PUSH1 0x0 CALLDATALOAD PUSH1 0xE0 SHR DUP1 PUSH4 0x8A71BB2D GT PUSH2 0x95 JUMPI DUP1 PUSH4 0xCDD78CFC GT PUSH2 0x64 JUMPI DUP1 PUSH4 0xCDD78CFC EQ PUSH2 0x2B6 JUMPI DUP1 PUSH4 0xDE74E57B EQ PUSH2 0x2E1 JUMPI DUP1 PUSH4 0xE3B6A1F6 EQ PUSH2 0x322 JUMPI DUP1 PUSH4 0xED14834F EQ PUSH2 0x35F JUMPI DUP1 PUSH4 0xF2FDE38B EQ PUSH2 0x38A JUMPI PUSH2 0xFE JUMP JUMPDEST DUP1 PUSH4 0x8A71BB2D EQ PUSH2 0x20A JUMPI DUP1 PUSH4 0x8DA5CB5B EQ PUSH2 0x235 JUMPI DUP1 PUSH4 0xAACCF1EC EQ PUSH2 0x260 JUMPI DUP1 PUSH4 0xAD2F852A EQ PUSH2 0x28B JUMPI PUSH2 0xFE JUMP JUMPDEST DUP1 PUSH4 0x5E4E8D65 GT PUSH2 0xD1 JUMPI DUP1 PUSH4 0x5E4E8D65 EQ PUSH2 0x18A JUMPI DUP1 PUSH4 0x715018A6 EQ PUSH2 0x1B3 JUMPI DUP1 PUSH4 0x78578BB3 EQ PUSH2 0x1CA JUMPI DUP1 PUSH4 0x8456CB59 EQ PUSH2 0x1F3 JUMPI PUSH2 0xFE JUMP JUMPDEST DUP1 PUSH4 0x3C44A5F0 EQ PUSH2 0x103 JUMPI DUP1 PUSH4 0x3F4BA83A EQ PUSH2 0x12C JUMPI DUP1 PUSH4 0x51ED8288 EQ PUSH2 0x143 JUMPI DUP1 PUSH4 0x5C975ABB EQ PUSH2 0x15F JUMPI JUMPDEST PUSH1 0x0 DUP1 REVERT JUMPDEST CALLVALUE DUP1 ISZERO PUSH2 0x10F JUMPI PUSH1 0x0 DUP1 REVERT JUMPDEST POP PUSH2 0x12A PUSH1 0x4 DUP1 CALLDATASIZE SUB DUP2 ADD SWAP1 PUSH2 0x125 SWAP2 SWAP1 PUSH2 0x140A JUMP JUMPDEST PUSH2 0x3B3 JUMP JUMPDEST STOP JUMPDEST CALLVALUE DUP1 ISZERO PUSH2 0x138 JUMPI PUSH1 0x0 DUP1 REVERT JUMPDEST POP PUSH2 0x141 PUSH2 0x720 JUMP JUMPDEST STOP JUMPDEST PUSH2 0x15D PUSH1 0x4 DUP1 CALLDATASIZE SUB DUP2 ADD SWAP1 PUSH2 0x158 SWAP2 SWAP1 PUSH2 0x1471 JUMP JUMPDEST PUSH2 0x742 JUMP JUMPDEST STOP JUMPDEST CALLVALUE DUP1 ISZERO PUSH2 0x16B JUMPI PUSH1 0x0 DUP1 REVERT JUMPDEST POP PUSH2 0x174 PUSH2 0xD14 JUMP JUMPDEST PUSH1 0x40 MLOAD PUSH2 0x181 SWAP2 SWAP1 PUSH2 0x14B9 JUMP JUMPDEST PUSH1 0x40 MLOAD DUP1 SWAP2 SUB SWAP1 RETURN JUMPDEST CALLVALUE DUP1 ISZERO PUSH2 0x196 JUMPI PUSH1 0x0 DUP1 REVERT JUMPDEST POP PUSH2 0x1B1 PUSH1 0x4 DUP1 CALLDATASIZE SUB DUP2 ADD SWAP1 PUSH2 0x1AC SWAP2 SWAP1 PUSH2 0x14D4 JUMP JUMPDEST PUSH2 0xD2B JUMP JUMPDEST STOP JUMPDEST CALLVALUE DUP1 ISZERO PUSH2 0x1BF JUMPI PUSH1 0x0 DUP1 REVERT JUMPDEST POP PUSH2 0x1C8 PUSH2 0xE72 JUMP JUMPDEST STOP JUMPDEST CALLVALUE DUP1 ISZERO PUSH2 0x1D6 JUMPI PUSH1 0x0 DUP1 REVERT JUMPDEST POP PUSH2 0x1F1 PUSH1 0x4 DUP1 CALLDATASIZE SUB DUP2 ADD SWAP1 PUSH2 0x1EC SWAP2 SWAP1 PUSH2 0x1514 JUMP JUMPDEST PUSH2 0xE86 JUMP JUMPDEST STOP JUMPDEST CALLVALUE DUP1 ISZERO PUSH2 0x1FF JUMPI PUSH1 0x0 DUP1 REVERT JUMPDEST POP PUSH2 0x208 PUSH2 0xEB0 JUMP JUMPDEST STOP JUMPDEST CALLVALUE DUP1 ISZERO PUSH2 0x216 JUMPI PUSH1 0x0 DUP1 REVERT JUMPDEST POP PUSH2 0x21F PUSH2 0xED2 JUMP JUMPDEST PUSH1 0x40 MLOAD PUSH2 0x22C SWAP2 SWAP1 PUSH2 0x1563 JUMP JUMPDEST PUSH1 0x40 MLOAD DUP1 SWAP2 SUB SWAP1 RETURN JUMPDEST CALLVALUE DUP1 ISZERO PUSH2 0x241 JUMPI PUSH1 0x0 DUP1 REVERT JUMPDEST POP PUSH2 0x24A PUSH2 0xED8 JUMP JUMPDEST PUSH1 0x40 MLOAD PUSH2 0x257 SWAP2 SWAP1 PUSH2 0x158D JUMP JUMPDEST PUSH1 0x40 MLOAD DUP1 SWAP2 SUB SWAP1 RETURN JUMPDEST CALLVALUE DUP1 ISZERO PUSH2 0x26C JUMPI PUSH1 0x0 DUP1 REVERT JUMPDEST POP PUSH2 0x275 PUSH2 0xF01 JUMP JUMPDEST PUSH1 0x40 MLOAD PUSH2 0x282 SWAP2 SWAP1 PUSH2 0x1563 JUMP JUMPDEST PUSH1 0x40 MLOAD DUP1 SWAP2 SUB SWAP1 RETURN JUMPDEST CALLVALUE DUP1 ISZERO PUSH2 0x297 JUMPI PUSH1 0x0 DUP1 REVERT JUMPDEST POP PUSH2 0x2A0 PUSH2 0xF07 JUMP JUMPDEST PUSH1 0x40 MLOAD PUSH2 0x2AD SWAP2 SWAP1 PUSH2 0x158D JUMP JUMPDEST PUSH1 0x40 MLOAD DUP1 SWAP2 SUB SWAP1 RETURN JUMPDEST CALLVALUE DUP1 ISZERO PUSH2 0x2C2 JUMPI PUSH1 0x0 DUP1 REVERT JUMPDEST POP PUSH2 0x2CB PUSH2 0xF2D JUMP JUMPDEST PUSH1 0x40 MLOAD PUSH2 0x2D8 SWAP2 SWAP1 PUSH2 0x1563 JUMP JUMPDEST PUSH1 0x40 MLOAD DUP1 SWAP2 SUB SWAP1 RETURN JUMPDEST CALLVALUE DUP1 ISZERO PUSH2 0x2ED JUMPI PUSH1 0x0 DUP1 REVERT JUMPDEST POP PUSH2 0x308 PUSH1 0x4 DUP1 CALLDATASIZE SUB DUP2 ADD SWAP1 PUSH2 0x303 SWAP2 SWAP1 PUSH2 0x1471 JUMP JUMPDEST PUSH2 0xF33 JUMP JUMPDEST PUSH1 0x40 MLOAD PUSH2 0x319 SWAP6 SWAP5 SWAP4 SWAP3 SWAP2 SWAP1 PUSH2 0x15A8 JUMP JUMPDEST PUSH1 0x40 MLOAD DUP1 SWAP2 SUB SWAP1 RETURN JUMPDEST CALLVALUE DUP1 ISZERO PUSH2 0x32E JUMPI PUSH1 0x0 DUP1 REVERT JUMPDEST POP PUSH2 0x349 PUSH1 0x4 DUP1 CALLDATASIZE SUB DUP2 ADD SWAP1 PUSH2 0x344 SWAP2 SWAP1 PUSH2 0x1471 JUMP JUMPDEST PUSH2 0xFA9 JUMP JUMPDEST PUSH1 0x40 MLOAD PUSH2 0x356 SWAP2 SWAP1 PUSH2 0x1563 JUMP JUMPDEST PUSH1 0x40 MLOAD DUP1 SWAP2 SUB SWAP1 RETURN JUMPDEST CALLVALUE DUP1 ISZERO PUSH2 0x36B JUMPI PUSH1 0x0 DUP1 REVERT JUMPDEST POP PUSH2 0x374 PUSH2 0xFCD JUMP JUMPDEST PUSH1 0x40 MLOAD PUSH2 0x381 SWAP2 SWAP1 PUSH2 0x158D JUMP JUMPDEST PUSH1 0x40 MLOAD DUP1 SWAP2 SUB SWAP1 RETURN JUMPDEST CALLVALUE DUP1 ISZERO PUSH2 0x396 JUMPI PUSH1 0x0 DUP1 REVERT JUMPDEST POP PUSH2 0x3B1 PUSH1 0x4 DUP1 CALLDATASIZE SUB DUP2 ADD SWAP1 PUSH2 0x3AC SWAP2 SWAP1 PUSH2 0x15FB JUMP JUMPDEST PUSH2 0xFF3 JUMP JUMPDEST STOP JUMPDEST PUSH2 0x3BB PUSH2 0x1076 JUMP JUMPDEST PUSH2 0x3C3 PUSH2 0x10C0 JUMP JUMPDEST PUSH1 0x0 DUP3 GT PUSH2 0x406 JUMPI PUSH1 0x40 MLOAD PUSH32 0x8C379A000000000000000000000000000000000000000000000000000000000 DUP2 MSTORE PUSH1 0x4 ADD PUSH2 0x3FD SWAP1 PUSH2 0x1685 JUMP JUMPDEST PUSH1 0x40 MLOAD DUP1 SWAP2 SUB SWAP1 REVERT JUMPDEST PUSH1 0x0 DUP2 GT PUSH2 0x449 JUMPI PUSH1 0x40 MLOAD PUSH32 0x8C379A000000000000000000000000000000000000000000000000000000000 DUP2 MSTORE PUSH1 0x4 ADD PUSH2 0x440 SWAP1 PUSH2 0x1717 JUMP JUMPDEST PUSH1 0x40 MLOAD DUP1 SWAP2 SUB SWAP1 REVERT JUMPDEST PUSH1 0x0 DUP5 SWAP1 POP CALLER PUSH20 0xFFFFFFFFFFFFFFFFFFFFFFFFFFFFFFFFFFFFFFFF AND DUP2 PUSH20 0xFFFFFFFFFFFFFFFFFFFFFFFFFFFFFFFFFFFFFFFF AND PUSH4 0x6352211E DUP7 PUSH1 0x40 MLOAD DUP3 PUSH4 0xFFFFFFFF AND PUSH1 0xE0 SHL DUP2 MSTORE PUSH1 0x4 ADD PUSH2 0x49E SWAP2 SWAP1 PUSH2 0x1563 JUMP JUMPDEST PUSH1 0x20 PUSH1 0x40 MLOAD DUP1 DUP4 SUB DUP2 DUP7 GAS STATICCALL ISZERO DUP1 ISZERO PUSH2 0x4BB JUMPI RETURNDATASIZE PUSH1 0x0 DUP1 RETURNDATACOPY RETURNDATASIZE PUSH1 0x0 REVERT JUMPDEST POP POP POP POP PUSH1 0x40 MLOAD RETURNDATASIZE PUSH1 0x1F NOT PUSH1 0x1F DUP3 ADD AND DUP3 ADD DUP1 PUSH1 0x40 MSTORE POP DUP2 ADD SWAP1 PUSH2 0x4DF SWAP2 SWAP1 PUSH2 0x174C JUMP JUMPDEST PUSH20 0xFFFFFFFFFFFFFFFFFFFFFFFFFFFFFFFFFFFFFFFF AND EQ PUSH2 0x535 JUMPI PUSH1 0x40 MLOAD PUSH32 0x8C379A000000000000000000000000000000000000000000000000000000000 DUP2 MSTORE PUSH1 0x4 ADD PUSH2 0x52C SWAP1 PUSH2 0x17C5 JUMP JUMPDEST PUSH1 0x40 MLOAD DUP1 SWAP2 SUB SWAP1 REVERT JUMPDEST PUSH1 0x40 MLOAD DUP1 PUSH1 0xA0 ADD PUSH1 0x40 MSTORE DUP1 DUP7 PUSH20 0xFFFFFFFFFFFFFFFFFFFFFFFFFFFFFFFFFFFFFFFF AND DUP2 MSTORE PUSH1 0x20 ADD DUP6 DUP2 MSTORE PUSH1 0x20 ADD CALLER PUSH20 0xFFFFFFFFFFFFFFFFFFFFFFFFFFFFFFFFFFFFFFFF AND DUP2 MSTORE PUSH1 0x20 ADD DUP5 DUP2 MSTORE PUSH1 0x20 ADD DUP4 TIMESTAMP PUSH2 0x590 SWAP2 SWAP1 PUSH2 0x1814 JUMP JUMPDEST DUP2 MSTORE POP PUSH1 0x8 PUSH1 0x0 PUSH1 0x9 SLOAD DUP2 MSTORE PUSH1 0x20 ADD SWAP1 DUP2 MSTORE PUSH1 0x20 ADD PUSH1 0x0 KECCAK256 PUSH1 0x0 DUP3 ADD MLOAD DUP2 PUSH1 0x0 ADD PUSH1 0x0 PUSH2 0x100 EXP DUP2 SLOAD DUP2 PUSH20 0xFFFFFFFFFFFFFFFFFFFFFFFFFFFFFFFFFFFFFFFF MUL NOT AND SWAP1 DUP4 PUSH20 0xFFFFFFFFFFFFFFFFFFFFFFFFFFFFFFFFFFFFFFFF AND MUL OR SWAP1 SSTORE POP PUSH1 0x20 DUP3 ADD MLOAD DUP2 PUSH1 0x1 ADD SSTORE PUSH1 0x40 DUP3 ADD MLOAD DUP2 PUSH1 0x2 ADD PUSH1 0x0 PUSH2 0x100 EXP DUP2 SLOAD DUP2 PUSH20 0xFFFFFFFFFFFFFFFFFFFFFFFFFFFFFFFFFFFFFFFF MUL NOT AND SWAP1 DUP4 PUSH20 0xFFFFFFFFFFFFFFFFFFFFFFFFFFFFFFFFFFFFFFFF AND MUL OR SWAP1 SSTORE POP PUSH1 0x60 DUP3 ADD MLOAD DUP2 PUSH1 0x3 ADD SSTORE PUSH1 0x80 DUP3 ADD MLOAD DUP2 PUSH1 0x4 ADD SSTORE SWAP1 POP POP PUSH1 0x3 PUSH1 0x9 SLOAD SWAP1 DUP1 PUSH1 0x1 DUP2 SLOAD ADD DUP1 DUP3 SSTORE DUP1 SWAP2 POP POP PUSH1 0x1 SWAP1 SUB SWAP1 PUSH1 0x0 MSTORE PUSH1 0x20 PUSH1 0x0 KECCAK256 ADD PUSH1 0x0 SWAP1 SWAP2 SWAP1 SWAP2 SWAP1 SWAP2 POP SSTORE DUP5 PUSH20 0xFFFFFFFFFFFFFFFFFFFFFFFFFFFFFFFFFFFFFFFF AND CALLER PUSH20 0xFFFFFFFFFFFFFFFFFFFFFFFFFFFFFFFFFFFFFFFF AND PUSH1 0x9 SLOAD PUSH32 0xF33C76FEC15A03B2E414DF8C9DCE93F5B05F8672742E0F1EB558B2161162DFCB DUP8 DUP8 DUP8 TIMESTAMP PUSH2 0x6E2 SWAP2 SWAP1 PUSH2 0x1814 JUMP JUMPDEST PUSH1 0x40 MLOAD PUSH2 0x6F1 SWAP4 SWAP3 SWAP2 SWAP1 PUSH2 0x1848 JUMP JUMPDEST PUSH1 0x40 MLOAD DUP1 SWAP2 SUB SWAP1 LOG4 PUSH1 0x9 PUSH1 0x0 DUP2 SLOAD DUP1 SWAP3 SWAP2 SWAP1 PUSH2 0x70C SWAP1 PUSH2 0x187F JUMP JUMPDEST SWAP2 SWAP1 POP SSTORE POP POP PUSH2 0x71A PUSH2 0x110F JUMP JUMPDEST POP POP POP POP JUMP JUMPDEST PUSH2 0x728 PUSH2 0x1118 JUMP JUMPDEST PUSH2 0x730 PUSH2 0x10C0 JUMP JUMPDEST PUSH2 0x738 PUSH2 0x1196 JUMP JUMPDEST PUSH2 0x740 PUSH2 0x110F JUMP JUMPDEST JUMP JUMPDEST PUSH2 0x74A PUSH2 0x1076 JUMP JUMPDEST PUSH2 0x752 PUSH2 0x10C0 JUMP JUMPDEST PUSH1 0x0 DUP1 CALLVALUE GT PUSH2 0x796 JUMPI PUSH1 0x40 MLOAD PUSH32 0x8C379A000000000000000000000000000000000000000000000000000000000 DUP2 MSTORE PUSH1 0x4 ADD PUSH2 0x78D SWAP1 PUSH2 0x1939 JUMP JUMPDEST PUSH1 0x40 MLOAD DUP1 SWAP2 SUB SWAP1 REVERT JUMPDEST PUSH1 0x0 PUSH1 0x8 PUSH1 0x0 DUP5 DUP2 MSTORE PUSH1 0x20 ADD SWAP1 DUP2 MSTORE PUSH1 0x20 ADD PUSH1 0x0 KECCAK256 SWAP1 POP PUSH1 0x0 PUSH20 0xFFFFFFFFFFFFFFFFFFFFFFFFFFFFFFFFFFFFFFFF AND DUP2 PUSH1 0x2 ADD PUSH1 0x0 SWAP1 SLOAD SWAP1 PUSH2 0x100 EXP SWAP1 DIV PUSH20 0xFFFFFFFFFFFFFFFFFFFFFFFFFFFFFFFFFFFFFFFF AND PUSH20 0xFFFFFFFFFFFFFFFFFFFFFFFFFFFFFFFFFFFFFFFF AND SUB PUSH2 0x840 JUMPI PUSH1 0x40 MLOAD PUSH32 0x8C379A000000000000000000000000000000000000000000000000000000000 DUP2 MSTORE PUSH1 0x4 ADD PUSH2 0x837 SWAP1 PUSH2 0x19A5 JUMP JUMPDEST PUSH1 0x40 MLOAD DUP1 SWAP2 SUB SWAP1 REVERT JUMPDEST DUP1 PUSH1 0x4 ADD SLOAD TIMESTAMP GT ISZERO PUSH2 0x887 JUMPI PUSH1 0x40 MLOAD PUSH32 0x8C379A000000000000000000000000000000000000000000000000000000000 DUP2 MSTORE PUSH1 0x4 ADD PUSH2 0x87E SWAP1 PUSH2 0x1A11 JUMP JUMPDEST PUSH1 0x40 MLOAD DUP1 SWAP2 SUB SWAP1 REVERT JUMPDEST DUP1 PUSH1 0x3 ADD SLOAD CALLVALUE EQ PUSH2 0x8CD JUMPI PUSH1 0x40 MLOAD PUSH32 0x8C379A000000000000000000000000000000000000000000000000000000000 DUP2 MSTORE PUSH1 0x4 ADD PUSH2 0x8C4 SWAP1 PUSH2 0x1AA3 JUMP JUMPDEST PUSH1 0x40 MLOAD DUP1 SWAP2 SUB SWAP1 REVERT JUMPDEST PUSH1 0x0 DUP2 PUSH1 0x3 ADD SLOAD PUSH2 0x2710 PUSH1 0x4 SLOAD PUSH2 0x8E4 SWAP2 SWAP1 PUSH2 0x1AF2 JUMP JUMPDEST PUSH2 0x8EE SWAP2 SWAP1 PUSH2 0x1B23 JUMP JUMPDEST SWAP1 POP PUSH1 0x0 DUP3 PUSH1 0x3 ADD SLOAD PUSH2 0x2710 PUSH1 0x5 SLOAD PUSH2 0x907 SWAP2 SWAP1 PUSH2 0x1AF2 JUMP JUMPDEST PUSH2 0x911 SWAP2 SWAP1 PUSH2 0x1B23 JUMP JUMPDEST SWAP1 POP PUSH1 0x0 DUP2 DUP4 DUP6 PUSH1 0x3 ADD SLOAD PUSH2 0x926 SWAP2 SWAP1 PUSH2 0x1B7D JUMP JUMPDEST PUSH2 0x930 SWAP2 SWAP1 PUSH2 0x1B7D JUMP JUMPDEST SWAP1 POP DUP4 PUSH1 0x2 ADD PUSH1 0x0 SWAP1 SLOAD SWAP1 PUSH2 0x100 EXP SWAP1 DIV PUSH20 0xFFFFFFFFFFFFFFFFFFFFFFFFFFFFFFFFFFFFFFFF AND SWAP5 POP PUSH1 0x0 DUP5 PUSH1 0x0 ADD PUSH1 0x0 SWAP1 SLOAD SWAP1 PUSH2 0x100 EXP SWAP1 DIV PUSH20 0xFFFFFFFFFFFFFFFFFFFFFFFFFFFFFFFFFFFFFFFF AND SWAP1 POP DUP6 PUSH20 0xFFFFFFFFFFFFFFFFFFFFFFFFFFFFFFFFFFFFFFFF AND DUP2 PUSH20 0xFFFFFFFFFFFFFFFFFFFFFFFFFFFFFFFFFFFFFFFF AND PUSH4 0x6352211E DUP8 PUSH1 0x1 ADD SLOAD PUSH1 0x40 MLOAD DUP3 PUSH4 0xFFFFFFFF AND PUSH1 0xE0 SHL DUP2 MSTORE PUSH1 0x4 ADD PUSH2 0x9D6 SWAP2 SWAP1 PUSH2 0x1563 JUMP JUMPDEST PUSH1 0x20 PUSH1 0x40 MLOAD DUP1 DUP4 SUB DUP2 DUP7 GAS STATICCALL ISZERO DUP1 ISZERO PUSH2 0x9F3 JUMPI RETURNDATASIZE PUSH1 0x0 DUP1 RETURNDATACOPY RETURNDATASIZE PUSH1 0x0 REVERT JUMPDEST POP POP POP POP PUSH1 0x40 MLOAD RETURNDATASIZE PUSH1 0x1F NOT PUSH1 0x1F DUP3 ADD AND DUP3 ADD DUP1 PUSH1 0x40 MSTORE POP DUP2 ADD SWAP1 PUSH2 0xA17 SWAP2 SWAP1 PUSH2 0x174C JUMP JUMPDEST PUSH20 0xFFFFFFFFFFFFFFFFFFFFFFFFFFFFFFFFFFFFFFFF AND EQ PUSH2 0xA6D JUMPI PUSH1 0x40 MLOAD PUSH32 0x8C379A000000000000000000000000000000000000000000000000000000000 DUP2 MSTORE PUSH1 0x4 ADD PUSH2 0xA64 SWAP1 PUSH2 0x1BFD JUMP JUMPDEST PUSH1 0x40 MLOAD DUP1 SWAP2 SUB SWAP1 REVERT JUMPDEST DUP1 PUSH20 0xFFFFFFFFFFFFFFFFFFFFFFFFFFFFFFFFFFFFFFFF AND PUSH4 0x42842E0E DUP8 CALLER DUP9 PUSH1 0x1 ADD SLOAD PUSH1 0x40 MLOAD DUP5 PUSH4 0xFFFFFFFF AND PUSH1 0xE0 SHL DUP2 MSTORE PUSH1 0x4 ADD PUSH2 0xAAE SWAP4 SWAP3 SWAP2 SWAP1 PUSH2 0x1C1D JUMP JUMPDEST PUSH1 0x0 PUSH1 0x40 MLOAD DUP1 DUP4 SUB DUP2 PUSH1 0x0 DUP8 DUP1 EXTCODESIZE ISZERO DUP1 ISZERO PUSH2 0xAC8 JUMPI PUSH1 0x0 DUP1 REVERT JUMPDEST POP GAS CALL ISZERO DUP1 ISZERO PUSH2 0xADC JUMPI RETURNDATASIZE PUSH1 0x0 DUP1 RETURNDATACOPY RETURNDATASIZE PUSH1 0x0 REVERT JUMPDEST POP POP POP POP DUP6 PUSH20 0xFFFFFFFFFFFFFFFFFFFFFFFFFFFFFFFFFFFFFFFF AND PUSH2 0x8FC DUP4 SWAP1 DUP2 ISZERO MUL SWAP1 PUSH1 0x40 MLOAD PUSH1 0x0 PUSH1 0x40 MLOAD DUP1 DUP4 SUB DUP2 DUP6 DUP9 DUP9 CALL SWAP4 POP POP POP POP ISZERO DUP1 ISZERO PUSH2 0xB26 JUMPI RETURNDATASIZE PUSH1 0x0 DUP1 RETURNDATACOPY RETURNDATASIZE PUSH1 0x0 REVERT JUMPDEST POP PUSH1 0x6 PUSH1 0x0 SWAP1 SLOAD SWAP1 PUSH2 0x100 EXP SWAP1 DIV PUSH20 0xFFFFFFFFFFFFFFFFFFFFFFFFFFFFFFFFFFFFFFFF AND PUSH20 0xFFFFFFFFFFFFFFFFFFFFFFFFFFFFFFFFFFFFFFFF AND PUSH2 0x8FC DUP6 SWAP1 DUP2 ISZERO MUL SWAP1 PUSH1 0x40 MLOAD PUSH1 0x0 PUSH1 0x40 MLOAD DUP1 DUP4 SUB DUP2 DUP6 DUP9 DUP9 CALL SWAP4 POP POP POP POP ISZERO DUP1 ISZERO PUSH2 0xB8F JUMPI RETURNDATASIZE PUSH1 0x0 DUP1 RETURNDATACOPY RETURNDATASIZE PUSH1 0x0 REVERT JUMPDEST POP PUSH1 0x7 PUSH1 0x0 SWAP1 SLOAD SWAP1 PUSH2 0x100 EXP SWAP1 DIV PUSH20 0xFFFFFFFFFFFFFFFFFFFFFFFFFFFFFFFFFFFFFFFF AND PUSH20 0xFFFFFFFFFFFFFFFFFFFFFFFFFFFFFFFFFFFFFFFF AND PUSH2 0x8FC DUP5 SWAP1 DUP2 ISZERO MUL SWAP1 PUSH1 0x40 MLOAD PUSH1 0x0 PUSH1 0x40 MLOAD DUP1 DUP4 SUB DUP2 DUP6 DUP9 DUP9 CALL SWAP4 POP POP POP POP ISZERO DUP1 ISZERO PUSH2 0xBF8 JUMPI RETURNDATASIZE PUSH1 0x0 DUP1 RETURNDATACOPY RETURNDATASIZE PUSH1 0x0 REVERT JUMPDEST POP CALLER PUSH20 0xFFFFFFFFFFFFFFFFFFFFFFFFFFFFFFFFFFFFFFFF AND DUP6 PUSH1 0x2 ADD PUSH1 0x0 SWAP1 SLOAD SWAP1 PUSH2 0x100 EXP SWAP1 DIV PUSH20 0xFFFFFFFFFFFFFFFFFFFFFFFFFFFFFFFFFFFFFFFF AND PUSH20 0xFFFFFFFFFFFFFFFFFFFFFFFFFFFFFFFFFFFFFFFF AND DUP9 PUSH32 0x8562EB94748E30BB0071E932744CE902B460C683474FCB3BFD567FFA16B1AFB2 DUP9 PUSH1 0x3 ADD SLOAD PUSH1 0x40 MLOAD PUSH2 0xC7F SWAP2 SWAP1 PUSH2 0x1563 JUMP JUMPDEST PUSH1 0x40 MLOAD DUP1 SWAP2 SUB SWAP1 LOG4 PUSH1 0x8 PUSH1 0x0 DUP9 DUP2 MSTORE PUSH1 0x20 ADD SWAP1 DUP2 MSTORE PUSH1 0x20 ADD PUSH1 0x0 KECCAK256 PUSH1 0x0 DUP1 DUP3 ADD PUSH1 0x0 PUSH2 0x100 EXP DUP2 SLOAD SWAP1 PUSH20 0xFFFFFFFFFFFFFFFFFFFFFFFFFFFFFFFFFFFFFFFF MUL NOT AND SWAP1 SSTORE PUSH1 0x1 DUP3 ADD PUSH1 0x0 SWAP1 SSTORE PUSH1 0x2 DUP3 ADD PUSH1 0x0 PUSH2 0x100 EXP DUP2 SLOAD SWAP1 PUSH20 0xFFFFFFFFFFFFFFFFFFFFFFFFFFFFFFFFFFFFFFFF MUL NOT AND SWAP1 SSTORE PUSH1 0x3 DUP3 ADD PUSH1 0x0 SWAP1 SSTORE PUSH1 0x4 DUP3 ADD PUSH1 0x0 SWAP1 SSTORE POP POP POP POP POP POP POP POP PUSH2 0xD11 PUSH2 0x110F JUMP JUMPDEST POP JUMP JUMPDEST PUSH1 0x0 PUSH1 0x2 PUSH1 0x0 SWAP1 SLOAD SWAP1 PUSH2 0x100 EXP SWAP1 DIV PUSH1 0xFF AND SWAP1 POP SWAP1 JUMP JUMPDEST PUSH2 0xD33 PUSH2 0x1118 JUMP JUMPDEST PUSH2 0xD3B PUSH2 0x10C0 JUMP JUMPDEST PUSH1 0x0 PUSH20 0xFFFFFFFFFFFFFFFFFFFFFFFFFFFFFFFFFFFFFFFF AND DUP3 PUSH20 0xFFFFFFFFFFFFFFFFFFFFFFFFFFFFFFFFFFFFFFFF AND EQ ISZERO DUP1 ISZERO PUSH2 0xDA5 JUMPI POP PUSH1 0x0 PUSH20 0xFFFFFFFFFFFFFFFFFFFFFFFFFFFFFFFFFFFFFFFF AND DUP2 PUSH20 0xFFFFFFFFFFFFFFFFFFFFFFFFFFFFFFFFFFFFFFFF AND EQ ISZERO JUMPDEST PUSH2 0xDE4 JUMPI PUSH1 0x40 MLOAD PUSH32 0x8C379A000000000000000000000000000000000000000000000000000000000 DUP2 MSTORE PUSH1 0x4 ADD PUSH2 0xDDB SWAP1 PUSH2 0x1CA0 JUMP JUMPDEST PUSH1 0x40 MLOAD DUP1 SWAP2 SUB SWAP1 REVERT JUMPDEST DUP2 PUSH1 0x6 PUSH1 0x0 PUSH2 0x100 EXP DUP2 SLOAD DUP2 PUSH20 0xFFFFFFFFFFFFFFFFFFFFFFFFFFFFFFFFFFFFFFFF MUL NOT AND SWAP1 DUP4 PUSH20 0xFFFFFFFFFFFFFFFFFFFFFFFFFFFFFFFFFFFFFFFF AND MUL OR SWAP1 SSTORE POP DUP1 PUSH1 0x7 PUSH1 0x0 PUSH2 0x100 EXP DUP2 SLOAD DUP2 PUSH20 0xFFFFFFFFFFFFFFFFFFFFFFFFFFFFFFFFFFFFFFFF MUL NOT AND SWAP1 DUP4 PUSH20 0xFFFFFFFFFFFFFFFFFFFFFFFFFFFFFFFFFFFFFFFF AND MUL OR SWAP1 SSTORE POP PUSH2 0xE6E PUSH2 0x110F JUMP JUMPDEST POP POP JUMP JUMPDEST PUSH2 0xE7A PUSH2 0x1118 JUMP JUMPDEST PUSH2 0xE84 PUSH1 0x0 PUSH2 0x11F9 JUMP JUMPDEST JUMP JUMPDEST PUSH2 0xE8E PUSH2 0x1118 JUMP JUMPDEST PUSH2 0xE96 PUSH2 0x10C0 JUMP JUMPDEST DUP2 PUSH1 0x4 DUP2 SWAP1 SSTORE POP DUP1 PUSH1 0x5 DUP2 SWAP1 SSTORE POP PUSH2 0xEAC PUSH2 0x110F JUMP JUMPDEST POP POP JUMP JUMPDEST PUSH2 0xEB8 PUSH2 0x1118 JUMP JUMPDEST PUSH2 0xEC0 PUSH2 0x10C0 JUMP JUMPDEST PUSH2 0xEC8 PUSH2 0x12BD JUMP JUMPDEST PUSH2 0xED0 PUSH2 0x110F JUMP JUMPDEST JUMP JUMPDEST PUSH1 0x4 SLOAD DUP2 JUMP JUMPDEST PUSH1 0x0 DUP1 PUSH1 0x0 SWAP1 SLOAD SWAP1 PUSH2 0x100 EXP SWAP1 DIV PUSH20 0xFFFFFFFFFFFFFFFFFFFFFFFFFFFFFFFFFFFFFFFF AND SWAP1 POP SWAP1 JUMP JUMPDEST PUSH1 0x9 SLOAD DUP2 JUMP JUMPDEST PUSH1 0x6 PUSH1 0x0 SWAP1 SLOAD SWAP1 PUSH2 0x100 EXP SWAP1 DIV PUSH20 0xFFFFFFFFFFFFFFFFFFFFFFFFFFFFFFFFFFFFFFFF AND DUP2 JUMP JUMPDEST PUSH1 0x5 SLOAD DUP2 JUMP JUMPDEST PUSH1 0x8 PUSH1 0x20 MSTORE DUP1 PUSH1 0x0 MSTORE PUSH1 0x40 PUSH1 0x0 KECCAK256 PUSH1 0x0 SWAP2 POP SWAP1 POP DUP1 PUSH1 0x0 ADD PUSH1 0x0 SWAP1 SLOAD SWAP1 PUSH2 0x100 EXP SWAP1 DIV PUSH20 0xFFFFFFFFFFFFFFFFFFFFFFFFFFFFFFFFFFFFFFFF AND SWAP1 DUP1 PUSH1 0x1 ADD SLOAD SWAP1 DUP1 PUSH1 0x2 ADD PUSH1 0x0 SWAP1 SLOAD SWAP1 PUSH2 0x100 EXP SWAP1 DIV PUSH20 0xFFFFFFFFFFFFFFFFFFFFFFFFFFFFFFFFFFFFFFFF AND SWAP1 DUP1 PUSH1 0x3 ADD SLOAD SWAP1 DUP1 PUSH1 0x4 ADD SLOAD SWAP1 POP DUP6 JUMP JUMPDEST PUSH1 0x3 DUP2 DUP2 SLOAD DUP2 LT PUSH2 0xFB9 JUMPI PUSH1 0x0 DUP1 REVERT JUMPDEST SWAP1 PUSH1 0x0 MSTORE PUSH1 0x20 PUSH1 0x0 KECCAK256 ADD PUSH1 0x0 SWAP2 POP SWAP1 POP SLOAD DUP2 JUMP JUMPDEST PUSH1 0x7 PUSH1 0x0 SWAP1 SLOAD SWAP1 PUSH2 0x100 EXP SWAP1 DIV PUSH20 0xFFFFFFFFFFFFFFFFFFFFFFFFFFFFFFFFFFFFFFFF AND DUP2 JUMP JUMPDEST PUSH2 0xFFB PUSH2 0x1118 JUMP JUMPDEST PUSH1 0x0 PUSH20 0xFFFFFFFFFFFFFFFFFFFFFFFFFFFFFFFFFFFFFFFF AND DUP2 PUSH20 0xFFFFFFFFFFFFFFFFFFFFFFFFFFFFFFFFFFFFFFFF AND SUB PUSH2 0x106A JUMPI PUSH1 0x40 MLOAD PUSH32 0x8C379A000000000000000000000000000000000000000000000000000000000 DUP2 MSTORE PUSH1 0x4 ADD PUSH2 0x1061 SWAP1 PUSH2 0x1D32 JUMP JUMPDEST PUSH1 0x40 MLOAD DUP1 SWAP2 SUB SWAP1 REVERT JUMPDEST PUSH2 0x1073 DUP2 PUSH2 0x11F9 JUMP JUMPDEST POP JUMP JUMPDEST PUSH2 0x107E PUSH2 0xD14 JUMP JUMPDEST ISZERO PUSH2 0x10BE JUMPI PUSH1 0x40 MLOAD PUSH32 0x8C379A000000000000000000000000000000000000000000000000000000000 DUP2 MSTORE PUSH1 0x4 ADD PUSH2 0x10B5 SWAP1 PUSH2 0x1D9E JUMP JUMPDEST PUSH1 0x40 MLOAD DUP1 SWAP2 SUB SWAP1 REVERT JUMPDEST JUMP JUMPDEST PUSH1 0x2 PUSH1 0x1 SLOAD SUB PUSH2 0x1105 JUMPI PUSH1 0x40 MLOAD PUSH32 0x8C379A000000000000000000000000000000000000000000000000000000000 DUP2 MSTORE PUSH1 0x4 ADD PUSH2 0x10FC SWAP1 PUSH2 0x1E0A JUMP JUMPDEST PUSH1 0x40 MLOAD DUP1 SWAP2 SUB SWAP1 REVERT JUMPDEST PUSH1 0x2 PUSH1 0x1 DUP2 SWAP1 SSTORE POP JUMP JUMPDEST PUSH1 0x1 DUP1 DUP2 SWAP1 SSTORE POP JUMP JUMPDEST PUSH2 0x1120 PUSH2 0x1320 JUMP JUMPDEST PUSH20 0xFFFFFFFFFFFFFFFFFFFFFFFFFFFFFFFFFFFFFFFF AND PUSH2 0x113E PUSH2 0xED8 JUMP JUMPDEST PUSH20 0xFFFFFFFFFFFFFFFFFFFFFFFFFFFFFFFFFFFFFFFF AND EQ PUSH2 0x1194 JUMPI PUSH1 0x40 MLOAD PUSH32 0x8C379A000000000000000000000000000000000000000000000000000000000 DUP2 MSTORE PUSH1 0x4 ADD PUSH2 0x118B SWAP1 PUSH2 0x1E76 JUMP JUMPDEST PUSH1 0x40 MLOAD DUP1 SWAP2 SUB SWAP1 REVERT JUMPDEST JUMP JUMPDEST PUSH2 0x119E PUSH2 0x1328 JUMP JUMPDEST PUSH1 0x0 PUSH1 0x2 PUSH1 0x0 PUSH2 0x100 EXP DUP2 SLOAD DUP2 PUSH1 0xFF MUL NOT AND SWAP1 DUP4 ISZERO ISZERO MUL OR SWAP1 SSTORE POP PUSH32 0x5DB9EE0A495BF2E6FF9C91A7834C1BA4FDD244A5E8AA4E537BD38AEAE4B073AA PUSH2 0x11E2 PUSH2 0x1320 JUMP JUMPDEST PUSH1 0x40 MLOAD PUSH2 0x11EF SWAP2 SWAP1 PUSH2 0x158D JUMP JUMPDEST PUSH1 0x40 MLOAD DUP1 SWAP2 SUB SWAP1 LOG1 JUMP JUMPDEST PUSH1 0x0 DUP1 PUSH1 0x0 SWAP1 SLOAD SWAP1 PUSH2 0x100 EXP SWAP1 DIV PUSH20 0xFFFFFFFFFFFFFFFFFFFFFFFFFFFFFFFFFFFFFFFF AND SWAP1 POP DUP2 PUSH1 0x0 DUP1 PUSH2 0x100 EXP DUP2 SLOAD DUP2 PUSH20 0xFFFFFFFFFFFFFFFFFFFFFFFFFFFFFFFFFFFFFFFF MUL NOT AND SWAP1 DUP4 PUSH20 0xFFFFFFFFFFFFFFFFFFFFFFFFFFFFFFFFFFFFFFFF AND MUL OR SWAP1 SSTORE POP DUP2 PUSH20 0xFFFFFFFFFFFFFFFFFFFFFFFFFFFFFFFFFFFFFFFF AND DUP2 PUSH20 0xFFFFFFFFFFFFFFFFFFFFFFFFFFFFFFFFFFFFFFFF AND PUSH32 0x8BE0079C531659141344CD1FD0A4F28419497F9722A3DAAFE3B4186F6B6457E0 PUSH1 0x40 MLOAD PUSH1 0x40 MLOAD DUP1 SWAP2 SUB SWAP1 LOG3 POP POP JUMP JUMPDEST PUSH2 0x12C5 PUSH2 0x1076 JUMP JUMPDEST PUSH1 0x1 PUSH1 0x2 PUSH1 0x0 PUSH2 0x100 EXP DUP2 SLOAD DUP2 PUSH1 0xFF MUL NOT AND SWAP1 DUP4 ISZERO ISZERO MUL OR SWAP1 SSTORE POP PUSH32 0x62E78CEA01BEE320CD4E420270B5EA74000D11B0C9F74754EBDBFC544B05A258 PUSH2 0x1309 PUSH2 0x1320 JUMP JUMPDEST PUSH1 0x40 MLOAD PUSH2 0x1316 SWAP2 SWAP1 PUSH2 0x158D JUMP JUMPDEST PUSH1 0x40 MLOAD DUP1 SWAP2 SUB SWAP1 LOG1 JUMP JUMPDEST PUSH1 0x0 CALLER SWAP1 POP SWAP1 JUMP JUMPDEST PUSH2 0x1330 PUSH2 0xD14 JUMP JUMPDEST PUSH2 0x136F JUMPI PUSH1 0x40 MLOAD PUSH32 0x8C379A000000000000000000000000000000000000000000000000000000000 DUP2 MSTORE PUSH1 0x4 ADD PUSH2 0x1366 SWAP1 PUSH2 0x1EE2 JUMP JUMPDEST PUSH1 0x40 MLOAD DUP1 SWAP2 SUB SWAP1 REVERT JUMPDEST JUMP JUMPDEST PUSH1 0x0 DUP1 REVERT JUMPDEST PUSH1 0x0 PUSH20 0xFFFFFFFFFFFFFFFFFFFFFFFFFFFFFFFFFFFFFFFF DUP3 AND SWAP1 POP SWAP2 SWAP1 POP JUMP JUMPDEST PUSH1 0x0 PUSH2 0x13A1 DUP3 PUSH2 0x1376 JUMP JUMPDEST SWAP1 POP SWAP2 SWAP1 POP JUMP JUMPDEST PUSH2 0x13B1 DUP2 PUSH2 0x1396 JUMP JUMPDEST DUP2 EQ PUSH2 0x13BC JUMPI PUSH1 0x0 DUP1 REVERT JUMPDEST POP JUMP JUMPDEST PUSH1 0x0 DUP2 CALLDATALOAD SWAP1 POP PUSH2 0x13CE DUP2 PUSH2 0x13A8 JUMP JUMPDEST SWAP3 SWAP2 POP POP JUMP JUMPDEST PUSH1 0x0 DUP2 SWAP1 POP SWAP2 SWAP1 POP JUMP JUMPDEST PUSH2 0x13E7 DUP2 PUSH2 0x13D4 JUMP JUMPDEST DUP2 EQ PUSH2 0x13F2 JUMPI PUSH1 0x0 DUP1 REVERT JUMPDEST POP JUMP JUMPDEST PUSH1 0x0 DUP2 CALLDATALOAD SWAP1 POP PUSH2 0x1404 DUP2 PUSH2 0x13DE JUMP JUMPDEST SWAP3 SWAP2 POP POP JUMP JUMPDEST PUSH1 0x0 DUP1 PUSH1 0x0 DUP1 PUSH1 0x80 DUP6 DUP8 SUB SLT ISZERO PUSH2 0x1424 JUMPI PUSH2 0x1423 PUSH2 0x1371 JUMP JUMPDEST JUMPDEST PUSH1 0x0 PUSH2 0x1432 DUP8 DUP3 DUP9 ADD PUSH2 0x13BF JUMP JUMPDEST SWAP5 POP POP PUSH1 0x20 PUSH2 0x1443 DUP8 DUP3 DUP9 ADD PUSH2 0x13F5 JUMP JUMPDEST SWAP4 POP POP PUSH1 0x40 PUSH2 0x1454 DUP8 DUP3 DUP9 ADD PUSH2 0x13F5 JUMP JUMPDEST SWAP3 POP POP PUSH1 0x60 PUSH2 0x1465 DUP8 DUP3 DUP9 ADD PUSH2 0x13F5 JUMP JUMPDEST SWAP2 POP POP SWAP3 SWAP6 SWAP2 SWAP5 POP SWAP3 POP JUMP JUMPDEST PUSH1 0x0 PUSH1 0x20 DUP3 DUP5 SUB SLT ISZERO PUSH2 0x1487 JUMPI PUSH2 0x1486 PUSH2 0x1371 JUMP JUMPDEST JUMPDEST PUSH1 0x0 PUSH2 0x1495 DUP5 DUP3 DUP6 ADD PUSH2 0x13F5 JUMP JUMPDEST SWAP2 POP POP SWAP3 SWAP2 POP POP JUMP JUMPDEST PUSH1 0x0 DUP2 ISZERO ISZERO SWAP1 POP SWAP2 SWAP1 POP JUMP JUMPDEST PUSH2 0x14B3 DUP2 PUSH2 0x149E JUMP JUMPDEST DUP3 MSTORE POP POP JUMP JUMPDEST PUSH1 0x0 PUSH1 0x20 DUP3 ADD SWAP1 POP PUSH2 0x14CE PUSH1 0x0 DUP4 ADD DUP5 PUSH2 0x14AA JUMP JUMPDEST SWAP3 SWAP2 POP POP JUMP JUMPDEST PUSH1 0x0 DUP1 PUSH1 0x40 DUP4 DUP6 SUB SLT ISZERO PUSH2 0x14EB JUMPI PUSH2 0x14EA PUSH2 0x1371 JUMP JUMPDEST JUMPDEST PUSH1 0x0 PUSH2 0x14F9 DUP6 DUP3 DUP7 ADD PUSH2 0x13BF JUMP JUMPDEST SWAP3 POP POP PUSH1 0x20 PUSH2 0x150A DUP6 DUP3 DUP7 ADD PUSH2 0x13BF JUMP JUMPDEST SWAP2 POP POP SWAP3 POP SWAP3 SWAP1 POP JUMP JUMPDEST PUSH1 0x0 DUP1 PUSH1 0x40 DUP4 DUP6 SUB SLT ISZERO PUSH2 0x152B JUMPI PUSH2 0x152A PUSH2 0x1371 JUMP JUMPDEST JUMPDEST PUSH1 0x0 PUSH2 0x1539 DUP6 DUP3 DUP7 ADD PUSH2 0x13F5 JUMP JUMPDEST SWAP3 POP POP PUSH1 0x20 PUSH2 0x154A DUP6 DUP3 DUP7 ADD PUSH2 0x13F5 JUMP JUMPDEST SWAP2 POP POP SWAP3 POP SWAP3 SWAP1 POP JUMP JUMPDEST PUSH2 0x155D DUP2 PUSH2 0x13D4 JUMP JUMPDEST DUP3 MSTORE POP POP JUMP JUMPDEST PUSH1 0x0 PUSH1 0x20 DUP3 ADD SWAP1 POP PUSH2 0x1578 PUSH1 0x0 DUP4 ADD DUP5 PUSH2 0x1554 JUMP JUMPDEST SWAP3 SWAP2 POP POP JUMP JUMPDEST PUSH2 0x1587 DUP2 PUSH2 0x1396 JUMP JUMPDEST DUP3 MSTORE POP POP JUMP JUMPDEST PUSH1 0x0 PUSH1 0x20 DUP3 ADD SWAP1 POP PUSH2 0x15A2 PUSH1 0x0 DUP4 ADD DUP5 PUSH2 0x157E JUMP JUMPDEST SWAP3 SWAP2 POP POP JUMP JUMPDEST PUSH1 0x0 PUSH1 0xA0 DUP3 ADD SWAP1 POP PUSH2 0x15BD PUSH1 0x0 DUP4 ADD DUP9 PUSH2 0x157E JUMP JUMPDEST PUSH2 0x15CA PUSH1 0x20 DUP4 ADD DUP8 PUSH2 0x1554 JUMP JUMPDEST PUSH2 0x15D7 PUSH1 0x40 DUP4 ADD DUP7 PUSH2 0x157E JUMP JUMPDEST PUSH2 0x15E4 PUSH1 0x60 DUP4 ADD DUP6 PUSH2 0x1554 JUMP JUMPDEST PUSH2 0x15F1 PUSH1 0x80 DUP4 ADD DUP5 PUSH2 0x1554 JUMP JUMPDEST SWAP7 SWAP6 POP POP POP POP POP POP JUMP JUMPDEST PUSH1 0x0 PUSH1 0x20 DUP3 DUP5 SUB SLT ISZERO PUSH2 0x1611 JUMPI PUSH2 0x1610 PUSH2 0x1371 JUMP JUMPDEST JUMPDEST PUSH1 0x0 PUSH2 0x161F DUP5 DUP3 DUP6 ADD PUSH2 0x13BF JUMP JUMPDEST SWAP2 POP POP SWAP3 SWAP2 POP POP JUMP JUMPDEST PUSH1 0x0 DUP3 DUP3 MSTORE PUSH1 0x20 DUP3 ADD SWAP1 POP SWAP3 SWAP2 POP POP JUMP JUMPDEST PUSH32 0x5072696365206D7573742062652067726561746572207468616E207A65726F2E PUSH1 0x0 DUP3 ADD MSTORE POP JUMP JUMPDEST PUSH1 0x0 PUSH2 0x166F PUSH1 0x20 DUP4 PUSH2 0x1628 JUMP JUMPDEST SWAP2 POP PUSH2 0x167A DUP3 PUSH2 0x1639 JUMP JUMPDEST PUSH1 0x20 DUP3 ADD SWAP1 POP SWAP2 SWAP1 POP JUMP JUMPDEST PUSH1 0x0 PUSH1 0x20 DUP3 ADD SWAP1 POP DUP2 DUP2 SUB PUSH1 0x0 DUP4 ADD MSTORE PUSH2 0x169E DUP2 PUSH2 0x1662 JUMP JUMPDEST SWAP1 POP SWAP2 SWAP1 POP JUMP JUMPDEST PUSH32 0x446561646C696E65206D7573742062652067726561746572207468616E207A65 PUSH1 0x0 DUP3 ADD MSTORE PUSH32 0x726F2E0000000000000000000000000000000000000000000000000000000000 PUSH1 0x20 DUP3 ADD MSTORE POP JUMP JUMPDEST PUSH1 0x0 PUSH2 0x1701 PUSH1 0x23 DUP4 PUSH2 0x1628 JUMP JUMPDEST SWAP2 POP PUSH2 0x170C DUP3 PUSH2 0x16A5 JUMP JUMPDEST PUSH1 0x40 DUP3 ADD SWAP1 POP SWAP2 SWAP1 POP JUMP JUMPDEST PUSH1 0x0 PUSH1 0x20 DUP3 ADD SWAP1 POP DUP2 DUP2 SUB PUSH1 0x0 DUP4 ADD MSTORE PUSH2 0x1730 DUP2 PUSH2 0x16F4 JUMP JUMPDEST SWAP1 POP SWAP2 SWAP1 POP JUMP JUMPDEST PUSH1 0x0 DUP2 MLOAD SWAP1 POP PUSH2 0x1746 DUP2 PUSH2 0x13A8 JUMP JUMPDEST SWAP3 SWAP2 POP POP JUMP JUMPDEST PUSH1 0x0 PUSH1 0x20 DUP3 DUP5 SUB SLT ISZERO PUSH2 0x1762 JUMPI PUSH2 0x1761 PUSH2 0x1371 JUMP JUMPDEST JUMPDEST PUSH1 0x0 PUSH2 0x1770 DUP5 DUP3 DUP6 ADD PUSH2 0x1737 JUMP JUMPDEST SWAP2 POP POP SWAP3 SWAP2 POP POP JUMP JUMPDEST PUSH32 0x596F75206D757374206F776E20746865204E465420746F206C6973742069742E PUSH1 0x0 DUP3 ADD MSTORE POP JUMP JUMPDEST PUSH1 0x0 PUSH2 0x17AF PUSH1 0x20 DUP4 PUSH2 0x1628 JUMP JUMPDEST SWAP2 POP PUSH2 0x17BA DUP3 PUSH2 0x1779 JUMP JUMPDEST PUSH1 0x20 DUP3 ADD SWAP1 POP SWAP2 SWAP1 POP JUMP JUMPDEST PUSH1 0x0 PUSH1 0x20 DUP3 ADD SWAP1 POP DUP2 DUP2 SUB PUSH1 0x0 DUP4 ADD MSTORE PUSH2 0x17DE DUP2 PUSH2 0x17A2 JUMP JUMPDEST SWAP1 POP SWAP2 SWAP1 POP JUMP JUMPDEST PUSH32 0x4E487B7100000000000000000000000000000000000000000000000000000000 PUSH1 0x0 MSTORE PUSH1 0x11 PUSH1 0x4 MSTORE PUSH1 0x24 PUSH1 0x0 REVERT JUMPDEST PUSH1 0x0 PUSH2 0x181F DUP3 PUSH2 0x13D4 JUMP JUMPDEST SWAP2 POP PUSH2 0x182A DUP4 PUSH2 0x13D4 JUMP JUMPDEST SWAP3 POP DUP3 DUP3 ADD SWAP1 POP DUP1 DUP3 GT ISZERO PUSH2 0x1842 JUMPI PUSH2 0x1841 PUSH2 0x17E5 JUMP JUMPDEST JUMPDEST SWAP3 SWAP2 POP POP JUMP JUMPDEST PUSH1 0x0 PUSH1 0x60 DUP3 ADD SWAP1 POP PUSH2 0x185D PUSH1 0x0 DUP4 ADD DUP7 PUSH2 0x1554 JUMP JUMPDEST PUSH2 0x186A PUSH1 0x20 DUP4 ADD DUP6 PUSH2 0x1554 JUMP JUMPDEST PUSH2 0x1877 PUSH1 0x40 DUP4 ADD DUP5 PUSH2 0x1554 JUMP JUMPDEST SWAP5 SWAP4 POP POP POP POP JUMP JUMPDEST PUSH1 0x0 PUSH2 0x188A DUP3 PUSH2 0x13D4 JUMP JUMPDEST SWAP2 POP PUSH32 0xFFFFFFFFFFFFFFFFFFFFFFFFFFFFFFFFFFFFFFFFFFFFFFFFFFFFFFFFFFFFFFFF DUP3 SUB PUSH2 0x18BC JUMPI PUSH2 0x18BB PUSH2 0x17E5 JUMP JUMPDEST JUMPDEST PUSH1 0x1 DUP3 ADD SWAP1 POP SWAP2 SWAP1 POP JUMP JUMPDEST PUSH32 0x53656E742076616C7565206D7573742062652067726561746572207468616E20 PUSH1 0x0 DUP3 ADD MSTORE PUSH32 0x7A65726F2E000000000000000000000000000000000000000000000000000000 PUSH1 0x20 DUP3 ADD MSTORE POP JUMP JUMPDEST PUSH1 0x0 PUSH2 0x1923 PUSH1 0x25 DUP4 PUSH2 0x1628 JUMP JUMPDEST SWAP2 POP PUSH2 0x192E DUP3 PUSH2 0x18C7 JUMP JUMPDEST PUSH1 0x40 DUP3 ADD SWAP1 POP SWAP2 SWAP1 POP JUMP JUMPDEST PUSH1 0x0 PUSH1 0x20 DUP3 ADD SWAP1 POP DUP2 DUP2 SUB PUSH1 0x0 DUP4 ADD MSTORE PUSH2 0x1952 DUP2 PUSH2 0x1916 JUMP JUMPDEST SWAP1 POP SWAP2 SWAP1 POP JUMP JUMPDEST PUSH32 0x4C697374696E6720646F6573206E6F742065786973742E000000000000000000 PUSH1 0x0 DUP3 ADD MSTORE POP JUMP JUMPDEST PUSH1 0x0 PUSH2 0x198F PUSH1 0x17 DUP4 PUSH2 0x1628 JUMP JUMPDEST SWAP2 POP PUSH2 0x199A DUP3 PUSH2 0x1959 JUMP JUMPDEST PUSH1 0x20 DUP3 ADD SWAP1 POP SWAP2 SWAP1 POP JUMP JUMPDEST PUSH1 0x0 PUSH1 0x20 DUP3 ADD SWAP1 POP DUP2 DUP2 SUB PUSH1 0x0 DUP4 ADD MSTORE PUSH2 0x19BE DUP2 PUSH2 0x1982 JUMP JUMPDEST SWAP1 POP SWAP2 SWAP1 POP JUMP JUMPDEST PUSH32 0x54686973206C697374696E672068617320657870697265642E00000000000000 PUSH1 0x0 DUP3 ADD MSTORE POP JUMP JUMPDEST PUSH1 0x0 PUSH2 0x19FB PUSH1 0x19 DUP4 PUSH2 0x1628 JUMP JUMPDEST SWAP2 POP PUSH2 0x1A06 DUP3 PUSH2 0x19C5 JUMP JUMPDEST PUSH1 0x20 DUP3 ADD SWAP1 POP SWAP2 SWAP1 POP JUMP JUMPDEST PUSH1 0x0 PUSH1 0x20 DUP3 ADD SWAP1 POP DUP2 DUP2 SUB PUSH1 0x0 DUP4 ADD MSTORE PUSH2 0x1A2A DUP2 PUSH2 0x19EE JUMP JUMPDEST SWAP1 POP SWAP2 SWAP1 POP JUMP JUMPDEST PUSH32 0x53656E742076616C7565206D75737420626520657175616C20746F2074686520 PUSH1 0x0 DUP3 ADD MSTORE PUSH32 0x6C697374696E672070726963652E000000000000000000000000000000000000 PUSH1 0x20 DUP3 ADD MSTORE POP JUMP JUMPDEST PUSH1 0x0 PUSH2 0x1A8D PUSH1 0x2E DUP4 PUSH2 0x1628 JUMP JUMPDEST SWAP2 POP PUSH2 0x1A98 DUP3 PUSH2 0x1A31 JUMP JUMPDEST PUSH1 0x40 DUP3 ADD SWAP1 POP SWAP2 SWAP1 POP JUMP JUMPDEST PUSH1 0x0 PUSH1 0x20 DUP3 ADD SWAP1 POP DUP2 DUP2 SUB PUSH1 0x0 DUP4 ADD MSTORE PUSH2 0x1ABC DUP2 PUSH2 0x1A80 JUMP JUMPDEST SWAP1 POP SWAP2 SWAP1 POP JUMP JUMPDEST PUSH32 0x4E487B7100000000000000000000000000000000000000000000000000000000 PUSH1 0x0 MSTORE PUSH1 0x12 PUSH1 0x4 MSTORE PUSH1 0x24 PUSH1 0x0 REVERT JUMPDEST PUSH1 0x0 PUSH2 0x1AFD DUP3 PUSH2 0x13D4 JUMP JUMPDEST SWAP2 POP PUSH2 0x1B08 DUP4 PUSH2 0x13D4 JUMP JUMPDEST SWAP3 POP DUP3 PUSH2 0x1B18 JUMPI PUSH2 0x1B17 PUSH2 0x1AC3 JUMP JUMPDEST JUMPDEST DUP3 DUP3 DIV SWAP1 POP SWAP3 SWAP2 POP POP JUMP JUMPDEST PUSH1 0x0 PUSH2 0x1B2E DUP3 PUSH2 0x13D4 JUMP JUMPDEST SWAP2 POP PUSH2 0x1B39 DUP4 PUSH2 0x13D4 JUMP JUMPDEST SWAP3 POP DUP2 PUSH32 0xFFFFFFFFFFFFFFFFFFFFFFFFFFFFFFFFFFFFFFFFFFFFFFFFFFFFFFFFFFFFFFFF DIV DUP4 GT DUP3 ISZERO ISZERO AND ISZERO PUSH2 0x1B72 JUMPI PUSH2 0x1B71 PUSH2 0x17E5 JUMP JUMPDEST JUMPDEST DUP3 DUP3 MUL SWAP1 POP SWAP3 SWAP2 POP POP JUMP JUMPDEST PUSH1 0x0 PUSH2 0x1B88 DUP3 PUSH2 0x13D4 JUMP JUMPDEST SWAP2 POP PUSH2 0x1B93 DUP4 PUSH2 0x13D4 JUMP JUMPDEST SWAP3 POP DUP3 DUP3 SUB SWAP1 POP DUP2 DUP2 GT ISZERO PUSH2 0x1BAB JUMPI PUSH2 0x1BAA PUSH2 0x17E5 JUMP JUMPDEST JUMPDEST SWAP3 SWAP2 POP POP JUMP JUMPDEST PUSH32 0x53656C6C6572206E6F206C6F6E676572206F776E7320746865204E46542E0000 PUSH1 0x0 DUP3 ADD MSTORE POP JUMP JUMPDEST PUSH1 0x0 PUSH2 0x1BE7 PUSH1 0x1E DUP4 PUSH2 0x1628 JUMP JUMPDEST SWAP2 POP PUSH2 0x1BF2 DUP3 PUSH2 0x1BB1 JUMP JUMPDEST PUSH1 0x20 DUP3 ADD SWAP1 POP SWAP2 SWAP1 POP JUMP JUMPDEST PUSH1 0x0 PUSH1 0x20 DUP3 ADD SWAP1 POP DUP2 DUP2 SUB PUSH1 0x0 DUP4 ADD MSTORE PUSH2 0x1C16 DUP2 PUSH2 0x1BDA JUMP JUMPDEST SWAP1 POP SWAP2 SWAP1 POP JUMP JUMPDEST PUSH1 0x0 PUSH1 0x60 DUP3 ADD SWAP1 POP PUSH2 0x1C32 PUSH1 0x0 DUP4 ADD DUP7 PUSH2 0x157E JUMP JUMPDEST PUSH2 0x1C3F PUSH1 0x20 DUP4 ADD DUP6 PUSH2 0x157E JUMP JUMPDEST PUSH2 0x1C4C PUSH1 0x40 DUP4 ADD DUP5 PUSH2 0x1554 JUMP JUMPDEST SWAP5 SWAP4 POP POP POP POP JUMP JUMPDEST PUSH32 0x4164647265737365732063616E6E6F74206265207A65726F0000000000000000 PUSH1 0x0 DUP3 ADD MSTORE POP JUMP JUMPDEST PUSH1 0x0 PUSH2 0x1C8A PUSH1 0x18 DUP4 PUSH2 0x1628 JUMP JUMPDEST SWAP2 POP PUSH2 0x1C95 DUP3 PUSH2 0x1C54 JUMP JUMPDEST PUSH1 0x20 DUP3 ADD SWAP1 POP SWAP2 SWAP1 POP JUMP JUMPDEST PUSH1 0x0 PUSH1 0x20 DUP3 ADD SWAP1 POP DUP2 DUP2 SUB PUSH1 0x0 DUP4 ADD MSTORE PUSH2 0x1CB9 DUP2 PUSH2 0x1C7D JUMP JUMPDEST SWAP1 POP SWAP2 SWAP1 POP JUMP JUMPDEST PUSH32 0x4F776E61626C653A206E6577206F776E657220697320746865207A65726F2061 PUSH1 0x0 DUP3 ADD MSTORE PUSH32 0x6464726573730000000000000000000000000000000000000000000000000000 PUSH1 0x20 DUP3 ADD MSTORE POP JUMP JUMPDEST PUSH1 0x0 PUSH2 0x1D1C PUSH1 0x26 DUP4 PUSH2 0x1628 JUMP JUMPDEST SWAP2 POP PUSH2 0x1D27 DUP3 PUSH2 0x1CC0 JUMP JUMPDEST PUSH1 0x40 DUP3 ADD SWAP1 POP SWAP2 SWAP1 POP JUMP JUMPDEST PUSH1 0x0 PUSH1 0x20 DUP3 ADD SWAP1 POP DUP2 DUP2 SUB PUSH1 0x0 DUP4 ADD MSTORE PUSH2 0x1D4B DUP2 PUSH2 0x1D0F JUMP JUMPDEST SWAP1 POP SWAP2 SWAP1 POP JUMP JUMPDEST PUSH32 0x5061757361626C653A2070617573656400000000000000000000000000000000 PUSH1 0x0 DUP3 ADD MSTORE POP JUMP JUMPDEST PUSH1 0x0 PUSH2 0x1D88 PUSH1 0x10 DUP4 PUSH2 0x1628 JUMP JUMPDEST SWAP2 POP PUSH2 0x1D93 DUP3 PUSH2 0x1D52 JUMP JUMPDEST PUSH1 0x20 DUP3 ADD SWAP1 POP SWAP2 SWAP1 POP JUMP JUMPDEST PUSH1 0x0 PUSH1 0x20 DUP3 ADD SWAP1 POP DUP2 DUP2 SUB PUSH1 0x0 DUP4 ADD MSTORE PUSH2 0x1DB7 DUP2 PUSH2 0x1D7B JUMP JUMPDEST SWAP1 POP SWAP2 SWAP1 POP JUMP JUMPDEST PUSH32 0x5265656E7472616E637947756172643A207265656E7472616E742063616C6C00 PUSH1 0x0 DUP3 ADD MSTORE POP JUMP JUMPDEST PUSH1 0x0 PUSH2 0x1DF4 PUSH1 0x1F DUP4 PUSH2 0x1628 JUMP JUMPDEST SWAP2 POP PUSH2 0x1DFF DUP3 PUSH2 0x1DBE JUMP JUMPDEST PUSH1 0x20 DUP3 ADD SWAP1 POP SWAP2 SWAP1 POP JUMP JUMPDEST PUSH1 0x0 PUSH1 0x20 DUP3 ADD SWAP1 POP DUP2 DUP2 SUB PUSH1 0x0 DUP4 ADD MSTORE PUSH2 0x1E23 DUP2 PUSH2 0x1DE7 JUMP JUMPDEST SWAP1 POP SWAP2 SWAP1 POP JUMP JUMPDEST PUSH32 0x4F776E61626C653A2063616C6C6572206973206E6F7420746865206F776E6572 PUSH1 0x0 DUP3 ADD MSTORE POP JUMP JUMPDEST PUSH1 0x0 PUSH2 0x1E60 PUSH1 0x20 DUP4 PUSH2 0x1628 JUMP JUMPDEST SWAP2 POP PUSH2 0x1E6B DUP3 PUSH2 0x1E2A JUMP JUMPDEST PUSH1 0x20 DUP3 ADD SWAP1 POP SWAP2 SWAP1 POP JUMP JUMPDEST PUSH1 0x0 PUSH1 0x20 DUP3 ADD SWAP1 POP DUP2 DUP2 SUB PUSH1 0x0 DUP4 ADD MSTORE PUSH2 0x1E8F DUP2 PUSH2 0x1E53 JUMP JUMPDEST SWAP1 POP SWAP2 SWAP1 POP JUMP JUMPDEST PUSH32 0x5061757361626C653A206E6F7420706175736564000000000000000000000000 PUSH1 0x0 DUP3 ADD MSTORE POP JUMP JUMPDEST PUSH1 0x0 PUSH2 0x1ECC PUSH1 0x14 DUP4 PUSH2 0x1628 JUMP JUMPDEST SWAP2 POP PUSH2 0x1ED7 DUP3 PUSH2 0x1E96 JUMP JUMPDEST PUSH1 0x20 DUP3 ADD SWAP1 POP SWAP2 SWAP1 POP JUMP JUMPDEST PUSH1 0x0 PUSH1 0x20 DUP3 ADD SWAP1 POP DUP2 DUP2 SUB PUSH1 0x0 DUP4 ADD MSTORE PUSH2 0x1EFB DUP2 PUSH2 0x1EBF JUMP JUMPDEST SWAP1 POP SWAP2 SWAP1 POP JUMP INVALID LOG2 PUSH5 0x6970667358 0x22 SLT KECCAK256 GT 0x22 MSTORE8 0xD8 0xB5 0xD5 0xE JUMPDEST 0xF9 POP 0xE9 CHAINID PUSH32 0xF0D740DAE796172A379AEC1181AF952B2E7C6B64736F6C634300081000330000 "
				},
				"gasEstimates": {
					"creation": {
						"codeDepositCost": "1598400",
						"executionCost": "infinite",
						"totalCost": "infinite"
					},
					"external": {
						"activeListingIds(uint256)": "infinite",
						"buyNFT(uint256)": "infinite",
						"listNFT(address,uint256,uint256,uint256)": "infinite",
						"listings(uint256)": "infinite",
						"nextListingId()": "2496",
						"owner()": "2567",
						"pause()": "infinite",
						"paused()": "2569",
						"platformFeeAddress()": "2602",
						"platformFeePercentage()": "2451",
						"renounceOwnership()": "30443",
						"royaltyAddress()": "2603",
						"royaltyPercentage()": "2452",
						"transferOwnership(address)": "30854",
						"unpause()": "infinite",
						"updateFeeAddresses(address,address)": "infinite",
						"updateFeePercentages(uint256,uint256)": "infinite"
					}
				},
				"methodIdentifiers": {
					"activeListingIds(uint256)": "e3b6a1f6",
					"buyNFT(uint256)": "51ed8288",
					"listNFT(address,uint256,uint256,uint256)": "3c44a5f0",
					"listings(uint256)": "de74e57b",
					"nextListingId()": "aaccf1ec",
					"owner()": "8da5cb5b",
					"pause()": "8456cb59",
					"paused()": "5c975abb",
					"platformFeeAddress()": "ed14834f",
					"platformFeePercentage()": "cdd78cfc",
					"renounceOwnership()": "715018a6",
					"royaltyAddress()": "ad2f852a",
					"royaltyPercentage()": "8a71bb2d",
					"transferOwnership(address)": "f2fde38b",
					"unpause()": "3f4ba83a",
					"updateFeeAddresses(address,address)": "5e4e8d65",
					"updateFeePercentages(uint256,uint256)": "78578bb3"
				}
			},
			"storageLayout": {
				"storage": [
					{
						"astId": 197,
						"contract": "teste_flattened.sol:GotasNFTMarketplace",
						"label": "_owner",
						"offset": 0,
						"slot": "0",
						"type": "t_address"
					},
					{
						"astId": 10,
						"contract": "teste_flattened.sol:GotasNFTMarketplace",
						"label": "_status",
						"offset": 0,
						"slot": "1",
						"type": "t_uint256"
					},
					{
						"astId": 101,
						"contract": "teste_flattened.sol:GotasNFTMarketplace",
						"label": "_paused",
						"offset": 0,
						"slot": "2",
						"type": "t_bool"
					},
					{
						"astId": 448,
						"contract": "teste_flattened.sol:GotasNFTMarketplace",
						"label": "activeListingIds",
						"offset": 0,
						"slot": "3",
						"type": "t_array(t_uint256)dyn_storage"
					},
					{
						"astId": 450,
						"contract": "teste_flattened.sol:GotasNFTMarketplace",
						"label": "royaltyPercentage",
						"offset": 0,
						"slot": "4",
						"type": "t_uint256"
					},
					{
						"astId": 452,
						"contract": "teste_flattened.sol:GotasNFTMarketplace",
						"label": "platformFeePercentage",
						"offset": 0,
						"slot": "5",
						"type": "t_uint256"
					},
					{
						"astId": 454,
						"contract": "teste_flattened.sol:GotasNFTMarketplace",
						"label": "royaltyAddress",
						"offset": 0,
						"slot": "6",
						"type": "t_address"
					},
					{
						"astId": 456,
						"contract": "teste_flattened.sol:GotasNFTMarketplace",
						"label": "platformFeeAddress",
						"offset": 0,
						"slot": "7",
						"type": "t_address"
					},
					{
						"astId": 461,
						"contract": "teste_flattened.sol:GotasNFTMarketplace",
						"label": "listings",
						"offset": 0,
						"slot": "8",
						"type": "t_mapping(t_uint256,t_struct(Listing)445_storage)"
					},
					{
						"astId": 464,
						"contract": "teste_flattened.sol:GotasNFTMarketplace",
						"label": "nextListingId",
						"offset": 0,
						"slot": "9",
						"type": "t_uint256"
					}
				],
				"types": {
					"t_address": {
						"encoding": "inplace",
						"label": "address",
						"numberOfBytes": "20"
					},
					"t_array(t_uint256)dyn_storage": {
						"base": "t_uint256",
						"encoding": "dynamic_array",
						"label": "uint256[]",
						"numberOfBytes": "32"
					},
					"t_bool": {
						"encoding": "inplace",
						"label": "bool",
						"numberOfBytes": "1"
					},
					"t_mapping(t_uint256,t_struct(Listing)445_storage)": {
						"encoding": "mapping",
						"key": "t_uint256",
						"label": "mapping(uint256 => struct GotasNFTMarketplace.Listing)",
						"numberOfBytes": "32",
						"value": "t_struct(Listing)445_storage"
					},
					"t_struct(Listing)445_storage": {
						"encoding": "inplace",
						"label": "struct GotasNFTMarketplace.Listing",
						"members": [
							{
								"astId": 436,
								"contract": "teste_flattened.sol:GotasNFTMarketplace",
								"label": "nftContractAddress",
								"offset": 0,
								"slot": "0",
								"type": "t_address"
							},
							{
								"astId": 438,
								"contract": "teste_flattened.sol:GotasNFTMarketplace",
								"label": "nftId",
								"offset": 0,
								"slot": "1",
								"type": "t_uint256"
							},
							{
								"astId": 440,
								"contract": "teste_flattened.sol:GotasNFTMarketplace",
								"label": "seller",
								"offset": 0,
								"slot": "2",
								"type": "t_address"
							},
							{
								"astId": 442,
								"contract": "teste_flattened.sol:GotasNFTMarketplace",
								"label": "price",
								"offset": 0,
								"slot": "3",
								"type": "t_uint256"
							},
							{
								"astId": 444,
								"contract": "teste_flattened.sol:GotasNFTMarketplace",
								"label": "deadline",
								"offset": 0,
								"slot": "4",
								"type": "t_uint256"
							}
						],
						"numberOfBytes": "160"
					},
					"t_uint256": {
						"encoding": "inplace",
						"label": "uint256",
						"numberOfBytes": "32"
					}
				}
			},
			"userdoc": {
				"kind": "user",
				"methods": {},
				"version": 1
			}
		}
	}
}