{
	"venda_flattened.sol": {
		"GotasNFTMarketplace": {
			"abi": [
				{
					"inputs": [
						{
							"internalType": "uint256",
							"name": "_royaltyPercentage",
							"type": "uint256"
						},
						{
							"internalType": "uint256",
							"name": "_platformFeePercentage",
							"type": "uint256"
						},
						{
							"internalType": "address",
							"name": "_royaltyAddress",
							"type": "address"
						},
						{
							"internalType": "address",
							"name": "_platformFeeAddress",
							"type": "address"
						}
					],
					"stateMutability": "nonpayable",
					"type": "constructor"
				},
				{
					"anonymous": false,
					"inputs": [
						{
							"indexed": true,
							"internalType": "uint256",
							"name": "listingId",
							"type": "uint256"
						}
					],
					"name": "NFTDelisted",
					"type": "event"
				},
				{
					"anonymous": false,
					"inputs": [
						{
							"indexed": true,
							"internalType": "uint256",
							"name": "listingId",
							"type": "uint256"
						},
						{
							"indexed": true,
							"internalType": "address",
							"name": "seller",
							"type": "address"
						},
						{
							"indexed": true,
							"internalType": "address",
							"name": "nftContract",
							"type": "address"
						},
						{
							"indexed": false,
							"internalType": "uint256",
							"name": "nftId",
							"type": "uint256"
						},
						{
							"indexed": false,
							"internalType": "uint256",
							"name": "price",
							"type": "uint256"
						},
						{
							"indexed": false,
							"internalType": "uint256",
							"name": "deadline",
							"type": "uint256"
						}
					],
					"name": "NFTListed",
					"type": "event"
				},
				{
					"anonymous": false,
					"inputs": [
						{
							"indexed": true,
							"internalType": "uint256",
							"name": "listingId",
							"type": "uint256"
						},
						{
							"indexed": true,
							"internalType": "address",
							"name": "seller",
							"type": "address"
						},
						{
							"indexed": true,
							"internalType": "address",
							"name": "buyer",
							"type": "address"
						},
						{
							"indexed": false,
							"internalType": "uint256",
							"name": "price",
							"type": "uint256"
						}
					],
					"name": "NFTSold",
					"type": "event"
				},
				{
					"anonymous": false,
					"inputs": [
						{
							"indexed": true,
							"internalType": "address",
							"name": "previousOwner",
							"type": "address"
						},
						{
							"indexed": true,
							"internalType": "address",
							"name": "newOwner",
							"type": "address"
						}
					],
					"name": "OwnershipTransferred",
					"type": "event"
				},
				{
					"anonymous": false,
					"inputs": [
						{
							"indexed": false,
							"internalType": "address",
							"name": "account",
							"type": "address"
						}
					],
					"name": "Paused",
					"type": "event"
				},
				{
					"anonymous": false,
					"inputs": [
						{
							"indexed": false,
							"internalType": "address",
							"name": "account",
							"type": "address"
						}
					],
					"name": "Unpaused",
					"type": "event"
				},
				{
					"inputs": [
						{
							"internalType": "uint256",
							"name": "",
							"type": "uint256"
						}
					],
					"name": "activeListingIds",
					"outputs": [
						{
							"internalType": "uint256",
							"name": "",
							"type": "uint256"
						}
					],
					"stateMutability": "view",
					"type": "function"
				},
				{
					"inputs": [
						{
							"internalType": "uint256",
							"name": "_listingId",
							"type": "uint256"
						}
					],
					"name": "buyNFT",
					"outputs": [],
					"stateMutability": "payable",
					"type": "function"
				},
				{
					"inputs": [
						{
							"internalType": "uint256",
							"name": "_listingId",
							"type": "uint256"
						}
					],
					"name": "delistNFT",
					"outputs": [],
					"stateMutability": "nonpayable",
					"type": "function"
				},
				{
					"inputs": [
						{
							"internalType": "address",
							"name": "_nftContractAddress",
							"type": "address"
						},
						{
							"internalType": "uint256",
							"name": "_nftId",
							"type": "uint256"
						},
						{
							"internalType": "uint256",
							"name": "_price",
							"type": "uint256"
						},
						{
							"internalType": "uint256",
							"name": "_deadline",
							"type": "uint256"
						}
					],
					"name": "listNFT",
					"outputs": [],
					"stateMutability": "nonpayable",
					"type": "function"
				},
				{
					"inputs": [
						{
							"internalType": "uint256",
							"name": "",
							"type": "uint256"
						}
					],
					"name": "listings",
					"outputs": [
						{
							"internalType": "address",
							"name": "nftContractAddress",
							"type": "address"
						},
						{
							"internalType": "uint256",
							"name": "nftId",
							"type": "uint256"
						},
						{
							"internalType": "address",
							"name": "seller",
							"type": "address"
						},
						{
							"internalType": "uint256",
							"name": "price",
							"type": "uint256"
						},
						{
							"internalType": "uint256",
							"name": "deadline",
							"type": "uint256"
						}
					],
					"stateMutability": "view",
					"type": "function"
				},
				{
					"inputs": [],
					"name": "nextListingId",
					"outputs": [
						{
							"internalType": "uint256",
							"name": "",
							"type": "uint256"
						}
					],
					"stateMutability": "view",
					"type": "function"
				},
				{
					"inputs": [],
					"name": "owner",
					"outputs": [
						{
							"internalType": "address",
							"name": "",
							"type": "address"
						}
					],
					"stateMutability": "view",
					"type": "function"
				},
				{
					"inputs": [],
					"name": "pause",
					"outputs": [],
					"stateMutability": "nonpayable",
					"type": "function"
				},
				{
					"inputs": [],
					"name": "paused",
					"outputs": [
						{
							"internalType": "bool",
							"name": "",
							"type": "bool"
						}
					],
					"stateMutability": "view",
					"type": "function"
				},
				{
					"inputs": [],
					"name": "platformFeeAddress",
					"outputs": [
						{
							"internalType": "address",
							"name": "",
							"type": "address"
						}
					],
					"stateMutability": "view",
					"type": "function"
				},
				{
					"inputs": [],
					"name": "platformFeePercentage",
					"outputs": [
						{
							"internalType": "uint256",
							"name": "",
							"type": "uint256"
						}
					],
					"stateMutability": "view",
					"type": "function"
				},
				{
					"inputs": [],
					"name": "renounceOwnership",
					"outputs": [],
					"stateMutability": "nonpayable",
					"type": "function"
				},
				{
					"inputs": [],
					"name": "royaltyAddress",
					"outputs": [
						{
							"internalType": "address",
							"name": "",
							"type": "address"
						}
					],
					"stateMutability": "view",
					"type": "function"
				},
				{
					"inputs": [],
					"name": "royaltyPercentage",
					"outputs": [
						{
							"internalType": "uint256",
							"name": "",
							"type": "uint256"
						}
					],
					"stateMutability": "view",
					"type": "function"
				},
				{
					"inputs": [
						{
							"internalType": "address",
							"name": "newOwner",
							"type": "address"
						}
					],
					"name": "transferOwnership",
					"outputs": [],
					"stateMutability": "nonpayable",
					"type": "function"
				},
				{
					"inputs": [],
					"name": "unpause",
					"outputs": [],
					"stateMutability": "nonpayable",
					"type": "function"
				},
				{
					"inputs": [
						{
							"internalType": "address",
							"name": "_newRoyaltyAddress",
							"type": "address"
						},
						{
							"internalType": "address",
							"name": "_newPlatformFeeAddress",
							"type": "address"
						}
					],
					"name": "updateFeeAddresses",
					"outputs": [],
					"stateMutability": "nonpayable",
					"type": "function"
				},
				{
					"inputs": [
						{
							"internalType": "uint256",
							"name": "_newRoyaltyPercentage",
							"type": "uint256"
						},
						{
							"internalType": "uint256",
							"name": "_newPlatformFeePercentage",
							"type": "uint256"
						}
					],
					"name": "updateFeePercentages",
					"outputs": [],
					"stateMutability": "nonpayable",
					"type": "function"
				}
			],
			"devdoc": {
				"kind": "dev",
				"methods": {
					"owner()": {
						"details": "Returns the address of the current owner."
					},
					"paused()": {
						"details": "Returns true if the contract is paused, and false otherwise."
					},
					"renounceOwnership()": {
						"details": "Leaves the contract without owner. It will not be possible to call `onlyOwner` functions. Can only be called by the current owner. NOTE: Renouncing ownership will leave the contract without an owner, thereby disabling any functionality that is only available to the owner."
					},
					"transferOwnership(address)": {
						"details": "Transfers ownership of the contract to a new account (`newOwner`). Can only be called by the current owner."
					}
				},
				"version": 1
			},
			"evm": {
				"assembly": "    /* \"venda_flattened.sol\":14980:19404  contract GotasNFTMarketplace is Ownable, ReentrancyGuard, Pausable {... */\n  mstore(0x40, 0x80)\n    /* \"venda_flattened.sol\":15490:15491  1 */\n  0x01\n    /* \"venda_flattened.sol\":15459:15491  uint256 public nextListingId = 1 */\n  0x09\n  sstore\n    /* \"venda_flattened.sol\":15806:16248  constructor(uint256 _royaltyPercentage, uint256 _platformFeePercentage, address _royaltyAddress, address _platformFeeAddress) {... */\n  callvalue\n  dup1\n  iszero\n  tag_1\n  jumpi\n  0x00\n  dup1\n  revert\ntag_1:\n  pop\n  mload(0x40)\n  sub(codesize, bytecodeSize)\n  dup1\n  bytecodeSize\n  dup4\n  codecopy\n  dup2\n  dup2\n  add\n  0x40\n  mstore\n  dup2\n  add\n  swap1\n  tag_2\n  swap2\n  swap1\n  tag_3\n  jump\t// in\ntag_2:\n    /* \"venda_flattened.sol\":7502:7534  _transferOwnership(_msgSender()) */\n  tag_9\n    /* \"venda_flattened.sol\":7521:7533  _msgSender() */\n  tag_10\n    /* \"venda_flattened.sol\":7521:7531  _msgSender */\n  shl(0x20, tag_11)\n    /* \"venda_flattened.sol\":7521:7533  _msgSender() */\n  0x20\n  shr\n  jump\t// in\ntag_10:\n    /* \"venda_flattened.sol\":7502:7520  _transferOwnership */\n  shl(0x20, tag_12)\n    /* \"venda_flattened.sol\":7502:7534  _transferOwnership(_msgSender()) */\n  0x20\n  shr\n  jump\t// in\ntag_9:\n    /* \"venda_flattened.sol\":1749:1750  1 */\n  0x01\n    /* \"venda_flattened.sol\":1854:1861  _status */\n  dup1\n    /* \"venda_flattened.sol\":1854:1876  _status = _NOT_ENTERED */\n  dup2\n  swap1\n  sstore\n  pop\n    /* \"venda_flattened.sol\":5027:5032  false */\n  0x00\n    /* \"venda_flattened.sol\":5017:5024  _paused */\n  0x02\n  0x00\n    /* \"venda_flattened.sol\":5017:5032  _paused = false */\n  0x0100\n  exp\n  dup2\n  sload\n  dup2\n  0xff\n  mul\n  not\n  and\n  swap1\n  dup4\n  iszero\n  iszero\n  mul\n  or\n  swap1\n  sstore\n  pop\n    /* \"venda_flattened.sol\":15977:15978  0 */\n  0x00\n    /* \"venda_flattened.sol\":15950:15979  _royaltyAddress != address(0) */\n  0xffffffffffffffffffffffffffffffffffffffff\n  and\n    /* \"venda_flattened.sol\":15950:15965  _royaltyAddress */\n  dup3\n    /* \"venda_flattened.sol\":15950:15979  _royaltyAddress != address(0) */\n  0xffffffffffffffffffffffffffffffffffffffff\n  and\n  eq\n  iszero\n    /* \"venda_flattened.sol\":15950:16016  _royaltyAddress != address(0) && _platformFeeAddress != address(0) */\n  dup1\n  iszero\n  tag_16\n  jumpi\n  pop\n    /* \"venda_flattened.sol\":16014:16015  0 */\n  0x00\n    /* \"venda_flattened.sol\":15983:16016  _platformFeeAddress != address(0) */\n  0xffffffffffffffffffffffffffffffffffffffff\n  and\n    /* \"venda_flattened.sol\":15983:16002  _platformFeeAddress */\n  dup2\n    /* \"venda_flattened.sol\":15983:16016  _platformFeeAddress != address(0) */\n  0xffffffffffffffffffffffffffffffffffffffff\n  and\n  eq\n  iszero\n    /* \"venda_flattened.sol\":15950:16016  _royaltyAddress != address(0) && _platformFeeAddress != address(0) */\ntag_16:\n    /* \"venda_flattened.sol\":15942:16045  require(_royaltyAddress != address(0) && _platformFeeAddress != address(0), \"Addresses cannot be zero\") */\n  tag_17\n  jumpi\n  mload(0x40)\n  0x08c379a000000000000000000000000000000000000000000000000000000000\n  dup2\n  mstore\n  0x04\n  add\n  tag_18\n  swap1\n  tag_19\n  jump\t// in\ntag_18:\n  mload(0x40)\n  dup1\n  swap2\n  sub\n  swap1\n  revert\ntag_17:\n    /* \"venda_flattened.sol\":16075:16093  _royaltyPercentage */\n  dup4\n    /* \"venda_flattened.sol\":16055:16072  royaltyPercentage */\n  0x04\n    /* \"venda_flattened.sol\":16055:16093  royaltyPercentage = _royaltyPercentage */\n  dup2\n  swap1\n  sstore\n  pop\n    /* \"venda_flattened.sol\":16127:16149  _platformFeePercentage */\n  dup3\n    /* \"venda_flattened.sol\":16103:16124  platformFeePercentage */\n  0x05\n    /* \"venda_flattened.sol\":16103:16149  platformFeePercentage = _platformFeePercentage */\n  dup2\n  swap1\n  sstore\n  pop\n    /* \"venda_flattened.sol\":16176:16191  _royaltyAddress */\n  dup2\n    /* \"venda_flattened.sol\":16159:16173  royaltyAddress */\n  0x06\n  0x00\n    /* \"venda_flattened.sol\":16159:16191  royaltyAddress = _royaltyAddress */\n  0x0100\n  exp\n  dup2\n  sload\n  dup2\n  0xffffffffffffffffffffffffffffffffffffffff\n  mul\n  not\n  and\n  swap1\n  dup4\n  0xffffffffffffffffffffffffffffffffffffffff\n  and\n  mul\n  or\n  swap1\n  sstore\n  pop\n    /* \"venda_flattened.sol\":16222:16241  _platformFeeAddress */\n  dup1\n    /* \"venda_flattened.sol\":16201:16219  platformFeeAddress */\n  0x07\n  0x00\n    /* \"venda_flattened.sol\":16201:16241  platformFeeAddress = _platformFeeAddress */\n  0x0100\n  exp\n  dup2\n  sload\n  dup2\n  0xffffffffffffffffffffffffffffffffffffffff\n  mul\n  not\n  and\n  swap1\n  dup4\n  0xffffffffffffffffffffffffffffffffffffffff\n  and\n  mul\n  or\n  swap1\n  sstore\n  pop\n    /* \"venda_flattened.sol\":15806:16248  constructor(uint256 _royaltyPercentage, uint256 _platformFeePercentage, address _royaltyAddress, address _platformFeeAddress) {... */\n  pop\n  pop\n  pop\n  pop\n    /* \"venda_flattened.sol\":14980:19404  contract GotasNFTMarketplace is Ownable, ReentrancyGuard, Pausable {... */\n  jump(tag_20)\n    /* \"venda_flattened.sol\":3822:3918  function _msgSender() internal view virtual returns (address) {... */\ntag_11:\n    /* \"venda_flattened.sol\":3875:3882  address */\n  0x00\n    /* \"venda_flattened.sol\":3901:3911  msg.sender */\n  caller\n    /* \"venda_flattened.sol\":3894:3911  return msg.sender */\n  swap1\n  pop\n    /* \"venda_flattened.sol\":3822:3918  function _msgSender() internal view virtual returns (address) {... */\n  swap1\n  jump\t// out\n    /* \"venda_flattened.sol\":8992:9179  function _transferOwnership(address newOwner) internal virtual {... */\ntag_12:\n    /* \"venda_flattened.sol\":9065:9081  address oldOwner */\n  0x00\n    /* \"venda_flattened.sol\":9084:9090  _owner */\n  dup1\n  0x00\n  swap1\n  sload\n  swap1\n  0x0100\n  exp\n  swap1\n  div\n  0xffffffffffffffffffffffffffffffffffffffff\n  and\n    /* \"venda_flattened.sol\":9065:9090  address oldOwner = _owner */\n  swap1\n  pop\n    /* \"venda_flattened.sol\":9109:9117  newOwner */\n  dup2\n    /* \"venda_flattened.sol\":9100:9106  _owner */\n  0x00\n  dup1\n    /* \"venda_flattened.sol\":9100:9117  _owner = newOwner */\n  0x0100\n  exp\n  dup2\n  sload\n  dup2\n  0xffffffffffffffffffffffffffffffffffffffff\n  mul\n  not\n  and\n  swap1\n  dup4\n  0xffffffffffffffffffffffffffffffffffffffff\n  and\n  mul\n  or\n  swap1\n  sstore\n  pop\n    /* \"venda_flattened.sol\":9163:9171  newOwner */\n  dup2\n    /* \"venda_flattened.sol\":9132:9172  OwnershipTransferred(oldOwner, newOwner) */\n  0xffffffffffffffffffffffffffffffffffffffff\n  and\n    /* \"venda_flattened.sol\":9153:9161  oldOwner */\n  dup2\n    /* \"venda_flattened.sol\":9132:9172  OwnershipTransferred(oldOwner, newOwner) */\n  0xffffffffffffffffffffffffffffffffffffffff\n  and\n  0x8be0079c531659141344cd1fd0a4f28419497f9722a3daafe3b4186f6b6457e0\n  mload(0x40)\n  mload(0x40)\n  dup1\n  swap2\n  sub\n  swap1\n  log3\n    /* \"venda_flattened.sol\":9055:9179  {... */\n  pop\n    /* \"venda_flattened.sol\":8992:9179  function _transferOwnership(address newOwner) internal virtual {... */\n  pop\n  jump\t// out\n    /* \"#utility.yul\":88:205   */\ntag_24:\n    /* \"#utility.yul\":197:198   */\n  0x00\n    /* \"#utility.yul\":194:195   */\n  dup1\n    /* \"#utility.yul\":187:199   */\n  revert\n    /* \"#utility.yul\":334:411   */\ntag_26:\n    /* \"#utility.yul\":371:378   */\n  0x00\n    /* \"#utility.yul\":400:405   */\n  dup2\n    /* \"#utility.yul\":389:405   */\n  swap1\n  pop\n    /* \"#utility.yul\":334:411   */\n  swap2\n  swap1\n  pop\n  jump\t// out\n    /* \"#utility.yul\":417:539   */\ntag_27:\n    /* \"#utility.yul\":490:514   */\n  tag_42\n    /* \"#utility.yul\":508:513   */\n  dup2\n    /* \"#utility.yul\":490:514   */\n  tag_26\n  jump\t// in\ntag_42:\n    /* \"#utility.yul\":483:488   */\n  dup2\n    /* \"#utility.yul\":480:515   */\n  eq\n    /* \"#utility.yul\":470:533   */\n  tag_43\n  jumpi\n    /* \"#utility.yul\":529:530   */\n  0x00\n    /* \"#utility.yul\":526:527   */\n  dup1\n    /* \"#utility.yul\":519:531   */\n  revert\n    /* \"#utility.yul\":470:533   */\ntag_43:\n    /* \"#utility.yul\":417:539   */\n  pop\n  jump\t// out\n    /* \"#utility.yul\":545:688   */\ntag_28:\n    /* \"#utility.yul\":602:607   */\n  0x00\n    /* \"#utility.yul\":633:639   */\n  dup2\n    /* \"#utility.yul\":627:640   */\n  mload\n    /* \"#utility.yul\":618:640   */\n  swap1\n  pop\n    /* \"#utility.yul\":649:682   */\n  tag_45\n    /* \"#utility.yul\":676:681   */\n  dup2\n    /* \"#utility.yul\":649:682   */\n  tag_27\n  jump\t// in\ntag_45:\n    /* \"#utility.yul\":545:688   */\n  swap3\n  swap2\n  pop\n  pop\n  jump\t// out\n    /* \"#utility.yul\":694:820   */\ntag_29:\n    /* \"#utility.yul\":731:738   */\n  0x00\n    /* \"#utility.yul\":771:813   */\n  0xffffffffffffffffffffffffffffffffffffffff\n    /* \"#utility.yul\":764:769   */\n  dup3\n    /* \"#utility.yul\":760:814   */\n  and\n    /* \"#utility.yul\":749:814   */\n  swap1\n  pop\n    /* \"#utility.yul\":694:820   */\n  swap2\n  swap1\n  pop\n  jump\t// out\n    /* \"#utility.yul\":826:922   */\ntag_30:\n    /* \"#utility.yul\":863:870   */\n  0x00\n    /* \"#utility.yul\":892:916   */\n  tag_48\n    /* \"#utility.yul\":910:915   */\n  dup3\n    /* \"#utility.yul\":892:916   */\n  tag_29\n  jump\t// in\ntag_48:\n    /* \"#utility.yul\":881:916   */\n  swap1\n  pop\n    /* \"#utility.yul\":826:922   */\n  swap2\n  swap1\n  pop\n  jump\t// out\n    /* \"#utility.yul\":928:1050   */\ntag_31:\n    /* \"#utility.yul\":1001:1025   */\n  tag_50\n    /* \"#utility.yul\":1019:1024   */\n  dup2\n    /* \"#utility.yul\":1001:1025   */\n  tag_30\n  jump\t// in\ntag_50:\n    /* \"#utility.yul\":994:999   */\n  dup2\n    /* \"#utility.yul\":991:1026   */\n  eq\n    /* \"#utility.yul\":981:1044   */\n  tag_51\n  jumpi\n    /* \"#utility.yul\":1040:1041   */\n  0x00\n    /* \"#utility.yul\":1037:1038   */\n  dup1\n    /* \"#utility.yul\":1030:1042   */\n  revert\n    /* \"#utility.yul\":981:1044   */\ntag_51:\n    /* \"#utility.yul\":928:1050   */\n  pop\n  jump\t// out\n    /* \"#utility.yul\":1056:1199   */\ntag_32:\n    /* \"#utility.yul\":1113:1118   */\n  0x00\n    /* \"#utility.yul\":1144:1150   */\n  dup2\n    /* \"#utility.yul\":1138:1151   */\n  mload\n    /* \"#utility.yul\":1129:1151   */\n  swap1\n  pop\n    /* \"#utility.yul\":1160:1193   */\n  tag_53\n    /* \"#utility.yul\":1187:1192   */\n  dup2\n    /* \"#utility.yul\":1160:1193   */\n  tag_31\n  jump\t// in\ntag_53:\n    /* \"#utility.yul\":1056:1199   */\n  swap3\n  swap2\n  pop\n  pop\n  jump\t// out\n    /* \"#utility.yul\":1205:2025   */\ntag_3:\n    /* \"#utility.yul\":1302:1308   */\n  0x00\n    /* \"#utility.yul\":1310:1316   */\n  dup1\n    /* \"#utility.yul\":1318:1324   */\n  0x00\n    /* \"#utility.yul\":1326:1332   */\n  dup1\n    /* \"#utility.yul\":1375:1378   */\n  0x80\n    /* \"#utility.yul\":1363:1372   */\n  dup6\n    /* \"#utility.yul\":1354:1361   */\n  dup8\n    /* \"#utility.yul\":1350:1373   */\n  sub\n    /* \"#utility.yul\":1346:1379   */\n  slt\n    /* \"#utility.yul\":1343:1463   */\n  iszero\n  tag_55\n  jumpi\n    /* \"#utility.yul\":1382:1461   */\n  tag_56\n  tag_24\n  jump\t// in\ntag_56:\n    /* \"#utility.yul\":1343:1463   */\ntag_55:\n    /* \"#utility.yul\":1502:1503   */\n  0x00\n    /* \"#utility.yul\":1527:1591   */\n  tag_57\n    /* \"#utility.yul\":1583:1590   */\n  dup8\n    /* \"#utility.yul\":1574:1580   */\n  dup3\n    /* \"#utility.yul\":1563:1572   */\n  dup9\n    /* \"#utility.yul\":1559:1581   */\n  add\n    /* \"#utility.yul\":1527:1591   */\n  tag_28\n  jump\t// in\ntag_57:\n    /* \"#utility.yul\":1517:1591   */\n  swap5\n  pop\n    /* \"#utility.yul\":1473:1601   */\n  pop\n    /* \"#utility.yul\":1640:1642   */\n  0x20\n    /* \"#utility.yul\":1666:1730   */\n  tag_58\n    /* \"#utility.yul\":1722:1729   */\n  dup8\n    /* \"#utility.yul\":1713:1719   */\n  dup3\n    /* \"#utility.yul\":1702:1711   */\n  dup9\n    /* \"#utility.yul\":1698:1720   */\n  add\n    /* \"#utility.yul\":1666:1730   */\n  tag_28\n  jump\t// in\ntag_58:\n    /* \"#utility.yul\":1656:1730   */\n  swap4\n  pop\n    /* \"#utility.yul\":1611:1740   */\n  pop\n    /* \"#utility.yul\":1779:1781   */\n  0x40\n    /* \"#utility.yul\":1805:1869   */\n  tag_59\n    /* \"#utility.yul\":1861:1868   */\n  dup8\n    /* \"#utility.yul\":1852:1858   */\n  dup3\n    /* \"#utility.yul\":1841:1850   */\n  dup9\n    /* \"#utility.yul\":1837:1859   */\n  add\n    /* \"#utility.yul\":1805:1869   */\n  tag_32\n  jump\t// in\ntag_59:\n    /* \"#utility.yul\":1795:1869   */\n  swap3\n  pop\n    /* \"#utility.yul\":1750:1879   */\n  pop\n    /* \"#utility.yul\":1918:1920   */\n  0x60\n    /* \"#utility.yul\":1944:2008   */\n  tag_60\n    /* \"#utility.yul\":2000:2007   */\n  dup8\n    /* \"#utility.yul\":1991:1997   */\n  dup3\n    /* \"#utility.yul\":1980:1989   */\n  dup9\n    /* \"#utility.yul\":1976:1998   */\n  add\n    /* \"#utility.yul\":1944:2008   */\n  tag_32\n  jump\t// in\ntag_60:\n    /* \"#utility.yul\":1934:2008   */\n  swap2\n  pop\n    /* \"#utility.yul\":1889:2018   */\n  pop\n    /* \"#utility.yul\":1205:2025   */\n  swap3\n  swap6\n  swap2\n  swap5\n  pop\n  swap3\n  pop\n  jump\t// out\n    /* \"#utility.yul\":2031:2200   */\ntag_33:\n    /* \"#utility.yul\":2115:2126   */\n  0x00\n    /* \"#utility.yul\":2149:2155   */\n  dup3\n    /* \"#utility.yul\":2144:2147   */\n  dup3\n    /* \"#utility.yul\":2137:2156   */\n  mstore\n    /* \"#utility.yul\":2189:2193   */\n  0x20\n    /* \"#utility.yul\":2184:2187   */\n  dup3\n    /* \"#utility.yul\":2180:2194   */\n  add\n    /* \"#utility.yul\":2165:2194   */\n  swap1\n  pop\n    /* \"#utility.yul\":2031:2200   */\n  swap3\n  swap2\n  pop\n  pop\n  jump\t// out\n    /* \"#utility.yul\":2206:2380   */\ntag_34:\n    /* \"#utility.yul\":2346:2372   */\n  0x4164647265737365732063616e6e6f74206265207a65726f0000000000000000\n    /* \"#utility.yul\":2342:2343   */\n  0x00\n    /* \"#utility.yul\":2334:2340   */\n  dup3\n    /* \"#utility.yul\":2330:2344   */\n  add\n    /* \"#utility.yul\":2323:2373   */\n  mstore\n    /* \"#utility.yul\":2206:2380   */\n  pop\n  jump\t// out\n    /* \"#utility.yul\":2386:2752   */\ntag_35:\n    /* \"#utility.yul\":2528:2531   */\n  0x00\n    /* \"#utility.yul\":2549:2616   */\n  tag_64\n    /* \"#utility.yul\":2613:2615   */\n  0x18\n    /* \"#utility.yul\":2608:2611   */\n  dup4\n    /* \"#utility.yul\":2549:2616   */\n  tag_33\n  jump\t// in\ntag_64:\n    /* \"#utility.yul\":2542:2616   */\n  swap2\n  pop\n    /* \"#utility.yul\":2625:2718   */\n  tag_65\n    /* \"#utility.yul\":2714:2717   */\n  dup3\n    /* \"#utility.yul\":2625:2718   */\n  tag_34\n  jump\t// in\ntag_65:\n    /* \"#utility.yul\":2743:2745   */\n  0x20\n    /* \"#utility.yul\":2738:2741   */\n  dup3\n    /* \"#utility.yul\":2734:2746   */\n  add\n    /* \"#utility.yul\":2727:2746   */\n  swap1\n  pop\n    /* \"#utility.yul\":2386:2752   */\n  swap2\n  swap1\n  pop\n  jump\t// out\n    /* \"#utility.yul\":2758:3177   */\ntag_19:\n    /* \"#utility.yul\":2924:2928   */\n  0x00\n    /* \"#utility.yul\":2962:2964   */\n  0x20\n    /* \"#utility.yul\":2951:2960   */\n  dup3\n    /* \"#utility.yul\":2947:2965   */\n  add\n    /* \"#utility.yul\":2939:2965   */\n  swap1\n  pop\n    /* \"#utility.yul\":3011:3020   */\n  dup2\n    /* \"#utility.yul\":3005:3009   */\n  dup2\n    /* \"#utility.yul\":3001:3021   */\n  sub\n    /* \"#utility.yul\":2997:2998   */\n  0x00\n    /* \"#utility.yul\":2986:2995   */\n  dup4\n    /* \"#utility.yul\":2982:2999   */\n  add\n    /* \"#utility.yul\":2975:3022   */\n  mstore\n    /* \"#utility.yul\":3039:3170   */\n  tag_67\n    /* \"#utility.yul\":3165:3169   */\n  dup2\n    /* \"#utility.yul\":3039:3170   */\n  tag_35\n  jump\t// in\ntag_67:\n    /* \"#utility.yul\":3031:3170   */\n  swap1\n  pop\n    /* \"#utility.yul\":2758:3177   */\n  swap2\n  swap1\n  pop\n  jump\t// out\n    /* \"venda_flattened.sol\":14980:19404  contract GotasNFTMarketplace is Ownable, ReentrancyGuard, Pausable {... */\ntag_20:\n  dataSize(sub_0)\n  dup1\n  dataOffset(sub_0)\n  0x00\n  codecopy\n  0x00\n  return\nstop\n\nsub_0: assembly {\n        /* \"venda_flattened.sol\":14980:19404  contract GotasNFTMarketplace is Ownable, ReentrancyGuard, Pausable {... */\n      mstore(0x40, 0x80)\n      jumpi(tag_1, lt(calldatasize, 0x04))\n      shr(0xe0, calldataload(0x00))\n      dup1\n      0x8da5cb5b\n      gt\n      tag_20\n      jumpi\n      dup1\n      0xcdd78cfc\n      gt\n      tag_21\n      jumpi\n      dup1\n      0xcdd78cfc\n      eq\n      tag_15\n      jumpi\n      dup1\n      0xde74e57b\n      eq\n      tag_16\n      jumpi\n      dup1\n      0xe3b6a1f6\n      eq\n      tag_17\n      jumpi\n      dup1\n      0xed14834f\n      eq\n      tag_18\n      jumpi\n      dup1\n      0xf2fde38b\n      eq\n      tag_19\n      jumpi\n      jump(tag_1)\n    tag_21:\n      dup1\n      0x8da5cb5b\n      eq\n      tag_11\n      jumpi\n      dup1\n      0xaaccf1ec\n      eq\n      tag_12\n      jumpi\n      dup1\n      0xad2f852a\n      eq\n      tag_13\n      jumpi\n      dup1\n      0xcb917b9c\n      eq\n      tag_14\n      jumpi\n      jump(tag_1)\n    tag_20:\n      dup1\n      0x5e4e8d65\n      gt\n      tag_22\n      jumpi\n      dup1\n      0x5e4e8d65\n      eq\n      tag_6\n      jumpi\n      dup1\n      0x715018a6\n      eq\n      tag_7\n      jumpi\n      dup1\n      0x78578bb3\n      eq\n      tag_8\n      jumpi\n      dup1\n      0x8456cb59\n      eq\n      tag_9\n      jumpi\n      dup1\n      0x8a71bb2d\n      eq\n      tag_10\n      jumpi\n      jump(tag_1)\n    tag_22:\n      dup1\n      0x3c44a5f0\n      eq\n      tag_2\n      jumpi\n      dup1\n      0x3f4ba83a\n      eq\n      tag_3\n      jumpi\n      dup1\n      0x51ed8288\n      eq\n      tag_4\n      jumpi\n      dup1\n      0x5c975abb\n      eq\n      tag_5\n      jumpi\n    tag_1:\n      0x00\n      dup1\n      revert\n        /* \"venda_flattened.sol\":16254:17123  function listNFT(address _nftContractAddress, uint256 _nftId, uint256 _price, uint256 _deadline) external whenNotPaused nonReentrant {... */\n    tag_2:\n      callvalue\n      dup1\n      iszero\n      tag_23\n      jumpi\n      0x00\n      dup1\n      revert\n    tag_23:\n      pop\n      tag_24\n      0x04\n      dup1\n      calldatasize\n      sub\n      dup2\n      add\n      swap1\n      tag_25\n      swap2\n      swap1\n      tag_26\n      jump\t// in\n    tag_25:\n      tag_27\n      jump\t// in\n    tag_24:\n      stop\n        /* \"venda_flattened.sol\":18723:18801  function unpause() external onlyOwner nonReentrant {... */\n    tag_3:\n      callvalue\n      dup1\n      iszero\n      tag_28\n      jumpi\n      0x00\n      dup1\n      revert\n    tag_28:\n      pop\n      tag_29\n      tag_30\n      jump\t// in\n    tag_29:\n      stop\n        /* \"venda_flattened.sol\":17129:18375  function buyNFT(uint256 _listingId) external payable whenNotPaused nonReentrant {... */\n    tag_4:\n      tag_31\n      0x04\n      dup1\n      calldatasize\n      sub\n      dup2\n      add\n      swap1\n      tag_32\n      swap2\n      swap1\n      tag_33\n      jump\t// in\n    tag_32:\n      tag_34\n      jump\t// in\n    tag_31:\n      stop\n        /* \"venda_flattened.sol\":5636:5720  function paused() public view virtual returns (bool) {... */\n    tag_5:\n      callvalue\n      dup1\n      iszero\n      tag_35\n      jumpi\n      0x00\n      dup1\n      revert\n    tag_35:\n      pop\n      tag_36\n      tag_37\n      jump\t// in\n    tag_36:\n      mload(0x40)\n      tag_38\n      swap2\n      swap1\n      tag_39\n      jump\t// in\n    tag_38:\n      mload(0x40)\n      dup1\n      swap2\n      sub\n      swap1\n      return\n        /* \"venda_flattened.sol\":18807:19151  function updateFeeAddresses(address _newRoyaltyAddress, address _newPlatformFeeAddress) external onlyOwner nonReentrant {... */\n    tag_6:\n      callvalue\n      dup1\n      iszero\n      tag_40\n      jumpi\n      0x00\n      dup1\n      revert\n    tag_40:\n      pop\n      tag_41\n      0x04\n      dup1\n      calldatasize\n      sub\n      dup2\n      add\n      swap1\n      tag_42\n      swap2\n      swap1\n      tag_43\n      jump\t// in\n    tag_42:\n      tag_44\n      jump\t// in\n    tag_41:\n      stop\n        /* \"venda_flattened.sol\":8390:8491  function renounceOwnership() public virtual onlyOwner {... */\n    tag_7:\n      callvalue\n      dup1\n      iszero\n      tag_45\n      jumpi\n      0x00\n      dup1\n      revert\n    tag_45:\n      pop\n      tag_46\n      tag_47\n      jump\t// in\n    tag_46:\n      stop\n        /* \"venda_flattened.sol\":19157:19402  function updateFeePercentages(uint256 _newRoyaltyPercentage, uint256 _newPlatformFeePercentage) external onlyOwner nonReentrant {... */\n    tag_8:\n      callvalue\n      dup1\n      iszero\n      tag_48\n      jumpi\n      0x00\n      dup1\n      revert\n    tag_48:\n      pop\n      tag_49\n      0x04\n      dup1\n      calldatasize\n      sub\n      dup2\n      add\n      swap1\n      tag_50\n      swap2\n      swap1\n      tag_51\n      jump\t// in\n    tag_50:\n      tag_52\n      jump\t// in\n    tag_49:\n      stop\n        /* \"venda_flattened.sol\":18643:18717  function pause() external onlyOwner nonReentrant {... */\n    tag_9:\n      callvalue\n      dup1\n      iszero\n      tag_53\n      jumpi\n      0x00\n      dup1\n      revert\n    tag_53:\n      pop\n      tag_54\n      tag_55\n      jump\t// in\n    tag_54:\n      stop\n        /* \"venda_flattened.sol\":15252:15284  uint256 public royaltyPercentage */\n    tag_10:\n      callvalue\n      dup1\n      iszero\n      tag_56\n      jumpi\n      0x00\n      dup1\n      revert\n    tag_56:\n      pop\n      tag_57\n      tag_58\n      jump\t// in\n    tag_57:\n      mload(0x40)\n      tag_59\n      swap2\n      swap1\n      tag_60\n      jump\t// in\n    tag_59:\n      mload(0x40)\n      dup1\n      swap2\n      sub\n      swap1\n      return\n        /* \"venda_flattened.sol\":7767:7852  function owner() public view virtual returns (address) {... */\n    tag_11:\n      callvalue\n      dup1\n      iszero\n      tag_61\n      jumpi\n      0x00\n      dup1\n      revert\n    tag_61:\n      pop\n      tag_62\n      tag_63\n      jump\t// in\n    tag_62:\n      mload(0x40)\n      tag_64\n      swap2\n      swap1\n      tag_65\n      jump\t// in\n    tag_64:\n      mload(0x40)\n      dup1\n      swap2\n      sub\n      swap1\n      return\n        /* \"venda_flattened.sol\":15459:15491  uint256 public nextListingId = 1 */\n    tag_12:\n      callvalue\n      dup1\n      iszero\n      tag_66\n      jumpi\n      0x00\n      dup1\n      revert\n    tag_66:\n      pop\n      tag_67\n      tag_68\n      jump\t// in\n    tag_67:\n      mload(0x40)\n      tag_69\n      swap2\n      swap1\n      tag_60\n      jump\t// in\n    tag_69:\n      mload(0x40)\n      dup1\n      swap2\n      sub\n      swap1\n      return\n        /* \"venda_flattened.sol\":15334:15363  address public royaltyAddress */\n    tag_13:\n      callvalue\n      dup1\n      iszero\n      tag_70\n      jumpi\n      0x00\n      dup1\n      revert\n    tag_70:\n      pop\n      tag_71\n      tag_72\n      jump\t// in\n    tag_71:\n      mload(0x40)\n      tag_73\n      swap2\n      swap1\n      tag_65\n      jump\t// in\n    tag_73:\n      mload(0x40)\n      dup1\n      swap2\n      sub\n      swap1\n      return\n        /* \"venda_flattened.sol\":18381:18637  function delistNFT(uint256 _listingId) external nonReentrant {... */\n    tag_14:\n      callvalue\n      dup1\n      iszero\n      tag_74\n      jumpi\n      0x00\n      dup1\n      revert\n    tag_74:\n      pop\n      tag_75\n      0x04\n      dup1\n      calldatasize\n      sub\n      dup2\n      add\n      swap1\n      tag_76\n      swap2\n      swap1\n      tag_33\n      jump\t// in\n    tag_76:\n      tag_77\n      jump\t// in\n    tag_75:\n      stop\n        /* \"venda_flattened.sol\":15291:15327  uint256 public platformFeePercentage */\n    tag_15:\n      callvalue\n      dup1\n      iszero\n      tag_78\n      jumpi\n      0x00\n      dup1\n      revert\n    tag_78:\n      pop\n      tag_79\n      tag_80\n      jump\t// in\n    tag_79:\n      mload(0x40)\n      tag_81\n      swap2\n      swap1\n      tag_60\n      jump\t// in\n    tag_81:\n      mload(0x40)\n      dup1\n      swap2\n      sub\n      swap1\n      return\n        /* \"venda_flattened.sol\":15409:15452  mapping(uint256 => Listing) public listings */\n    tag_16:\n      callvalue\n      dup1\n      iszero\n      tag_82\n      jumpi\n      0x00\n      dup1\n      revert\n    tag_82:\n      pop\n      tag_83\n      0x04\n      dup1\n      calldatasize\n      sub\n      dup2\n      add\n      swap1\n      tag_84\n      swap2\n      swap1\n      tag_33\n      jump\t// in\n    tag_84:\n      tag_85\n      jump\t// in\n    tag_83:\n      mload(0x40)\n      tag_86\n      swap6\n      swap5\n      swap4\n      swap3\n      swap2\n      swap1\n      tag_87\n      jump\t// in\n    tag_86:\n      mload(0x40)\n      dup1\n      swap2\n      sub\n      swap1\n      return\n        /* \"venda_flattened.sol\":15213:15246  uint256[] public activeListingIds */\n    tag_17:\n      callvalue\n      dup1\n      iszero\n      tag_88\n      jumpi\n      0x00\n      dup1\n      revert\n    tag_88:\n      pop\n      tag_89\n      0x04\n      dup1\n      calldatasize\n      sub\n      dup2\n      add\n      swap1\n      tag_90\n      swap2\n      swap1\n      tag_33\n      jump\t// in\n    tag_90:\n      tag_91\n      jump\t// in\n    tag_89:\n      mload(0x40)\n      tag_92\n      swap2\n      swap1\n      tag_60\n      jump\t// in\n    tag_92:\n      mload(0x40)\n      dup1\n      swap2\n      sub\n      swap1\n      return\n        /* \"venda_flattened.sol\":15369:15402  address public platformFeeAddress */\n    tag_18:\n      callvalue\n      dup1\n      iszero\n      tag_93\n      jumpi\n      0x00\n      dup1\n      revert\n    tag_93:\n      pop\n      tag_94\n      tag_95\n      jump\t// in\n    tag_94:\n      mload(0x40)\n      tag_96\n      swap2\n      swap1\n      tag_65\n      jump\t// in\n    tag_96:\n      mload(0x40)\n      dup1\n      swap2\n      sub\n      swap1\n      return\n        /* \"venda_flattened.sol\":8640:8838  function transferOwnership(address newOwner) public virtual onlyOwner {... */\n    tag_19:\n      callvalue\n      dup1\n      iszero\n      tag_97\n      jumpi\n      0x00\n      dup1\n      revert\n    tag_97:\n      pop\n      tag_98\n      0x04\n      dup1\n      calldatasize\n      sub\n      dup2\n      add\n      swap1\n      tag_99\n      swap2\n      swap1\n      tag_100\n      jump\t// in\n    tag_99:\n      tag_101\n      jump\t// in\n    tag_98:\n      stop\n        /* \"venda_flattened.sol\":16254:17123  function listNFT(address _nftContractAddress, uint256 _nftId, uint256 _price, uint256 _deadline) external whenNotPaused nonReentrant {... */\n    tag_27:\n        /* \"venda_flattened.sol\":5260:5279  _requireNotPaused() */\n      tag_103\n        /* \"venda_flattened.sol\":5260:5277  _requireNotPaused */\n      tag_104\n        /* \"venda_flattened.sol\":5260:5279  _requireNotPaused() */\n      jump\t// in\n    tag_103:\n        /* \"venda_flattened.sol\":2294:2315  _nonReentrantBefore() */\n      tag_106\n        /* \"venda_flattened.sol\":2294:2313  _nonReentrantBefore */\n      tag_107\n        /* \"venda_flattened.sol\":2294:2315  _nonReentrantBefore() */\n      jump\t// in\n    tag_106:\n        /* \"venda_flattened.sol\":16414:16415  0 */\n      0x00\n        /* \"venda_flattened.sol\":16405:16411  _price */\n      dup3\n        /* \"venda_flattened.sol\":16405:16415  _price > 0 */\n      gt\n        /* \"venda_flattened.sol\":16397:16452  require(_price > 0, \"Price must be greater than zero.\") */\n      tag_109\n      jumpi\n      mload(0x40)\n      0x08c379a000000000000000000000000000000000000000000000000000000000\n      dup2\n      mstore\n      0x04\n      add\n      tag_110\n      swap1\n      tag_111\n      jump\t// in\n    tag_110:\n      mload(0x40)\n      dup1\n      swap2\n      sub\n      swap1\n      revert\n    tag_109:\n        /* \"venda_flattened.sol\":16482:16483  0 */\n      0x00\n        /* \"venda_flattened.sol\":16470:16479  _deadline */\n      dup2\n        /* \"venda_flattened.sol\":16470:16483  _deadline > 0 */\n      gt\n        /* \"venda_flattened.sol\":16462:16523  require(_deadline > 0, \"Deadline must be greater than zero.\") */\n      tag_112\n      jumpi\n      mload(0x40)\n      0x08c379a000000000000000000000000000000000000000000000000000000000\n      dup2\n      mstore\n      0x04\n      add\n      tag_113\n      swap1\n      tag_114\n      jump\t// in\n    tag_113:\n      mload(0x40)\n      dup1\n      swap2\n      sub\n      swap1\n      revert\n    tag_112:\n        /* \"venda_flattened.sol\":16534:16553  IERC721 nftContract */\n      0x00\n        /* \"venda_flattened.sol\":16564:16583  _nftContractAddress */\n      dup5\n        /* \"venda_flattened.sol\":16534:16584  IERC721 nftContract = IERC721(_nftContractAddress) */\n      swap1\n      pop\n        /* \"venda_flattened.sol\":16633:16643  msg.sender */\n      caller\n        /* \"venda_flattened.sol\":16602:16643  nftContract.ownerOf(_nftId) == msg.sender */\n      0xffffffffffffffffffffffffffffffffffffffff\n      and\n        /* \"venda_flattened.sol\":16602:16613  nftContract */\n      dup2\n        /* \"venda_flattened.sol\":16602:16621  nftContract.ownerOf */\n      0xffffffffffffffffffffffffffffffffffffffff\n      and\n      0x6352211e\n        /* \"venda_flattened.sol\":16622:16628  _nftId */\n      dup7\n        /* \"venda_flattened.sol\":16602:16629  nftContract.ownerOf(_nftId) */\n      mload(0x40)\n      dup3\n      0xffffffff\n      and\n      0xe0\n      shl\n      dup2\n      mstore\n      0x04\n      add\n      tag_115\n      swap2\n      swap1\n      tag_60\n      jump\t// in\n    tag_115:\n      0x20\n      mload(0x40)\n      dup1\n      dup4\n      sub\n      dup2\n      dup7\n      gas\n      staticcall\n      iszero\n      dup1\n      iszero\n      tag_117\n      jumpi\n      returndatasize\n      0x00\n      dup1\n      returndatacopy\n      revert(0x00, returndatasize)\n    tag_117:\n      pop\n      pop\n      pop\n      pop\n      mload(0x40)\n      returndatasize\n      not(0x1f)\n      0x1f\n      dup3\n      add\n      and\n      dup3\n      add\n      dup1\n      0x40\n      mstore\n      pop\n      dup2\n      add\n      swap1\n      tag_118\n      swap2\n      swap1\n      tag_119\n      jump\t// in\n    tag_118:\n        /* \"venda_flattened.sol\":16602:16643  nftContract.ownerOf(_nftId) == msg.sender */\n      0xffffffffffffffffffffffffffffffffffffffff\n      and\n      eq\n        /* \"venda_flattened.sol\":16594:16680  require(nftContract.ownerOf(_nftId) == msg.sender, \"You must own the NFT to list it.\") */\n      tag_120\n      jumpi\n      mload(0x40)\n      0x08c379a000000000000000000000000000000000000000000000000000000000\n      dup2\n      mstore\n      0x04\n      add\n      tag_121\n      swap1\n      tag_122\n      jump\t// in\n    tag_121:\n      mload(0x40)\n      dup1\n      swap2\n      sub\n      swap1\n      revert\n    tag_120:\n        /* \"venda_flattened.sol\":16717:16926  Listing({... */\n      mload(0x40)\n      dup1\n      0xa0\n      add\n      0x40\n      mstore\n      dup1\n        /* \"venda_flattened.sol\":16759:16778  _nftContractAddress */\n      dup7\n        /* \"venda_flattened.sol\":16717:16926  Listing({... */\n      0xffffffffffffffffffffffffffffffffffffffff\n      and\n      dup2\n      mstore\n      0x20\n      add\n        /* \"venda_flattened.sol\":16799:16805  _nftId */\n      dup6\n        /* \"venda_flattened.sol\":16717:16926  Listing({... */\n      dup2\n      mstore\n      0x20\n      add\n        /* \"venda_flattened.sol\":16827:16837  msg.sender */\n      caller\n        /* \"venda_flattened.sol\":16717:16926  Listing({... */\n      0xffffffffffffffffffffffffffffffffffffffff\n      and\n      dup2\n      mstore\n      0x20\n      add\n        /* \"venda_flattened.sol\":16858:16864  _price */\n      dup5\n        /* \"venda_flattened.sol\":16717:16926  Listing({... */\n      dup2\n      mstore\n      0x20\n      add\n        /* \"venda_flattened.sol\":16906:16915  _deadline */\n      dup4\n        /* \"venda_flattened.sol\":16888:16903  block.timestamp */\n      timestamp\n        /* \"venda_flattened.sol\":16888:16915  block.timestamp + _deadline */\n      tag_123\n      swap2\n      swap1\n      tag_124\n      jump\t// in\n    tag_123:\n        /* \"venda_flattened.sol\":16717:16926  Listing({... */\n      dup2\n      mstore\n      pop\n        /* \"venda_flattened.sol\":16691:16699  listings */\n      0x08\n        /* \"venda_flattened.sol\":16691:16714  listings[nextListingId] */\n      0x00\n        /* \"venda_flattened.sol\":16700:16713  nextListingId */\n      sload(0x09)\n        /* \"venda_flattened.sol\":16691:16714  listings[nextListingId] */\n      dup2\n      mstore\n      0x20\n      add\n      swap1\n      dup2\n      mstore\n      0x20\n      add\n      0x00\n      keccak256\n        /* \"venda_flattened.sol\":16691:16926  listings[nextListingId] = Listing({... */\n      0x00\n      dup3\n      add\n      mload\n      dup2\n      0x00\n      add\n      exp(0x0100, 0x00)\n      dup2\n      sload\n      dup2\n      0xffffffffffffffffffffffffffffffffffffffff\n      mul\n      not\n      and\n      swap1\n      dup4\n      0xffffffffffffffffffffffffffffffffffffffff\n      and\n      mul\n      or\n      swap1\n      sstore\n      pop\n      0x20\n      dup3\n      add\n      mload\n      dup2\n      0x01\n      add\n      sstore\n      0x40\n      dup3\n      add\n      mload\n      dup2\n      0x02\n      add\n      exp(0x0100, 0x00)\n      dup2\n      sload\n      dup2\n      0xffffffffffffffffffffffffffffffffffffffff\n      mul\n      not\n      and\n      swap1\n      dup4\n      0xffffffffffffffffffffffffffffffffffffffff\n      and\n      mul\n      or\n      swap1\n      sstore\n      pop\n      0x60\n      dup3\n      add\n      mload\n      dup2\n      0x03\n      add\n      sstore\n      0x80\n      dup3\n      add\n      mload\n      dup2\n      0x04\n      add\n      sstore\n      swap1\n      pop\n      pop\n        /* \"venda_flattened.sol\":16937:16953  activeListingIds */\n      0x03\n        /* \"venda_flattened.sol\":16959:16972  nextListingId */\n      sload(0x09)\n        /* \"venda_flattened.sol\":16937:16973  activeListingIds.push(nextListingId) */\n      swap1\n      dup1\n      0x01\n      dup2\n      sload\n      add\n      dup1\n      dup3\n      sstore\n      dup1\n      swap2\n      pop\n      pop\n      0x01\n      swap1\n      sub\n      swap1\n      0x00\n      mstore\n      keccak256(0x00, 0x20)\n      add\n      0x00\n      swap1\n      swap2\n      swap1\n      swap2\n      swap1\n      swap2\n      pop\n      sstore\n        /* \"venda_flattened.sol\":17026:17045  _nftContractAddress */\n      dup5\n        /* \"venda_flattened.sol\":16989:17091  NFTListed(nextListingId, msg.sender, _nftContractAddress, _nftId, _price, block.timestamp + _deadline) */\n      0xffffffffffffffffffffffffffffffffffffffff\n      and\n        /* \"venda_flattened.sol\":17014:17024  msg.sender */\n      caller\n        /* \"venda_flattened.sol\":16989:17091  NFTListed(nextListingId, msg.sender, _nftContractAddress, _nftId, _price, block.timestamp + _deadline) */\n      0xffffffffffffffffffffffffffffffffffffffff\n      and\n        /* \"venda_flattened.sol\":16999:17012  nextListingId */\n      sload(0x09)\n        /* \"venda_flattened.sol\":16989:17091  NFTListed(nextListingId, msg.sender, _nftContractAddress, _nftId, _price, block.timestamp + _deadline) */\n      0xf33c76fec15a03b2e414df8c9dce93f5b05f8672742e0f1eb558b2161162dfcb\n        /* \"venda_flattened.sol\":17047:17053  _nftId */\n      dup8\n        /* \"venda_flattened.sol\":17055:17061  _price */\n      dup8\n        /* \"venda_flattened.sol\":17081:17090  _deadline */\n      dup8\n        /* \"venda_flattened.sol\":17063:17078  block.timestamp */\n      timestamp\n        /* \"venda_flattened.sol\":17063:17090  block.timestamp + _deadline */\n      tag_126\n      swap2\n      swap1\n      tag_124\n      jump\t// in\n    tag_126:\n        /* \"venda_flattened.sol\":16989:17091  NFTListed(nextListingId, msg.sender, _nftContractAddress, _nftId, _price, block.timestamp + _deadline) */\n      mload(0x40)\n      tag_127\n      swap4\n      swap3\n      swap2\n      swap1\n      tag_128\n      jump\t// in\n    tag_127:\n      mload(0x40)\n      dup1\n      swap2\n      sub\n      swap1\n      log4\n        /* \"venda_flattened.sol\":17101:17114  nextListingId */\n      0x09\n      0x00\n        /* \"venda_flattened.sol\":17101:17116  nextListingId++ */\n      dup2\n      sload\n      dup1\n      swap3\n      swap2\n      swap1\n      tag_129\n      swap1\n      tag_130\n      jump\t// in\n    tag_129:\n      swap2\n      swap1\n      pop\n      sstore\n      pop\n        /* \"venda_flattened.sol\":16387:17123  {... */\n      pop\n        /* \"venda_flattened.sol\":2336:2356  _nonReentrantAfter() */\n      tag_131\n        /* \"venda_flattened.sol\":2336:2354  _nonReentrantAfter */\n      tag_132\n        /* \"venda_flattened.sol\":2336:2356  _nonReentrantAfter() */\n      jump\t// in\n    tag_131:\n        /* \"venda_flattened.sol\":16254:17123  function listNFT(address _nftContractAddress, uint256 _nftId, uint256 _price, uint256 _deadline) external whenNotPaused nonReentrant {... */\n      pop\n      pop\n      pop\n      pop\n      jump\t// out\n        /* \"venda_flattened.sol\":18723:18801  function unpause() external onlyOwner nonReentrant {... */\n    tag_30:\n        /* \"venda_flattened.sol\":7660:7673  _checkOwner() */\n      tag_134\n        /* \"venda_flattened.sol\":7660:7671  _checkOwner */\n      tag_135\n        /* \"venda_flattened.sol\":7660:7673  _checkOwner() */\n      jump\t// in\n    tag_134:\n        /* \"venda_flattened.sol\":2294:2315  _nonReentrantBefore() */\n      tag_137\n        /* \"venda_flattened.sol\":2294:2313  _nonReentrantBefore */\n      tag_107\n        /* \"venda_flattened.sol\":2294:2315  _nonReentrantBefore() */\n      jump\t// in\n    tag_137:\n        /* \"venda_flattened.sol\":18784:18794  _unpause() */\n      tag_139\n        /* \"venda_flattened.sol\":18784:18792  _unpause */\n      tag_140\n        /* \"venda_flattened.sol\":18784:18794  _unpause() */\n      jump\t// in\n    tag_139:\n        /* \"venda_flattened.sol\":2336:2356  _nonReentrantAfter() */\n      tag_141\n        /* \"venda_flattened.sol\":2336:2354  _nonReentrantAfter */\n      tag_132\n        /* \"venda_flattened.sol\":2336:2356  _nonReentrantAfter() */\n      jump\t// in\n    tag_141:\n        /* \"venda_flattened.sol\":18723:18801  function unpause() external onlyOwner nonReentrant {... */\n      jump\t// out\n        /* \"venda_flattened.sol\":17129:18375  function buyNFT(uint256 _listingId) external payable whenNotPaused nonReentrant {... */\n    tag_34:\n        /* \"venda_flattened.sol\":5260:5279  _requireNotPaused() */\n      tag_143\n        /* \"venda_flattened.sol\":5260:5277  _requireNotPaused */\n      tag_104\n        /* \"venda_flattened.sol\":5260:5279  _requireNotPaused() */\n      jump\t// in\n    tag_143:\n        /* \"venda_flattened.sol\":2294:2315  _nonReentrantBefore() */\n      tag_145\n        /* \"venda_flattened.sol\":2294:2313  _nonReentrantBefore */\n      tag_107\n        /* \"venda_flattened.sol\":2294:2315  _nonReentrantBefore() */\n      jump\t// in\n    tag_145:\n        /* \"venda_flattened.sol\":17239:17240  0 */\n      0x00\n        /* \"venda_flattened.sol\":17227:17236  msg.value */\n      callvalue\n        /* \"venda_flattened.sol\":17227:17240  msg.value > 0 */\n      gt\n        /* \"venda_flattened.sol\":17219:17282  require(msg.value > 0, \"Sent value must be greater than zero.\") */\n      tag_147\n      jumpi\n      mload(0x40)\n      0x08c379a000000000000000000000000000000000000000000000000000000000\n      dup2\n      mstore\n      0x04\n      add\n      tag_148\n      swap1\n      tag_149\n      jump\t// in\n    tag_148:\n      mload(0x40)\n      dup1\n      swap2\n      sub\n      swap1\n      revert\n    tag_147:\n        /* \"venda_flattened.sol\":17293:17316  Listing storage listing */\n      0x00\n        /* \"venda_flattened.sol\":17319:17327  listings */\n      0x08\n        /* \"venda_flattened.sol\":17319:17339  listings[_listingId] */\n      0x00\n        /* \"venda_flattened.sol\":17328:17338  _listingId */\n      dup4\n        /* \"venda_flattened.sol\":17319:17339  listings[_listingId] */\n      dup2\n      mstore\n      0x20\n      add\n      swap1\n      dup2\n      mstore\n      0x20\n      add\n      0x00\n      keccak256\n        /* \"venda_flattened.sol\":17293:17339  Listing storage listing = listings[_listingId] */\n      swap1\n      pop\n        /* \"venda_flattened.sol\":17383:17384  0 */\n      0x00\n        /* \"venda_flattened.sol\":17357:17385  listing.seller != address(0) */\n      0xffffffffffffffffffffffffffffffffffffffff\n      and\n        /* \"venda_flattened.sol\":17357:17364  listing */\n      dup2\n        /* \"venda_flattened.sol\":17357:17371  listing.seller */\n      0x02\n      add\n      0x00\n      swap1\n      sload\n      swap1\n      0x0100\n      exp\n      swap1\n      div\n      0xffffffffffffffffffffffffffffffffffffffff\n      and\n        /* \"venda_flattened.sol\":17357:17385  listing.seller != address(0) */\n      0xffffffffffffffffffffffffffffffffffffffff\n      and\n      sub\n        /* \"venda_flattened.sol\":17349:17413  require(listing.seller != address(0), \"Listing does not exist.\") */\n      tag_150\n      jumpi\n      mload(0x40)\n      0x08c379a000000000000000000000000000000000000000000000000000000000\n      dup2\n      mstore\n      0x04\n      add\n      tag_151\n      swap1\n      tag_152\n      jump\t// in\n    tag_151:\n      mload(0x40)\n      dup1\n      swap2\n      sub\n      swap1\n      revert\n    tag_150:\n        /* \"venda_flattened.sol\":17450:17457  listing */\n      dup1\n        /* \"venda_flattened.sol\":17450:17466  listing.deadline */\n      0x04\n      add\n      sload\n        /* \"venda_flattened.sol\":17431:17446  block.timestamp */\n      timestamp\n        /* \"venda_flattened.sol\":17431:17466  block.timestamp <= listing.deadline */\n      gt\n      iszero\n        /* \"venda_flattened.sol\":17423:17496  require(block.timestamp <= listing.deadline, \"This listing has expired.\") */\n      tag_153\n      jumpi\n      mload(0x40)\n      0x08c379a000000000000000000000000000000000000000000000000000000000\n      dup2\n      mstore\n      0x04\n      add\n      tag_154\n      swap1\n      tag_155\n      jump\t// in\n    tag_154:\n      mload(0x40)\n      dup1\n      swap2\n      sub\n      swap1\n      revert\n    tag_153:\n        /* \"venda_flattened.sol\":17527:17534  listing */\n      dup1\n        /* \"venda_flattened.sol\":17527:17540  listing.price */\n      0x03\n      add\n      sload\n        /* \"venda_flattened.sol\":17514:17523  msg.value */\n      callvalue\n        /* \"venda_flattened.sol\":17514:17540  msg.value == listing.price */\n      eq\n        /* \"venda_flattened.sol\":17506:17591  require(msg.value == listing.price, \"Sent value must be equal to the listing price.\") */\n      tag_156\n      jumpi\n      mload(0x40)\n      0x08c379a000000000000000000000000000000000000000000000000000000000\n      dup2\n      mstore\n      0x04\n      add\n      tag_157\n      swap1\n      tag_158\n      jump\t// in\n    tag_157:\n      mload(0x40)\n      dup1\n      swap2\n      sub\n      swap1\n      revert\n    tag_156:\n        /* \"venda_flattened.sol\":17602:17623  uint256 royaltyAmount */\n      0x00\n        /* \"venda_flattened.sol\":17664:17669  10000 */\n      0x2710\n        /* \"venda_flattened.sol\":17643:17660  royaltyPercentage */\n      sload(0x04)\n        /* \"venda_flattened.sol\":17627:17634  listing */\n      dup4\n        /* \"venda_flattened.sol\":17627:17640  listing.price */\n      0x03\n      add\n      sload\n        /* \"venda_flattened.sol\":17627:17660  listing.price * royaltyPercentage */\n      tag_159\n      swap2\n      swap1\n      tag_160\n      jump\t// in\n    tag_159:\n        /* \"venda_flattened.sol\":17626:17669  (listing.price * royaltyPercentage) / 10000 */\n      tag_161\n      swap2\n      swap1\n      tag_162\n      jump\t// in\n    tag_161:\n        /* \"venda_flattened.sol\":17602:17669  uint256 royaltyAmount = (listing.price * royaltyPercentage) / 10000 */\n      swap1\n      pop\n        /* \"venda_flattened.sol\":17679:17698  uint256 platformFee */\n      0x00\n        /* \"venda_flattened.sol\":17743:17748  10000 */\n      0x2710\n        /* \"venda_flattened.sol\":17718:17739  platformFeePercentage */\n      sload(0x05)\n        /* \"venda_flattened.sol\":17702:17709  listing */\n      dup5\n        /* \"venda_flattened.sol\":17702:17715  listing.price */\n      0x03\n      add\n      sload\n        /* \"venda_flattened.sol\":17702:17739  listing.price * platformFeePercentage */\n      tag_163\n      swap2\n      swap1\n      tag_160\n      jump\t// in\n    tag_163:\n        /* \"venda_flattened.sol\":17701:17748  (listing.price * platformFeePercentage) / 10000 */\n      tag_164\n      swap2\n      swap1\n      tag_162\n      jump\t// in\n    tag_164:\n        /* \"venda_flattened.sol\":17679:17748  uint256 platformFee = (listing.price * platformFeePercentage) / 10000 */\n      swap1\n      pop\n        /* \"venda_flattened.sol\":17758:17778  uint256 sellerAmount */\n      0x00\n        /* \"venda_flattened.sol\":17813:17824  platformFee */\n      dup2\n        /* \"venda_flattened.sol\":17797:17810  royaltyAmount */\n      dup4\n        /* \"venda_flattened.sol\":17781:17788  listing */\n      dup6\n        /* \"venda_flattened.sol\":17781:17794  listing.price */\n      0x03\n      add\n      sload\n        /* \"venda_flattened.sol\":17781:17810  listing.price - royaltyAmount */\n      tag_165\n      swap2\n      swap1\n      tag_166\n      jump\t// in\n    tag_165:\n        /* \"venda_flattened.sol\":17781:17824  listing.price - royaltyAmount - platformFee */\n      tag_167\n      swap2\n      swap1\n      tag_166\n      jump\t// in\n    tag_167:\n        /* \"venda_flattened.sol\":17758:17824  uint256 sellerAmount = listing.price - royaltyAmount - platformFee */\n      swap1\n      pop\n        /* \"venda_flattened.sol\":17835:17854  IERC721 nftContract */\n      0x00\n        /* \"venda_flattened.sol\":17865:17872  listing */\n      dup5\n        /* \"venda_flattened.sol\":17865:17891  listing.nftContractAddress */\n      0x00\n      add\n      0x00\n      swap1\n      sload\n      swap1\n      0x0100\n      exp\n      swap1\n      div\n      0xffffffffffffffffffffffffffffffffffffffff\n      and\n        /* \"venda_flattened.sol\":17835:17892  IERC721 nftContract = IERC721(listing.nftContractAddress) */\n      swap1\n      pop\n        /* \"venda_flattened.sol\":17948:17955  listing */\n      dup5\n        /* \"venda_flattened.sol\":17948:17962  listing.seller */\n      0x02\n      add\n      0x00\n      swap1\n      sload\n      swap1\n      0x0100\n      exp\n      swap1\n      div\n      0xffffffffffffffffffffffffffffffffffffffff\n      and\n        /* \"venda_flattened.sol\":17910:17962  nftContract.ownerOf(listing.nftId) == listing.seller */\n      0xffffffffffffffffffffffffffffffffffffffff\n      and\n        /* \"venda_flattened.sol\":17910:17921  nftContract */\n      dup2\n        /* \"venda_flattened.sol\":17910:17929  nftContract.ownerOf */\n      0xffffffffffffffffffffffffffffffffffffffff\n      and\n      0x6352211e\n        /* \"venda_flattened.sol\":17930:17937  listing */\n      dup8\n        /* \"venda_flattened.sol\":17930:17943  listing.nftId */\n      0x01\n      add\n      sload\n        /* \"venda_flattened.sol\":17910:17944  nftContract.ownerOf(listing.nftId) */\n      mload(0x40)\n      dup3\n      0xffffffff\n      and\n      0xe0\n      shl\n      dup2\n      mstore\n      0x04\n      add\n      tag_168\n      swap2\n      swap1\n      tag_60\n      jump\t// in\n    tag_168:\n      0x20\n      mload(0x40)\n      dup1\n      dup4\n      sub\n      dup2\n      dup7\n      gas\n      staticcall\n      iszero\n      dup1\n      iszero\n      tag_170\n      jumpi\n      returndatasize\n      0x00\n      dup1\n      returndatacopy\n      revert(0x00, returndatasize)\n    tag_170:\n      pop\n      pop\n      pop\n      pop\n      mload(0x40)\n      returndatasize\n      not(0x1f)\n      0x1f\n      dup3\n      add\n      and\n      dup3\n      add\n      dup1\n      0x40\n      mstore\n      pop\n      dup2\n      add\n      swap1\n      tag_171\n      swap2\n      swap1\n      tag_119\n      jump\t// in\n    tag_171:\n        /* \"venda_flattened.sol\":17910:17962  nftContract.ownerOf(listing.nftId) == listing.seller */\n      0xffffffffffffffffffffffffffffffffffffffff\n      and\n      eq\n        /* \"venda_flattened.sol\":17902:17997  require(nftContract.ownerOf(listing.nftId) == listing.seller, \"Seller no longer owns the NFT.\") */\n      tag_172\n      jumpi\n      mload(0x40)\n      0x08c379a000000000000000000000000000000000000000000000000000000000\n      dup2\n      mstore\n      0x04\n      add\n      tag_173\n      swap1\n      tag_174\n      jump\t// in\n    tag_173:\n      mload(0x40)\n      dup1\n      swap2\n      sub\n      swap1\n      revert\n    tag_172:\n        /* \"venda_flattened.sol\":18008:18019  nftContract */\n      dup1\n        /* \"venda_flattened.sol\":18008:18036  nftContract.safeTransferFrom */\n      0xffffffffffffffffffffffffffffffffffffffff\n      and\n      0x42842e0e\n        /* \"venda_flattened.sol\":18037:18044  listing */\n      dup7\n        /* \"venda_flattened.sol\":18037:18051  listing.seller */\n      0x02\n      add\n      0x00\n      swap1\n      sload\n      swap1\n      0x0100\n      exp\n      swap1\n      div\n      0xffffffffffffffffffffffffffffffffffffffff\n      and\n        /* \"venda_flattened.sol\":18053:18063  msg.sender */\n      caller\n        /* \"venda_flattened.sol\":18065:18072  listing */\n      dup9\n        /* \"venda_flattened.sol\":18065:18078  listing.nftId */\n      0x01\n      add\n      sload\n        /* \"venda_flattened.sol\":18008:18079  nftContract.safeTransferFrom(listing.seller, msg.sender, listing.nftId) */\n      mload(0x40)\n      dup5\n      0xffffffff\n      and\n      0xe0\n      shl\n      dup2\n      mstore\n      0x04\n      add\n      tag_175\n      swap4\n      swap3\n      swap2\n      swap1\n      tag_176\n      jump\t// in\n    tag_175:\n      0x00\n      mload(0x40)\n      dup1\n      dup4\n      sub\n      dup2\n      0x00\n      dup8\n      dup1\n      extcodesize\n      iszero\n      dup1\n      iszero\n      tag_177\n      jumpi\n      0x00\n      dup1\n      revert\n    tag_177:\n      pop\n      gas\n      call\n      iszero\n      dup1\n      iszero\n      tag_179\n      jumpi\n      returndatasize\n      0x00\n      dup1\n      returndatacopy\n      revert(0x00, returndatasize)\n    tag_179:\n      pop\n      pop\n      pop\n      pop\n        /* \"venda_flattened.sol\":18098:18105  listing */\n      dup5\n        /* \"venda_flattened.sol\":18098:18112  listing.seller */\n      0x02\n      add\n      0x00\n      swap1\n      sload\n      swap1\n      0x0100\n      exp\n      swap1\n      div\n      0xffffffffffffffffffffffffffffffffffffffff\n      and\n        /* \"venda_flattened.sol\":18090:18122  payable(listing.seller).transfer */\n      0xffffffffffffffffffffffffffffffffffffffff\n      and\n        /* \"venda_flattened.sol\":18090:18136  payable(listing.seller).transfer(sellerAmount) */\n      0x08fc\n        /* \"venda_flattened.sol\":18123:18135  sellerAmount */\n      dup4\n        /* \"venda_flattened.sol\":18090:18136  payable(listing.seller).transfer(sellerAmount) */\n      swap1\n      dup2\n      iszero\n      mul\n      swap1\n      mload(0x40)\n      0x00\n      mload(0x40)\n      dup1\n      dup4\n      sub\n      dup2\n      dup6\n      dup9\n      dup9\n      call\n      swap4\n      pop\n      pop\n      pop\n      pop\n      iszero\n      dup1\n      iszero\n      tag_181\n      jumpi\n      returndatasize\n      0x00\n      dup1\n      returndatacopy\n      revert(0x00, returndatasize)\n    tag_181:\n      pop\n        /* \"venda_flattened.sol\":18154:18168  royaltyAddress */\n      0x06\n      0x00\n      swap1\n      sload\n      swap1\n      0x0100\n      exp\n      swap1\n      div\n      0xffffffffffffffffffffffffffffffffffffffff\n      and\n        /* \"venda_flattened.sol\":18146:18178  payable(royaltyAddress).transfer */\n      0xffffffffffffffffffffffffffffffffffffffff\n      and\n        /* \"venda_flattened.sol\":18146:18193  payable(royaltyAddress).transfer(royaltyAmount) */\n      0x08fc\n        /* \"venda_flattened.sol\":18179:18192  royaltyAmount */\n      dup6\n        /* \"venda_flattened.sol\":18146:18193  payable(royaltyAddress).transfer(royaltyAmount) */\n      swap1\n      dup2\n      iszero\n      mul\n      swap1\n      mload(0x40)\n      0x00\n      mload(0x40)\n      dup1\n      dup4\n      sub\n      dup2\n      dup6\n      dup9\n      dup9\n      call\n      swap4\n      pop\n      pop\n      pop\n      pop\n      iszero\n      dup1\n      iszero\n      tag_183\n      jumpi\n      returndatasize\n      0x00\n      dup1\n      returndatacopy\n      revert(0x00, returndatasize)\n    tag_183:\n      pop\n        /* \"venda_flattened.sol\":18211:18229  platformFeeAddress */\n      0x07\n      0x00\n      swap1\n      sload\n      swap1\n      0x0100\n      exp\n      swap1\n      div\n      0xffffffffffffffffffffffffffffffffffffffff\n      and\n        /* \"venda_flattened.sol\":18203:18239  payable(platformFeeAddress).transfer */\n      0xffffffffffffffffffffffffffffffffffffffff\n      and\n        /* \"venda_flattened.sol\":18203:18252  payable(platformFeeAddress).transfer(platformFee) */\n      0x08fc\n        /* \"venda_flattened.sol\":18240:18251  platformFee */\n      dup5\n        /* \"venda_flattened.sol\":18203:18252  payable(platformFeeAddress).transfer(platformFee) */\n      swap1\n      dup2\n      iszero\n      mul\n      swap1\n      mload(0x40)\n      0x00\n      mload(0x40)\n      dup1\n      dup4\n      sub\n      dup2\n      dup6\n      dup9\n      dup9\n      call\n      swap4\n      pop\n      pop\n      pop\n      pop\n      iszero\n      dup1\n      iszero\n      tag_185\n      jumpi\n      returndatasize\n      0x00\n      dup1\n      returndatacopy\n      revert(0x00, returndatasize)\n    tag_185:\n      pop\n        /* \"venda_flattened.sol\":18304:18314  msg.sender */\n      caller\n        /* \"venda_flattened.sol\":18268:18330  NFTSold(_listingId, listing.seller, msg.sender, listing.price) */\n      0xffffffffffffffffffffffffffffffffffffffff\n      and\n        /* \"venda_flattened.sol\":18288:18295  listing */\n      dup6\n        /* \"venda_flattened.sol\":18288:18302  listing.seller */\n      0x02\n      add\n      0x00\n      swap1\n      sload\n      swap1\n      0x0100\n      exp\n      swap1\n      div\n      0xffffffffffffffffffffffffffffffffffffffff\n      and\n        /* \"venda_flattened.sol\":18268:18330  NFTSold(_listingId, listing.seller, msg.sender, listing.price) */\n      0xffffffffffffffffffffffffffffffffffffffff\n      and\n        /* \"venda_flattened.sol\":18276:18286  _listingId */\n      dup8\n        /* \"venda_flattened.sol\":18268:18330  NFTSold(_listingId, listing.seller, msg.sender, listing.price) */\n      0x8562eb94748e30bb0071e932744ce902b460c683474fcb3bfd567ffa16b1afb2\n        /* \"venda_flattened.sol\":18316:18323  listing */\n      dup9\n        /* \"venda_flattened.sol\":18316:18329  listing.price */\n      0x03\n      add\n      sload\n        /* \"venda_flattened.sol\":18268:18330  NFTSold(_listingId, listing.seller, msg.sender, listing.price) */\n      mload(0x40)\n      tag_186\n      swap2\n      swap1\n      tag_60\n      jump\t// in\n    tag_186:\n      mload(0x40)\n      dup1\n      swap2\n      sub\n      swap1\n      log4\n        /* \"venda_flattened.sol\":18348:18356  listings */\n      0x08\n        /* \"venda_flattened.sol\":18348:18368  listings[_listingId] */\n      0x00\n        /* \"venda_flattened.sol\":18357:18367  _listingId */\n      dup8\n        /* \"venda_flattened.sol\":18348:18368  listings[_listingId] */\n      dup2\n      mstore\n      0x20\n      add\n      swap1\n      dup2\n      mstore\n      0x20\n      add\n      0x00\n      keccak256\n      0x00\n        /* \"venda_flattened.sol\":18341:18368  delete listings[_listingId] */\n      dup1\n      dup3\n      add\n      exp(0x0100, 0x00)\n      dup2\n      sload\n      swap1\n      0xffffffffffffffffffffffffffffffffffffffff\n      mul\n      not\n      and\n      swap1\n      sstore\n      0x01\n      dup3\n      add\n      0x00\n      swap1\n      sstore\n      0x02\n      dup3\n      add\n      exp(0x0100, 0x00)\n      dup2\n      sload\n      swap1\n      0xffffffffffffffffffffffffffffffffffffffff\n      mul\n      not\n      and\n      swap1\n      sstore\n      0x03\n      dup3\n      add\n      0x00\n      swap1\n      sstore\n      0x04\n      dup3\n      add\n      0x00\n      swap1\n      sstore\n      pop\n      pop\n        /* \"venda_flattened.sol\":17209:18375  {... */\n      pop\n      pop\n      pop\n      pop\n      pop\n        /* \"venda_flattened.sol\":2336:2356  _nonReentrantAfter() */\n      tag_187\n        /* \"venda_flattened.sol\":2336:2354  _nonReentrantAfter */\n      tag_132\n        /* \"venda_flattened.sol\":2336:2356  _nonReentrantAfter() */\n      jump\t// in\n    tag_187:\n        /* \"venda_flattened.sol\":17129:18375  function buyNFT(uint256 _listingId) external payable whenNotPaused nonReentrant {... */\n      pop\n      jump\t// out\n        /* \"venda_flattened.sol\":5636:5720  function paused() public view virtual returns (bool) {... */\n    tag_37:\n        /* \"venda_flattened.sol\":5683:5687  bool */\n      0x00\n        /* \"venda_flattened.sol\":5706:5713  _paused */\n      0x02\n      0x00\n      swap1\n      sload\n      swap1\n      0x0100\n      exp\n      swap1\n      div\n      0xff\n      and\n        /* \"venda_flattened.sol\":5699:5713  return _paused */\n      swap1\n      pop\n        /* \"venda_flattened.sol\":5636:5720  function paused() public view virtual returns (bool) {... */\n      swap1\n      jump\t// out\n        /* \"venda_flattened.sol\":18807:19151  function updateFeeAddresses(address _newRoyaltyAddress, address _newPlatformFeeAddress) external onlyOwner nonReentrant {... */\n    tag_44:\n        /* \"venda_flattened.sol\":7660:7673  _checkOwner() */\n      tag_190\n        /* \"venda_flattened.sol\":7660:7671  _checkOwner */\n      tag_135\n        /* \"venda_flattened.sol\":7660:7673  _checkOwner() */\n      jump\t// in\n    tag_190:\n        /* \"venda_flattened.sol\":2294:2315  _nonReentrantBefore() */\n      tag_192\n        /* \"venda_flattened.sol\":2294:2313  _nonReentrantBefore */\n      tag_107\n        /* \"venda_flattened.sol\":2294:2315  _nonReentrantBefore() */\n      jump\t// in\n    tag_192:\n        /* \"venda_flattened.sol\":18975:18976  0 */\n      0x00\n        /* \"venda_flattened.sol\":18945:18977  _newRoyaltyAddress != address(0) */\n      0xffffffffffffffffffffffffffffffffffffffff\n      and\n        /* \"venda_flattened.sol\":18945:18963  _newRoyaltyAddress */\n      dup3\n        /* \"venda_flattened.sol\":18945:18977  _newRoyaltyAddress != address(0) */\n      0xffffffffffffffffffffffffffffffffffffffff\n      and\n      eq\n      iszero\n        /* \"venda_flattened.sol\":18945:19017  _newRoyaltyAddress != address(0) && _newPlatformFeeAddress != address(0) */\n      dup1\n      iszero\n      tag_194\n      jumpi\n      pop\n        /* \"venda_flattened.sol\":19015:19016  0 */\n      0x00\n        /* \"venda_flattened.sol\":18981:19017  _newPlatformFeeAddress != address(0) */\n      0xffffffffffffffffffffffffffffffffffffffff\n      and\n        /* \"venda_flattened.sol\":18981:19003  _newPlatformFeeAddress */\n      dup2\n        /* \"venda_flattened.sol\":18981:19017  _newPlatformFeeAddress != address(0) */\n      0xffffffffffffffffffffffffffffffffffffffff\n      and\n      eq\n      iszero\n        /* \"venda_flattened.sol\":18945:19017  _newRoyaltyAddress != address(0) && _newPlatformFeeAddress != address(0) */\n    tag_194:\n        /* \"venda_flattened.sol\":18937:19046  require(_newRoyaltyAddress != address(0) && _newPlatformFeeAddress != address(0), \"Addresses cannot be zero\") */\n      tag_195\n      jumpi\n      mload(0x40)\n      0x08c379a000000000000000000000000000000000000000000000000000000000\n      dup2\n      mstore\n      0x04\n      add\n      tag_196\n      swap1\n      tag_197\n      jump\t// in\n    tag_196:\n      mload(0x40)\n      dup1\n      swap2\n      sub\n      swap1\n      revert\n    tag_195:\n        /* \"venda_flattened.sol\":19073:19091  _newRoyaltyAddress */\n      dup2\n        /* \"venda_flattened.sol\":19056:19070  royaltyAddress */\n      0x06\n      0x00\n        /* \"venda_flattened.sol\":19056:19091  royaltyAddress = _newRoyaltyAddress */\n      0x0100\n      exp\n      dup2\n      sload\n      dup2\n      0xffffffffffffffffffffffffffffffffffffffff\n      mul\n      not\n      and\n      swap1\n      dup4\n      0xffffffffffffffffffffffffffffffffffffffff\n      and\n      mul\n      or\n      swap1\n      sstore\n      pop\n        /* \"venda_flattened.sol\":19122:19144  _newPlatformFeeAddress */\n      dup1\n        /* \"venda_flattened.sol\":19101:19119  platformFeeAddress */\n      0x07\n      0x00\n        /* \"venda_flattened.sol\":19101:19144  platformFeeAddress = _newPlatformFeeAddress */\n      0x0100\n      exp\n      dup2\n      sload\n      dup2\n      0xffffffffffffffffffffffffffffffffffffffff\n      mul\n      not\n      and\n      swap1\n      dup4\n      0xffffffffffffffffffffffffffffffffffffffff\n      and\n      mul\n      or\n      swap1\n      sstore\n      pop\n        /* \"venda_flattened.sol\":2336:2356  _nonReentrantAfter() */\n      tag_198\n        /* \"venda_flattened.sol\":2336:2354  _nonReentrantAfter */\n      tag_132\n        /* \"venda_flattened.sol\":2336:2356  _nonReentrantAfter() */\n      jump\t// in\n    tag_198:\n        /* \"venda_flattened.sol\":18807:19151  function updateFeeAddresses(address _newRoyaltyAddress, address _newPlatformFeeAddress) external onlyOwner nonReentrant {... */\n      pop\n      pop\n      jump\t// out\n        /* \"venda_flattened.sol\":8390:8491  function renounceOwnership() public virtual onlyOwner {... */\n    tag_47:\n        /* \"venda_flattened.sol\":7660:7673  _checkOwner() */\n      tag_200\n        /* \"venda_flattened.sol\":7660:7671  _checkOwner */\n      tag_135\n        /* \"venda_flattened.sol\":7660:7673  _checkOwner() */\n      jump\t// in\n    tag_200:\n        /* \"venda_flattened.sol\":8454:8484  _transferOwnership(address(0)) */\n      tag_202\n        /* \"venda_flattened.sol\":8481:8482  0 */\n      0x00\n        /* \"venda_flattened.sol\":8454:8472  _transferOwnership */\n      tag_203\n        /* \"venda_flattened.sol\":8454:8484  _transferOwnership(address(0)) */\n      jump\t// in\n    tag_202:\n        /* \"venda_flattened.sol\":8390:8491  function renounceOwnership() public virtual onlyOwner {... */\n      jump\t// out\n        /* \"venda_flattened.sol\":19157:19402  function updateFeePercentages(uint256 _newRoyaltyPercentage, uint256 _newPlatformFeePercentage) external onlyOwner nonReentrant {... */\n    tag_52:\n        /* \"venda_flattened.sol\":7660:7673  _checkOwner() */\n      tag_205\n        /* \"venda_flattened.sol\":7660:7671  _checkOwner */\n      tag_135\n        /* \"venda_flattened.sol\":7660:7673  _checkOwner() */\n      jump\t// in\n    tag_205:\n        /* \"venda_flattened.sol\":2294:2315  _nonReentrantBefore() */\n      tag_207\n        /* \"venda_flattened.sol\":2294:2313  _nonReentrantBefore */\n      tag_107\n        /* \"venda_flattened.sol\":2294:2315  _nonReentrantBefore() */\n      jump\t// in\n    tag_207:\n        /* \"venda_flattened.sol\":19315:19336  _newRoyaltyPercentage */\n      dup2\n        /* \"venda_flattened.sol\":19295:19312  royaltyPercentage */\n      0x04\n        /* \"venda_flattened.sol\":19295:19336  royaltyPercentage = _newRoyaltyPercentage */\n      dup2\n      swap1\n      sstore\n      pop\n        /* \"venda_flattened.sol\":19370:19395  _newPlatformFeePercentage */\n      dup1\n        /* \"venda_flattened.sol\":19346:19367  platformFeePercentage */\n      0x05\n        /* \"venda_flattened.sol\":19346:19395  platformFeePercentage = _newPlatformFeePercentage */\n      dup2\n      swap1\n      sstore\n      pop\n        /* \"venda_flattened.sol\":2336:2356  _nonReentrantAfter() */\n      tag_209\n        /* \"venda_flattened.sol\":2336:2354  _nonReentrantAfter */\n      tag_132\n        /* \"venda_flattened.sol\":2336:2356  _nonReentrantAfter() */\n      jump\t// in\n    tag_209:\n        /* \"venda_flattened.sol\":19157:19402  function updateFeePercentages(uint256 _newRoyaltyPercentage, uint256 _newPlatformFeePercentage) external onlyOwner nonReentrant {... */\n      pop\n      pop\n      jump\t// out\n        /* \"venda_flattened.sol\":18643:18717  function pause() external onlyOwner nonReentrant {... */\n    tag_55:\n        /* \"venda_flattened.sol\":7660:7673  _checkOwner() */\n      tag_211\n        /* \"venda_flattened.sol\":7660:7671  _checkOwner */\n      tag_135\n        /* \"venda_flattened.sol\":7660:7673  _checkOwner() */\n      jump\t// in\n    tag_211:\n        /* \"venda_flattened.sol\":2294:2315  _nonReentrantBefore() */\n      tag_213\n        /* \"venda_flattened.sol\":2294:2313  _nonReentrantBefore */\n      tag_107\n        /* \"venda_flattened.sol\":2294:2315  _nonReentrantBefore() */\n      jump\t// in\n    tag_213:\n        /* \"venda_flattened.sol\":18702:18710  _pause() */\n      tag_215\n        /* \"venda_flattened.sol\":18702:18708  _pause */\n      tag_216\n        /* \"venda_flattened.sol\":18702:18710  _pause() */\n      jump\t// in\n    tag_215:\n        /* \"venda_flattened.sol\":2336:2356  _nonReentrantAfter() */\n      tag_217\n        /* \"venda_flattened.sol\":2336:2354  _nonReentrantAfter */\n      tag_132\n        /* \"venda_flattened.sol\":2336:2356  _nonReentrantAfter() */\n      jump\t// in\n    tag_217:\n        /* \"venda_flattened.sol\":18643:18717  function pause() external onlyOwner nonReentrant {... */\n      jump\t// out\n        /* \"venda_flattened.sol\":15252:15284  uint256 public royaltyPercentage */\n    tag_58:\n      sload(0x04)\n      dup2\n      jump\t// out\n        /* \"venda_flattened.sol\":7767:7852  function owner() public view virtual returns (address) {... */\n    tag_63:\n        /* \"venda_flattened.sol\":7813:7820  address */\n      0x00\n        /* \"venda_flattened.sol\":7839:7845  _owner */\n      dup1\n      0x00\n      swap1\n      sload\n      swap1\n      0x0100\n      exp\n      swap1\n      div\n      0xffffffffffffffffffffffffffffffffffffffff\n      and\n        /* \"venda_flattened.sol\":7832:7845  return _owner */\n      swap1\n      pop\n        /* \"venda_flattened.sol\":7767:7852  function owner() public view virtual returns (address) {... */\n      swap1\n      jump\t// out\n        /* \"venda_flattened.sol\":15459:15491  uint256 public nextListingId = 1 */\n    tag_68:\n      sload(0x09)\n      dup2\n      jump\t// out\n        /* \"venda_flattened.sol\":15334:15363  address public royaltyAddress */\n    tag_72:\n      0x06\n      0x00\n      swap1\n      sload\n      swap1\n      0x0100\n      exp\n      swap1\n      div\n      0xffffffffffffffffffffffffffffffffffffffff\n      and\n      dup2\n      jump\t// out\n        /* \"venda_flattened.sol\":18381:18637  function delistNFT(uint256 _listingId) external nonReentrant {... */\n    tag_77:\n        /* \"venda_flattened.sol\":2294:2315  _nonReentrantBefore() */\n      tag_220\n        /* \"venda_flattened.sol\":2294:2313  _nonReentrantBefore */\n      tag_107\n        /* \"venda_flattened.sol\":2294:2315  _nonReentrantBefore() */\n      jump\t// in\n    tag_220:\n        /* \"venda_flattened.sol\":18491:18501  msg.sender */\n      caller\n        /* \"venda_flattened.sol\":18460:18501  listings[_listingId].seller == msg.sender */\n      0xffffffffffffffffffffffffffffffffffffffff\n      and\n        /* \"venda_flattened.sol\":18460:18468  listings */\n      0x08\n        /* \"venda_flattened.sol\":18460:18480  listings[_listingId] */\n      0x00\n        /* \"venda_flattened.sol\":18469:18479  _listingId */\n      dup4\n        /* \"venda_flattened.sol\":18460:18480  listings[_listingId] */\n      dup2\n      mstore\n      0x20\n      add\n      swap1\n      dup2\n      mstore\n      0x20\n      add\n      0x00\n      keccak256\n        /* \"venda_flattened.sol\":18460:18487  listings[_listingId].seller */\n      0x02\n      add\n      0x00\n      swap1\n      sload\n      swap1\n      0x0100\n      exp\n      swap1\n      div\n      0xffffffffffffffffffffffffffffffffffffffff\n      and\n        /* \"venda_flattened.sol\":18460:18501  listings[_listingId].seller == msg.sender */\n      0xffffffffffffffffffffffffffffffffffffffff\n      and\n      eq\n        /* \"venda_flattened.sol\":18452:18545  require(listings[_listingId].seller == msg.sender, \"You are not the seller of this listing.\") */\n      tag_222\n      jumpi\n      mload(0x40)\n      0x08c379a000000000000000000000000000000000000000000000000000000000\n      dup2\n      mstore\n      0x04\n      add\n      tag_223\n      swap1\n      tag_224\n      jump\t// in\n    tag_223:\n      mload(0x40)\n      dup1\n      swap2\n      sub\n      swap1\n      revert\n    tag_222:\n        /* \"venda_flattened.sol\":18571:18579  listings */\n      0x08\n        /* \"venda_flattened.sol\":18571:18591  listings[_listingId] */\n      0x00\n        /* \"venda_flattened.sol\":18580:18590  _listingId */\n      dup3\n        /* \"venda_flattened.sol\":18571:18591  listings[_listingId] */\n      dup2\n      mstore\n      0x20\n      add\n      swap1\n      dup2\n      mstore\n      0x20\n      add\n      0x00\n      keccak256\n      0x00\n        /* \"venda_flattened.sol\":18564:18591  delete listings[_listingId] */\n      dup1\n      dup3\n      add\n      exp(0x0100, 0x00)\n      dup2\n      sload\n      swap1\n      0xffffffffffffffffffffffffffffffffffffffff\n      mul\n      not\n      and\n      swap1\n      sstore\n      0x01\n      dup3\n      add\n      0x00\n      swap1\n      sstore\n      0x02\n      dup3\n      add\n      exp(0x0100, 0x00)\n      dup2\n      sload\n      swap1\n      0xffffffffffffffffffffffffffffffffffffffff\n      mul\n      not\n      and\n      swap1\n      sstore\n      0x03\n      dup3\n      add\n      0x00\n      swap1\n      sstore\n      0x04\n      dup3\n      add\n      0x00\n      swap1\n      sstore\n      pop\n      pop\n        /* \"venda_flattened.sol\":18619:18629  _listingId */\n      dup1\n        /* \"venda_flattened.sol\":18607:18630  NFTDelisted(_listingId) */\n      0xc0c55a6edead4433d18cb1e287a0a20a2fa003a6f483bc9823d2e504d70d1c67\n      mload(0x40)\n      mload(0x40)\n      dup1\n      swap2\n      sub\n      swap1\n      log2\n        /* \"venda_flattened.sol\":2336:2356  _nonReentrantAfter() */\n      tag_225\n        /* \"venda_flattened.sol\":2336:2354  _nonReentrantAfter */\n      tag_132\n        /* \"venda_flattened.sol\":2336:2356  _nonReentrantAfter() */\n      jump\t// in\n    tag_225:\n        /* \"venda_flattened.sol\":18381:18637  function delistNFT(uint256 _listingId) external nonReentrant {... */\n      pop\n      jump\t// out\n        /* \"venda_flattened.sol\":15291:15327  uint256 public platformFeePercentage */\n    tag_80:\n      sload(0x05)\n      dup2\n      jump\t// out\n        /* \"venda_flattened.sol\":15409:15452  mapping(uint256 => Listing) public listings */\n    tag_85:\n      mstore(0x20, 0x08)\n      dup1\n      0x00\n      mstore\n      keccak256(0x00, 0x40)\n      0x00\n      swap2\n      pop\n      swap1\n      pop\n      dup1\n      0x00\n      add\n      0x00\n      swap1\n      sload\n      swap1\n      0x0100\n      exp\n      swap1\n      div\n      0xffffffffffffffffffffffffffffffffffffffff\n      and\n      swap1\n      dup1\n      0x01\n      add\n      sload\n      swap1\n      dup1\n      0x02\n      add\n      0x00\n      swap1\n      sload\n      swap1\n      0x0100\n      exp\n      swap1\n      div\n      0xffffffffffffffffffffffffffffffffffffffff\n      and\n      swap1\n      dup1\n      0x03\n      add\n      sload\n      swap1\n      dup1\n      0x04\n      add\n      sload\n      swap1\n      pop\n      dup6\n      jump\t// out\n        /* \"venda_flattened.sol\":15213:15246  uint256[] public activeListingIds */\n    tag_91:\n      0x03\n      dup2\n      dup2\n      sload\n      dup2\n      lt\n      tag_226\n      jumpi\n      0x00\n      dup1\n      revert\n    tag_226:\n      swap1\n      0x00\n      mstore\n      keccak256(0x00, 0x20)\n      add\n      0x00\n      swap2\n      pop\n      swap1\n      pop\n      sload\n      dup2\n      jump\t// out\n        /* \"venda_flattened.sol\":15369:15402  address public platformFeeAddress */\n    tag_95:\n      0x07\n      0x00\n      swap1\n      sload\n      swap1\n      0x0100\n      exp\n      swap1\n      div\n      0xffffffffffffffffffffffffffffffffffffffff\n      and\n      dup2\n      jump\t// out\n        /* \"venda_flattened.sol\":8640:8838  function transferOwnership(address newOwner) public virtual onlyOwner {... */\n    tag_101:\n        /* \"venda_flattened.sol\":7660:7673  _checkOwner() */\n      tag_229\n        /* \"venda_flattened.sol\":7660:7671  _checkOwner */\n      tag_135\n        /* \"venda_flattened.sol\":7660:7673  _checkOwner() */\n      jump\t// in\n    tag_229:\n        /* \"venda_flattened.sol\":8748:8749  0 */\n      0x00\n        /* \"venda_flattened.sol\":8728:8750  newOwner != address(0) */\n      0xffffffffffffffffffffffffffffffffffffffff\n      and\n        /* \"venda_flattened.sol\":8728:8736  newOwner */\n      dup2\n        /* \"venda_flattened.sol\":8728:8750  newOwner != address(0) */\n      0xffffffffffffffffffffffffffffffffffffffff\n      and\n      sub\n        /* \"venda_flattened.sol\":8720:8793  require(newOwner != address(0), \"Ownable: new owner is the zero address\") */\n      tag_231\n      jumpi\n      mload(0x40)\n      0x08c379a000000000000000000000000000000000000000000000000000000000\n      dup2\n      mstore\n      0x04\n      add\n      tag_232\n      swap1\n      tag_233\n      jump\t// in\n    tag_232:\n      mload(0x40)\n      dup1\n      swap2\n      sub\n      swap1\n      revert\n    tag_231:\n        /* \"venda_flattened.sol\":8803:8831  _transferOwnership(newOwner) */\n      tag_234\n        /* \"venda_flattened.sol\":8822:8830  newOwner */\n      dup2\n        /* \"venda_flattened.sol\":8803:8821  _transferOwnership */\n      tag_203\n        /* \"venda_flattened.sol\":8803:8831  _transferOwnership(newOwner) */\n      jump\t// in\n    tag_234:\n        /* \"venda_flattened.sol\":8640:8838  function transferOwnership(address newOwner) public virtual onlyOwner {... */\n      pop\n      jump\t// out\n        /* \"venda_flattened.sol\":5788:5894  function _requireNotPaused() internal view virtual {... */\n    tag_104:\n        /* \"venda_flattened.sol\":5858:5866  paused() */\n      tag_236\n        /* \"venda_flattened.sol\":5858:5864  paused */\n      tag_37\n        /* \"venda_flattened.sol\":5858:5866  paused() */\n      jump\t// in\n    tag_236:\n        /* \"venda_flattened.sol\":5857:5866  !paused() */\n      iszero\n        /* \"venda_flattened.sol\":5849:5887  require(!paused(), \"Pausable: paused\") */\n      tag_237\n      jumpi\n      mload(0x40)\n      0x08c379a000000000000000000000000000000000000000000000000000000000\n      dup2\n      mstore\n      0x04\n      add\n      tag_238\n      swap1\n      tag_239\n      jump\t// in\n    tag_238:\n      mload(0x40)\n      dup1\n      swap2\n      sub\n      swap1\n      revert\n    tag_237:\n        /* \"venda_flattened.sol\":5788:5894  function _requireNotPaused() internal view virtual {... */\n      jump\t// out\n        /* \"venda_flattened.sol\":2369:2656  function _nonReentrantBefore() private {... */\n    tag_107:\n        /* \"venda_flattened.sol\":1792:1793  2 */\n      0x02\n        /* \"venda_flattened.sol\":2501:2508  _status */\n      sload(0x01)\n        /* \"venda_flattened.sol\":2501:2520  _status != _ENTERED */\n      sub\n        /* \"venda_flattened.sol\":2493:2556  require(_status != _ENTERED, \"ReentrancyGuard: reentrant call\") */\n      tag_241\n      jumpi\n      mload(0x40)\n      0x08c379a000000000000000000000000000000000000000000000000000000000\n      dup2\n      mstore\n      0x04\n      add\n      tag_242\n      swap1\n      tag_243\n      jump\t// in\n    tag_242:\n      mload(0x40)\n      dup1\n      swap2\n      sub\n      swap1\n      revert\n    tag_241:\n        /* \"venda_flattened.sol\":1792:1793  2 */\n      0x02\n        /* \"venda_flattened.sol\":2631:2638  _status */\n      0x01\n        /* \"venda_flattened.sol\":2631:2649  _status = _ENTERED */\n      dup2\n      swap1\n      sstore\n      pop\n        /* \"venda_flattened.sol\":2369:2656  function _nonReentrantBefore() private {... */\n      jump\t// out\n        /* \"venda_flattened.sol\":2662:2871  function _nonReentrantAfter() private {... */\n    tag_132:\n        /* \"venda_flattened.sol\":1749:1750  1 */\n      0x01\n        /* \"venda_flattened.sol\":2842:2849  _status */\n      dup1\n        /* \"venda_flattened.sol\":2842:2864  _status = _NOT_ENTERED */\n      dup2\n      swap1\n      sstore\n      pop\n        /* \"venda_flattened.sol\":2662:2871  function _nonReentrantAfter() private {... */\n      jump\t// out\n        /* \"venda_flattened.sol\":7925:8055  function _checkOwner() internal view virtual {... */\n    tag_135:\n        /* \"venda_flattened.sol\":7999:8011  _msgSender() */\n      tag_246\n        /* \"venda_flattened.sol\":7999:8009  _msgSender */\n      tag_247\n        /* \"venda_flattened.sol\":7999:8011  _msgSender() */\n      jump\t// in\n    tag_246:\n        /* \"venda_flattened.sol\":7988:8011  owner() == _msgSender() */\n      0xffffffffffffffffffffffffffffffffffffffff\n      and\n        /* \"venda_flattened.sol\":7988:7995  owner() */\n      tag_248\n        /* \"venda_flattened.sol\":7988:7993  owner */\n      tag_63\n        /* \"venda_flattened.sol\":7988:7995  owner() */\n      jump\t// in\n    tag_248:\n        /* \"venda_flattened.sol\":7988:8011  owner() == _msgSender() */\n      0xffffffffffffffffffffffffffffffffffffffff\n      and\n      eq\n        /* \"venda_flattened.sol\":7980:8048  require(owner() == _msgSender(), \"Ownable: caller is not the owner\") */\n      tag_249\n      jumpi\n      mload(0x40)\n      0x08c379a000000000000000000000000000000000000000000000000000000000\n      dup2\n      mstore\n      0x04\n      add\n      tag_250\n      swap1\n      tag_251\n      jump\t// in\n    tag_250:\n      mload(0x40)\n      dup1\n      swap2\n      sub\n      swap1\n      revert\n    tag_249:\n        /* \"venda_flattened.sol\":7925:8055  function _checkOwner() internal view virtual {... */\n      jump\t// out\n        /* \"venda_flattened.sol\":6454:6571  function _unpause() internal virtual whenPaused {... */\n    tag_140:\n        /* \"venda_flattened.sol\":5507:5523  _requirePaused() */\n      tag_253\n        /* \"venda_flattened.sol\":5507:5521  _requirePaused */\n      tag_254\n        /* \"venda_flattened.sol\":5507:5523  _requirePaused() */\n      jump\t// in\n    tag_253:\n        /* \"venda_flattened.sol\":6522:6527  false */\n      0x00\n        /* \"venda_flattened.sol\":6512:6519  _paused */\n      0x02\n      0x00\n        /* \"venda_flattened.sol\":6512:6527  _paused = false */\n      0x0100\n      exp\n      dup2\n      sload\n      dup2\n      0xff\n      mul\n      not\n      and\n      swap1\n      dup4\n      iszero\n      iszero\n      mul\n      or\n      swap1\n      sstore\n      pop\n        /* \"venda_flattened.sol\":6542:6564  Unpaused(_msgSender()) */\n      0x5db9ee0a495bf2e6ff9c91a7834c1ba4fdd244a5e8aa4e537bd38aeae4b073aa\n        /* \"venda_flattened.sol\":6551:6563  _msgSender() */\n      tag_256\n        /* \"venda_flattened.sol\":6551:6561  _msgSender */\n      tag_247\n        /* \"venda_flattened.sol\":6551:6563  _msgSender() */\n      jump\t// in\n    tag_256:\n        /* \"venda_flattened.sol\":6542:6564  Unpaused(_msgSender()) */\n      mload(0x40)\n      tag_257\n      swap2\n      swap1\n      tag_65\n      jump\t// in\n    tag_257:\n      mload(0x40)\n      dup1\n      swap2\n      sub\n      swap1\n      log1\n        /* \"venda_flattened.sol\":6454:6571  function _unpause() internal virtual whenPaused {... */\n      jump\t// out\n        /* \"venda_flattened.sol\":8992:9179  function _transferOwnership(address newOwner) internal virtual {... */\n    tag_203:\n        /* \"venda_flattened.sol\":9065:9081  address oldOwner */\n      0x00\n        /* \"venda_flattened.sol\":9084:9090  _owner */\n      dup1\n      0x00\n      swap1\n      sload\n      swap1\n      0x0100\n      exp\n      swap1\n      div\n      0xffffffffffffffffffffffffffffffffffffffff\n      and\n        /* \"venda_flattened.sol\":9065:9090  address oldOwner = _owner */\n      swap1\n      pop\n        /* \"venda_flattened.sol\":9109:9117  newOwner */\n      dup2\n        /* \"venda_flattened.sol\":9100:9106  _owner */\n      0x00\n      dup1\n        /* \"venda_flattened.sol\":9100:9117  _owner = newOwner */\n      0x0100\n      exp\n      dup2\n      sload\n      dup2\n      0xffffffffffffffffffffffffffffffffffffffff\n      mul\n      not\n      and\n      swap1\n      dup4\n      0xffffffffffffffffffffffffffffffffffffffff\n      and\n      mul\n      or\n      swap1\n      sstore\n      pop\n        /* \"venda_flattened.sol\":9163:9171  newOwner */\n      dup2\n        /* \"venda_flattened.sol\":9132:9172  OwnershipTransferred(oldOwner, newOwner) */\n      0xffffffffffffffffffffffffffffffffffffffff\n      and\n        /* \"venda_flattened.sol\":9153:9161  oldOwner */\n      dup2\n        /* \"venda_flattened.sol\":9132:9172  OwnershipTransferred(oldOwner, newOwner) */\n      0xffffffffffffffffffffffffffffffffffffffff\n      and\n      0x8be0079c531659141344cd1fd0a4f28419497f9722a3daafe3b4186f6b6457e0\n      mload(0x40)\n      mload(0x40)\n      dup1\n      swap2\n      sub\n      swap1\n      log3\n        /* \"venda_flattened.sol\":9055:9179  {... */\n      pop\n        /* \"venda_flattened.sol\":8992:9179  function _transferOwnership(address newOwner) internal virtual {... */\n      pop\n      jump\t// out\n        /* \"venda_flattened.sol\":6207:6322  function _pause() internal virtual whenNotPaused {... */\n    tag_216:\n        /* \"venda_flattened.sol\":5260:5279  _requireNotPaused() */\n      tag_260\n        /* \"venda_flattened.sol\":5260:5277  _requireNotPaused */\n      tag_104\n        /* \"venda_flattened.sol\":5260:5279  _requireNotPaused() */\n      jump\t// in\n    tag_260:\n        /* \"venda_flattened.sol\":6276:6280  true */\n      0x01\n        /* \"venda_flattened.sol\":6266:6273  _paused */\n      0x02\n      0x00\n        /* \"venda_flattened.sol\":6266:6280  _paused = true */\n      0x0100\n      exp\n      dup2\n      sload\n      dup2\n      0xff\n      mul\n      not\n      and\n      swap1\n      dup4\n      iszero\n      iszero\n      mul\n      or\n      swap1\n      sstore\n      pop\n        /* \"venda_flattened.sol\":6295:6315  Paused(_msgSender()) */\n      0x62e78cea01bee320cd4e420270b5ea74000d11b0c9f74754ebdbfc544b05a258\n        /* \"venda_flattened.sol\":6302:6314  _msgSender() */\n      tag_262\n        /* \"venda_flattened.sol\":6302:6312  _msgSender */\n      tag_247\n        /* \"venda_flattened.sol\":6302:6314  _msgSender() */\n      jump\t// in\n    tag_262:\n        /* \"venda_flattened.sol\":6295:6315  Paused(_msgSender()) */\n      mload(0x40)\n      tag_263\n      swap2\n      swap1\n      tag_65\n      jump\t// in\n    tag_263:\n      mload(0x40)\n      dup1\n      swap2\n      sub\n      swap1\n      log1\n        /* \"venda_flattened.sol\":6207:6322  function _pause() internal virtual whenNotPaused {... */\n      jump\t// out\n        /* \"venda_flattened.sol\":3822:3918  function _msgSender() internal view virtual returns (address) {... */\n    tag_247:\n        /* \"venda_flattened.sol\":3875:3882  address */\n      0x00\n        /* \"venda_flattened.sol\":3901:3911  msg.sender */\n      caller\n        /* \"venda_flattened.sol\":3894:3911  return msg.sender */\n      swap1\n      pop\n        /* \"venda_flattened.sol\":3822:3918  function _msgSender() internal view virtual returns (address) {... */\n      swap1\n      jump\t// out\n        /* \"venda_flattened.sol\":5966:6072  function _requirePaused() internal view virtual {... */\n    tag_254:\n        /* \"venda_flattened.sol\":6032:6040  paused() */\n      tag_266\n        /* \"venda_flattened.sol\":6032:6038  paused */\n      tag_37\n        /* \"venda_flattened.sol\":6032:6040  paused() */\n      jump\t// in\n    tag_266:\n        /* \"venda_flattened.sol\":6024:6065  require(paused(), \"Pausable: not paused\") */\n      tag_267\n      jumpi\n      mload(0x40)\n      0x08c379a000000000000000000000000000000000000000000000000000000000\n      dup2\n      mstore\n      0x04\n      add\n      tag_268\n      swap1\n      tag_269\n      jump\t// in\n    tag_268:\n      mload(0x40)\n      dup1\n      swap2\n      sub\n      swap1\n      revert\n    tag_267:\n        /* \"venda_flattened.sol\":5966:6072  function _requirePaused() internal view virtual {... */\n      jump\t// out\n        /* \"#utility.yul\":88:205   */\n    tag_271:\n        /* \"#utility.yul\":197:198   */\n      0x00\n        /* \"#utility.yul\":194:195   */\n      dup1\n        /* \"#utility.yul\":187:199   */\n      revert\n        /* \"#utility.yul\":334:460   */\n    tag_273:\n        /* \"#utility.yul\":371:378   */\n      0x00\n        /* \"#utility.yul\":411:453   */\n      0xffffffffffffffffffffffffffffffffffffffff\n        /* \"#utility.yul\":404:409   */\n      dup3\n        /* \"#utility.yul\":400:454   */\n      and\n        /* \"#utility.yul\":389:454   */\n      swap1\n      pop\n        /* \"#utility.yul\":334:460   */\n      swap2\n      swap1\n      pop\n      jump\t// out\n        /* \"#utility.yul\":466:562   */\n    tag_274:\n        /* \"#utility.yul\":503:510   */\n      0x00\n        /* \"#utility.yul\":532:556   */\n      tag_324\n        /* \"#utility.yul\":550:555   */\n      dup3\n        /* \"#utility.yul\":532:556   */\n      tag_273\n      jump\t// in\n    tag_324:\n        /* \"#utility.yul\":521:556   */\n      swap1\n      pop\n        /* \"#utility.yul\":466:562   */\n      swap2\n      swap1\n      pop\n      jump\t// out\n        /* \"#utility.yul\":568:690   */\n    tag_275:\n        /* \"#utility.yul\":641:665   */\n      tag_326\n        /* \"#utility.yul\":659:664   */\n      dup2\n        /* \"#utility.yul\":641:665   */\n      tag_274\n      jump\t// in\n    tag_326:\n        /* \"#utility.yul\":634:639   */\n      dup2\n        /* \"#utility.yul\":631:666   */\n      eq\n        /* \"#utility.yul\":621:684   */\n      tag_327\n      jumpi\n        /* \"#utility.yul\":680:681   */\n      0x00\n        /* \"#utility.yul\":677:678   */\n      dup1\n        /* \"#utility.yul\":670:682   */\n      revert\n        /* \"#utility.yul\":621:684   */\n    tag_327:\n        /* \"#utility.yul\":568:690   */\n      pop\n      jump\t// out\n        /* \"#utility.yul\":696:835   */\n    tag_276:\n        /* \"#utility.yul\":742:747   */\n      0x00\n        /* \"#utility.yul\":780:786   */\n      dup2\n        /* \"#utility.yul\":767:787   */\n      calldataload\n        /* \"#utility.yul\":758:787   */\n      swap1\n      pop\n        /* \"#utility.yul\":796:829   */\n      tag_329\n        /* \"#utility.yul\":823:828   */\n      dup2\n        /* \"#utility.yul\":796:829   */\n      tag_275\n      jump\t// in\n    tag_329:\n        /* \"#utility.yul\":696:835   */\n      swap3\n      swap2\n      pop\n      pop\n      jump\t// out\n        /* \"#utility.yul\":841:918   */\n    tag_277:\n        /* \"#utility.yul\":878:885   */\n      0x00\n        /* \"#utility.yul\":907:912   */\n      dup2\n        /* \"#utility.yul\":896:912   */\n      swap1\n      pop\n        /* \"#utility.yul\":841:918   */\n      swap2\n      swap1\n      pop\n      jump\t// out\n        /* \"#utility.yul\":924:1046   */\n    tag_278:\n        /* \"#utility.yul\":997:1021   */\n      tag_332\n        /* \"#utility.yul\":1015:1020   */\n      dup2\n        /* \"#utility.yul\":997:1021   */\n      tag_277\n      jump\t// in\n    tag_332:\n        /* \"#utility.yul\":990:995   */\n      dup2\n        /* \"#utility.yul\":987:1022   */\n      eq\n        /* \"#utility.yul\":977:1040   */\n      tag_333\n      jumpi\n        /* \"#utility.yul\":1036:1037   */\n      0x00\n        /* \"#utility.yul\":1033:1034   */\n      dup1\n        /* \"#utility.yul\":1026:1038   */\n      revert\n        /* \"#utility.yul\":977:1040   */\n    tag_333:\n        /* \"#utility.yul\":924:1046   */\n      pop\n      jump\t// out\n        /* \"#utility.yul\":1052:1191   */\n    tag_279:\n        /* \"#utility.yul\":1098:1103   */\n      0x00\n        /* \"#utility.yul\":1136:1142   */\n      dup2\n        /* \"#utility.yul\":1123:1143   */\n      calldataload\n        /* \"#utility.yul\":1114:1143   */\n      swap1\n      pop\n        /* \"#utility.yul\":1152:1185   */\n      tag_335\n        /* \"#utility.yul\":1179:1184   */\n      dup2\n        /* \"#utility.yul\":1152:1185   */\n      tag_278\n      jump\t// in\n    tag_335:\n        /* \"#utility.yul\":1052:1191   */\n      swap3\n      swap2\n      pop\n      pop\n      jump\t// out\n        /* \"#utility.yul\":1197:1962   */\n    tag_26:\n        /* \"#utility.yul\":1283:1289   */\n      0x00\n        /* \"#utility.yul\":1291:1297   */\n      dup1\n        /* \"#utility.yul\":1299:1305   */\n      0x00\n        /* \"#utility.yul\":1307:1313   */\n      dup1\n        /* \"#utility.yul\":1356:1359   */\n      0x80\n        /* \"#utility.yul\":1344:1353   */\n      dup6\n        /* \"#utility.yul\":1335:1342   */\n      dup8\n        /* \"#utility.yul\":1331:1354   */\n      sub\n        /* \"#utility.yul\":1327:1360   */\n      slt\n        /* \"#utility.yul\":1324:1444   */\n      iszero\n      tag_337\n      jumpi\n        /* \"#utility.yul\":1363:1442   */\n      tag_338\n      tag_271\n      jump\t// in\n    tag_338:\n        /* \"#utility.yul\":1324:1444   */\n    tag_337:\n        /* \"#utility.yul\":1483:1484   */\n      0x00\n        /* \"#utility.yul\":1508:1561   */\n      tag_339\n        /* \"#utility.yul\":1553:1560   */\n      dup8\n        /* \"#utility.yul\":1544:1550   */\n      dup3\n        /* \"#utility.yul\":1533:1542   */\n      dup9\n        /* \"#utility.yul\":1529:1551   */\n      add\n        /* \"#utility.yul\":1508:1561   */\n      tag_276\n      jump\t// in\n    tag_339:\n        /* \"#utility.yul\":1498:1561   */\n      swap5\n      pop\n        /* \"#utility.yul\":1454:1571   */\n      pop\n        /* \"#utility.yul\":1610:1612   */\n      0x20\n        /* \"#utility.yul\":1636:1689   */\n      tag_340\n        /* \"#utility.yul\":1681:1688   */\n      dup8\n        /* \"#utility.yul\":1672:1678   */\n      dup3\n        /* \"#utility.yul\":1661:1670   */\n      dup9\n        /* \"#utility.yul\":1657:1679   */\n      add\n        /* \"#utility.yul\":1636:1689   */\n      tag_279\n      jump\t// in\n    tag_340:\n        /* \"#utility.yul\":1626:1689   */\n      swap4\n      pop\n        /* \"#utility.yul\":1581:1699   */\n      pop\n        /* \"#utility.yul\":1738:1740   */\n      0x40\n        /* \"#utility.yul\":1764:1817   */\n      tag_341\n        /* \"#utility.yul\":1809:1816   */\n      dup8\n        /* \"#utility.yul\":1800:1806   */\n      dup3\n        /* \"#utility.yul\":1789:1798   */\n      dup9\n        /* \"#utility.yul\":1785:1807   */\n      add\n        /* \"#utility.yul\":1764:1817   */\n      tag_279\n      jump\t// in\n    tag_341:\n        /* \"#utility.yul\":1754:1817   */\n      swap3\n      pop\n        /* \"#utility.yul\":1709:1827   */\n      pop\n        /* \"#utility.yul\":1866:1868   */\n      0x60\n        /* \"#utility.yul\":1892:1945   */\n      tag_342\n        /* \"#utility.yul\":1937:1944   */\n      dup8\n        /* \"#utility.yul\":1928:1934   */\n      dup3\n        /* \"#utility.yul\":1917:1926   */\n      dup9\n        /* \"#utility.yul\":1913:1935   */\n      add\n        /* \"#utility.yul\":1892:1945   */\n      tag_279\n      jump\t// in\n    tag_342:\n        /* \"#utility.yul\":1882:1945   */\n      swap2\n      pop\n        /* \"#utility.yul\":1837:1955   */\n      pop\n        /* \"#utility.yul\":1197:1962   */\n      swap3\n      swap6\n      swap2\n      swap5\n      pop\n      swap3\n      pop\n      jump\t// out\n        /* \"#utility.yul\":1968:2297   */\n    tag_33:\n        /* \"#utility.yul\":2027:2033   */\n      0x00\n        /* \"#utility.yul\":2076:2078   */\n      0x20\n        /* \"#utility.yul\":2064:2073   */\n      dup3\n        /* \"#utility.yul\":2055:2062   */\n      dup5\n        /* \"#utility.yul\":2051:2074   */\n      sub\n        /* \"#utility.yul\":2047:2079   */\n      slt\n        /* \"#utility.yul\":2044:2163   */\n      iszero\n      tag_344\n      jumpi\n        /* \"#utility.yul\":2082:2161   */\n      tag_345\n      tag_271\n      jump\t// in\n    tag_345:\n        /* \"#utility.yul\":2044:2163   */\n    tag_344:\n        /* \"#utility.yul\":2202:2203   */\n      0x00\n        /* \"#utility.yul\":2227:2280   */\n      tag_346\n        /* \"#utility.yul\":2272:2279   */\n      dup5\n        /* \"#utility.yul\":2263:2269   */\n      dup3\n        /* \"#utility.yul\":2252:2261   */\n      dup6\n        /* \"#utility.yul\":2248:2270   */\n      add\n        /* \"#utility.yul\":2227:2280   */\n      tag_279\n      jump\t// in\n    tag_346:\n        /* \"#utility.yul\":2217:2280   */\n      swap2\n      pop\n        /* \"#utility.yul\":2173:2290   */\n      pop\n        /* \"#utility.yul\":1968:2297   */\n      swap3\n      swap2\n      pop\n      pop\n      jump\t// out\n        /* \"#utility.yul\":2303:2393   */\n    tag_280:\n        /* \"#utility.yul\":2337:2344   */\n      0x00\n        /* \"#utility.yul\":2380:2385   */\n      dup2\n        /* \"#utility.yul\":2373:2386   */\n      iszero\n        /* \"#utility.yul\":2366:2387   */\n      iszero\n        /* \"#utility.yul\":2355:2387   */\n      swap1\n      pop\n        /* \"#utility.yul\":2303:2393   */\n      swap2\n      swap1\n      pop\n      jump\t// out\n        /* \"#utility.yul\":2399:2508   */\n    tag_281:\n        /* \"#utility.yul\":2480:2501   */\n      tag_349\n        /* \"#utility.yul\":2495:2500   */\n      dup2\n        /* \"#utility.yul\":2480:2501   */\n      tag_280\n      jump\t// in\n    tag_349:\n        /* \"#utility.yul\":2475:2478   */\n      dup3\n        /* \"#utility.yul\":2468:2502   */\n      mstore\n        /* \"#utility.yul\":2399:2508   */\n      pop\n      pop\n      jump\t// out\n        /* \"#utility.yul\":2514:2724   */\n    tag_39:\n        /* \"#utility.yul\":2601:2605   */\n      0x00\n        /* \"#utility.yul\":2639:2641   */\n      0x20\n        /* \"#utility.yul\":2628:2637   */\n      dup3\n        /* \"#utility.yul\":2624:2642   */\n      add\n        /* \"#utility.yul\":2616:2642   */\n      swap1\n      pop\n        /* \"#utility.yul\":2652:2717   */\n      tag_351\n        /* \"#utility.yul\":2714:2715   */\n      0x00\n        /* \"#utility.yul\":2703:2712   */\n      dup4\n        /* \"#utility.yul\":2699:2716   */\n      add\n        /* \"#utility.yul\":2690:2696   */\n      dup5\n        /* \"#utility.yul\":2652:2717   */\n      tag_281\n      jump\t// in\n    tag_351:\n        /* \"#utility.yul\":2514:2724   */\n      swap3\n      swap2\n      pop\n      pop\n      jump\t// out\n        /* \"#utility.yul\":2730:3204   */\n    tag_43:\n        /* \"#utility.yul\":2798:2804   */\n      0x00\n        /* \"#utility.yul\":2806:2812   */\n      dup1\n        /* \"#utility.yul\":2855:2857   */\n      0x40\n        /* \"#utility.yul\":2843:2852   */\n      dup4\n        /* \"#utility.yul\":2834:2841   */\n      dup6\n        /* \"#utility.yul\":2830:2853   */\n      sub\n        /* \"#utility.yul\":2826:2858   */\n      slt\n        /* \"#utility.yul\":2823:2942   */\n      iszero\n      tag_353\n      jumpi\n        /* \"#utility.yul\":2861:2940   */\n      tag_354\n      tag_271\n      jump\t// in\n    tag_354:\n        /* \"#utility.yul\":2823:2942   */\n    tag_353:\n        /* \"#utility.yul\":2981:2982   */\n      0x00\n        /* \"#utility.yul\":3006:3059   */\n      tag_355\n        /* \"#utility.yul\":3051:3058   */\n      dup6\n        /* \"#utility.yul\":3042:3048   */\n      dup3\n        /* \"#utility.yul\":3031:3040   */\n      dup7\n        /* \"#utility.yul\":3027:3049   */\n      add\n        /* \"#utility.yul\":3006:3059   */\n      tag_276\n      jump\t// in\n    tag_355:\n        /* \"#utility.yul\":2996:3059   */\n      swap3\n      pop\n        /* \"#utility.yul\":2952:3069   */\n      pop\n        /* \"#utility.yul\":3108:3110   */\n      0x20\n        /* \"#utility.yul\":3134:3187   */\n      tag_356\n        /* \"#utility.yul\":3179:3186   */\n      dup6\n        /* \"#utility.yul\":3170:3176   */\n      dup3\n        /* \"#utility.yul\":3159:3168   */\n      dup7\n        /* \"#utility.yul\":3155:3177   */\n      add\n        /* \"#utility.yul\":3134:3187   */\n      tag_276\n      jump\t// in\n    tag_356:\n        /* \"#utility.yul\":3124:3187   */\n      swap2\n      pop\n        /* \"#utility.yul\":3079:3197   */\n      pop\n        /* \"#utility.yul\":2730:3204   */\n      swap3\n      pop\n      swap3\n      swap1\n      pop\n      jump\t// out\n        /* \"#utility.yul\":3210:3684   */\n    tag_51:\n        /* \"#utility.yul\":3278:3284   */\n      0x00\n        /* \"#utility.yul\":3286:3292   */\n      dup1\n        /* \"#utility.yul\":3335:3337   */\n      0x40\n        /* \"#utility.yul\":3323:3332   */\n      dup4\n        /* \"#utility.yul\":3314:3321   */\n      dup6\n        /* \"#utility.yul\":3310:3333   */\n      sub\n        /* \"#utility.yul\":3306:3338   */\n      slt\n        /* \"#utility.yul\":3303:3422   */\n      iszero\n      tag_358\n      jumpi\n        /* \"#utility.yul\":3341:3420   */\n      tag_359\n      tag_271\n      jump\t// in\n    tag_359:\n        /* \"#utility.yul\":3303:3422   */\n    tag_358:\n        /* \"#utility.yul\":3461:3462   */\n      0x00\n        /* \"#utility.yul\":3486:3539   */\n      tag_360\n        /* \"#utility.yul\":3531:3538   */\n      dup6\n        /* \"#utility.yul\":3522:3528   */\n      dup3\n        /* \"#utility.yul\":3511:3520   */\n      dup7\n        /* \"#utility.yul\":3507:3529   */\n      add\n        /* \"#utility.yul\":3486:3539   */\n      tag_279\n      jump\t// in\n    tag_360:\n        /* \"#utility.yul\":3476:3539   */\n      swap3\n      pop\n        /* \"#utility.yul\":3432:3549   */\n      pop\n        /* \"#utility.yul\":3588:3590   */\n      0x20\n        /* \"#utility.yul\":3614:3667   */\n      tag_361\n        /* \"#utility.yul\":3659:3666   */\n      dup6\n        /* \"#utility.yul\":3650:3656   */\n      dup3\n        /* \"#utility.yul\":3639:3648   */\n      dup7\n        /* \"#utility.yul\":3635:3657   */\n      add\n        /* \"#utility.yul\":3614:3667   */\n      tag_279\n      jump\t// in\n    tag_361:\n        /* \"#utility.yul\":3604:3667   */\n      swap2\n      pop\n        /* \"#utility.yul\":3559:3677   */\n      pop\n        /* \"#utility.yul\":3210:3684   */\n      swap3\n      pop\n      swap3\n      swap1\n      pop\n      jump\t// out\n        /* \"#utility.yul\":3690:3808   */\n    tag_282:\n        /* \"#utility.yul\":3777:3801   */\n      tag_363\n        /* \"#utility.yul\":3795:3800   */\n      dup2\n        /* \"#utility.yul\":3777:3801   */\n      tag_277\n      jump\t// in\n    tag_363:\n        /* \"#utility.yul\":3772:3775   */\n      dup3\n        /* \"#utility.yul\":3765:3802   */\n      mstore\n        /* \"#utility.yul\":3690:3808   */\n      pop\n      pop\n      jump\t// out\n        /* \"#utility.yul\":3814:4036   */\n    tag_60:\n        /* \"#utility.yul\":3907:3911   */\n      0x00\n        /* \"#utility.yul\":3945:3947   */\n      0x20\n        /* \"#utility.yul\":3934:3943   */\n      dup3\n        /* \"#utility.yul\":3930:3948   */\n      add\n        /* \"#utility.yul\":3922:3948   */\n      swap1\n      pop\n        /* \"#utility.yul\":3958:4029   */\n      tag_365\n        /* \"#utility.yul\":4026:4027   */\n      0x00\n        /* \"#utility.yul\":4015:4024   */\n      dup4\n        /* \"#utility.yul\":4011:4028   */\n      add\n        /* \"#utility.yul\":4002:4008   */\n      dup5\n        /* \"#utility.yul\":3958:4029   */\n      tag_282\n      jump\t// in\n    tag_365:\n        /* \"#utility.yul\":3814:4036   */\n      swap3\n      swap2\n      pop\n      pop\n      jump\t// out\n        /* \"#utility.yul\":4042:4160   */\n    tag_283:\n        /* \"#utility.yul\":4129:4153   */\n      tag_367\n        /* \"#utility.yul\":4147:4152   */\n      dup2\n        /* \"#utility.yul\":4129:4153   */\n      tag_274\n      jump\t// in\n    tag_367:\n        /* \"#utility.yul\":4124:4127   */\n      dup3\n        /* \"#utility.yul\":4117:4154   */\n      mstore\n        /* \"#utility.yul\":4042:4160   */\n      pop\n      pop\n      jump\t// out\n        /* \"#utility.yul\":4166:4388   */\n    tag_65:\n        /* \"#utility.yul\":4259:4263   */\n      0x00\n        /* \"#utility.yul\":4297:4299   */\n      0x20\n        /* \"#utility.yul\":4286:4295   */\n      dup3\n        /* \"#utility.yul\":4282:4300   */\n      add\n        /* \"#utility.yul\":4274:4300   */\n      swap1\n      pop\n        /* \"#utility.yul\":4310:4381   */\n      tag_369\n        /* \"#utility.yul\":4378:4379   */\n      0x00\n        /* \"#utility.yul\":4367:4376   */\n      dup4\n        /* \"#utility.yul\":4363:4380   */\n      add\n        /* \"#utility.yul\":4354:4360   */\n      dup5\n        /* \"#utility.yul\":4310:4381   */\n      tag_283\n      jump\t// in\n    tag_369:\n        /* \"#utility.yul\":4166:4388   */\n      swap3\n      swap2\n      pop\n      pop\n      jump\t// out\n        /* \"#utility.yul\":4394:5058   */\n    tag_87:\n        /* \"#utility.yul\":4599:4603   */\n      0x00\n        /* \"#utility.yul\":4637:4640   */\n      0xa0\n        /* \"#utility.yul\":4626:4635   */\n      dup3\n        /* \"#utility.yul\":4622:4641   */\n      add\n        /* \"#utility.yul\":4614:4641   */\n      swap1\n      pop\n        /* \"#utility.yul\":4651:4722   */\n      tag_371\n        /* \"#utility.yul\":4719:4720   */\n      0x00\n        /* \"#utility.yul\":4708:4717   */\n      dup4\n        /* \"#utility.yul\":4704:4721   */\n      add\n        /* \"#utility.yul\":4695:4701   */\n      dup9\n        /* \"#utility.yul\":4651:4722   */\n      tag_283\n      jump\t// in\n    tag_371:\n        /* \"#utility.yul\":4732:4804   */\n      tag_372\n        /* \"#utility.yul\":4800:4802   */\n      0x20\n        /* \"#utility.yul\":4789:4798   */\n      dup4\n        /* \"#utility.yul\":4785:4803   */\n      add\n        /* \"#utility.yul\":4776:4782   */\n      dup8\n        /* \"#utility.yul\":4732:4804   */\n      tag_282\n      jump\t// in\n    tag_372:\n        /* \"#utility.yul\":4814:4886   */\n      tag_373\n        /* \"#utility.yul\":4882:4884   */\n      0x40\n        /* \"#utility.yul\":4871:4880   */\n      dup4\n        /* \"#utility.yul\":4867:4885   */\n      add\n        /* \"#utility.yul\":4858:4864   */\n      dup7\n        /* \"#utility.yul\":4814:4886   */\n      tag_283\n      jump\t// in\n    tag_373:\n        /* \"#utility.yul\":4896:4968   */\n      tag_374\n        /* \"#utility.yul\":4964:4966   */\n      0x60\n        /* \"#utility.yul\":4953:4962   */\n      dup4\n        /* \"#utility.yul\":4949:4967   */\n      add\n        /* \"#utility.yul\":4940:4946   */\n      dup6\n        /* \"#utility.yul\":4896:4968   */\n      tag_282\n      jump\t// in\n    tag_374:\n        /* \"#utility.yul\":4978:5051   */\n      tag_375\n        /* \"#utility.yul\":5046:5049   */\n      0x80\n        /* \"#utility.yul\":5035:5044   */\n      dup4\n        /* \"#utility.yul\":5031:5050   */\n      add\n        /* \"#utility.yul\":5022:5028   */\n      dup5\n        /* \"#utility.yul\":4978:5051   */\n      tag_282\n      jump\t// in\n    tag_375:\n        /* \"#utility.yul\":4394:5058   */\n      swap7\n      swap6\n      pop\n      pop\n      pop\n      pop\n      pop\n      pop\n      jump\t// out\n        /* \"#utility.yul\":5064:5393   */\n    tag_100:\n        /* \"#utility.yul\":5123:5129   */\n      0x00\n        /* \"#utility.yul\":5172:5174   */\n      0x20\n        /* \"#utility.yul\":5160:5169   */\n      dup3\n        /* \"#utility.yul\":5151:5158   */\n      dup5\n        /* \"#utility.yul\":5147:5170   */\n      sub\n        /* \"#utility.yul\":5143:5175   */\n      slt\n        /* \"#utility.yul\":5140:5259   */\n      iszero\n      tag_377\n      jumpi\n        /* \"#utility.yul\":5178:5257   */\n      tag_378\n      tag_271\n      jump\t// in\n    tag_378:\n        /* \"#utility.yul\":5140:5259   */\n    tag_377:\n        /* \"#utility.yul\":5298:5299   */\n      0x00\n        /* \"#utility.yul\":5323:5376   */\n      tag_379\n        /* \"#utility.yul\":5368:5375   */\n      dup5\n        /* \"#utility.yul\":5359:5365   */\n      dup3\n        /* \"#utility.yul\":5348:5357   */\n      dup6\n        /* \"#utility.yul\":5344:5366   */\n      add\n        /* \"#utility.yul\":5323:5376   */\n      tag_276\n      jump\t// in\n    tag_379:\n        /* \"#utility.yul\":5313:5376   */\n      swap2\n      pop\n        /* \"#utility.yul\":5269:5386   */\n      pop\n        /* \"#utility.yul\":5064:5393   */\n      swap3\n      swap2\n      pop\n      pop\n      jump\t// out\n        /* \"#utility.yul\":5399:5568   */\n    tag_284:\n        /* \"#utility.yul\":5483:5494   */\n      0x00\n        /* \"#utility.yul\":5517:5523   */\n      dup3\n        /* \"#utility.yul\":5512:5515   */\n      dup3\n        /* \"#utility.yul\":5505:5524   */\n      mstore\n        /* \"#utility.yul\":5557:5561   */\n      0x20\n        /* \"#utility.yul\":5552:5555   */\n      dup3\n        /* \"#utility.yul\":5548:5562   */\n      add\n        /* \"#utility.yul\":5533:5562   */\n      swap1\n      pop\n        /* \"#utility.yul\":5399:5568   */\n      swap3\n      swap2\n      pop\n      pop\n      jump\t// out\n        /* \"#utility.yul\":5574:5756   */\n    tag_285:\n        /* \"#utility.yul\":5714:5748   */\n      0x5072696365206d7573742062652067726561746572207468616e207a65726f2e\n        /* \"#utility.yul\":5710:5711   */\n      0x00\n        /* \"#utility.yul\":5702:5708   */\n      dup3\n        /* \"#utility.yul\":5698:5712   */\n      add\n        /* \"#utility.yul\":5691:5749   */\n      mstore\n        /* \"#utility.yul\":5574:5756   */\n      pop\n      jump\t// out\n        /* \"#utility.yul\":5762:6128   */\n    tag_286:\n        /* \"#utility.yul\":5904:5907   */\n      0x00\n        /* \"#utility.yul\":5925:5992   */\n      tag_383\n        /* \"#utility.yul\":5989:5991   */\n      0x20\n        /* \"#utility.yul\":5984:5987   */\n      dup4\n        /* \"#utility.yul\":5925:5992   */\n      tag_284\n      jump\t// in\n    tag_383:\n        /* \"#utility.yul\":5918:5992   */\n      swap2\n      pop\n        /* \"#utility.yul\":6001:6094   */\n      tag_384\n        /* \"#utility.yul\":6090:6093   */\n      dup3\n        /* \"#utility.yul\":6001:6094   */\n      tag_285\n      jump\t// in\n    tag_384:\n        /* \"#utility.yul\":6119:6121   */\n      0x20\n        /* \"#utility.yul\":6114:6117   */\n      dup3\n        /* \"#utility.yul\":6110:6122   */\n      add\n        /* \"#utility.yul\":6103:6122   */\n      swap1\n      pop\n        /* \"#utility.yul\":5762:6128   */\n      swap2\n      swap1\n      pop\n      jump\t// out\n        /* \"#utility.yul\":6134:6553   */\n    tag_111:\n        /* \"#utility.yul\":6300:6304   */\n      0x00\n        /* \"#utility.yul\":6338:6340   */\n      0x20\n        /* \"#utility.yul\":6327:6336   */\n      dup3\n        /* \"#utility.yul\":6323:6341   */\n      add\n        /* \"#utility.yul\":6315:6341   */\n      swap1\n      pop\n        /* \"#utility.yul\":6387:6396   */\n      dup2\n        /* \"#utility.yul\":6381:6385   */\n      dup2\n        /* \"#utility.yul\":6377:6397   */\n      sub\n        /* \"#utility.yul\":6373:6374   */\n      0x00\n        /* \"#utility.yul\":6362:6371   */\n      dup4\n        /* \"#utility.yul\":6358:6375   */\n      add\n        /* \"#utility.yul\":6351:6398   */\n      mstore\n        /* \"#utility.yul\":6415:6546   */\n      tag_386\n        /* \"#utility.yul\":6541:6545   */\n      dup2\n        /* \"#utility.yul\":6415:6546   */\n      tag_286\n      jump\t// in\n    tag_386:\n        /* \"#utility.yul\":6407:6546   */\n      swap1\n      pop\n        /* \"#utility.yul\":6134:6553   */\n      swap2\n      swap1\n      pop\n      jump\t// out\n        /* \"#utility.yul\":6559:6781   */\n    tag_287:\n        /* \"#utility.yul\":6699:6733   */\n      0x446561646c696e65206d7573742062652067726561746572207468616e207a65\n        /* \"#utility.yul\":6695:6696   */\n      0x00\n        /* \"#utility.yul\":6687:6693   */\n      dup3\n        /* \"#utility.yul\":6683:6697   */\n      add\n        /* \"#utility.yul\":6676:6734   */\n      mstore\n        /* \"#utility.yul\":6768:6773   */\n      0x726f2e0000000000000000000000000000000000000000000000000000000000\n        /* \"#utility.yul\":6763:6765   */\n      0x20\n        /* \"#utility.yul\":6755:6761   */\n      dup3\n        /* \"#utility.yul\":6751:6766   */\n      add\n        /* \"#utility.yul\":6744:6774   */\n      mstore\n        /* \"#utility.yul\":6559:6781   */\n      pop\n      jump\t// out\n        /* \"#utility.yul\":6787:7153   */\n    tag_288:\n        /* \"#utility.yul\":6929:6932   */\n      0x00\n        /* \"#utility.yul\":6950:7017   */\n      tag_389\n        /* \"#utility.yul\":7014:7016   */\n      0x23\n        /* \"#utility.yul\":7009:7012   */\n      dup4\n        /* \"#utility.yul\":6950:7017   */\n      tag_284\n      jump\t// in\n    tag_389:\n        /* \"#utility.yul\":6943:7017   */\n      swap2\n      pop\n        /* \"#utility.yul\":7026:7119   */\n      tag_390\n        /* \"#utility.yul\":7115:7118   */\n      dup3\n        /* \"#utility.yul\":7026:7119   */\n      tag_287\n      jump\t// in\n    tag_390:\n        /* \"#utility.yul\":7144:7146   */\n      0x40\n        /* \"#utility.yul\":7139:7142   */\n      dup3\n        /* \"#utility.yul\":7135:7147   */\n      add\n        /* \"#utility.yul\":7128:7147   */\n      swap1\n      pop\n        /* \"#utility.yul\":6787:7153   */\n      swap2\n      swap1\n      pop\n      jump\t// out\n        /* \"#utility.yul\":7159:7578   */\n    tag_114:\n        /* \"#utility.yul\":7325:7329   */\n      0x00\n        /* \"#utility.yul\":7363:7365   */\n      0x20\n        /* \"#utility.yul\":7352:7361   */\n      dup3\n        /* \"#utility.yul\":7348:7366   */\n      add\n        /* \"#utility.yul\":7340:7366   */\n      swap1\n      pop\n        /* \"#utility.yul\":7412:7421   */\n      dup2\n        /* \"#utility.yul\":7406:7410   */\n      dup2\n        /* \"#utility.yul\":7402:7422   */\n      sub\n        /* \"#utility.yul\":7398:7399   */\n      0x00\n        /* \"#utility.yul\":7387:7396   */\n      dup4\n        /* \"#utility.yul\":7383:7400   */\n      add\n        /* \"#utility.yul\":7376:7423   */\n      mstore\n        /* \"#utility.yul\":7440:7571   */\n      tag_392\n        /* \"#utility.yul\":7566:7570   */\n      dup2\n        /* \"#utility.yul\":7440:7571   */\n      tag_288\n      jump\t// in\n    tag_392:\n        /* \"#utility.yul\":7432:7571   */\n      swap1\n      pop\n        /* \"#utility.yul\":7159:7578   */\n      swap2\n      swap1\n      pop\n      jump\t// out\n        /* \"#utility.yul\":7584:7727   */\n    tag_289:\n        /* \"#utility.yul\":7641:7646   */\n      0x00\n        /* \"#utility.yul\":7672:7678   */\n      dup2\n        /* \"#utility.yul\":7666:7679   */\n      mload\n        /* \"#utility.yul\":7657:7679   */\n      swap1\n      pop\n        /* \"#utility.yul\":7688:7721   */\n      tag_394\n        /* \"#utility.yul\":7715:7720   */\n      dup2\n        /* \"#utility.yul\":7688:7721   */\n      tag_275\n      jump\t// in\n    tag_394:\n        /* \"#utility.yul\":7584:7727   */\n      swap3\n      swap2\n      pop\n      pop\n      jump\t// out\n        /* \"#utility.yul\":7733:8084   */\n    tag_119:\n        /* \"#utility.yul\":7803:7809   */\n      0x00\n        /* \"#utility.yul\":7852:7854   */\n      0x20\n        /* \"#utility.yul\":7840:7849   */\n      dup3\n        /* \"#utility.yul\":7831:7838   */\n      dup5\n        /* \"#utility.yul\":7827:7850   */\n      sub\n        /* \"#utility.yul\":7823:7855   */\n      slt\n        /* \"#utility.yul\":7820:7939   */\n      iszero\n      tag_396\n      jumpi\n        /* \"#utility.yul\":7858:7937   */\n      tag_397\n      tag_271\n      jump\t// in\n    tag_397:\n        /* \"#utility.yul\":7820:7939   */\n    tag_396:\n        /* \"#utility.yul\":7978:7979   */\n      0x00\n        /* \"#utility.yul\":8003:8067   */\n      tag_398\n        /* \"#utility.yul\":8059:8066   */\n      dup5\n        /* \"#utility.yul\":8050:8056   */\n      dup3\n        /* \"#utility.yul\":8039:8048   */\n      dup6\n        /* \"#utility.yul\":8035:8057   */\n      add\n        /* \"#utility.yul\":8003:8067   */\n      tag_289\n      jump\t// in\n    tag_398:\n        /* \"#utility.yul\":7993:8067   */\n      swap2\n      pop\n        /* \"#utility.yul\":7949:8077   */\n      pop\n        /* \"#utility.yul\":7733:8084   */\n      swap3\n      swap2\n      pop\n      pop\n      jump\t// out\n        /* \"#utility.yul\":8090:8272   */\n    tag_290:\n        /* \"#utility.yul\":8230:8264   */\n      0x596f75206d757374206f776e20746865204e465420746f206c6973742069742e\n        /* \"#utility.yul\":8226:8227   */\n      0x00\n        /* \"#utility.yul\":8218:8224   */\n      dup3\n        /* \"#utility.yul\":8214:8228   */\n      add\n        /* \"#utility.yul\":8207:8265   */\n      mstore\n        /* \"#utility.yul\":8090:8272   */\n      pop\n      jump\t// out\n        /* \"#utility.yul\":8278:8644   */\n    tag_291:\n        /* \"#utility.yul\":8420:8423   */\n      0x00\n        /* \"#utility.yul\":8441:8508   */\n      tag_401\n        /* \"#utility.yul\":8505:8507   */\n      0x20\n        /* \"#utility.yul\":8500:8503   */\n      dup4\n        /* \"#utility.yul\":8441:8508   */\n      tag_284\n      jump\t// in\n    tag_401:\n        /* \"#utility.yul\":8434:8508   */\n      swap2\n      pop\n        /* \"#utility.yul\":8517:8610   */\n      tag_402\n        /* \"#utility.yul\":8606:8609   */\n      dup3\n        /* \"#utility.yul\":8517:8610   */\n      tag_290\n      jump\t// in\n    tag_402:\n        /* \"#utility.yul\":8635:8637   */\n      0x20\n        /* \"#utility.yul\":8630:8633   */\n      dup3\n        /* \"#utility.yul\":8626:8638   */\n      add\n        /* \"#utility.yul\":8619:8638   */\n      swap1\n      pop\n        /* \"#utility.yul\":8278:8644   */\n      swap2\n      swap1\n      pop\n      jump\t// out\n        /* \"#utility.yul\":8650:9069   */\n    tag_122:\n        /* \"#utility.yul\":8816:8820   */\n      0x00\n        /* \"#utility.yul\":8854:8856   */\n      0x20\n        /* \"#utility.yul\":8843:8852   */\n      dup3\n        /* \"#utility.yul\":8839:8857   */\n      add\n        /* \"#utility.yul\":8831:8857   */\n      swap1\n      pop\n        /* \"#utility.yul\":8903:8912   */\n      dup2\n        /* \"#utility.yul\":8897:8901   */\n      dup2\n        /* \"#utility.yul\":8893:8913   */\n      sub\n        /* \"#utility.yul\":8889:8890   */\n      0x00\n        /* \"#utility.yul\":8878:8887   */\n      dup4\n        /* \"#utility.yul\":8874:8891   */\n      add\n        /* \"#utility.yul\":8867:8914   */\n      mstore\n        /* \"#utility.yul\":8931:9062   */\n      tag_404\n        /* \"#utility.yul\":9057:9061   */\n      dup2\n        /* \"#utility.yul\":8931:9062   */\n      tag_291\n      jump\t// in\n    tag_404:\n        /* \"#utility.yul\":8923:9062   */\n      swap1\n      pop\n        /* \"#utility.yul\":8650:9069   */\n      swap2\n      swap1\n      pop\n      jump\t// out\n        /* \"#utility.yul\":9075:9255   */\n    tag_292:\n        /* \"#utility.yul\":9123:9200   */\n      0x4e487b7100000000000000000000000000000000000000000000000000000000\n        /* \"#utility.yul\":9120:9121   */\n      0x00\n        /* \"#utility.yul\":9113:9201   */\n      mstore\n        /* \"#utility.yul\":9220:9224   */\n      0x11\n        /* \"#utility.yul\":9217:9218   */\n      0x04\n        /* \"#utility.yul\":9210:9225   */\n      mstore\n        /* \"#utility.yul\":9244:9248   */\n      0x24\n        /* \"#utility.yul\":9241:9242   */\n      0x00\n        /* \"#utility.yul\":9234:9249   */\n      revert\n        /* \"#utility.yul\":9261:9452   */\n    tag_124:\n        /* \"#utility.yul\":9301:9304   */\n      0x00\n        /* \"#utility.yul\":9320:9340   */\n      tag_407\n        /* \"#utility.yul\":9338:9339   */\n      dup3\n        /* \"#utility.yul\":9320:9340   */\n      tag_277\n      jump\t// in\n    tag_407:\n        /* \"#utility.yul\":9315:9340   */\n      swap2\n      pop\n        /* \"#utility.yul\":9354:9374   */\n      tag_408\n        /* \"#utility.yul\":9372:9373   */\n      dup4\n        /* \"#utility.yul\":9354:9374   */\n      tag_277\n      jump\t// in\n    tag_408:\n        /* \"#utility.yul\":9349:9374   */\n      swap3\n      pop\n        /* \"#utility.yul\":9397:9398   */\n      dup3\n        /* \"#utility.yul\":9394:9395   */\n      dup3\n        /* \"#utility.yul\":9390:9399   */\n      add\n        /* \"#utility.yul\":9383:9399   */\n      swap1\n      pop\n        /* \"#utility.yul\":9418:9421   */\n      dup1\n        /* \"#utility.yul\":9415:9416   */\n      dup3\n        /* \"#utility.yul\":9412:9422   */\n      gt\n        /* \"#utility.yul\":9409:9445   */\n      iszero\n      tag_409\n      jumpi\n        /* \"#utility.yul\":9425:9443   */\n      tag_410\n      tag_292\n      jump\t// in\n    tag_410:\n        /* \"#utility.yul\":9409:9445   */\n    tag_409:\n        /* \"#utility.yul\":9261:9452   */\n      swap3\n      swap2\n      pop\n      pop\n      jump\t// out\n        /* \"#utility.yul\":9458:9900   */\n    tag_128:\n        /* \"#utility.yul\":9607:9611   */\n      0x00\n        /* \"#utility.yul\":9645:9647   */\n      0x60\n        /* \"#utility.yul\":9634:9643   */\n      dup3\n        /* \"#utility.yul\":9630:9648   */\n      add\n        /* \"#utility.yul\":9622:9648   */\n      swap1\n      pop\n        /* \"#utility.yul\":9658:9729   */\n      tag_412\n        /* \"#utility.yul\":9726:9727   */\n      0x00\n        /* \"#utility.yul\":9715:9724   */\n      dup4\n        /* \"#utility.yul\":9711:9728   */\n      add\n        /* \"#utility.yul\":9702:9708   */\n      dup7\n        /* \"#utility.yul\":9658:9729   */\n      tag_282\n      jump\t// in\n    tag_412:\n        /* \"#utility.yul\":9739:9811   */\n      tag_413\n        /* \"#utility.yul\":9807:9809   */\n      0x20\n        /* \"#utility.yul\":9796:9805   */\n      dup4\n        /* \"#utility.yul\":9792:9810   */\n      add\n        /* \"#utility.yul\":9783:9789   */\n      dup6\n        /* \"#utility.yul\":9739:9811   */\n      tag_282\n      jump\t// in\n    tag_413:\n        /* \"#utility.yul\":9821:9893   */\n      tag_414\n        /* \"#utility.yul\":9889:9891   */\n      0x40\n        /* \"#utility.yul\":9878:9887   */\n      dup4\n        /* \"#utility.yul\":9874:9892   */\n      add\n        /* \"#utility.yul\":9865:9871   */\n      dup5\n        /* \"#utility.yul\":9821:9893   */\n      tag_282\n      jump\t// in\n    tag_414:\n        /* \"#utility.yul\":9458:9900   */\n      swap5\n      swap4\n      pop\n      pop\n      pop\n      pop\n      jump\t// out\n        /* \"#utility.yul\":9906:10139   */\n    tag_130:\n        /* \"#utility.yul\":9945:9948   */\n      0x00\n        /* \"#utility.yul\":9968:9992   */\n      tag_416\n        /* \"#utility.yul\":9986:9991   */\n      dup3\n        /* \"#utility.yul\":9968:9992   */\n      tag_277\n      jump\t// in\n    tag_416:\n        /* \"#utility.yul\":9959:9992   */\n      swap2\n      pop\n        /* \"#utility.yul\":10014:10080   */\n      0xffffffffffffffffffffffffffffffffffffffffffffffffffffffffffffffff\n        /* \"#utility.yul\":10007:10012   */\n      dup3\n        /* \"#utility.yul\":10004:10081   */\n      sub\n        /* \"#utility.yul\":10001:10104   */\n      tag_417\n      jumpi\n        /* \"#utility.yul\":10084:10102   */\n      tag_418\n      tag_292\n      jump\t// in\n    tag_418:\n        /* \"#utility.yul\":10001:10104   */\n    tag_417:\n        /* \"#utility.yul\":10131:10132   */\n      0x01\n        /* \"#utility.yul\":10124:10129   */\n      dup3\n        /* \"#utility.yul\":10120:10133   */\n      add\n        /* \"#utility.yul\":10113:10133   */\n      swap1\n      pop\n        /* \"#utility.yul\":9906:10139   */\n      swap2\n      swap1\n      pop\n      jump\t// out\n        /* \"#utility.yul\":10145:10369   */\n    tag_293:\n        /* \"#utility.yul\":10285:10319   */\n      0x53656e742076616c7565206d7573742062652067726561746572207468616e20\n        /* \"#utility.yul\":10281:10282   */\n      0x00\n        /* \"#utility.yul\":10273:10279   */\n      dup3\n        /* \"#utility.yul\":10269:10283   */\n      add\n        /* \"#utility.yul\":10262:10320   */\n      mstore\n        /* \"#utility.yul\":10354:10361   */\n      0x7a65726f2e000000000000000000000000000000000000000000000000000000\n        /* \"#utility.yul\":10349:10351   */\n      0x20\n        /* \"#utility.yul\":10341:10347   */\n      dup3\n        /* \"#utility.yul\":10337:10352   */\n      add\n        /* \"#utility.yul\":10330:10362   */\n      mstore\n        /* \"#utility.yul\":10145:10369   */\n      pop\n      jump\t// out\n        /* \"#utility.yul\":10375:10741   */\n    tag_294:\n        /* \"#utility.yul\":10517:10520   */\n      0x00\n        /* \"#utility.yul\":10538:10605   */\n      tag_421\n        /* \"#utility.yul\":10602:10604   */\n      0x25\n        /* \"#utility.yul\":10597:10600   */\n      dup4\n        /* \"#utility.yul\":10538:10605   */\n      tag_284\n      jump\t// in\n    tag_421:\n        /* \"#utility.yul\":10531:10605   */\n      swap2\n      pop\n        /* \"#utility.yul\":10614:10707   */\n      tag_422\n        /* \"#utility.yul\":10703:10706   */\n      dup3\n        /* \"#utility.yul\":10614:10707   */\n      tag_293\n      jump\t// in\n    tag_422:\n        /* \"#utility.yul\":10732:10734   */\n      0x40\n        /* \"#utility.yul\":10727:10730   */\n      dup3\n        /* \"#utility.yul\":10723:10735   */\n      add\n        /* \"#utility.yul\":10716:10735   */\n      swap1\n      pop\n        /* \"#utility.yul\":10375:10741   */\n      swap2\n      swap1\n      pop\n      jump\t// out\n        /* \"#utility.yul\":10747:11166   */\n    tag_149:\n        /* \"#utility.yul\":10913:10917   */\n      0x00\n        /* \"#utility.yul\":10951:10953   */\n      0x20\n        /* \"#utility.yul\":10940:10949   */\n      dup3\n        /* \"#utility.yul\":10936:10954   */\n      add\n        /* \"#utility.yul\":10928:10954   */\n      swap1\n      pop\n        /* \"#utility.yul\":11000:11009   */\n      dup2\n        /* \"#utility.yul\":10994:10998   */\n      dup2\n        /* \"#utility.yul\":10990:11010   */\n      sub\n        /* \"#utility.yul\":10986:10987   */\n      0x00\n        /* \"#utility.yul\":10975:10984   */\n      dup4\n        /* \"#utility.yul\":10971:10988   */\n      add\n        /* \"#utility.yul\":10964:11011   */\n      mstore\n        /* \"#utility.yul\":11028:11159   */\n      tag_424\n        /* \"#utility.yul\":11154:11158   */\n      dup2\n        /* \"#utility.yul\":11028:11159   */\n      tag_294\n      jump\t// in\n    tag_424:\n        /* \"#utility.yul\":11020:11159   */\n      swap1\n      pop\n        /* \"#utility.yul\":10747:11166   */\n      swap2\n      swap1\n      pop\n      jump\t// out\n        /* \"#utility.yul\":11172:11345   */\n    tag_295:\n        /* \"#utility.yul\":11312:11337   */\n      0x4c697374696e6720646f6573206e6f742065786973742e000000000000000000\n        /* \"#utility.yul\":11308:11309   */\n      0x00\n        /* \"#utility.yul\":11300:11306   */\n      dup3\n        /* \"#utility.yul\":11296:11310   */\n      add\n        /* \"#utility.yul\":11289:11338   */\n      mstore\n        /* \"#utility.yul\":11172:11345   */\n      pop\n      jump\t// out\n        /* \"#utility.yul\":11351:11717   */\n    tag_296:\n        /* \"#utility.yul\":11493:11496   */\n      0x00\n        /* \"#utility.yul\":11514:11581   */\n      tag_427\n        /* \"#utility.yul\":11578:11580   */\n      0x17\n        /* \"#utility.yul\":11573:11576   */\n      dup4\n        /* \"#utility.yul\":11514:11581   */\n      tag_284\n      jump\t// in\n    tag_427:\n        /* \"#utility.yul\":11507:11581   */\n      swap2\n      pop\n        /* \"#utility.yul\":11590:11683   */\n      tag_428\n        /* \"#utility.yul\":11679:11682   */\n      dup3\n        /* \"#utility.yul\":11590:11683   */\n      tag_295\n      jump\t// in\n    tag_428:\n        /* \"#utility.yul\":11708:11710   */\n      0x20\n        /* \"#utility.yul\":11703:11706   */\n      dup3\n        /* \"#utility.yul\":11699:11711   */\n      add\n        /* \"#utility.yul\":11692:11711   */\n      swap1\n      pop\n        /* \"#utility.yul\":11351:11717   */\n      swap2\n      swap1\n      pop\n      jump\t// out\n        /* \"#utility.yul\":11723:12142   */\n    tag_152:\n        /* \"#utility.yul\":11889:11893   */\n      0x00\n        /* \"#utility.yul\":11927:11929   */\n      0x20\n        /* \"#utility.yul\":11916:11925   */\n      dup3\n        /* \"#utility.yul\":11912:11930   */\n      add\n        /* \"#utility.yul\":11904:11930   */\n      swap1\n      pop\n        /* \"#utility.yul\":11976:11985   */\n      dup2\n        /* \"#utility.yul\":11970:11974   */\n      dup2\n        /* \"#utility.yul\":11966:11986   */\n      sub\n        /* \"#utility.yul\":11962:11963   */\n      0x00\n        /* \"#utility.yul\":11951:11960   */\n      dup4\n        /* \"#utility.yul\":11947:11964   */\n      add\n        /* \"#utility.yul\":11940:11987   */\n      mstore\n        /* \"#utility.yul\":12004:12135   */\n      tag_430\n        /* \"#utility.yul\":12130:12134   */\n      dup2\n        /* \"#utility.yul\":12004:12135   */\n      tag_296\n      jump\t// in\n    tag_430:\n        /* \"#utility.yul\":11996:12135   */\n      swap1\n      pop\n        /* \"#utility.yul\":11723:12142   */\n      swap2\n      swap1\n      pop\n      jump\t// out\n        /* \"#utility.yul\":12148:12323   */\n    tag_297:\n        /* \"#utility.yul\":12288:12315   */\n      0x54686973206c697374696e672068617320657870697265642e00000000000000\n        /* \"#utility.yul\":12284:12285   */\n      0x00\n        /* \"#utility.yul\":12276:12282   */\n      dup3\n        /* \"#utility.yul\":12272:12286   */\n      add\n        /* \"#utility.yul\":12265:12316   */\n      mstore\n        /* \"#utility.yul\":12148:12323   */\n      pop\n      jump\t// out\n        /* \"#utility.yul\":12329:12695   */\n    tag_298:\n        /* \"#utility.yul\":12471:12474   */\n      0x00\n        /* \"#utility.yul\":12492:12559   */\n      tag_433\n        /* \"#utility.yul\":12556:12558   */\n      0x19\n        /* \"#utility.yul\":12551:12554   */\n      dup4\n        /* \"#utility.yul\":12492:12559   */\n      tag_284\n      jump\t// in\n    tag_433:\n        /* \"#utility.yul\":12485:12559   */\n      swap2\n      pop\n        /* \"#utility.yul\":12568:12661   */\n      tag_434\n        /* \"#utility.yul\":12657:12660   */\n      dup3\n        /* \"#utility.yul\":12568:12661   */\n      tag_297\n      jump\t// in\n    tag_434:\n        /* \"#utility.yul\":12686:12688   */\n      0x20\n        /* \"#utility.yul\":12681:12684   */\n      dup3\n        /* \"#utility.yul\":12677:12689   */\n      add\n        /* \"#utility.yul\":12670:12689   */\n      swap1\n      pop\n        /* \"#utility.yul\":12329:12695   */\n      swap2\n      swap1\n      pop\n      jump\t// out\n        /* \"#utility.yul\":12701:13120   */\n    tag_155:\n        /* \"#utility.yul\":12867:12871   */\n      0x00\n        /* \"#utility.yul\":12905:12907   */\n      0x20\n        /* \"#utility.yul\":12894:12903   */\n      dup3\n        /* \"#utility.yul\":12890:12908   */\n      add\n        /* \"#utility.yul\":12882:12908   */\n      swap1\n      pop\n        /* \"#utility.yul\":12954:12963   */\n      dup2\n        /* \"#utility.yul\":12948:12952   */\n      dup2\n        /* \"#utility.yul\":12944:12964   */\n      sub\n        /* \"#utility.yul\":12940:12941   */\n      0x00\n        /* \"#utility.yul\":12929:12938   */\n      dup4\n        /* \"#utility.yul\":12925:12942   */\n      add\n        /* \"#utility.yul\":12918:12965   */\n      mstore\n        /* \"#utility.yul\":12982:13113   */\n      tag_436\n        /* \"#utility.yul\":13108:13112   */\n      dup2\n        /* \"#utility.yul\":12982:13113   */\n      tag_298\n      jump\t// in\n    tag_436:\n        /* \"#utility.yul\":12974:13113   */\n      swap1\n      pop\n        /* \"#utility.yul\":12701:13120   */\n      swap2\n      swap1\n      pop\n      jump\t// out\n        /* \"#utility.yul\":13126:13359   */\n    tag_299:\n        /* \"#utility.yul\":13266:13300   */\n      0x53656e742076616c7565206d75737420626520657175616c20746f2074686520\n        /* \"#utility.yul\":13262:13263   */\n      0x00\n        /* \"#utility.yul\":13254:13260   */\n      dup3\n        /* \"#utility.yul\":13250:13264   */\n      add\n        /* \"#utility.yul\":13243:13301   */\n      mstore\n        /* \"#utility.yul\":13335:13351   */\n      0x6c697374696e672070726963652e000000000000000000000000000000000000\n        /* \"#utility.yul\":13330:13332   */\n      0x20\n        /* \"#utility.yul\":13322:13328   */\n      dup3\n        /* \"#utility.yul\":13318:13333   */\n      add\n        /* \"#utility.yul\":13311:13352   */\n      mstore\n        /* \"#utility.yul\":13126:13359   */\n      pop\n      jump\t// out\n        /* \"#utility.yul\":13365:13731   */\n    tag_300:\n        /* \"#utility.yul\":13507:13510   */\n      0x00\n        /* \"#utility.yul\":13528:13595   */\n      tag_439\n        /* \"#utility.yul\":13592:13594   */\n      0x2e\n        /* \"#utility.yul\":13587:13590   */\n      dup4\n        /* \"#utility.yul\":13528:13595   */\n      tag_284\n      jump\t// in\n    tag_439:\n        /* \"#utility.yul\":13521:13595   */\n      swap2\n      pop\n        /* \"#utility.yul\":13604:13697   */\n      tag_440\n        /* \"#utility.yul\":13693:13696   */\n      dup3\n        /* \"#utility.yul\":13604:13697   */\n      tag_299\n      jump\t// in\n    tag_440:\n        /* \"#utility.yul\":13722:13724   */\n      0x40\n        /* \"#utility.yul\":13717:13720   */\n      dup3\n        /* \"#utility.yul\":13713:13725   */\n      add\n        /* \"#utility.yul\":13706:13725   */\n      swap1\n      pop\n        /* \"#utility.yul\":13365:13731   */\n      swap2\n      swap1\n      pop\n      jump\t// out\n        /* \"#utility.yul\":13737:14156   */\n    tag_158:\n        /* \"#utility.yul\":13903:13907   */\n      0x00\n        /* \"#utility.yul\":13941:13943   */\n      0x20\n        /* \"#utility.yul\":13930:13939   */\n      dup3\n        /* \"#utility.yul\":13926:13944   */\n      add\n        /* \"#utility.yul\":13918:13944   */\n      swap1\n      pop\n        /* \"#utility.yul\":13990:13999   */\n      dup2\n        /* \"#utility.yul\":13984:13988   */\n      dup2\n        /* \"#utility.yul\":13980:14000   */\n      sub\n        /* \"#utility.yul\":13976:13977   */\n      0x00\n        /* \"#utility.yul\":13965:13974   */\n      dup4\n        /* \"#utility.yul\":13961:13978   */\n      add\n        /* \"#utility.yul\":13954:14001   */\n      mstore\n        /* \"#utility.yul\":14018:14149   */\n      tag_442\n        /* \"#utility.yul\":14144:14148   */\n      dup2\n        /* \"#utility.yul\":14018:14149   */\n      tag_300\n      jump\t// in\n    tag_442:\n        /* \"#utility.yul\":14010:14149   */\n      swap1\n      pop\n        /* \"#utility.yul\":13737:14156   */\n      swap2\n      swap1\n      pop\n      jump\t// out\n        /* \"#utility.yul\":14162:14510   */\n    tag_160:\n        /* \"#utility.yul\":14202:14209   */\n      0x00\n        /* \"#utility.yul\":14225:14245   */\n      tag_444\n        /* \"#utility.yul\":14243:14244   */\n      dup3\n        /* \"#utility.yul\":14225:14245   */\n      tag_277\n      jump\t// in\n    tag_444:\n        /* \"#utility.yul\":14220:14245   */\n      swap2\n      pop\n        /* \"#utility.yul\":14259:14279   */\n      tag_445\n        /* \"#utility.yul\":14277:14278   */\n      dup4\n        /* \"#utility.yul\":14259:14279   */\n      tag_277\n      jump\t// in\n    tag_445:\n        /* \"#utility.yul\":14254:14279   */\n      swap3\n      pop\n        /* \"#utility.yul\":14447:14448   */\n      dup2\n        /* \"#utility.yul\":14379:14445   */\n      0xffffffffffffffffffffffffffffffffffffffffffffffffffffffffffffffff\n        /* \"#utility.yul\":14375:14449   */\n      div\n        /* \"#utility.yul\":14372:14373   */\n      dup4\n        /* \"#utility.yul\":14369:14450   */\n      gt\n        /* \"#utility.yul\":14364:14365   */\n      dup3\n        /* \"#utility.yul\":14357:14366   */\n      iszero\n        /* \"#utility.yul\":14350:14367   */\n      iszero\n        /* \"#utility.yul\":14346:14451   */\n      and\n        /* \"#utility.yul\":14343:14474   */\n      iszero\n      tag_446\n      jumpi\n        /* \"#utility.yul\":14454:14472   */\n      tag_447\n      tag_292\n      jump\t// in\n    tag_447:\n        /* \"#utility.yul\":14343:14474   */\n    tag_446:\n        /* \"#utility.yul\":14502:14503   */\n      dup3\n        /* \"#utility.yul\":14499:14500   */\n      dup3\n        /* \"#utility.yul\":14495:14504   */\n      mul\n        /* \"#utility.yul\":14484:14504   */\n      swap1\n      pop\n        /* \"#utility.yul\":14162:14510   */\n      swap3\n      swap2\n      pop\n      pop\n      jump\t// out\n        /* \"#utility.yul\":14516:14696   */\n    tag_301:\n        /* \"#utility.yul\":14564:14641   */\n      0x4e487b7100000000000000000000000000000000000000000000000000000000\n        /* \"#utility.yul\":14561:14562   */\n      0x00\n        /* \"#utility.yul\":14554:14642   */\n      mstore\n        /* \"#utility.yul\":14661:14665   */\n      0x12\n        /* \"#utility.yul\":14658:14659   */\n      0x04\n        /* \"#utility.yul\":14651:14666   */\n      mstore\n        /* \"#utility.yul\":14685:14689   */\n      0x24\n        /* \"#utility.yul\":14682:14683   */\n      0x00\n        /* \"#utility.yul\":14675:14690   */\n      revert\n        /* \"#utility.yul\":14702:14887   */\n    tag_162:\n        /* \"#utility.yul\":14742:14743   */\n      0x00\n        /* \"#utility.yul\":14759:14779   */\n      tag_450\n        /* \"#utility.yul\":14777:14778   */\n      dup3\n        /* \"#utility.yul\":14759:14779   */\n      tag_277\n      jump\t// in\n    tag_450:\n        /* \"#utility.yul\":14754:14779   */\n      swap2\n      pop\n        /* \"#utility.yul\":14793:14813   */\n      tag_451\n        /* \"#utility.yul\":14811:14812   */\n      dup4\n        /* \"#utility.yul\":14793:14813   */\n      tag_277\n      jump\t// in\n    tag_451:\n        /* \"#utility.yul\":14788:14813   */\n      swap3\n      pop\n        /* \"#utility.yul\":14832:14833   */\n      dup3\n        /* \"#utility.yul\":14822:14857   */\n      tag_452\n      jumpi\n        /* \"#utility.yul\":14837:14855   */\n      tag_453\n      tag_301\n      jump\t// in\n    tag_453:\n        /* \"#utility.yul\":14822:14857   */\n    tag_452:\n        /* \"#utility.yul\":14879:14880   */\n      dup3\n        /* \"#utility.yul\":14876:14877   */\n      dup3\n        /* \"#utility.yul\":14872:14881   */\n      div\n        /* \"#utility.yul\":14867:14881   */\n      swap1\n      pop\n        /* \"#utility.yul\":14702:14887   */\n      swap3\n      swap2\n      pop\n      pop\n      jump\t// out\n        /* \"#utility.yul\":14893:15087   */\n    tag_166:\n        /* \"#utility.yul\":14933:14937   */\n      0x00\n        /* \"#utility.yul\":14953:14973   */\n      tag_455\n        /* \"#utility.yul\":14971:14972   */\n      dup3\n        /* \"#utility.yul\":14953:14973   */\n      tag_277\n      jump\t// in\n    tag_455:\n        /* \"#utility.yul\":14948:14973   */\n      swap2\n      pop\n        /* \"#utility.yul\":14987:15007   */\n      tag_456\n        /* \"#utility.yul\":15005:15006   */\n      dup4\n        /* \"#utility.yul\":14987:15007   */\n      tag_277\n      jump\t// in\n    tag_456:\n        /* \"#utility.yul\":14982:15007   */\n      swap3\n      pop\n        /* \"#utility.yul\":15031:15032   */\n      dup3\n        /* \"#utility.yul\":15028:15029   */\n      dup3\n        /* \"#utility.yul\":15024:15033   */\n      sub\n        /* \"#utility.yul\":15016:15033   */\n      swap1\n      pop\n        /* \"#utility.yul\":15055:15056   */\n      dup2\n        /* \"#utility.yul\":15049:15053   */\n      dup2\n        /* \"#utility.yul\":15046:15057   */\n      gt\n        /* \"#utility.yul\":15043:15080   */\n      iszero\n      tag_457\n      jumpi\n        /* \"#utility.yul\":15060:15078   */\n      tag_458\n      tag_292\n      jump\t// in\n    tag_458:\n        /* \"#utility.yul\":15043:15080   */\n    tag_457:\n        /* \"#utility.yul\":14893:15087   */\n      swap3\n      swap2\n      pop\n      pop\n      jump\t// out\n        /* \"#utility.yul\":15093:15273   */\n    tag_302:\n        /* \"#utility.yul\":15233:15265   */\n      0x53656c6c6572206e6f206c6f6e676572206f776e7320746865204e46542e0000\n        /* \"#utility.yul\":15229:15230   */\n      0x00\n        /* \"#utility.yul\":15221:15227   */\n      dup3\n        /* \"#utility.yul\":15217:15231   */\n      add\n        /* \"#utility.yul\":15210:15266   */\n      mstore\n        /* \"#utility.yul\":15093:15273   */\n      pop\n      jump\t// out\n        /* \"#utility.yul\":15279:15645   */\n    tag_303:\n        /* \"#utility.yul\":15421:15424   */\n      0x00\n        /* \"#utility.yul\":15442:15509   */\n      tag_461\n        /* \"#utility.yul\":15506:15508   */\n      0x1e\n        /* \"#utility.yul\":15501:15504   */\n      dup4\n        /* \"#utility.yul\":15442:15509   */\n      tag_284\n      jump\t// in\n    tag_461:\n        /* \"#utility.yul\":15435:15509   */\n      swap2\n      pop\n        /* \"#utility.yul\":15518:15611   */\n      tag_462\n        /* \"#utility.yul\":15607:15610   */\n      dup3\n        /* \"#utility.yul\":15518:15611   */\n      tag_302\n      jump\t// in\n    tag_462:\n        /* \"#utility.yul\":15636:15638   */\n      0x20\n        /* \"#utility.yul\":15631:15634   */\n      dup3\n        /* \"#utility.yul\":15627:15639   */\n      add\n        /* \"#utility.yul\":15620:15639   */\n      swap1\n      pop\n        /* \"#utility.yul\":15279:15645   */\n      swap2\n      swap1\n      pop\n      jump\t// out\n        /* \"#utility.yul\":15651:16070   */\n    tag_174:\n        /* \"#utility.yul\":15817:15821   */\n      0x00\n        /* \"#utility.yul\":15855:15857   */\n      0x20\n        /* \"#utility.yul\":15844:15853   */\n      dup3\n        /* \"#utility.yul\":15840:15858   */\n      add\n        /* \"#utility.yul\":15832:15858   */\n      swap1\n      pop\n        /* \"#utility.yul\":15904:15913   */\n      dup2\n        /* \"#utility.yul\":15898:15902   */\n      dup2\n        /* \"#utility.yul\":15894:15914   */\n      sub\n        /* \"#utility.yul\":15890:15891   */\n      0x00\n        /* \"#utility.yul\":15879:15888   */\n      dup4\n        /* \"#utility.yul\":15875:15892   */\n      add\n        /* \"#utility.yul\":15868:15915   */\n      mstore\n        /* \"#utility.yul\":15932:16063   */\n      tag_464\n        /* \"#utility.yul\":16058:16062   */\n      dup2\n        /* \"#utility.yul\":15932:16063   */\n      tag_303\n      jump\t// in\n    tag_464:\n        /* \"#utility.yul\":15924:16063   */\n      swap1\n      pop\n        /* \"#utility.yul\":15651:16070   */\n      swap2\n      swap1\n      pop\n      jump\t// out\n        /* \"#utility.yul\":16076:16518   */\n    tag_176:\n        /* \"#utility.yul\":16225:16229   */\n      0x00\n        /* \"#utility.yul\":16263:16265   */\n      0x60\n        /* \"#utility.yul\":16252:16261   */\n      dup3\n        /* \"#utility.yul\":16248:16266   */\n      add\n        /* \"#utility.yul\":16240:16266   */\n      swap1\n      pop\n        /* \"#utility.yul\":16276:16347   */\n      tag_466\n        /* \"#utility.yul\":16344:16345   */\n      0x00\n        /* \"#utility.yul\":16333:16342   */\n      dup4\n        /* \"#utility.yul\":16329:16346   */\n      add\n        /* \"#utility.yul\":16320:16326   */\n      dup7\n        /* \"#utility.yul\":16276:16347   */\n      tag_283\n      jump\t// in\n    tag_466:\n        /* \"#utility.yul\":16357:16429   */\n      tag_467\n        /* \"#utility.yul\":16425:16427   */\n      0x20\n        /* \"#utility.yul\":16414:16423   */\n      dup4\n        /* \"#utility.yul\":16410:16428   */\n      add\n        /* \"#utility.yul\":16401:16407   */\n      dup6\n        /* \"#utility.yul\":16357:16429   */\n      tag_283\n      jump\t// in\n    tag_467:\n        /* \"#utility.yul\":16439:16511   */\n      tag_468\n        /* \"#utility.yul\":16507:16509   */\n      0x40\n        /* \"#utility.yul\":16496:16505   */\n      dup4\n        /* \"#utility.yul\":16492:16510   */\n      add\n        /* \"#utility.yul\":16483:16489   */\n      dup5\n        /* \"#utility.yul\":16439:16511   */\n      tag_282\n      jump\t// in\n    tag_468:\n        /* \"#utility.yul\":16076:16518   */\n      swap5\n      swap4\n      pop\n      pop\n      pop\n      pop\n      jump\t// out\n        /* \"#utility.yul\":16524:16698   */\n    tag_304:\n        /* \"#utility.yul\":16664:16690   */\n      0x4164647265737365732063616e6e6f74206265207a65726f0000000000000000\n        /* \"#utility.yul\":16660:16661   */\n      0x00\n        /* \"#utility.yul\":16652:16658   */\n      dup3\n        /* \"#utility.yul\":16648:16662   */\n      add\n        /* \"#utility.yul\":16641:16691   */\n      mstore\n        /* \"#utility.yul\":16524:16698   */\n      pop\n      jump\t// out\n        /* \"#utility.yul\":16704:17070   */\n    tag_305:\n        /* \"#utility.yul\":16846:16849   */\n      0x00\n        /* \"#utility.yul\":16867:16934   */\n      tag_471\n        /* \"#utility.yul\":16931:16933   */\n      0x18\n        /* \"#utility.yul\":16926:16929   */\n      dup4\n        /* \"#utility.yul\":16867:16934   */\n      tag_284\n      jump\t// in\n    tag_471:\n        /* \"#utility.yul\":16860:16934   */\n      swap2\n      pop\n        /* \"#utility.yul\":16943:17036   */\n      tag_472\n        /* \"#utility.yul\":17032:17035   */\n      dup3\n        /* \"#utility.yul\":16943:17036   */\n      tag_304\n      jump\t// in\n    tag_472:\n        /* \"#utility.yul\":17061:17063   */\n      0x20\n        /* \"#utility.yul\":17056:17059   */\n      dup3\n        /* \"#utility.yul\":17052:17064   */\n      add\n        /* \"#utility.yul\":17045:17064   */\n      swap1\n      pop\n        /* \"#utility.yul\":16704:17070   */\n      swap2\n      swap1\n      pop\n      jump\t// out\n        /* \"#utility.yul\":17076:17495   */\n    tag_197:\n        /* \"#utility.yul\":17242:17246   */\n      0x00\n        /* \"#utility.yul\":17280:17282   */\n      0x20\n        /* \"#utility.yul\":17269:17278   */\n      dup3\n        /* \"#utility.yul\":17265:17283   */\n      add\n        /* \"#utility.yul\":17257:17283   */\n      swap1\n      pop\n        /* \"#utility.yul\":17329:17338   */\n      dup2\n        /* \"#utility.yul\":17323:17327   */\n      dup2\n        /* \"#utility.yul\":17319:17339   */\n      sub\n        /* \"#utility.yul\":17315:17316   */\n      0x00\n        /* \"#utility.yul\":17304:17313   */\n      dup4\n        /* \"#utility.yul\":17300:17317   */\n      add\n        /* \"#utility.yul\":17293:17340   */\n      mstore\n        /* \"#utility.yul\":17357:17488   */\n      tag_474\n        /* \"#utility.yul\":17483:17487   */\n      dup2\n        /* \"#utility.yul\":17357:17488   */\n      tag_305\n      jump\t// in\n    tag_474:\n        /* \"#utility.yul\":17349:17488   */\n      swap1\n      pop\n        /* \"#utility.yul\":17076:17495   */\n      swap2\n      swap1\n      pop\n      jump\t// out\n        /* \"#utility.yul\":17501:17727   */\n    tag_306:\n        /* \"#utility.yul\":17641:17675   */\n      0x596f7520617265206e6f74207468652073656c6c6572206f662074686973206c\n        /* \"#utility.yul\":17637:17638   */\n      0x00\n        /* \"#utility.yul\":17629:17635   */\n      dup3\n        /* \"#utility.yul\":17625:17639   */\n      add\n        /* \"#utility.yul\":17618:17676   */\n      mstore\n        /* \"#utility.yul\":17710:17719   */\n      0x697374696e672e00000000000000000000000000000000000000000000000000\n        /* \"#utility.yul\":17705:17707   */\n      0x20\n        /* \"#utility.yul\":17697:17703   */\n      dup3\n        /* \"#utility.yul\":17693:17708   */\n      add\n        /* \"#utility.yul\":17686:17720   */\n      mstore\n        /* \"#utility.yul\":17501:17727   */\n      pop\n      jump\t// out\n        /* \"#utility.yul\":17733:18099   */\n    tag_307:\n        /* \"#utility.yul\":17875:17878   */\n      0x00\n        /* \"#utility.yul\":17896:17963   */\n      tag_477\n        /* \"#utility.yul\":17960:17962   */\n      0x27\n        /* \"#utility.yul\":17955:17958   */\n      dup4\n        /* \"#utility.yul\":17896:17963   */\n      tag_284\n      jump\t// in\n    tag_477:\n        /* \"#utility.yul\":17889:17963   */\n      swap2\n      pop\n        /* \"#utility.yul\":17972:18065   */\n      tag_478\n        /* \"#utility.yul\":18061:18064   */\n      dup3\n        /* \"#utility.yul\":17972:18065   */\n      tag_306\n      jump\t// in\n    tag_478:\n        /* \"#utility.yul\":18090:18092   */\n      0x40\n        /* \"#utility.yul\":18085:18088   */\n      dup3\n        /* \"#utility.yul\":18081:18093   */\n      add\n        /* \"#utility.yul\":18074:18093   */\n      swap1\n      pop\n        /* \"#utility.yul\":17733:18099   */\n      swap2\n      swap1\n      pop\n      jump\t// out\n        /* \"#utility.yul\":18105:18524   */\n    tag_224:\n        /* \"#utility.yul\":18271:18275   */\n      0x00\n        /* \"#utility.yul\":18309:18311   */\n      0x20\n        /* \"#utility.yul\":18298:18307   */\n      dup3\n        /* \"#utility.yul\":18294:18312   */\n      add\n        /* \"#utility.yul\":18286:18312   */\n      swap1\n      pop\n        /* \"#utility.yul\":18358:18367   */\n      dup2\n        /* \"#utility.yul\":18352:18356   */\n      dup2\n        /* \"#utility.yul\":18348:18368   */\n      sub\n        /* \"#utility.yul\":18344:18345   */\n      0x00\n        /* \"#utility.yul\":18333:18342   */\n      dup4\n        /* \"#utility.yul\":18329:18346   */\n      add\n        /* \"#utility.yul\":18322:18369   */\n      mstore\n        /* \"#utility.yul\":18386:18517   */\n      tag_480\n        /* \"#utility.yul\":18512:18516   */\n      dup2\n        /* \"#utility.yul\":18386:18517   */\n      tag_307\n      jump\t// in\n    tag_480:\n        /* \"#utility.yul\":18378:18517   */\n      swap1\n      pop\n        /* \"#utility.yul\":18105:18524   */\n      swap2\n      swap1\n      pop\n      jump\t// out\n        /* \"#utility.yul\":18530:18755   */\n    tag_308:\n        /* \"#utility.yul\":18670:18704   */\n      0x4f776e61626c653a206e6577206f776e657220697320746865207a65726f2061\n        /* \"#utility.yul\":18666:18667   */\n      0x00\n        /* \"#utility.yul\":18658:18664   */\n      dup3\n        /* \"#utility.yul\":18654:18668   */\n      add\n        /* \"#utility.yul\":18647:18705   */\n      mstore\n        /* \"#utility.yul\":18739:18747   */\n      0x6464726573730000000000000000000000000000000000000000000000000000\n        /* \"#utility.yul\":18734:18736   */\n      0x20\n        /* \"#utility.yul\":18726:18732   */\n      dup3\n        /* \"#utility.yul\":18722:18737   */\n      add\n        /* \"#utility.yul\":18715:18748   */\n      mstore\n        /* \"#utility.yul\":18530:18755   */\n      pop\n      jump\t// out\n        /* \"#utility.yul\":18761:19127   */\n    tag_309:\n        /* \"#utility.yul\":18903:18906   */\n      0x00\n        /* \"#utility.yul\":18924:18991   */\n      tag_483\n        /* \"#utility.yul\":18988:18990   */\n      0x26\n        /* \"#utility.yul\":18983:18986   */\n      dup4\n        /* \"#utility.yul\":18924:18991   */\n      tag_284\n      jump\t// in\n    tag_483:\n        /* \"#utility.yul\":18917:18991   */\n      swap2\n      pop\n        /* \"#utility.yul\":19000:19093   */\n      tag_484\n        /* \"#utility.yul\":19089:19092   */\n      dup3\n        /* \"#utility.yul\":19000:19093   */\n      tag_308\n      jump\t// in\n    tag_484:\n        /* \"#utility.yul\":19118:19120   */\n      0x40\n        /* \"#utility.yul\":19113:19116   */\n      dup3\n        /* \"#utility.yul\":19109:19121   */\n      add\n        /* \"#utility.yul\":19102:19121   */\n      swap1\n      pop\n        /* \"#utility.yul\":18761:19127   */\n      swap2\n      swap1\n      pop\n      jump\t// out\n        /* \"#utility.yul\":19133:19552   */\n    tag_233:\n        /* \"#utility.yul\":19299:19303   */\n      0x00\n        /* \"#utility.yul\":19337:19339   */\n      0x20\n        /* \"#utility.yul\":19326:19335   */\n      dup3\n        /* \"#utility.yul\":19322:19340   */\n      add\n        /* \"#utility.yul\":19314:19340   */\n      swap1\n      pop\n        /* \"#utility.yul\":19386:19395   */\n      dup2\n        /* \"#utility.yul\":19380:19384   */\n      dup2\n        /* \"#utility.yul\":19376:19396   */\n      sub\n        /* \"#utility.yul\":19372:19373   */\n      0x00\n        /* \"#utility.yul\":19361:19370   */\n      dup4\n        /* \"#utility.yul\":19357:19374   */\n      add\n        /* \"#utility.yul\":19350:19397   */\n      mstore\n        /* \"#utility.yul\":19414:19545   */\n      tag_486\n        /* \"#utility.yul\":19540:19544   */\n      dup2\n        /* \"#utility.yul\":19414:19545   */\n      tag_309\n      jump\t// in\n    tag_486:\n        /* \"#utility.yul\":19406:19545   */\n      swap1\n      pop\n        /* \"#utility.yul\":19133:19552   */\n      swap2\n      swap1\n      pop\n      jump\t// out\n        /* \"#utility.yul\":19558:19724   */\n    tag_310:\n        /* \"#utility.yul\":19698:19716   */\n      0x5061757361626c653a2070617573656400000000000000000000000000000000\n        /* \"#utility.yul\":19694:19695   */\n      0x00\n        /* \"#utility.yul\":19686:19692   */\n      dup3\n        /* \"#utility.yul\":19682:19696   */\n      add\n        /* \"#utility.yul\":19675:19717   */\n      mstore\n        /* \"#utility.yul\":19558:19724   */\n      pop\n      jump\t// out\n        /* \"#utility.yul\":19730:20096   */\n    tag_311:\n        /* \"#utility.yul\":19872:19875   */\n      0x00\n        /* \"#utility.yul\":19893:19960   */\n      tag_489\n        /* \"#utility.yul\":19957:19959   */\n      0x10\n        /* \"#utility.yul\":19952:19955   */\n      dup4\n        /* \"#utility.yul\":19893:19960   */\n      tag_284\n      jump\t// in\n    tag_489:\n        /* \"#utility.yul\":19886:19960   */\n      swap2\n      pop\n        /* \"#utility.yul\":19969:20062   */\n      tag_490\n        /* \"#utility.yul\":20058:20061   */\n      dup3\n        /* \"#utility.yul\":19969:20062   */\n      tag_310\n      jump\t// in\n    tag_490:\n        /* \"#utility.yul\":20087:20089   */\n      0x20\n        /* \"#utility.yul\":20082:20085   */\n      dup3\n        /* \"#utility.yul\":20078:20090   */\n      add\n        /* \"#utility.yul\":20071:20090   */\n      swap1\n      pop\n        /* \"#utility.yul\":19730:20096   */\n      swap2\n      swap1\n      pop\n      jump\t// out\n        /* \"#utility.yul\":20102:20521   */\n    tag_239:\n        /* \"#utility.yul\":20268:20272   */\n      0x00\n        /* \"#utility.yul\":20306:20308   */\n      0x20\n        /* \"#utility.yul\":20295:20304   */\n      dup3\n        /* \"#utility.yul\":20291:20309   */\n      add\n        /* \"#utility.yul\":20283:20309   */\n      swap1\n      pop\n        /* \"#utility.yul\":20355:20364   */\n      dup2\n        /* \"#utility.yul\":20349:20353   */\n      dup2\n        /* \"#utility.yul\":20345:20365   */\n      sub\n        /* \"#utility.yul\":20341:20342   */\n      0x00\n        /* \"#utility.yul\":20330:20339   */\n      dup4\n        /* \"#utility.yul\":20326:20343   */\n      add\n        /* \"#utility.yul\":20319:20366   */\n      mstore\n        /* \"#utility.yul\":20383:20514   */\n      tag_492\n        /* \"#utility.yul\":20509:20513   */\n      dup2\n        /* \"#utility.yul\":20383:20514   */\n      tag_311\n      jump\t// in\n    tag_492:\n        /* \"#utility.yul\":20375:20514   */\n      swap1\n      pop\n        /* \"#utility.yul\":20102:20521   */\n      swap2\n      swap1\n      pop\n      jump\t// out\n        /* \"#utility.yul\":20527:20708   */\n    tag_312:\n        /* \"#utility.yul\":20667:20700   */\n      0x5265656e7472616e637947756172643a207265656e7472616e742063616c6c00\n        /* \"#utility.yul\":20663:20664   */\n      0x00\n        /* \"#utility.yul\":20655:20661   */\n      dup3\n        /* \"#utility.yul\":20651:20665   */\n      add\n        /* \"#utility.yul\":20644:20701   */\n      mstore\n        /* \"#utility.yul\":20527:20708   */\n      pop\n      jump\t// out\n        /* \"#utility.yul\":20714:21080   */\n    tag_313:\n        /* \"#utility.yul\":20856:20859   */\n      0x00\n        /* \"#utility.yul\":20877:20944   */\n      tag_495\n        /* \"#utility.yul\":20941:20943   */\n      0x1f\n        /* \"#utility.yul\":20936:20939   */\n      dup4\n        /* \"#utility.yul\":20877:20944   */\n      tag_284\n      jump\t// in\n    tag_495:\n        /* \"#utility.yul\":20870:20944   */\n      swap2\n      pop\n        /* \"#utility.yul\":20953:21046   */\n      tag_496\n        /* \"#utility.yul\":21042:21045   */\n      dup3\n        /* \"#utility.yul\":20953:21046   */\n      tag_312\n      jump\t// in\n    tag_496:\n        /* \"#utility.yul\":21071:21073   */\n      0x20\n        /* \"#utility.yul\":21066:21069   */\n      dup3\n        /* \"#utility.yul\":21062:21074   */\n      add\n        /* \"#utility.yul\":21055:21074   */\n      swap1\n      pop\n        /* \"#utility.yul\":20714:21080   */\n      swap2\n      swap1\n      pop\n      jump\t// out\n        /* \"#utility.yul\":21086:21505   */\n    tag_243:\n        /* \"#utility.yul\":21252:21256   */\n      0x00\n        /* \"#utility.yul\":21290:21292   */\n      0x20\n        /* \"#utility.yul\":21279:21288   */\n      dup3\n        /* \"#utility.yul\":21275:21293   */\n      add\n        /* \"#utility.yul\":21267:21293   */\n      swap1\n      pop\n        /* \"#utility.yul\":21339:21348   */\n      dup2\n        /* \"#utility.yul\":21333:21337   */\n      dup2\n        /* \"#utility.yul\":21329:21349   */\n      sub\n        /* \"#utility.yul\":21325:21326   */\n      0x00\n        /* \"#utility.yul\":21314:21323   */\n      dup4\n        /* \"#utility.yul\":21310:21327   */\n      add\n        /* \"#utility.yul\":21303:21350   */\n      mstore\n        /* \"#utility.yul\":21367:21498   */\n      tag_498\n        /* \"#utility.yul\":21493:21497   */\n      dup2\n        /* \"#utility.yul\":21367:21498   */\n      tag_313\n      jump\t// in\n    tag_498:\n        /* \"#utility.yul\":21359:21498   */\n      swap1\n      pop\n        /* \"#utility.yul\":21086:21505   */\n      swap2\n      swap1\n      pop\n      jump\t// out\n        /* \"#utility.yul\":21511:21693   */\n    tag_314:\n        /* \"#utility.yul\":21651:21685   */\n      0x4f776e61626c653a2063616c6c6572206973206e6f7420746865206f776e6572\n        /* \"#utility.yul\":21647:21648   */\n      0x00\n        /* \"#utility.yul\":21639:21645   */\n      dup3\n        /* \"#utility.yul\":21635:21649   */\n      add\n        /* \"#utility.yul\":21628:21686   */\n      mstore\n        /* \"#utility.yul\":21511:21693   */\n      pop\n      jump\t// out\n        /* \"#utility.yul\":21699:22065   */\n    tag_315:\n        /* \"#utility.yul\":21841:21844   */\n      0x00\n        /* \"#utility.yul\":21862:21929   */\n      tag_501\n        /* \"#utility.yul\":21926:21928   */\n      0x20\n        /* \"#utility.yul\":21921:21924   */\n      dup4\n        /* \"#utility.yul\":21862:21929   */\n      tag_284\n      jump\t// in\n    tag_501:\n        /* \"#utility.yul\":21855:21929   */\n      swap2\n      pop\n        /* \"#utility.yul\":21938:22031   */\n      tag_502\n        /* \"#utility.yul\":22027:22030   */\n      dup3\n        /* \"#utility.yul\":21938:22031   */\n      tag_314\n      jump\t// in\n    tag_502:\n        /* \"#utility.yul\":22056:22058   */\n      0x20\n        /* \"#utility.yul\":22051:22054   */\n      dup3\n        /* \"#utility.yul\":22047:22059   */\n      add\n        /* \"#utility.yul\":22040:22059   */\n      swap1\n      pop\n        /* \"#utility.yul\":21699:22065   */\n      swap2\n      swap1\n      pop\n      jump\t// out\n        /* \"#utility.yul\":22071:22490   */\n    tag_251:\n        /* \"#utility.yul\":22237:22241   */\n      0x00\n        /* \"#utility.yul\":22275:22277   */\n      0x20\n        /* \"#utility.yul\":22264:22273   */\n      dup3\n        /* \"#utility.yul\":22260:22278   */\n      add\n        /* \"#utility.yul\":22252:22278   */\n      swap1\n      pop\n        /* \"#utility.yul\":22324:22333   */\n      dup2\n        /* \"#utility.yul\":22318:22322   */\n      dup2\n        /* \"#utility.yul\":22314:22334   */\n      sub\n        /* \"#utility.yul\":22310:22311   */\n      0x00\n        /* \"#utility.yul\":22299:22308   */\n      dup4\n        /* \"#utility.yul\":22295:22312   */\n      add\n        /* \"#utility.yul\":22288:22335   */\n      mstore\n        /* \"#utility.yul\":22352:22483   */\n      tag_504\n        /* \"#utility.yul\":22478:22482   */\n      dup2\n        /* \"#utility.yul\":22352:22483   */\n      tag_315\n      jump\t// in\n    tag_504:\n        /* \"#utility.yul\":22344:22483   */\n      swap1\n      pop\n        /* \"#utility.yul\":22071:22490   */\n      swap2\n      swap1\n      pop\n      jump\t// out\n        /* \"#utility.yul\":22496:22666   */\n    tag_316:\n        /* \"#utility.yul\":22636:22658   */\n      0x5061757361626c653a206e6f7420706175736564000000000000000000000000\n        /* \"#utility.yul\":22632:22633   */\n      0x00\n        /* \"#utility.yul\":22624:22630   */\n      dup3\n        /* \"#utility.yul\":22620:22634   */\n      add\n        /* \"#utility.yul\":22613:22659   */\n      mstore\n        /* \"#utility.yul\":22496:22666   */\n      pop\n      jump\t// out\n        /* \"#utility.yul\":22672:23038   */\n    tag_317:\n        /* \"#utility.yul\":22814:22817   */\n      0x00\n        /* \"#utility.yul\":22835:22902   */\n      tag_507\n        /* \"#utility.yul\":22899:22901   */\n      0x14\n        /* \"#utility.yul\":22894:22897   */\n      dup4\n        /* \"#utility.yul\":22835:22902   */\n      tag_284\n      jump\t// in\n    tag_507:\n        /* \"#utility.yul\":22828:22902   */\n      swap2\n      pop\n        /* \"#utility.yul\":22911:23004   */\n      tag_508\n        /* \"#utility.yul\":23000:23003   */\n      dup3\n        /* \"#utility.yul\":22911:23004   */\n      tag_316\n      jump\t// in\n    tag_508:\n        /* \"#utility.yul\":23029:23031   */\n      0x20\n        /* \"#utility.yul\":23024:23027   */\n      dup3\n        /* \"#utility.yul\":23020:23032   */\n      add\n        /* \"#utility.yul\":23013:23032   */\n      swap1\n      pop\n        /* \"#utility.yul\":22672:23038   */\n      swap2\n      swap1\n      pop\n      jump\t// out\n        /* \"#utility.yul\":23044:23463   */\n    tag_269:\n        /* \"#utility.yul\":23210:23214   */\n      0x00\n        /* \"#utility.yul\":23248:23250   */\n      0x20\n        /* \"#utility.yul\":23237:23246   */\n      dup3\n        /* \"#utility.yul\":23233:23251   */\n      add\n        /* \"#utility.yul\":23225:23251   */\n      swap1\n      pop\n        /* \"#utility.yul\":23297:23306   */\n      dup2\n        /* \"#utility.yul\":23291:23295   */\n      dup2\n        /* \"#utility.yul\":23287:23307   */\n      sub\n        /* \"#utility.yul\":23283:23284   */\n      0x00\n        /* \"#utility.yul\":23272:23281   */\n      dup4\n        /* \"#utility.yul\":23268:23285   */\n      add\n        /* \"#utility.yul\":23261:23308   */\n      mstore\n        /* \"#utility.yul\":23325:23456   */\n      tag_510\n        /* \"#utility.yul\":23451:23455   */\n      dup2\n        /* \"#utility.yul\":23325:23456   */\n      tag_317\n      jump\t// in\n    tag_510:\n        /* \"#utility.yul\":23317:23456   */\n      swap1\n      pop\n        /* \"#utility.yul\":23044:23463   */\n      swap2\n      swap1\n      pop\n      jump\t// out\n\n    auxdata: 0xa26469706673582212201e726f3521cbc4a1e26634a7d412ad44aa07403cbe4b024e055205e98d9093c764736f6c63430008100033\n}\n",
				"bytecode": {
					"linkReferences": {},
					"object": "608060405260016009553480156200001657600080fd5b50604051620025dc380380620025dc83398181016040528101906200003c919062000336565b6200005c62000050620001c560201b60201c565b620001cd60201b60201c565b600180819055506000600260006101000a81548160ff021916908315150217905550600073ffffffffffffffffffffffffffffffffffffffff168273ffffffffffffffffffffffffffffffffffffffff1614158015620000e95750600073ffffffffffffffffffffffffffffffffffffffff168173ffffffffffffffffffffffffffffffffffffffff1614155b6200012b576040517f08c379a0000000000000000000000000000000000000000000000000000000008152600401620001229062000409565b60405180910390fd5b836004819055508260058190555081600660006101000a81548173ffffffffffffffffffffffffffffffffffffffff021916908373ffffffffffffffffffffffffffffffffffffffff16021790555080600760006101000a81548173ffffffffffffffffffffffffffffffffffffffff021916908373ffffffffffffffffffffffffffffffffffffffff160217905550505050506200042b565b600033905090565b60008060009054906101000a900473ffffffffffffffffffffffffffffffffffffffff169050816000806101000a81548173ffffffffffffffffffffffffffffffffffffffff021916908373ffffffffffffffffffffffffffffffffffffffff1602179055508173ffffffffffffffffffffffffffffffffffffffff168173ffffffffffffffffffffffffffffffffffffffff167f8be0079c531659141344cd1fd0a4f28419497f9722a3daafe3b4186f6b6457e060405160405180910390a35050565b600080fd5b6000819050919050565b620002ab8162000296565b8114620002b757600080fd5b50565b600081519050620002cb81620002a0565b92915050565b600073ffffffffffffffffffffffffffffffffffffffff82169050919050565b6000620002fe82620002d1565b9050919050565b6200031081620002f1565b81146200031c57600080fd5b50565b600081519050620003308162000305565b92915050565b6000806000806080858703121562000353576200035262000291565b5b60006200036387828801620002ba565b94505060206200037687828801620002ba565b935050604062000389878288016200031f565b92505060606200039c878288016200031f565b91505092959194509250565b600082825260208201905092915050565b7f4164647265737365732063616e6e6f74206265207a65726f0000000000000000600082015250565b6000620003f1601883620003a8565b9150620003fe82620003b9565b602082019050919050565b600060208201905081810360008301526200042481620003e2565b9050919050565b6121a1806200043b6000396000f3fe6080604052600436106101095760003560e01c80638da5cb5b11610095578063cdd78cfc11610064578063cdd78cfc146102ea578063de74e57b14610315578063e3b6a1f614610356578063ed14834f14610393578063f2fde38b146103be57610109565b80638da5cb5b14610240578063aaccf1ec1461026b578063ad2f852a14610296578063cb917b9c146102c157610109565b80635e4e8d65116100dc5780635e4e8d6514610195578063715018a6146101be57806378578bb3146101d55780638456cb59146101fe5780638a71bb2d1461021557610109565b80633c44a5f01461010e5780633f4ba83a1461013757806351ed82881461014e5780635c975abb1461016a575b600080fd5b34801561011a57600080fd5b50610135600480360381019061013091906115e1565b6103e7565b005b34801561014357600080fd5b5061014c610754565b005b61016860048036038101906101639190611648565b610776565b005b34801561017657600080fd5b5061017f610d8b565b60405161018c9190611690565b60405180910390f35b3480156101a157600080fd5b506101bc60048036038101906101b791906116ab565b610da2565b005b3480156101ca57600080fd5b506101d3610ee9565b005b3480156101e157600080fd5b506101fc60048036038101906101f791906116eb565b610efd565b005b34801561020a57600080fd5b50610213610f27565b005b34801561022157600080fd5b5061022a610f49565b604051610237919061173a565b60405180910390f35b34801561024c57600080fd5b50610255610f4f565b6040516102629190611764565b60405180910390f35b34801561027757600080fd5b50610280610f78565b60405161028d919061173a565b60405180910390f35b3480156102a257600080fd5b506102ab610f7e565b6040516102b89190611764565b60405180910390f35b3480156102cd57600080fd5b506102e860048036038101906102e39190611648565b610fa4565b005b3480156102f657600080fd5b506102ff611104565b60405161030c919061173a565b60405180910390f35b34801561032157600080fd5b5061033c60048036038101906103379190611648565b61110a565b60405161034d95949392919061177f565b60405180910390f35b34801561036257600080fd5b5061037d60048036038101906103789190611648565b611180565b60405161038a919061173a565b60405180910390f35b34801561039f57600080fd5b506103a86111a4565b6040516103b59190611764565b60405180910390f35b3480156103ca57600080fd5b506103e560048036038101906103e091906117d2565b6111ca565b005b6103ef61124d565b6103f7611297565b6000821161043a576040517f08c379a00000000000000000000000000000000000000000000000000000000081526004016104319061185c565b60405180910390fd5b6000811161047d576040517f08c379a0000000000000000000000000000000000000000000000000000000008152600401610474906118ee565b60405180910390fd5b60008490503373ffffffffffffffffffffffffffffffffffffffff168173ffffffffffffffffffffffffffffffffffffffff16636352211e866040518263ffffffff1660e01b81526004016104d2919061173a565b602060405180830381865afa1580156104ef573d6000803e3d6000fd5b505050506040513d601f19601f820116820180604052508101906105139190611923565b73ffffffffffffffffffffffffffffffffffffffff1614610569576040517f08c379a00000000000000000000000000000000000000000000000000000000081526004016105609061199c565b60405180910390fd5b6040518060a001604052808673ffffffffffffffffffffffffffffffffffffffff1681526020018581526020013373ffffffffffffffffffffffffffffffffffffffff16815260200184815260200183426105c491906119eb565b81525060086000600954815260200190815260200160002060008201518160000160006101000a81548173ffffffffffffffffffffffffffffffffffffffff021916908373ffffffffffffffffffffffffffffffffffffffff1602179055506020820151816001015560408201518160020160006101000a81548173ffffffffffffffffffffffffffffffffffffffff021916908373ffffffffffffffffffffffffffffffffffffffff1602179055506060820151816003015560808201518160040155905050600360095490806001815401808255809150506001900390600052602060002001600090919091909150558473ffffffffffffffffffffffffffffffffffffffff163373ffffffffffffffffffffffffffffffffffffffff166009547ff33c76fec15a03b2e414df8c9dce93f5b05f8672742e0f1eb558b2161162dfcb8787874261071691906119eb565b60405161072593929190611a1f565b60405180910390a46009600081548092919061074090611a56565b91905055505061074e6112e6565b50505050565b61075c6112ef565b610764611297565b61076c61136d565b6107746112e6565b565b61077e61124d565b610786611297565b600034116107c9576040517f08c379a00000000000000000000000000000000000000000000000000000000081526004016107c090611b10565b60405180910390fd5b6000600860008381526020019081526020016000209050600073ffffffffffffffffffffffffffffffffffffffff168160020160009054906101000a900473ffffffffffffffffffffffffffffffffffffffff1673ffffffffffffffffffffffffffffffffffffffff1603610873576040517f08c379a000000000000000000000000000000000000000000000000000000000815260040161086a90611b7c565b60405180910390fd5b80600401544211156108ba576040517f08c379a00000000000000000000000000000000000000000000000000000000081526004016108b190611be8565b60405180910390fd5b80600301543414610900576040517f08c379a00000000000000000000000000000000000000000000000000000000081526004016108f790611c7a565b60405180910390fd5b600061271060045483600301546109179190611c9a565b6109219190611d23565b90506000612710600554846003015461093a9190611c9a565b6109449190611d23565b90506000818385600301546109599190611d54565b6109639190611d54565b905060008460000160009054906101000a900473ffffffffffffffffffffffffffffffffffffffff1690508460020160009054906101000a900473ffffffffffffffffffffffffffffffffffffffff1673ffffffffffffffffffffffffffffffffffffffff168173ffffffffffffffffffffffffffffffffffffffff16636352211e87600101546040518263ffffffff1660e01b8152600401610a06919061173a565b602060405180830381865afa158015610a23573d6000803e3d6000fd5b505050506040513d601f19601f82011682018060405250810190610a479190611923565b73ffffffffffffffffffffffffffffffffffffffff1614610a9d576040517f08c379a0000000000000000000000000000000000000000000000000000000008152600401610a9490611dd4565b60405180910390fd5b8073ffffffffffffffffffffffffffffffffffffffff166342842e0e8660020160009054906101000a900473ffffffffffffffffffffffffffffffffffffffff163388600101546040518463ffffffff1660e01b8152600401610b0293929190611df4565b600060405180830381600087803b158015610b1c57600080fd5b505af1158015610b30573d6000803e3d6000fd5b505050508460020160009054906101000a900473ffffffffffffffffffffffffffffffffffffffff1673ffffffffffffffffffffffffffffffffffffffff166108fc839081150290604051600060405180830381858888f19350505050158015610b9e573d6000803e3d6000fd5b50600660009054906101000a900473ffffffffffffffffffffffffffffffffffffffff1673ffffffffffffffffffffffffffffffffffffffff166108fc859081150290604051600060405180830381858888f19350505050158015610c07573d6000803e3d6000fd5b50600760009054906101000a900473ffffffffffffffffffffffffffffffffffffffff1673ffffffffffffffffffffffffffffffffffffffff166108fc849081150290604051600060405180830381858888f19350505050158015610c70573d6000803e3d6000fd5b503373ffffffffffffffffffffffffffffffffffffffff168560020160009054906101000a900473ffffffffffffffffffffffffffffffffffffffff1673ffffffffffffffffffffffffffffffffffffffff16877f8562eb94748e30bb0071e932744ce902b460c683474fcb3bfd567ffa16b1afb28860030154604051610cf7919061173a565b60405180910390a460086000878152602001908152602001600020600080820160006101000a81549073ffffffffffffffffffffffffffffffffffffffff021916905560018201600090556002820160006101000a81549073ffffffffffffffffffffffffffffffffffffffff02191690556003820160009055600482016000905550505050505050610d886112e6565b50565b6000600260009054906101000a900460ff16905090565b610daa6112ef565b610db2611297565b600073ffffffffffffffffffffffffffffffffffffffff168273ffffffffffffffffffffffffffffffffffffffff1614158015610e1c5750600073ffffffffffffffffffffffffffffffffffffffff168173ffffffffffffffffffffffffffffffffffffffff1614155b610e5b576040517f08c379a0000000000000000000000000000000000000000000000000000000008152600401610e5290611e77565b60405180910390fd5b81600660006101000a81548173ffffffffffffffffffffffffffffffffffffffff021916908373ffffffffffffffffffffffffffffffffffffffff16021790555080600760006101000a81548173ffffffffffffffffffffffffffffffffffffffff021916908373ffffffffffffffffffffffffffffffffffffffff160217905550610ee56112e6565b5050565b610ef16112ef565b610efb60006113d0565b565b610f056112ef565b610f0d611297565b8160048190555080600581905550610f236112e6565b5050565b610f2f6112ef565b610f37611297565b610f3f611494565b610f476112e6565b565b60045481565b60008060009054906101000a900473ffffffffffffffffffffffffffffffffffffffff16905090565b60095481565b600660009054906101000a900473ffffffffffffffffffffffffffffffffffffffff1681565b610fac611297565b3373ffffffffffffffffffffffffffffffffffffffff166008600083815260200190815260200160002060020160009054906101000a900473ffffffffffffffffffffffffffffffffffffffff1673ffffffffffffffffffffffffffffffffffffffff1614611050576040517f08c379a000000000000000000000000000000000000000000000000000000000815260040161104790611f09565b60405180910390fd5b60086000828152602001908152602001600020600080820160006101000a81549073ffffffffffffffffffffffffffffffffffffffff021916905560018201600090556002820160006101000a81549073ffffffffffffffffffffffffffffffffffffffff0219169055600382016000905560048201600090555050807fc0c55a6edead4433d18cb1e287a0a20a2fa003a6f483bc9823d2e504d70d1c6760405160405180910390a26111016112e6565b50565b60055481565b60086020528060005260406000206000915090508060000160009054906101000a900473ffffffffffffffffffffffffffffffffffffffff16908060010154908060020160009054906101000a900473ffffffffffffffffffffffffffffffffffffffff16908060030154908060040154905085565b6003818154811061119057600080fd5b906000526020600020016000915090505481565b600760009054906101000a900473ffffffffffffffffffffffffffffffffffffffff1681565b6111d26112ef565b600073ffffffffffffffffffffffffffffffffffffffff168173ffffffffffffffffffffffffffffffffffffffff1603611241576040517f08c379a000000000000000000000000000000000000000000000000000000000815260040161123890611f9b565b60405180910390fd5b61124a816113d0565b50565b611255610d8b565b15611295576040517f08c379a000000000000000000000000000000000000000000000000000000000815260040161128c90612007565b60405180910390fd5b565b6002600154036112dc576040517f08c379a00000000000000000000000000000000000000000000000000000000081526004016112d390612073565b60405180910390fd5b6002600181905550565b60018081905550565b6112f76114f7565b73ffffffffffffffffffffffffffffffffffffffff16611315610f4f565b73ffffffffffffffffffffffffffffffffffffffff161461136b576040517f08c379a0000000000000000000000000000000000000000000000000000000008152600401611362906120df565b60405180910390fd5b565b6113756114ff565b6000600260006101000a81548160ff0219169083151502179055507f5db9ee0a495bf2e6ff9c91a7834c1ba4fdd244a5e8aa4e537bd38aeae4b073aa6113b96114f7565b6040516113c69190611764565b60405180910390a1565b60008060009054906101000a900473ffffffffffffffffffffffffffffffffffffffff169050816000806101000a81548173ffffffffffffffffffffffffffffffffffffffff021916908373ffffffffffffffffffffffffffffffffffffffff1602179055508173ffffffffffffffffffffffffffffffffffffffff168173ffffffffffffffffffffffffffffffffffffffff167f8be0079c531659141344cd1fd0a4f28419497f9722a3daafe3b4186f6b6457e060405160405180910390a35050565b61149c61124d565b6001600260006101000a81548160ff0219169083151502179055507f62e78cea01bee320cd4e420270b5ea74000d11b0c9f74754ebdbfc544b05a2586114e06114f7565b6040516114ed9190611764565b60405180910390a1565b600033905090565b611507610d8b565b611546576040517f08c379a000000000000000000000000000000000000000000000000000000000815260040161153d9061214b565b60405180910390fd5b565b600080fd5b600073ffffffffffffffffffffffffffffffffffffffff82169050919050565b60006115788261154d565b9050919050565b6115888161156d565b811461159357600080fd5b50565b6000813590506115a58161157f565b92915050565b6000819050919050565b6115be816115ab565b81146115c957600080fd5b50565b6000813590506115db816115b5565b92915050565b600080600080608085870312156115fb576115fa611548565b5b600061160987828801611596565b945050602061161a878288016115cc565b935050604061162b878288016115cc565b925050606061163c878288016115cc565b91505092959194509250565b60006020828403121561165e5761165d611548565b5b600061166c848285016115cc565b91505092915050565b60008115159050919050565b61168a81611675565b82525050565b60006020820190506116a56000830184611681565b92915050565b600080604083850312156116c2576116c1611548565b5b60006116d085828601611596565b92505060206116e185828601611596565b9150509250929050565b6000806040838503121561170257611701611548565b5b6000611710858286016115cc565b9250506020611721858286016115cc565b9150509250929050565b611734816115ab565b82525050565b600060208201905061174f600083018461172b565b92915050565b61175e8161156d565b82525050565b60006020820190506117796000830184611755565b92915050565b600060a0820190506117946000830188611755565b6117a1602083018761172b565b6117ae6040830186611755565b6117bb606083018561172b565b6117c8608083018461172b565b9695505050505050565b6000602082840312156117e8576117e7611548565b5b60006117f684828501611596565b91505092915050565b600082825260208201905092915050565b7f5072696365206d7573742062652067726561746572207468616e207a65726f2e600082015250565b60006118466020836117ff565b915061185182611810565b602082019050919050565b6000602082019050818103600083015261187581611839565b9050919050565b7f446561646c696e65206d7573742062652067726561746572207468616e207a6560008201527f726f2e0000000000000000000000000000000000000000000000000000000000602082015250565b60006118d86023836117ff565b91506118e38261187c565b604082019050919050565b60006020820190508181036000830152611907816118cb565b9050919050565b60008151905061191d8161157f565b92915050565b60006020828403121561193957611938611548565b5b60006119478482850161190e565b91505092915050565b7f596f75206d757374206f776e20746865204e465420746f206c6973742069742e600082015250565b60006119866020836117ff565b915061199182611950565b602082019050919050565b600060208201905081810360008301526119b581611979565b9050919050565b7f4e487b7100000000000000000000000000000000000000000000000000000000600052601160045260246000fd5b60006119f6826115ab565b9150611a01836115ab565b9250828201905080821115611a1957611a186119bc565b5b92915050565b6000606082019050611a34600083018661172b565b611a41602083018561172b565b611a4e604083018461172b565b949350505050565b6000611a61826115ab565b91507fffffffffffffffffffffffffffffffffffffffffffffffffffffffffffffffff8203611a9357611a926119bc565b5b600182019050919050565b7f53656e742076616c7565206d7573742062652067726561746572207468616e2060008201527f7a65726f2e000000000000000000000000000000000000000000000000000000602082015250565b6000611afa6025836117ff565b9150611b0582611a9e565b604082019050919050565b60006020820190508181036000830152611b2981611aed565b9050919050565b7f4c697374696e6720646f6573206e6f742065786973742e000000000000000000600082015250565b6000611b666017836117ff565b9150611b7182611b30565b602082019050919050565b60006020820190508181036000830152611b9581611b59565b9050919050565b7f54686973206c697374696e672068617320657870697265642e00000000000000600082015250565b6000611bd26019836117ff565b9150611bdd82611b9c565b602082019050919050565b60006020820190508181036000830152611c0181611bc5565b9050919050565b7f53656e742076616c7565206d75737420626520657175616c20746f207468652060008201527f6c697374696e672070726963652e000000000000000000000000000000000000602082015250565b6000611c64602e836117ff565b9150611c6f82611c08565b604082019050919050565b60006020820190508181036000830152611c9381611c57565b9050919050565b6000611ca5826115ab565b9150611cb0836115ab565b9250817fffffffffffffffffffffffffffffffffffffffffffffffffffffffffffffffff0483118215151615611ce957611ce86119bc565b5b828202905092915050565b7f4e487b7100000000000000000000000000000000000000000000000000000000600052601260045260246000fd5b6000611d2e826115ab565b9150611d39836115ab565b925082611d4957611d48611cf4565b5b828204905092915050565b6000611d5f826115ab565b9150611d6a836115ab565b9250828203905081811115611d8257611d816119bc565b5b92915050565b7f53656c6c6572206e6f206c6f6e676572206f776e7320746865204e46542e0000600082015250565b6000611dbe601e836117ff565b9150611dc982611d88565b602082019050919050565b60006020820190508181036000830152611ded81611db1565b9050919050565b6000606082019050611e096000830186611755565b611e166020830185611755565b611e23604083018461172b565b949350505050565b7f4164647265737365732063616e6e6f74206265207a65726f0000000000000000600082015250565b6000611e616018836117ff565b9150611e6c82611e2b565b602082019050919050565b60006020820190508181036000830152611e9081611e54565b9050919050565b7f596f7520617265206e6f74207468652073656c6c6572206f662074686973206c60008201527f697374696e672e00000000000000000000000000000000000000000000000000602082015250565b6000611ef36027836117ff565b9150611efe82611e97565b604082019050919050565b60006020820190508181036000830152611f2281611ee6565b9050919050565b7f4f776e61626c653a206e6577206f776e657220697320746865207a65726f206160008201527f6464726573730000000000000000000000000000000000000000000000000000602082015250565b6000611f856026836117ff565b9150611f9082611f29565b604082019050919050565b60006020820190508181036000830152611fb481611f78565b9050919050565b7f5061757361626c653a2070617573656400000000000000000000000000000000600082015250565b6000611ff16010836117ff565b9150611ffc82611fbb565b602082019050919050565b6000602082019050818103600083015261202081611fe4565b9050919050565b7f5265656e7472616e637947756172643a207265656e7472616e742063616c6c00600082015250565b600061205d601f836117ff565b915061206882612027565b602082019050919050565b6000602082019050818103600083015261208c81612050565b9050919050565b7f4f776e61626c653a2063616c6c6572206973206e6f7420746865206f776e6572600082015250565b60006120c96020836117ff565b91506120d482612093565b602082019050919050565b600060208201905081810360008301526120f8816120bc565b9050919050565b7f5061757361626c653a206e6f7420706175736564000000000000000000000000600082015250565b60006121356014836117ff565b9150612140826120ff565b602082019050919050565b6000602082019050818103600083015261216481612128565b905091905056fea26469706673582212201e726f3521cbc4a1e26634a7d412ad44aa07403cbe4b024e055205e98d9093c764736f6c63430008100033",
					"opcodes": "PUSH1 0x80 PUSH1 0x40 MSTORE PUSH1 0x1 PUSH1 0x9 SSTORE CALLVALUE DUP1 ISZERO PUSH3 0x16 JUMPI PUSH1 0x0 DUP1 REVERT JUMPDEST POP PUSH1 0x40 MLOAD PUSH3 0x25DC CODESIZE SUB DUP1 PUSH3 0x25DC DUP4 CODECOPY DUP2 DUP2 ADD PUSH1 0x40 MSTORE DUP2 ADD SWAP1 PUSH3 0x3C SWAP2 SWAP1 PUSH3 0x336 JUMP JUMPDEST PUSH3 0x5C PUSH3 0x50 PUSH3 0x1C5 PUSH1 0x20 SHL PUSH1 0x20 SHR JUMP JUMPDEST PUSH3 0x1CD PUSH1 0x20 SHL PUSH1 0x20 SHR JUMP JUMPDEST PUSH1 0x1 DUP1 DUP2 SWAP1 SSTORE POP PUSH1 0x0 PUSH1 0x2 PUSH1 0x0 PUSH2 0x100 EXP DUP2 SLOAD DUP2 PUSH1 0xFF MUL NOT AND SWAP1 DUP4 ISZERO ISZERO MUL OR SWAP1 SSTORE POP PUSH1 0x0 PUSH20 0xFFFFFFFFFFFFFFFFFFFFFFFFFFFFFFFFFFFFFFFF AND DUP3 PUSH20 0xFFFFFFFFFFFFFFFFFFFFFFFFFFFFFFFFFFFFFFFF AND EQ ISZERO DUP1 ISZERO PUSH3 0xE9 JUMPI POP PUSH1 0x0 PUSH20 0xFFFFFFFFFFFFFFFFFFFFFFFFFFFFFFFFFFFFFFFF AND DUP2 PUSH20 0xFFFFFFFFFFFFFFFFFFFFFFFFFFFFFFFFFFFFFFFF AND EQ ISZERO JUMPDEST PUSH3 0x12B JUMPI PUSH1 0x40 MLOAD PUSH32 0x8C379A000000000000000000000000000000000000000000000000000000000 DUP2 MSTORE PUSH1 0x4 ADD PUSH3 0x122 SWAP1 PUSH3 0x409 JUMP JUMPDEST PUSH1 0x40 MLOAD DUP1 SWAP2 SUB SWAP1 REVERT JUMPDEST DUP4 PUSH1 0x4 DUP2 SWAP1 SSTORE POP DUP3 PUSH1 0x5 DUP2 SWAP1 SSTORE POP DUP2 PUSH1 0x6 PUSH1 0x0 PUSH2 0x100 EXP DUP2 SLOAD DUP2 PUSH20 0xFFFFFFFFFFFFFFFFFFFFFFFFFFFFFFFFFFFFFFFF MUL NOT AND SWAP1 DUP4 PUSH20 0xFFFFFFFFFFFFFFFFFFFFFFFFFFFFFFFFFFFFFFFF AND MUL OR SWAP1 SSTORE POP DUP1 PUSH1 0x7 PUSH1 0x0 PUSH2 0x100 EXP DUP2 SLOAD DUP2 PUSH20 0xFFFFFFFFFFFFFFFFFFFFFFFFFFFFFFFFFFFFFFFF MUL NOT AND SWAP1 DUP4 PUSH20 0xFFFFFFFFFFFFFFFFFFFFFFFFFFFFFFFFFFFFFFFF AND MUL OR SWAP1 SSTORE POP POP POP POP POP PUSH3 0x42B JUMP JUMPDEST PUSH1 0x0 CALLER SWAP1 POP SWAP1 JUMP JUMPDEST PUSH1 0x0 DUP1 PUSH1 0x0 SWAP1 SLOAD SWAP1 PUSH2 0x100 EXP SWAP1 DIV PUSH20 0xFFFFFFFFFFFFFFFFFFFFFFFFFFFFFFFFFFFFFFFF AND SWAP1 POP DUP2 PUSH1 0x0 DUP1 PUSH2 0x100 EXP DUP2 SLOAD DUP2 PUSH20 0xFFFFFFFFFFFFFFFFFFFFFFFFFFFFFFFFFFFFFFFF MUL NOT AND SWAP1 DUP4 PUSH20 0xFFFFFFFFFFFFFFFFFFFFFFFFFFFFFFFFFFFFFFFF AND MUL OR SWAP1 SSTORE POP DUP2 PUSH20 0xFFFFFFFFFFFFFFFFFFFFFFFFFFFFFFFFFFFFFFFF AND DUP2 PUSH20 0xFFFFFFFFFFFFFFFFFFFFFFFFFFFFFFFFFFFFFFFF AND PUSH32 0x8BE0079C531659141344CD1FD0A4F28419497F9722A3DAAFE3B4186F6B6457E0 PUSH1 0x40 MLOAD PUSH1 0x40 MLOAD DUP1 SWAP2 SUB SWAP1 LOG3 POP POP JUMP JUMPDEST PUSH1 0x0 DUP1 REVERT JUMPDEST PUSH1 0x0 DUP2 SWAP1 POP SWAP2 SWAP1 POP JUMP JUMPDEST PUSH3 0x2AB DUP2 PUSH3 0x296 JUMP JUMPDEST DUP2 EQ PUSH3 0x2B7 JUMPI PUSH1 0x0 DUP1 REVERT JUMPDEST POP JUMP JUMPDEST PUSH1 0x0 DUP2 MLOAD SWAP1 POP PUSH3 0x2CB DUP2 PUSH3 0x2A0 JUMP JUMPDEST SWAP3 SWAP2 POP POP JUMP JUMPDEST PUSH1 0x0 PUSH20 0xFFFFFFFFFFFFFFFFFFFFFFFFFFFFFFFFFFFFFFFF DUP3 AND SWAP1 POP SWAP2 SWAP1 POP JUMP JUMPDEST PUSH1 0x0 PUSH3 0x2FE DUP3 PUSH3 0x2D1 JUMP JUMPDEST SWAP1 POP SWAP2 SWAP1 POP JUMP JUMPDEST PUSH3 0x310 DUP2 PUSH3 0x2F1 JUMP JUMPDEST DUP2 EQ PUSH3 0x31C JUMPI PUSH1 0x0 DUP1 REVERT JUMPDEST POP JUMP JUMPDEST PUSH1 0x0 DUP2 MLOAD SWAP1 POP PUSH3 0x330 DUP2 PUSH3 0x305 JUMP JUMPDEST SWAP3 SWAP2 POP POP JUMP JUMPDEST PUSH1 0x0 DUP1 PUSH1 0x0 DUP1 PUSH1 0x80 DUP6 DUP8 SUB SLT ISZERO PUSH3 0x353 JUMPI PUSH3 0x352 PUSH3 0x291 JUMP JUMPDEST JUMPDEST PUSH1 0x0 PUSH3 0x363 DUP8 DUP3 DUP9 ADD PUSH3 0x2BA JUMP JUMPDEST SWAP5 POP POP PUSH1 0x20 PUSH3 0x376 DUP8 DUP3 DUP9 ADD PUSH3 0x2BA JUMP JUMPDEST SWAP4 POP POP PUSH1 0x40 PUSH3 0x389 DUP8 DUP3 DUP9 ADD PUSH3 0x31F JUMP JUMPDEST SWAP3 POP POP PUSH1 0x60 PUSH3 0x39C DUP8 DUP3 DUP9 ADD PUSH3 0x31F JUMP JUMPDEST SWAP2 POP POP SWAP3 SWAP6 SWAP2 SWAP5 POP SWAP3 POP JUMP JUMPDEST PUSH1 0x0 DUP3 DUP3 MSTORE PUSH1 0x20 DUP3 ADD SWAP1 POP SWAP3 SWAP2 POP POP JUMP JUMPDEST PUSH32 0x4164647265737365732063616E6E6F74206265207A65726F0000000000000000 PUSH1 0x0 DUP3 ADD MSTORE POP JUMP JUMPDEST PUSH1 0x0 PUSH3 0x3F1 PUSH1 0x18 DUP4 PUSH3 0x3A8 JUMP JUMPDEST SWAP2 POP PUSH3 0x3FE DUP3 PUSH3 0x3B9 JUMP JUMPDEST PUSH1 0x20 DUP3 ADD SWAP1 POP SWAP2 SWAP1 POP JUMP JUMPDEST PUSH1 0x0 PUSH1 0x20 DUP3 ADD SWAP1 POP DUP2 DUP2 SUB PUSH1 0x0 DUP4 ADD MSTORE PUSH3 0x424 DUP2 PUSH3 0x3E2 JUMP JUMPDEST SWAP1 POP SWAP2 SWAP1 POP JUMP JUMPDEST PUSH2 0x21A1 DUP1 PUSH3 0x43B PUSH1 0x0 CODECOPY PUSH1 0x0 RETURN INVALID PUSH1 0x80 PUSH1 0x40 MSTORE PUSH1 0x4 CALLDATASIZE LT PUSH2 0x109 JUMPI PUSH1 0x0 CALLDATALOAD PUSH1 0xE0 SHR DUP1 PUSH4 0x8DA5CB5B GT PUSH2 0x95 JUMPI DUP1 PUSH4 0xCDD78CFC GT PUSH2 0x64 JUMPI DUP1 PUSH4 0xCDD78CFC EQ PUSH2 0x2EA JUMPI DUP1 PUSH4 0xDE74E57B EQ PUSH2 0x315 JUMPI DUP1 PUSH4 0xE3B6A1F6 EQ PUSH2 0x356 JUMPI DUP1 PUSH4 0xED14834F EQ PUSH2 0x393 JUMPI DUP1 PUSH4 0xF2FDE38B EQ PUSH2 0x3BE JUMPI PUSH2 0x109 JUMP JUMPDEST DUP1 PUSH4 0x8DA5CB5B EQ PUSH2 0x240 JUMPI DUP1 PUSH4 0xAACCF1EC EQ PUSH2 0x26B JUMPI DUP1 PUSH4 0xAD2F852A EQ PUSH2 0x296 JUMPI DUP1 PUSH4 0xCB917B9C EQ PUSH2 0x2C1 JUMPI PUSH2 0x109 JUMP JUMPDEST DUP1 PUSH4 0x5E4E8D65 GT PUSH2 0xDC JUMPI DUP1 PUSH4 0x5E4E8D65 EQ PUSH2 0x195 JUMPI DUP1 PUSH4 0x715018A6 EQ PUSH2 0x1BE JUMPI DUP1 PUSH4 0x78578BB3 EQ PUSH2 0x1D5 JUMPI DUP1 PUSH4 0x8456CB59 EQ PUSH2 0x1FE JUMPI DUP1 PUSH4 0x8A71BB2D EQ PUSH2 0x215 JUMPI PUSH2 0x109 JUMP JUMPDEST DUP1 PUSH4 0x3C44A5F0 EQ PUSH2 0x10E JUMPI DUP1 PUSH4 0x3F4BA83A EQ PUSH2 0x137 JUMPI DUP1 PUSH4 0x51ED8288 EQ PUSH2 0x14E JUMPI DUP1 PUSH4 0x5C975ABB EQ PUSH2 0x16A JUMPI JUMPDEST PUSH1 0x0 DUP1 REVERT JUMPDEST CALLVALUE DUP1 ISZERO PUSH2 0x11A JUMPI PUSH1 0x0 DUP1 REVERT JUMPDEST POP PUSH2 0x135 PUSH1 0x4 DUP1 CALLDATASIZE SUB DUP2 ADD SWAP1 PUSH2 0x130 SWAP2 SWAP1 PUSH2 0x15E1 JUMP JUMPDEST PUSH2 0x3E7 JUMP JUMPDEST STOP JUMPDEST CALLVALUE DUP1 ISZERO PUSH2 0x143 JUMPI PUSH1 0x0 DUP1 REVERT JUMPDEST POP PUSH2 0x14C PUSH2 0x754 JUMP JUMPDEST STOP JUMPDEST PUSH2 0x168 PUSH1 0x4 DUP1 CALLDATASIZE SUB DUP2 ADD SWAP1 PUSH2 0x163 SWAP2 SWAP1 PUSH2 0x1648 JUMP JUMPDEST PUSH2 0x776 JUMP JUMPDEST STOP JUMPDEST CALLVALUE DUP1 ISZERO PUSH2 0x176 JUMPI PUSH1 0x0 DUP1 REVERT JUMPDEST POP PUSH2 0x17F PUSH2 0xD8B JUMP JUMPDEST PUSH1 0x40 MLOAD PUSH2 0x18C SWAP2 SWAP1 PUSH2 0x1690 JUMP JUMPDEST PUSH1 0x40 MLOAD DUP1 SWAP2 SUB SWAP1 RETURN JUMPDEST CALLVALUE DUP1 ISZERO PUSH2 0x1A1 JUMPI PUSH1 0x0 DUP1 REVERT JUMPDEST POP PUSH2 0x1BC PUSH1 0x4 DUP1 CALLDATASIZE SUB DUP2 ADD SWAP1 PUSH2 0x1B7 SWAP2 SWAP1 PUSH2 0x16AB JUMP JUMPDEST PUSH2 0xDA2 JUMP JUMPDEST STOP JUMPDEST CALLVALUE DUP1 ISZERO PUSH2 0x1CA JUMPI PUSH1 0x0 DUP1 REVERT JUMPDEST POP PUSH2 0x1D3 PUSH2 0xEE9 JUMP JUMPDEST STOP JUMPDEST CALLVALUE DUP1 ISZERO PUSH2 0x1E1 JUMPI PUSH1 0x0 DUP1 REVERT JUMPDEST POP PUSH2 0x1FC PUSH1 0x4 DUP1 CALLDATASIZE SUB DUP2 ADD SWAP1 PUSH2 0x1F7 SWAP2 SWAP1 PUSH2 0x16EB JUMP JUMPDEST PUSH2 0xEFD JUMP JUMPDEST STOP JUMPDEST CALLVALUE DUP1 ISZERO PUSH2 0x20A JUMPI PUSH1 0x0 DUP1 REVERT JUMPDEST POP PUSH2 0x213 PUSH2 0xF27 JUMP JUMPDEST STOP JUMPDEST CALLVALUE DUP1 ISZERO PUSH2 0x221 JUMPI PUSH1 0x0 DUP1 REVERT JUMPDEST POP PUSH2 0x22A PUSH2 0xF49 JUMP JUMPDEST PUSH1 0x40 MLOAD PUSH2 0x237 SWAP2 SWAP1 PUSH2 0x173A JUMP JUMPDEST PUSH1 0x40 MLOAD DUP1 SWAP2 SUB SWAP1 RETURN JUMPDEST CALLVALUE DUP1 ISZERO PUSH2 0x24C JUMPI PUSH1 0x0 DUP1 REVERT JUMPDEST POP PUSH2 0x255 PUSH2 0xF4F JUMP JUMPDEST PUSH1 0x40 MLOAD PUSH2 0x262 SWAP2 SWAP1 PUSH2 0x1764 JUMP JUMPDEST PUSH1 0x40 MLOAD DUP1 SWAP2 SUB SWAP1 RETURN JUMPDEST CALLVALUE DUP1 ISZERO PUSH2 0x277 JUMPI PUSH1 0x0 DUP1 REVERT JUMPDEST POP PUSH2 0x280 PUSH2 0xF78 JUMP JUMPDEST PUSH1 0x40 MLOAD PUSH2 0x28D SWAP2 SWAP1 PUSH2 0x173A JUMP JUMPDEST PUSH1 0x40 MLOAD DUP1 SWAP2 SUB SWAP1 RETURN JUMPDEST CALLVALUE DUP1 ISZERO PUSH2 0x2A2 JUMPI PUSH1 0x0 DUP1 REVERT JUMPDEST POP PUSH2 0x2AB PUSH2 0xF7E JUMP JUMPDEST PUSH1 0x40 MLOAD PUSH2 0x2B8 SWAP2 SWAP1 PUSH2 0x1764 JUMP JUMPDEST PUSH1 0x40 MLOAD DUP1 SWAP2 SUB SWAP1 RETURN JUMPDEST CALLVALUE DUP1 ISZERO PUSH2 0x2CD JUMPI PUSH1 0x0 DUP1 REVERT JUMPDEST POP PUSH2 0x2E8 PUSH1 0x4 DUP1 CALLDATASIZE SUB DUP2 ADD SWAP1 PUSH2 0x2E3 SWAP2 SWAP1 PUSH2 0x1648 JUMP JUMPDEST PUSH2 0xFA4 JUMP JUMPDEST STOP JUMPDEST CALLVALUE DUP1 ISZERO PUSH2 0x2F6 JUMPI PUSH1 0x0 DUP1 REVERT JUMPDEST POP PUSH2 0x2FF PUSH2 0x1104 JUMP JUMPDEST PUSH1 0x40 MLOAD PUSH2 0x30C SWAP2 SWAP1 PUSH2 0x173A JUMP JUMPDEST PUSH1 0x40 MLOAD DUP1 SWAP2 SUB SWAP1 RETURN JUMPDEST CALLVALUE DUP1 ISZERO PUSH2 0x321 JUMPI PUSH1 0x0 DUP1 REVERT JUMPDEST POP PUSH2 0x33C PUSH1 0x4 DUP1 CALLDATASIZE SUB DUP2 ADD SWAP1 PUSH2 0x337 SWAP2 SWAP1 PUSH2 0x1648 JUMP JUMPDEST PUSH2 0x110A JUMP JUMPDEST PUSH1 0x40 MLOAD PUSH2 0x34D SWAP6 SWAP5 SWAP4 SWAP3 SWAP2 SWAP1 PUSH2 0x177F JUMP JUMPDEST PUSH1 0x40 MLOAD DUP1 SWAP2 SUB SWAP1 RETURN JUMPDEST CALLVALUE DUP1 ISZERO PUSH2 0x362 JUMPI PUSH1 0x0 DUP1 REVERT JUMPDEST POP PUSH2 0x37D PUSH1 0x4 DUP1 CALLDATASIZE SUB DUP2 ADD SWAP1 PUSH2 0x378 SWAP2 SWAP1 PUSH2 0x1648 JUMP JUMPDEST PUSH2 0x1180 JUMP JUMPDEST PUSH1 0x40 MLOAD PUSH2 0x38A SWAP2 SWAP1 PUSH2 0x173A JUMP JUMPDEST PUSH1 0x40 MLOAD DUP1 SWAP2 SUB SWAP1 RETURN JUMPDEST CALLVALUE DUP1 ISZERO PUSH2 0x39F JUMPI PUSH1 0x0 DUP1 REVERT JUMPDEST POP PUSH2 0x3A8 PUSH2 0x11A4 JUMP JUMPDEST PUSH1 0x40 MLOAD PUSH2 0x3B5 SWAP2 SWAP1 PUSH2 0x1764 JUMP JUMPDEST PUSH1 0x40 MLOAD DUP1 SWAP2 SUB SWAP1 RETURN JUMPDEST CALLVALUE DUP1 ISZERO PUSH2 0x3CA JUMPI PUSH1 0x0 DUP1 REVERT JUMPDEST POP PUSH2 0x3E5 PUSH1 0x4 DUP1 CALLDATASIZE SUB DUP2 ADD SWAP1 PUSH2 0x3E0 SWAP2 SWAP1 PUSH2 0x17D2 JUMP JUMPDEST PUSH2 0x11CA JUMP JUMPDEST STOP JUMPDEST PUSH2 0x3EF PUSH2 0x124D JUMP JUMPDEST PUSH2 0x3F7 PUSH2 0x1297 JUMP JUMPDEST PUSH1 0x0 DUP3 GT PUSH2 0x43A JUMPI PUSH1 0x40 MLOAD PUSH32 0x8C379A000000000000000000000000000000000000000000000000000000000 DUP2 MSTORE PUSH1 0x4 ADD PUSH2 0x431 SWAP1 PUSH2 0x185C JUMP JUMPDEST PUSH1 0x40 MLOAD DUP1 SWAP2 SUB SWAP1 REVERT JUMPDEST PUSH1 0x0 DUP2 GT PUSH2 0x47D JUMPI PUSH1 0x40 MLOAD PUSH32 0x8C379A000000000000000000000000000000000000000000000000000000000 DUP2 MSTORE PUSH1 0x4 ADD PUSH2 0x474 SWAP1 PUSH2 0x18EE JUMP JUMPDEST PUSH1 0x40 MLOAD DUP1 SWAP2 SUB SWAP1 REVERT JUMPDEST PUSH1 0x0 DUP5 SWAP1 POP CALLER PUSH20 0xFFFFFFFFFFFFFFFFFFFFFFFFFFFFFFFFFFFFFFFF AND DUP2 PUSH20 0xFFFFFFFFFFFFFFFFFFFFFFFFFFFFFFFFFFFFFFFF AND PUSH4 0x6352211E DUP7 PUSH1 0x40 MLOAD DUP3 PUSH4 0xFFFFFFFF AND PUSH1 0xE0 SHL DUP2 MSTORE PUSH1 0x4 ADD PUSH2 0x4D2 SWAP2 SWAP1 PUSH2 0x173A JUMP JUMPDEST PUSH1 0x20 PUSH1 0x40 MLOAD DUP1 DUP4 SUB DUP2 DUP7 GAS STATICCALL ISZERO DUP1 ISZERO PUSH2 0x4EF JUMPI RETURNDATASIZE PUSH1 0x0 DUP1 RETURNDATACOPY RETURNDATASIZE PUSH1 0x0 REVERT JUMPDEST POP POP POP POP PUSH1 0x40 MLOAD RETURNDATASIZE PUSH1 0x1F NOT PUSH1 0x1F DUP3 ADD AND DUP3 ADD DUP1 PUSH1 0x40 MSTORE POP DUP2 ADD SWAP1 PUSH2 0x513 SWAP2 SWAP1 PUSH2 0x1923 JUMP JUMPDEST PUSH20 0xFFFFFFFFFFFFFFFFFFFFFFFFFFFFFFFFFFFFFFFF AND EQ PUSH2 0x569 JUMPI PUSH1 0x40 MLOAD PUSH32 0x8C379A000000000000000000000000000000000000000000000000000000000 DUP2 MSTORE PUSH1 0x4 ADD PUSH2 0x560 SWAP1 PUSH2 0x199C JUMP JUMPDEST PUSH1 0x40 MLOAD DUP1 SWAP2 SUB SWAP1 REVERT JUMPDEST PUSH1 0x40 MLOAD DUP1 PUSH1 0xA0 ADD PUSH1 0x40 MSTORE DUP1 DUP7 PUSH20 0xFFFFFFFFFFFFFFFFFFFFFFFFFFFFFFFFFFFFFFFF AND DUP2 MSTORE PUSH1 0x20 ADD DUP6 DUP2 MSTORE PUSH1 0x20 ADD CALLER PUSH20 0xFFFFFFFFFFFFFFFFFFFFFFFFFFFFFFFFFFFFFFFF AND DUP2 MSTORE PUSH1 0x20 ADD DUP5 DUP2 MSTORE PUSH1 0x20 ADD DUP4 TIMESTAMP PUSH2 0x5C4 SWAP2 SWAP1 PUSH2 0x19EB JUMP JUMPDEST DUP2 MSTORE POP PUSH1 0x8 PUSH1 0x0 PUSH1 0x9 SLOAD DUP2 MSTORE PUSH1 0x20 ADD SWAP1 DUP2 MSTORE PUSH1 0x20 ADD PUSH1 0x0 KECCAK256 PUSH1 0x0 DUP3 ADD MLOAD DUP2 PUSH1 0x0 ADD PUSH1 0x0 PUSH2 0x100 EXP DUP2 SLOAD DUP2 PUSH20 0xFFFFFFFFFFFFFFFFFFFFFFFFFFFFFFFFFFFFFFFF MUL NOT AND SWAP1 DUP4 PUSH20 0xFFFFFFFFFFFFFFFFFFFFFFFFFFFFFFFFFFFFFFFF AND MUL OR SWAP1 SSTORE POP PUSH1 0x20 DUP3 ADD MLOAD DUP2 PUSH1 0x1 ADD SSTORE PUSH1 0x40 DUP3 ADD MLOAD DUP2 PUSH1 0x2 ADD PUSH1 0x0 PUSH2 0x100 EXP DUP2 SLOAD DUP2 PUSH20 0xFFFFFFFFFFFFFFFFFFFFFFFFFFFFFFFFFFFFFFFF MUL NOT AND SWAP1 DUP4 PUSH20 0xFFFFFFFFFFFFFFFFFFFFFFFFFFFFFFFFFFFFFFFF AND MUL OR SWAP1 SSTORE POP PUSH1 0x60 DUP3 ADD MLOAD DUP2 PUSH1 0x3 ADD SSTORE PUSH1 0x80 DUP3 ADD MLOAD DUP2 PUSH1 0x4 ADD SSTORE SWAP1 POP POP PUSH1 0x3 PUSH1 0x9 SLOAD SWAP1 DUP1 PUSH1 0x1 DUP2 SLOAD ADD DUP1 DUP3 SSTORE DUP1 SWAP2 POP POP PUSH1 0x1 SWAP1 SUB SWAP1 PUSH1 0x0 MSTORE PUSH1 0x20 PUSH1 0x0 KECCAK256 ADD PUSH1 0x0 SWAP1 SWAP2 SWAP1 SWAP2 SWAP1 SWAP2 POP SSTORE DUP5 PUSH20 0xFFFFFFFFFFFFFFFFFFFFFFFFFFFFFFFFFFFFFFFF AND CALLER PUSH20 0xFFFFFFFFFFFFFFFFFFFFFFFFFFFFFFFFFFFFFFFF AND PUSH1 0x9 SLOAD PUSH32 0xF33C76FEC15A03B2E414DF8C9DCE93F5B05F8672742E0F1EB558B2161162DFCB DUP8 DUP8 DUP8 TIMESTAMP PUSH2 0x716 SWAP2 SWAP1 PUSH2 0x19EB JUMP JUMPDEST PUSH1 0x40 MLOAD PUSH2 0x725 SWAP4 SWAP3 SWAP2 SWAP1 PUSH2 0x1A1F JUMP JUMPDEST PUSH1 0x40 MLOAD DUP1 SWAP2 SUB SWAP1 LOG4 PUSH1 0x9 PUSH1 0x0 DUP2 SLOAD DUP1 SWAP3 SWAP2 SWAP1 PUSH2 0x740 SWAP1 PUSH2 0x1A56 JUMP JUMPDEST SWAP2 SWAP1 POP SSTORE POP POP PUSH2 0x74E PUSH2 0x12E6 JUMP JUMPDEST POP POP POP POP JUMP JUMPDEST PUSH2 0x75C PUSH2 0x12EF JUMP JUMPDEST PUSH2 0x764 PUSH2 0x1297 JUMP JUMPDEST PUSH2 0x76C PUSH2 0x136D JUMP JUMPDEST PUSH2 0x774 PUSH2 0x12E6 JUMP JUMPDEST JUMP JUMPDEST PUSH2 0x77E PUSH2 0x124D JUMP JUMPDEST PUSH2 0x786 PUSH2 0x1297 JUMP JUMPDEST PUSH1 0x0 CALLVALUE GT PUSH2 0x7C9 JUMPI PUSH1 0x40 MLOAD PUSH32 0x8C379A000000000000000000000000000000000000000000000000000000000 DUP2 MSTORE PUSH1 0x4 ADD PUSH2 0x7C0 SWAP1 PUSH2 0x1B10 JUMP JUMPDEST PUSH1 0x40 MLOAD DUP1 SWAP2 SUB SWAP1 REVERT JUMPDEST PUSH1 0x0 PUSH1 0x8 PUSH1 0x0 DUP4 DUP2 MSTORE PUSH1 0x20 ADD SWAP1 DUP2 MSTORE PUSH1 0x20 ADD PUSH1 0x0 KECCAK256 SWAP1 POP PUSH1 0x0 PUSH20 0xFFFFFFFFFFFFFFFFFFFFFFFFFFFFFFFFFFFFFFFF AND DUP2 PUSH1 0x2 ADD PUSH1 0x0 SWAP1 SLOAD SWAP1 PUSH2 0x100 EXP SWAP1 DIV PUSH20 0xFFFFFFFFFFFFFFFFFFFFFFFFFFFFFFFFFFFFFFFF AND PUSH20 0xFFFFFFFFFFFFFFFFFFFFFFFFFFFFFFFFFFFFFFFF AND SUB PUSH2 0x873 JUMPI PUSH1 0x40 MLOAD PUSH32 0x8C379A000000000000000000000000000000000000000000000000000000000 DUP2 MSTORE PUSH1 0x4 ADD PUSH2 0x86A SWAP1 PUSH2 0x1B7C JUMP JUMPDEST PUSH1 0x40 MLOAD DUP1 SWAP2 SUB SWAP1 REVERT JUMPDEST DUP1 PUSH1 0x4 ADD SLOAD TIMESTAMP GT ISZERO PUSH2 0x8BA JUMPI PUSH1 0x40 MLOAD PUSH32 0x8C379A000000000000000000000000000000000000000000000000000000000 DUP2 MSTORE PUSH1 0x4 ADD PUSH2 0x8B1 SWAP1 PUSH2 0x1BE8 JUMP JUMPDEST PUSH1 0x40 MLOAD DUP1 SWAP2 SUB SWAP1 REVERT JUMPDEST DUP1 PUSH1 0x3 ADD SLOAD CALLVALUE EQ PUSH2 0x900 JUMPI PUSH1 0x40 MLOAD PUSH32 0x8C379A000000000000000000000000000000000000000000000000000000000 DUP2 MSTORE PUSH1 0x4 ADD PUSH2 0x8F7 SWAP1 PUSH2 0x1C7A JUMP JUMPDEST PUSH1 0x40 MLOAD DUP1 SWAP2 SUB SWAP1 REVERT JUMPDEST PUSH1 0x0 PUSH2 0x2710 PUSH1 0x4 SLOAD DUP4 PUSH1 0x3 ADD SLOAD PUSH2 0x917 SWAP2 SWAP1 PUSH2 0x1C9A JUMP JUMPDEST PUSH2 0x921 SWAP2 SWAP1 PUSH2 0x1D23 JUMP JUMPDEST SWAP1 POP PUSH1 0x0 PUSH2 0x2710 PUSH1 0x5 SLOAD DUP5 PUSH1 0x3 ADD SLOAD PUSH2 0x93A SWAP2 SWAP1 PUSH2 0x1C9A JUMP JUMPDEST PUSH2 0x944 SWAP2 SWAP1 PUSH2 0x1D23 JUMP JUMPDEST SWAP1 POP PUSH1 0x0 DUP2 DUP4 DUP6 PUSH1 0x3 ADD SLOAD PUSH2 0x959 SWAP2 SWAP1 PUSH2 0x1D54 JUMP JUMPDEST PUSH2 0x963 SWAP2 SWAP1 PUSH2 0x1D54 JUMP JUMPDEST SWAP1 POP PUSH1 0x0 DUP5 PUSH1 0x0 ADD PUSH1 0x0 SWAP1 SLOAD SWAP1 PUSH2 0x100 EXP SWAP1 DIV PUSH20 0xFFFFFFFFFFFFFFFFFFFFFFFFFFFFFFFFFFFFFFFF AND SWAP1 POP DUP5 PUSH1 0x2 ADD PUSH1 0x0 SWAP1 SLOAD SWAP1 PUSH2 0x100 EXP SWAP1 DIV PUSH20 0xFFFFFFFFFFFFFFFFFFFFFFFFFFFFFFFFFFFFFFFF AND PUSH20 0xFFFFFFFFFFFFFFFFFFFFFFFFFFFFFFFFFFFFFFFF AND DUP2 PUSH20 0xFFFFFFFFFFFFFFFFFFFFFFFFFFFFFFFFFFFFFFFF AND PUSH4 0x6352211E DUP8 PUSH1 0x1 ADD SLOAD PUSH1 0x40 MLOAD DUP3 PUSH4 0xFFFFFFFF AND PUSH1 0xE0 SHL DUP2 MSTORE PUSH1 0x4 ADD PUSH2 0xA06 SWAP2 SWAP1 PUSH2 0x173A JUMP JUMPDEST PUSH1 0x20 PUSH1 0x40 MLOAD DUP1 DUP4 SUB DUP2 DUP7 GAS STATICCALL ISZERO DUP1 ISZERO PUSH2 0xA23 JUMPI RETURNDATASIZE PUSH1 0x0 DUP1 RETURNDATACOPY RETURNDATASIZE PUSH1 0x0 REVERT JUMPDEST POP POP POP POP PUSH1 0x40 MLOAD RETURNDATASIZE PUSH1 0x1F NOT PUSH1 0x1F DUP3 ADD AND DUP3 ADD DUP1 PUSH1 0x40 MSTORE POP DUP2 ADD SWAP1 PUSH2 0xA47 SWAP2 SWAP1 PUSH2 0x1923 JUMP JUMPDEST PUSH20 0xFFFFFFFFFFFFFFFFFFFFFFFFFFFFFFFFFFFFFFFF AND EQ PUSH2 0xA9D JUMPI PUSH1 0x40 MLOAD PUSH32 0x8C379A000000000000000000000000000000000000000000000000000000000 DUP2 MSTORE PUSH1 0x4 ADD PUSH2 0xA94 SWAP1 PUSH2 0x1DD4 JUMP JUMPDEST PUSH1 0x40 MLOAD DUP1 SWAP2 SUB SWAP1 REVERT JUMPDEST DUP1 PUSH20 0xFFFFFFFFFFFFFFFFFFFFFFFFFFFFFFFFFFFFFFFF AND PUSH4 0x42842E0E DUP7 PUSH1 0x2 ADD PUSH1 0x0 SWAP1 SLOAD SWAP1 PUSH2 0x100 EXP SWAP1 DIV PUSH20 0xFFFFFFFFFFFFFFFFFFFFFFFFFFFFFFFFFFFFFFFF AND CALLER DUP9 PUSH1 0x1 ADD SLOAD PUSH1 0x40 MLOAD DUP5 PUSH4 0xFFFFFFFF AND PUSH1 0xE0 SHL DUP2 MSTORE PUSH1 0x4 ADD PUSH2 0xB02 SWAP4 SWAP3 SWAP2 SWAP1 PUSH2 0x1DF4 JUMP JUMPDEST PUSH1 0x0 PUSH1 0x40 MLOAD DUP1 DUP4 SUB DUP2 PUSH1 0x0 DUP8 DUP1 EXTCODESIZE ISZERO DUP1 ISZERO PUSH2 0xB1C JUMPI PUSH1 0x0 DUP1 REVERT JUMPDEST POP GAS CALL ISZERO DUP1 ISZERO PUSH2 0xB30 JUMPI RETURNDATASIZE PUSH1 0x0 DUP1 RETURNDATACOPY RETURNDATASIZE PUSH1 0x0 REVERT JUMPDEST POP POP POP POP DUP5 PUSH1 0x2 ADD PUSH1 0x0 SWAP1 SLOAD SWAP1 PUSH2 0x100 EXP SWAP1 DIV PUSH20 0xFFFFFFFFFFFFFFFFFFFFFFFFFFFFFFFFFFFFFFFF AND PUSH20 0xFFFFFFFFFFFFFFFFFFFFFFFFFFFFFFFFFFFFFFFF AND PUSH2 0x8FC DUP4 SWAP1 DUP2 ISZERO MUL SWAP1 PUSH1 0x40 MLOAD PUSH1 0x0 PUSH1 0x40 MLOAD DUP1 DUP4 SUB DUP2 DUP6 DUP9 DUP9 CALL SWAP4 POP POP POP POP ISZERO DUP1 ISZERO PUSH2 0xB9E JUMPI RETURNDATASIZE PUSH1 0x0 DUP1 RETURNDATACOPY RETURNDATASIZE PUSH1 0x0 REVERT JUMPDEST POP PUSH1 0x6 PUSH1 0x0 SWAP1 SLOAD SWAP1 PUSH2 0x100 EXP SWAP1 DIV PUSH20 0xFFFFFFFFFFFFFFFFFFFFFFFFFFFFFFFFFFFFFFFF AND PUSH20 0xFFFFFFFFFFFFFFFFFFFFFFFFFFFFFFFFFFFFFFFF AND PUSH2 0x8FC DUP6 SWAP1 DUP2 ISZERO MUL SWAP1 PUSH1 0x40 MLOAD PUSH1 0x0 PUSH1 0x40 MLOAD DUP1 DUP4 SUB DUP2 DUP6 DUP9 DUP9 CALL SWAP4 POP POP POP POP ISZERO DUP1 ISZERO PUSH2 0xC07 JUMPI RETURNDATASIZE PUSH1 0x0 DUP1 RETURNDATACOPY RETURNDATASIZE PUSH1 0x0 REVERT JUMPDEST POP PUSH1 0x7 PUSH1 0x0 SWAP1 SLOAD SWAP1 PUSH2 0x100 EXP SWAP1 DIV PUSH20 0xFFFFFFFFFFFFFFFFFFFFFFFFFFFFFFFFFFFFFFFF AND PUSH20 0xFFFFFFFFFFFFFFFFFFFFFFFFFFFFFFFFFFFFFFFF AND PUSH2 0x8FC DUP5 SWAP1 DUP2 ISZERO MUL SWAP1 PUSH1 0x40 MLOAD PUSH1 0x0 PUSH1 0x40 MLOAD DUP1 DUP4 SUB DUP2 DUP6 DUP9 DUP9 CALL SWAP4 POP POP POP POP ISZERO DUP1 ISZERO PUSH2 0xC70 JUMPI RETURNDATASIZE PUSH1 0x0 DUP1 RETURNDATACOPY RETURNDATASIZE PUSH1 0x0 REVERT JUMPDEST POP CALLER PUSH20 0xFFFFFFFFFFFFFFFFFFFFFFFFFFFFFFFFFFFFFFFF AND DUP6 PUSH1 0x2 ADD PUSH1 0x0 SWAP1 SLOAD SWAP1 PUSH2 0x100 EXP SWAP1 DIV PUSH20 0xFFFFFFFFFFFFFFFFFFFFFFFFFFFFFFFFFFFFFFFF AND PUSH20 0xFFFFFFFFFFFFFFFFFFFFFFFFFFFFFFFFFFFFFFFF AND DUP8 PUSH32 0x8562EB94748E30BB0071E932744CE902B460C683474FCB3BFD567FFA16B1AFB2 DUP9 PUSH1 0x3 ADD SLOAD PUSH1 0x40 MLOAD PUSH2 0xCF7 SWAP2 SWAP1 PUSH2 0x173A JUMP JUMPDEST PUSH1 0x40 MLOAD DUP1 SWAP2 SUB SWAP1 LOG4 PUSH1 0x8 PUSH1 0x0 DUP8 DUP2 MSTORE PUSH1 0x20 ADD SWAP1 DUP2 MSTORE PUSH1 0x20 ADD PUSH1 0x0 KECCAK256 PUSH1 0x0 DUP1 DUP3 ADD PUSH1 0x0 PUSH2 0x100 EXP DUP2 SLOAD SWAP1 PUSH20 0xFFFFFFFFFFFFFFFFFFFFFFFFFFFFFFFFFFFFFFFF MUL NOT AND SWAP1 SSTORE PUSH1 0x1 DUP3 ADD PUSH1 0x0 SWAP1 SSTORE PUSH1 0x2 DUP3 ADD PUSH1 0x0 PUSH2 0x100 EXP DUP2 SLOAD SWAP1 PUSH20 0xFFFFFFFFFFFFFFFFFFFFFFFFFFFFFFFFFFFFFFFF MUL NOT AND SWAP1 SSTORE PUSH1 0x3 DUP3 ADD PUSH1 0x0 SWAP1 SSTORE PUSH1 0x4 DUP3 ADD PUSH1 0x0 SWAP1 SSTORE POP POP POP POP POP POP POP PUSH2 0xD88 PUSH2 0x12E6 JUMP JUMPDEST POP JUMP JUMPDEST PUSH1 0x0 PUSH1 0x2 PUSH1 0x0 SWAP1 SLOAD SWAP1 PUSH2 0x100 EXP SWAP1 DIV PUSH1 0xFF AND SWAP1 POP SWAP1 JUMP JUMPDEST PUSH2 0xDAA PUSH2 0x12EF JUMP JUMPDEST PUSH2 0xDB2 PUSH2 0x1297 JUMP JUMPDEST PUSH1 0x0 PUSH20 0xFFFFFFFFFFFFFFFFFFFFFFFFFFFFFFFFFFFFFFFF AND DUP3 PUSH20 0xFFFFFFFFFFFFFFFFFFFFFFFFFFFFFFFFFFFFFFFF AND EQ ISZERO DUP1 ISZERO PUSH2 0xE1C JUMPI POP PUSH1 0x0 PUSH20 0xFFFFFFFFFFFFFFFFFFFFFFFFFFFFFFFFFFFFFFFF AND DUP2 PUSH20 0xFFFFFFFFFFFFFFFFFFFFFFFFFFFFFFFFFFFFFFFF AND EQ ISZERO JUMPDEST PUSH2 0xE5B JUMPI PUSH1 0x40 MLOAD PUSH32 0x8C379A000000000000000000000000000000000000000000000000000000000 DUP2 MSTORE PUSH1 0x4 ADD PUSH2 0xE52 SWAP1 PUSH2 0x1E77 JUMP JUMPDEST PUSH1 0x40 MLOAD DUP1 SWAP2 SUB SWAP1 REVERT JUMPDEST DUP2 PUSH1 0x6 PUSH1 0x0 PUSH2 0x100 EXP DUP2 SLOAD DUP2 PUSH20 0xFFFFFFFFFFFFFFFFFFFFFFFFFFFFFFFFFFFFFFFF MUL NOT AND SWAP1 DUP4 PUSH20 0xFFFFFFFFFFFFFFFFFFFFFFFFFFFFFFFFFFFFFFFF AND MUL OR SWAP1 SSTORE POP DUP1 PUSH1 0x7 PUSH1 0x0 PUSH2 0x100 EXP DUP2 SLOAD DUP2 PUSH20 0xFFFFFFFFFFFFFFFFFFFFFFFFFFFFFFFFFFFFFFFF MUL NOT AND SWAP1 DUP4 PUSH20 0xFFFFFFFFFFFFFFFFFFFFFFFFFFFFFFFFFFFFFFFF AND MUL OR SWAP1 SSTORE POP PUSH2 0xEE5 PUSH2 0x12E6 JUMP JUMPDEST POP POP JUMP JUMPDEST PUSH2 0xEF1 PUSH2 0x12EF JUMP JUMPDEST PUSH2 0xEFB PUSH1 0x0 PUSH2 0x13D0 JUMP JUMPDEST JUMP JUMPDEST PUSH2 0xF05 PUSH2 0x12EF JUMP JUMPDEST PUSH2 0xF0D PUSH2 0x1297 JUMP JUMPDEST DUP2 PUSH1 0x4 DUP2 SWAP1 SSTORE POP DUP1 PUSH1 0x5 DUP2 SWAP1 SSTORE POP PUSH2 0xF23 PUSH2 0x12E6 JUMP JUMPDEST POP POP JUMP JUMPDEST PUSH2 0xF2F PUSH2 0x12EF JUMP JUMPDEST PUSH2 0xF37 PUSH2 0x1297 JUMP JUMPDEST PUSH2 0xF3F PUSH2 0x1494 JUMP JUMPDEST PUSH2 0xF47 PUSH2 0x12E6 JUMP JUMPDEST JUMP JUMPDEST PUSH1 0x4 SLOAD DUP2 JUMP JUMPDEST PUSH1 0x0 DUP1 PUSH1 0x0 SWAP1 SLOAD SWAP1 PUSH2 0x100 EXP SWAP1 DIV PUSH20 0xFFFFFFFFFFFFFFFFFFFFFFFFFFFFFFFFFFFFFFFF AND SWAP1 POP SWAP1 JUMP JUMPDEST PUSH1 0x9 SLOAD DUP2 JUMP JUMPDEST PUSH1 0x6 PUSH1 0x0 SWAP1 SLOAD SWAP1 PUSH2 0x100 EXP SWAP1 DIV PUSH20 0xFFFFFFFFFFFFFFFFFFFFFFFFFFFFFFFFFFFFFFFF AND DUP2 JUMP JUMPDEST PUSH2 0xFAC PUSH2 0x1297 JUMP JUMPDEST CALLER PUSH20 0xFFFFFFFFFFFFFFFFFFFFFFFFFFFFFFFFFFFFFFFF AND PUSH1 0x8 PUSH1 0x0 DUP4 DUP2 MSTORE PUSH1 0x20 ADD SWAP1 DUP2 MSTORE PUSH1 0x20 ADD PUSH1 0x0 KECCAK256 PUSH1 0x2 ADD PUSH1 0x0 SWAP1 SLOAD SWAP1 PUSH2 0x100 EXP SWAP1 DIV PUSH20 0xFFFFFFFFFFFFFFFFFFFFFFFFFFFFFFFFFFFFFFFF AND PUSH20 0xFFFFFFFFFFFFFFFFFFFFFFFFFFFFFFFFFFFFFFFF AND EQ PUSH2 0x1050 JUMPI PUSH1 0x40 MLOAD PUSH32 0x8C379A000000000000000000000000000000000000000000000000000000000 DUP2 MSTORE PUSH1 0x4 ADD PUSH2 0x1047 SWAP1 PUSH2 0x1F09 JUMP JUMPDEST PUSH1 0x40 MLOAD DUP1 SWAP2 SUB SWAP1 REVERT JUMPDEST PUSH1 0x8 PUSH1 0x0 DUP3 DUP2 MSTORE PUSH1 0x20 ADD SWAP1 DUP2 MSTORE PUSH1 0x20 ADD PUSH1 0x0 KECCAK256 PUSH1 0x0 DUP1 DUP3 ADD PUSH1 0x0 PUSH2 0x100 EXP DUP2 SLOAD SWAP1 PUSH20 0xFFFFFFFFFFFFFFFFFFFFFFFFFFFFFFFFFFFFFFFF MUL NOT AND SWAP1 SSTORE PUSH1 0x1 DUP3 ADD PUSH1 0x0 SWAP1 SSTORE PUSH1 0x2 DUP3 ADD PUSH1 0x0 PUSH2 0x100 EXP DUP2 SLOAD SWAP1 PUSH20 0xFFFFFFFFFFFFFFFFFFFFFFFFFFFFFFFFFFFFFFFF MUL NOT AND SWAP1 SSTORE PUSH1 0x3 DUP3 ADD PUSH1 0x0 SWAP1 SSTORE PUSH1 0x4 DUP3 ADD PUSH1 0x0 SWAP1 SSTORE POP POP DUP1 PUSH32 0xC0C55A6EDEAD4433D18CB1E287A0A20A2FA003A6F483BC9823D2E504D70D1C67 PUSH1 0x40 MLOAD PUSH1 0x40 MLOAD DUP1 SWAP2 SUB SWAP1 LOG2 PUSH2 0x1101 PUSH2 0x12E6 JUMP JUMPDEST POP JUMP JUMPDEST PUSH1 0x5 SLOAD DUP2 JUMP JUMPDEST PUSH1 0x8 PUSH1 0x20 MSTORE DUP1 PUSH1 0x0 MSTORE PUSH1 0x40 PUSH1 0x0 KECCAK256 PUSH1 0x0 SWAP2 POP SWAP1 POP DUP1 PUSH1 0x0 ADD PUSH1 0x0 SWAP1 SLOAD SWAP1 PUSH2 0x100 EXP SWAP1 DIV PUSH20 0xFFFFFFFFFFFFFFFFFFFFFFFFFFFFFFFFFFFFFFFF AND SWAP1 DUP1 PUSH1 0x1 ADD SLOAD SWAP1 DUP1 PUSH1 0x2 ADD PUSH1 0x0 SWAP1 SLOAD SWAP1 PUSH2 0x100 EXP SWAP1 DIV PUSH20 0xFFFFFFFFFFFFFFFFFFFFFFFFFFFFFFFFFFFFFFFF AND SWAP1 DUP1 PUSH1 0x3 ADD SLOAD SWAP1 DUP1 PUSH1 0x4 ADD SLOAD SWAP1 POP DUP6 JUMP JUMPDEST PUSH1 0x3 DUP2 DUP2 SLOAD DUP2 LT PUSH2 0x1190 JUMPI PUSH1 0x0 DUP1 REVERT JUMPDEST SWAP1 PUSH1 0x0 MSTORE PUSH1 0x20 PUSH1 0x0 KECCAK256 ADD PUSH1 0x0 SWAP2 POP SWAP1 POP SLOAD DUP2 JUMP JUMPDEST PUSH1 0x7 PUSH1 0x0 SWAP1 SLOAD SWAP1 PUSH2 0x100 EXP SWAP1 DIV PUSH20 0xFFFFFFFFFFFFFFFFFFFFFFFFFFFFFFFFFFFFFFFF AND DUP2 JUMP JUMPDEST PUSH2 0x11D2 PUSH2 0x12EF JUMP JUMPDEST PUSH1 0x0 PUSH20 0xFFFFFFFFFFFFFFFFFFFFFFFFFFFFFFFFFFFFFFFF AND DUP2 PUSH20 0xFFFFFFFFFFFFFFFFFFFFFFFFFFFFFFFFFFFFFFFF AND SUB PUSH2 0x1241 JUMPI PUSH1 0x40 MLOAD PUSH32 0x8C379A000000000000000000000000000000000000000000000000000000000 DUP2 MSTORE PUSH1 0x4 ADD PUSH2 0x1238 SWAP1 PUSH2 0x1F9B JUMP JUMPDEST PUSH1 0x40 MLOAD DUP1 SWAP2 SUB SWAP1 REVERT JUMPDEST PUSH2 0x124A DUP2 PUSH2 0x13D0 JUMP JUMPDEST POP JUMP JUMPDEST PUSH2 0x1255 PUSH2 0xD8B JUMP JUMPDEST ISZERO PUSH2 0x1295 JUMPI PUSH1 0x40 MLOAD PUSH32 0x8C379A000000000000000000000000000000000000000000000000000000000 DUP2 MSTORE PUSH1 0x4 ADD PUSH2 0x128C SWAP1 PUSH2 0x2007 JUMP JUMPDEST PUSH1 0x40 MLOAD DUP1 SWAP2 SUB SWAP1 REVERT JUMPDEST JUMP JUMPDEST PUSH1 0x2 PUSH1 0x1 SLOAD SUB PUSH2 0x12DC JUMPI PUSH1 0x40 MLOAD PUSH32 0x8C379A000000000000000000000000000000000000000000000000000000000 DUP2 MSTORE PUSH1 0x4 ADD PUSH2 0x12D3 SWAP1 PUSH2 0x2073 JUMP JUMPDEST PUSH1 0x40 MLOAD DUP1 SWAP2 SUB SWAP1 REVERT JUMPDEST PUSH1 0x2 PUSH1 0x1 DUP2 SWAP1 SSTORE POP JUMP JUMPDEST PUSH1 0x1 DUP1 DUP2 SWAP1 SSTORE POP JUMP JUMPDEST PUSH2 0x12F7 PUSH2 0x14F7 JUMP JUMPDEST PUSH20 0xFFFFFFFFFFFFFFFFFFFFFFFFFFFFFFFFFFFFFFFF AND PUSH2 0x1315 PUSH2 0xF4F JUMP JUMPDEST PUSH20 0xFFFFFFFFFFFFFFFFFFFFFFFFFFFFFFFFFFFFFFFF AND EQ PUSH2 0x136B JUMPI PUSH1 0x40 MLOAD PUSH32 0x8C379A000000000000000000000000000000000000000000000000000000000 DUP2 MSTORE PUSH1 0x4 ADD PUSH2 0x1362 SWAP1 PUSH2 0x20DF JUMP JUMPDEST PUSH1 0x40 MLOAD DUP1 SWAP2 SUB SWAP1 REVERT JUMPDEST JUMP JUMPDEST PUSH2 0x1375 PUSH2 0x14FF JUMP JUMPDEST PUSH1 0x0 PUSH1 0x2 PUSH1 0x0 PUSH2 0x100 EXP DUP2 SLOAD DUP2 PUSH1 0xFF MUL NOT AND SWAP1 DUP4 ISZERO ISZERO MUL OR SWAP1 SSTORE POP PUSH32 0x5DB9EE0A495BF2E6FF9C91A7834C1BA4FDD244A5E8AA4E537BD38AEAE4B073AA PUSH2 0x13B9 PUSH2 0x14F7 JUMP JUMPDEST PUSH1 0x40 MLOAD PUSH2 0x13C6 SWAP2 SWAP1 PUSH2 0x1764 JUMP JUMPDEST PUSH1 0x40 MLOAD DUP1 SWAP2 SUB SWAP1 LOG1 JUMP JUMPDEST PUSH1 0x0 DUP1 PUSH1 0x0 SWAP1 SLOAD SWAP1 PUSH2 0x100 EXP SWAP1 DIV PUSH20 0xFFFFFFFFFFFFFFFFFFFFFFFFFFFFFFFFFFFFFFFF AND SWAP1 POP DUP2 PUSH1 0x0 DUP1 PUSH2 0x100 EXP DUP2 SLOAD DUP2 PUSH20 0xFFFFFFFFFFFFFFFFFFFFFFFFFFFFFFFFFFFFFFFF MUL NOT AND SWAP1 DUP4 PUSH20 0xFFFFFFFFFFFFFFFFFFFFFFFFFFFFFFFFFFFFFFFF AND MUL OR SWAP1 SSTORE POP DUP2 PUSH20 0xFFFFFFFFFFFFFFFFFFFFFFFFFFFFFFFFFFFFFFFF AND DUP2 PUSH20 0xFFFFFFFFFFFFFFFFFFFFFFFFFFFFFFFFFFFFFFFF AND PUSH32 0x8BE0079C531659141344CD1FD0A4F28419497F9722A3DAAFE3B4186F6B6457E0 PUSH1 0x40 MLOAD PUSH1 0x40 MLOAD DUP1 SWAP2 SUB SWAP1 LOG3 POP POP JUMP JUMPDEST PUSH2 0x149C PUSH2 0x124D JUMP JUMPDEST PUSH1 0x1 PUSH1 0x2 PUSH1 0x0 PUSH2 0x100 EXP DUP2 SLOAD DUP2 PUSH1 0xFF MUL NOT AND SWAP1 DUP4 ISZERO ISZERO MUL OR SWAP1 SSTORE POP PUSH32 0x62E78CEA01BEE320CD4E420270B5EA74000D11B0C9F74754EBDBFC544B05A258 PUSH2 0x14E0 PUSH2 0x14F7 JUMP JUMPDEST PUSH1 0x40 MLOAD PUSH2 0x14ED SWAP2 SWAP1 PUSH2 0x1764 JUMP JUMPDEST PUSH1 0x40 MLOAD DUP1 SWAP2 SUB SWAP1 LOG1 JUMP JUMPDEST PUSH1 0x0 CALLER SWAP1 POP SWAP1 JUMP JUMPDEST PUSH2 0x1507 PUSH2 0xD8B JUMP JUMPDEST PUSH2 0x1546 JUMPI PUSH1 0x40 MLOAD PUSH32 0x8C379A000000000000000000000000000000000000000000000000000000000 DUP2 MSTORE PUSH1 0x4 ADD PUSH2 0x153D SWAP1 PUSH2 0x214B JUMP JUMPDEST PUSH1 0x40 MLOAD DUP1 SWAP2 SUB SWAP1 REVERT JUMPDEST JUMP JUMPDEST PUSH1 0x0 DUP1 REVERT JUMPDEST PUSH1 0x0 PUSH20 0xFFFFFFFFFFFFFFFFFFFFFFFFFFFFFFFFFFFFFFFF DUP3 AND SWAP1 POP SWAP2 SWAP1 POP JUMP JUMPDEST PUSH1 0x0 PUSH2 0x1578 DUP3 PUSH2 0x154D JUMP JUMPDEST SWAP1 POP SWAP2 SWAP1 POP JUMP JUMPDEST PUSH2 0x1588 DUP2 PUSH2 0x156D JUMP JUMPDEST DUP2 EQ PUSH2 0x1593 JUMPI PUSH1 0x0 DUP1 REVERT JUMPDEST POP JUMP JUMPDEST PUSH1 0x0 DUP2 CALLDATALOAD SWAP1 POP PUSH2 0x15A5 DUP2 PUSH2 0x157F JUMP JUMPDEST SWAP3 SWAP2 POP POP JUMP JUMPDEST PUSH1 0x0 DUP2 SWAP1 POP SWAP2 SWAP1 POP JUMP JUMPDEST PUSH2 0x15BE DUP2 PUSH2 0x15AB JUMP JUMPDEST DUP2 EQ PUSH2 0x15C9 JUMPI PUSH1 0x0 DUP1 REVERT JUMPDEST POP JUMP JUMPDEST PUSH1 0x0 DUP2 CALLDATALOAD SWAP1 POP PUSH2 0x15DB DUP2 PUSH2 0x15B5 JUMP JUMPDEST SWAP3 SWAP2 POP POP JUMP JUMPDEST PUSH1 0x0 DUP1 PUSH1 0x0 DUP1 PUSH1 0x80 DUP6 DUP8 SUB SLT ISZERO PUSH2 0x15FB JUMPI PUSH2 0x15FA PUSH2 0x1548 JUMP JUMPDEST JUMPDEST PUSH1 0x0 PUSH2 0x1609 DUP8 DUP3 DUP9 ADD PUSH2 0x1596 JUMP JUMPDEST SWAP5 POP POP PUSH1 0x20 PUSH2 0x161A DUP8 DUP3 DUP9 ADD PUSH2 0x15CC JUMP JUMPDEST SWAP4 POP POP PUSH1 0x40 PUSH2 0x162B DUP8 DUP3 DUP9 ADD PUSH2 0x15CC JUMP JUMPDEST SWAP3 POP POP PUSH1 0x60 PUSH2 0x163C DUP8 DUP3 DUP9 ADD PUSH2 0x15CC JUMP JUMPDEST SWAP2 POP POP SWAP3 SWAP6 SWAP2 SWAP5 POP SWAP3 POP JUMP JUMPDEST PUSH1 0x0 PUSH1 0x20 DUP3 DUP5 SUB SLT ISZERO PUSH2 0x165E JUMPI PUSH2 0x165D PUSH2 0x1548 JUMP JUMPDEST JUMPDEST PUSH1 0x0 PUSH2 0x166C DUP5 DUP3 DUP6 ADD PUSH2 0x15CC JUMP JUMPDEST SWAP2 POP POP SWAP3 SWAP2 POP POP JUMP JUMPDEST PUSH1 0x0 DUP2 ISZERO ISZERO SWAP1 POP SWAP2 SWAP1 POP JUMP JUMPDEST PUSH2 0x168A DUP2 PUSH2 0x1675 JUMP JUMPDEST DUP3 MSTORE POP POP JUMP JUMPDEST PUSH1 0x0 PUSH1 0x20 DUP3 ADD SWAP1 POP PUSH2 0x16A5 PUSH1 0x0 DUP4 ADD DUP5 PUSH2 0x1681 JUMP JUMPDEST SWAP3 SWAP2 POP POP JUMP JUMPDEST PUSH1 0x0 DUP1 PUSH1 0x40 DUP4 DUP6 SUB SLT ISZERO PUSH2 0x16C2 JUMPI PUSH2 0x16C1 PUSH2 0x1548 JUMP JUMPDEST JUMPDEST PUSH1 0x0 PUSH2 0x16D0 DUP6 DUP3 DUP7 ADD PUSH2 0x1596 JUMP JUMPDEST SWAP3 POP POP PUSH1 0x20 PUSH2 0x16E1 DUP6 DUP3 DUP7 ADD PUSH2 0x1596 JUMP JUMPDEST SWAP2 POP POP SWAP3 POP SWAP3 SWAP1 POP JUMP JUMPDEST PUSH1 0x0 DUP1 PUSH1 0x40 DUP4 DUP6 SUB SLT ISZERO PUSH2 0x1702 JUMPI PUSH2 0x1701 PUSH2 0x1548 JUMP JUMPDEST JUMPDEST PUSH1 0x0 PUSH2 0x1710 DUP6 DUP3 DUP7 ADD PUSH2 0x15CC JUMP JUMPDEST SWAP3 POP POP PUSH1 0x20 PUSH2 0x1721 DUP6 DUP3 DUP7 ADD PUSH2 0x15CC JUMP JUMPDEST SWAP2 POP POP SWAP3 POP SWAP3 SWAP1 POP JUMP JUMPDEST PUSH2 0x1734 DUP2 PUSH2 0x15AB JUMP JUMPDEST DUP3 MSTORE POP POP JUMP JUMPDEST PUSH1 0x0 PUSH1 0x20 DUP3 ADD SWAP1 POP PUSH2 0x174F PUSH1 0x0 DUP4 ADD DUP5 PUSH2 0x172B JUMP JUMPDEST SWAP3 SWAP2 POP POP JUMP JUMPDEST PUSH2 0x175E DUP2 PUSH2 0x156D JUMP JUMPDEST DUP3 MSTORE POP POP JUMP JUMPDEST PUSH1 0x0 PUSH1 0x20 DUP3 ADD SWAP1 POP PUSH2 0x1779 PUSH1 0x0 DUP4 ADD DUP5 PUSH2 0x1755 JUMP JUMPDEST SWAP3 SWAP2 POP POP JUMP JUMPDEST PUSH1 0x0 PUSH1 0xA0 DUP3 ADD SWAP1 POP PUSH2 0x1794 PUSH1 0x0 DUP4 ADD DUP9 PUSH2 0x1755 JUMP JUMPDEST PUSH2 0x17A1 PUSH1 0x20 DUP4 ADD DUP8 PUSH2 0x172B JUMP JUMPDEST PUSH2 0x17AE PUSH1 0x40 DUP4 ADD DUP7 PUSH2 0x1755 JUMP JUMPDEST PUSH2 0x17BB PUSH1 0x60 DUP4 ADD DUP6 PUSH2 0x172B JUMP JUMPDEST PUSH2 0x17C8 PUSH1 0x80 DUP4 ADD DUP5 PUSH2 0x172B JUMP JUMPDEST SWAP7 SWAP6 POP POP POP POP POP POP JUMP JUMPDEST PUSH1 0x0 PUSH1 0x20 DUP3 DUP5 SUB SLT ISZERO PUSH2 0x17E8 JUMPI PUSH2 0x17E7 PUSH2 0x1548 JUMP JUMPDEST JUMPDEST PUSH1 0x0 PUSH2 0x17F6 DUP5 DUP3 DUP6 ADD PUSH2 0x1596 JUMP JUMPDEST SWAP2 POP POP SWAP3 SWAP2 POP POP JUMP JUMPDEST PUSH1 0x0 DUP3 DUP3 MSTORE PUSH1 0x20 DUP3 ADD SWAP1 POP SWAP3 SWAP2 POP POP JUMP JUMPDEST PUSH32 0x5072696365206D7573742062652067726561746572207468616E207A65726F2E PUSH1 0x0 DUP3 ADD MSTORE POP JUMP JUMPDEST PUSH1 0x0 PUSH2 0x1846 PUSH1 0x20 DUP4 PUSH2 0x17FF JUMP JUMPDEST SWAP2 POP PUSH2 0x1851 DUP3 PUSH2 0x1810 JUMP JUMPDEST PUSH1 0x20 DUP3 ADD SWAP1 POP SWAP2 SWAP1 POP JUMP JUMPDEST PUSH1 0x0 PUSH1 0x20 DUP3 ADD SWAP1 POP DUP2 DUP2 SUB PUSH1 0x0 DUP4 ADD MSTORE PUSH2 0x1875 DUP2 PUSH2 0x1839 JUMP JUMPDEST SWAP1 POP SWAP2 SWAP1 POP JUMP JUMPDEST PUSH32 0x446561646C696E65206D7573742062652067726561746572207468616E207A65 PUSH1 0x0 DUP3 ADD MSTORE PUSH32 0x726F2E0000000000000000000000000000000000000000000000000000000000 PUSH1 0x20 DUP3 ADD MSTORE POP JUMP JUMPDEST PUSH1 0x0 PUSH2 0x18D8 PUSH1 0x23 DUP4 PUSH2 0x17FF JUMP JUMPDEST SWAP2 POP PUSH2 0x18E3 DUP3 PUSH2 0x187C JUMP JUMPDEST PUSH1 0x40 DUP3 ADD SWAP1 POP SWAP2 SWAP1 POP JUMP JUMPDEST PUSH1 0x0 PUSH1 0x20 DUP3 ADD SWAP1 POP DUP2 DUP2 SUB PUSH1 0x0 DUP4 ADD MSTORE PUSH2 0x1907 DUP2 PUSH2 0x18CB JUMP JUMPDEST SWAP1 POP SWAP2 SWAP1 POP JUMP JUMPDEST PUSH1 0x0 DUP2 MLOAD SWAP1 POP PUSH2 0x191D DUP2 PUSH2 0x157F JUMP JUMPDEST SWAP3 SWAP2 POP POP JUMP JUMPDEST PUSH1 0x0 PUSH1 0x20 DUP3 DUP5 SUB SLT ISZERO PUSH2 0x1939 JUMPI PUSH2 0x1938 PUSH2 0x1548 JUMP JUMPDEST JUMPDEST PUSH1 0x0 PUSH2 0x1947 DUP5 DUP3 DUP6 ADD PUSH2 0x190E JUMP JUMPDEST SWAP2 POP POP SWAP3 SWAP2 POP POP JUMP JUMPDEST PUSH32 0x596F75206D757374206F776E20746865204E465420746F206C6973742069742E PUSH1 0x0 DUP3 ADD MSTORE POP JUMP JUMPDEST PUSH1 0x0 PUSH2 0x1986 PUSH1 0x20 DUP4 PUSH2 0x17FF JUMP JUMPDEST SWAP2 POP PUSH2 0x1991 DUP3 PUSH2 0x1950 JUMP JUMPDEST PUSH1 0x20 DUP3 ADD SWAP1 POP SWAP2 SWAP1 POP JUMP JUMPDEST PUSH1 0x0 PUSH1 0x20 DUP3 ADD SWAP1 POP DUP2 DUP2 SUB PUSH1 0x0 DUP4 ADD MSTORE PUSH2 0x19B5 DUP2 PUSH2 0x1979 JUMP JUMPDEST SWAP1 POP SWAP2 SWAP1 POP JUMP JUMPDEST PUSH32 0x4E487B7100000000000000000000000000000000000000000000000000000000 PUSH1 0x0 MSTORE PUSH1 0x11 PUSH1 0x4 MSTORE PUSH1 0x24 PUSH1 0x0 REVERT JUMPDEST PUSH1 0x0 PUSH2 0x19F6 DUP3 PUSH2 0x15AB JUMP JUMPDEST SWAP2 POP PUSH2 0x1A01 DUP4 PUSH2 0x15AB JUMP JUMPDEST SWAP3 POP DUP3 DUP3 ADD SWAP1 POP DUP1 DUP3 GT ISZERO PUSH2 0x1A19 JUMPI PUSH2 0x1A18 PUSH2 0x19BC JUMP JUMPDEST JUMPDEST SWAP3 SWAP2 POP POP JUMP JUMPDEST PUSH1 0x0 PUSH1 0x60 DUP3 ADD SWAP1 POP PUSH2 0x1A34 PUSH1 0x0 DUP4 ADD DUP7 PUSH2 0x172B JUMP JUMPDEST PUSH2 0x1A41 PUSH1 0x20 DUP4 ADD DUP6 PUSH2 0x172B JUMP JUMPDEST PUSH2 0x1A4E PUSH1 0x40 DUP4 ADD DUP5 PUSH2 0x172B JUMP JUMPDEST SWAP5 SWAP4 POP POP POP POP JUMP JUMPDEST PUSH1 0x0 PUSH2 0x1A61 DUP3 PUSH2 0x15AB JUMP JUMPDEST SWAP2 POP PUSH32 0xFFFFFFFFFFFFFFFFFFFFFFFFFFFFFFFFFFFFFFFFFFFFFFFFFFFFFFFFFFFFFFFF DUP3 SUB PUSH2 0x1A93 JUMPI PUSH2 0x1A92 PUSH2 0x19BC JUMP JUMPDEST JUMPDEST PUSH1 0x1 DUP3 ADD SWAP1 POP SWAP2 SWAP1 POP JUMP JUMPDEST PUSH32 0x53656E742076616C7565206D7573742062652067726561746572207468616E20 PUSH1 0x0 DUP3 ADD MSTORE PUSH32 0x7A65726F2E000000000000000000000000000000000000000000000000000000 PUSH1 0x20 DUP3 ADD MSTORE POP JUMP JUMPDEST PUSH1 0x0 PUSH2 0x1AFA PUSH1 0x25 DUP4 PUSH2 0x17FF JUMP JUMPDEST SWAP2 POP PUSH2 0x1B05 DUP3 PUSH2 0x1A9E JUMP JUMPDEST PUSH1 0x40 DUP3 ADD SWAP1 POP SWAP2 SWAP1 POP JUMP JUMPDEST PUSH1 0x0 PUSH1 0x20 DUP3 ADD SWAP1 POP DUP2 DUP2 SUB PUSH1 0x0 DUP4 ADD MSTORE PUSH2 0x1B29 DUP2 PUSH2 0x1AED JUMP JUMPDEST SWAP1 POP SWAP2 SWAP1 POP JUMP JUMPDEST PUSH32 0x4C697374696E6720646F6573206E6F742065786973742E000000000000000000 PUSH1 0x0 DUP3 ADD MSTORE POP JUMP JUMPDEST PUSH1 0x0 PUSH2 0x1B66 PUSH1 0x17 DUP4 PUSH2 0x17FF JUMP JUMPDEST SWAP2 POP PUSH2 0x1B71 DUP3 PUSH2 0x1B30 JUMP JUMPDEST PUSH1 0x20 DUP3 ADD SWAP1 POP SWAP2 SWAP1 POP JUMP JUMPDEST PUSH1 0x0 PUSH1 0x20 DUP3 ADD SWAP1 POP DUP2 DUP2 SUB PUSH1 0x0 DUP4 ADD MSTORE PUSH2 0x1B95 DUP2 PUSH2 0x1B59 JUMP JUMPDEST SWAP1 POP SWAP2 SWAP1 POP JUMP JUMPDEST PUSH32 0x54686973206C697374696E672068617320657870697265642E00000000000000 PUSH1 0x0 DUP3 ADD MSTORE POP JUMP JUMPDEST PUSH1 0x0 PUSH2 0x1BD2 PUSH1 0x19 DUP4 PUSH2 0x17FF JUMP JUMPDEST SWAP2 POP PUSH2 0x1BDD DUP3 PUSH2 0x1B9C JUMP JUMPDEST PUSH1 0x20 DUP3 ADD SWAP1 POP SWAP2 SWAP1 POP JUMP JUMPDEST PUSH1 0x0 PUSH1 0x20 DUP3 ADD SWAP1 POP DUP2 DUP2 SUB PUSH1 0x0 DUP4 ADD MSTORE PUSH2 0x1C01 DUP2 PUSH2 0x1BC5 JUMP JUMPDEST SWAP1 POP SWAP2 SWAP1 POP JUMP JUMPDEST PUSH32 0x53656E742076616C7565206D75737420626520657175616C20746F2074686520 PUSH1 0x0 DUP3 ADD MSTORE PUSH32 0x6C697374696E672070726963652E000000000000000000000000000000000000 PUSH1 0x20 DUP3 ADD MSTORE POP JUMP JUMPDEST PUSH1 0x0 PUSH2 0x1C64 PUSH1 0x2E DUP4 PUSH2 0x17FF JUMP JUMPDEST SWAP2 POP PUSH2 0x1C6F DUP3 PUSH2 0x1C08 JUMP JUMPDEST PUSH1 0x40 DUP3 ADD SWAP1 POP SWAP2 SWAP1 POP JUMP JUMPDEST PUSH1 0x0 PUSH1 0x20 DUP3 ADD SWAP1 POP DUP2 DUP2 SUB PUSH1 0x0 DUP4 ADD MSTORE PUSH2 0x1C93 DUP2 PUSH2 0x1C57 JUMP JUMPDEST SWAP1 POP SWAP2 SWAP1 POP JUMP JUMPDEST PUSH1 0x0 PUSH2 0x1CA5 DUP3 PUSH2 0x15AB JUMP JUMPDEST SWAP2 POP PUSH2 0x1CB0 DUP4 PUSH2 0x15AB JUMP JUMPDEST SWAP3 POP DUP2 PUSH32 0xFFFFFFFFFFFFFFFFFFFFFFFFFFFFFFFFFFFFFFFFFFFFFFFFFFFFFFFFFFFFFFFF DIV DUP4 GT DUP3 ISZERO ISZERO AND ISZERO PUSH2 0x1CE9 JUMPI PUSH2 0x1CE8 PUSH2 0x19BC JUMP JUMPDEST JUMPDEST DUP3 DUP3 MUL SWAP1 POP SWAP3 SWAP2 POP POP JUMP JUMPDEST PUSH32 0x4E487B7100000000000000000000000000000000000000000000000000000000 PUSH1 0x0 MSTORE PUSH1 0x12 PUSH1 0x4 MSTORE PUSH1 0x24 PUSH1 0x0 REVERT JUMPDEST PUSH1 0x0 PUSH2 0x1D2E DUP3 PUSH2 0x15AB JUMP JUMPDEST SWAP2 POP PUSH2 0x1D39 DUP4 PUSH2 0x15AB JUMP JUMPDEST SWAP3 POP DUP3 PUSH2 0x1D49 JUMPI PUSH2 0x1D48 PUSH2 0x1CF4 JUMP JUMPDEST JUMPDEST DUP3 DUP3 DIV SWAP1 POP SWAP3 SWAP2 POP POP JUMP JUMPDEST PUSH1 0x0 PUSH2 0x1D5F DUP3 PUSH2 0x15AB JUMP JUMPDEST SWAP2 POP PUSH2 0x1D6A DUP4 PUSH2 0x15AB JUMP JUMPDEST SWAP3 POP DUP3 DUP3 SUB SWAP1 POP DUP2 DUP2 GT ISZERO PUSH2 0x1D82 JUMPI PUSH2 0x1D81 PUSH2 0x19BC JUMP JUMPDEST JUMPDEST SWAP3 SWAP2 POP POP JUMP JUMPDEST PUSH32 0x53656C6C6572206E6F206C6F6E676572206F776E7320746865204E46542E0000 PUSH1 0x0 DUP3 ADD MSTORE POP JUMP JUMPDEST PUSH1 0x0 PUSH2 0x1DBE PUSH1 0x1E DUP4 PUSH2 0x17FF JUMP JUMPDEST SWAP2 POP PUSH2 0x1DC9 DUP3 PUSH2 0x1D88 JUMP JUMPDEST PUSH1 0x20 DUP3 ADD SWAP1 POP SWAP2 SWAP1 POP JUMP JUMPDEST PUSH1 0x0 PUSH1 0x20 DUP3 ADD SWAP1 POP DUP2 DUP2 SUB PUSH1 0x0 DUP4 ADD MSTORE PUSH2 0x1DED DUP2 PUSH2 0x1DB1 JUMP JUMPDEST SWAP1 POP SWAP2 SWAP1 POP JUMP JUMPDEST PUSH1 0x0 PUSH1 0x60 DUP3 ADD SWAP1 POP PUSH2 0x1E09 PUSH1 0x0 DUP4 ADD DUP7 PUSH2 0x1755 JUMP JUMPDEST PUSH2 0x1E16 PUSH1 0x20 DUP4 ADD DUP6 PUSH2 0x1755 JUMP JUMPDEST PUSH2 0x1E23 PUSH1 0x40 DUP4 ADD DUP5 PUSH2 0x172B JUMP JUMPDEST SWAP5 SWAP4 POP POP POP POP JUMP JUMPDEST PUSH32 0x4164647265737365732063616E6E6F74206265207A65726F0000000000000000 PUSH1 0x0 DUP3 ADD MSTORE POP JUMP JUMPDEST PUSH1 0x0 PUSH2 0x1E61 PUSH1 0x18 DUP4 PUSH2 0x17FF JUMP JUMPDEST SWAP2 POP PUSH2 0x1E6C DUP3 PUSH2 0x1E2B JUMP JUMPDEST PUSH1 0x20 DUP3 ADD SWAP1 POP SWAP2 SWAP1 POP JUMP JUMPDEST PUSH1 0x0 PUSH1 0x20 DUP3 ADD SWAP1 POP DUP2 DUP2 SUB PUSH1 0x0 DUP4 ADD MSTORE PUSH2 0x1E90 DUP2 PUSH2 0x1E54 JUMP JUMPDEST SWAP1 POP SWAP2 SWAP1 POP JUMP JUMPDEST PUSH32 0x596F7520617265206E6F74207468652073656C6C6572206F662074686973206C PUSH1 0x0 DUP3 ADD MSTORE PUSH32 0x697374696E672E00000000000000000000000000000000000000000000000000 PUSH1 0x20 DUP3 ADD MSTORE POP JUMP JUMPDEST PUSH1 0x0 PUSH2 0x1EF3 PUSH1 0x27 DUP4 PUSH2 0x17FF JUMP JUMPDEST SWAP2 POP PUSH2 0x1EFE DUP3 PUSH2 0x1E97 JUMP JUMPDEST PUSH1 0x40 DUP3 ADD SWAP1 POP SWAP2 SWAP1 POP JUMP JUMPDEST PUSH1 0x0 PUSH1 0x20 DUP3 ADD SWAP1 POP DUP2 DUP2 SUB PUSH1 0x0 DUP4 ADD MSTORE PUSH2 0x1F22 DUP2 PUSH2 0x1EE6 JUMP JUMPDEST SWAP1 POP SWAP2 SWAP1 POP JUMP JUMPDEST PUSH32 0x4F776E61626C653A206E6577206F776E657220697320746865207A65726F2061 PUSH1 0x0 DUP3 ADD MSTORE PUSH32 0x6464726573730000000000000000000000000000000000000000000000000000 PUSH1 0x20 DUP3 ADD MSTORE POP JUMP JUMPDEST PUSH1 0x0 PUSH2 0x1F85 PUSH1 0x26 DUP4 PUSH2 0x17FF JUMP JUMPDEST SWAP2 POP PUSH2 0x1F90 DUP3 PUSH2 0x1F29 JUMP JUMPDEST PUSH1 0x40 DUP3 ADD SWAP1 POP SWAP2 SWAP1 POP JUMP JUMPDEST PUSH1 0x0 PUSH1 0x20 DUP3 ADD SWAP1 POP DUP2 DUP2 SUB PUSH1 0x0 DUP4 ADD MSTORE PUSH2 0x1FB4 DUP2 PUSH2 0x1F78 JUMP JUMPDEST SWAP1 POP SWAP2 SWAP1 POP JUMP JUMPDEST PUSH32 0x5061757361626C653A2070617573656400000000000000000000000000000000 PUSH1 0x0 DUP3 ADD MSTORE POP JUMP JUMPDEST PUSH1 0x0 PUSH2 0x1FF1 PUSH1 0x10 DUP4 PUSH2 0x17FF JUMP JUMPDEST SWAP2 POP PUSH2 0x1FFC DUP3 PUSH2 0x1FBB JUMP JUMPDEST PUSH1 0x20 DUP3 ADD SWAP1 POP SWAP2 SWAP1 POP JUMP JUMPDEST PUSH1 0x0 PUSH1 0x20 DUP3 ADD SWAP1 POP DUP2 DUP2 SUB PUSH1 0x0 DUP4 ADD MSTORE PUSH2 0x2020 DUP2 PUSH2 0x1FE4 JUMP JUMPDEST SWAP1 POP SWAP2 SWAP1 POP JUMP JUMPDEST PUSH32 0x5265656E7472616E637947756172643A207265656E7472616E742063616C6C00 PUSH1 0x0 DUP3 ADD MSTORE POP JUMP JUMPDEST PUSH1 0x0 PUSH2 0x205D PUSH1 0x1F DUP4 PUSH2 0x17FF JUMP JUMPDEST SWAP2 POP PUSH2 0x2068 DUP3 PUSH2 0x2027 JUMP JUMPDEST PUSH1 0x20 DUP3 ADD SWAP1 POP SWAP2 SWAP1 POP JUMP JUMPDEST PUSH1 0x0 PUSH1 0x20 DUP3 ADD SWAP1 POP DUP2 DUP2 SUB PUSH1 0x0 DUP4 ADD MSTORE PUSH2 0x208C DUP2 PUSH2 0x2050 JUMP JUMPDEST SWAP1 POP SWAP2 SWAP1 POP JUMP JUMPDEST PUSH32 0x4F776E61626C653A2063616C6C6572206973206E6F7420746865206F776E6572 PUSH1 0x0 DUP3 ADD MSTORE POP JUMP JUMPDEST PUSH1 0x0 PUSH2 0x20C9 PUSH1 0x20 DUP4 PUSH2 0x17FF JUMP JUMPDEST SWAP2 POP PUSH2 0x20D4 DUP3 PUSH2 0x2093 JUMP JUMPDEST PUSH1 0x20 DUP3 ADD SWAP1 POP SWAP2 SWAP1 POP JUMP JUMPDEST PUSH1 0x0 PUSH1 0x20 DUP3 ADD SWAP1 POP DUP2 DUP2 SUB PUSH1 0x0 DUP4 ADD MSTORE PUSH2 0x20F8 DUP2 PUSH2 0x20BC JUMP JUMPDEST SWAP1 POP SWAP2 SWAP1 POP JUMP JUMPDEST PUSH32 0x5061757361626C653A206E6F7420706175736564000000000000000000000000 PUSH1 0x0 DUP3 ADD MSTORE POP JUMP JUMPDEST PUSH1 0x0 PUSH2 0x2135 PUSH1 0x14 DUP4 PUSH2 0x17FF JUMP JUMPDEST SWAP2 POP PUSH2 0x2140 DUP3 PUSH2 0x20FF JUMP JUMPDEST PUSH1 0x20 DUP3 ADD SWAP1 POP SWAP2 SWAP1 POP JUMP JUMPDEST PUSH1 0x0 PUSH1 0x20 DUP3 ADD SWAP1 POP DUP2 DUP2 SUB PUSH1 0x0 DUP4 ADD MSTORE PUSH2 0x2164 DUP2 PUSH2 0x2128 JUMP JUMPDEST SWAP1 POP SWAP2 SWAP1 POP JUMP INVALID LOG2 PUSH5 0x6970667358 0x22 SLT KECCAK256 0x1E PUSH19 0x6F3521CBC4A1E26634A7D412AD44AA07403CBE 0x4B MUL 0x4E SDIV MSTORE SDIV 0xE9 DUP14 SWAP1 SWAP4 0xC7 PUSH5 0x736F6C6343 STOP ADDMOD LT STOP CALLER "
				},
				"gasEstimates": {
					"creation": {
						"codeDepositCost": "1721800",
						"executionCost": "infinite",
						"totalCost": "infinite"
					},
					"external": {
						"activeListingIds(uint256)": "infinite",
						"buyNFT(uint256)": "infinite",
						"delistNFT(uint256)": "113932",
						"listNFT(address,uint256,uint256,uint256)": "infinite",
						"listings(uint256)": "infinite",
						"nextListingId()": "2474",
						"owner()": "2545",
						"pause()": "infinite",
						"paused()": "2569",
						"platformFeeAddress()": "2602",
						"platformFeePercentage()": "2451",
						"renounceOwnership()": "30443",
						"royaltyAddress()": "2581",
						"royaltyPercentage()": "2540",
						"transferOwnership(address)": "30854",
						"unpause()": "infinite",
						"updateFeeAddresses(address,address)": "infinite",
						"updateFeePercentages(uint256,uint256)": "infinite"
					}
				},
				"methodIdentifiers": {
					"activeListingIds(uint256)": "e3b6a1f6",
					"buyNFT(uint256)": "51ed8288",
					"delistNFT(uint256)": "cb917b9c",
					"listNFT(address,uint256,uint256,uint256)": "3c44a5f0",
					"listings(uint256)": "de74e57b",
					"nextListingId()": "aaccf1ec",
					"owner()": "8da5cb5b",
					"pause()": "8456cb59",
					"paused()": "5c975abb",
					"platformFeeAddress()": "ed14834f",
					"platformFeePercentage()": "cdd78cfc",
					"renounceOwnership()": "715018a6",
					"royaltyAddress()": "ad2f852a",
					"royaltyPercentage()": "8a71bb2d",
					"transferOwnership(address)": "f2fde38b",
					"unpause()": "3f4ba83a",
					"updateFeeAddresses(address,address)": "5e4e8d65",
					"updateFeePercentages(uint256,uint256)": "78578bb3"
				}
			},
			"storageLayout": {
				"storage": [
					{
						"astId": 197,
						"contract": "venda_flattened.sol:GotasNFTMarketplace",
						"label": "_owner",
						"offset": 0,
						"slot": "0",
						"type": "t_address"
					},
					{
						"astId": 10,
						"contract": "venda_flattened.sol:GotasNFTMarketplace",
						"label": "_status",
						"offset": 0,
						"slot": "1",
						"type": "t_uint256"
					},
					{
						"astId": 101,
						"contract": "venda_flattened.sol:GotasNFTMarketplace",
						"label": "_paused",
						"offset": 0,
						"slot": "2",
						"type": "t_bool"
					},
					{
						"astId": 448,
						"contract": "venda_flattened.sol:GotasNFTMarketplace",
						"label": "activeListingIds",
						"offset": 0,
						"slot": "3",
						"type": "t_array(t_uint256)dyn_storage"
					},
					{
						"astId": 450,
						"contract": "venda_flattened.sol:GotasNFTMarketplace",
						"label": "royaltyPercentage",
						"offset": 0,
						"slot": "4",
						"type": "t_uint256"
					},
					{
						"astId": 452,
						"contract": "venda_flattened.sol:GotasNFTMarketplace",
						"label": "platformFeePercentage",
						"offset": 0,
						"slot": "5",
						"type": "t_uint256"
					},
					{
						"astId": 454,
						"contract": "venda_flattened.sol:GotasNFTMarketplace",
						"label": "royaltyAddress",
						"offset": 0,
						"slot": "6",
						"type": "t_address"
					},
					{
						"astId": 456,
						"contract": "venda_flattened.sol:GotasNFTMarketplace",
						"label": "platformFeeAddress",
						"offset": 0,
						"slot": "7",
						"type": "t_address"
					},
					{
						"astId": 461,
						"contract": "venda_flattened.sol:GotasNFTMarketplace",
						"label": "listings",
						"offset": 0,
						"slot": "8",
						"type": "t_mapping(t_uint256,t_struct(Listing)445_storage)"
					},
					{
						"astId": 464,
						"contract": "venda_flattened.sol:GotasNFTMarketplace",
						"label": "nextListingId",
						"offset": 0,
						"slot": "9",
						"type": "t_uint256"
					}
				],
				"types": {
					"t_address": {
						"encoding": "inplace",
						"label": "address",
						"numberOfBytes": "20"
					},
					"t_array(t_uint256)dyn_storage": {
						"base": "t_uint256",
						"encoding": "dynamic_array",
						"label": "uint256[]",
						"numberOfBytes": "32"
					},
					"t_bool": {
						"encoding": "inplace",
						"label": "bool",
						"numberOfBytes": "1"
					},
					"t_mapping(t_uint256,t_struct(Listing)445_storage)": {
						"encoding": "mapping",
						"key": "t_uint256",
						"label": "mapping(uint256 => struct GotasNFTMarketplace.Listing)",
						"numberOfBytes": "32",
						"value": "t_struct(Listing)445_storage"
					},
					"t_struct(Listing)445_storage": {
						"encoding": "inplace",
						"label": "struct GotasNFTMarketplace.Listing",
						"members": [
							{
								"astId": 436,
								"contract": "venda_flattened.sol:GotasNFTMarketplace",
								"label": "nftContractAddress",
								"offset": 0,
								"slot": "0",
								"type": "t_address"
							},
							{
								"astId": 438,
								"contract": "venda_flattened.sol:GotasNFTMarketplace",
								"label": "nftId",
								"offset": 0,
								"slot": "1",
								"type": "t_uint256"
							},
							{
								"astId": 440,
								"contract": "venda_flattened.sol:GotasNFTMarketplace",
								"label": "seller",
								"offset": 0,
								"slot": "2",
								"type": "t_address"
							},
							{
								"astId": 442,
								"contract": "venda_flattened.sol:GotasNFTMarketplace",
								"label": "price",
								"offset": 0,
								"slot": "3",
								"type": "t_uint256"
							},
							{
								"astId": 444,
								"contract": "venda_flattened.sol:GotasNFTMarketplace",
								"label": "deadline",
								"offset": 0,
								"slot": "4",
								"type": "t_uint256"
							}
						],
						"numberOfBytes": "160"
					},
					"t_uint256": {
						"encoding": "inplace",
						"label": "uint256",
						"numberOfBytes": "32"
					}
				}
			},
			"userdoc": {
				"kind": "user",
				"methods": {},
				"version": 1
			}
		}
	}
}