{
	"teste2.sol": {
		"NFTMarketplace": {
			"abi": [
				{
					"inputs": [
						{
							"internalType": "address",
							"name": "_nft",
							"type": "address"
						},
						{
							"internalType": "uint256",
							"name": "_fee",
							"type": "uint256"
						}
					],
					"stateMutability": "nonpayable",
					"type": "constructor"
				},
				{
					"anonymous": false,
					"inputs": [
						{
							"indexed": true,
							"internalType": "address",
							"name": "previousOwner",
							"type": "address"
						},
						{
							"indexed": true,
							"internalType": "address",
							"name": "newOwner",
							"type": "address"
						}
					],
					"name": "OwnershipTransferred",
					"type": "event"
				},
				{
					"anonymous": false,
					"inputs": [
						{
							"indexed": true,
							"internalType": "uint256",
							"name": "tokenId",
							"type": "uint256"
						}
					],
					"name": "SaleCancelled",
					"type": "event"
				},
				{
					"anonymous": false,
					"inputs": [
						{
							"indexed": true,
							"internalType": "address",
							"name": "buyer",
							"type": "address"
						},
						{
							"indexed": true,
							"internalType": "uint256",
							"name": "tokenId",
							"type": "uint256"
						},
						{
							"indexed": false,
							"internalType": "uint256",
							"name": "price",
							"type": "uint256"
						}
					],
					"name": "SaleCompleted",
					"type": "event"
				},
				{
					"anonymous": false,
					"inputs": [
						{
							"indexed": true,
							"internalType": "address",
							"name": "seller",
							"type": "address"
						},
						{
							"indexed": true,
							"internalType": "uint256",
							"name": "tokenId",
							"type": "uint256"
						},
						{
							"indexed": false,
							"internalType": "uint256",
							"name": "price",
							"type": "uint256"
						}
					],
					"name": "SaleCreated",
					"type": "event"
				},
				{
					"anonymous": false,
					"inputs": [
						{
							"indexed": true,
							"internalType": "uint256",
							"name": "tokenId",
							"type": "uint256"
						},
						{
							"indexed": false,
							"internalType": "uint256",
							"name": "price",
							"type": "uint256"
						}
					],
					"name": "SaleUpdated",
					"type": "event"
				},
				{
					"inputs": [
						{
							"internalType": "uint256",
							"name": "_tokenId",
							"type": "uint256"
						}
					],
					"name": "buy",
					"outputs": [],
					"stateMutability": "payable",
					"type": "function"
				},
				{
					"inputs": [
						{
							"internalType": "uint256",
							"name": "_tokenId",
							"type": "uint256"
						}
					],
					"name": "cancelSale",
					"outputs": [],
					"stateMutability": "nonpayable",
					"type": "function"
				},
				{
					"inputs": [
						{
							"internalType": "uint256",
							"name": "_tokenId",
							"type": "uint256"
						},
						{
							"internalType": "uint256",
							"name": "_price",
							"type": "uint256"
						}
					],
					"name": "createSale",
					"outputs": [],
					"stateMutability": "nonpayable",
					"type": "function"
				},
				{
					"inputs": [],
					"name": "fee",
					"outputs": [
						{
							"internalType": "uint256",
							"name": "",
							"type": "uint256"
						}
					],
					"stateMutability": "view",
					"type": "function"
				},
				{
					"inputs": [],
					"name": "nft",
					"outputs": [
						{
							"internalType": "contract IERC721",
							"name": "",
							"type": "address"
						}
					],
					"stateMutability": "view",
					"type": "function"
				},
				{
					"inputs": [
						{
							"internalType": "address",
							"name": "",
							"type": "address"
						},
						{
							"internalType": "address",
							"name": "",
							"type": "address"
						},
						{
							"internalType": "uint256",
							"name": "",
							"type": "uint256"
						},
						{
							"internalType": "bytes",
							"name": "",
							"type": "bytes"
						}
					],
					"name": "onERC721Received",
					"outputs": [
						{
							"internalType": "bytes4",
							"name": "",
							"type": "bytes4"
						}
					],
					"stateMutability": "nonpayable",
					"type": "function"
				},
				{
					"inputs": [],
					"name": "owner",
					"outputs": [
						{
							"internalType": "address",
							"name": "",
							"type": "address"
						}
					],
					"stateMutability": "view",
					"type": "function"
				},
				{
					"inputs": [],
					"name": "renounceOwnership",
					"outputs": [],
					"stateMutability": "nonpayable",
					"type": "function"
				},
				{
					"inputs": [
						{
							"internalType": "uint256",
							"name": "",
							"type": "uint256"
						}
					],
					"name": "sales",
					"outputs": [
						{
							"internalType": "address",
							"name": "seller",
							"type": "address"
						},
						{
							"internalType": "uint256",
							"name": "tokenId",
							"type": "uint256"
						},
						{
							"internalType": "uint256",
							"name": "price",
							"type": "uint256"
						},
						{
							"internalType": "bool",
							"name": "active",
							"type": "bool"
						}
					],
					"stateMutability": "view",
					"type": "function"
				},
				{
					"inputs": [
						{
							"internalType": "address",
							"name": "newOwner",
							"type": "address"
						}
					],
					"name": "transferOwnership",
					"outputs": [],
					"stateMutability": "nonpayable",
					"type": "function"
				},
				{
					"inputs": [
						{
							"internalType": "uint256",
							"name": "_tokenId",
							"type": "uint256"
						},
						{
							"internalType": "uint256",
							"name": "_price",
							"type": "uint256"
						}
					],
					"name": "updateSale",
					"outputs": [],
					"stateMutability": "nonpayable",
					"type": "function"
				}
			],
			"devdoc": {
				"kind": "dev",
				"methods": {
					"owner()": {
						"details": "Returns the address of the current owner."
					},
					"renounceOwnership()": {
						"details": "Leaves the contract without owner. It will not be possible to call `onlyOwner` functions. Can only be called by the current owner. NOTE: Renouncing ownership will leave the contract without an owner, thereby disabling any functionality that is only available to the owner."
					},
					"transferOwnership(address)": {
						"details": "Transfers ownership of the contract to a new account (`newOwner`). Can only be called by the current owner."
					}
				},
				"version": 1
			},
			"evm": {
				"assembly": "    /* \"teste2.sol\":296:3109  contract NFTMarketplace is Ownable, IERC721Receiver {... */\n  mstore(0x40, 0x80)\n    /* \"teste2.sol\":886:982  constructor(address _nft, uint256 _fee) {... */\n  callvalue\n  dup1\n  iszero\n  tag_1\n  jumpi\n  0x00\n  dup1\n  revert\ntag_1:\n  pop\n  mload(0x40)\n  sub(codesize, bytecodeSize)\n  dup1\n  bytecodeSize\n  dup4\n  codecopy\n  dup2\n  dup2\n  add\n  0x40\n  mstore\n  dup2\n  add\n  swap1\n  tag_2\n  swap2\n  swap1\n  tag_3\n  jump\t// in\ntag_2:\n    /* \"@openzeppelin/contracts/access/Ownable.sol\":936:968  _transferOwnership(_msgSender()) */\n  tag_7\n    /* \"@openzeppelin/contracts/access/Ownable.sol\":955:967  _msgSender() */\n  tag_8\n    /* \"@openzeppelin/contracts/access/Ownable.sol\":955:965  _msgSender */\n  shl(0x20, tag_9)\n    /* \"@openzeppelin/contracts/access/Ownable.sol\":955:967  _msgSender() */\n  0x20\n  shr\n  jump\t// in\ntag_8:\n    /* \"@openzeppelin/contracts/access/Ownable.sol\":936:954  _transferOwnership */\n  shl(0x20, tag_10)\n    /* \"@openzeppelin/contracts/access/Ownable.sol\":936:968  _transferOwnership(_msgSender()) */\n  0x20\n  shr\n  jump\t// in\ntag_7:\n    /* \"teste2.sol\":950:954  _nft */\n  dup2\n    /* \"teste2.sol\":936:939  nft */\n  0x01\n  0x00\n    /* \"teste2.sol\":936:955  nft = IERC721(_nft) */\n  0x0100\n  exp\n  dup2\n  sload\n  dup2\n  0xffffffffffffffffffffffffffffffffffffffff\n  mul\n  not\n  and\n  swap1\n  dup4\n  0xffffffffffffffffffffffffffffffffffffffff\n  and\n  mul\n  or\n  swap1\n  sstore\n  pop\n    /* \"teste2.sol\":971:975  _fee */\n  dup1\n    /* \"teste2.sol\":965:968  fee */\n  0x02\n    /* \"teste2.sol\":965:975  fee = _fee */\n  dup2\n  swap1\n  sstore\n  pop\n    /* \"teste2.sol\":886:982  constructor(address _nft, uint256 _fee) {... */\n  pop\n  pop\n    /* \"teste2.sol\":296:3109  contract NFTMarketplace is Ownable, IERC721Receiver {... */\n  jump(tag_12)\n    /* \"@openzeppelin/contracts/utils/Context.sol\":640:736  function _msgSender() internal view virtual returns (address) {... */\ntag_9:\n    /* \"@openzeppelin/contracts/utils/Context.sol\":693:700  address */\n  0x00\n    /* \"@openzeppelin/contracts/utils/Context.sol\":719:729  msg.sender */\n  caller\n    /* \"@openzeppelin/contracts/utils/Context.sol\":712:729  return msg.sender */\n  swap1\n  pop\n    /* \"@openzeppelin/contracts/utils/Context.sol\":640:736  function _msgSender() internal view virtual returns (address) {... */\n  swap1\n  jump\t// out\n    /* \"@openzeppelin/contracts/access/Ownable.sol\":2426:2613  function _transferOwnership(address newOwner) internal virtual {... */\ntag_10:\n    /* \"@openzeppelin/contracts/access/Ownable.sol\":2499:2515  address oldOwner */\n  0x00\n    /* \"@openzeppelin/contracts/access/Ownable.sol\":2518:2524  _owner */\n  dup1\n  0x00\n  swap1\n  sload\n  swap1\n  0x0100\n  exp\n  swap1\n  div\n  0xffffffffffffffffffffffffffffffffffffffff\n  and\n    /* \"@openzeppelin/contracts/access/Ownable.sol\":2499:2524  address oldOwner = _owner */\n  swap1\n  pop\n    /* \"@openzeppelin/contracts/access/Ownable.sol\":2543:2551  newOwner */\n  dup2\n    /* \"@openzeppelin/contracts/access/Ownable.sol\":2534:2540  _owner */\n  0x00\n  dup1\n    /* \"@openzeppelin/contracts/access/Ownable.sol\":2534:2551  _owner = newOwner */\n  0x0100\n  exp\n  dup2\n  sload\n  dup2\n  0xffffffffffffffffffffffffffffffffffffffff\n  mul\n  not\n  and\n  swap1\n  dup4\n  0xffffffffffffffffffffffffffffffffffffffff\n  and\n  mul\n  or\n  swap1\n  sstore\n  pop\n    /* \"@openzeppelin/contracts/access/Ownable.sol\":2597:2605  newOwner */\n  dup2\n    /* \"@openzeppelin/contracts/access/Ownable.sol\":2566:2606  OwnershipTransferred(oldOwner, newOwner) */\n  0xffffffffffffffffffffffffffffffffffffffff\n  and\n    /* \"@openzeppelin/contracts/access/Ownable.sol\":2587:2595  oldOwner */\n  dup2\n    /* \"@openzeppelin/contracts/access/Ownable.sol\":2566:2606  OwnershipTransferred(oldOwner, newOwner) */\n  0xffffffffffffffffffffffffffffffffffffffff\n  and\n  0x8be0079c531659141344cd1fd0a4f28419497f9722a3daafe3b4186f6b6457e0\n  mload(0x40)\n  mload(0x40)\n  dup1\n  swap2\n  sub\n  swap1\n  log3\n    /* \"@openzeppelin/contracts/access/Ownable.sol\":2489:2613  {... */\n  pop\n    /* \"@openzeppelin/contracts/access/Ownable.sol\":2426:2613  function _transferOwnership(address newOwner) internal virtual {... */\n  pop\n  jump\t// out\n    /* \"#utility.yul\":88:205   */\ntag_16:\n    /* \"#utility.yul\":197:198   */\n  0x00\n    /* \"#utility.yul\":194:195   */\n  dup1\n    /* \"#utility.yul\":187:199   */\n  revert\n    /* \"#utility.yul\":334:460   */\ntag_18:\n    /* \"#utility.yul\":371:378   */\n  0x00\n    /* \"#utility.yul\":411:453   */\n  0xffffffffffffffffffffffffffffffffffffffff\n    /* \"#utility.yul\":404:409   */\n  dup3\n    /* \"#utility.yul\":400:454   */\n  and\n    /* \"#utility.yul\":389:454   */\n  swap1\n  pop\n    /* \"#utility.yul\":334:460   */\n  swap2\n  swap1\n  pop\n  jump\t// out\n    /* \"#utility.yul\":466:562   */\ntag_19:\n    /* \"#utility.yul\":503:510   */\n  0x00\n    /* \"#utility.yul\":532:556   */\n  tag_31\n    /* \"#utility.yul\":550:555   */\n  dup3\n    /* \"#utility.yul\":532:556   */\n  tag_18\n  jump\t// in\ntag_31:\n    /* \"#utility.yul\":521:556   */\n  swap1\n  pop\n    /* \"#utility.yul\":466:562   */\n  swap2\n  swap1\n  pop\n  jump\t// out\n    /* \"#utility.yul\":568:690   */\ntag_20:\n    /* \"#utility.yul\":641:665   */\n  tag_33\n    /* \"#utility.yul\":659:664   */\n  dup2\n    /* \"#utility.yul\":641:665   */\n  tag_19\n  jump\t// in\ntag_33:\n    /* \"#utility.yul\":634:639   */\n  dup2\n    /* \"#utility.yul\":631:666   */\n  eq\n    /* \"#utility.yul\":621:684   */\n  tag_34\n  jumpi\n    /* \"#utility.yul\":680:681   */\n  0x00\n    /* \"#utility.yul\":677:678   */\n  dup1\n    /* \"#utility.yul\":670:682   */\n  revert\n    /* \"#utility.yul\":621:684   */\ntag_34:\n    /* \"#utility.yul\":568:690   */\n  pop\n  jump\t// out\n    /* \"#utility.yul\":696:839   */\ntag_21:\n    /* \"#utility.yul\":753:758   */\n  0x00\n    /* \"#utility.yul\":784:790   */\n  dup2\n    /* \"#utility.yul\":778:791   */\n  mload\n    /* \"#utility.yul\":769:791   */\n  swap1\n  pop\n    /* \"#utility.yul\":800:833   */\n  tag_36\n    /* \"#utility.yul\":827:832   */\n  dup2\n    /* \"#utility.yul\":800:833   */\n  tag_20\n  jump\t// in\ntag_36:\n    /* \"#utility.yul\":696:839   */\n  swap3\n  swap2\n  pop\n  pop\n  jump\t// out\n    /* \"#utility.yul\":845:922   */\ntag_22:\n    /* \"#utility.yul\":882:889   */\n  0x00\n    /* \"#utility.yul\":911:916   */\n  dup2\n    /* \"#utility.yul\":900:916   */\n  swap1\n  pop\n    /* \"#utility.yul\":845:922   */\n  swap2\n  swap1\n  pop\n  jump\t// out\n    /* \"#utility.yul\":928:1050   */\ntag_23:\n    /* \"#utility.yul\":1001:1025   */\n  tag_39\n    /* \"#utility.yul\":1019:1024   */\n  dup2\n    /* \"#utility.yul\":1001:1025   */\n  tag_22\n  jump\t// in\ntag_39:\n    /* \"#utility.yul\":994:999   */\n  dup2\n    /* \"#utility.yul\":991:1026   */\n  eq\n    /* \"#utility.yul\":981:1044   */\n  tag_40\n  jumpi\n    /* \"#utility.yul\":1040:1041   */\n  0x00\n    /* \"#utility.yul\":1037:1038   */\n  dup1\n    /* \"#utility.yul\":1030:1042   */\n  revert\n    /* \"#utility.yul\":981:1044   */\ntag_40:\n    /* \"#utility.yul\":928:1050   */\n  pop\n  jump\t// out\n    /* \"#utility.yul\":1056:1199   */\ntag_24:\n    /* \"#utility.yul\":1113:1118   */\n  0x00\n    /* \"#utility.yul\":1144:1150   */\n  dup2\n    /* \"#utility.yul\":1138:1151   */\n  mload\n    /* \"#utility.yul\":1129:1151   */\n  swap1\n  pop\n    /* \"#utility.yul\":1160:1193   */\n  tag_42\n    /* \"#utility.yul\":1187:1192   */\n  dup2\n    /* \"#utility.yul\":1160:1193   */\n  tag_23\n  jump\t// in\ntag_42:\n    /* \"#utility.yul\":1056:1199   */\n  swap3\n  swap2\n  pop\n  pop\n  jump\t// out\n    /* \"#utility.yul\":1205:1712   */\ntag_3:\n    /* \"#utility.yul\":1284:1290   */\n  0x00\n    /* \"#utility.yul\":1292:1298   */\n  dup1\n    /* \"#utility.yul\":1341:1343   */\n  0x40\n    /* \"#utility.yul\":1329:1338   */\n  dup4\n    /* \"#utility.yul\":1320:1327   */\n  dup6\n    /* \"#utility.yul\":1316:1339   */\n  sub\n    /* \"#utility.yul\":1312:1344   */\n  slt\n    /* \"#utility.yul\":1309:1428   */\n  iszero\n  tag_44\n  jumpi\n    /* \"#utility.yul\":1347:1426   */\n  tag_45\n  tag_16\n  jump\t// in\ntag_45:\n    /* \"#utility.yul\":1309:1428   */\ntag_44:\n    /* \"#utility.yul\":1467:1468   */\n  0x00\n    /* \"#utility.yul\":1492:1556   */\n  tag_46\n    /* \"#utility.yul\":1548:1555   */\n  dup6\n    /* \"#utility.yul\":1539:1545   */\n  dup3\n    /* \"#utility.yul\":1528:1537   */\n  dup7\n    /* \"#utility.yul\":1524:1546   */\n  add\n    /* \"#utility.yul\":1492:1556   */\n  tag_21\n  jump\t// in\ntag_46:\n    /* \"#utility.yul\":1482:1556   */\n  swap3\n  pop\n    /* \"#utility.yul\":1438:1566   */\n  pop\n    /* \"#utility.yul\":1605:1607   */\n  0x20\n    /* \"#utility.yul\":1631:1695   */\n  tag_47\n    /* \"#utility.yul\":1687:1694   */\n  dup6\n    /* \"#utility.yul\":1678:1684   */\n  dup3\n    /* \"#utility.yul\":1667:1676   */\n  dup7\n    /* \"#utility.yul\":1663:1685   */\n  add\n    /* \"#utility.yul\":1631:1695   */\n  tag_24\n  jump\t// in\ntag_47:\n    /* \"#utility.yul\":1621:1695   */\n  swap2\n  pop\n    /* \"#utility.yul\":1576:1705   */\n  pop\n    /* \"#utility.yul\":1205:1712   */\n  swap3\n  pop\n  swap3\n  swap1\n  pop\n  jump\t// out\n    /* \"teste2.sol\":296:3109  contract NFTMarketplace is Ownable, IERC721Receiver {... */\ntag_12:\n  dataSize(sub_0)\n  dup1\n  dataOffset(sub_0)\n  0x00\n  codecopy\n  0x00\n  return\nstop\n\nsub_0: assembly {\n        /* \"teste2.sol\":296:3109  contract NFTMarketplace is Ownable, IERC721Receiver {... */\n      mstore(0x40, 0x80)\n      jumpi(tag_1, lt(calldatasize, 0x04))\n      shr(0xe0, calldataload(0x00))\n      dup1\n      0xb5f522f7\n      gt\n      tag_13\n      jumpi\n      dup1\n      0xb5f522f7\n      eq\n      tag_7\n      jumpi\n      dup1\n      0xbd94b005\n      eq\n      tag_8\n      jumpi\n      dup1\n      0xbdde7897\n      eq\n      tag_9\n      jumpi\n      dup1\n      0xd96a094a\n      eq\n      tag_10\n      jumpi\n      dup1\n      0xddca3f43\n      eq\n      tag_11\n      jumpi\n      dup1\n      0xf2fde38b\n      eq\n      tag_12\n      jumpi\n      jump(tag_1)\n    tag_13:\n      dup1\n      0x150b7a02\n      eq\n      tag_2\n      jumpi\n      dup1\n      0x47ccca02\n      eq\n      tag_3\n      jumpi\n      dup1\n      0x6019061b\n      eq\n      tag_4\n      jumpi\n      dup1\n      0x715018a6\n      eq\n      tag_5\n      jumpi\n      dup1\n      0x8da5cb5b\n      eq\n      tag_6\n      jumpi\n    tag_1:\n      0x00\n      dup1\n      revert\n        /* \"teste2.sol\":2945:3107  function onERC721Received(address, address, uint256, bytes memory) public virtual override returns (bytes4) {... */\n    tag_2:\n      callvalue\n      dup1\n      iszero\n      tag_14\n      jumpi\n      0x00\n      dup1\n      revert\n    tag_14:\n      pop\n      tag_15\n      0x04\n      dup1\n      calldatasize\n      sub\n      dup2\n      add\n      swap1\n      tag_16\n      swap2\n      swap1\n      tag_17\n      jump\t// in\n    tag_16:\n      tag_18\n      jump\t// in\n    tag_15:\n      mload(0x40)\n      tag_19\n      swap2\n      swap1\n      tag_20\n      jump\t// in\n    tag_19:\n      mload(0x40)\n      dup1\n      swap2\n      sub\n      swap1\n      return\n        /* \"teste2.sol\":505:523  IERC721 public nft */\n    tag_3:\n      callvalue\n      dup1\n      iszero\n      tag_21\n      jumpi\n      0x00\n      dup1\n      revert\n    tag_21:\n      pop\n      tag_22\n      tag_23\n      jump\t// in\n    tag_22:\n      mload(0x40)\n      tag_24\n      swap2\n      swap1\n      tag_25\n      jump\t// in\n    tag_24:\n      mload(0x40)\n      dup1\n      swap2\n      sub\n      swap1\n      return\n        /* \"teste2.sol\":988:1566  function createSale(uint256 _tokenId, uint256 _price) external {... */\n    tag_4:\n      callvalue\n      dup1\n      iszero\n      tag_26\n      jumpi\n      0x00\n      dup1\n      revert\n    tag_26:\n      pop\n      tag_27\n      0x04\n      dup1\n      calldatasize\n      sub\n      dup2\n      add\n      swap1\n      tag_28\n      swap2\n      swap1\n      tag_29\n      jump\t// in\n    tag_28:\n      tag_30\n      jump\t// in\n    tag_27:\n      stop\n        /* \"@openzeppelin/contracts/access/Ownable.sol\":1824:1925  function renounceOwnership() public virtual onlyOwner {... */\n    tag_5:\n      callvalue\n      dup1\n      iszero\n      tag_31\n      jumpi\n      0x00\n      dup1\n      revert\n    tag_31:\n      pop\n      tag_32\n      tag_33\n      jump\t// in\n    tag_32:\n      stop\n        /* \"@openzeppelin/contracts/access/Ownable.sol\":1201:1286  function owner() public view virtual returns (address) {... */\n    tag_6:\n      callvalue\n      dup1\n      iszero\n      tag_34\n      jumpi\n      0x00\n      dup1\n      revert\n    tag_34:\n      pop\n      tag_35\n      tag_36\n      jump\t// in\n    tag_35:\n      mload(0x40)\n      tag_37\n      swap2\n      swap1\n      tag_38\n      jump\t// in\n    tag_37:\n      mload(0x40)\n      dup1\n      swap2\n      sub\n      swap1\n      return\n        /* \"teste2.sol\":553:590  mapping(uint256 => Sale) public sales */\n    tag_7:\n      callvalue\n      dup1\n      iszero\n      tag_39\n      jumpi\n      0x00\n      dup1\n      revert\n    tag_39:\n      pop\n      tag_40\n      0x04\n      dup1\n      calldatasize\n      sub\n      dup2\n      add\n      swap1\n      tag_41\n      swap2\n      swap1\n      tag_42\n      jump\t// in\n    tag_41:\n      tag_43\n      jump\t// in\n    tag_40:\n      mload(0x40)\n      tag_44\n      swap5\n      swap4\n      swap3\n      swap2\n      swap1\n      tag_45\n      jump\t// in\n    tag_44:\n      mload(0x40)\n      dup1\n      swap2\n      sub\n      swap1\n      return\n        /* \"teste2.sol\":1955:2306  function cancelSale(uint256 _tokenId) external {... */\n    tag_8:\n      callvalue\n      dup1\n      iszero\n      tag_46\n      jumpi\n      0x00\n      dup1\n      revert\n    tag_46:\n      pop\n      tag_47\n      0x04\n      dup1\n      calldatasize\n      sub\n      dup2\n      add\n      swap1\n      tag_48\n      swap2\n      swap1\n      tag_42\n      jump\t// in\n    tag_48:\n      tag_49\n      jump\t// in\n    tag_47:\n      stop\n        /* \"teste2.sol\":1572:1949  function updateSale(uint256 _tokenId, uint256 _price) external {... */\n    tag_9:\n      callvalue\n      dup1\n      iszero\n      tag_50\n      jumpi\n      0x00\n      dup1\n      revert\n    tag_50:\n      pop\n      tag_51\n      0x04\n      dup1\n      calldatasize\n      sub\n      dup2\n      add\n      swap1\n      tag_52\n      swap2\n      swap1\n      tag_29\n      jump\t// in\n    tag_52:\n      tag_53\n      jump\t// in\n    tag_51:\n      stop\n        /* \"teste2.sol\":2312:2939  function buy(uint256 _tokenId) external payable {... */\n    tag_10:\n      tag_54\n      0x04\n      dup1\n      calldatasize\n      sub\n      dup2\n      add\n      swap1\n      tag_55\n      swap2\n      swap1\n      tag_42\n      jump\t// in\n    tag_55:\n      tag_56\n      jump\t// in\n    tag_54:\n      stop\n        /* \"teste2.sol\":529:547  uint256 public fee */\n    tag_11:\n      callvalue\n      dup1\n      iszero\n      tag_57\n      jumpi\n      0x00\n      dup1\n      revert\n    tag_57:\n      pop\n      tag_58\n      tag_59\n      jump\t// in\n    tag_58:\n      mload(0x40)\n      tag_60\n      swap2\n      swap1\n      tag_61\n      jump\t// in\n    tag_60:\n      mload(0x40)\n      dup1\n      swap2\n      sub\n      swap1\n      return\n        /* \"@openzeppelin/contracts/access/Ownable.sol\":2074:2272  function transferOwnership(address newOwner) public virtual onlyOwner {... */\n    tag_12:\n      callvalue\n      dup1\n      iszero\n      tag_62\n      jumpi\n      0x00\n      dup1\n      revert\n    tag_62:\n      pop\n      tag_63\n      0x04\n      dup1\n      calldatasize\n      sub\n      dup2\n      add\n      swap1\n      tag_64\n      swap2\n      swap1\n      tag_65\n      jump\t// in\n    tag_64:\n      tag_66\n      jump\t// in\n    tag_63:\n      stop\n        /* \"teste2.sol\":2945:3107  function onERC721Received(address, address, uint256, bytes memory) public virtual override returns (bytes4) {... */\n    tag_18:\n        /* \"teste2.sol\":3045:3051  bytes4 */\n      0x00\n        /* \"teste2.sol\":3070:3100  this.onERC721Received.selector */\n      shl(0xe0, 0x150b7a02)\n        /* \"teste2.sol\":3063:3100  return this.onERC721Received.selector */\n      swap1\n      pop\n        /* \"teste2.sol\":2945:3107  function onERC721Received(address, address, uint256, bytes memory) public virtual override returns (bytes4) {... */\n      swap5\n      swap4\n      pop\n      pop\n      pop\n      pop\n      jump\t// out\n        /* \"teste2.sol\":505:523  IERC721 public nft */\n    tag_23:\n      0x01\n      0x00\n      swap1\n      sload\n      swap1\n      0x0100\n      exp\n      swap1\n      div\n      0xffffffffffffffffffffffffffffffffffffffff\n      and\n      dup2\n      jump\t// out\n        /* \"teste2.sol\":988:1566  function createSale(uint256 _tokenId, uint256 _price) external {... */\n    tag_30:\n        /* \"teste2.sol\":1094:1104  msg.sender */\n      caller\n        /* \"teste2.sol\":1069:1104  nft.ownerOf(_tokenId) == msg.sender */\n      0xffffffffffffffffffffffffffffffffffffffff\n      and\n        /* \"teste2.sol\":1069:1072  nft */\n      0x01\n      0x00\n      swap1\n      sload\n      swap1\n      0x0100\n      exp\n      swap1\n      div\n      0xffffffffffffffffffffffffffffffffffffffff\n      and\n        /* \"teste2.sol\":1069:1080  nft.ownerOf */\n      0xffffffffffffffffffffffffffffffffffffffff\n      and\n      0x6352211e\n        /* \"teste2.sol\":1081:1089  _tokenId */\n      dup5\n        /* \"teste2.sol\":1069:1090  nft.ownerOf(_tokenId) */\n      mload(0x40)\n      dup3\n      0xffffffff\n      and\n      0xe0\n      shl\n      dup2\n      mstore\n      0x04\n      add\n      tag_69\n      swap2\n      swap1\n      tag_61\n      jump\t// in\n    tag_69:\n      0x20\n      mload(0x40)\n      dup1\n      dup4\n      sub\n      dup2\n      dup7\n      gas\n      staticcall\n      iszero\n      dup1\n      iszero\n      tag_71\n      jumpi\n      returndatasize\n      0x00\n      dup1\n      returndatacopy\n      revert(0x00, returndatasize)\n    tag_71:\n      pop\n      pop\n      pop\n      pop\n      mload(0x40)\n      returndatasize\n      not(0x1f)\n      0x1f\n      dup3\n      add\n      and\n      dup3\n      add\n      dup1\n      0x40\n      mstore\n      pop\n      dup2\n      add\n      swap1\n      tag_72\n      swap2\n      swap1\n      tag_73\n      jump\t// in\n    tag_72:\n        /* \"teste2.sol\":1069:1104  nft.ownerOf(_tokenId) == msg.sender */\n      0xffffffffffffffffffffffffffffffffffffffff\n      and\n      eq\n        /* \"teste2.sol\":1061:1141  require(nft.ownerOf(_tokenId) == msg.sender, \"Only the owner can create a sale\") */\n      tag_74\n      jumpi\n      mload(0x40)\n      0x08c379a000000000000000000000000000000000000000000000000000000000\n      dup2\n      mstore\n      0x04\n      add\n      tag_75\n      swap1\n      tag_76\n      jump\t// in\n    tag_75:\n      mload(0x40)\n      dup1\n      swap2\n      sub\n      swap1\n      revert\n    tag_74:\n        /* \"teste2.sol\":1168:1169  0 */\n      0x00\n        /* \"teste2.sol\":1159:1165  _price */\n      dup2\n        /* \"teste2.sol\":1159:1169  _price > 0 */\n      gt\n        /* \"teste2.sol\":1151:1205  require(_price > 0, \"Price must be greater than zero\") */\n      tag_77\n      jumpi\n      mload(0x40)\n      0x08c379a000000000000000000000000000000000000000000000000000000000\n      dup2\n      mstore\n      0x04\n      add\n      tag_78\n      swap1\n      tag_79\n      jump\t// in\n    tag_78:\n      mload(0x40)\n      dup1\n      swap2\n      sub\n      swap1\n      revert\n    tag_77:\n        /* \"teste2.sol\":1224:1229  sales */\n      0x03\n        /* \"teste2.sol\":1224:1239  sales[_tokenId] */\n      0x00\n        /* \"teste2.sol\":1230:1238  _tokenId */\n      dup4\n        /* \"teste2.sol\":1224:1239  sales[_tokenId] */\n      dup2\n      mstore\n      0x20\n      add\n      swap1\n      dup2\n      mstore\n      0x20\n      add\n      0x00\n      keccak256\n        /* \"teste2.sol\":1224:1246  sales[_tokenId].active */\n      0x03\n      add\n      0x00\n      swap1\n      sload\n      swap1\n      0x0100\n      exp\n      swap1\n      div\n      0xff\n      and\n        /* \"teste2.sol\":1223:1246  !sales[_tokenId].active */\n      iszero\n        /* \"teste2.sol\":1215:1273  require(!sales[_tokenId].active, \"Sale is already active\") */\n      tag_80\n      jumpi\n      mload(0x40)\n      0x08c379a000000000000000000000000000000000000000000000000000000000\n      dup2\n      mstore\n      0x04\n      add\n      tag_81\n      swap1\n      tag_82\n      jump\t// in\n    tag_81:\n      mload(0x40)\n      dup1\n      swap2\n      sub\n      swap1\n      revert\n    tag_80:\n        /* \"teste2.sol\":1284:1287  nft */\n      0x01\n      0x00\n      swap1\n      sload\n      swap1\n      0x0100\n      exp\n      swap1\n      div\n      0xffffffffffffffffffffffffffffffffffffffff\n      and\n        /* \"teste2.sol\":1284:1304  nft.safeTransferFrom */\n      0xffffffffffffffffffffffffffffffffffffffff\n      and\n      0x42842e0e\n        /* \"teste2.sol\":1305:1315  msg.sender */\n      caller\n        /* \"teste2.sol\":1325:1329  this */\n      address\n        /* \"teste2.sol\":1332:1340  _tokenId */\n      dup6\n        /* \"teste2.sol\":1284:1341  nft.safeTransferFrom(msg.sender, address(this), _tokenId) */\n      mload(0x40)\n      dup5\n      0xffffffff\n      and\n      0xe0\n      shl\n      dup2\n      mstore\n      0x04\n      add\n      tag_83\n      swap4\n      swap3\n      swap2\n      swap1\n      tag_84\n      jump\t// in\n    tag_83:\n      0x00\n      mload(0x40)\n      dup1\n      dup4\n      sub\n      dup2\n      0x00\n      dup8\n      dup1\n      extcodesize\n      iszero\n      dup1\n      iszero\n      tag_85\n      jumpi\n      0x00\n      dup1\n      revert\n    tag_85:\n      pop\n      gas\n      call\n      iszero\n      dup1\n      iszero\n      tag_87\n      jumpi\n      returndatasize\n      0x00\n      dup1\n      returndatacopy\n      revert(0x00, returndatasize)\n    tag_87:\n      pop\n      pop\n      pop\n      pop\n        /* \"teste2.sol\":1370:1502  Sale({... */\n      mload(0x40)\n      dup1\n      0x80\n      add\n      0x40\n      mstore\n      dup1\n        /* \"teste2.sol\":1397:1407  msg.sender */\n      caller\n        /* \"teste2.sol\":1370:1502  Sale({... */\n      0xffffffffffffffffffffffffffffffffffffffff\n      and\n      dup2\n      mstore\n      0x20\n      add\n        /* \"teste2.sol\":1430:1438  _tokenId */\n      dup4\n        /* \"teste2.sol\":1370:1502  Sale({... */\n      dup2\n      mstore\n      0x20\n      add\n        /* \"teste2.sol\":1459:1465  _price */\n      dup3\n        /* \"teste2.sol\":1370:1502  Sale({... */\n      dup2\n      mstore\n      0x20\n      add\n        /* \"teste2.sol\":1487:1491  true */\n      0x01\n        /* \"teste2.sol\":1370:1502  Sale({... */\n      iszero\n      iszero\n      dup2\n      mstore\n      pop\n        /* \"teste2.sol\":1352:1357  sales */\n      0x03\n        /* \"teste2.sol\":1352:1367  sales[_tokenId] */\n      0x00\n        /* \"teste2.sol\":1358:1366  _tokenId */\n      dup5\n        /* \"teste2.sol\":1352:1367  sales[_tokenId] */\n      dup2\n      mstore\n      0x20\n      add\n      swap1\n      dup2\n      mstore\n      0x20\n      add\n      0x00\n      keccak256\n        /* \"teste2.sol\":1352:1502  sales[_tokenId] = Sale({... */\n      0x00\n      dup3\n      add\n      mload\n      dup2\n      0x00\n      add\n      exp(0x0100, 0x00)\n      dup2\n      sload\n      dup2\n      0xffffffffffffffffffffffffffffffffffffffff\n      mul\n      not\n      and\n      swap1\n      dup4\n      0xffffffffffffffffffffffffffffffffffffffff\n      and\n      mul\n      or\n      swap1\n      sstore\n      pop\n      0x20\n      dup3\n      add\n      mload\n      dup2\n      0x01\n      add\n      sstore\n      0x40\n      dup3\n      add\n      mload\n      dup2\n      0x02\n      add\n      sstore\n      0x60\n      dup3\n      add\n      mload\n      dup2\n      0x03\n      add\n      exp(0x0100, 0x00)\n      dup2\n      sload\n      dup2\n      0xff\n      mul\n      not\n      and\n      swap1\n      dup4\n      iszero\n      iszero\n      mul\n      or\n      swap1\n      sstore\n      pop\n      swap1\n      pop\n      pop\n        /* \"teste2.sol\":1542:1550  _tokenId */\n      dup2\n        /* \"teste2.sol\":1530:1540  msg.sender */\n      caller\n        /* \"teste2.sol\":1518:1559  SaleCreated(msg.sender, _tokenId, _price) */\n      0xffffffffffffffffffffffffffffffffffffffff\n      and\n      0x2c5a9de64e99c2ab1b836ad03048ec0bef7c0a2af3dd947595c46274e50a7c82\n        /* \"teste2.sol\":1552:1558  _price */\n      dup4\n        /* \"teste2.sol\":1518:1559  SaleCreated(msg.sender, _tokenId, _price) */\n      mload(0x40)\n      tag_88\n      swap2\n      swap1\n      tag_61\n      jump\t// in\n    tag_88:\n      mload(0x40)\n      dup1\n      swap2\n      sub\n      swap1\n      log3\n        /* \"teste2.sol\":988:1566  function createSale(uint256 _tokenId, uint256 _price) external {... */\n      pop\n      pop\n      jump\t// out\n        /* \"@openzeppelin/contracts/access/Ownable.sol\":1824:1925  function renounceOwnership() public virtual onlyOwner {... */\n    tag_33:\n        /* \"@openzeppelin/contracts/access/Ownable.sol\":1094:1107  _checkOwner() */\n      tag_90\n        /* \"@openzeppelin/contracts/access/Ownable.sol\":1094:1105  _checkOwner */\n      tag_91\n        /* \"@openzeppelin/contracts/access/Ownable.sol\":1094:1107  _checkOwner() */\n      jump\t// in\n    tag_90:\n        /* \"@openzeppelin/contracts/access/Ownable.sol\":1888:1918  _transferOwnership(address(0)) */\n      tag_93\n        /* \"@openzeppelin/contracts/access/Ownable.sol\":1915:1916  0 */\n      0x00\n        /* \"@openzeppelin/contracts/access/Ownable.sol\":1888:1906  _transferOwnership */\n      tag_94\n        /* \"@openzeppelin/contracts/access/Ownable.sol\":1888:1918  _transferOwnership(address(0)) */\n      jump\t// in\n    tag_93:\n        /* \"@openzeppelin/contracts/access/Ownable.sol\":1824:1925  function renounceOwnership() public virtual onlyOwner {... */\n      jump\t// out\n        /* \"@openzeppelin/contracts/access/Ownable.sol\":1201:1286  function owner() public view virtual returns (address) {... */\n    tag_36:\n        /* \"@openzeppelin/contracts/access/Ownable.sol\":1247:1254  address */\n      0x00\n        /* \"@openzeppelin/contracts/access/Ownable.sol\":1273:1279  _owner */\n      dup1\n      0x00\n      swap1\n      sload\n      swap1\n      0x0100\n      exp\n      swap1\n      div\n      0xffffffffffffffffffffffffffffffffffffffff\n      and\n        /* \"@openzeppelin/contracts/access/Ownable.sol\":1266:1279  return _owner */\n      swap1\n      pop\n        /* \"@openzeppelin/contracts/access/Ownable.sol\":1201:1286  function owner() public view virtual returns (address) {... */\n      swap1\n      jump\t// out\n        /* \"teste2.sol\":553:590  mapping(uint256 => Sale) public sales */\n    tag_43:\n      mstore(0x20, 0x03)\n      dup1\n      0x00\n      mstore\n      keccak256(0x00, 0x40)\n      0x00\n      swap2\n      pop\n      swap1\n      pop\n      dup1\n      0x00\n      add\n      0x00\n      swap1\n      sload\n      swap1\n      0x0100\n      exp\n      swap1\n      div\n      0xffffffffffffffffffffffffffffffffffffffff\n      and\n      swap1\n      dup1\n      0x01\n      add\n      sload\n      swap1\n      dup1\n      0x02\n      add\n      sload\n      swap1\n      dup1\n      0x03\n      add\n      0x00\n      swap1\n      sload\n      swap1\n      0x0100\n      exp\n      swap1\n      div\n      0xff\n      and\n      swap1\n      pop\n      dup5\n      jump\t// out\n        /* \"teste2.sol\":1955:2306  function cancelSale(uint256 _tokenId) external {... */\n    tag_49:\n        /* \"teste2.sol\":2020:2025  sales */\n      0x03\n        /* \"teste2.sol\":2020:2035  sales[_tokenId] */\n      0x00\n        /* \"teste2.sol\":2026:2034  _tokenId */\n      dup3\n        /* \"teste2.sol\":2020:2035  sales[_tokenId] */\n      dup2\n      mstore\n      0x20\n      add\n      swap1\n      dup2\n      mstore\n      0x20\n      add\n      0x00\n      keccak256\n        /* \"teste2.sol\":2020:2042  sales[_tokenId].active */\n      0x03\n      add\n      0x00\n      swap1\n      sload\n      swap1\n      0x0100\n      exp\n      swap1\n      div\n      0xff\n      and\n        /* \"teste2.sol\":2012:2065  require(sales[_tokenId].active, \"Sale is not active\") */\n      tag_97\n      jumpi\n      mload(0x40)\n      0x08c379a000000000000000000000000000000000000000000000000000000000\n      dup2\n      mstore\n      0x04\n      add\n      tag_98\n      swap1\n      tag_99\n      jump\t// in\n    tag_98:\n      mload(0x40)\n      dup1\n      swap2\n      sub\n      swap1\n      revert\n    tag_97:\n        /* \"teste2.sol\":2109:2119  msg.sender */\n      caller\n        /* \"teste2.sol\":2083:2119  sales[_tokenId].seller == msg.sender */\n      0xffffffffffffffffffffffffffffffffffffffff\n      and\n        /* \"teste2.sol\":2083:2088  sales */\n      0x03\n        /* \"teste2.sol\":2083:2098  sales[_tokenId] */\n      0x00\n        /* \"teste2.sol\":2089:2097  _tokenId */\n      dup4\n        /* \"teste2.sol\":2083:2098  sales[_tokenId] */\n      dup2\n      mstore\n      0x20\n      add\n      swap1\n      dup2\n      mstore\n      0x20\n      add\n      0x00\n      keccak256\n        /* \"teste2.sol\":2083:2105  sales[_tokenId].seller */\n      0x00\n      add\n      0x00\n      swap1\n      sload\n      swap1\n      0x0100\n      exp\n      swap1\n      div\n      0xffffffffffffffffffffffffffffffffffffffff\n      and\n        /* \"teste2.sol\":2083:2119  sales[_tokenId].seller == msg.sender */\n      0xffffffffffffffffffffffffffffffffffffffff\n      and\n      eq\n        /* \"teste2.sol\":2075:2159  require(sales[_tokenId].seller == msg.sender, \"Only the seller can cancel the sale\") */\n      tag_100\n      jumpi\n      mload(0x40)\n      0x08c379a000000000000000000000000000000000000000000000000000000000\n      dup2\n      mstore\n      0x04\n      add\n      tag_101\n      swap1\n      tag_102\n      jump\t// in\n    tag_101:\n      mload(0x40)\n      dup1\n      swap2\n      sub\n      swap1\n      revert\n    tag_100:\n        /* \"teste2.sol\":2170:2173  nft */\n      0x01\n      0x00\n      swap1\n      sload\n      swap1\n      0x0100\n      exp\n      swap1\n      div\n      0xffffffffffffffffffffffffffffffffffffffff\n      and\n        /* \"teste2.sol\":2170:2190  nft.safeTransferFrom */\n      0xffffffffffffffffffffffffffffffffffffffff\n      and\n      0x42842e0e\n        /* \"teste2.sol\":2199:2203  this */\n      address\n        /* \"teste2.sol\":2206:2216  msg.sender */\n      caller\n        /* \"teste2.sol\":2218:2226  _tokenId */\n      dup5\n        /* \"teste2.sol\":2170:2227  nft.safeTransferFrom(address(this), msg.sender, _tokenId) */\n      mload(0x40)\n      dup5\n      0xffffffff\n      and\n      0xe0\n      shl\n      dup2\n      mstore\n      0x04\n      add\n      tag_103\n      swap4\n      swap3\n      swap2\n      swap1\n      tag_84\n      jump\t// in\n    tag_103:\n      0x00\n      mload(0x40)\n      dup1\n      dup4\n      sub\n      dup2\n      0x00\n      dup8\n      dup1\n      extcodesize\n      iszero\n      dup1\n      iszero\n      tag_104\n      jumpi\n      0x00\n      dup1\n      revert\n    tag_104:\n      pop\n      gas\n      call\n      iszero\n      dup1\n      iszero\n      tag_106\n      jumpi\n      returndatasize\n      0x00\n      dup1\n      returndatacopy\n      revert(0x00, returndatasize)\n    tag_106:\n      pop\n      pop\n      pop\n      pop\n        /* \"teste2.sol\":2245:2250  sales */\n      0x03\n        /* \"teste2.sol\":2245:2260  sales[_tokenId] */\n      0x00\n        /* \"teste2.sol\":2251:2259  _tokenId */\n      dup3\n        /* \"teste2.sol\":2245:2260  sales[_tokenId] */\n      dup2\n      mstore\n      0x20\n      add\n      swap1\n      dup2\n      mstore\n      0x20\n      add\n      0x00\n      keccak256\n      0x00\n        /* \"teste2.sol\":2238:2260  delete sales[_tokenId] */\n      dup1\n      dup3\n      add\n      exp(0x0100, 0x00)\n      dup2\n      sload\n      swap1\n      0xffffffffffffffffffffffffffffffffffffffff\n      mul\n      not\n      and\n      swap1\n      sstore\n      0x01\n      dup3\n      add\n      0x00\n      swap1\n      sstore\n      0x02\n      dup3\n      add\n      0x00\n      swap1\n      sstore\n      0x03\n      dup3\n      add\n      exp(0x0100, 0x00)\n      dup2\n      sload\n      swap1\n      0xff\n      mul\n      not\n      and\n      swap1\n      sstore\n      pop\n      pop\n        /* \"teste2.sol\":2290:2298  _tokenId */\n      dup1\n        /* \"teste2.sol\":2276:2299  SaleCancelled(_tokenId) */\n      0x2c56893f6f6026d19bd17b7d05c9f15c522de1ae2b1c3a825f91a73c799321f2\n      mload(0x40)\n      mload(0x40)\n      dup1\n      swap2\n      sub\n      swap1\n      log2\n        /* \"teste2.sol\":1955:2306  function cancelSale(uint256 _tokenId) external {... */\n      pop\n      jump\t// out\n        /* \"teste2.sol\":1572:1949  function updateSale(uint256 _tokenId, uint256 _price) external {... */\n    tag_53:\n        /* \"teste2.sol\":1653:1658  sales */\n      0x03\n        /* \"teste2.sol\":1653:1668  sales[_tokenId] */\n      0x00\n        /* \"teste2.sol\":1659:1667  _tokenId */\n      dup4\n        /* \"teste2.sol\":1653:1668  sales[_tokenId] */\n      dup2\n      mstore\n      0x20\n      add\n      swap1\n      dup2\n      mstore\n      0x20\n      add\n      0x00\n      keccak256\n        /* \"teste2.sol\":1653:1675  sales[_tokenId].active */\n      0x03\n      add\n      0x00\n      swap1\n      sload\n      swap1\n      0x0100\n      exp\n      swap1\n      div\n      0xff\n      and\n        /* \"teste2.sol\":1645:1698  require(sales[_tokenId].active, \"Sale is not active\") */\n      tag_108\n      jumpi\n      mload(0x40)\n      0x08c379a000000000000000000000000000000000000000000000000000000000\n      dup2\n      mstore\n      0x04\n      add\n      tag_109\n      swap1\n      tag_99\n      jump\t// in\n    tag_109:\n      mload(0x40)\n      dup1\n      swap2\n      sub\n      swap1\n      revert\n    tag_108:\n        /* \"teste2.sol\":1742:1752  msg.sender */\n      caller\n        /* \"teste2.sol\":1716:1752  sales[_tokenId].seller == msg.sender */\n      0xffffffffffffffffffffffffffffffffffffffff\n      and\n        /* \"teste2.sol\":1716:1721  sales */\n      0x03\n        /* \"teste2.sol\":1716:1731  sales[_tokenId] */\n      0x00\n        /* \"teste2.sol\":1722:1730  _tokenId */\n      dup5\n        /* \"teste2.sol\":1716:1731  sales[_tokenId] */\n      dup2\n      mstore\n      0x20\n      add\n      swap1\n      dup2\n      mstore\n      0x20\n      add\n      0x00\n      keccak256\n        /* \"teste2.sol\":1716:1738  sales[_tokenId].seller */\n      0x00\n      add\n      0x00\n      swap1\n      sload\n      swap1\n      0x0100\n      exp\n      swap1\n      div\n      0xffffffffffffffffffffffffffffffffffffffff\n      and\n        /* \"teste2.sol\":1716:1752  sales[_tokenId].seller == msg.sender */\n      0xffffffffffffffffffffffffffffffffffffffff\n      and\n      eq\n        /* \"teste2.sol\":1708:1792  require(sales[_tokenId].seller == msg.sender, \"Only the seller can update the sale\") */\n      tag_110\n      jumpi\n      mload(0x40)\n      0x08c379a000000000000000000000000000000000000000000000000000000000\n      dup2\n      mstore\n      0x04\n      add\n      tag_111\n      swap1\n      tag_112\n      jump\t// in\n    tag_111:\n      mload(0x40)\n      dup1\n      swap2\n      sub\n      swap1\n      revert\n    tag_110:\n        /* \"teste2.sol\":1819:1820  0 */\n      0x00\n        /* \"teste2.sol\":1810:1816  _price */\n      dup2\n        /* \"teste2.sol\":1810:1820  _price > 0 */\n      gt\n        /* \"teste2.sol\":1802:1856  require(_price > 0, \"Price must be greater than zero\") */\n      tag_113\n      jumpi\n      mload(0x40)\n      0x08c379a000000000000000000000000000000000000000000000000000000000\n      dup2\n      mstore\n      0x04\n      add\n      tag_114\n      swap1\n      tag_79\n      jump\t// in\n    tag_114:\n      mload(0x40)\n      dup1\n      swap2\n      sub\n      swap1\n      revert\n    tag_113:\n        /* \"teste2.sol\":1891:1897  _price */\n      dup1\n        /* \"teste2.sol\":1867:1872  sales */\n      0x03\n        /* \"teste2.sol\":1867:1882  sales[_tokenId] */\n      0x00\n        /* \"teste2.sol\":1873:1881  _tokenId */\n      dup5\n        /* \"teste2.sol\":1867:1882  sales[_tokenId] */\n      dup2\n      mstore\n      0x20\n      add\n      swap1\n      dup2\n      mstore\n      0x20\n      add\n      0x00\n      keccak256\n        /* \"teste2.sol\":1867:1888  sales[_tokenId].price */\n      0x02\n      add\n        /* \"teste2.sol\":1867:1897  sales[_tokenId].price = _price */\n      dup2\n      swap1\n      sstore\n      pop\n        /* \"teste2.sol\":1925:1933  _tokenId */\n      dup2\n        /* \"teste2.sol\":1913:1942  SaleUpdated(_tokenId, _price) */\n      0xeefe35a464293e437181813c2025f351aa0efedbb4ada5e147b74bb431c4fd96\n        /* \"teste2.sol\":1935:1941  _price */\n      dup3\n        /* \"teste2.sol\":1913:1942  SaleUpdated(_tokenId, _price) */\n      mload(0x40)\n      tag_115\n      swap2\n      swap1\n      tag_61\n      jump\t// in\n    tag_115:\n      mload(0x40)\n      dup1\n      swap2\n      sub\n      swap1\n      log2\n        /* \"teste2.sol\":1572:1949  function updateSale(uint256 _tokenId, uint256 _price) external {... */\n      pop\n      pop\n      jump\t// out\n        /* \"teste2.sol\":2312:2939  function buy(uint256 _tokenId) external payable {... */\n    tag_56:\n        /* \"teste2.sol\":2378:2383  sales */\n      0x03\n        /* \"teste2.sol\":2378:2393  sales[_tokenId] */\n      0x00\n        /* \"teste2.sol\":2384:2392  _tokenId */\n      dup3\n        /* \"teste2.sol\":2378:2393  sales[_tokenId] */\n      dup2\n      mstore\n      0x20\n      add\n      swap1\n      dup2\n      mstore\n      0x20\n      add\n      0x00\n      keccak256\n        /* \"teste2.sol\":2378:2400  sales[_tokenId].active */\n      0x03\n      add\n      0x00\n      swap1\n      sload\n      swap1\n      0x0100\n      exp\n      swap1\n      div\n      0xff\n      and\n        /* \"teste2.sol\":2370:2423  require(sales[_tokenId].active, \"Sale is not active\") */\n      tag_117\n      jumpi\n      mload(0x40)\n      0x08c379a000000000000000000000000000000000000000000000000000000000\n      dup2\n      mstore\n      0x04\n      add\n      tag_118\n      swap1\n      tag_99\n      jump\t// in\n    tag_118:\n      mload(0x40)\n      dup1\n      swap2\n      sub\n      swap1\n      revert\n    tag_117:\n        /* \"teste2.sol\":2454:2459  sales */\n      0x03\n        /* \"teste2.sol\":2454:2469  sales[_tokenId] */\n      0x00\n        /* \"teste2.sol\":2460:2468  _tokenId */\n      dup3\n        /* \"teste2.sol\":2454:2469  sales[_tokenId] */\n      dup2\n      mstore\n      0x20\n      add\n      swap1\n      dup2\n      mstore\n      0x20\n      add\n      0x00\n      keccak256\n        /* \"teste2.sol\":2454:2475  sales[_tokenId].price */\n      0x02\n      add\n      sload\n        /* \"teste2.sol\":2441:2450  msg.value */\n      callvalue\n        /* \"teste2.sol\":2441:2475  msg.value >= sales[_tokenId].price */\n      lt\n      iszero\n        /* \"teste2.sol\":2433:2500  require(msg.value >= sales[_tokenId].price, \"Insufficient payment\") */\n      tag_119\n      jumpi\n      mload(0x40)\n      0x08c379a000000000000000000000000000000000000000000000000000000000\n      dup2\n      mstore\n      0x04\n      add\n      tag_120\n      swap1\n      tag_121\n      jump\t// in\n    tag_120:\n      mload(0x40)\n      dup1\n      swap2\n      sub\n      swap1\n      revert\n    tag_119:\n        /* \"teste2.sol\":2511:2533  address payable seller */\n      0x00\n        /* \"teste2.sol\":2544:2549  sales */\n      0x03\n        /* \"teste2.sol\":2544:2559  sales[_tokenId] */\n      0x00\n        /* \"teste2.sol\":2550:2558  _tokenId */\n      dup4\n        /* \"teste2.sol\":2544:2559  sales[_tokenId] */\n      dup2\n      mstore\n      0x20\n      add\n      swap1\n      dup2\n      mstore\n      0x20\n      add\n      0x00\n      keccak256\n        /* \"teste2.sol\":2544:2566  sales[_tokenId].seller */\n      0x00\n      add\n      0x00\n      swap1\n      sload\n      swap1\n      0x0100\n      exp\n      swap1\n      div\n      0xffffffffffffffffffffffffffffffffffffffff\n      and\n        /* \"teste2.sol\":2511:2567  address payable seller = payable(sales[_tokenId].seller) */\n      swap1\n      pop\n        /* \"teste2.sol\":2577:2594  uint256 feeAmount */\n      0x00\n        /* \"teste2.sol\":2597:2624  msg.value.mul(fee).div(100) */\n      tag_122\n        /* \"teste2.sol\":2620:2623  100 */\n      0x64\n        /* \"teste2.sol\":2597:2615  msg.value.mul(fee) */\n      tag_123\n        /* \"teste2.sol\":2611:2614  fee */\n      sload(0x02)\n        /* \"teste2.sol\":2597:2606  msg.value */\n      callvalue\n        /* \"teste2.sol\":2597:2610  msg.value.mul */\n      tag_124\n      swap1\n        /* \"teste2.sol\":2597:2615  msg.value.mul(fee) */\n      swap2\n      swap1\n      0xffffffff\n      and\n      jump\t// in\n    tag_123:\n        /* \"teste2.sol\":2597:2619  msg.value.mul(fee).div */\n      tag_125\n      swap1\n        /* \"teste2.sol\":2597:2624  msg.value.mul(fee).div(100) */\n      swap2\n      swap1\n      0xffffffff\n      and\n      jump\t// in\n    tag_122:\n        /* \"teste2.sol\":2577:2624  uint256 feeAmount = msg.value.mul(fee).div(100) */\n      swap1\n      pop\n        /* \"teste2.sol\":2634:2655  uint256 paymentAmount */\n      0x00\n        /* \"teste2.sol\":2658:2682  msg.value.sub(feeAmount) */\n      tag_126\n        /* \"teste2.sol\":2672:2681  feeAmount */\n      dup3\n        /* \"teste2.sol\":2658:2667  msg.value */\n      callvalue\n        /* \"teste2.sol\":2658:2671  msg.value.sub */\n      tag_127\n      swap1\n        /* \"teste2.sol\":2658:2682  msg.value.sub(feeAmount) */\n      swap2\n      swap1\n      0xffffffff\n      and\n      jump\t// in\n    tag_126:\n        /* \"teste2.sol\":2634:2682  uint256 paymentAmount = msg.value.sub(feeAmount) */\n      swap1\n      pop\n        /* \"teste2.sol\":2693:2699  seller */\n      dup3\n        /* \"teste2.sol\":2693:2708  seller.transfer */\n      0xffffffffffffffffffffffffffffffffffffffff\n      and\n        /* \"teste2.sol\":2693:2723  seller.transfer(paymentAmount) */\n      0x08fc\n        /* \"teste2.sol\":2709:2722  paymentAmount */\n      dup3\n        /* \"teste2.sol\":2693:2723  seller.transfer(paymentAmount) */\n      swap1\n      dup2\n      iszero\n      mul\n      swap1\n      mload(0x40)\n      0x00\n      mload(0x40)\n      dup1\n      dup4\n      sub\n      dup2\n      dup6\n      dup9\n      dup9\n      call\n      swap4\n      pop\n      pop\n      pop\n      pop\n      iszero\n      dup1\n      iszero\n      tag_129\n      jumpi\n      returndatasize\n      0x00\n      dup1\n      returndatacopy\n      revert(0x00, returndatasize)\n    tag_129:\n      pop\n        /* \"teste2.sol\":2741:2748  owner() */\n      tag_130\n        /* \"teste2.sol\":2741:2746  owner */\n      tag_36\n        /* \"teste2.sol\":2741:2748  owner() */\n      jump\t// in\n    tag_130:\n        /* \"teste2.sol\":2733:2758  payable(owner()).transfer */\n      0xffffffffffffffffffffffffffffffffffffffff\n      and\n        /* \"teste2.sol\":2733:2769  payable(owner()).transfer(feeAmount) */\n      0x08fc\n        /* \"teste2.sol\":2759:2768  feeAmount */\n      dup4\n        /* \"teste2.sol\":2733:2769  payable(owner()).transfer(feeAmount) */\n      swap1\n      dup2\n      iszero\n      mul\n      swap1\n      mload(0x40)\n      0x00\n      mload(0x40)\n      dup1\n      dup4\n      sub\n      dup2\n      dup6\n      dup9\n      dup9\n      call\n      swap4\n      pop\n      pop\n      pop\n      pop\n      iszero\n      dup1\n      iszero\n      tag_132\n      jumpi\n      returndatasize\n      0x00\n      dup1\n      returndatacopy\n      revert(0x00, returndatasize)\n    tag_132:\n      pop\n        /* \"teste2.sol\":2780:2783  nft */\n      0x01\n      0x00\n      swap1\n      sload\n      swap1\n      0x0100\n      exp\n      swap1\n      div\n      0xffffffffffffffffffffffffffffffffffffffff\n      and\n        /* \"teste2.sol\":2780:2800  nft.safeTransferFrom */\n      0xffffffffffffffffffffffffffffffffffffffff\n      and\n      0x42842e0e\n        /* \"teste2.sol\":2809:2813  this */\n      address\n        /* \"teste2.sol\":2816:2826  msg.sender */\n      caller\n        /* \"teste2.sol\":2828:2836  _tokenId */\n      dup8\n        /* \"teste2.sol\":2780:2837  nft.safeTransferFrom(address(this), msg.sender, _tokenId) */\n      mload(0x40)\n      dup5\n      0xffffffff\n      and\n      0xe0\n      shl\n      dup2\n      mstore\n      0x04\n      add\n      tag_133\n      swap4\n      swap3\n      swap2\n      swap1\n      tag_84\n      jump\t// in\n    tag_133:\n      0x00\n      mload(0x40)\n      dup1\n      dup4\n      sub\n      dup2\n      0x00\n      dup8\n      dup1\n      extcodesize\n      iszero\n      dup1\n      iszero\n      tag_134\n      jumpi\n      0x00\n      dup1\n      revert\n    tag_134:\n      pop\n      gas\n      call\n      iszero\n      dup1\n      iszero\n      tag_136\n      jumpi\n      returndatasize\n      0x00\n      dup1\n      returndatacopy\n      revert(0x00, returndatasize)\n    tag_136:\n      pop\n      pop\n      pop\n      pop\n        /* \"teste2.sol\":2855:2860  sales */\n      0x03\n        /* \"teste2.sol\":2855:2870  sales[_tokenId] */\n      0x00\n        /* \"teste2.sol\":2861:2869  _tokenId */\n      dup6\n        /* \"teste2.sol\":2855:2870  sales[_tokenId] */\n      dup2\n      mstore\n      0x20\n      add\n      swap1\n      dup2\n      mstore\n      0x20\n      add\n      0x00\n      keccak256\n      0x00\n        /* \"teste2.sol\":2848:2870  delete sales[_tokenId] */\n      dup1\n      dup3\n      add\n      exp(0x0100, 0x00)\n      dup2\n      sload\n      swap1\n      0xffffffffffffffffffffffffffffffffffffffff\n      mul\n      not\n      and\n      swap1\n      sstore\n      0x01\n      dup3\n      add\n      0x00\n      swap1\n      sstore\n      0x02\n      dup3\n      add\n      0x00\n      swap1\n      sstore\n      0x03\n      dup3\n      add\n      exp(0x0100, 0x00)\n      dup2\n      sload\n      swap1\n      0xff\n      mul\n      not\n      and\n      swap1\n      sstore\n      pop\n      pop\n        /* \"teste2.sol\":2912:2920  _tokenId */\n      dup4\n        /* \"teste2.sol\":2900:2910  msg.sender */\n      caller\n        /* \"teste2.sol\":2886:2932  SaleCompleted(msg.sender, _tokenId, msg.value) */\n      0xffffffffffffffffffffffffffffffffffffffff\n      and\n      0x7da028d6d698750b8ca8e37c78cf467b925fadc9daec0949597c76dd2dec8653\n        /* \"teste2.sol\":2922:2931  msg.value */\n      callvalue\n        /* \"teste2.sol\":2886:2932  SaleCompleted(msg.sender, _tokenId, msg.value) */\n      mload(0x40)\n      tag_137\n      swap2\n      swap1\n      tag_61\n      jump\t// in\n    tag_137:\n      mload(0x40)\n      dup1\n      swap2\n      sub\n      swap1\n      log3\n        /* \"teste2.sol\":2360:2939  {... */\n      pop\n      pop\n      pop\n        /* \"teste2.sol\":2312:2939  function buy(uint256 _tokenId) external payable {... */\n      pop\n      jump\t// out\n        /* \"teste2.sol\":529:547  uint256 public fee */\n    tag_59:\n      sload(0x02)\n      dup2\n      jump\t// out\n        /* \"@openzeppelin/contracts/access/Ownable.sol\":2074:2272  function transferOwnership(address newOwner) public virtual onlyOwner {... */\n    tag_66:\n        /* \"@openzeppelin/contracts/access/Ownable.sol\":1094:1107  _checkOwner() */\n      tag_139\n        /* \"@openzeppelin/contracts/access/Ownable.sol\":1094:1105  _checkOwner */\n      tag_91\n        /* \"@openzeppelin/contracts/access/Ownable.sol\":1094:1107  _checkOwner() */\n      jump\t// in\n    tag_139:\n        /* \"@openzeppelin/contracts/access/Ownable.sol\":2182:2183  0 */\n      0x00\n        /* \"@openzeppelin/contracts/access/Ownable.sol\":2162:2184  newOwner != address(0) */\n      0xffffffffffffffffffffffffffffffffffffffff\n      and\n        /* \"@openzeppelin/contracts/access/Ownable.sol\":2162:2170  newOwner */\n      dup2\n        /* \"@openzeppelin/contracts/access/Ownable.sol\":2162:2184  newOwner != address(0) */\n      0xffffffffffffffffffffffffffffffffffffffff\n      and\n      sub\n        /* \"@openzeppelin/contracts/access/Ownable.sol\":2154:2227  require(newOwner != address(0), \"Ownable: new owner is the zero address\") */\n      tag_141\n      jumpi\n      mload(0x40)\n      0x08c379a000000000000000000000000000000000000000000000000000000000\n      dup2\n      mstore\n      0x04\n      add\n      tag_142\n      swap1\n      tag_143\n      jump\t// in\n    tag_142:\n      mload(0x40)\n      dup1\n      swap2\n      sub\n      swap1\n      revert\n    tag_141:\n        /* \"@openzeppelin/contracts/access/Ownable.sol\":2237:2265  _transferOwnership(newOwner) */\n      tag_144\n        /* \"@openzeppelin/contracts/access/Ownable.sol\":2256:2264  newOwner */\n      dup2\n        /* \"@openzeppelin/contracts/access/Ownable.sol\":2237:2255  _transferOwnership */\n      tag_94\n        /* \"@openzeppelin/contracts/access/Ownable.sol\":2237:2265  _transferOwnership(newOwner) */\n      jump\t// in\n    tag_144:\n        /* \"@openzeppelin/contracts/access/Ownable.sol\":2074:2272  function transferOwnership(address newOwner) public virtual onlyOwner {... */\n      pop\n      jump\t// out\n        /* \"@openzeppelin/contracts/access/Ownable.sol\":1359:1489  function _checkOwner() internal view virtual {... */\n    tag_91:\n        /* \"@openzeppelin/contracts/access/Ownable.sol\":1433:1445  _msgSender() */\n      tag_146\n        /* \"@openzeppelin/contracts/access/Ownable.sol\":1433:1443  _msgSender */\n      tag_147\n        /* \"@openzeppelin/contracts/access/Ownable.sol\":1433:1445  _msgSender() */\n      jump\t// in\n    tag_146:\n        /* \"@openzeppelin/contracts/access/Ownable.sol\":1422:1445  owner() == _msgSender() */\n      0xffffffffffffffffffffffffffffffffffffffff\n      and\n        /* \"@openzeppelin/contracts/access/Ownable.sol\":1422:1429  owner() */\n      tag_148\n        /* \"@openzeppelin/contracts/access/Ownable.sol\":1422:1427  owner */\n      tag_36\n        /* \"@openzeppelin/contracts/access/Ownable.sol\":1422:1429  owner() */\n      jump\t// in\n    tag_148:\n        /* \"@openzeppelin/contracts/access/Ownable.sol\":1422:1445  owner() == _msgSender() */\n      0xffffffffffffffffffffffffffffffffffffffff\n      and\n      eq\n        /* \"@openzeppelin/contracts/access/Ownable.sol\":1414:1482  require(owner() == _msgSender(), \"Ownable: caller is not the owner\") */\n      tag_149\n      jumpi\n      mload(0x40)\n      0x08c379a000000000000000000000000000000000000000000000000000000000\n      dup2\n      mstore\n      0x04\n      add\n      tag_150\n      swap1\n      tag_151\n      jump\t// in\n    tag_150:\n      mload(0x40)\n      dup1\n      swap2\n      sub\n      swap1\n      revert\n    tag_149:\n        /* \"@openzeppelin/contracts/access/Ownable.sol\":1359:1489  function _checkOwner() internal view virtual {... */\n      jump\t// out\n        /* \"@openzeppelin/contracts/access/Ownable.sol\":2426:2613  function _transferOwnership(address newOwner) internal virtual {... */\n    tag_94:\n        /* \"@openzeppelin/contracts/access/Ownable.sol\":2499:2515  address oldOwner */\n      0x00\n        /* \"@openzeppelin/contracts/access/Ownable.sol\":2518:2524  _owner */\n      dup1\n      0x00\n      swap1\n      sload\n      swap1\n      0x0100\n      exp\n      swap1\n      div\n      0xffffffffffffffffffffffffffffffffffffffff\n      and\n        /* \"@openzeppelin/contracts/access/Ownable.sol\":2499:2524  address oldOwner = _owner */\n      swap1\n      pop\n        /* \"@openzeppelin/contracts/access/Ownable.sol\":2543:2551  newOwner */\n      dup2\n        /* \"@openzeppelin/contracts/access/Ownable.sol\":2534:2540  _owner */\n      0x00\n      dup1\n        /* \"@openzeppelin/contracts/access/Ownable.sol\":2534:2551  _owner = newOwner */\n      0x0100\n      exp\n      dup2\n      sload\n      dup2\n      0xffffffffffffffffffffffffffffffffffffffff\n      mul\n      not\n      and\n      swap1\n      dup4\n      0xffffffffffffffffffffffffffffffffffffffff\n      and\n      mul\n      or\n      swap1\n      sstore\n      pop\n        /* \"@openzeppelin/contracts/access/Ownable.sol\":2597:2605  newOwner */\n      dup2\n        /* \"@openzeppelin/contracts/access/Ownable.sol\":2566:2606  OwnershipTransferred(oldOwner, newOwner) */\n      0xffffffffffffffffffffffffffffffffffffffff\n      and\n        /* \"@openzeppelin/contracts/access/Ownable.sol\":2587:2595  oldOwner */\n      dup2\n        /* \"@openzeppelin/contracts/access/Ownable.sol\":2566:2606  OwnershipTransferred(oldOwner, newOwner) */\n      0xffffffffffffffffffffffffffffffffffffffff\n      and\n      0x8be0079c531659141344cd1fd0a4f28419497f9722a3daafe3b4186f6b6457e0\n      mload(0x40)\n      mload(0x40)\n      dup1\n      swap2\n      sub\n      swap1\n      log3\n        /* \"@openzeppelin/contracts/access/Ownable.sol\":2489:2613  {... */\n      pop\n        /* \"@openzeppelin/contracts/access/Ownable.sol\":2426:2613  function _transferOwnership(address newOwner) internal virtual {... */\n      pop\n      jump\t// out\n        /* \"@openzeppelin/contracts/utils/math/SafeMath.sol\":3465:3561  function mul(uint256 a, uint256 b) internal pure returns (uint256) {... */\n    tag_124:\n        /* \"@openzeppelin/contracts/utils/math/SafeMath.sol\":3523:3530  uint256 */\n      0x00\n        /* \"@openzeppelin/contracts/utils/math/SafeMath.sol\":3553:3554  b */\n      dup2\n        /* \"@openzeppelin/contracts/utils/math/SafeMath.sol\":3549:3550  a */\n      dup4\n        /* \"@openzeppelin/contracts/utils/math/SafeMath.sol\":3549:3554  a * b */\n      tag_154\n      swap2\n      swap1\n      tag_155\n      jump\t// in\n    tag_154:\n        /* \"@openzeppelin/contracts/utils/math/SafeMath.sol\":3542:3554  return a * b */\n      swap1\n      pop\n        /* \"@openzeppelin/contracts/utils/math/SafeMath.sol\":3465:3561  function mul(uint256 a, uint256 b) internal pure returns (uint256) {... */\n      swap3\n      swap2\n      pop\n      pop\n      jump\t// out\n        /* \"@openzeppelin/contracts/utils/math/SafeMath.sol\":3850:3946  function div(uint256 a, uint256 b) internal pure returns (uint256) {... */\n    tag_125:\n        /* \"@openzeppelin/contracts/utils/math/SafeMath.sol\":3908:3915  uint256 */\n      0x00\n        /* \"@openzeppelin/contracts/utils/math/SafeMath.sol\":3938:3939  b */\n      dup2\n        /* \"@openzeppelin/contracts/utils/math/SafeMath.sol\":3934:3935  a */\n      dup4\n        /* \"@openzeppelin/contracts/utils/math/SafeMath.sol\":3934:3939  a / b */\n      tag_157\n      swap2\n      swap1\n      tag_158\n      jump\t// in\n    tag_157:\n        /* \"@openzeppelin/contracts/utils/math/SafeMath.sol\":3927:3939  return a / b */\n      swap1\n      pop\n        /* \"@openzeppelin/contracts/utils/math/SafeMath.sol\":3850:3946  function div(uint256 a, uint256 b) internal pure returns (uint256) {... */\n      swap3\n      swap2\n      pop\n      pop\n      jump\t// out\n        /* \"@openzeppelin/contracts/utils/math/SafeMath.sol\":3122:3218  function sub(uint256 a, uint256 b) internal pure returns (uint256) {... */\n    tag_127:\n        /* \"@openzeppelin/contracts/utils/math/SafeMath.sol\":3180:3187  uint256 */\n      0x00\n        /* \"@openzeppelin/contracts/utils/math/SafeMath.sol\":3210:3211  b */\n      dup2\n        /* \"@openzeppelin/contracts/utils/math/SafeMath.sol\":3206:3207  a */\n      dup4\n        /* \"@openzeppelin/contracts/utils/math/SafeMath.sol\":3206:3211  a - b */\n      tag_160\n      swap2\n      swap1\n      tag_161\n      jump\t// in\n    tag_160:\n        /* \"@openzeppelin/contracts/utils/math/SafeMath.sol\":3199:3211  return a - b */\n      swap1\n      pop\n        /* \"@openzeppelin/contracts/utils/math/SafeMath.sol\":3122:3218  function sub(uint256 a, uint256 b) internal pure returns (uint256) {... */\n      swap3\n      swap2\n      pop\n      pop\n      jump\t// out\n        /* \"@openzeppelin/contracts/utils/Context.sol\":640:736  function _msgSender() internal view virtual returns (address) {... */\n    tag_147:\n        /* \"@openzeppelin/contracts/utils/Context.sol\":693:700  address */\n      0x00\n        /* \"@openzeppelin/contracts/utils/Context.sol\":719:729  msg.sender */\n      caller\n        /* \"@openzeppelin/contracts/utils/Context.sol\":712:729  return msg.sender */\n      swap1\n      pop\n        /* \"@openzeppelin/contracts/utils/Context.sol\":640:736  function _msgSender() internal view virtual returns (address) {... */\n      swap1\n      jump\t// out\n        /* \"#utility.yul\":7:82   */\n    tag_163:\n        /* \"#utility.yul\":40:46   */\n      0x00\n        /* \"#utility.yul\":73:75   */\n      0x40\n        /* \"#utility.yul\":67:76   */\n      mload\n        /* \"#utility.yul\":57:76   */\n      swap1\n      pop\n        /* \"#utility.yul\":7:82   */\n      swap1\n      jump\t// out\n        /* \"#utility.yul\":88:205   */\n    tag_164:\n        /* \"#utility.yul\":197:198   */\n      0x00\n        /* \"#utility.yul\":194:195   */\n      dup1\n        /* \"#utility.yul\":187:199   */\n      revert\n        /* \"#utility.yul\":211:328   */\n    tag_165:\n        /* \"#utility.yul\":320:321   */\n      0x00\n        /* \"#utility.yul\":317:318   */\n      dup1\n        /* \"#utility.yul\":310:322   */\n      revert\n        /* \"#utility.yul\":334:460   */\n    tag_166:\n        /* \"#utility.yul\":371:378   */\n      0x00\n        /* \"#utility.yul\":411:453   */\n      0xffffffffffffffffffffffffffffffffffffffff\n        /* \"#utility.yul\":404:409   */\n      dup3\n        /* \"#utility.yul\":400:454   */\n      and\n        /* \"#utility.yul\":389:454   */\n      swap1\n      pop\n        /* \"#utility.yul\":334:460   */\n      swap2\n      swap1\n      pop\n      jump\t// out\n        /* \"#utility.yul\":466:562   */\n    tag_167:\n        /* \"#utility.yul\":503:510   */\n      0x00\n        /* \"#utility.yul\":532:556   */\n      tag_222\n        /* \"#utility.yul\":550:555   */\n      dup3\n        /* \"#utility.yul\":532:556   */\n      tag_166\n      jump\t// in\n    tag_222:\n        /* \"#utility.yul\":521:556   */\n      swap1\n      pop\n        /* \"#utility.yul\":466:562   */\n      swap2\n      swap1\n      pop\n      jump\t// out\n        /* \"#utility.yul\":568:690   */\n    tag_168:\n        /* \"#utility.yul\":641:665   */\n      tag_224\n        /* \"#utility.yul\":659:664   */\n      dup2\n        /* \"#utility.yul\":641:665   */\n      tag_167\n      jump\t// in\n    tag_224:\n        /* \"#utility.yul\":634:639   */\n      dup2\n        /* \"#utility.yul\":631:666   */\n      eq\n        /* \"#utility.yul\":621:684   */\n      tag_225\n      jumpi\n        /* \"#utility.yul\":680:681   */\n      0x00\n        /* \"#utility.yul\":677:678   */\n      dup1\n        /* \"#utility.yul\":670:682   */\n      revert\n        /* \"#utility.yul\":621:684   */\n    tag_225:\n        /* \"#utility.yul\":568:690   */\n      pop\n      jump\t// out\n        /* \"#utility.yul\":696:835   */\n    tag_169:\n        /* \"#utility.yul\":742:747   */\n      0x00\n        /* \"#utility.yul\":780:786   */\n      dup2\n        /* \"#utility.yul\":767:787   */\n      calldataload\n        /* \"#utility.yul\":758:787   */\n      swap1\n      pop\n        /* \"#utility.yul\":796:829   */\n      tag_227\n        /* \"#utility.yul\":823:828   */\n      dup2\n        /* \"#utility.yul\":796:829   */\n      tag_168\n      jump\t// in\n    tag_227:\n        /* \"#utility.yul\":696:835   */\n      swap3\n      swap2\n      pop\n      pop\n      jump\t// out\n        /* \"#utility.yul\":841:918   */\n    tag_170:\n        /* \"#utility.yul\":878:885   */\n      0x00\n        /* \"#utility.yul\":907:912   */\n      dup2\n        /* \"#utility.yul\":896:912   */\n      swap1\n      pop\n        /* \"#utility.yul\":841:918   */\n      swap2\n      swap1\n      pop\n      jump\t// out\n        /* \"#utility.yul\":924:1046   */\n    tag_171:\n        /* \"#utility.yul\":997:1021   */\n      tag_230\n        /* \"#utility.yul\":1015:1020   */\n      dup2\n        /* \"#utility.yul\":997:1021   */\n      tag_170\n      jump\t// in\n    tag_230:\n        /* \"#utility.yul\":990:995   */\n      dup2\n        /* \"#utility.yul\":987:1022   */\n      eq\n        /* \"#utility.yul\":977:1040   */\n      tag_231\n      jumpi\n        /* \"#utility.yul\":1036:1037   */\n      0x00\n        /* \"#utility.yul\":1033:1034   */\n      dup1\n        /* \"#utility.yul\":1026:1038   */\n      revert\n        /* \"#utility.yul\":977:1040   */\n    tag_231:\n        /* \"#utility.yul\":924:1046   */\n      pop\n      jump\t// out\n        /* \"#utility.yul\":1052:1191   */\n    tag_172:\n        /* \"#utility.yul\":1098:1103   */\n      0x00\n        /* \"#utility.yul\":1136:1142   */\n      dup2\n        /* \"#utility.yul\":1123:1143   */\n      calldataload\n        /* \"#utility.yul\":1114:1143   */\n      swap1\n      pop\n        /* \"#utility.yul\":1152:1185   */\n      tag_233\n        /* \"#utility.yul\":1179:1184   */\n      dup2\n        /* \"#utility.yul\":1152:1185   */\n      tag_171\n      jump\t// in\n    tag_233:\n        /* \"#utility.yul\":1052:1191   */\n      swap3\n      swap2\n      pop\n      pop\n      jump\t// out\n        /* \"#utility.yul\":1197:1314   */\n    tag_173:\n        /* \"#utility.yul\":1306:1307   */\n      0x00\n        /* \"#utility.yul\":1303:1304   */\n      dup1\n        /* \"#utility.yul\":1296:1308   */\n      revert\n        /* \"#utility.yul\":1320:1437   */\n    tag_174:\n        /* \"#utility.yul\":1429:1430   */\n      0x00\n        /* \"#utility.yul\":1426:1427   */\n      dup1\n        /* \"#utility.yul\":1419:1431   */\n      revert\n        /* \"#utility.yul\":1443:1545   */\n    tag_175:\n        /* \"#utility.yul\":1484:1490   */\n      0x00\n        /* \"#utility.yul\":1535:1537   */\n      0x1f\n        /* \"#utility.yul\":1531:1538   */\n      not\n        /* \"#utility.yul\":1526:1528   */\n      0x1f\n        /* \"#utility.yul\":1519:1524   */\n      dup4\n        /* \"#utility.yul\":1515:1529   */\n      add\n        /* \"#utility.yul\":1511:1539   */\n      and\n        /* \"#utility.yul\":1501:1539   */\n      swap1\n      pop\n        /* \"#utility.yul\":1443:1545   */\n      swap2\n      swap1\n      pop\n      jump\t// out\n        /* \"#utility.yul\":1551:1731   */\n    tag_176:\n        /* \"#utility.yul\":1599:1676   */\n      0x4e487b7100000000000000000000000000000000000000000000000000000000\n        /* \"#utility.yul\":1596:1597   */\n      0x00\n        /* \"#utility.yul\":1589:1677   */\n      mstore\n        /* \"#utility.yul\":1696:1700   */\n      0x41\n        /* \"#utility.yul\":1693:1694   */\n      0x04\n        /* \"#utility.yul\":1686:1701   */\n      mstore\n        /* \"#utility.yul\":1720:1724   */\n      0x24\n        /* \"#utility.yul\":1717:1718   */\n      0x00\n        /* \"#utility.yul\":1710:1725   */\n      revert\n        /* \"#utility.yul\":1737:2018   */\n    tag_177:\n        /* \"#utility.yul\":1820:1847   */\n      tag_239\n        /* \"#utility.yul\":1842:1846   */\n      dup3\n        /* \"#utility.yul\":1820:1847   */\n      tag_175\n      jump\t// in\n    tag_239:\n        /* \"#utility.yul\":1812:1818   */\n      dup2\n        /* \"#utility.yul\":1808:1848   */\n      add\n        /* \"#utility.yul\":1950:1956   */\n      dup2\n        /* \"#utility.yul\":1938:1948   */\n      dup2\n        /* \"#utility.yul\":1935:1957   */\n      lt\n        /* \"#utility.yul\":1914:1932   */\n      0xffffffffffffffff\n        /* \"#utility.yul\":1902:1912   */\n      dup3\n        /* \"#utility.yul\":1899:1933   */\n      gt\n        /* \"#utility.yul\":1896:1958   */\n      or\n        /* \"#utility.yul\":1893:1981   */\n      iszero\n      tag_240\n      jumpi\n        /* \"#utility.yul\":1961:1979   */\n      tag_241\n      tag_176\n      jump\t// in\n    tag_241:\n        /* \"#utility.yul\":1893:1981   */\n    tag_240:\n        /* \"#utility.yul\":2001:2011   */\n      dup1\n        /* \"#utility.yul\":1997:1999   */\n      0x40\n        /* \"#utility.yul\":1990:2012   */\n      mstore\n        /* \"#utility.yul\":1780:2018   */\n      pop\n        /* \"#utility.yul\":1737:2018   */\n      pop\n      pop\n      jump\t// out\n        /* \"#utility.yul\":2024:2153   */\n    tag_178:\n        /* \"#utility.yul\":2058:2064   */\n      0x00\n        /* \"#utility.yul\":2085:2105   */\n      tag_243\n      tag_163\n      jump\t// in\n    tag_243:\n        /* \"#utility.yul\":2075:2105   */\n      swap1\n      pop\n        /* \"#utility.yul\":2114:2147   */\n      tag_244\n        /* \"#utility.yul\":2142:2146   */\n      dup3\n        /* \"#utility.yul\":2134:2140   */\n      dup3\n        /* \"#utility.yul\":2114:2147   */\n      tag_177\n      jump\t// in\n    tag_244:\n        /* \"#utility.yul\":2024:2153   */\n      swap2\n      swap1\n      pop\n      jump\t// out\n        /* \"#utility.yul\":2159:2466   */\n    tag_179:\n        /* \"#utility.yul\":2220:2224   */\n      0x00\n        /* \"#utility.yul\":2310:2328   */\n      0xffffffffffffffff\n        /* \"#utility.yul\":2302:2308   */\n      dup3\n        /* \"#utility.yul\":2299:2329   */\n      gt\n        /* \"#utility.yul\":2296:2352   */\n      iszero\n      tag_246\n      jumpi\n        /* \"#utility.yul\":2332:2350   */\n      tag_247\n      tag_176\n      jump\t// in\n    tag_247:\n        /* \"#utility.yul\":2296:2352   */\n    tag_246:\n        /* \"#utility.yul\":2370:2399   */\n      tag_248\n        /* \"#utility.yul\":2392:2398   */\n      dup3\n        /* \"#utility.yul\":2370:2399   */\n      tag_175\n      jump\t// in\n    tag_248:\n        /* \"#utility.yul\":2362:2399   */\n      swap1\n      pop\n        /* \"#utility.yul\":2454:2458   */\n      0x20\n        /* \"#utility.yul\":2448:2452   */\n      dup2\n        /* \"#utility.yul\":2444:2459   */\n      add\n        /* \"#utility.yul\":2436:2459   */\n      swap1\n      pop\n        /* \"#utility.yul\":2159:2466   */\n      swap2\n      swap1\n      pop\n      jump\t// out\n        /* \"#utility.yul\":2472:2618   */\n    tag_180:\n        /* \"#utility.yul\":2569:2575   */\n      dup3\n        /* \"#utility.yul\":2564:2567   */\n      dup2\n        /* \"#utility.yul\":2559:2562   */\n      dup4\n        /* \"#utility.yul\":2546:2576   */\n      calldatacopy\n        /* \"#utility.yul\":2610:2611   */\n      0x00\n        /* \"#utility.yul\":2601:2607   */\n      dup4\n        /* \"#utility.yul\":2596:2599   */\n      dup4\n        /* \"#utility.yul\":2592:2608   */\n      add\n        /* \"#utility.yul\":2585:2612   */\n      mstore\n        /* \"#utility.yul\":2472:2618   */\n      pop\n      pop\n      pop\n      jump\t// out\n        /* \"#utility.yul\":2624:3047   */\n    tag_181:\n        /* \"#utility.yul\":2701:2706   */\n      0x00\n        /* \"#utility.yul\":2726:2791   */\n      tag_251\n        /* \"#utility.yul\":2742:2790   */\n      tag_252\n        /* \"#utility.yul\":2783:2789   */\n      dup5\n        /* \"#utility.yul\":2742:2790   */\n      tag_179\n      jump\t// in\n    tag_252:\n        /* \"#utility.yul\":2726:2791   */\n      tag_178\n      jump\t// in\n    tag_251:\n        /* \"#utility.yul\":2717:2791   */\n      swap1\n      pop\n        /* \"#utility.yul\":2814:2820   */\n      dup3\n        /* \"#utility.yul\":2807:2812   */\n      dup2\n        /* \"#utility.yul\":2800:2821   */\n      mstore\n        /* \"#utility.yul\":2852:2856   */\n      0x20\n        /* \"#utility.yul\":2845:2850   */\n      dup2\n        /* \"#utility.yul\":2841:2857   */\n      add\n        /* \"#utility.yul\":2890:2893   */\n      dup5\n        /* \"#utility.yul\":2881:2887   */\n      dup5\n        /* \"#utility.yul\":2876:2879   */\n      dup5\n        /* \"#utility.yul\":2872:2888   */\n      add\n        /* \"#utility.yul\":2869:2894   */\n      gt\n        /* \"#utility.yul\":2866:2978   */\n      iszero\n      tag_253\n      jumpi\n        /* \"#utility.yul\":2897:2976   */\n      tag_254\n      tag_174\n      jump\t// in\n    tag_254:\n        /* \"#utility.yul\":2866:2978   */\n    tag_253:\n        /* \"#utility.yul\":2987:3041   */\n      tag_255\n        /* \"#utility.yul\":3034:3040   */\n      dup5\n        /* \"#utility.yul\":3029:3032   */\n      dup3\n        /* \"#utility.yul\":3024:3027   */\n      dup6\n        /* \"#utility.yul\":2987:3041   */\n      tag_180\n      jump\t// in\n    tag_255:\n        /* \"#utility.yul\":2707:3047   */\n      pop\n        /* \"#utility.yul\":2624:3047   */\n      swap4\n      swap3\n      pop\n      pop\n      pop\n      jump\t// out\n        /* \"#utility.yul\":3066:3404   */\n    tag_182:\n        /* \"#utility.yul\":3121:3126   */\n      0x00\n        /* \"#utility.yul\":3170:3173   */\n      dup3\n        /* \"#utility.yul\":3163:3167   */\n      0x1f\n        /* \"#utility.yul\":3155:3161   */\n      dup4\n        /* \"#utility.yul\":3151:3168   */\n      add\n        /* \"#utility.yul\":3147:3174   */\n      slt\n        /* \"#utility.yul\":3137:3259   */\n      tag_257\n      jumpi\n        /* \"#utility.yul\":3178:3257   */\n      tag_258\n      tag_173\n      jump\t// in\n    tag_258:\n        /* \"#utility.yul\":3137:3259   */\n    tag_257:\n        /* \"#utility.yul\":3295:3301   */\n      dup2\n        /* \"#utility.yul\":3282:3302   */\n      calldataload\n        /* \"#utility.yul\":3320:3398   */\n      tag_259\n        /* \"#utility.yul\":3394:3397   */\n      dup5\n        /* \"#utility.yul\":3386:3392   */\n      dup3\n        /* \"#utility.yul\":3379:3383   */\n      0x20\n        /* \"#utility.yul\":3371:3377   */\n      dup7\n        /* \"#utility.yul\":3367:3384   */\n      add\n        /* \"#utility.yul\":3320:3398   */\n      tag_181\n      jump\t// in\n    tag_259:\n        /* \"#utility.yul\":3311:3398   */\n      swap2\n      pop\n        /* \"#utility.yul\":3127:3404   */\n      pop\n        /* \"#utility.yul\":3066:3404   */\n      swap3\n      swap2\n      pop\n      pop\n      jump\t// out\n        /* \"#utility.yul\":3410:4353   */\n    tag_17:\n        /* \"#utility.yul\":3505:3511   */\n      0x00\n        /* \"#utility.yul\":3513:3519   */\n      dup1\n        /* \"#utility.yul\":3521:3527   */\n      0x00\n        /* \"#utility.yul\":3529:3535   */\n      dup1\n        /* \"#utility.yul\":3578:3581   */\n      0x80\n        /* \"#utility.yul\":3566:3575   */\n      dup6\n        /* \"#utility.yul\":3557:3564   */\n      dup8\n        /* \"#utility.yul\":3553:3576   */\n      sub\n        /* \"#utility.yul\":3549:3582   */\n      slt\n        /* \"#utility.yul\":3546:3666   */\n      iszero\n      tag_261\n      jumpi\n        /* \"#utility.yul\":3585:3664   */\n      tag_262\n      tag_164\n      jump\t// in\n    tag_262:\n        /* \"#utility.yul\":3546:3666   */\n    tag_261:\n        /* \"#utility.yul\":3705:3706   */\n      0x00\n        /* \"#utility.yul\":3730:3783   */\n      tag_263\n        /* \"#utility.yul\":3775:3782   */\n      dup8\n        /* \"#utility.yul\":3766:3772   */\n      dup3\n        /* \"#utility.yul\":3755:3764   */\n      dup9\n        /* \"#utility.yul\":3751:3773   */\n      add\n        /* \"#utility.yul\":3730:3783   */\n      tag_169\n      jump\t// in\n    tag_263:\n        /* \"#utility.yul\":3720:3783   */\n      swap5\n      pop\n        /* \"#utility.yul\":3676:3793   */\n      pop\n        /* \"#utility.yul\":3832:3834   */\n      0x20\n        /* \"#utility.yul\":3858:3911   */\n      tag_264\n        /* \"#utility.yul\":3903:3910   */\n      dup8\n        /* \"#utility.yul\":3894:3900   */\n      dup3\n        /* \"#utility.yul\":3883:3892   */\n      dup9\n        /* \"#utility.yul\":3879:3901   */\n      add\n        /* \"#utility.yul\":3858:3911   */\n      tag_169\n      jump\t// in\n    tag_264:\n        /* \"#utility.yul\":3848:3911   */\n      swap4\n      pop\n        /* \"#utility.yul\":3803:3921   */\n      pop\n        /* \"#utility.yul\":3960:3962   */\n      0x40\n        /* \"#utility.yul\":3986:4039   */\n      tag_265\n        /* \"#utility.yul\":4031:4038   */\n      dup8\n        /* \"#utility.yul\":4022:4028   */\n      dup3\n        /* \"#utility.yul\":4011:4020   */\n      dup9\n        /* \"#utility.yul\":4007:4029   */\n      add\n        /* \"#utility.yul\":3986:4039   */\n      tag_172\n      jump\t// in\n    tag_265:\n        /* \"#utility.yul\":3976:4039   */\n      swap3\n      pop\n        /* \"#utility.yul\":3931:4049   */\n      pop\n        /* \"#utility.yul\":4116:4118   */\n      0x60\n        /* \"#utility.yul\":4105:4114   */\n      dup6\n        /* \"#utility.yul\":4101:4119   */\n      add\n        /* \"#utility.yul\":4088:4120   */\n      calldataload\n        /* \"#utility.yul\":4147:4165   */\n      0xffffffffffffffff\n        /* \"#utility.yul\":4139:4145   */\n      dup2\n        /* \"#utility.yul\":4136:4166   */\n      gt\n        /* \"#utility.yul\":4133:4250   */\n      iszero\n      tag_266\n      jumpi\n        /* \"#utility.yul\":4169:4248   */\n      tag_267\n      tag_165\n      jump\t// in\n    tag_267:\n        /* \"#utility.yul\":4133:4250   */\n    tag_266:\n        /* \"#utility.yul\":4274:4336   */\n      tag_268\n        /* \"#utility.yul\":4328:4335   */\n      dup8\n        /* \"#utility.yul\":4319:4325   */\n      dup3\n        /* \"#utility.yul\":4308:4317   */\n      dup9\n        /* \"#utility.yul\":4304:4326   */\n      add\n        /* \"#utility.yul\":4274:4336   */\n      tag_182\n      jump\t// in\n    tag_268:\n        /* \"#utility.yul\":4264:4336   */\n      swap2\n      pop\n        /* \"#utility.yul\":4059:4346   */\n      pop\n        /* \"#utility.yul\":3410:4353   */\n      swap3\n      swap6\n      swap2\n      swap5\n      pop\n      swap3\n      pop\n      jump\t// out\n        /* \"#utility.yul\":4359:4508   */\n    tag_183:\n        /* \"#utility.yul\":4395:4402   */\n      0x00\n        /* \"#utility.yul\":4435:4501   */\n      0xffffffff00000000000000000000000000000000000000000000000000000000\n        /* \"#utility.yul\":4428:4433   */\n      dup3\n        /* \"#utility.yul\":4424:4502   */\n      and\n        /* \"#utility.yul\":4413:4502   */\n      swap1\n      pop\n        /* \"#utility.yul\":4359:4508   */\n      swap2\n      swap1\n      pop\n      jump\t// out\n        /* \"#utility.yul\":4514:4629   */\n    tag_184:\n        /* \"#utility.yul\":4599:4622   */\n      tag_271\n        /* \"#utility.yul\":4616:4621   */\n      dup2\n        /* \"#utility.yul\":4599:4622   */\n      tag_183\n      jump\t// in\n    tag_271:\n        /* \"#utility.yul\":4594:4597   */\n      dup3\n        /* \"#utility.yul\":4587:4623   */\n      mstore\n        /* \"#utility.yul\":4514:4629   */\n      pop\n      pop\n      jump\t// out\n        /* \"#utility.yul\":4635:4853   */\n    tag_20:\n        /* \"#utility.yul\":4726:4730   */\n      0x00\n        /* \"#utility.yul\":4764:4766   */\n      0x20\n        /* \"#utility.yul\":4753:4762   */\n      dup3\n        /* \"#utility.yul\":4749:4767   */\n      add\n        /* \"#utility.yul\":4741:4767   */\n      swap1\n      pop\n        /* \"#utility.yul\":4777:4846   */\n      tag_273\n        /* \"#utility.yul\":4843:4844   */\n      0x00\n        /* \"#utility.yul\":4832:4841   */\n      dup4\n        /* \"#utility.yul\":4828:4845   */\n      add\n        /* \"#utility.yul\":4819:4825   */\n      dup5\n        /* \"#utility.yul\":4777:4846   */\n      tag_184\n      jump\t// in\n    tag_273:\n        /* \"#utility.yul\":4635:4853   */\n      swap3\n      swap2\n      pop\n      pop\n      jump\t// out\n        /* \"#utility.yul\":4859:4919   */\n    tag_185:\n        /* \"#utility.yul\":4887:4890   */\n      0x00\n        /* \"#utility.yul\":4908:4913   */\n      dup2\n        /* \"#utility.yul\":4901:4913   */\n      swap1\n      pop\n        /* \"#utility.yul\":4859:4919   */\n      swap2\n      swap1\n      pop\n      jump\t// out\n        /* \"#utility.yul\":4925:5067   */\n    tag_186:\n        /* \"#utility.yul\":4975:4984   */\n      0x00\n        /* \"#utility.yul\":5008:5061   */\n      tag_276\n        /* \"#utility.yul\":5026:5060   */\n      tag_277\n        /* \"#utility.yul\":5035:5059   */\n      tag_278\n        /* \"#utility.yul\":5053:5058   */\n      dup5\n        /* \"#utility.yul\":5035:5059   */\n      tag_166\n      jump\t// in\n    tag_278:\n        /* \"#utility.yul\":5026:5060   */\n      tag_185\n      jump\t// in\n    tag_277:\n        /* \"#utility.yul\":5008:5061   */\n      tag_166\n      jump\t// in\n    tag_276:\n        /* \"#utility.yul\":4995:5061   */\n      swap1\n      pop\n        /* \"#utility.yul\":4925:5067   */\n      swap2\n      swap1\n      pop\n      jump\t// out\n        /* \"#utility.yul\":5073:5199   */\n    tag_187:\n        /* \"#utility.yul\":5123:5132   */\n      0x00\n        /* \"#utility.yul\":5156:5193   */\n      tag_280\n        /* \"#utility.yul\":5187:5192   */\n      dup3\n        /* \"#utility.yul\":5156:5193   */\n      tag_186\n      jump\t// in\n    tag_280:\n        /* \"#utility.yul\":5143:5193   */\n      swap1\n      pop\n        /* \"#utility.yul\":5073:5199   */\n      swap2\n      swap1\n      pop\n      jump\t// out\n        /* \"#utility.yul\":5205:5346   */\n    tag_188:\n        /* \"#utility.yul\":5270:5279   */\n      0x00\n        /* \"#utility.yul\":5303:5340   */\n      tag_282\n        /* \"#utility.yul\":5334:5339   */\n      dup3\n        /* \"#utility.yul\":5303:5340   */\n      tag_187\n      jump\t// in\n    tag_282:\n        /* \"#utility.yul\":5290:5340   */\n      swap1\n      pop\n        /* \"#utility.yul\":5205:5346   */\n      swap2\n      swap1\n      pop\n      jump\t// out\n        /* \"#utility.yul\":5352:5513   */\n    tag_189:\n        /* \"#utility.yul\":5454:5506   */\n      tag_284\n        /* \"#utility.yul\":5500:5505   */\n      dup2\n        /* \"#utility.yul\":5454:5506   */\n      tag_188\n      jump\t// in\n    tag_284:\n        /* \"#utility.yul\":5449:5452   */\n      dup3\n        /* \"#utility.yul\":5442:5507   */\n      mstore\n        /* \"#utility.yul\":5352:5513   */\n      pop\n      pop\n      jump\t// out\n        /* \"#utility.yul\":5519:5771   */\n    tag_25:\n        /* \"#utility.yul\":5627:5631   */\n      0x00\n        /* \"#utility.yul\":5665:5667   */\n      0x20\n        /* \"#utility.yul\":5654:5663   */\n      dup3\n        /* \"#utility.yul\":5650:5668   */\n      add\n        /* \"#utility.yul\":5642:5668   */\n      swap1\n      pop\n        /* \"#utility.yul\":5678:5764   */\n      tag_286\n        /* \"#utility.yul\":5761:5762   */\n      0x00\n        /* \"#utility.yul\":5750:5759   */\n      dup4\n        /* \"#utility.yul\":5746:5763   */\n      add\n        /* \"#utility.yul\":5737:5743   */\n      dup5\n        /* \"#utility.yul\":5678:5764   */\n      tag_189\n      jump\t// in\n    tag_286:\n        /* \"#utility.yul\":5519:5771   */\n      swap3\n      swap2\n      pop\n      pop\n      jump\t// out\n        /* \"#utility.yul\":5777:6251   */\n    tag_29:\n        /* \"#utility.yul\":5845:5851   */\n      0x00\n        /* \"#utility.yul\":5853:5859   */\n      dup1\n        /* \"#utility.yul\":5902:5904   */\n      0x40\n        /* \"#utility.yul\":5890:5899   */\n      dup4\n        /* \"#utility.yul\":5881:5888   */\n      dup6\n        /* \"#utility.yul\":5877:5900   */\n      sub\n        /* \"#utility.yul\":5873:5905   */\n      slt\n        /* \"#utility.yul\":5870:5989   */\n      iszero\n      tag_288\n      jumpi\n        /* \"#utility.yul\":5908:5987   */\n      tag_289\n      tag_164\n      jump\t// in\n    tag_289:\n        /* \"#utility.yul\":5870:5989   */\n    tag_288:\n        /* \"#utility.yul\":6028:6029   */\n      0x00\n        /* \"#utility.yul\":6053:6106   */\n      tag_290\n        /* \"#utility.yul\":6098:6105   */\n      dup6\n        /* \"#utility.yul\":6089:6095   */\n      dup3\n        /* \"#utility.yul\":6078:6087   */\n      dup7\n        /* \"#utility.yul\":6074:6096   */\n      add\n        /* \"#utility.yul\":6053:6106   */\n      tag_172\n      jump\t// in\n    tag_290:\n        /* \"#utility.yul\":6043:6106   */\n      swap3\n      pop\n        /* \"#utility.yul\":5999:6116   */\n      pop\n        /* \"#utility.yul\":6155:6157   */\n      0x20\n        /* \"#utility.yul\":6181:6234   */\n      tag_291\n        /* \"#utility.yul\":6226:6233   */\n      dup6\n        /* \"#utility.yul\":6217:6223   */\n      dup3\n        /* \"#utility.yul\":6206:6215   */\n      dup7\n        /* \"#utility.yul\":6202:6224   */\n      add\n        /* \"#utility.yul\":6181:6234   */\n      tag_172\n      jump\t// in\n    tag_291:\n        /* \"#utility.yul\":6171:6234   */\n      swap2\n      pop\n        /* \"#utility.yul\":6126:6244   */\n      pop\n        /* \"#utility.yul\":5777:6251   */\n      swap3\n      pop\n      swap3\n      swap1\n      pop\n      jump\t// out\n        /* \"#utility.yul\":6257:6375   */\n    tag_190:\n        /* \"#utility.yul\":6344:6368   */\n      tag_293\n        /* \"#utility.yul\":6362:6367   */\n      dup2\n        /* \"#utility.yul\":6344:6368   */\n      tag_167\n      jump\t// in\n    tag_293:\n        /* \"#utility.yul\":6339:6342   */\n      dup3\n        /* \"#utility.yul\":6332:6369   */\n      mstore\n        /* \"#utility.yul\":6257:6375   */\n      pop\n      pop\n      jump\t// out\n        /* \"#utility.yul\":6381:6603   */\n    tag_38:\n        /* \"#utility.yul\":6474:6478   */\n      0x00\n        /* \"#utility.yul\":6512:6514   */\n      0x20\n        /* \"#utility.yul\":6501:6510   */\n      dup3\n        /* \"#utility.yul\":6497:6515   */\n      add\n        /* \"#utility.yul\":6489:6515   */\n      swap1\n      pop\n        /* \"#utility.yul\":6525:6596   */\n      tag_295\n        /* \"#utility.yul\":6593:6594   */\n      0x00\n        /* \"#utility.yul\":6582:6591   */\n      dup4\n        /* \"#utility.yul\":6578:6595   */\n      add\n        /* \"#utility.yul\":6569:6575   */\n      dup5\n        /* \"#utility.yul\":6525:6596   */\n      tag_190\n      jump\t// in\n    tag_295:\n        /* \"#utility.yul\":6381:6603   */\n      swap3\n      swap2\n      pop\n      pop\n      jump\t// out\n        /* \"#utility.yul\":6609:6938   */\n    tag_42:\n        /* \"#utility.yul\":6668:6674   */\n      0x00\n        /* \"#utility.yul\":6717:6719   */\n      0x20\n        /* \"#utility.yul\":6705:6714   */\n      dup3\n        /* \"#utility.yul\":6696:6703   */\n      dup5\n        /* \"#utility.yul\":6692:6715   */\n      sub\n        /* \"#utility.yul\":6688:6720   */\n      slt\n        /* \"#utility.yul\":6685:6804   */\n      iszero\n      tag_297\n      jumpi\n        /* \"#utility.yul\":6723:6802   */\n      tag_298\n      tag_164\n      jump\t// in\n    tag_298:\n        /* \"#utility.yul\":6685:6804   */\n    tag_297:\n        /* \"#utility.yul\":6843:6844   */\n      0x00\n        /* \"#utility.yul\":6868:6921   */\n      tag_299\n        /* \"#utility.yul\":6913:6920   */\n      dup5\n        /* \"#utility.yul\":6904:6910   */\n      dup3\n        /* \"#utility.yul\":6893:6902   */\n      dup6\n        /* \"#utility.yul\":6889:6911   */\n      add\n        /* \"#utility.yul\":6868:6921   */\n      tag_172\n      jump\t// in\n    tag_299:\n        /* \"#utility.yul\":6858:6921   */\n      swap2\n      pop\n        /* \"#utility.yul\":6814:6931   */\n      pop\n        /* \"#utility.yul\":6609:6938   */\n      swap3\n      swap2\n      pop\n      pop\n      jump\t// out\n        /* \"#utility.yul\":6944:7062   */\n    tag_191:\n        /* \"#utility.yul\":7031:7055   */\n      tag_301\n        /* \"#utility.yul\":7049:7054   */\n      dup2\n        /* \"#utility.yul\":7031:7055   */\n      tag_170\n      jump\t// in\n    tag_301:\n        /* \"#utility.yul\":7026:7029   */\n      dup3\n        /* \"#utility.yul\":7019:7056   */\n      mstore\n        /* \"#utility.yul\":6944:7062   */\n      pop\n      pop\n      jump\t// out\n        /* \"#utility.yul\":7068:7158   */\n    tag_192:\n        /* \"#utility.yul\":7102:7109   */\n      0x00\n        /* \"#utility.yul\":7145:7150   */\n      dup2\n        /* \"#utility.yul\":7138:7151   */\n      iszero\n        /* \"#utility.yul\":7131:7152   */\n      iszero\n        /* \"#utility.yul\":7120:7152   */\n      swap1\n      pop\n        /* \"#utility.yul\":7068:7158   */\n      swap2\n      swap1\n      pop\n      jump\t// out\n        /* \"#utility.yul\":7164:7273   */\n    tag_193:\n        /* \"#utility.yul\":7245:7266   */\n      tag_304\n        /* \"#utility.yul\":7260:7265   */\n      dup2\n        /* \"#utility.yul\":7245:7266   */\n      tag_192\n      jump\t// in\n    tag_304:\n        /* \"#utility.yul\":7240:7243   */\n      dup3\n        /* \"#utility.yul\":7233:7267   */\n      mstore\n        /* \"#utility.yul\":7164:7273   */\n      pop\n      pop\n      jump\t// out\n        /* \"#utility.yul\":7279:7820   */\n    tag_45:\n        /* \"#utility.yul\":7450:7454   */\n      0x00\n        /* \"#utility.yul\":7488:7491   */\n      0x80\n        /* \"#utility.yul\":7477:7486   */\n      dup3\n        /* \"#utility.yul\":7473:7492   */\n      add\n        /* \"#utility.yul\":7465:7492   */\n      swap1\n      pop\n        /* \"#utility.yul\":7502:7573   */\n      tag_306\n        /* \"#utility.yul\":7570:7571   */\n      0x00\n        /* \"#utility.yul\":7559:7568   */\n      dup4\n        /* \"#utility.yul\":7555:7572   */\n      add\n        /* \"#utility.yul\":7546:7552   */\n      dup8\n        /* \"#utility.yul\":7502:7573   */\n      tag_190\n      jump\t// in\n    tag_306:\n        /* \"#utility.yul\":7583:7655   */\n      tag_307\n        /* \"#utility.yul\":7651:7653   */\n      0x20\n        /* \"#utility.yul\":7640:7649   */\n      dup4\n        /* \"#utility.yul\":7636:7654   */\n      add\n        /* \"#utility.yul\":7627:7633   */\n      dup7\n        /* \"#utility.yul\":7583:7655   */\n      tag_191\n      jump\t// in\n    tag_307:\n        /* \"#utility.yul\":7665:7737   */\n      tag_308\n        /* \"#utility.yul\":7733:7735   */\n      0x40\n        /* \"#utility.yul\":7722:7731   */\n      dup4\n        /* \"#utility.yul\":7718:7736   */\n      add\n        /* \"#utility.yul\":7709:7715   */\n      dup6\n        /* \"#utility.yul\":7665:7737   */\n      tag_191\n      jump\t// in\n    tag_308:\n        /* \"#utility.yul\":7747:7813   */\n      tag_309\n        /* \"#utility.yul\":7809:7811   */\n      0x60\n        /* \"#utility.yul\":7798:7807   */\n      dup4\n        /* \"#utility.yul\":7794:7812   */\n      add\n        /* \"#utility.yul\":7785:7791   */\n      dup5\n        /* \"#utility.yul\":7747:7813   */\n      tag_193\n      jump\t// in\n    tag_309:\n        /* \"#utility.yul\":7279:7820   */\n      swap6\n      swap5\n      pop\n      pop\n      pop\n      pop\n      pop\n      jump\t// out\n        /* \"#utility.yul\":7826:8048   */\n    tag_61:\n        /* \"#utility.yul\":7919:7923   */\n      0x00\n        /* \"#utility.yul\":7957:7959   */\n      0x20\n        /* \"#utility.yul\":7946:7955   */\n      dup3\n        /* \"#utility.yul\":7942:7960   */\n      add\n        /* \"#utility.yul\":7934:7960   */\n      swap1\n      pop\n        /* \"#utility.yul\":7970:8041   */\n      tag_311\n        /* \"#utility.yul\":8038:8039   */\n      0x00\n        /* \"#utility.yul\":8027:8036   */\n      dup4\n        /* \"#utility.yul\":8023:8040   */\n      add\n        /* \"#utility.yul\":8014:8020   */\n      dup5\n        /* \"#utility.yul\":7970:8041   */\n      tag_191\n      jump\t// in\n    tag_311:\n        /* \"#utility.yul\":7826:8048   */\n      swap3\n      swap2\n      pop\n      pop\n      jump\t// out\n        /* \"#utility.yul\":8054:8383   */\n    tag_65:\n        /* \"#utility.yul\":8113:8119   */\n      0x00\n        /* \"#utility.yul\":8162:8164   */\n      0x20\n        /* \"#utility.yul\":8150:8159   */\n      dup3\n        /* \"#utility.yul\":8141:8148   */\n      dup5\n        /* \"#utility.yul\":8137:8160   */\n      sub\n        /* \"#utility.yul\":8133:8165   */\n      slt\n        /* \"#utility.yul\":8130:8249   */\n      iszero\n      tag_313\n      jumpi\n        /* \"#utility.yul\":8168:8247   */\n      tag_314\n      tag_164\n      jump\t// in\n    tag_314:\n        /* \"#utility.yul\":8130:8249   */\n    tag_313:\n        /* \"#utility.yul\":8288:8289   */\n      0x00\n        /* \"#utility.yul\":8313:8366   */\n      tag_315\n        /* \"#utility.yul\":8358:8365   */\n      dup5\n        /* \"#utility.yul\":8349:8355   */\n      dup3\n        /* \"#utility.yul\":8338:8347   */\n      dup6\n        /* \"#utility.yul\":8334:8356   */\n      add\n        /* \"#utility.yul\":8313:8366   */\n      tag_169\n      jump\t// in\n    tag_315:\n        /* \"#utility.yul\":8303:8366   */\n      swap2\n      pop\n        /* \"#utility.yul\":8259:8376   */\n      pop\n        /* \"#utility.yul\":8054:8383   */\n      swap3\n      swap2\n      pop\n      pop\n      jump\t// out\n        /* \"#utility.yul\":8389:8532   */\n    tag_194:\n        /* \"#utility.yul\":8446:8451   */\n      0x00\n        /* \"#utility.yul\":8477:8483   */\n      dup2\n        /* \"#utility.yul\":8471:8484   */\n      mload\n        /* \"#utility.yul\":8462:8484   */\n      swap1\n      pop\n        /* \"#utility.yul\":8493:8526   */\n      tag_317\n        /* \"#utility.yul\":8520:8525   */\n      dup2\n        /* \"#utility.yul\":8493:8526   */\n      tag_168\n      jump\t// in\n    tag_317:\n        /* \"#utility.yul\":8389:8532   */\n      swap3\n      swap2\n      pop\n      pop\n      jump\t// out\n        /* \"#utility.yul\":8538:8889   */\n    tag_73:\n        /* \"#utility.yul\":8608:8614   */\n      0x00\n        /* \"#utility.yul\":8657:8659   */\n      0x20\n        /* \"#utility.yul\":8645:8654   */\n      dup3\n        /* \"#utility.yul\":8636:8643   */\n      dup5\n        /* \"#utility.yul\":8632:8655   */\n      sub\n        /* \"#utility.yul\":8628:8660   */\n      slt\n        /* \"#utility.yul\":8625:8744   */\n      iszero\n      tag_319\n      jumpi\n        /* \"#utility.yul\":8663:8742   */\n      tag_320\n      tag_164\n      jump\t// in\n    tag_320:\n        /* \"#utility.yul\":8625:8744   */\n    tag_319:\n        /* \"#utility.yul\":8783:8784   */\n      0x00\n        /* \"#utility.yul\":8808:8872   */\n      tag_321\n        /* \"#utility.yul\":8864:8871   */\n      dup5\n        /* \"#utility.yul\":8855:8861   */\n      dup3\n        /* \"#utility.yul\":8844:8853   */\n      dup6\n        /* \"#utility.yul\":8840:8862   */\n      add\n        /* \"#utility.yul\":8808:8872   */\n      tag_194\n      jump\t// in\n    tag_321:\n        /* \"#utility.yul\":8798:8872   */\n      swap2\n      pop\n        /* \"#utility.yul\":8754:8882   */\n      pop\n        /* \"#utility.yul\":8538:8889   */\n      swap3\n      swap2\n      pop\n      pop\n      jump\t// out\n        /* \"#utility.yul\":8895:9064   */\n    tag_195:\n        /* \"#utility.yul\":8979:8990   */\n      0x00\n        /* \"#utility.yul\":9013:9019   */\n      dup3\n        /* \"#utility.yul\":9008:9011   */\n      dup3\n        /* \"#utility.yul\":9001:9020   */\n      mstore\n        /* \"#utility.yul\":9053:9057   */\n      0x20\n        /* \"#utility.yul\":9048:9051   */\n      dup3\n        /* \"#utility.yul\":9044:9058   */\n      add\n        /* \"#utility.yul\":9029:9058   */\n      swap1\n      pop\n        /* \"#utility.yul\":8895:9064   */\n      swap3\n      swap2\n      pop\n      pop\n      jump\t// out\n        /* \"#utility.yul\":9070:9252   */\n    tag_196:\n        /* \"#utility.yul\":9210:9244   */\n      0x4f6e6c7920746865206f776e65722063616e2063726561746520612073616c65\n        /* \"#utility.yul\":9206:9207   */\n      0x00\n        /* \"#utility.yul\":9198:9204   */\n      dup3\n        /* \"#utility.yul\":9194:9208   */\n      add\n        /* \"#utility.yul\":9187:9245   */\n      mstore\n        /* \"#utility.yul\":9070:9252   */\n      pop\n      jump\t// out\n        /* \"#utility.yul\":9258:9624   */\n    tag_197:\n        /* \"#utility.yul\":9400:9403   */\n      0x00\n        /* \"#utility.yul\":9421:9488   */\n      tag_325\n        /* \"#utility.yul\":9485:9487   */\n      0x20\n        /* \"#utility.yul\":9480:9483   */\n      dup4\n        /* \"#utility.yul\":9421:9488   */\n      tag_195\n      jump\t// in\n    tag_325:\n        /* \"#utility.yul\":9414:9488   */\n      swap2\n      pop\n        /* \"#utility.yul\":9497:9590   */\n      tag_326\n        /* \"#utility.yul\":9586:9589   */\n      dup3\n        /* \"#utility.yul\":9497:9590   */\n      tag_196\n      jump\t// in\n    tag_326:\n        /* \"#utility.yul\":9615:9617   */\n      0x20\n        /* \"#utility.yul\":9610:9613   */\n      dup3\n        /* \"#utility.yul\":9606:9618   */\n      add\n        /* \"#utility.yul\":9599:9618   */\n      swap1\n      pop\n        /* \"#utility.yul\":9258:9624   */\n      swap2\n      swap1\n      pop\n      jump\t// out\n        /* \"#utility.yul\":9630:10049   */\n    tag_76:\n        /* \"#utility.yul\":9796:9800   */\n      0x00\n        /* \"#utility.yul\":9834:9836   */\n      0x20\n        /* \"#utility.yul\":9823:9832   */\n      dup3\n        /* \"#utility.yul\":9819:9837   */\n      add\n        /* \"#utility.yul\":9811:9837   */\n      swap1\n      pop\n        /* \"#utility.yul\":9883:9892   */\n      dup2\n        /* \"#utility.yul\":9877:9881   */\n      dup2\n        /* \"#utility.yul\":9873:9893   */\n      sub\n        /* \"#utility.yul\":9869:9870   */\n      0x00\n        /* \"#utility.yul\":9858:9867   */\n      dup4\n        /* \"#utility.yul\":9854:9871   */\n      add\n        /* \"#utility.yul\":9847:9894   */\n      mstore\n        /* \"#utility.yul\":9911:10042   */\n      tag_328\n        /* \"#utility.yul\":10037:10041   */\n      dup2\n        /* \"#utility.yul\":9911:10042   */\n      tag_197\n      jump\t// in\n    tag_328:\n        /* \"#utility.yul\":9903:10042   */\n      swap1\n      pop\n        /* \"#utility.yul\":9630:10049   */\n      swap2\n      swap1\n      pop\n      jump\t// out\n        /* \"#utility.yul\":10055:10236   */\n    tag_198:\n        /* \"#utility.yul\":10195:10228   */\n      0x5072696365206d7573742062652067726561746572207468616e207a65726f00\n        /* \"#utility.yul\":10191:10192   */\n      0x00\n        /* \"#utility.yul\":10183:10189   */\n      dup3\n        /* \"#utility.yul\":10179:10193   */\n      add\n        /* \"#utility.yul\":10172:10229   */\n      mstore\n        /* \"#utility.yul\":10055:10236   */\n      pop\n      jump\t// out\n        /* \"#utility.yul\":10242:10608   */\n    tag_199:\n        /* \"#utility.yul\":10384:10387   */\n      0x00\n        /* \"#utility.yul\":10405:10472   */\n      tag_331\n        /* \"#utility.yul\":10469:10471   */\n      0x1f\n        /* \"#utility.yul\":10464:10467   */\n      dup4\n        /* \"#utility.yul\":10405:10472   */\n      tag_195\n      jump\t// in\n    tag_331:\n        /* \"#utility.yul\":10398:10472   */\n      swap2\n      pop\n        /* \"#utility.yul\":10481:10574   */\n      tag_332\n        /* \"#utility.yul\":10570:10573   */\n      dup3\n        /* \"#utility.yul\":10481:10574   */\n      tag_198\n      jump\t// in\n    tag_332:\n        /* \"#utility.yul\":10599:10601   */\n      0x20\n        /* \"#utility.yul\":10594:10597   */\n      dup3\n        /* \"#utility.yul\":10590:10602   */\n      add\n        /* \"#utility.yul\":10583:10602   */\n      swap1\n      pop\n        /* \"#utility.yul\":10242:10608   */\n      swap2\n      swap1\n      pop\n      jump\t// out\n        /* \"#utility.yul\":10614:11033   */\n    tag_79:\n        /* \"#utility.yul\":10780:10784   */\n      0x00\n        /* \"#utility.yul\":10818:10820   */\n      0x20\n        /* \"#utility.yul\":10807:10816   */\n      dup3\n        /* \"#utility.yul\":10803:10821   */\n      add\n        /* \"#utility.yul\":10795:10821   */\n      swap1\n      pop\n        /* \"#utility.yul\":10867:10876   */\n      dup2\n        /* \"#utility.yul\":10861:10865   */\n      dup2\n        /* \"#utility.yul\":10857:10877   */\n      sub\n        /* \"#utility.yul\":10853:10854   */\n      0x00\n        /* \"#utility.yul\":10842:10851   */\n      dup4\n        /* \"#utility.yul\":10838:10855   */\n      add\n        /* \"#utility.yul\":10831:10878   */\n      mstore\n        /* \"#utility.yul\":10895:11026   */\n      tag_334\n        /* \"#utility.yul\":11021:11025   */\n      dup2\n        /* \"#utility.yul\":10895:11026   */\n      tag_199\n      jump\t// in\n    tag_334:\n        /* \"#utility.yul\":10887:11026   */\n      swap1\n      pop\n        /* \"#utility.yul\":10614:11033   */\n      swap2\n      swap1\n      pop\n      jump\t// out\n        /* \"#utility.yul\":11039:11211   */\n    tag_200:\n        /* \"#utility.yul\":11179:11203   */\n      0x53616c6520697320616c72656164792061637469766500000000000000000000\n        /* \"#utility.yul\":11175:11176   */\n      0x00\n        /* \"#utility.yul\":11167:11173   */\n      dup3\n        /* \"#utility.yul\":11163:11177   */\n      add\n        /* \"#utility.yul\":11156:11204   */\n      mstore\n        /* \"#utility.yul\":11039:11211   */\n      pop\n      jump\t// out\n        /* \"#utility.yul\":11217:11583   */\n    tag_201:\n        /* \"#utility.yul\":11359:11362   */\n      0x00\n        /* \"#utility.yul\":11380:11447   */\n      tag_337\n        /* \"#utility.yul\":11444:11446   */\n      0x16\n        /* \"#utility.yul\":11439:11442   */\n      dup4\n        /* \"#utility.yul\":11380:11447   */\n      tag_195\n      jump\t// in\n    tag_337:\n        /* \"#utility.yul\":11373:11447   */\n      swap2\n      pop\n        /* \"#utility.yul\":11456:11549   */\n      tag_338\n        /* \"#utility.yul\":11545:11548   */\n      dup3\n        /* \"#utility.yul\":11456:11549   */\n      tag_200\n      jump\t// in\n    tag_338:\n        /* \"#utility.yul\":11574:11576   */\n      0x20\n        /* \"#utility.yul\":11569:11572   */\n      dup3\n        /* \"#utility.yul\":11565:11577   */\n      add\n        /* \"#utility.yul\":11558:11577   */\n      swap1\n      pop\n        /* \"#utility.yul\":11217:11583   */\n      swap2\n      swap1\n      pop\n      jump\t// out\n        /* \"#utility.yul\":11589:12008   */\n    tag_82:\n        /* \"#utility.yul\":11755:11759   */\n      0x00\n        /* \"#utility.yul\":11793:11795   */\n      0x20\n        /* \"#utility.yul\":11782:11791   */\n      dup3\n        /* \"#utility.yul\":11778:11796   */\n      add\n        /* \"#utility.yul\":11770:11796   */\n      swap1\n      pop\n        /* \"#utility.yul\":11842:11851   */\n      dup2\n        /* \"#utility.yul\":11836:11840   */\n      dup2\n        /* \"#utility.yul\":11832:11852   */\n      sub\n        /* \"#utility.yul\":11828:11829   */\n      0x00\n        /* \"#utility.yul\":11817:11826   */\n      dup4\n        /* \"#utility.yul\":11813:11830   */\n      add\n        /* \"#utility.yul\":11806:11853   */\n      mstore\n        /* \"#utility.yul\":11870:12001   */\n      tag_340\n        /* \"#utility.yul\":11996:12000   */\n      dup2\n        /* \"#utility.yul\":11870:12001   */\n      tag_201\n      jump\t// in\n    tag_340:\n        /* \"#utility.yul\":11862:12001   */\n      swap1\n      pop\n        /* \"#utility.yul\":11589:12008   */\n      swap2\n      swap1\n      pop\n      jump\t// out\n        /* \"#utility.yul\":12014:12456   */\n    tag_84:\n        /* \"#utility.yul\":12163:12167   */\n      0x00\n        /* \"#utility.yul\":12201:12203   */\n      0x60\n        /* \"#utility.yul\":12190:12199   */\n      dup3\n        /* \"#utility.yul\":12186:12204   */\n      add\n        /* \"#utility.yul\":12178:12204   */\n      swap1\n      pop\n        /* \"#utility.yul\":12214:12285   */\n      tag_342\n        /* \"#utility.yul\":12282:12283   */\n      0x00\n        /* \"#utility.yul\":12271:12280   */\n      dup4\n        /* \"#utility.yul\":12267:12284   */\n      add\n        /* \"#utility.yul\":12258:12264   */\n      dup7\n        /* \"#utility.yul\":12214:12285   */\n      tag_190\n      jump\t// in\n    tag_342:\n        /* \"#utility.yul\":12295:12367   */\n      tag_343\n        /* \"#utility.yul\":12363:12365   */\n      0x20\n        /* \"#utility.yul\":12352:12361   */\n      dup4\n        /* \"#utility.yul\":12348:12366   */\n      add\n        /* \"#utility.yul\":12339:12345   */\n      dup6\n        /* \"#utility.yul\":12295:12367   */\n      tag_190\n      jump\t// in\n    tag_343:\n        /* \"#utility.yul\":12377:12449   */\n      tag_344\n        /* \"#utility.yul\":12445:12447   */\n      0x40\n        /* \"#utility.yul\":12434:12443   */\n      dup4\n        /* \"#utility.yul\":12430:12448   */\n      add\n        /* \"#utility.yul\":12421:12427   */\n      dup5\n        /* \"#utility.yul\":12377:12449   */\n      tag_191\n      jump\t// in\n    tag_344:\n        /* \"#utility.yul\":12014:12456   */\n      swap5\n      swap4\n      pop\n      pop\n      pop\n      pop\n      jump\t// out\n        /* \"#utility.yul\":12462:12630   */\n    tag_202:\n        /* \"#utility.yul\":12602:12622   */\n      0x53616c65206973206e6f74206163746976650000000000000000000000000000\n        /* \"#utility.yul\":12598:12599   */\n      0x00\n        /* \"#utility.yul\":12590:12596   */\n      dup3\n        /* \"#utility.yul\":12586:12600   */\n      add\n        /* \"#utility.yul\":12579:12623   */\n      mstore\n        /* \"#utility.yul\":12462:12630   */\n      pop\n      jump\t// out\n        /* \"#utility.yul\":12636:13002   */\n    tag_203:\n        /* \"#utility.yul\":12778:12781   */\n      0x00\n        /* \"#utility.yul\":12799:12866   */\n      tag_347\n        /* \"#utility.yul\":12863:12865   */\n      0x12\n        /* \"#utility.yul\":12858:12861   */\n      dup4\n        /* \"#utility.yul\":12799:12866   */\n      tag_195\n      jump\t// in\n    tag_347:\n        /* \"#utility.yul\":12792:12866   */\n      swap2\n      pop\n        /* \"#utility.yul\":12875:12968   */\n      tag_348\n        /* \"#utility.yul\":12964:12967   */\n      dup3\n        /* \"#utility.yul\":12875:12968   */\n      tag_202\n      jump\t// in\n    tag_348:\n        /* \"#utility.yul\":12993:12995   */\n      0x20\n        /* \"#utility.yul\":12988:12991   */\n      dup3\n        /* \"#utility.yul\":12984:12996   */\n      add\n        /* \"#utility.yul\":12977:12996   */\n      swap1\n      pop\n        /* \"#utility.yul\":12636:13002   */\n      swap2\n      swap1\n      pop\n      jump\t// out\n        /* \"#utility.yul\":13008:13427   */\n    tag_99:\n        /* \"#utility.yul\":13174:13178   */\n      0x00\n        /* \"#utility.yul\":13212:13214   */\n      0x20\n        /* \"#utility.yul\":13201:13210   */\n      dup3\n        /* \"#utility.yul\":13197:13215   */\n      add\n        /* \"#utility.yul\":13189:13215   */\n      swap1\n      pop\n        /* \"#utility.yul\":13261:13270   */\n      dup2\n        /* \"#utility.yul\":13255:13259   */\n      dup2\n        /* \"#utility.yul\":13251:13271   */\n      sub\n        /* \"#utility.yul\":13247:13248   */\n      0x00\n        /* \"#utility.yul\":13236:13245   */\n      dup4\n        /* \"#utility.yul\":13232:13249   */\n      add\n        /* \"#utility.yul\":13225:13272   */\n      mstore\n        /* \"#utility.yul\":13289:13420   */\n      tag_350\n        /* \"#utility.yul\":13415:13419   */\n      dup2\n        /* \"#utility.yul\":13289:13420   */\n      tag_203\n      jump\t// in\n    tag_350:\n        /* \"#utility.yul\":13281:13420   */\n      swap1\n      pop\n        /* \"#utility.yul\":13008:13427   */\n      swap2\n      swap1\n      pop\n      jump\t// out\n        /* \"#utility.yul\":13433:13655   */\n    tag_204:\n        /* \"#utility.yul\":13573:13607   */\n      0x4f6e6c79207468652073656c6c65722063616e2063616e63656c207468652073\n        /* \"#utility.yul\":13569:13570   */\n      0x00\n        /* \"#utility.yul\":13561:13567   */\n      dup3\n        /* \"#utility.yul\":13557:13571   */\n      add\n        /* \"#utility.yul\":13550:13608   */\n      mstore\n        /* \"#utility.yul\":13642:13647   */\n      0x616c650000000000000000000000000000000000000000000000000000000000\n        /* \"#utility.yul\":13637:13639   */\n      0x20\n        /* \"#utility.yul\":13629:13635   */\n      dup3\n        /* \"#utility.yul\":13625:13640   */\n      add\n        /* \"#utility.yul\":13618:13648   */\n      mstore\n        /* \"#utility.yul\":13433:13655   */\n      pop\n      jump\t// out\n        /* \"#utility.yul\":13661:14027   */\n    tag_205:\n        /* \"#utility.yul\":13803:13806   */\n      0x00\n        /* \"#utility.yul\":13824:13891   */\n      tag_353\n        /* \"#utility.yul\":13888:13890   */\n      0x23\n        /* \"#utility.yul\":13883:13886   */\n      dup4\n        /* \"#utility.yul\":13824:13891   */\n      tag_195\n      jump\t// in\n    tag_353:\n        /* \"#utility.yul\":13817:13891   */\n      swap2\n      pop\n        /* \"#utility.yul\":13900:13993   */\n      tag_354\n        /* \"#utility.yul\":13989:13992   */\n      dup3\n        /* \"#utility.yul\":13900:13993   */\n      tag_204\n      jump\t// in\n    tag_354:\n        /* \"#utility.yul\":14018:14020   */\n      0x40\n        /* \"#utility.yul\":14013:14016   */\n      dup3\n        /* \"#utility.yul\":14009:14021   */\n      add\n        /* \"#utility.yul\":14002:14021   */\n      swap1\n      pop\n        /* \"#utility.yul\":13661:14027   */\n      swap2\n      swap1\n      pop\n      jump\t// out\n        /* \"#utility.yul\":14033:14452   */\n    tag_102:\n        /* \"#utility.yul\":14199:14203   */\n      0x00\n        /* \"#utility.yul\":14237:14239   */\n      0x20\n        /* \"#utility.yul\":14226:14235   */\n      dup3\n        /* \"#utility.yul\":14222:14240   */\n      add\n        /* \"#utility.yul\":14214:14240   */\n      swap1\n      pop\n        /* \"#utility.yul\":14286:14295   */\n      dup2\n        /* \"#utility.yul\":14280:14284   */\n      dup2\n        /* \"#utility.yul\":14276:14296   */\n      sub\n        /* \"#utility.yul\":14272:14273   */\n      0x00\n        /* \"#utility.yul\":14261:14270   */\n      dup4\n        /* \"#utility.yul\":14257:14274   */\n      add\n        /* \"#utility.yul\":14250:14297   */\n      mstore\n        /* \"#utility.yul\":14314:14445   */\n      tag_356\n        /* \"#utility.yul\":14440:14444   */\n      dup2\n        /* \"#utility.yul\":14314:14445   */\n      tag_205\n      jump\t// in\n    tag_356:\n        /* \"#utility.yul\":14306:14445   */\n      swap1\n      pop\n        /* \"#utility.yul\":14033:14452   */\n      swap2\n      swap1\n      pop\n      jump\t// out\n        /* \"#utility.yul\":14458:14680   */\n    tag_206:\n        /* \"#utility.yul\":14598:14632   */\n      0x4f6e6c79207468652073656c6c65722063616e20757064617465207468652073\n        /* \"#utility.yul\":14594:14595   */\n      0x00\n        /* \"#utility.yul\":14586:14592   */\n      dup3\n        /* \"#utility.yul\":14582:14596   */\n      add\n        /* \"#utility.yul\":14575:14633   */\n      mstore\n        /* \"#utility.yul\":14667:14672   */\n      0x616c650000000000000000000000000000000000000000000000000000000000\n        /* \"#utility.yul\":14662:14664   */\n      0x20\n        /* \"#utility.yul\":14654:14660   */\n      dup3\n        /* \"#utility.yul\":14650:14665   */\n      add\n        /* \"#utility.yul\":14643:14673   */\n      mstore\n        /* \"#utility.yul\":14458:14680   */\n      pop\n      jump\t// out\n        /* \"#utility.yul\":14686:15052   */\n    tag_207:\n        /* \"#utility.yul\":14828:14831   */\n      0x00\n        /* \"#utility.yul\":14849:14916   */\n      tag_359\n        /* \"#utility.yul\":14913:14915   */\n      0x23\n        /* \"#utility.yul\":14908:14911   */\n      dup4\n        /* \"#utility.yul\":14849:14916   */\n      tag_195\n      jump\t// in\n    tag_359:\n        /* \"#utility.yul\":14842:14916   */\n      swap2\n      pop\n        /* \"#utility.yul\":14925:15018   */\n      tag_360\n        /* \"#utility.yul\":15014:15017   */\n      dup3\n        /* \"#utility.yul\":14925:15018   */\n      tag_206\n      jump\t// in\n    tag_360:\n        /* \"#utility.yul\":15043:15045   */\n      0x40\n        /* \"#utility.yul\":15038:15041   */\n      dup3\n        /* \"#utility.yul\":15034:15046   */\n      add\n        /* \"#utility.yul\":15027:15046   */\n      swap1\n      pop\n        /* \"#utility.yul\":14686:15052   */\n      swap2\n      swap1\n      pop\n      jump\t// out\n        /* \"#utility.yul\":15058:15477   */\n    tag_112:\n        /* \"#utility.yul\":15224:15228   */\n      0x00\n        /* \"#utility.yul\":15262:15264   */\n      0x20\n        /* \"#utility.yul\":15251:15260   */\n      dup3\n        /* \"#utility.yul\":15247:15265   */\n      add\n        /* \"#utility.yul\":15239:15265   */\n      swap1\n      pop\n        /* \"#utility.yul\":15311:15320   */\n      dup2\n        /* \"#utility.yul\":15305:15309   */\n      dup2\n        /* \"#utility.yul\":15301:15321   */\n      sub\n        /* \"#utility.yul\":15297:15298   */\n      0x00\n        /* \"#utility.yul\":15286:15295   */\n      dup4\n        /* \"#utility.yul\":15282:15299   */\n      add\n        /* \"#utility.yul\":15275:15322   */\n      mstore\n        /* \"#utility.yul\":15339:15470   */\n      tag_362\n        /* \"#utility.yul\":15465:15469   */\n      dup2\n        /* \"#utility.yul\":15339:15470   */\n      tag_207\n      jump\t// in\n    tag_362:\n        /* \"#utility.yul\":15331:15470   */\n      swap1\n      pop\n        /* \"#utility.yul\":15058:15477   */\n      swap2\n      swap1\n      pop\n      jump\t// out\n        /* \"#utility.yul\":15483:15653   */\n    tag_208:\n        /* \"#utility.yul\":15623:15645   */\n      0x496e73756666696369656e74207061796d656e74000000000000000000000000\n        /* \"#utility.yul\":15619:15620   */\n      0x00\n        /* \"#utility.yul\":15611:15617   */\n      dup3\n        /* \"#utility.yul\":15607:15621   */\n      add\n        /* \"#utility.yul\":15600:15646   */\n      mstore\n        /* \"#utility.yul\":15483:15653   */\n      pop\n      jump\t// out\n        /* \"#utility.yul\":15659:16025   */\n    tag_209:\n        /* \"#utility.yul\":15801:15804   */\n      0x00\n        /* \"#utility.yul\":15822:15889   */\n      tag_365\n        /* \"#utility.yul\":15886:15888   */\n      0x14\n        /* \"#utility.yul\":15881:15884   */\n      dup4\n        /* \"#utility.yul\":15822:15889   */\n      tag_195\n      jump\t// in\n    tag_365:\n        /* \"#utility.yul\":15815:15889   */\n      swap2\n      pop\n        /* \"#utility.yul\":15898:15991   */\n      tag_366\n        /* \"#utility.yul\":15987:15990   */\n      dup3\n        /* \"#utility.yul\":15898:15991   */\n      tag_208\n      jump\t// in\n    tag_366:\n        /* \"#utility.yul\":16016:16018   */\n      0x20\n        /* \"#utility.yul\":16011:16014   */\n      dup3\n        /* \"#utility.yul\":16007:16019   */\n      add\n        /* \"#utility.yul\":16000:16019   */\n      swap1\n      pop\n        /* \"#utility.yul\":15659:16025   */\n      swap2\n      swap1\n      pop\n      jump\t// out\n        /* \"#utility.yul\":16031:16450   */\n    tag_121:\n        /* \"#utility.yul\":16197:16201   */\n      0x00\n        /* \"#utility.yul\":16235:16237   */\n      0x20\n        /* \"#utility.yul\":16224:16233   */\n      dup3\n        /* \"#utility.yul\":16220:16238   */\n      add\n        /* \"#utility.yul\":16212:16238   */\n      swap1\n      pop\n        /* \"#utility.yul\":16284:16293   */\n      dup2\n        /* \"#utility.yul\":16278:16282   */\n      dup2\n        /* \"#utility.yul\":16274:16294   */\n      sub\n        /* \"#utility.yul\":16270:16271   */\n      0x00\n        /* \"#utility.yul\":16259:16268   */\n      dup4\n        /* \"#utility.yul\":16255:16272   */\n      add\n        /* \"#utility.yul\":16248:16295   */\n      mstore\n        /* \"#utility.yul\":16312:16443   */\n      tag_368\n        /* \"#utility.yul\":16438:16442   */\n      dup2\n        /* \"#utility.yul\":16312:16443   */\n      tag_209\n      jump\t// in\n    tag_368:\n        /* \"#utility.yul\":16304:16443   */\n      swap1\n      pop\n        /* \"#utility.yul\":16031:16450   */\n      swap2\n      swap1\n      pop\n      jump\t// out\n        /* \"#utility.yul\":16456:16681   */\n    tag_210:\n        /* \"#utility.yul\":16596:16630   */\n      0x4f776e61626c653a206e6577206f776e657220697320746865207a65726f2061\n        /* \"#utility.yul\":16592:16593   */\n      0x00\n        /* \"#utility.yul\":16584:16590   */\n      dup3\n        /* \"#utility.yul\":16580:16594   */\n      add\n        /* \"#utility.yul\":16573:16631   */\n      mstore\n        /* \"#utility.yul\":16665:16673   */\n      0x6464726573730000000000000000000000000000000000000000000000000000\n        /* \"#utility.yul\":16660:16662   */\n      0x20\n        /* \"#utility.yul\":16652:16658   */\n      dup3\n        /* \"#utility.yul\":16648:16663   */\n      add\n        /* \"#utility.yul\":16641:16674   */\n      mstore\n        /* \"#utility.yul\":16456:16681   */\n      pop\n      jump\t// out\n        /* \"#utility.yul\":16687:17053   */\n    tag_211:\n        /* \"#utility.yul\":16829:16832   */\n      0x00\n        /* \"#utility.yul\":16850:16917   */\n      tag_371\n        /* \"#utility.yul\":16914:16916   */\n      0x26\n        /* \"#utility.yul\":16909:16912   */\n      dup4\n        /* \"#utility.yul\":16850:16917   */\n      tag_195\n      jump\t// in\n    tag_371:\n        /* \"#utility.yul\":16843:16917   */\n      swap2\n      pop\n        /* \"#utility.yul\":16926:17019   */\n      tag_372\n        /* \"#utility.yul\":17015:17018   */\n      dup3\n        /* \"#utility.yul\":16926:17019   */\n      tag_210\n      jump\t// in\n    tag_372:\n        /* \"#utility.yul\":17044:17046   */\n      0x40\n        /* \"#utility.yul\":17039:17042   */\n      dup3\n        /* \"#utility.yul\":17035:17047   */\n      add\n        /* \"#utility.yul\":17028:17047   */\n      swap1\n      pop\n        /* \"#utility.yul\":16687:17053   */\n      swap2\n      swap1\n      pop\n      jump\t// out\n        /* \"#utility.yul\":17059:17478   */\n    tag_143:\n        /* \"#utility.yul\":17225:17229   */\n      0x00\n        /* \"#utility.yul\":17263:17265   */\n      0x20\n        /* \"#utility.yul\":17252:17261   */\n      dup3\n        /* \"#utility.yul\":17248:17266   */\n      add\n        /* \"#utility.yul\":17240:17266   */\n      swap1\n      pop\n        /* \"#utility.yul\":17312:17321   */\n      dup2\n        /* \"#utility.yul\":17306:17310   */\n      dup2\n        /* \"#utility.yul\":17302:17322   */\n      sub\n        /* \"#utility.yul\":17298:17299   */\n      0x00\n        /* \"#utility.yul\":17287:17296   */\n      dup4\n        /* \"#utility.yul\":17283:17300   */\n      add\n        /* \"#utility.yul\":17276:17323   */\n      mstore\n        /* \"#utility.yul\":17340:17471   */\n      tag_374\n        /* \"#utility.yul\":17466:17470   */\n      dup2\n        /* \"#utility.yul\":17340:17471   */\n      tag_211\n      jump\t// in\n    tag_374:\n        /* \"#utility.yul\":17332:17471   */\n      swap1\n      pop\n        /* \"#utility.yul\":17059:17478   */\n      swap2\n      swap1\n      pop\n      jump\t// out\n        /* \"#utility.yul\":17484:17666   */\n    tag_212:\n        /* \"#utility.yul\":17624:17658   */\n      0x4f776e61626c653a2063616c6c6572206973206e6f7420746865206f776e6572\n        /* \"#utility.yul\":17620:17621   */\n      0x00\n        /* \"#utility.yul\":17612:17618   */\n      dup3\n        /* \"#utility.yul\":17608:17622   */\n      add\n        /* \"#utility.yul\":17601:17659   */\n      mstore\n        /* \"#utility.yul\":17484:17666   */\n      pop\n      jump\t// out\n        /* \"#utility.yul\":17672:18038   */\n    tag_213:\n        /* \"#utility.yul\":17814:17817   */\n      0x00\n        /* \"#utility.yul\":17835:17902   */\n      tag_377\n        /* \"#utility.yul\":17899:17901   */\n      0x20\n        /* \"#utility.yul\":17894:17897   */\n      dup4\n        /* \"#utility.yul\":17835:17902   */\n      tag_195\n      jump\t// in\n    tag_377:\n        /* \"#utility.yul\":17828:17902   */\n      swap2\n      pop\n        /* \"#utility.yul\":17911:18004   */\n      tag_378\n        /* \"#utility.yul\":18000:18003   */\n      dup3\n        /* \"#utility.yul\":17911:18004   */\n      tag_212\n      jump\t// in\n    tag_378:\n        /* \"#utility.yul\":18029:18031   */\n      0x20\n        /* \"#utility.yul\":18024:18027   */\n      dup3\n        /* \"#utility.yul\":18020:18032   */\n      add\n        /* \"#utility.yul\":18013:18032   */\n      swap1\n      pop\n        /* \"#utility.yul\":17672:18038   */\n      swap2\n      swap1\n      pop\n      jump\t// out\n        /* \"#utility.yul\":18044:18463   */\n    tag_151:\n        /* \"#utility.yul\":18210:18214   */\n      0x00\n        /* \"#utility.yul\":18248:18250   */\n      0x20\n        /* \"#utility.yul\":18237:18246   */\n      dup3\n        /* \"#utility.yul\":18233:18251   */\n      add\n        /* \"#utility.yul\":18225:18251   */\n      swap1\n      pop\n        /* \"#utility.yul\":18297:18306   */\n      dup2\n        /* \"#utility.yul\":18291:18295   */\n      dup2\n        /* \"#utility.yul\":18287:18307   */\n      sub\n        /* \"#utility.yul\":18283:18284   */\n      0x00\n        /* \"#utility.yul\":18272:18281   */\n      dup4\n        /* \"#utility.yul\":18268:18285   */\n      add\n        /* \"#utility.yul\":18261:18308   */\n      mstore\n        /* \"#utility.yul\":18325:18456   */\n      tag_380\n        /* \"#utility.yul\":18451:18455   */\n      dup2\n        /* \"#utility.yul\":18325:18456   */\n      tag_213\n      jump\t// in\n    tag_380:\n        /* \"#utility.yul\":18317:18456   */\n      swap1\n      pop\n        /* \"#utility.yul\":18044:18463   */\n      swap2\n      swap1\n      pop\n      jump\t// out\n        /* \"#utility.yul\":18469:18649   */\n    tag_214:\n        /* \"#utility.yul\":18517:18594   */\n      0x4e487b7100000000000000000000000000000000000000000000000000000000\n        /* \"#utility.yul\":18514:18515   */\n      0x00\n        /* \"#utility.yul\":18507:18595   */\n      mstore\n        /* \"#utility.yul\":18614:18618   */\n      0x11\n        /* \"#utility.yul\":18611:18612   */\n      0x04\n        /* \"#utility.yul\":18604:18619   */\n      mstore\n        /* \"#utility.yul\":18638:18642   */\n      0x24\n        /* \"#utility.yul\":18635:18636   */\n      0x00\n        /* \"#utility.yul\":18628:18643   */\n      revert\n        /* \"#utility.yul\":18655:19065   */\n    tag_155:\n        /* \"#utility.yul\":18695:18702   */\n      0x00\n        /* \"#utility.yul\":18718:18738   */\n      tag_383\n        /* \"#utility.yul\":18736:18737   */\n      dup3\n        /* \"#utility.yul\":18718:18738   */\n      tag_170\n      jump\t// in\n    tag_383:\n        /* \"#utility.yul\":18713:18738   */\n      swap2\n      pop\n        /* \"#utility.yul\":18752:18772   */\n      tag_384\n        /* \"#utility.yul\":18770:18771   */\n      dup4\n        /* \"#utility.yul\":18752:18772   */\n      tag_170\n      jump\t// in\n    tag_384:\n        /* \"#utility.yul\":18747:18772   */\n      swap3\n      pop\n        /* \"#utility.yul\":18807:18808   */\n      dup3\n        /* \"#utility.yul\":18804:18805   */\n      dup3\n        /* \"#utility.yul\":18800:18809   */\n      mul\n        /* \"#utility.yul\":18829:18859   */\n      tag_385\n        /* \"#utility.yul\":18847:18858   */\n      dup2\n        /* \"#utility.yul\":18829:18859   */\n      tag_170\n      jump\t// in\n    tag_385:\n        /* \"#utility.yul\":18818:18859   */\n      swap2\n      pop\n        /* \"#utility.yul\":19008:19009   */\n      dup3\n        /* \"#utility.yul\":18999:19006   */\n      dup3\n        /* \"#utility.yul\":18995:19010   */\n      div\n        /* \"#utility.yul\":18992:18993   */\n      dup5\n        /* \"#utility.yul\":18989:19011   */\n      eq\n        /* \"#utility.yul\":18969:18970   */\n      dup4\n        /* \"#utility.yul\":18962:18971   */\n      iszero\n        /* \"#utility.yul\":18942:19025   */\n      or\n        /* \"#utility.yul\":18919:19058   */\n      tag_386\n      jumpi\n        /* \"#utility.yul\":19038:19056   */\n      tag_387\n      tag_214\n      jump\t// in\n    tag_387:\n        /* \"#utility.yul\":18919:19058   */\n    tag_386:\n        /* \"#utility.yul\":18703:19065   */\n      pop\n        /* \"#utility.yul\":18655:19065   */\n      swap3\n      swap2\n      pop\n      pop\n      jump\t// out\n        /* \"#utility.yul\":19071:19251   */\n    tag_215:\n        /* \"#utility.yul\":19119:19196   */\n      0x4e487b7100000000000000000000000000000000000000000000000000000000\n        /* \"#utility.yul\":19116:19117   */\n      0x00\n        /* \"#utility.yul\":19109:19197   */\n      mstore\n        /* \"#utility.yul\":19216:19220   */\n      0x12\n        /* \"#utility.yul\":19213:19214   */\n      0x04\n        /* \"#utility.yul\":19206:19221   */\n      mstore\n        /* \"#utility.yul\":19240:19244   */\n      0x24\n        /* \"#utility.yul\":19237:19238   */\n      0x00\n        /* \"#utility.yul\":19230:19245   */\n      revert\n        /* \"#utility.yul\":19257:19442   */\n    tag_158:\n        /* \"#utility.yul\":19297:19298   */\n      0x00\n        /* \"#utility.yul\":19314:19334   */\n      tag_390\n        /* \"#utility.yul\":19332:19333   */\n      dup3\n        /* \"#utility.yul\":19314:19334   */\n      tag_170\n      jump\t// in\n    tag_390:\n        /* \"#utility.yul\":19309:19334   */\n      swap2\n      pop\n        /* \"#utility.yul\":19348:19368   */\n      tag_391\n        /* \"#utility.yul\":19366:19367   */\n      dup4\n        /* \"#utility.yul\":19348:19368   */\n      tag_170\n      jump\t// in\n    tag_391:\n        /* \"#utility.yul\":19343:19368   */\n      swap3\n      pop\n        /* \"#utility.yul\":19387:19388   */\n      dup3\n        /* \"#utility.yul\":19377:19412   */\n      tag_392\n      jumpi\n        /* \"#utility.yul\":19392:19410   */\n      tag_393\n      tag_215\n      jump\t// in\n    tag_393:\n        /* \"#utility.yul\":19377:19412   */\n    tag_392:\n        /* \"#utility.yul\":19434:19435   */\n      dup3\n        /* \"#utility.yul\":19431:19432   */\n      dup3\n        /* \"#utility.yul\":19427:19436   */\n      div\n        /* \"#utility.yul\":19422:19436   */\n      swap1\n      pop\n        /* \"#utility.yul\":19257:19442   */\n      swap3\n      swap2\n      pop\n      pop\n      jump\t// out\n        /* \"#utility.yul\":19448:19642   */\n    tag_161:\n        /* \"#utility.yul\":19488:19492   */\n      0x00\n        /* \"#utility.yul\":19508:19528   */\n      tag_395\n        /* \"#utility.yul\":19526:19527   */\n      dup3\n        /* \"#utility.yul\":19508:19528   */\n      tag_170\n      jump\t// in\n    tag_395:\n        /* \"#utility.yul\":19503:19528   */\n      swap2\n      pop\n        /* \"#utility.yul\":19542:19562   */\n      tag_396\n        /* \"#utility.yul\":19560:19561   */\n      dup4\n        /* \"#utility.yul\":19542:19562   */\n      tag_170\n      jump\t// in\n    tag_396:\n        /* \"#utility.yul\":19537:19562   */\n      swap3\n      pop\n        /* \"#utility.yul\":19586:19587   */\n      dup3\n        /* \"#utility.yul\":19583:19584   */\n      dup3\n        /* \"#utility.yul\":19579:19588   */\n      sub\n        /* \"#utility.yul\":19571:19588   */\n      swap1\n      pop\n        /* \"#utility.yul\":19610:19611   */\n      dup2\n        /* \"#utility.yul\":19604:19608   */\n      dup2\n        /* \"#utility.yul\":19601:19612   */\n      gt\n        /* \"#utility.yul\":19598:19635   */\n      iszero\n      tag_397\n      jumpi\n        /* \"#utility.yul\":19615:19633   */\n      tag_398\n      tag_214\n      jump\t// in\n    tag_398:\n        /* \"#utility.yul\":19598:19635   */\n    tag_397:\n        /* \"#utility.yul\":19448:19642   */\n      swap3\n      swap2\n      pop\n      pop\n      jump\t// out\n\n    auxdata: 0xa2646970667358221220507e9b968a92a1c6307c2f9a73d2b08af560f0ec9b9e8d68dc2ef537fb530ebc64736f6c63430008150033\n}\n",
				"bytecode": {
					"linkReferences": {},
					"object": "608060405234801562000010575f80fd5b5060405162001bc038038062001bc083398181016040528101906200003691906200020a565b620000566200004a620000a560201b60201c565b620000ac60201b60201c565b8160015f6101000a81548173ffffffffffffffffffffffffffffffffffffffff021916908373ffffffffffffffffffffffffffffffffffffffff1602179055508060028190555050506200024f565b5f33905090565b5f805f9054906101000a900473ffffffffffffffffffffffffffffffffffffffff169050815f806101000a81548173ffffffffffffffffffffffffffffffffffffffff021916908373ffffffffffffffffffffffffffffffffffffffff1602179055508173ffffffffffffffffffffffffffffffffffffffff168173ffffffffffffffffffffffffffffffffffffffff167f8be0079c531659141344cd1fd0a4f28419497f9722a3daafe3b4186f6b6457e060405160405180910390a35050565b5f80fd5b5f73ffffffffffffffffffffffffffffffffffffffff82169050919050565b5f6200019c8262000171565b9050919050565b620001ae8162000190565b8114620001b9575f80fd5b50565b5f81519050620001cc81620001a3565b92915050565b5f819050919050565b620001e681620001d2565b8114620001f1575f80fd5b50565b5f815190506200020481620001db565b92915050565b5f80604083850312156200022357620002226200016d565b5b5f6200023285828601620001bc565b92505060206200024585828601620001f4565b9150509250929050565b611963806200025d5f395ff3fe60806040526004361061009b575f3560e01c8063b5f522f711610063578063b5f522f71461016d578063bd94b005146101ac578063bdde7897146101d4578063d96a094a146101fc578063ddca3f4314610218578063f2fde38b146102425761009b565b8063150b7a021461009f57806347ccca02146100db5780636019061b14610105578063715018a61461012d5780638da5cb5b14610143575b5f80fd5b3480156100aa575f80fd5b506100c560048036038101906100c09190611109565b61026a565b6040516100d291906111c3565b60405180910390f35b3480156100e6575f80fd5b506100ef61027d565b6040516100fc9190611237565b60405180910390f35b348015610110575f80fd5b5061012b60048036038101906101269190611250565b6102a2565b005b348015610138575f80fd5b506101416105ee565b005b34801561014e575f80fd5b50610157610601565b604051610164919061129d565b60405180910390f35b348015610178575f80fd5b50610193600480360381019061018e91906112b6565b610628565b6040516101a3949392919061130a565b60405180910390f35b3480156101b7575f80fd5b506101d260048036038101906101cd91906112b6565b61067f565b005b3480156101df575f80fd5b506101fa60048036038101906101f59190611250565b610894565b005b610216600480360381019061021191906112b6565b610a2b565b005b348015610223575f80fd5b5061022c610d22565b604051610239919061134d565b60405180910390f35b34801561024d575f80fd5b5061026860048036038101906102639190611366565b610d28565b005b5f63150b7a0260e01b9050949350505050565b60015f9054906101000a900473ffffffffffffffffffffffffffffffffffffffff1681565b3373ffffffffffffffffffffffffffffffffffffffff1660015f9054906101000a900473ffffffffffffffffffffffffffffffffffffffff1673ffffffffffffffffffffffffffffffffffffffff16636352211e846040518263ffffffff1660e01b8152600401610313919061134d565b602060405180830381865afa15801561032e573d5f803e3d5ffd5b505050506040513d601f19601f8201168201806040525081019061035291906113a5565b73ffffffffffffffffffffffffffffffffffffffff16146103a8576040517f08c379a000000000000000000000000000000000000000000000000000000000815260040161039f9061142a565b60405180910390fd5b5f81116103ea576040517f08c379a00000000000000000000000000000000000000000000000000000000081526004016103e190611492565b60405180910390fd5b60035f8381526020019081526020015f206003015f9054906101000a900460ff161561044b576040517f08c379a0000000000000000000000000000000000000000000000000000000008152600401610442906114fa565b60405180910390fd5b60015f9054906101000a900473ffffffffffffffffffffffffffffffffffffffff1673ffffffffffffffffffffffffffffffffffffffff166342842e0e3330856040518463ffffffff1660e01b81526004016104a993929190611518565b5f604051808303815f87803b1580156104c0575f80fd5b505af11580156104d2573d5f803e3d5ffd5b5050505060405180608001604052803373ffffffffffffffffffffffffffffffffffffffff1681526020018381526020018281526020016001151581525060035f8481526020019081526020015f205f820151815f015f6101000a81548173ffffffffffffffffffffffffffffffffffffffff021916908373ffffffffffffffffffffffffffffffffffffffff16021790555060208201518160010155604082015181600201556060820151816003015f6101000a81548160ff021916908315150217905550905050813373ffffffffffffffffffffffffffffffffffffffff167f2c5a9de64e99c2ab1b836ad03048ec0bef7c0a2af3dd947595c46274e50a7c82836040516105e2919061134d565b60405180910390a35050565b6105f6610daa565b6105ff5f610e28565b565b5f805f9054906101000a900473ffffffffffffffffffffffffffffffffffffffff16905090565b6003602052805f5260405f205f91509050805f015f9054906101000a900473ffffffffffffffffffffffffffffffffffffffff1690806001015490806002015490806003015f9054906101000a900460ff16905084565b60035f8281526020019081526020015f206003015f9054906101000a900460ff166106df576040517f08c379a00000000000000000000000000000000000000000000000000000000081526004016106d690611597565b60405180910390fd5b3373ffffffffffffffffffffffffffffffffffffffff1660035f8381526020019081526020015f205f015f9054906101000a900473ffffffffffffffffffffffffffffffffffffffff1673ffffffffffffffffffffffffffffffffffffffff161461077f576040517f08c379a000000000000000000000000000000000000000000000000000000000815260040161077690611625565b60405180910390fd5b60015f9054906101000a900473ffffffffffffffffffffffffffffffffffffffff1673ffffffffffffffffffffffffffffffffffffffff166342842e0e3033846040518463ffffffff1660e01b81526004016107dd93929190611518565b5f604051808303815f87803b1580156107f4575f80fd5b505af1158015610806573d5f803e3d5ffd5b5050505060035f8281526020019081526020015f205f8082015f6101000a81549073ffffffffffffffffffffffffffffffffffffffff0219169055600182015f9055600282015f9055600382015f6101000a81549060ff02191690555050807f2c56893f6f6026d19bd17b7d05c9f15c522de1ae2b1c3a825f91a73c799321f260405160405180910390a250565b60035f8381526020019081526020015f206003015f9054906101000a900460ff166108f4576040517f08c379a00000000000000000000000000000000000000000000000000000000081526004016108eb90611597565b60405180910390fd5b3373ffffffffffffffffffffffffffffffffffffffff1660035f8481526020019081526020015f205f015f9054906101000a900473ffffffffffffffffffffffffffffffffffffffff1673ffffffffffffffffffffffffffffffffffffffff1614610994576040517f08c379a000000000000000000000000000000000000000000000000000000000815260040161098b906116b3565b60405180910390fd5b5f81116109d6576040517f08c379a00000000000000000000000000000000000000000000000000000000081526004016109cd90611492565b60405180910390fd5b8060035f8481526020019081526020015f2060020181905550817feefe35a464293e437181813c2025f351aa0efedbb4ada5e147b74bb431c4fd9682604051610a1f919061134d565b60405180910390a25050565b60035f8281526020019081526020015f206003015f9054906101000a900460ff16610a8b576040517f08c379a0000000000000000000000000000000000000000000000000000000008152600401610a8290611597565b60405180910390fd5b60035f8281526020019081526020015f2060020154341015610ae2576040517f08c379a0000000000000000000000000000000000000000000000000000000008152600401610ad99061171b565b60405180910390fd5b5f60035f8381526020019081526020015f205f015f9054906101000a900473ffffffffffffffffffffffffffffffffffffffff1690505f610b416064610b3360025434610ee990919063ffffffff16565b610efe90919063ffffffff16565b90505f610b578234610f1390919063ffffffff16565b90508273ffffffffffffffffffffffffffffffffffffffff166108fc8290811502906040515f60405180830381858888f19350505050158015610b9c573d5f803e3d5ffd5b50610ba5610601565b73ffffffffffffffffffffffffffffffffffffffff166108fc8390811502906040515f60405180830381858888f19350505050158015610be7573d5f803e3d5ffd5b5060015f9054906101000a900473ffffffffffffffffffffffffffffffffffffffff1673ffffffffffffffffffffffffffffffffffffffff166342842e0e3033876040518463ffffffff1660e01b8152600401610c4693929190611518565b5f604051808303815f87803b158015610c5d575f80fd5b505af1158015610c6f573d5f803e3d5ffd5b5050505060035f8581526020019081526020015f205f8082015f6101000a81549073ffffffffffffffffffffffffffffffffffffffff0219169055600182015f9055600282015f9055600382015f6101000a81549060ff02191690555050833373ffffffffffffffffffffffffffffffffffffffff167f7da028d6d698750b8ca8e37c78cf467b925fadc9daec0949597c76dd2dec865334604051610d14919061134d565b60405180910390a350505050565b60025481565b610d30610daa565b5f73ffffffffffffffffffffffffffffffffffffffff168173ffffffffffffffffffffffffffffffffffffffff1603610d9e576040517f08c379a0000000000000000000000000000000000000000000000000000000008152600401610d95906117a9565b60405180910390fd5b610da781610e28565b50565b610db2610f28565b73ffffffffffffffffffffffffffffffffffffffff16610dd0610601565b73ffffffffffffffffffffffffffffffffffffffff1614610e26576040517f08c379a0000000000000000000000000000000000000000000000000000000008152600401610e1d90611811565b60405180910390fd5b565b5f805f9054906101000a900473ffffffffffffffffffffffffffffffffffffffff169050815f806101000a81548173ffffffffffffffffffffffffffffffffffffffff021916908373ffffffffffffffffffffffffffffffffffffffff1602179055508173ffffffffffffffffffffffffffffffffffffffff168173ffffffffffffffffffffffffffffffffffffffff167f8be0079c531659141344cd1fd0a4f28419497f9722a3daafe3b4186f6b6457e060405160405180910390a35050565b5f8183610ef6919061185c565b905092915050565b5f8183610f0b91906118ca565b905092915050565b5f8183610f2091906118fa565b905092915050565b5f33905090565b5f604051905090565b5f80fd5b5f80fd5b5f73ffffffffffffffffffffffffffffffffffffffff82169050919050565b5f610f6982610f40565b9050919050565b610f7981610f5f565b8114610f83575f80fd5b50565b5f81359050610f9481610f70565b92915050565b5f819050919050565b610fac81610f9a565b8114610fb6575f80fd5b50565b5f81359050610fc781610fa3565b92915050565b5f80fd5b5f80fd5b5f601f19601f8301169050919050565b7f4e487b71000000000000000000000000000000000000000000000000000000005f52604160045260245ffd5b61101b82610fd5565b810181811067ffffffffffffffff8211171561103a57611039610fe5565b5b80604052505050565b5f61104c610f2f565b90506110588282611012565b919050565b5f67ffffffffffffffff82111561107757611076610fe5565b5b61108082610fd5565b9050602081019050919050565b828183375f83830152505050565b5f6110ad6110a88461105d565b611043565b9050828152602081018484840111156110c9576110c8610fd1565b5b6110d484828561108d565b509392505050565b5f82601f8301126110f0576110ef610fcd565b5b813561110084826020860161109b565b91505092915050565b5f805f806080858703121561112157611120610f38565b5b5f61112e87828801610f86565b945050602061113f87828801610f86565b935050604061115087828801610fb9565b925050606085013567ffffffffffffffff81111561117157611170610f3c565b5b61117d878288016110dc565b91505092959194509250565b5f7fffffffff0000000000000000000000000000000000000000000000000000000082169050919050565b6111bd81611189565b82525050565b5f6020820190506111d65f8301846111b4565b92915050565b5f819050919050565b5f6111ff6111fa6111f584610f40565b6111dc565b610f40565b9050919050565b5f611210826111e5565b9050919050565b5f61122182611206565b9050919050565b61123181611217565b82525050565b5f60208201905061124a5f830184611228565b92915050565b5f806040838503121561126657611265610f38565b5b5f61127385828601610fb9565b925050602061128485828601610fb9565b9150509250929050565b61129781610f5f565b82525050565b5f6020820190506112b05f83018461128e565b92915050565b5f602082840312156112cb576112ca610f38565b5b5f6112d884828501610fb9565b91505092915050565b6112ea81610f9a565b82525050565b5f8115159050919050565b611304816112f0565b82525050565b5f60808201905061131d5f83018761128e565b61132a60208301866112e1565b61133760408301856112e1565b61134460608301846112fb565b95945050505050565b5f6020820190506113605f8301846112e1565b92915050565b5f6020828403121561137b5761137a610f38565b5b5f61138884828501610f86565b91505092915050565b5f8151905061139f81610f70565b92915050565b5f602082840312156113ba576113b9610f38565b5b5f6113c784828501611391565b91505092915050565b5f82825260208201905092915050565b7f4f6e6c7920746865206f776e65722063616e2063726561746520612073616c655f82015250565b5f6114146020836113d0565b915061141f826113e0565b602082019050919050565b5f6020820190508181035f83015261144181611408565b9050919050565b7f5072696365206d7573742062652067726561746572207468616e207a65726f005f82015250565b5f61147c601f836113d0565b915061148782611448565b602082019050919050565b5f6020820190508181035f8301526114a981611470565b9050919050565b7f53616c6520697320616c726561647920616374697665000000000000000000005f82015250565b5f6114e46016836113d0565b91506114ef826114b0565b602082019050919050565b5f6020820190508181035f830152611511816114d8565b9050919050565b5f60608201905061152b5f83018661128e565b611538602083018561128e565b61154560408301846112e1565b949350505050565b7f53616c65206973206e6f742061637469766500000000000000000000000000005f82015250565b5f6115816012836113d0565b915061158c8261154d565b602082019050919050565b5f6020820190508181035f8301526115ae81611575565b9050919050565b7f4f6e6c79207468652073656c6c65722063616e2063616e63656c2074686520735f8201527f616c650000000000000000000000000000000000000000000000000000000000602082015250565b5f61160f6023836113d0565b915061161a826115b5565b604082019050919050565b5f6020820190508181035f83015261163c81611603565b9050919050565b7f4f6e6c79207468652073656c6c65722063616e207570646174652074686520735f8201527f616c650000000000000000000000000000000000000000000000000000000000602082015250565b5f61169d6023836113d0565b91506116a882611643565b604082019050919050565b5f6020820190508181035f8301526116ca81611691565b9050919050565b7f496e73756666696369656e74207061796d656e740000000000000000000000005f82015250565b5f6117056014836113d0565b9150611710826116d1565b602082019050919050565b5f6020820190508181035f830152611732816116f9565b9050919050565b7f4f776e61626c653a206e6577206f776e657220697320746865207a65726f20615f8201527f6464726573730000000000000000000000000000000000000000000000000000602082015250565b5f6117936026836113d0565b915061179e82611739565b604082019050919050565b5f6020820190508181035f8301526117c081611787565b9050919050565b7f4f776e61626c653a2063616c6c6572206973206e6f7420746865206f776e65725f82015250565b5f6117fb6020836113d0565b9150611806826117c7565b602082019050919050565b5f6020820190508181035f830152611828816117ef565b9050919050565b7f4e487b71000000000000000000000000000000000000000000000000000000005f52601160045260245ffd5b5f61186682610f9a565b915061187183610f9a565b925082820261187f81610f9a565b915082820484148315176118965761189561182f565b5b5092915050565b7f4e487b71000000000000000000000000000000000000000000000000000000005f52601260045260245ffd5b5f6118d482610f9a565b91506118df83610f9a565b9250826118ef576118ee61189d565b5b828204905092915050565b5f61190482610f9a565b915061190f83610f9a565b92508282039050818111156119275761192661182f565b5b9291505056fea2646970667358221220507e9b968a92a1c6307c2f9a73d2b08af560f0ec9b9e8d68dc2ef537fb530ebc64736f6c63430008150033",
					"opcodes": "PUSH1 0x80 PUSH1 0x40 MSTORE CALLVALUE DUP1 ISZERO PUSH3 0x10 JUMPI PUSH0 DUP1 REVERT JUMPDEST POP PUSH1 0x40 MLOAD PUSH3 0x1BC0 CODESIZE SUB DUP1 PUSH3 0x1BC0 DUP4 CODECOPY DUP2 DUP2 ADD PUSH1 0x40 MSTORE DUP2 ADD SWAP1 PUSH3 0x36 SWAP2 SWAP1 PUSH3 0x20A JUMP JUMPDEST PUSH3 0x56 PUSH3 0x4A PUSH3 0xA5 PUSH1 0x20 SHL PUSH1 0x20 SHR JUMP JUMPDEST PUSH3 0xAC PUSH1 0x20 SHL PUSH1 0x20 SHR JUMP JUMPDEST DUP2 PUSH1 0x1 PUSH0 PUSH2 0x100 EXP DUP2 SLOAD DUP2 PUSH20 0xFFFFFFFFFFFFFFFFFFFFFFFFFFFFFFFFFFFFFFFF MUL NOT AND SWAP1 DUP4 PUSH20 0xFFFFFFFFFFFFFFFFFFFFFFFFFFFFFFFFFFFFFFFF AND MUL OR SWAP1 SSTORE POP DUP1 PUSH1 0x2 DUP2 SWAP1 SSTORE POP POP POP PUSH3 0x24F JUMP JUMPDEST PUSH0 CALLER SWAP1 POP SWAP1 JUMP JUMPDEST PUSH0 DUP1 PUSH0 SWAP1 SLOAD SWAP1 PUSH2 0x100 EXP SWAP1 DIV PUSH20 0xFFFFFFFFFFFFFFFFFFFFFFFFFFFFFFFFFFFFFFFF AND SWAP1 POP DUP2 PUSH0 DUP1 PUSH2 0x100 EXP DUP2 SLOAD DUP2 PUSH20 0xFFFFFFFFFFFFFFFFFFFFFFFFFFFFFFFFFFFFFFFF MUL NOT AND SWAP1 DUP4 PUSH20 0xFFFFFFFFFFFFFFFFFFFFFFFFFFFFFFFFFFFFFFFF AND MUL OR SWAP1 SSTORE POP DUP2 PUSH20 0xFFFFFFFFFFFFFFFFFFFFFFFFFFFFFFFFFFFFFFFF AND DUP2 PUSH20 0xFFFFFFFFFFFFFFFFFFFFFFFFFFFFFFFFFFFFFFFF AND PUSH32 0x8BE0079C531659141344CD1FD0A4F28419497F9722A3DAAFE3B4186F6B6457E0 PUSH1 0x40 MLOAD PUSH1 0x40 MLOAD DUP1 SWAP2 SUB SWAP1 LOG3 POP POP JUMP JUMPDEST PUSH0 DUP1 REVERT JUMPDEST PUSH0 PUSH20 0xFFFFFFFFFFFFFFFFFFFFFFFFFFFFFFFFFFFFFFFF DUP3 AND SWAP1 POP SWAP2 SWAP1 POP JUMP JUMPDEST PUSH0 PUSH3 0x19C DUP3 PUSH3 0x171 JUMP JUMPDEST SWAP1 POP SWAP2 SWAP1 POP JUMP JUMPDEST PUSH3 0x1AE DUP2 PUSH3 0x190 JUMP JUMPDEST DUP2 EQ PUSH3 0x1B9 JUMPI PUSH0 DUP1 REVERT JUMPDEST POP JUMP JUMPDEST PUSH0 DUP2 MLOAD SWAP1 POP PUSH3 0x1CC DUP2 PUSH3 0x1A3 JUMP JUMPDEST SWAP3 SWAP2 POP POP JUMP JUMPDEST PUSH0 DUP2 SWAP1 POP SWAP2 SWAP1 POP JUMP JUMPDEST PUSH3 0x1E6 DUP2 PUSH3 0x1D2 JUMP JUMPDEST DUP2 EQ PUSH3 0x1F1 JUMPI PUSH0 DUP1 REVERT JUMPDEST POP JUMP JUMPDEST PUSH0 DUP2 MLOAD SWAP1 POP PUSH3 0x204 DUP2 PUSH3 0x1DB JUMP JUMPDEST SWAP3 SWAP2 POP POP JUMP JUMPDEST PUSH0 DUP1 PUSH1 0x40 DUP4 DUP6 SUB SLT ISZERO PUSH3 0x223 JUMPI PUSH3 0x222 PUSH3 0x16D JUMP JUMPDEST JUMPDEST PUSH0 PUSH3 0x232 DUP6 DUP3 DUP7 ADD PUSH3 0x1BC JUMP JUMPDEST SWAP3 POP POP PUSH1 0x20 PUSH3 0x245 DUP6 DUP3 DUP7 ADD PUSH3 0x1F4 JUMP JUMPDEST SWAP2 POP POP SWAP3 POP SWAP3 SWAP1 POP JUMP JUMPDEST PUSH2 0x1963 DUP1 PUSH3 0x25D PUSH0 CODECOPY PUSH0 RETURN INVALID PUSH1 0x80 PUSH1 0x40 MSTORE PUSH1 0x4 CALLDATASIZE LT PUSH2 0x9B JUMPI PUSH0 CALLDATALOAD PUSH1 0xE0 SHR DUP1 PUSH4 0xB5F522F7 GT PUSH2 0x63 JUMPI DUP1 PUSH4 0xB5F522F7 EQ PUSH2 0x16D JUMPI DUP1 PUSH4 0xBD94B005 EQ PUSH2 0x1AC JUMPI DUP1 PUSH4 0xBDDE7897 EQ PUSH2 0x1D4 JUMPI DUP1 PUSH4 0xD96A094A EQ PUSH2 0x1FC JUMPI DUP1 PUSH4 0xDDCA3F43 EQ PUSH2 0x218 JUMPI DUP1 PUSH4 0xF2FDE38B EQ PUSH2 0x242 JUMPI PUSH2 0x9B JUMP JUMPDEST DUP1 PUSH4 0x150B7A02 EQ PUSH2 0x9F JUMPI DUP1 PUSH4 0x47CCCA02 EQ PUSH2 0xDB JUMPI DUP1 PUSH4 0x6019061B EQ PUSH2 0x105 JUMPI DUP1 PUSH4 0x715018A6 EQ PUSH2 0x12D JUMPI DUP1 PUSH4 0x8DA5CB5B EQ PUSH2 0x143 JUMPI JUMPDEST PUSH0 DUP1 REVERT JUMPDEST CALLVALUE DUP1 ISZERO PUSH2 0xAA JUMPI PUSH0 DUP1 REVERT JUMPDEST POP PUSH2 0xC5 PUSH1 0x4 DUP1 CALLDATASIZE SUB DUP2 ADD SWAP1 PUSH2 0xC0 SWAP2 SWAP1 PUSH2 0x1109 JUMP JUMPDEST PUSH2 0x26A JUMP JUMPDEST PUSH1 0x40 MLOAD PUSH2 0xD2 SWAP2 SWAP1 PUSH2 0x11C3 JUMP JUMPDEST PUSH1 0x40 MLOAD DUP1 SWAP2 SUB SWAP1 RETURN JUMPDEST CALLVALUE DUP1 ISZERO PUSH2 0xE6 JUMPI PUSH0 DUP1 REVERT JUMPDEST POP PUSH2 0xEF PUSH2 0x27D JUMP JUMPDEST PUSH1 0x40 MLOAD PUSH2 0xFC SWAP2 SWAP1 PUSH2 0x1237 JUMP JUMPDEST PUSH1 0x40 MLOAD DUP1 SWAP2 SUB SWAP1 RETURN JUMPDEST CALLVALUE DUP1 ISZERO PUSH2 0x110 JUMPI PUSH0 DUP1 REVERT JUMPDEST POP PUSH2 0x12B PUSH1 0x4 DUP1 CALLDATASIZE SUB DUP2 ADD SWAP1 PUSH2 0x126 SWAP2 SWAP1 PUSH2 0x1250 JUMP JUMPDEST PUSH2 0x2A2 JUMP JUMPDEST STOP JUMPDEST CALLVALUE DUP1 ISZERO PUSH2 0x138 JUMPI PUSH0 DUP1 REVERT JUMPDEST POP PUSH2 0x141 PUSH2 0x5EE JUMP JUMPDEST STOP JUMPDEST CALLVALUE DUP1 ISZERO PUSH2 0x14E JUMPI PUSH0 DUP1 REVERT JUMPDEST POP PUSH2 0x157 PUSH2 0x601 JUMP JUMPDEST PUSH1 0x40 MLOAD PUSH2 0x164 SWAP2 SWAP1 PUSH2 0x129D JUMP JUMPDEST PUSH1 0x40 MLOAD DUP1 SWAP2 SUB SWAP1 RETURN JUMPDEST CALLVALUE DUP1 ISZERO PUSH2 0x178 JUMPI PUSH0 DUP1 REVERT JUMPDEST POP PUSH2 0x193 PUSH1 0x4 DUP1 CALLDATASIZE SUB DUP2 ADD SWAP1 PUSH2 0x18E SWAP2 SWAP1 PUSH2 0x12B6 JUMP JUMPDEST PUSH2 0x628 JUMP JUMPDEST PUSH1 0x40 MLOAD PUSH2 0x1A3 SWAP5 SWAP4 SWAP3 SWAP2 SWAP1 PUSH2 0x130A JUMP JUMPDEST PUSH1 0x40 MLOAD DUP1 SWAP2 SUB SWAP1 RETURN JUMPDEST CALLVALUE DUP1 ISZERO PUSH2 0x1B7 JUMPI PUSH0 DUP1 REVERT JUMPDEST POP PUSH2 0x1D2 PUSH1 0x4 DUP1 CALLDATASIZE SUB DUP2 ADD SWAP1 PUSH2 0x1CD SWAP2 SWAP1 PUSH2 0x12B6 JUMP JUMPDEST PUSH2 0x67F JUMP JUMPDEST STOP JUMPDEST CALLVALUE DUP1 ISZERO PUSH2 0x1DF JUMPI PUSH0 DUP1 REVERT JUMPDEST POP PUSH2 0x1FA PUSH1 0x4 DUP1 CALLDATASIZE SUB DUP2 ADD SWAP1 PUSH2 0x1F5 SWAP2 SWAP1 PUSH2 0x1250 JUMP JUMPDEST PUSH2 0x894 JUMP JUMPDEST STOP JUMPDEST PUSH2 0x216 PUSH1 0x4 DUP1 CALLDATASIZE SUB DUP2 ADD SWAP1 PUSH2 0x211 SWAP2 SWAP1 PUSH2 0x12B6 JUMP JUMPDEST PUSH2 0xA2B JUMP JUMPDEST STOP JUMPDEST CALLVALUE DUP1 ISZERO PUSH2 0x223 JUMPI PUSH0 DUP1 REVERT JUMPDEST POP PUSH2 0x22C PUSH2 0xD22 JUMP JUMPDEST PUSH1 0x40 MLOAD PUSH2 0x239 SWAP2 SWAP1 PUSH2 0x134D JUMP JUMPDEST PUSH1 0x40 MLOAD DUP1 SWAP2 SUB SWAP1 RETURN JUMPDEST CALLVALUE DUP1 ISZERO PUSH2 0x24D JUMPI PUSH0 DUP1 REVERT JUMPDEST POP PUSH2 0x268 PUSH1 0x4 DUP1 CALLDATASIZE SUB DUP2 ADD SWAP1 PUSH2 0x263 SWAP2 SWAP1 PUSH2 0x1366 JUMP JUMPDEST PUSH2 0xD28 JUMP JUMPDEST STOP JUMPDEST PUSH0 PUSH4 0x150B7A02 PUSH1 0xE0 SHL SWAP1 POP SWAP5 SWAP4 POP POP POP POP JUMP JUMPDEST PUSH1 0x1 PUSH0 SWAP1 SLOAD SWAP1 PUSH2 0x100 EXP SWAP1 DIV PUSH20 0xFFFFFFFFFFFFFFFFFFFFFFFFFFFFFFFFFFFFFFFF AND DUP2 JUMP JUMPDEST CALLER PUSH20 0xFFFFFFFFFFFFFFFFFFFFFFFFFFFFFFFFFFFFFFFF AND PUSH1 0x1 PUSH0 SWAP1 SLOAD SWAP1 PUSH2 0x100 EXP SWAP1 DIV PUSH20 0xFFFFFFFFFFFFFFFFFFFFFFFFFFFFFFFFFFFFFFFF AND PUSH20 0xFFFFFFFFFFFFFFFFFFFFFFFFFFFFFFFFFFFFFFFF AND PUSH4 0x6352211E DUP5 PUSH1 0x40 MLOAD DUP3 PUSH4 0xFFFFFFFF AND PUSH1 0xE0 SHL DUP2 MSTORE PUSH1 0x4 ADD PUSH2 0x313 SWAP2 SWAP1 PUSH2 0x134D JUMP JUMPDEST PUSH1 0x20 PUSH1 0x40 MLOAD DUP1 DUP4 SUB DUP2 DUP7 GAS STATICCALL ISZERO DUP1 ISZERO PUSH2 0x32E JUMPI RETURNDATASIZE PUSH0 DUP1 RETURNDATACOPY RETURNDATASIZE PUSH0 REVERT JUMPDEST POP POP POP POP PUSH1 0x40 MLOAD RETURNDATASIZE PUSH1 0x1F NOT PUSH1 0x1F DUP3 ADD AND DUP3 ADD DUP1 PUSH1 0x40 MSTORE POP DUP2 ADD SWAP1 PUSH2 0x352 SWAP2 SWAP1 PUSH2 0x13A5 JUMP JUMPDEST PUSH20 0xFFFFFFFFFFFFFFFFFFFFFFFFFFFFFFFFFFFFFFFF AND EQ PUSH2 0x3A8 JUMPI PUSH1 0x40 MLOAD PUSH32 0x8C379A000000000000000000000000000000000000000000000000000000000 DUP2 MSTORE PUSH1 0x4 ADD PUSH2 0x39F SWAP1 PUSH2 0x142A JUMP JUMPDEST PUSH1 0x40 MLOAD DUP1 SWAP2 SUB SWAP1 REVERT JUMPDEST PUSH0 DUP2 GT PUSH2 0x3EA JUMPI PUSH1 0x40 MLOAD PUSH32 0x8C379A000000000000000000000000000000000000000000000000000000000 DUP2 MSTORE PUSH1 0x4 ADD PUSH2 0x3E1 SWAP1 PUSH2 0x1492 JUMP JUMPDEST PUSH1 0x40 MLOAD DUP1 SWAP2 SUB SWAP1 REVERT JUMPDEST PUSH1 0x3 PUSH0 DUP4 DUP2 MSTORE PUSH1 0x20 ADD SWAP1 DUP2 MSTORE PUSH1 0x20 ADD PUSH0 KECCAK256 PUSH1 0x3 ADD PUSH0 SWAP1 SLOAD SWAP1 PUSH2 0x100 EXP SWAP1 DIV PUSH1 0xFF AND ISZERO PUSH2 0x44B JUMPI PUSH1 0x40 MLOAD PUSH32 0x8C379A000000000000000000000000000000000000000000000000000000000 DUP2 MSTORE PUSH1 0x4 ADD PUSH2 0x442 SWAP1 PUSH2 0x14FA JUMP JUMPDEST PUSH1 0x40 MLOAD DUP1 SWAP2 SUB SWAP1 REVERT JUMPDEST PUSH1 0x1 PUSH0 SWAP1 SLOAD SWAP1 PUSH2 0x100 EXP SWAP1 DIV PUSH20 0xFFFFFFFFFFFFFFFFFFFFFFFFFFFFFFFFFFFFFFFF AND PUSH20 0xFFFFFFFFFFFFFFFFFFFFFFFFFFFFFFFFFFFFFFFF AND PUSH4 0x42842E0E CALLER ADDRESS DUP6 PUSH1 0x40 MLOAD DUP5 PUSH4 0xFFFFFFFF AND PUSH1 0xE0 SHL DUP2 MSTORE PUSH1 0x4 ADD PUSH2 0x4A9 SWAP4 SWAP3 SWAP2 SWAP1 PUSH2 0x1518 JUMP JUMPDEST PUSH0 PUSH1 0x40 MLOAD DUP1 DUP4 SUB DUP2 PUSH0 DUP8 DUP1 EXTCODESIZE ISZERO DUP1 ISZERO PUSH2 0x4C0 JUMPI PUSH0 DUP1 REVERT JUMPDEST POP GAS CALL ISZERO DUP1 ISZERO PUSH2 0x4D2 JUMPI RETURNDATASIZE PUSH0 DUP1 RETURNDATACOPY RETURNDATASIZE PUSH0 REVERT JUMPDEST POP POP POP POP PUSH1 0x40 MLOAD DUP1 PUSH1 0x80 ADD PUSH1 0x40 MSTORE DUP1 CALLER PUSH20 0xFFFFFFFFFFFFFFFFFFFFFFFFFFFFFFFFFFFFFFFF AND DUP2 MSTORE PUSH1 0x20 ADD DUP4 DUP2 MSTORE PUSH1 0x20 ADD DUP3 DUP2 MSTORE PUSH1 0x20 ADD PUSH1 0x1 ISZERO ISZERO DUP2 MSTORE POP PUSH1 0x3 PUSH0 DUP5 DUP2 MSTORE PUSH1 0x20 ADD SWAP1 DUP2 MSTORE PUSH1 0x20 ADD PUSH0 KECCAK256 PUSH0 DUP3 ADD MLOAD DUP2 PUSH0 ADD PUSH0 PUSH2 0x100 EXP DUP2 SLOAD DUP2 PUSH20 0xFFFFFFFFFFFFFFFFFFFFFFFFFFFFFFFFFFFFFFFF MUL NOT AND SWAP1 DUP4 PUSH20 0xFFFFFFFFFFFFFFFFFFFFFFFFFFFFFFFFFFFFFFFF AND MUL OR SWAP1 SSTORE POP PUSH1 0x20 DUP3 ADD MLOAD DUP2 PUSH1 0x1 ADD SSTORE PUSH1 0x40 DUP3 ADD MLOAD DUP2 PUSH1 0x2 ADD SSTORE PUSH1 0x60 DUP3 ADD MLOAD DUP2 PUSH1 0x3 ADD PUSH0 PUSH2 0x100 EXP DUP2 SLOAD DUP2 PUSH1 0xFF MUL NOT AND SWAP1 DUP4 ISZERO ISZERO MUL OR SWAP1 SSTORE POP SWAP1 POP POP DUP2 CALLER PUSH20 0xFFFFFFFFFFFFFFFFFFFFFFFFFFFFFFFFFFFFFFFF AND PUSH32 0x2C5A9DE64E99C2AB1B836AD03048EC0BEF7C0A2AF3DD947595C46274E50A7C82 DUP4 PUSH1 0x40 MLOAD PUSH2 0x5E2 SWAP2 SWAP1 PUSH2 0x134D JUMP JUMPDEST PUSH1 0x40 MLOAD DUP1 SWAP2 SUB SWAP1 LOG3 POP POP JUMP JUMPDEST PUSH2 0x5F6 PUSH2 0xDAA JUMP JUMPDEST PUSH2 0x5FF PUSH0 PUSH2 0xE28 JUMP JUMPDEST JUMP JUMPDEST PUSH0 DUP1 PUSH0 SWAP1 SLOAD SWAP1 PUSH2 0x100 EXP SWAP1 DIV PUSH20 0xFFFFFFFFFFFFFFFFFFFFFFFFFFFFFFFFFFFFFFFF AND SWAP1 POP SWAP1 JUMP JUMPDEST PUSH1 0x3 PUSH1 0x20 MSTORE DUP1 PUSH0 MSTORE PUSH1 0x40 PUSH0 KECCAK256 PUSH0 SWAP2 POP SWAP1 POP DUP1 PUSH0 ADD PUSH0 SWAP1 SLOAD SWAP1 PUSH2 0x100 EXP SWAP1 DIV PUSH20 0xFFFFFFFFFFFFFFFFFFFFFFFFFFFFFFFFFFFFFFFF AND SWAP1 DUP1 PUSH1 0x1 ADD SLOAD SWAP1 DUP1 PUSH1 0x2 ADD SLOAD SWAP1 DUP1 PUSH1 0x3 ADD PUSH0 SWAP1 SLOAD SWAP1 PUSH2 0x100 EXP SWAP1 DIV PUSH1 0xFF AND SWAP1 POP DUP5 JUMP JUMPDEST PUSH1 0x3 PUSH0 DUP3 DUP2 MSTORE PUSH1 0x20 ADD SWAP1 DUP2 MSTORE PUSH1 0x20 ADD PUSH0 KECCAK256 PUSH1 0x3 ADD PUSH0 SWAP1 SLOAD SWAP1 PUSH2 0x100 EXP SWAP1 DIV PUSH1 0xFF AND PUSH2 0x6DF JUMPI PUSH1 0x40 MLOAD PUSH32 0x8C379A000000000000000000000000000000000000000000000000000000000 DUP2 MSTORE PUSH1 0x4 ADD PUSH2 0x6D6 SWAP1 PUSH2 0x1597 JUMP JUMPDEST PUSH1 0x40 MLOAD DUP1 SWAP2 SUB SWAP1 REVERT JUMPDEST CALLER PUSH20 0xFFFFFFFFFFFFFFFFFFFFFFFFFFFFFFFFFFFFFFFF AND PUSH1 0x3 PUSH0 DUP4 DUP2 MSTORE PUSH1 0x20 ADD SWAP1 DUP2 MSTORE PUSH1 0x20 ADD PUSH0 KECCAK256 PUSH0 ADD PUSH0 SWAP1 SLOAD SWAP1 PUSH2 0x100 EXP SWAP1 DIV PUSH20 0xFFFFFFFFFFFFFFFFFFFFFFFFFFFFFFFFFFFFFFFF AND PUSH20 0xFFFFFFFFFFFFFFFFFFFFFFFFFFFFFFFFFFFFFFFF AND EQ PUSH2 0x77F JUMPI PUSH1 0x40 MLOAD PUSH32 0x8C379A000000000000000000000000000000000000000000000000000000000 DUP2 MSTORE PUSH1 0x4 ADD PUSH2 0x776 SWAP1 PUSH2 0x1625 JUMP JUMPDEST PUSH1 0x40 MLOAD DUP1 SWAP2 SUB SWAP1 REVERT JUMPDEST PUSH1 0x1 PUSH0 SWAP1 SLOAD SWAP1 PUSH2 0x100 EXP SWAP1 DIV PUSH20 0xFFFFFFFFFFFFFFFFFFFFFFFFFFFFFFFFFFFFFFFF AND PUSH20 0xFFFFFFFFFFFFFFFFFFFFFFFFFFFFFFFFFFFFFFFF AND PUSH4 0x42842E0E ADDRESS CALLER DUP5 PUSH1 0x40 MLOAD DUP5 PUSH4 0xFFFFFFFF AND PUSH1 0xE0 SHL DUP2 MSTORE PUSH1 0x4 ADD PUSH2 0x7DD SWAP4 SWAP3 SWAP2 SWAP1 PUSH2 0x1518 JUMP JUMPDEST PUSH0 PUSH1 0x40 MLOAD DUP1 DUP4 SUB DUP2 PUSH0 DUP8 DUP1 EXTCODESIZE ISZERO DUP1 ISZERO PUSH2 0x7F4 JUMPI PUSH0 DUP1 REVERT JUMPDEST POP GAS CALL ISZERO DUP1 ISZERO PUSH2 0x806 JUMPI RETURNDATASIZE PUSH0 DUP1 RETURNDATACOPY RETURNDATASIZE PUSH0 REVERT JUMPDEST POP POP POP POP PUSH1 0x3 PUSH0 DUP3 DUP2 MSTORE PUSH1 0x20 ADD SWAP1 DUP2 MSTORE PUSH1 0x20 ADD PUSH0 KECCAK256 PUSH0 DUP1 DUP3 ADD PUSH0 PUSH2 0x100 EXP DUP2 SLOAD SWAP1 PUSH20 0xFFFFFFFFFFFFFFFFFFFFFFFFFFFFFFFFFFFFFFFF MUL NOT AND SWAP1 SSTORE PUSH1 0x1 DUP3 ADD PUSH0 SWAP1 SSTORE PUSH1 0x2 DUP3 ADD PUSH0 SWAP1 SSTORE PUSH1 0x3 DUP3 ADD PUSH0 PUSH2 0x100 EXP DUP2 SLOAD SWAP1 PUSH1 0xFF MUL NOT AND SWAP1 SSTORE POP POP DUP1 PUSH32 0x2C56893F6F6026D19BD17B7D05C9F15C522DE1AE2B1C3A825F91A73C799321F2 PUSH1 0x40 MLOAD PUSH1 0x40 MLOAD DUP1 SWAP2 SUB SWAP1 LOG2 POP JUMP JUMPDEST PUSH1 0x3 PUSH0 DUP4 DUP2 MSTORE PUSH1 0x20 ADD SWAP1 DUP2 MSTORE PUSH1 0x20 ADD PUSH0 KECCAK256 PUSH1 0x3 ADD PUSH0 SWAP1 SLOAD SWAP1 PUSH2 0x100 EXP SWAP1 DIV PUSH1 0xFF AND PUSH2 0x8F4 JUMPI PUSH1 0x40 MLOAD PUSH32 0x8C379A000000000000000000000000000000000000000000000000000000000 DUP2 MSTORE PUSH1 0x4 ADD PUSH2 0x8EB SWAP1 PUSH2 0x1597 JUMP JUMPDEST PUSH1 0x40 MLOAD DUP1 SWAP2 SUB SWAP1 REVERT JUMPDEST CALLER PUSH20 0xFFFFFFFFFFFFFFFFFFFFFFFFFFFFFFFFFFFFFFFF AND PUSH1 0x3 PUSH0 DUP5 DUP2 MSTORE PUSH1 0x20 ADD SWAP1 DUP2 MSTORE PUSH1 0x20 ADD PUSH0 KECCAK256 PUSH0 ADD PUSH0 SWAP1 SLOAD SWAP1 PUSH2 0x100 EXP SWAP1 DIV PUSH20 0xFFFFFFFFFFFFFFFFFFFFFFFFFFFFFFFFFFFFFFFF AND PUSH20 0xFFFFFFFFFFFFFFFFFFFFFFFFFFFFFFFFFFFFFFFF AND EQ PUSH2 0x994 JUMPI PUSH1 0x40 MLOAD PUSH32 0x8C379A000000000000000000000000000000000000000000000000000000000 DUP2 MSTORE PUSH1 0x4 ADD PUSH2 0x98B SWAP1 PUSH2 0x16B3 JUMP JUMPDEST PUSH1 0x40 MLOAD DUP1 SWAP2 SUB SWAP1 REVERT JUMPDEST PUSH0 DUP2 GT PUSH2 0x9D6 JUMPI PUSH1 0x40 MLOAD PUSH32 0x8C379A000000000000000000000000000000000000000000000000000000000 DUP2 MSTORE PUSH1 0x4 ADD PUSH2 0x9CD SWAP1 PUSH2 0x1492 JUMP JUMPDEST PUSH1 0x40 MLOAD DUP1 SWAP2 SUB SWAP1 REVERT JUMPDEST DUP1 PUSH1 0x3 PUSH0 DUP5 DUP2 MSTORE PUSH1 0x20 ADD SWAP1 DUP2 MSTORE PUSH1 0x20 ADD PUSH0 KECCAK256 PUSH1 0x2 ADD DUP2 SWAP1 SSTORE POP DUP2 PUSH32 0xEEFE35A464293E437181813C2025F351AA0EFEDBB4ADA5E147B74BB431C4FD96 DUP3 PUSH1 0x40 MLOAD PUSH2 0xA1F SWAP2 SWAP1 PUSH2 0x134D JUMP JUMPDEST PUSH1 0x40 MLOAD DUP1 SWAP2 SUB SWAP1 LOG2 POP POP JUMP JUMPDEST PUSH1 0x3 PUSH0 DUP3 DUP2 MSTORE PUSH1 0x20 ADD SWAP1 DUP2 MSTORE PUSH1 0x20 ADD PUSH0 KECCAK256 PUSH1 0x3 ADD PUSH0 SWAP1 SLOAD SWAP1 PUSH2 0x100 EXP SWAP1 DIV PUSH1 0xFF AND PUSH2 0xA8B JUMPI PUSH1 0x40 MLOAD PUSH32 0x8C379A000000000000000000000000000000000000000000000000000000000 DUP2 MSTORE PUSH1 0x4 ADD PUSH2 0xA82 SWAP1 PUSH2 0x1597 JUMP JUMPDEST PUSH1 0x40 MLOAD DUP1 SWAP2 SUB SWAP1 REVERT JUMPDEST PUSH1 0x3 PUSH0 DUP3 DUP2 MSTORE PUSH1 0x20 ADD SWAP1 DUP2 MSTORE PUSH1 0x20 ADD PUSH0 KECCAK256 PUSH1 0x2 ADD SLOAD CALLVALUE LT ISZERO PUSH2 0xAE2 JUMPI PUSH1 0x40 MLOAD PUSH32 0x8C379A000000000000000000000000000000000000000000000000000000000 DUP2 MSTORE PUSH1 0x4 ADD PUSH2 0xAD9 SWAP1 PUSH2 0x171B JUMP JUMPDEST PUSH1 0x40 MLOAD DUP1 SWAP2 SUB SWAP1 REVERT JUMPDEST PUSH0 PUSH1 0x3 PUSH0 DUP4 DUP2 MSTORE PUSH1 0x20 ADD SWAP1 DUP2 MSTORE PUSH1 0x20 ADD PUSH0 KECCAK256 PUSH0 ADD PUSH0 SWAP1 SLOAD SWAP1 PUSH2 0x100 EXP SWAP1 DIV PUSH20 0xFFFFFFFFFFFFFFFFFFFFFFFFFFFFFFFFFFFFFFFF AND SWAP1 POP PUSH0 PUSH2 0xB41 PUSH1 0x64 PUSH2 0xB33 PUSH1 0x2 SLOAD CALLVALUE PUSH2 0xEE9 SWAP1 SWAP2 SWAP1 PUSH4 0xFFFFFFFF AND JUMP JUMPDEST PUSH2 0xEFE SWAP1 SWAP2 SWAP1 PUSH4 0xFFFFFFFF AND JUMP JUMPDEST SWAP1 POP PUSH0 PUSH2 0xB57 DUP3 CALLVALUE PUSH2 0xF13 SWAP1 SWAP2 SWAP1 PUSH4 0xFFFFFFFF AND JUMP JUMPDEST SWAP1 POP DUP3 PUSH20 0xFFFFFFFFFFFFFFFFFFFFFFFFFFFFFFFFFFFFFFFF AND PUSH2 0x8FC DUP3 SWAP1 DUP2 ISZERO MUL SWAP1 PUSH1 0x40 MLOAD PUSH0 PUSH1 0x40 MLOAD DUP1 DUP4 SUB DUP2 DUP6 DUP9 DUP9 CALL SWAP4 POP POP POP POP ISZERO DUP1 ISZERO PUSH2 0xB9C JUMPI RETURNDATASIZE PUSH0 DUP1 RETURNDATACOPY RETURNDATASIZE PUSH0 REVERT JUMPDEST POP PUSH2 0xBA5 PUSH2 0x601 JUMP JUMPDEST PUSH20 0xFFFFFFFFFFFFFFFFFFFFFFFFFFFFFFFFFFFFFFFF AND PUSH2 0x8FC DUP4 SWAP1 DUP2 ISZERO MUL SWAP1 PUSH1 0x40 MLOAD PUSH0 PUSH1 0x40 MLOAD DUP1 DUP4 SUB DUP2 DUP6 DUP9 DUP9 CALL SWAP4 POP POP POP POP ISZERO DUP1 ISZERO PUSH2 0xBE7 JUMPI RETURNDATASIZE PUSH0 DUP1 RETURNDATACOPY RETURNDATASIZE PUSH0 REVERT JUMPDEST POP PUSH1 0x1 PUSH0 SWAP1 SLOAD SWAP1 PUSH2 0x100 EXP SWAP1 DIV PUSH20 0xFFFFFFFFFFFFFFFFFFFFFFFFFFFFFFFFFFFFFFFF AND PUSH20 0xFFFFFFFFFFFFFFFFFFFFFFFFFFFFFFFFFFFFFFFF AND PUSH4 0x42842E0E ADDRESS CALLER DUP8 PUSH1 0x40 MLOAD DUP5 PUSH4 0xFFFFFFFF AND PUSH1 0xE0 SHL DUP2 MSTORE PUSH1 0x4 ADD PUSH2 0xC46 SWAP4 SWAP3 SWAP2 SWAP1 PUSH2 0x1518 JUMP JUMPDEST PUSH0 PUSH1 0x40 MLOAD DUP1 DUP4 SUB DUP2 PUSH0 DUP8 DUP1 EXTCODESIZE ISZERO DUP1 ISZERO PUSH2 0xC5D JUMPI PUSH0 DUP1 REVERT JUMPDEST POP GAS CALL ISZERO DUP1 ISZERO PUSH2 0xC6F JUMPI RETURNDATASIZE PUSH0 DUP1 RETURNDATACOPY RETURNDATASIZE PUSH0 REVERT JUMPDEST POP POP POP POP PUSH1 0x3 PUSH0 DUP6 DUP2 MSTORE PUSH1 0x20 ADD SWAP1 DUP2 MSTORE PUSH1 0x20 ADD PUSH0 KECCAK256 PUSH0 DUP1 DUP3 ADD PUSH0 PUSH2 0x100 EXP DUP2 SLOAD SWAP1 PUSH20 0xFFFFFFFFFFFFFFFFFFFFFFFFFFFFFFFFFFFFFFFF MUL NOT AND SWAP1 SSTORE PUSH1 0x1 DUP3 ADD PUSH0 SWAP1 SSTORE PUSH1 0x2 DUP3 ADD PUSH0 SWAP1 SSTORE PUSH1 0x3 DUP3 ADD PUSH0 PUSH2 0x100 EXP DUP2 SLOAD SWAP1 PUSH1 0xFF MUL NOT AND SWAP1 SSTORE POP POP DUP4 CALLER PUSH20 0xFFFFFFFFFFFFFFFFFFFFFFFFFFFFFFFFFFFFFFFF AND PUSH32 0x7DA028D6D698750B8CA8E37C78CF467B925FADC9DAEC0949597C76DD2DEC8653 CALLVALUE PUSH1 0x40 MLOAD PUSH2 0xD14 SWAP2 SWAP1 PUSH2 0x134D JUMP JUMPDEST PUSH1 0x40 MLOAD DUP1 SWAP2 SUB SWAP1 LOG3 POP POP POP POP JUMP JUMPDEST PUSH1 0x2 SLOAD DUP2 JUMP JUMPDEST PUSH2 0xD30 PUSH2 0xDAA JUMP JUMPDEST PUSH0 PUSH20 0xFFFFFFFFFFFFFFFFFFFFFFFFFFFFFFFFFFFFFFFF AND DUP2 PUSH20 0xFFFFFFFFFFFFFFFFFFFFFFFFFFFFFFFFFFFFFFFF AND SUB PUSH2 0xD9E JUMPI PUSH1 0x40 MLOAD PUSH32 0x8C379A000000000000000000000000000000000000000000000000000000000 DUP2 MSTORE PUSH1 0x4 ADD PUSH2 0xD95 SWAP1 PUSH2 0x17A9 JUMP JUMPDEST PUSH1 0x40 MLOAD DUP1 SWAP2 SUB SWAP1 REVERT JUMPDEST PUSH2 0xDA7 DUP2 PUSH2 0xE28 JUMP JUMPDEST POP JUMP JUMPDEST PUSH2 0xDB2 PUSH2 0xF28 JUMP JUMPDEST PUSH20 0xFFFFFFFFFFFFFFFFFFFFFFFFFFFFFFFFFFFFFFFF AND PUSH2 0xDD0 PUSH2 0x601 JUMP JUMPDEST PUSH20 0xFFFFFFFFFFFFFFFFFFFFFFFFFFFFFFFFFFFFFFFF AND EQ PUSH2 0xE26 JUMPI PUSH1 0x40 MLOAD PUSH32 0x8C379A000000000000000000000000000000000000000000000000000000000 DUP2 MSTORE PUSH1 0x4 ADD PUSH2 0xE1D SWAP1 PUSH2 0x1811 JUMP JUMPDEST PUSH1 0x40 MLOAD DUP1 SWAP2 SUB SWAP1 REVERT JUMPDEST JUMP JUMPDEST PUSH0 DUP1 PUSH0 SWAP1 SLOAD SWAP1 PUSH2 0x100 EXP SWAP1 DIV PUSH20 0xFFFFFFFFFFFFFFFFFFFFFFFFFFFFFFFFFFFFFFFF AND SWAP1 POP DUP2 PUSH0 DUP1 PUSH2 0x100 EXP DUP2 SLOAD DUP2 PUSH20 0xFFFFFFFFFFFFFFFFFFFFFFFFFFFFFFFFFFFFFFFF MUL NOT AND SWAP1 DUP4 PUSH20 0xFFFFFFFFFFFFFFFFFFFFFFFFFFFFFFFFFFFFFFFF AND MUL OR SWAP1 SSTORE POP DUP2 PUSH20 0xFFFFFFFFFFFFFFFFFFFFFFFFFFFFFFFFFFFFFFFF AND DUP2 PUSH20 0xFFFFFFFFFFFFFFFFFFFFFFFFFFFFFFFFFFFFFFFF AND PUSH32 0x8BE0079C531659141344CD1FD0A4F28419497F9722A3DAAFE3B4186F6B6457E0 PUSH1 0x40 MLOAD PUSH1 0x40 MLOAD DUP1 SWAP2 SUB SWAP1 LOG3 POP POP JUMP JUMPDEST PUSH0 DUP2 DUP4 PUSH2 0xEF6 SWAP2 SWAP1 PUSH2 0x185C JUMP JUMPDEST SWAP1 POP SWAP3 SWAP2 POP POP JUMP JUMPDEST PUSH0 DUP2 DUP4 PUSH2 0xF0B SWAP2 SWAP1 PUSH2 0x18CA JUMP JUMPDEST SWAP1 POP SWAP3 SWAP2 POP POP JUMP JUMPDEST PUSH0 DUP2 DUP4 PUSH2 0xF20 SWAP2 SWAP1 PUSH2 0x18FA JUMP JUMPDEST SWAP1 POP SWAP3 SWAP2 POP POP JUMP JUMPDEST PUSH0 CALLER SWAP1 POP SWAP1 JUMP JUMPDEST PUSH0 PUSH1 0x40 MLOAD SWAP1 POP SWAP1 JUMP JUMPDEST PUSH0 DUP1 REVERT JUMPDEST PUSH0 DUP1 REVERT JUMPDEST PUSH0 PUSH20 0xFFFFFFFFFFFFFFFFFFFFFFFFFFFFFFFFFFFFFFFF DUP3 AND SWAP1 POP SWAP2 SWAP1 POP JUMP JUMPDEST PUSH0 PUSH2 0xF69 DUP3 PUSH2 0xF40 JUMP JUMPDEST SWAP1 POP SWAP2 SWAP1 POP JUMP JUMPDEST PUSH2 0xF79 DUP2 PUSH2 0xF5F JUMP JUMPDEST DUP2 EQ PUSH2 0xF83 JUMPI PUSH0 DUP1 REVERT JUMPDEST POP JUMP JUMPDEST PUSH0 DUP2 CALLDATALOAD SWAP1 POP PUSH2 0xF94 DUP2 PUSH2 0xF70 JUMP JUMPDEST SWAP3 SWAP2 POP POP JUMP JUMPDEST PUSH0 DUP2 SWAP1 POP SWAP2 SWAP1 POP JUMP JUMPDEST PUSH2 0xFAC DUP2 PUSH2 0xF9A JUMP JUMPDEST DUP2 EQ PUSH2 0xFB6 JUMPI PUSH0 DUP1 REVERT JUMPDEST POP JUMP JUMPDEST PUSH0 DUP2 CALLDATALOAD SWAP1 POP PUSH2 0xFC7 DUP2 PUSH2 0xFA3 JUMP JUMPDEST SWAP3 SWAP2 POP POP JUMP JUMPDEST PUSH0 DUP1 REVERT JUMPDEST PUSH0 DUP1 REVERT JUMPDEST PUSH0 PUSH1 0x1F NOT PUSH1 0x1F DUP4 ADD AND SWAP1 POP SWAP2 SWAP1 POP JUMP JUMPDEST PUSH32 0x4E487B7100000000000000000000000000000000000000000000000000000000 PUSH0 MSTORE PUSH1 0x41 PUSH1 0x4 MSTORE PUSH1 0x24 PUSH0 REVERT JUMPDEST PUSH2 0x101B DUP3 PUSH2 0xFD5 JUMP JUMPDEST DUP2 ADD DUP2 DUP2 LT PUSH8 0xFFFFFFFFFFFFFFFF DUP3 GT OR ISZERO PUSH2 0x103A JUMPI PUSH2 0x1039 PUSH2 0xFE5 JUMP JUMPDEST JUMPDEST DUP1 PUSH1 0x40 MSTORE POP POP POP JUMP JUMPDEST PUSH0 PUSH2 0x104C PUSH2 0xF2F JUMP JUMPDEST SWAP1 POP PUSH2 0x1058 DUP3 DUP3 PUSH2 0x1012 JUMP JUMPDEST SWAP2 SWAP1 POP JUMP JUMPDEST PUSH0 PUSH8 0xFFFFFFFFFFFFFFFF DUP3 GT ISZERO PUSH2 0x1077 JUMPI PUSH2 0x1076 PUSH2 0xFE5 JUMP JUMPDEST JUMPDEST PUSH2 0x1080 DUP3 PUSH2 0xFD5 JUMP JUMPDEST SWAP1 POP PUSH1 0x20 DUP2 ADD SWAP1 POP SWAP2 SWAP1 POP JUMP JUMPDEST DUP3 DUP2 DUP4 CALLDATACOPY PUSH0 DUP4 DUP4 ADD MSTORE POP POP POP JUMP JUMPDEST PUSH0 PUSH2 0x10AD PUSH2 0x10A8 DUP5 PUSH2 0x105D JUMP JUMPDEST PUSH2 0x1043 JUMP JUMPDEST SWAP1 POP DUP3 DUP2 MSTORE PUSH1 0x20 DUP2 ADD DUP5 DUP5 DUP5 ADD GT ISZERO PUSH2 0x10C9 JUMPI PUSH2 0x10C8 PUSH2 0xFD1 JUMP JUMPDEST JUMPDEST PUSH2 0x10D4 DUP5 DUP3 DUP6 PUSH2 0x108D JUMP JUMPDEST POP SWAP4 SWAP3 POP POP POP JUMP JUMPDEST PUSH0 DUP3 PUSH1 0x1F DUP4 ADD SLT PUSH2 0x10F0 JUMPI PUSH2 0x10EF PUSH2 0xFCD JUMP JUMPDEST JUMPDEST DUP2 CALLDATALOAD PUSH2 0x1100 DUP5 DUP3 PUSH1 0x20 DUP7 ADD PUSH2 0x109B JUMP JUMPDEST SWAP2 POP POP SWAP3 SWAP2 POP POP JUMP JUMPDEST PUSH0 DUP1 PUSH0 DUP1 PUSH1 0x80 DUP6 DUP8 SUB SLT ISZERO PUSH2 0x1121 JUMPI PUSH2 0x1120 PUSH2 0xF38 JUMP JUMPDEST JUMPDEST PUSH0 PUSH2 0x112E DUP8 DUP3 DUP9 ADD PUSH2 0xF86 JUMP JUMPDEST SWAP5 POP POP PUSH1 0x20 PUSH2 0x113F DUP8 DUP3 DUP9 ADD PUSH2 0xF86 JUMP JUMPDEST SWAP4 POP POP PUSH1 0x40 PUSH2 0x1150 DUP8 DUP3 DUP9 ADD PUSH2 0xFB9 JUMP JUMPDEST SWAP3 POP POP PUSH1 0x60 DUP6 ADD CALLDATALOAD PUSH8 0xFFFFFFFFFFFFFFFF DUP2 GT ISZERO PUSH2 0x1171 JUMPI PUSH2 0x1170 PUSH2 0xF3C JUMP JUMPDEST JUMPDEST PUSH2 0x117D DUP8 DUP3 DUP9 ADD PUSH2 0x10DC JUMP JUMPDEST SWAP2 POP POP SWAP3 SWAP6 SWAP2 SWAP5 POP SWAP3 POP JUMP JUMPDEST PUSH0 PUSH32 0xFFFFFFFF00000000000000000000000000000000000000000000000000000000 DUP3 AND SWAP1 POP SWAP2 SWAP1 POP JUMP JUMPDEST PUSH2 0x11BD DUP2 PUSH2 0x1189 JUMP JUMPDEST DUP3 MSTORE POP POP JUMP JUMPDEST PUSH0 PUSH1 0x20 DUP3 ADD SWAP1 POP PUSH2 0x11D6 PUSH0 DUP4 ADD DUP5 PUSH2 0x11B4 JUMP JUMPDEST SWAP3 SWAP2 POP POP JUMP JUMPDEST PUSH0 DUP2 SWAP1 POP SWAP2 SWAP1 POP JUMP JUMPDEST PUSH0 PUSH2 0x11FF PUSH2 0x11FA PUSH2 0x11F5 DUP5 PUSH2 0xF40 JUMP JUMPDEST PUSH2 0x11DC JUMP JUMPDEST PUSH2 0xF40 JUMP JUMPDEST SWAP1 POP SWAP2 SWAP1 POP JUMP JUMPDEST PUSH0 PUSH2 0x1210 DUP3 PUSH2 0x11E5 JUMP JUMPDEST SWAP1 POP SWAP2 SWAP1 POP JUMP JUMPDEST PUSH0 PUSH2 0x1221 DUP3 PUSH2 0x1206 JUMP JUMPDEST SWAP1 POP SWAP2 SWAP1 POP JUMP JUMPDEST PUSH2 0x1231 DUP2 PUSH2 0x1217 JUMP JUMPDEST DUP3 MSTORE POP POP JUMP JUMPDEST PUSH0 PUSH1 0x20 DUP3 ADD SWAP1 POP PUSH2 0x124A PUSH0 DUP4 ADD DUP5 PUSH2 0x1228 JUMP JUMPDEST SWAP3 SWAP2 POP POP JUMP JUMPDEST PUSH0 DUP1 PUSH1 0x40 DUP4 DUP6 SUB SLT ISZERO PUSH2 0x1266 JUMPI PUSH2 0x1265 PUSH2 0xF38 JUMP JUMPDEST JUMPDEST PUSH0 PUSH2 0x1273 DUP6 DUP3 DUP7 ADD PUSH2 0xFB9 JUMP JUMPDEST SWAP3 POP POP PUSH1 0x20 PUSH2 0x1284 DUP6 DUP3 DUP7 ADD PUSH2 0xFB9 JUMP JUMPDEST SWAP2 POP POP SWAP3 POP SWAP3 SWAP1 POP JUMP JUMPDEST PUSH2 0x1297 DUP2 PUSH2 0xF5F JUMP JUMPDEST DUP3 MSTORE POP POP JUMP JUMPDEST PUSH0 PUSH1 0x20 DUP3 ADD SWAP1 POP PUSH2 0x12B0 PUSH0 DUP4 ADD DUP5 PUSH2 0x128E JUMP JUMPDEST SWAP3 SWAP2 POP POP JUMP JUMPDEST PUSH0 PUSH1 0x20 DUP3 DUP5 SUB SLT ISZERO PUSH2 0x12CB JUMPI PUSH2 0x12CA PUSH2 0xF38 JUMP JUMPDEST JUMPDEST PUSH0 PUSH2 0x12D8 DUP5 DUP3 DUP6 ADD PUSH2 0xFB9 JUMP JUMPDEST SWAP2 POP POP SWAP3 SWAP2 POP POP JUMP JUMPDEST PUSH2 0x12EA DUP2 PUSH2 0xF9A JUMP JUMPDEST DUP3 MSTORE POP POP JUMP JUMPDEST PUSH0 DUP2 ISZERO ISZERO SWAP1 POP SWAP2 SWAP1 POP JUMP JUMPDEST PUSH2 0x1304 DUP2 PUSH2 0x12F0 JUMP JUMPDEST DUP3 MSTORE POP POP JUMP JUMPDEST PUSH0 PUSH1 0x80 DUP3 ADD SWAP1 POP PUSH2 0x131D PUSH0 DUP4 ADD DUP8 PUSH2 0x128E JUMP JUMPDEST PUSH2 0x132A PUSH1 0x20 DUP4 ADD DUP7 PUSH2 0x12E1 JUMP JUMPDEST PUSH2 0x1337 PUSH1 0x40 DUP4 ADD DUP6 PUSH2 0x12E1 JUMP JUMPDEST PUSH2 0x1344 PUSH1 0x60 DUP4 ADD DUP5 PUSH2 0x12FB JUMP JUMPDEST SWAP6 SWAP5 POP POP POP POP POP JUMP JUMPDEST PUSH0 PUSH1 0x20 DUP3 ADD SWAP1 POP PUSH2 0x1360 PUSH0 DUP4 ADD DUP5 PUSH2 0x12E1 JUMP JUMPDEST SWAP3 SWAP2 POP POP JUMP JUMPDEST PUSH0 PUSH1 0x20 DUP3 DUP5 SUB SLT ISZERO PUSH2 0x137B JUMPI PUSH2 0x137A PUSH2 0xF38 JUMP JUMPDEST JUMPDEST PUSH0 PUSH2 0x1388 DUP5 DUP3 DUP6 ADD PUSH2 0xF86 JUMP JUMPDEST SWAP2 POP POP SWAP3 SWAP2 POP POP JUMP JUMPDEST PUSH0 DUP2 MLOAD SWAP1 POP PUSH2 0x139F DUP2 PUSH2 0xF70 JUMP JUMPDEST SWAP3 SWAP2 POP POP JUMP JUMPDEST PUSH0 PUSH1 0x20 DUP3 DUP5 SUB SLT ISZERO PUSH2 0x13BA JUMPI PUSH2 0x13B9 PUSH2 0xF38 JUMP JUMPDEST JUMPDEST PUSH0 PUSH2 0x13C7 DUP5 DUP3 DUP6 ADD PUSH2 0x1391 JUMP JUMPDEST SWAP2 POP POP SWAP3 SWAP2 POP POP JUMP JUMPDEST PUSH0 DUP3 DUP3 MSTORE PUSH1 0x20 DUP3 ADD SWAP1 POP SWAP3 SWAP2 POP POP JUMP JUMPDEST PUSH32 0x4F6E6C7920746865206F776E65722063616E2063726561746520612073616C65 PUSH0 DUP3 ADD MSTORE POP JUMP JUMPDEST PUSH0 PUSH2 0x1414 PUSH1 0x20 DUP4 PUSH2 0x13D0 JUMP JUMPDEST SWAP2 POP PUSH2 0x141F DUP3 PUSH2 0x13E0 JUMP JUMPDEST PUSH1 0x20 DUP3 ADD SWAP1 POP SWAP2 SWAP1 POP JUMP JUMPDEST PUSH0 PUSH1 0x20 DUP3 ADD SWAP1 POP DUP2 DUP2 SUB PUSH0 DUP4 ADD MSTORE PUSH2 0x1441 DUP2 PUSH2 0x1408 JUMP JUMPDEST SWAP1 POP SWAP2 SWAP1 POP JUMP JUMPDEST PUSH32 0x5072696365206D7573742062652067726561746572207468616E207A65726F00 PUSH0 DUP3 ADD MSTORE POP JUMP JUMPDEST PUSH0 PUSH2 0x147C PUSH1 0x1F DUP4 PUSH2 0x13D0 JUMP JUMPDEST SWAP2 POP PUSH2 0x1487 DUP3 PUSH2 0x1448 JUMP JUMPDEST PUSH1 0x20 DUP3 ADD SWAP1 POP SWAP2 SWAP1 POP JUMP JUMPDEST PUSH0 PUSH1 0x20 DUP3 ADD SWAP1 POP DUP2 DUP2 SUB PUSH0 DUP4 ADD MSTORE PUSH2 0x14A9 DUP2 PUSH2 0x1470 JUMP JUMPDEST SWAP1 POP SWAP2 SWAP1 POP JUMP JUMPDEST PUSH32 0x53616C6520697320616C72656164792061637469766500000000000000000000 PUSH0 DUP3 ADD MSTORE POP JUMP JUMPDEST PUSH0 PUSH2 0x14E4 PUSH1 0x16 DUP4 PUSH2 0x13D0 JUMP JUMPDEST SWAP2 POP PUSH2 0x14EF DUP3 PUSH2 0x14B0 JUMP JUMPDEST PUSH1 0x20 DUP3 ADD SWAP1 POP SWAP2 SWAP1 POP JUMP JUMPDEST PUSH0 PUSH1 0x20 DUP3 ADD SWAP1 POP DUP2 DUP2 SUB PUSH0 DUP4 ADD MSTORE PUSH2 0x1511 DUP2 PUSH2 0x14D8 JUMP JUMPDEST SWAP1 POP SWAP2 SWAP1 POP JUMP JUMPDEST PUSH0 PUSH1 0x60 DUP3 ADD SWAP1 POP PUSH2 0x152B PUSH0 DUP4 ADD DUP7 PUSH2 0x128E JUMP JUMPDEST PUSH2 0x1538 PUSH1 0x20 DUP4 ADD DUP6 PUSH2 0x128E JUMP JUMPDEST PUSH2 0x1545 PUSH1 0x40 DUP4 ADD DUP5 PUSH2 0x12E1 JUMP JUMPDEST SWAP5 SWAP4 POP POP POP POP JUMP JUMPDEST PUSH32 0x53616C65206973206E6F74206163746976650000000000000000000000000000 PUSH0 DUP3 ADD MSTORE POP JUMP JUMPDEST PUSH0 PUSH2 0x1581 PUSH1 0x12 DUP4 PUSH2 0x13D0 JUMP JUMPDEST SWAP2 POP PUSH2 0x158C DUP3 PUSH2 0x154D JUMP JUMPDEST PUSH1 0x20 DUP3 ADD SWAP1 POP SWAP2 SWAP1 POP JUMP JUMPDEST PUSH0 PUSH1 0x20 DUP3 ADD SWAP1 POP DUP2 DUP2 SUB PUSH0 DUP4 ADD MSTORE PUSH2 0x15AE DUP2 PUSH2 0x1575 JUMP JUMPDEST SWAP1 POP SWAP2 SWAP1 POP JUMP JUMPDEST PUSH32 0x4F6E6C79207468652073656C6C65722063616E2063616E63656C207468652073 PUSH0 DUP3 ADD MSTORE PUSH32 0x616C650000000000000000000000000000000000000000000000000000000000 PUSH1 0x20 DUP3 ADD MSTORE POP JUMP JUMPDEST PUSH0 PUSH2 0x160F PUSH1 0x23 DUP4 PUSH2 0x13D0 JUMP JUMPDEST SWAP2 POP PUSH2 0x161A DUP3 PUSH2 0x15B5 JUMP JUMPDEST PUSH1 0x40 DUP3 ADD SWAP1 POP SWAP2 SWAP1 POP JUMP JUMPDEST PUSH0 PUSH1 0x20 DUP3 ADD SWAP1 POP DUP2 DUP2 SUB PUSH0 DUP4 ADD MSTORE PUSH2 0x163C DUP2 PUSH2 0x1603 JUMP JUMPDEST SWAP1 POP SWAP2 SWAP1 POP JUMP JUMPDEST PUSH32 0x4F6E6C79207468652073656C6C65722063616E20757064617465207468652073 PUSH0 DUP3 ADD MSTORE PUSH32 0x616C650000000000000000000000000000000000000000000000000000000000 PUSH1 0x20 DUP3 ADD MSTORE POP JUMP JUMPDEST PUSH0 PUSH2 0x169D PUSH1 0x23 DUP4 PUSH2 0x13D0 JUMP JUMPDEST SWAP2 POP PUSH2 0x16A8 DUP3 PUSH2 0x1643 JUMP JUMPDEST PUSH1 0x40 DUP3 ADD SWAP1 POP SWAP2 SWAP1 POP JUMP JUMPDEST PUSH0 PUSH1 0x20 DUP3 ADD SWAP1 POP DUP2 DUP2 SUB PUSH0 DUP4 ADD MSTORE PUSH2 0x16CA DUP2 PUSH2 0x1691 JUMP JUMPDEST SWAP1 POP SWAP2 SWAP1 POP JUMP JUMPDEST PUSH32 0x496E73756666696369656E74207061796D656E74000000000000000000000000 PUSH0 DUP3 ADD MSTORE POP JUMP JUMPDEST PUSH0 PUSH2 0x1705 PUSH1 0x14 DUP4 PUSH2 0x13D0 JUMP JUMPDEST SWAP2 POP PUSH2 0x1710 DUP3 PUSH2 0x16D1 JUMP JUMPDEST PUSH1 0x20 DUP3 ADD SWAP1 POP SWAP2 SWAP1 POP JUMP JUMPDEST PUSH0 PUSH1 0x20 DUP3 ADD SWAP1 POP DUP2 DUP2 SUB PUSH0 DUP4 ADD MSTORE PUSH2 0x1732 DUP2 PUSH2 0x16F9 JUMP JUMPDEST SWAP1 POP SWAP2 SWAP1 POP JUMP JUMPDEST PUSH32 0x4F776E61626C653A206E6577206F776E657220697320746865207A65726F2061 PUSH0 DUP3 ADD MSTORE PUSH32 0x6464726573730000000000000000000000000000000000000000000000000000 PUSH1 0x20 DUP3 ADD MSTORE POP JUMP JUMPDEST PUSH0 PUSH2 0x1793 PUSH1 0x26 DUP4 PUSH2 0x13D0 JUMP JUMPDEST SWAP2 POP PUSH2 0x179E DUP3 PUSH2 0x1739 JUMP JUMPDEST PUSH1 0x40 DUP3 ADD SWAP1 POP SWAP2 SWAP1 POP JUMP JUMPDEST PUSH0 PUSH1 0x20 DUP3 ADD SWAP1 POP DUP2 DUP2 SUB PUSH0 DUP4 ADD MSTORE PUSH2 0x17C0 DUP2 PUSH2 0x1787 JUMP JUMPDEST SWAP1 POP SWAP2 SWAP1 POP JUMP JUMPDEST PUSH32 0x4F776E61626C653A2063616C6C6572206973206E6F7420746865206F776E6572 PUSH0 DUP3 ADD MSTORE POP JUMP JUMPDEST PUSH0 PUSH2 0x17FB PUSH1 0x20 DUP4 PUSH2 0x13D0 JUMP JUMPDEST SWAP2 POP PUSH2 0x1806 DUP3 PUSH2 0x17C7 JUMP JUMPDEST PUSH1 0x20 DUP3 ADD SWAP1 POP SWAP2 SWAP1 POP JUMP JUMPDEST PUSH0 PUSH1 0x20 DUP3 ADD SWAP1 POP DUP2 DUP2 SUB PUSH0 DUP4 ADD MSTORE PUSH2 0x1828 DUP2 PUSH2 0x17EF JUMP JUMPDEST SWAP1 POP SWAP2 SWAP1 POP JUMP JUMPDEST PUSH32 0x4E487B7100000000000000000000000000000000000000000000000000000000 PUSH0 MSTORE PUSH1 0x11 PUSH1 0x4 MSTORE PUSH1 0x24 PUSH0 REVERT JUMPDEST PUSH0 PUSH2 0x1866 DUP3 PUSH2 0xF9A JUMP JUMPDEST SWAP2 POP PUSH2 0x1871 DUP4 PUSH2 0xF9A JUMP JUMPDEST SWAP3 POP DUP3 DUP3 MUL PUSH2 0x187F DUP2 PUSH2 0xF9A JUMP JUMPDEST SWAP2 POP DUP3 DUP3 DIV DUP5 EQ DUP4 ISZERO OR PUSH2 0x1896 JUMPI PUSH2 0x1895 PUSH2 0x182F JUMP JUMPDEST JUMPDEST POP SWAP3 SWAP2 POP POP JUMP JUMPDEST PUSH32 0x4E487B7100000000000000000000000000000000000000000000000000000000 PUSH0 MSTORE PUSH1 0x12 PUSH1 0x4 MSTORE PUSH1 0x24 PUSH0 REVERT JUMPDEST PUSH0 PUSH2 0x18D4 DUP3 PUSH2 0xF9A JUMP JUMPDEST SWAP2 POP PUSH2 0x18DF DUP4 PUSH2 0xF9A JUMP JUMPDEST SWAP3 POP DUP3 PUSH2 0x18EF JUMPI PUSH2 0x18EE PUSH2 0x189D JUMP JUMPDEST JUMPDEST DUP3 DUP3 DIV SWAP1 POP SWAP3 SWAP2 POP POP JUMP JUMPDEST PUSH0 PUSH2 0x1904 DUP3 PUSH2 0xF9A JUMP JUMPDEST SWAP2 POP PUSH2 0x190F DUP4 PUSH2 0xF9A JUMP JUMPDEST SWAP3 POP DUP3 DUP3 SUB SWAP1 POP DUP2 DUP2 GT ISZERO PUSH2 0x1927 JUMPI PUSH2 0x1926 PUSH2 0x182F JUMP JUMPDEST JUMPDEST SWAP3 SWAP2 POP POP JUMP INVALID LOG2 PUSH5 0x6970667358 0x22 SLT KECCAK256 POP PUSH31 0x9B968A92A1C6307C2F9A73D2B08AF560F0EC9B9E8D68DC2EF537FB530EBC64 PUSH20 0x6F6C634300081500330000000000000000000000 "
				},
				"gasEstimates": {
					"creation": {
						"codeDepositCost": "1299800",
						"executionCost": "infinite",
						"totalCost": "infinite"
					},
					"external": {
						"buy(uint256)": "infinite",
						"cancelSale(uint256)": "infinite",
						"createSale(uint256,uint256)": "infinite",
						"fee()": "2513",
						"nft()": "infinite",
						"onERC721Received(address,address,uint256,bytes)": "infinite",
						"owner()": "2604",
						"renounceOwnership()": "30457",
						"sales(uint256)": "infinite",
						"transferOwnership(address)": "30841",
						"updateSale(uint256,uint256)": "infinite"
					}
				},
				"methodIdentifiers": {
					"buy(uint256)": "d96a094a",
					"cancelSale(uint256)": "bd94b005",
					"createSale(uint256,uint256)": "6019061b",
					"fee()": "ddca3f43",
					"nft()": "47ccca02",
					"onERC721Received(address,address,uint256,bytes)": "150b7a02",
					"owner()": "8da5cb5b",
					"renounceOwnership()": "715018a6",
					"sales(uint256)": "b5f522f7",
					"transferOwnership(address)": "f2fde38b",
					"updateSale(uint256,uint256)": "bdde7897"
				}
			},
			"storageLayout": {
				"storage": [
					{
						"astId": 7,
						"contract": "teste2.sol:NFTMarketplace",
						"label": "_owner",
						"offset": 0,
						"slot": "0",
						"type": "t_address"
					},
					{
						"astId": 617,
						"contract": "teste2.sol:NFTMarketplace",
						"label": "nft",
						"offset": 0,
						"slot": "1",
						"type": "t_contract(IERC721)228"
					},
					{
						"astId": 619,
						"contract": "teste2.sol:NFTMarketplace",
						"label": "fee",
						"offset": 0,
						"slot": "2",
						"type": "t_uint256"
					},
					{
						"astId": 624,
						"contract": "teste2.sol:NFTMarketplace",
						"label": "sales",
						"offset": 0,
						"slot": "3",
						"type": "t_mapping(t_uint256,t_struct(Sale)614_storage)"
					}
				],
				"types": {
					"t_address": {
						"encoding": "inplace",
						"label": "address",
						"numberOfBytes": "20"
					},
					"t_bool": {
						"encoding": "inplace",
						"label": "bool",
						"numberOfBytes": "1"
					},
					"t_contract(IERC721)228": {
						"encoding": "inplace",
						"label": "contract IERC721",
						"numberOfBytes": "20"
					},
					"t_mapping(t_uint256,t_struct(Sale)614_storage)": {
						"encoding": "mapping",
						"key": "t_uint256",
						"label": "mapping(uint256 => struct NFTMarketplace.Sale)",
						"numberOfBytes": "32",
						"value": "t_struct(Sale)614_storage"
					},
					"t_struct(Sale)614_storage": {
						"encoding": "inplace",
						"label": "struct NFTMarketplace.Sale",
						"members": [
							{
								"astId": 607,
								"contract": "teste2.sol:NFTMarketplace",
								"label": "seller",
								"offset": 0,
								"slot": "0",
								"type": "t_address"
							},
							{
								"astId": 609,
								"contract": "teste2.sol:NFTMarketplace",
								"label": "tokenId",
								"offset": 0,
								"slot": "1",
								"type": "t_uint256"
							},
							{
								"astId": 611,
								"contract": "teste2.sol:NFTMarketplace",
								"label": "price",
								"offset": 0,
								"slot": "2",
								"type": "t_uint256"
							},
							{
								"astId": 613,
								"contract": "teste2.sol:NFTMarketplace",
								"label": "active",
								"offset": 0,
								"slot": "3",
								"type": "t_bool"
							}
						],
						"numberOfBytes": "128"
					},
					"t_uint256": {
						"encoding": "inplace",
						"label": "uint256",
						"numberOfBytes": "32"
					}
				}
			},
			"userdoc": {
				"kind": "user",
				"methods": {},
				"version": 1
			}
		}
	}
}