{
	"venda_gassless.sol": {
		"NFTMarketplace": {
			"abi": [
				{
					"inputs": [
						{
							"internalType": "uint256",
							"name": "_royaltyPercentage",
							"type": "uint256"
						},
						{
							"internalType": "uint256",
							"name": "_platformFeePercentage",
							"type": "uint256"
						},
						{
							"internalType": "address",
							"name": "_royaltyAddress",
							"type": "address"
						},
						{
							"internalType": "address",
							"name": "_platformFeeAddress",
							"type": "address"
						}
					],
					"stateMutability": "nonpayable",
					"type": "constructor"
				},
				{
					"anonymous": false,
					"inputs": [
						{
							"indexed": false,
							"internalType": "address",
							"name": "userAddress",
							"type": "address"
						},
						{
							"indexed": false,
							"internalType": "address payable",
							"name": "relayerAddress",
							"type": "address"
						},
						{
							"indexed": false,
							"internalType": "bytes",
							"name": "functionSignature",
							"type": "bytes"
						}
					],
					"name": "MetaTransactionExecuted",
					"type": "event"
				},
				{
					"anonymous": false,
					"inputs": [
						{
							"indexed": true,
							"internalType": "uint256",
							"name": "listingId",
							"type": "uint256"
						}
					],
					"name": "NFTDelisted",
					"type": "event"
				},
				{
					"anonymous": false,
					"inputs": [
						{
							"indexed": true,
							"internalType": "uint256",
							"name": "listingId",
							"type": "uint256"
						},
						{
							"indexed": true,
							"internalType": "address",
							"name": "seller",
							"type": "address"
						},
						{
							"indexed": true,
							"internalType": "address",
							"name": "nftContract",
							"type": "address"
						},
						{
							"indexed": false,
							"internalType": "uint256",
							"name": "nftId",
							"type": "uint256"
						},
						{
							"indexed": false,
							"internalType": "uint256",
							"name": "price",
							"type": "uint256"
						},
						{
							"indexed": false,
							"internalType": "uint256",
							"name": "deadline",
							"type": "uint256"
						}
					],
					"name": "NFTListed",
					"type": "event"
				},
				{
					"anonymous": false,
					"inputs": [
						{
							"indexed": true,
							"internalType": "uint256",
							"name": "listingId",
							"type": "uint256"
						},
						{
							"indexed": true,
							"internalType": "address",
							"name": "seller",
							"type": "address"
						},
						{
							"indexed": true,
							"internalType": "address",
							"name": "buyer",
							"type": "address"
						},
						{
							"indexed": false,
							"internalType": "uint256",
							"name": "price",
							"type": "uint256"
						}
					],
					"name": "NFTSold",
					"type": "event"
				},
				{
					"anonymous": false,
					"inputs": [
						{
							"indexed": true,
							"internalType": "address",
							"name": "previousOwner",
							"type": "address"
						},
						{
							"indexed": true,
							"internalType": "address",
							"name": "newOwner",
							"type": "address"
						}
					],
					"name": "OwnershipTransferred",
					"type": "event"
				},
				{
					"anonymous": false,
					"inputs": [
						{
							"indexed": false,
							"internalType": "address",
							"name": "account",
							"type": "address"
						}
					],
					"name": "Paused",
					"type": "event"
				},
				{
					"anonymous": false,
					"inputs": [
						{
							"indexed": false,
							"internalType": "address",
							"name": "account",
							"type": "address"
						}
					],
					"name": "Unpaused",
					"type": "event"
				},
				{
					"inputs": [
						{
							"internalType": "uint256",
							"name": "",
							"type": "uint256"
						}
					],
					"name": "activeListingIds",
					"outputs": [
						{
							"internalType": "uint256",
							"name": "",
							"type": "uint256"
						}
					],
					"stateMutability": "view",
					"type": "function"
				},
				{
					"inputs": [
						{
							"internalType": "address",
							"name": "userAddress",
							"type": "address"
						},
						{
							"internalType": "bytes",
							"name": "functionSignature",
							"type": "bytes"
						},
						{
							"internalType": "bytes32",
							"name": "sigR",
							"type": "bytes32"
						},
						{
							"internalType": "bytes32",
							"name": "sigS",
							"type": "bytes32"
						},
						{
							"internalType": "uint8",
							"name": "sigV",
							"type": "uint8"
						}
					],
					"name": "executeMetaTransaction",
					"outputs": [
						{
							"internalType": "bytes",
							"name": "",
							"type": "bytes"
						}
					],
					"stateMutability": "payable",
					"type": "function"
				},
				{
					"inputs": [
						{
							"internalType": "address",
							"name": "userAddress",
							"type": "address"
						},
						{
							"internalType": "bytes",
							"name": "functionSignature",
							"type": "bytes"
						},
						{
							"internalType": "bytes32",
							"name": "sigR",
							"type": "bytes32"
						},
						{
							"internalType": "bytes32",
							"name": "sigS",
							"type": "bytes32"
						},
						{
							"internalType": "uint8",
							"name": "sigV",
							"type": "uint8"
						}
					],
					"name": "isSigner",
					"outputs": [
						{
							"internalType": "bool",
							"name": "",
							"type": "bool"
						}
					],
					"stateMutability": "view",
					"type": "function"
				},
				{
					"inputs": [
						{
							"internalType": "address",
							"name": "_nftContractAddress",
							"type": "address"
						},
						{
							"internalType": "uint256",
							"name": "_nftId",
							"type": "uint256"
						},
						{
							"internalType": "uint256",
							"name": "_price",
							"type": "uint256"
						},
						{
							"internalType": "uint256",
							"name": "_deadline",
							"type": "uint256"
						},
						{
							"internalType": "address",
							"name": "userAddress",
							"type": "address"
						}
					],
					"name": "listNFT",
					"outputs": [],
					"stateMutability": "nonpayable",
					"type": "function"
				},
				{
					"inputs": [
						{
							"internalType": "uint256",
							"name": "",
							"type": "uint256"
						}
					],
					"name": "listings",
					"outputs": [
						{
							"internalType": "address",
							"name": "nftContractAddress",
							"type": "address"
						},
						{
							"internalType": "uint256",
							"name": "nftId",
							"type": "uint256"
						},
						{
							"internalType": "address",
							"name": "seller",
							"type": "address"
						},
						{
							"internalType": "uint256",
							"name": "price",
							"type": "uint256"
						},
						{
							"internalType": "uint256",
							"name": "deadline",
							"type": "uint256"
						}
					],
					"stateMutability": "view",
					"type": "function"
				},
				{
					"inputs": [],
					"name": "nextListingId",
					"outputs": [
						{
							"internalType": "uint256",
							"name": "",
							"type": "uint256"
						}
					],
					"stateMutability": "view",
					"type": "function"
				},
				{
					"inputs": [
						{
							"internalType": "address",
							"name": "",
							"type": "address"
						}
					],
					"name": "nonces",
					"outputs": [
						{
							"internalType": "uint256",
							"name": "",
							"type": "uint256"
						}
					],
					"stateMutability": "view",
					"type": "function"
				},
				{
					"inputs": [],
					"name": "owner",
					"outputs": [
						{
							"internalType": "address",
							"name": "",
							"type": "address"
						}
					],
					"stateMutability": "view",
					"type": "function"
				},
				{
					"inputs": [],
					"name": "paused",
					"outputs": [
						{
							"internalType": "bool",
							"name": "",
							"type": "bool"
						}
					],
					"stateMutability": "view",
					"type": "function"
				},
				{
					"inputs": [],
					"name": "platformFeeAddress",
					"outputs": [
						{
							"internalType": "address",
							"name": "",
							"type": "address"
						}
					],
					"stateMutability": "view",
					"type": "function"
				},
				{
					"inputs": [],
					"name": "platformFeePercentage",
					"outputs": [
						{
							"internalType": "uint256",
							"name": "",
							"type": "uint256"
						}
					],
					"stateMutability": "view",
					"type": "function"
				},
				{
					"inputs": [],
					"name": "renounceOwnership",
					"outputs": [],
					"stateMutability": "nonpayable",
					"type": "function"
				},
				{
					"inputs": [],
					"name": "royaltyAddress",
					"outputs": [
						{
							"internalType": "address",
							"name": "",
							"type": "address"
						}
					],
					"stateMutability": "view",
					"type": "function"
				},
				{
					"inputs": [],
					"name": "royaltyPercentage",
					"outputs": [
						{
							"internalType": "uint256",
							"name": "",
							"type": "uint256"
						}
					],
					"stateMutability": "view",
					"type": "function"
				},
				{
					"inputs": [
						{
							"internalType": "address",
							"name": "newOwner",
							"type": "address"
						}
					],
					"name": "transferOwnership",
					"outputs": [],
					"stateMutability": "nonpayable",
					"type": "function"
				}
			],
			"devdoc": {
				"kind": "dev",
				"methods": {
					"owner()": {
						"details": "Returns the address of the current owner."
					},
					"paused()": {
						"details": "Returns true if the contract is paused, and false otherwise."
					},
					"renounceOwnership()": {
						"details": "Leaves the contract without owner. It will not be possible to call `onlyOwner` functions. Can only be called by the current owner. NOTE: Renouncing ownership will leave the contract without an owner, thereby disabling any functionality that is only available to the owner."
					},
					"transferOwnership(address)": {
						"details": "Transfers ownership of the contract to a new account (`newOwner`). Can only be called by the current owner."
					}
				},
				"version": 1
			},
			"evm": {
				"assembly": "    /* \"venda_gassless.sol\":289:3749  contract NFTMarketplace is Ownable, ReentrancyGuard, Pausable {... */\n  mstore(0x40, 0x80)\n    /* \"venda_gassless.sol\":790:791  1 */\n  0x01\n    /* \"venda_gassless.sol\":759:791  uint256 public nextListingId = 1 */\n  0x09\n  sstore\n    /* \"venda_gassless.sol\":1266:1708  constructor(uint256 _royaltyPercentage, uint256 _platformFeePercentage, address _royaltyAddress, address _platformFeeAddress) {... */\n  callvalue\n  dup1\n  iszero\n  tag_1\n  jumpi\n  0x00\n  dup1\n  revert\ntag_1:\n  pop\n  mload(0x40)\n  sub(codesize, bytecodeSize)\n  dup1\n  bytecodeSize\n  dup4\n  codecopy\n  dup2\n  dup2\n  add\n  0x40\n  mstore\n  dup2\n  add\n  swap1\n  tag_2\n  swap2\n  swap1\n  tag_3\n  jump\t// in\ntag_2:\n    /* \"@openzeppelin/contracts/access/Ownable.sol\":936:968  _transferOwnership(_msgSender()) */\n  tag_9\n    /* \"@openzeppelin/contracts/access/Ownable.sol\":955:967  _msgSender() */\n  tag_10\n    /* \"@openzeppelin/contracts/access/Ownable.sol\":955:965  _msgSender */\n  shl(0x20, tag_11)\n    /* \"@openzeppelin/contracts/access/Ownable.sol\":955:967  _msgSender() */\n  0x20\n  shr\n  jump\t// in\ntag_10:\n    /* \"@openzeppelin/contracts/access/Ownable.sol\":936:954  _transferOwnership */\n  shl(0x20, tag_12)\n    /* \"@openzeppelin/contracts/access/Ownable.sol\":936:968  _transferOwnership(_msgSender()) */\n  0x20\n  shr\n  jump\t// in\ntag_9:\n    /* \"@openzeppelin/contracts/security/ReentrancyGuard.sol\":1716:1717  1 */\n  0x01\n    /* \"@openzeppelin/contracts/security/ReentrancyGuard.sol\":1821:1828  _status */\n  dup1\n    /* \"@openzeppelin/contracts/security/ReentrancyGuard.sol\":1821:1843  _status = _NOT_ENTERED */\n  dup2\n  swap1\n  sstore\n  pop\n    /* \"@openzeppelin/contracts/security/Pausable.sol\":1006:1011  false */\n  0x00\n    /* \"@openzeppelin/contracts/security/Pausable.sol\":996:1003  _paused */\n  0x02\n  0x00\n    /* \"@openzeppelin/contracts/security/Pausable.sol\":996:1011  _paused = false */\n  0x0100\n  exp\n  dup2\n  sload\n  dup2\n  0xff\n  mul\n  not\n  and\n  swap1\n  dup4\n  iszero\n  iszero\n  mul\n  or\n  swap1\n  sstore\n  pop\n    /* \"venda_gassless.sol\":1437:1438  0 */\n  0x00\n    /* \"venda_gassless.sol\":1410:1439  _royaltyAddress != address(0) */\n  0xffffffffffffffffffffffffffffffffffffffff\n  and\n    /* \"venda_gassless.sol\":1410:1425  _royaltyAddress */\n  dup3\n    /* \"venda_gassless.sol\":1410:1439  _royaltyAddress != address(0) */\n  0xffffffffffffffffffffffffffffffffffffffff\n  and\n  eq\n  iszero\n    /* \"venda_gassless.sol\":1410:1476  _royaltyAddress != address(0) && _platformFeeAddress != address(0) */\n  dup1\n  iszero\n  tag_16\n  jumpi\n  pop\n    /* \"venda_gassless.sol\":1474:1475  0 */\n  0x00\n    /* \"venda_gassless.sol\":1443:1476  _platformFeeAddress != address(0) */\n  0xffffffffffffffffffffffffffffffffffffffff\n  and\n    /* \"venda_gassless.sol\":1443:1462  _platformFeeAddress */\n  dup2\n    /* \"venda_gassless.sol\":1443:1476  _platformFeeAddress != address(0) */\n  0xffffffffffffffffffffffffffffffffffffffff\n  and\n  eq\n  iszero\n    /* \"venda_gassless.sol\":1410:1476  _royaltyAddress != address(0) && _platformFeeAddress != address(0) */\ntag_16:\n    /* \"venda_gassless.sol\":1402:1505  require(_royaltyAddress != address(0) && _platformFeeAddress != address(0), \"Addresses cannot be zero\") */\n  tag_17\n  jumpi\n  mload(0x40)\n  0x08c379a000000000000000000000000000000000000000000000000000000000\n  dup2\n  mstore\n  0x04\n  add\n  tag_18\n  swap1\n  tag_19\n  jump\t// in\ntag_18:\n  mload(0x40)\n  dup1\n  swap2\n  sub\n  swap1\n  revert\ntag_17:\n    /* \"venda_gassless.sol\":1535:1553  _royaltyPercentage */\n  dup4\n    /* \"venda_gassless.sol\":1515:1532  royaltyPercentage */\n  0x04\n    /* \"venda_gassless.sol\":1515:1553  royaltyPercentage = _royaltyPercentage */\n  dup2\n  swap1\n  sstore\n  pop\n    /* \"venda_gassless.sol\":1587:1609  _platformFeePercentage */\n  dup3\n    /* \"venda_gassless.sol\":1563:1584  platformFeePercentage */\n  0x05\n    /* \"venda_gassless.sol\":1563:1609  platformFeePercentage = _platformFeePercentage */\n  dup2\n  swap1\n  sstore\n  pop\n    /* \"venda_gassless.sol\":1636:1651  _royaltyAddress */\n  dup2\n    /* \"venda_gassless.sol\":1619:1633  royaltyAddress */\n  0x06\n  0x00\n    /* \"venda_gassless.sol\":1619:1651  royaltyAddress = _royaltyAddress */\n  0x0100\n  exp\n  dup2\n  sload\n  dup2\n  0xffffffffffffffffffffffffffffffffffffffff\n  mul\n  not\n  and\n  swap1\n  dup4\n  0xffffffffffffffffffffffffffffffffffffffff\n  and\n  mul\n  or\n  swap1\n  sstore\n  pop\n    /* \"venda_gassless.sol\":1682:1701  _platformFeeAddress */\n  dup1\n    /* \"venda_gassless.sol\":1661:1679  platformFeeAddress */\n  0x07\n  0x00\n    /* \"venda_gassless.sol\":1661:1701  platformFeeAddress = _platformFeeAddress */\n  0x0100\n  exp\n  dup2\n  sload\n  dup2\n  0xffffffffffffffffffffffffffffffffffffffff\n  mul\n  not\n  and\n  swap1\n  dup4\n  0xffffffffffffffffffffffffffffffffffffffff\n  and\n  mul\n  or\n  swap1\n  sstore\n  pop\n    /* \"venda_gassless.sol\":1266:1708  constructor(uint256 _royaltyPercentage, uint256 _platformFeePercentage, address _royaltyAddress, address _platformFeeAddress) {... */\n  pop\n  pop\n  pop\n  pop\n    /* \"venda_gassless.sol\":289:3749  contract NFTMarketplace is Ownable, ReentrancyGuard, Pausable {... */\n  jump(tag_20)\n    /* \"@openzeppelin/contracts/utils/Context.sol\":640:736  function _msgSender() internal view virtual returns (address) {... */\ntag_11:\n    /* \"@openzeppelin/contracts/utils/Context.sol\":693:700  address */\n  0x00\n    /* \"@openzeppelin/contracts/utils/Context.sol\":719:729  msg.sender */\n  caller\n    /* \"@openzeppelin/contracts/utils/Context.sol\":712:729  return msg.sender */\n  swap1\n  pop\n    /* \"@openzeppelin/contracts/utils/Context.sol\":640:736  function _msgSender() internal view virtual returns (address) {... */\n  swap1\n  jump\t// out\n    /* \"@openzeppelin/contracts/access/Ownable.sol\":2426:2613  function _transferOwnership(address newOwner) internal virtual {... */\ntag_12:\n    /* \"@openzeppelin/contracts/access/Ownable.sol\":2499:2515  address oldOwner */\n  0x00\n    /* \"@openzeppelin/contracts/access/Ownable.sol\":2518:2524  _owner */\n  dup1\n  0x00\n  swap1\n  sload\n  swap1\n  0x0100\n  exp\n  swap1\n  div\n  0xffffffffffffffffffffffffffffffffffffffff\n  and\n    /* \"@openzeppelin/contracts/access/Ownable.sol\":2499:2524  address oldOwner = _owner */\n  swap1\n  pop\n    /* \"@openzeppelin/contracts/access/Ownable.sol\":2543:2551  newOwner */\n  dup2\n    /* \"@openzeppelin/contracts/access/Ownable.sol\":2534:2540  _owner */\n  0x00\n  dup1\n    /* \"@openzeppelin/contracts/access/Ownable.sol\":2534:2551  _owner = newOwner */\n  0x0100\n  exp\n  dup2\n  sload\n  dup2\n  0xffffffffffffffffffffffffffffffffffffffff\n  mul\n  not\n  and\n  swap1\n  dup4\n  0xffffffffffffffffffffffffffffffffffffffff\n  and\n  mul\n  or\n  swap1\n  sstore\n  pop\n    /* \"@openzeppelin/contracts/access/Ownable.sol\":2597:2605  newOwner */\n  dup2\n    /* \"@openzeppelin/contracts/access/Ownable.sol\":2566:2606  OwnershipTransferred(oldOwner, newOwner) */\n  0xffffffffffffffffffffffffffffffffffffffff\n  and\n    /* \"@openzeppelin/contracts/access/Ownable.sol\":2587:2595  oldOwner */\n  dup2\n    /* \"@openzeppelin/contracts/access/Ownable.sol\":2566:2606  OwnershipTransferred(oldOwner, newOwner) */\n  0xffffffffffffffffffffffffffffffffffffffff\n  and\n  0x8be0079c531659141344cd1fd0a4f28419497f9722a3daafe3b4186f6b6457e0\n  mload(0x40)\n  mload(0x40)\n  dup1\n  swap2\n  sub\n  swap1\n  log3\n    /* \"@openzeppelin/contracts/access/Ownable.sol\":2489:2613  {... */\n  pop\n    /* \"@openzeppelin/contracts/access/Ownable.sol\":2426:2613  function _transferOwnership(address newOwner) internal virtual {... */\n  pop\n  jump\t// out\n    /* \"#utility.yul\":88:205   */\ntag_24:\n    /* \"#utility.yul\":197:198   */\n  0x00\n    /* \"#utility.yul\":194:195   */\n  dup1\n    /* \"#utility.yul\":187:199   */\n  revert\n    /* \"#utility.yul\":334:411   */\ntag_26:\n    /* \"#utility.yul\":371:378   */\n  0x00\n    /* \"#utility.yul\":400:405   */\n  dup2\n    /* \"#utility.yul\":389:405   */\n  swap1\n  pop\n    /* \"#utility.yul\":334:411   */\n  swap2\n  swap1\n  pop\n  jump\t// out\n    /* \"#utility.yul\":417:539   */\ntag_27:\n    /* \"#utility.yul\":490:514   */\n  tag_42\n    /* \"#utility.yul\":508:513   */\n  dup2\n    /* \"#utility.yul\":490:514   */\n  tag_26\n  jump\t// in\ntag_42:\n    /* \"#utility.yul\":483:488   */\n  dup2\n    /* \"#utility.yul\":480:515   */\n  eq\n    /* \"#utility.yul\":470:533   */\n  tag_43\n  jumpi\n    /* \"#utility.yul\":529:530   */\n  0x00\n    /* \"#utility.yul\":526:527   */\n  dup1\n    /* \"#utility.yul\":519:531   */\n  revert\n    /* \"#utility.yul\":470:533   */\ntag_43:\n    /* \"#utility.yul\":417:539   */\n  pop\n  jump\t// out\n    /* \"#utility.yul\":545:688   */\ntag_28:\n    /* \"#utility.yul\":602:607   */\n  0x00\n    /* \"#utility.yul\":633:639   */\n  dup2\n    /* \"#utility.yul\":627:640   */\n  mload\n    /* \"#utility.yul\":618:640   */\n  swap1\n  pop\n    /* \"#utility.yul\":649:682   */\n  tag_45\n    /* \"#utility.yul\":676:681   */\n  dup2\n    /* \"#utility.yul\":649:682   */\n  tag_27\n  jump\t// in\ntag_45:\n    /* \"#utility.yul\":545:688   */\n  swap3\n  swap2\n  pop\n  pop\n  jump\t// out\n    /* \"#utility.yul\":694:820   */\ntag_29:\n    /* \"#utility.yul\":731:738   */\n  0x00\n    /* \"#utility.yul\":771:813   */\n  0xffffffffffffffffffffffffffffffffffffffff\n    /* \"#utility.yul\":764:769   */\n  dup3\n    /* \"#utility.yul\":760:814   */\n  and\n    /* \"#utility.yul\":749:814   */\n  swap1\n  pop\n    /* \"#utility.yul\":694:820   */\n  swap2\n  swap1\n  pop\n  jump\t// out\n    /* \"#utility.yul\":826:922   */\ntag_30:\n    /* \"#utility.yul\":863:870   */\n  0x00\n    /* \"#utility.yul\":892:916   */\n  tag_48\n    /* \"#utility.yul\":910:915   */\n  dup3\n    /* \"#utility.yul\":892:916   */\n  tag_29\n  jump\t// in\ntag_48:\n    /* \"#utility.yul\":881:916   */\n  swap1\n  pop\n    /* \"#utility.yul\":826:922   */\n  swap2\n  swap1\n  pop\n  jump\t// out\n    /* \"#utility.yul\":928:1050   */\ntag_31:\n    /* \"#utility.yul\":1001:1025   */\n  tag_50\n    /* \"#utility.yul\":1019:1024   */\n  dup2\n    /* \"#utility.yul\":1001:1025   */\n  tag_30\n  jump\t// in\ntag_50:\n    /* \"#utility.yul\":994:999   */\n  dup2\n    /* \"#utility.yul\":991:1026   */\n  eq\n    /* \"#utility.yul\":981:1044   */\n  tag_51\n  jumpi\n    /* \"#utility.yul\":1040:1041   */\n  0x00\n    /* \"#utility.yul\":1037:1038   */\n  dup1\n    /* \"#utility.yul\":1030:1042   */\n  revert\n    /* \"#utility.yul\":981:1044   */\ntag_51:\n    /* \"#utility.yul\":928:1050   */\n  pop\n  jump\t// out\n    /* \"#utility.yul\":1056:1199   */\ntag_32:\n    /* \"#utility.yul\":1113:1118   */\n  0x00\n    /* \"#utility.yul\":1144:1150   */\n  dup2\n    /* \"#utility.yul\":1138:1151   */\n  mload\n    /* \"#utility.yul\":1129:1151   */\n  swap1\n  pop\n    /* \"#utility.yul\":1160:1193   */\n  tag_53\n    /* \"#utility.yul\":1187:1192   */\n  dup2\n    /* \"#utility.yul\":1160:1193   */\n  tag_31\n  jump\t// in\ntag_53:\n    /* \"#utility.yul\":1056:1199   */\n  swap3\n  swap2\n  pop\n  pop\n  jump\t// out\n    /* \"#utility.yul\":1205:2025   */\ntag_3:\n    /* \"#utility.yul\":1302:1308   */\n  0x00\n    /* \"#utility.yul\":1310:1316   */\n  dup1\n    /* \"#utility.yul\":1318:1324   */\n  0x00\n    /* \"#utility.yul\":1326:1332   */\n  dup1\n    /* \"#utility.yul\":1375:1378   */\n  0x80\n    /* \"#utility.yul\":1363:1372   */\n  dup6\n    /* \"#utility.yul\":1354:1361   */\n  dup8\n    /* \"#utility.yul\":1350:1373   */\n  sub\n    /* \"#utility.yul\":1346:1379   */\n  slt\n    /* \"#utility.yul\":1343:1463   */\n  iszero\n  tag_55\n  jumpi\n    /* \"#utility.yul\":1382:1461   */\n  tag_56\n  tag_24\n  jump\t// in\ntag_56:\n    /* \"#utility.yul\":1343:1463   */\ntag_55:\n    /* \"#utility.yul\":1502:1503   */\n  0x00\n    /* \"#utility.yul\":1527:1591   */\n  tag_57\n    /* \"#utility.yul\":1583:1590   */\n  dup8\n    /* \"#utility.yul\":1574:1580   */\n  dup3\n    /* \"#utility.yul\":1563:1572   */\n  dup9\n    /* \"#utility.yul\":1559:1581   */\n  add\n    /* \"#utility.yul\":1527:1591   */\n  tag_28\n  jump\t// in\ntag_57:\n    /* \"#utility.yul\":1517:1591   */\n  swap5\n  pop\n    /* \"#utility.yul\":1473:1601   */\n  pop\n    /* \"#utility.yul\":1640:1642   */\n  0x20\n    /* \"#utility.yul\":1666:1730   */\n  tag_58\n    /* \"#utility.yul\":1722:1729   */\n  dup8\n    /* \"#utility.yul\":1713:1719   */\n  dup3\n    /* \"#utility.yul\":1702:1711   */\n  dup9\n    /* \"#utility.yul\":1698:1720   */\n  add\n    /* \"#utility.yul\":1666:1730   */\n  tag_28\n  jump\t// in\ntag_58:\n    /* \"#utility.yul\":1656:1730   */\n  swap4\n  pop\n    /* \"#utility.yul\":1611:1740   */\n  pop\n    /* \"#utility.yul\":1779:1781   */\n  0x40\n    /* \"#utility.yul\":1805:1869   */\n  tag_59\n    /* \"#utility.yul\":1861:1868   */\n  dup8\n    /* \"#utility.yul\":1852:1858   */\n  dup3\n    /* \"#utility.yul\":1841:1850   */\n  dup9\n    /* \"#utility.yul\":1837:1859   */\n  add\n    /* \"#utility.yul\":1805:1869   */\n  tag_32\n  jump\t// in\ntag_59:\n    /* \"#utility.yul\":1795:1869   */\n  swap3\n  pop\n    /* \"#utility.yul\":1750:1879   */\n  pop\n    /* \"#utility.yul\":1918:1920   */\n  0x60\n    /* \"#utility.yul\":1944:2008   */\n  tag_60\n    /* \"#utility.yul\":2000:2007   */\n  dup8\n    /* \"#utility.yul\":1991:1997   */\n  dup3\n    /* \"#utility.yul\":1980:1989   */\n  dup9\n    /* \"#utility.yul\":1976:1998   */\n  add\n    /* \"#utility.yul\":1944:2008   */\n  tag_32\n  jump\t// in\ntag_60:\n    /* \"#utility.yul\":1934:2008   */\n  swap2\n  pop\n    /* \"#utility.yul\":1889:2018   */\n  pop\n    /* \"#utility.yul\":1205:2025   */\n  swap3\n  swap6\n  swap2\n  swap5\n  pop\n  swap3\n  pop\n  jump\t// out\n    /* \"#utility.yul\":2031:2200   */\ntag_33:\n    /* \"#utility.yul\":2115:2126   */\n  0x00\n    /* \"#utility.yul\":2149:2155   */\n  dup3\n    /* \"#utility.yul\":2144:2147   */\n  dup3\n    /* \"#utility.yul\":2137:2156   */\n  mstore\n    /* \"#utility.yul\":2189:2193   */\n  0x20\n    /* \"#utility.yul\":2184:2187   */\n  dup3\n    /* \"#utility.yul\":2180:2194   */\n  add\n    /* \"#utility.yul\":2165:2194   */\n  swap1\n  pop\n    /* \"#utility.yul\":2031:2200   */\n  swap3\n  swap2\n  pop\n  pop\n  jump\t// out\n    /* \"#utility.yul\":2206:2380   */\ntag_34:\n    /* \"#utility.yul\":2346:2372   */\n  0x4164647265737365732063616e6e6f74206265207a65726f0000000000000000\n    /* \"#utility.yul\":2342:2343   */\n  0x00\n    /* \"#utility.yul\":2334:2340   */\n  dup3\n    /* \"#utility.yul\":2330:2344   */\n  add\n    /* \"#utility.yul\":2323:2373   */\n  mstore\n    /* \"#utility.yul\":2206:2380   */\n  pop\n  jump\t// out\n    /* \"#utility.yul\":2386:2752   */\ntag_35:\n    /* \"#utility.yul\":2528:2531   */\n  0x00\n    /* \"#utility.yul\":2549:2616   */\n  tag_64\n    /* \"#utility.yul\":2613:2615   */\n  0x18\n    /* \"#utility.yul\":2608:2611   */\n  dup4\n    /* \"#utility.yul\":2549:2616   */\n  tag_33\n  jump\t// in\ntag_64:\n    /* \"#utility.yul\":2542:2616   */\n  swap2\n  pop\n    /* \"#utility.yul\":2625:2718   */\n  tag_65\n    /* \"#utility.yul\":2714:2717   */\n  dup3\n    /* \"#utility.yul\":2625:2718   */\n  tag_34\n  jump\t// in\ntag_65:\n    /* \"#utility.yul\":2743:2745   */\n  0x20\n    /* \"#utility.yul\":2738:2741   */\n  dup3\n    /* \"#utility.yul\":2734:2746   */\n  add\n    /* \"#utility.yul\":2727:2746   */\n  swap1\n  pop\n    /* \"#utility.yul\":2386:2752   */\n  swap2\n  swap1\n  pop\n  jump\t// out\n    /* \"#utility.yul\":2758:3177   */\ntag_19:\n    /* \"#utility.yul\":2924:2928   */\n  0x00\n    /* \"#utility.yul\":2962:2964   */\n  0x20\n    /* \"#utility.yul\":2951:2960   */\n  dup3\n    /* \"#utility.yul\":2947:2965   */\n  add\n    /* \"#utility.yul\":2939:2965   */\n  swap1\n  pop\n    /* \"#utility.yul\":3011:3020   */\n  dup2\n    /* \"#utility.yul\":3005:3009   */\n  dup2\n    /* \"#utility.yul\":3001:3021   */\n  sub\n    /* \"#utility.yul\":2997:2998   */\n  0x00\n    /* \"#utility.yul\":2986:2995   */\n  dup4\n    /* \"#utility.yul\":2982:2999   */\n  add\n    /* \"#utility.yul\":2975:3022   */\n  mstore\n    /* \"#utility.yul\":3039:3170   */\n  tag_67\n    /* \"#utility.yul\":3165:3169   */\n  dup2\n    /* \"#utility.yul\":3039:3170   */\n  tag_35\n  jump\t// in\ntag_67:\n    /* \"#utility.yul\":3031:3170   */\n  swap1\n  pop\n    /* \"#utility.yul\":2758:3177   */\n  swap2\n  swap1\n  pop\n  jump\t// out\n    /* \"venda_gassless.sol\":289:3749  contract NFTMarketplace is Ownable, ReentrancyGuard, Pausable {... */\ntag_20:\n  dataSize(sub_0)\n  dup1\n  dataOffset(sub_0)\n  0x00\n  codecopy\n  0x00\n  return\nstop\n\nsub_0: assembly {\n        /* \"venda_gassless.sol\":289:3749  contract NFTMarketplace is Ownable, ReentrancyGuard, Pausable {... */\n      mstore(0x40, 0x80)\n      jumpi(tag_1, lt(calldatasize, 0x04))\n      shr(0xe0, calldataload(0x00))\n      dup1\n      0x8da5cb5b\n      gt\n      tag_17\n      jumpi\n      dup1\n      0xde74e57b\n      gt\n      tag_18\n      jumpi\n      dup1\n      0xde74e57b\n      eq\n      tag_13\n      jumpi\n      dup1\n      0xe3b6a1f6\n      eq\n      tag_14\n      jumpi\n      dup1\n      0xed14834f\n      eq\n      tag_15\n      jumpi\n      dup1\n      0xf2fde38b\n      eq\n      tag_16\n      jumpi\n      jump(tag_1)\n    tag_18:\n      dup1\n      0x8da5cb5b\n      eq\n      tag_9\n      jumpi\n      dup1\n      0xaaccf1ec\n      eq\n      tag_10\n      jumpi\n      dup1\n      0xad2f852a\n      eq\n      tag_11\n      jumpi\n      dup1\n      0xcdd78cfc\n      eq\n      tag_12\n      jumpi\n      jump(tag_1)\n    tag_17:\n      dup1\n      0x5c975abb\n      gt\n      tag_19\n      jumpi\n      dup1\n      0x5c975abb\n      eq\n      tag_5\n      jumpi\n      dup1\n      0x715018a6\n      eq\n      tag_6\n      jumpi\n      dup1\n      0x7ecebe00\n      eq\n      tag_7\n      jumpi\n      dup1\n      0x8a71bb2d\n      eq\n      tag_8\n      jumpi\n      jump(tag_1)\n    tag_19:\n      dup1\n      0x028ef312\n      eq\n      tag_2\n      jumpi\n      dup1\n      0x0c53c51c\n      eq\n      tag_3\n      jumpi\n      dup1\n      0x33929726\n      eq\n      tag_4\n      jumpi\n    tag_1:\n      0x00\n      dup1\n      revert\n        /* \"venda_gassless.sol\":1714:2456  function listNFT(address _nftContractAddress, uint256 _nftId, uint256 _price, uint256 _deadline, address userAddress) external whenNotPaused {... */\n    tag_2:\n      callvalue\n      dup1\n      iszero\n      tag_20\n      jumpi\n      0x00\n      dup1\n      revert\n    tag_20:\n      pop\n      tag_21\n      0x04\n      dup1\n      calldatasize\n      sub\n      dup2\n      add\n      swap1\n      tag_22\n      swap2\n      swap1\n      tag_23\n      jump\t// in\n    tag_22:\n      tag_24\n      jump\t// in\n    tag_21:\n      stop\n        /* \"venda_gassless.sol\":2523:3137  function executeMetaTransaction(address userAddress, bytes memory functionSignature, bytes32 sigR, bytes32 sigS, uint8 sigV) public payable returns(bytes memory) {... */\n    tag_3:\n      tag_25\n      0x04\n      dup1\n      calldatasize\n      sub\n      dup2\n      add\n      swap1\n      tag_26\n      swap2\n      swap1\n      tag_27\n      jump\t// in\n    tag_26:\n      tag_28\n      jump\t// in\n    tag_25:\n      mload(0x40)\n      tag_29\n      swap2\n      swap1\n      tag_30\n      jump\t// in\n    tag_29:\n      mload(0x40)\n      dup1\n      swap2\n      sub\n      swap1\n      return\n        /* \"venda_gassless.sol\":3143:3584  function isSigner(address userAddress, bytes memory functionSignature, bytes32 sigR, bytes32 sigS, uint8 sigV) public view returns(bool) {... */\n    tag_4:\n      callvalue\n      dup1\n      iszero\n      tag_31\n      jumpi\n      0x00\n      dup1\n      revert\n    tag_31:\n      pop\n      tag_32\n      0x04\n      dup1\n      calldatasize\n      sub\n      dup2\n      add\n      swap1\n      tag_33\n      swap2\n      swap1\n      tag_27\n      jump\t// in\n    tag_33:\n      tag_34\n      jump\t// in\n    tag_32:\n      mload(0x40)\n      tag_35\n      swap2\n      swap1\n      tag_36\n      jump\t// in\n    tag_35:\n      mload(0x40)\n      dup1\n      swap2\n      sub\n      swap1\n      return\n        /* \"@openzeppelin/contracts/security/Pausable.sol\":1615:1699  function paused() public view virtual returns (bool) {... */\n    tag_5:\n      callvalue\n      dup1\n      iszero\n      tag_37\n      jumpi\n      0x00\n      dup1\n      revert\n    tag_37:\n      pop\n      tag_38\n      tag_39\n      jump\t// in\n    tag_38:\n      mload(0x40)\n      tag_40\n      swap2\n      swap1\n      tag_36\n      jump\t// in\n    tag_40:\n      mload(0x40)\n      dup1\n      swap2\n      sub\n      swap1\n      return\n        /* \"@openzeppelin/contracts/access/Ownable.sol\":1824:1925  function renounceOwnership() public virtual onlyOwner {... */\n    tag_6:\n      callvalue\n      dup1\n      iszero\n      tag_41\n      jumpi\n      0x00\n      dup1\n      revert\n    tag_41:\n      pop\n      tag_42\n      tag_43\n      jump\t// in\n    tag_42:\n      stop\n        /* \"venda_gassless.sol\":797:838  mapping(address => uint256) public nonces */\n    tag_7:\n      callvalue\n      dup1\n      iszero\n      tag_44\n      jumpi\n      0x00\n      dup1\n      revert\n    tag_44:\n      pop\n      tag_45\n      0x04\n      dup1\n      calldatasize\n      sub\n      dup2\n      add\n      swap1\n      tag_46\n      swap2\n      swap1\n      tag_47\n      jump\t// in\n    tag_46:\n      tag_48\n      jump\t// in\n    tag_45:\n      mload(0x40)\n      tag_49\n      swap2\n      swap1\n      tag_50\n      jump\t// in\n    tag_49:\n      mload(0x40)\n      dup1\n      swap2\n      sub\n      swap1\n      return\n        /* \"venda_gassless.sol\":556:588  uint256 public royaltyPercentage */\n    tag_8:\n      callvalue\n      dup1\n      iszero\n      tag_51\n      jumpi\n      0x00\n      dup1\n      revert\n    tag_51:\n      pop\n      tag_52\n      tag_53\n      jump\t// in\n    tag_52:\n      mload(0x40)\n      tag_54\n      swap2\n      swap1\n      tag_50\n      jump\t// in\n    tag_54:\n      mload(0x40)\n      dup1\n      swap2\n      sub\n      swap1\n      return\n        /* \"@openzeppelin/contracts/access/Ownable.sol\":1201:1286  function owner() public view virtual returns (address) {... */\n    tag_9:\n      callvalue\n      dup1\n      iszero\n      tag_55\n      jumpi\n      0x00\n      dup1\n      revert\n    tag_55:\n      pop\n      tag_56\n      tag_57\n      jump\t// in\n    tag_56:\n      mload(0x40)\n      tag_58\n      swap2\n      swap1\n      tag_59\n      jump\t// in\n    tag_58:\n      mload(0x40)\n      dup1\n      swap2\n      sub\n      swap1\n      return\n        /* \"venda_gassless.sol\":759:791  uint256 public nextListingId = 1 */\n    tag_10:\n      callvalue\n      dup1\n      iszero\n      tag_60\n      jumpi\n      0x00\n      dup1\n      revert\n    tag_60:\n      pop\n      tag_61\n      tag_62\n      jump\t// in\n    tag_61:\n      mload(0x40)\n      tag_63\n      swap2\n      swap1\n      tag_50\n      jump\t// in\n    tag_63:\n      mload(0x40)\n      dup1\n      swap2\n      sub\n      swap1\n      return\n        /* \"venda_gassless.sol\":636:665  address public royaltyAddress */\n    tag_11:\n      callvalue\n      dup1\n      iszero\n      tag_64\n      jumpi\n      0x00\n      dup1\n      revert\n    tag_64:\n      pop\n      tag_65\n      tag_66\n      jump\t// in\n    tag_65:\n      mload(0x40)\n      tag_67\n      swap2\n      swap1\n      tag_59\n      jump\t// in\n    tag_67:\n      mload(0x40)\n      dup1\n      swap2\n      sub\n      swap1\n      return\n        /* \"venda_gassless.sol\":594:630  uint256 public platformFeePercentage */\n    tag_12:\n      callvalue\n      dup1\n      iszero\n      tag_68\n      jumpi\n      0x00\n      dup1\n      revert\n    tag_68:\n      pop\n      tag_69\n      tag_70\n      jump\t// in\n    tag_69:\n      mload(0x40)\n      tag_71\n      swap2\n      swap1\n      tag_50\n      jump\t// in\n    tag_71:\n      mload(0x40)\n      dup1\n      swap2\n      sub\n      swap1\n      return\n        /* \"venda_gassless.sol\":710:753  mapping(uint256 => Listing) public listings */\n    tag_13:\n      callvalue\n      dup1\n      iszero\n      tag_72\n      jumpi\n      0x00\n      dup1\n      revert\n    tag_72:\n      pop\n      tag_73\n      0x04\n      dup1\n      calldatasize\n      sub\n      dup2\n      add\n      swap1\n      tag_74\n      swap2\n      swap1\n      tag_75\n      jump\t// in\n    tag_74:\n      tag_76\n      jump\t// in\n    tag_73:\n      mload(0x40)\n      tag_77\n      swap6\n      swap5\n      swap4\n      swap3\n      swap2\n      swap1\n      tag_78\n      jump\t// in\n    tag_77:\n      mload(0x40)\n      dup1\n      swap2\n      sub\n      swap1\n      return\n        /* \"venda_gassless.sol\":517:550  uint256[] public activeListingIds */\n    tag_14:\n      callvalue\n      dup1\n      iszero\n      tag_79\n      jumpi\n      0x00\n      dup1\n      revert\n    tag_79:\n      pop\n      tag_80\n      0x04\n      dup1\n      calldatasize\n      sub\n      dup2\n      add\n      swap1\n      tag_81\n      swap2\n      swap1\n      tag_75\n      jump\t// in\n    tag_81:\n      tag_82\n      jump\t// in\n    tag_80:\n      mload(0x40)\n      tag_83\n      swap2\n      swap1\n      tag_50\n      jump\t// in\n    tag_83:\n      mload(0x40)\n      dup1\n      swap2\n      sub\n      swap1\n      return\n        /* \"venda_gassless.sol\":671:704  address public platformFeeAddress */\n    tag_15:\n      callvalue\n      dup1\n      iszero\n      tag_84\n      jumpi\n      0x00\n      dup1\n      revert\n    tag_84:\n      pop\n      tag_85\n      tag_86\n      jump\t// in\n    tag_85:\n      mload(0x40)\n      tag_87\n      swap2\n      swap1\n      tag_59\n      jump\t// in\n    tag_87:\n      mload(0x40)\n      dup1\n      swap2\n      sub\n      swap1\n      return\n        /* \"@openzeppelin/contracts/access/Ownable.sol\":2074:2272  function transferOwnership(address newOwner) public virtual onlyOwner {... */\n    tag_16:\n      callvalue\n      dup1\n      iszero\n      tag_88\n      jumpi\n      0x00\n      dup1\n      revert\n    tag_88:\n      pop\n      tag_89\n      0x04\n      dup1\n      calldatasize\n      sub\n      dup2\n      add\n      swap1\n      tag_90\n      swap2\n      swap1\n      tag_47\n      jump\t// in\n    tag_90:\n      tag_91\n      jump\t// in\n    tag_89:\n      stop\n        /* \"venda_gassless.sol\":1714:2456  function listNFT(address _nftContractAddress, uint256 _nftId, uint256 _price, uint256 _deadline, address userAddress) external whenNotPaused {... */\n    tag_24:\n        /* \"@openzeppelin/contracts/security/Pausable.sol\":1239:1258  _requireNotPaused() */\n      tag_93\n        /* \"@openzeppelin/contracts/security/Pausable.sol\":1239:1256  _requireNotPaused */\n      tag_94\n        /* \"@openzeppelin/contracts/security/Pausable.sol\":1239:1258  _requireNotPaused() */\n      jump\t// in\n    tag_93:\n        /* \"venda_gassless.sol\":1865:1884  IERC721 nftContract */\n      0x00\n        /* \"venda_gassless.sol\":1895:1914  _nftContractAddress */\n      dup6\n        /* \"venda_gassless.sol\":1865:1915  IERC721 nftContract = IERC721(_nftContractAddress) */\n      swap1\n      pop\n        /* \"venda_gassless.sol\":1964:1975  userAddress */\n      dup2\n        /* \"venda_gassless.sol\":1933:1975  nftContract.ownerOf(_nftId) == userAddress */\n      0xffffffffffffffffffffffffffffffffffffffff\n      and\n        /* \"venda_gassless.sol\":1933:1944  nftContract */\n      dup2\n        /* \"venda_gassless.sol\":1933:1952  nftContract.ownerOf */\n      0xffffffffffffffffffffffffffffffffffffffff\n      and\n      0x6352211e\n        /* \"venda_gassless.sol\":1953:1959  _nftId */\n      dup8\n        /* \"venda_gassless.sol\":1933:1960  nftContract.ownerOf(_nftId) */\n      mload(0x40)\n      dup3\n      0xffffffff\n      and\n      0xe0\n      shl\n      dup2\n      mstore\n      0x04\n      add\n      tag_96\n      swap2\n      swap1\n      tag_50\n      jump\t// in\n    tag_96:\n      0x20\n      mload(0x40)\n      dup1\n      dup4\n      sub\n      dup2\n      dup7\n      gas\n      staticcall\n      iszero\n      dup1\n      iszero\n      tag_98\n      jumpi\n      returndatasize\n      0x00\n      dup1\n      returndatacopy\n      revert(0x00, returndatasize)\n    tag_98:\n      pop\n      pop\n      pop\n      pop\n      mload(0x40)\n      returndatasize\n      not(0x1f)\n      0x1f\n      dup3\n      add\n      and\n      dup3\n      add\n      dup1\n      0x40\n      mstore\n      pop\n      dup2\n      add\n      swap1\n      tag_99\n      swap2\n      swap1\n      tag_100\n      jump\t// in\n    tag_99:\n        /* \"venda_gassless.sol\":1933:1975  nftContract.ownerOf(_nftId) == userAddress */\n      0xffffffffffffffffffffffffffffffffffffffff\n      and\n      eq\n        /* \"venda_gassless.sol\":1925:2012  require(nftContract.ownerOf(_nftId) == userAddress, \"You must own the NFT to list it.\") */\n      tag_101\n      jumpi\n      mload(0x40)\n      0x08c379a000000000000000000000000000000000000000000000000000000000\n      dup2\n      mstore\n      0x04\n      add\n      tag_102\n      swap1\n      tag_103\n      jump\t// in\n    tag_102:\n      mload(0x40)\n      dup1\n      swap2\n      sub\n      swap1\n      revert\n    tag_101:\n        /* \"venda_gassless.sol\":2049:2259  Listing({... */\n      mload(0x40)\n      dup1\n      0xa0\n      add\n      0x40\n      mstore\n      dup1\n        /* \"venda_gassless.sol\":2091:2110  _nftContractAddress */\n      dup8\n        /* \"venda_gassless.sol\":2049:2259  Listing({... */\n      0xffffffffffffffffffffffffffffffffffffffff\n      and\n      dup2\n      mstore\n      0x20\n      add\n        /* \"venda_gassless.sol\":2131:2137  _nftId */\n      dup7\n        /* \"venda_gassless.sol\":2049:2259  Listing({... */\n      dup2\n      mstore\n      0x20\n      add\n        /* \"venda_gassless.sol\":2159:2170  userAddress */\n      dup4\n        /* \"venda_gassless.sol\":2049:2259  Listing({... */\n      0xffffffffffffffffffffffffffffffffffffffff\n      and\n      dup2\n      mstore\n      0x20\n      add\n        /* \"venda_gassless.sol\":2191:2197  _price */\n      dup6\n        /* \"venda_gassless.sol\":2049:2259  Listing({... */\n      dup2\n      mstore\n      0x20\n      add\n        /* \"venda_gassless.sol\":2239:2248  _deadline */\n      dup5\n        /* \"venda_gassless.sol\":2221:2236  block.timestamp */\n      timestamp\n        /* \"venda_gassless.sol\":2221:2248  block.timestamp + _deadline */\n      tag_104\n      swap2\n      swap1\n      tag_105\n      jump\t// in\n    tag_104:\n        /* \"venda_gassless.sol\":2049:2259  Listing({... */\n      dup2\n      mstore\n      pop\n        /* \"venda_gassless.sol\":2023:2031  listings */\n      0x08\n        /* \"venda_gassless.sol\":2023:2046  listings[nextListingId] */\n      0x00\n        /* \"venda_gassless.sol\":2032:2045  nextListingId */\n      sload(0x09)\n        /* \"venda_gassless.sol\":2023:2046  listings[nextListingId] */\n      dup2\n      mstore\n      0x20\n      add\n      swap1\n      dup2\n      mstore\n      0x20\n      add\n      0x00\n      keccak256\n        /* \"venda_gassless.sol\":2023:2259  listings[nextListingId] = Listing({... */\n      0x00\n      dup3\n      add\n      mload\n      dup2\n      0x00\n      add\n      exp(0x0100, 0x00)\n      dup2\n      sload\n      dup2\n      0xffffffffffffffffffffffffffffffffffffffff\n      mul\n      not\n      and\n      swap1\n      dup4\n      0xffffffffffffffffffffffffffffffffffffffff\n      and\n      mul\n      or\n      swap1\n      sstore\n      pop\n      0x20\n      dup3\n      add\n      mload\n      dup2\n      0x01\n      add\n      sstore\n      0x40\n      dup3\n      add\n      mload\n      dup2\n      0x02\n      add\n      exp(0x0100, 0x00)\n      dup2\n      sload\n      dup2\n      0xffffffffffffffffffffffffffffffffffffffff\n      mul\n      not\n      and\n      swap1\n      dup4\n      0xffffffffffffffffffffffffffffffffffffffff\n      and\n      mul\n      or\n      swap1\n      sstore\n      pop\n      0x60\n      dup3\n      add\n      mload\n      dup2\n      0x03\n      add\n      sstore\n      0x80\n      dup3\n      add\n      mload\n      dup2\n      0x04\n      add\n      sstore\n      swap1\n      pop\n      pop\n        /* \"venda_gassless.sol\":2270:2286  activeListingIds */\n      0x03\n        /* \"venda_gassless.sol\":2292:2305  nextListingId */\n      sload(0x09)\n        /* \"venda_gassless.sol\":2270:2306  activeListingIds.push(nextListingId) */\n      swap1\n      dup1\n      0x01\n      dup2\n      sload\n      add\n      dup1\n      dup3\n      sstore\n      dup1\n      swap2\n      pop\n      pop\n      0x01\n      swap1\n      sub\n      swap1\n      0x00\n      mstore\n      keccak256(0x00, 0x20)\n      add\n      0x00\n      swap1\n      swap2\n      swap1\n      swap2\n      swap1\n      swap2\n      pop\n      sstore\n        /* \"venda_gassless.sol\":2359:2378  _nftContractAddress */\n      dup6\n        /* \"venda_gassless.sol\":2321:2424  NFTListed(nextListingId, userAddress, _nftContractAddress, _nftId, _price, block.timestamp + _deadline) */\n      0xffffffffffffffffffffffffffffffffffffffff\n      and\n        /* \"venda_gassless.sol\":2346:2357  userAddress */\n      dup3\n        /* \"venda_gassless.sol\":2321:2424  NFTListed(nextListingId, userAddress, _nftContractAddress, _nftId, _price, block.timestamp + _deadline) */\n      0xffffffffffffffffffffffffffffffffffffffff\n      and\n        /* \"venda_gassless.sol\":2331:2344  nextListingId */\n      sload(0x09)\n        /* \"venda_gassless.sol\":2321:2424  NFTListed(nextListingId, userAddress, _nftContractAddress, _nftId, _price, block.timestamp + _deadline) */\n      0xf33c76fec15a03b2e414df8c9dce93f5b05f8672742e0f1eb558b2161162dfcb\n        /* \"venda_gassless.sol\":2380:2386  _nftId */\n      dup9\n        /* \"venda_gassless.sol\":2388:2394  _price */\n      dup9\n        /* \"venda_gassless.sol\":2414:2423  _deadline */\n      dup9\n        /* \"venda_gassless.sol\":2396:2411  block.timestamp */\n      timestamp\n        /* \"venda_gassless.sol\":2396:2423  block.timestamp + _deadline */\n      tag_107\n      swap2\n      swap1\n      tag_105\n      jump\t// in\n    tag_107:\n        /* \"venda_gassless.sol\":2321:2424  NFTListed(nextListingId, userAddress, _nftContractAddress, _nftId, _price, block.timestamp + _deadline) */\n      mload(0x40)\n      tag_108\n      swap4\n      swap3\n      swap2\n      swap1\n      tag_109\n      jump\t// in\n    tag_108:\n      mload(0x40)\n      dup1\n      swap2\n      sub\n      swap1\n      log4\n        /* \"venda_gassless.sol\":2434:2447  nextListingId */\n      0x09\n      0x00\n        /* \"venda_gassless.sol\":2434:2449  nextListingId++ */\n      dup2\n      sload\n      dup1\n      swap3\n      swap2\n      swap1\n      tag_110\n      swap1\n      tag_111\n      jump\t// in\n    tag_110:\n      swap2\n      swap1\n      pop\n      sstore\n      pop\n        /* \"venda_gassless.sol\":1855:2456  {... */\n      pop\n        /* \"venda_gassless.sol\":1714:2456  function listNFT(address _nftContractAddress, uint256 _nftId, uint256 _price, uint256 _deadline, address userAddress) external whenNotPaused {... */\n      pop\n      pop\n      pop\n      pop\n      pop\n      jump\t// out\n        /* \"venda_gassless.sol\":2523:3137  function executeMetaTransaction(address userAddress, bytes memory functionSignature, bytes32 sigR, bytes32 sigS, uint8 sigV) public payable returns(bytes memory) {... */\n    tag_28:\n        /* \"venda_gassless.sol\":2671:2683  bytes memory */\n      0x60\n        /* \"venda_gassless.sol\":2703:2761  isSigner(userAddress, functionSignature, sigR, sigS, sigV) */\n      tag_113\n        /* \"venda_gassless.sol\":2712:2723  userAddress */\n      dup7\n        /* \"venda_gassless.sol\":2725:2742  functionSignature */\n      dup7\n        /* \"venda_gassless.sol\":2744:2748  sigR */\n      dup7\n        /* \"venda_gassless.sol\":2750:2754  sigS */\n      dup7\n        /* \"venda_gassless.sol\":2756:2760  sigV */\n      dup7\n        /* \"venda_gassless.sol\":2703:2711  isSigner */\n      tag_34\n        /* \"venda_gassless.sol\":2703:2761  isSigner(userAddress, functionSignature, sigR, sigS, sigV) */\n      jump\t// in\n    tag_113:\n        /* \"venda_gassless.sol\":2695:2799  require(isSigner(userAddress, functionSignature, sigR, sigS, sigV), \"Signer and signature do not match\") */\n      tag_114\n      jumpi\n      mload(0x40)\n      0x08c379a000000000000000000000000000000000000000000000000000000000\n      dup2\n      mstore\n      0x04\n      add\n      tag_115\n      swap1\n      tag_116\n      jump\t// in\n    tag_115:\n      mload(0x40)\n      dup1\n      swap2\n      sub\n      swap1\n      revert\n    tag_114:\n        /* \"venda_gassless.sol\":2810:2816  nonces */\n      0x0a\n        /* \"venda_gassless.sol\":2810:2829  nonces[userAddress] */\n      0x00\n        /* \"venda_gassless.sol\":2817:2828  userAddress */\n      dup8\n        /* \"venda_gassless.sol\":2810:2829  nonces[userAddress] */\n      0xffffffffffffffffffffffffffffffffffffffff\n      and\n      0xffffffffffffffffffffffffffffffffffffffff\n      and\n      dup2\n      mstore\n      0x20\n      add\n      swap1\n      dup2\n      mstore\n      0x20\n      add\n      0x00\n      keccak256\n      0x00\n        /* \"venda_gassless.sol\":2810:2831  nonces[userAddress]++ */\n      dup2\n      sload\n      dup1\n      swap3\n      swap2\n      swap1\n      tag_117\n      swap1\n      tag_111\n      jump\t// in\n    tag_117:\n      swap2\n      swap1\n      pop\n      sstore\n      pop\n        /* \"venda_gassless.sol\":2843:2855  bool success */\n      0x00\n        /* \"venda_gassless.sol\":2857:2880  bytes memory returnData */\n      dup1\n        /* \"venda_gassless.sol\":2892:2896  this */\n      address\n        /* \"venda_gassless.sol\":2884:2910  address(this).delegatecall */\n      0xffffffffffffffffffffffffffffffffffffffff\n      and\n        /* \"venda_gassless.sol\":2928:2945  functionSignature */\n      dup8\n        /* \"venda_gassless.sol\":2947:2958  userAddress */\n      dup10\n        /* \"venda_gassless.sol\":2911:2959  abi.encodePacked(functionSignature, userAddress) */\n      add(0x20, mload(0x40))\n      tag_118\n      swap3\n      swap2\n      swap1\n      tag_119\n      jump\t// in\n    tag_118:\n      mload(0x40)\n      0x20\n      dup2\n      dup4\n      sub\n      sub\n      dup2\n      mstore\n      swap1\n      0x40\n      mstore\n        /* \"venda_gassless.sol\":2884:2960  address(this).delegatecall(abi.encodePacked(functionSignature, userAddress)) */\n      mload(0x40)\n      tag_120\n      swap2\n      swap1\n      tag_121\n      jump\t// in\n    tag_120:\n      0x00\n      mload(0x40)\n      dup1\n      dup4\n      sub\n      dup2\n      dup6\n      gas\n      delegatecall\n      swap2\n      pop\n      pop\n      returndatasize\n      dup1\n      0x00\n      dup2\n      eq\n      tag_124\n      jumpi\n      mload(0x40)\n      swap2\n      pop\n      and(add(returndatasize, 0x3f), not(0x1f))\n      dup3\n      add\n      0x40\n      mstore\n      returndatasize\n      dup3\n      mstore\n      returndatasize\n      0x00\n      0x20\n      dup5\n      add\n      returndatacopy\n      jump(tag_123)\n    tag_124:\n      0x60\n      swap2\n      pop\n    tag_123:\n      pop\n        /* \"venda_gassless.sol\":2842:2960  (bool success, bytes memory returnData) = address(this).delegatecall(abi.encodePacked(functionSignature, userAddress)) */\n      swap2\n      pop\n      swap2\n      pop\n        /* \"venda_gassless.sol\":2978:2985  success */\n      dup2\n        /* \"venda_gassless.sol\":2970:3010  require(success, \"Function call failed\") */\n      tag_125\n      jumpi\n      mload(0x40)\n      0x08c379a000000000000000000000000000000000000000000000000000000000\n      dup2\n      mstore\n      0x04\n      add\n      tag_126\n      swap1\n      tag_127\n      jump\t// in\n    tag_126:\n      mload(0x40)\n      dup1\n      swap2\n      sub\n      swap1\n      revert\n    tag_125:\n        /* \"venda_gassless.sol\":3026:3102  MetaTransactionExecuted(userAddress, payable(msg.sender), functionSignature) */\n      0x5845892132946850460bff5a0083f71031bc5bf9aadcd40f1de79423eac9b10b\n        /* \"venda_gassless.sol\":3050:3061  userAddress */\n      dup9\n        /* \"venda_gassless.sol\":3071:3081  msg.sender */\n      caller\n        /* \"venda_gassless.sol\":3084:3101  functionSignature */\n      dup10\n        /* \"venda_gassless.sol\":3026:3102  MetaTransactionExecuted(userAddress, payable(msg.sender), functionSignature) */\n      mload(0x40)\n      tag_128\n      swap4\n      swap3\n      swap2\n      swap1\n      tag_129\n      jump\t// in\n    tag_128:\n      mload(0x40)\n      dup1\n      swap2\n      sub\n      swap1\n      log1\n        /* \"venda_gassless.sol\":3120:3130  returnData */\n      dup1\n        /* \"venda_gassless.sol\":3113:3130  return returnData */\n      swap3\n      pop\n      pop\n      pop\n        /* \"venda_gassless.sol\":2523:3137  function executeMetaTransaction(address userAddress, bytes memory functionSignature, bytes32 sigR, bytes32 sigS, uint8 sigV) public payable returns(bytes memory) {... */\n      swap6\n      swap5\n      pop\n      pop\n      pop\n      pop\n      pop\n      jump\t// out\n        /* \"venda_gassless.sol\":3143:3584  function isSigner(address userAddress, bytes memory functionSignature, bytes32 sigR, bytes32 sigS, uint8 sigV) public view returns(bool) {... */\n    tag_34:\n        /* \"venda_gassless.sol\":3274:3278  bool */\n      0x00\n        /* \"venda_gassless.sol\":3290:3307  address msgSender */\n      dup1\n        /* \"venda_gassless.sol\":3310:3321  userAddress */\n      dup7\n        /* \"venda_gassless.sol\":3290:3321  address msgSender = userAddress */\n      swap1\n      pop\n        /* \"venda_gassless.sol\":3331:3344  uint256 nonce */\n      0x00\n        /* \"venda_gassless.sol\":3347:3353  nonces */\n      0x0a\n        /* \"venda_gassless.sol\":3347:3366  nonces[userAddress] */\n      0x00\n        /* \"venda_gassless.sol\":3354:3365  userAddress */\n      dup10\n        /* \"venda_gassless.sol\":3347:3366  nonces[userAddress] */\n      0xffffffffffffffffffffffffffffffffffffffff\n      and\n      0xffffffffffffffffffffffffffffffffffffffff\n      and\n      dup2\n      mstore\n      0x20\n      add\n      swap1\n      dup2\n      mstore\n      0x20\n      add\n      0x00\n      keccak256\n      sload\n        /* \"venda_gassless.sol\":3331:3366  uint256 nonce = nonces[userAddress] */\n      swap1\n      pop\n        /* \"venda_gassless.sol\":3376:3391  bytes32 msgHash */\n      0x00\n        /* \"venda_gassless.sol\":3394:3474  prefixed(keccak256(abi.encodePacked(msgSender, nonce, this, functionSignature))) */\n      tag_131\n        /* \"venda_gassless.sol\":3430:3439  msgSender */\n      dup4\n        /* \"venda_gassless.sol\":3441:3446  nonce */\n      dup4\n        /* \"venda_gassless.sol\":3448:3452  this */\n      address\n        /* \"venda_gassless.sol\":3454:3471  functionSignature */\n      dup12\n        /* \"venda_gassless.sol\":3413:3472  abi.encodePacked(msgSender, nonce, this, functionSignature) */\n      add(0x20, mload(0x40))\n      tag_132\n      swap5\n      swap4\n      swap3\n      swap2\n      swap1\n      tag_133\n      jump\t// in\n    tag_132:\n      mload(0x40)\n      0x20\n      dup2\n      dup4\n      sub\n      sub\n      dup2\n      mstore\n      swap1\n      0x40\n      mstore\n        /* \"venda_gassless.sol\":3403:3473  keccak256(abi.encodePacked(msgSender, nonce, this, functionSignature)) */\n      dup1\n      mload\n      swap1\n      0x20\n      add\n      keccak256\n        /* \"venda_gassless.sol\":3394:3402  prefixed */\n      tag_134\n        /* \"venda_gassless.sol\":3394:3474  prefixed(keccak256(abi.encodePacked(msgSender, nonce, this, functionSignature))) */\n      jump\t// in\n    tag_131:\n        /* \"venda_gassless.sol\":3376:3474  bytes32 msgHash = prefixed(keccak256(abi.encodePacked(msgSender, nonce, this, functionSignature))) */\n      swap1\n      pop\n        /* \"venda_gassless.sol\":3484:3498  address signer */\n      0x00\n        /* \"venda_gassless.sol\":3501:3537  ecrecover(msgHash, sigV, sigR, sigS) */\n      0x01\n        /* \"venda_gassless.sol\":3511:3518  msgHash */\n      dup3\n        /* \"venda_gassless.sol\":3520:3524  sigV */\n      dup8\n        /* \"venda_gassless.sol\":3526:3530  sigR */\n      dup11\n        /* \"venda_gassless.sol\":3532:3536  sigS */\n      dup11\n        /* \"venda_gassless.sol\":3501:3537  ecrecover(msgHash, sigV, sigR, sigS) */\n      mload(0x40)\n      0x00\n      dup2\n      mstore\n      0x20\n      add\n      0x40\n      mstore\n      mload(0x40)\n      tag_135\n      swap5\n      swap4\n      swap3\n      swap2\n      swap1\n      tag_136\n      jump\t// in\n    tag_135:\n      0x20\n      mload(0x40)\n      0x20\n      dup2\n      sub\n      swap1\n      dup1\n      dup5\n      sub\n      swap1\n      dup6\n      gas\n      staticcall\n      iszero\n      dup1\n      iszero\n      tag_138\n      jumpi\n      returndatasize\n      0x00\n      dup1\n      returndatacopy\n      revert(0x00, returndatasize)\n    tag_138:\n      pop\n      pop\n      pop\n      mload(sub(mload(0x40), 0x20))\n        /* \"venda_gassless.sol\":3484:3537  address signer = ecrecover(msgHash, sigV, sigR, sigS) */\n      swap1\n      pop\n        /* \"venda_gassless.sol\":3565:3576  userAddress */\n      dup10\n        /* \"venda_gassless.sol\":3555:3576  signer == userAddress */\n      0xffffffffffffffffffffffffffffffffffffffff\n      and\n        /* \"venda_gassless.sol\":3555:3561  signer */\n      dup2\n        /* \"venda_gassless.sol\":3555:3576  signer == userAddress */\n      0xffffffffffffffffffffffffffffffffffffffff\n      and\n      eq\n        /* \"venda_gassless.sol\":3547:3577  return (signer == userAddress) */\n      swap5\n      pop\n      pop\n      pop\n      pop\n      pop\n        /* \"venda_gassless.sol\":3143:3584  function isSigner(address userAddress, bytes memory functionSignature, bytes32 sigR, bytes32 sigS, uint8 sigV) public view returns(bool) {... */\n      swap6\n      swap5\n      pop\n      pop\n      pop\n      pop\n      pop\n      jump\t// out\n        /* \"@openzeppelin/contracts/security/Pausable.sol\":1615:1699  function paused() public view virtual returns (bool) {... */\n    tag_39:\n        /* \"@openzeppelin/contracts/security/Pausable.sol\":1662:1666  bool */\n      0x00\n        /* \"@openzeppelin/contracts/security/Pausable.sol\":1685:1692  _paused */\n      0x02\n      0x00\n      swap1\n      sload\n      swap1\n      0x0100\n      exp\n      swap1\n      div\n      0xff\n      and\n        /* \"@openzeppelin/contracts/security/Pausable.sol\":1678:1692  return _paused */\n      swap1\n      pop\n        /* \"@openzeppelin/contracts/security/Pausable.sol\":1615:1699  function paused() public view virtual returns (bool) {... */\n      swap1\n      jump\t// out\n        /* \"@openzeppelin/contracts/access/Ownable.sol\":1824:1925  function renounceOwnership() public virtual onlyOwner {... */\n    tag_43:\n        /* \"@openzeppelin/contracts/access/Ownable.sol\":1094:1107  _checkOwner() */\n      tag_141\n        /* \"@openzeppelin/contracts/access/Ownable.sol\":1094:1105  _checkOwner */\n      tag_142\n        /* \"@openzeppelin/contracts/access/Ownable.sol\":1094:1107  _checkOwner() */\n      jump\t// in\n    tag_141:\n        /* \"@openzeppelin/contracts/access/Ownable.sol\":1888:1918  _transferOwnership(address(0)) */\n      tag_144\n        /* \"@openzeppelin/contracts/access/Ownable.sol\":1915:1916  0 */\n      0x00\n        /* \"@openzeppelin/contracts/access/Ownable.sol\":1888:1906  _transferOwnership */\n      tag_145\n        /* \"@openzeppelin/contracts/access/Ownable.sol\":1888:1918  _transferOwnership(address(0)) */\n      jump\t// in\n    tag_144:\n        /* \"@openzeppelin/contracts/access/Ownable.sol\":1824:1925  function renounceOwnership() public virtual onlyOwner {... */\n      jump\t// out\n        /* \"venda_gassless.sol\":797:838  mapping(address => uint256) public nonces */\n    tag_48:\n      mstore(0x20, 0x0a)\n      dup1\n      0x00\n      mstore\n      keccak256(0x00, 0x40)\n      0x00\n      swap2\n      pop\n      swap1\n      pop\n      sload\n      dup2\n      jump\t// out\n        /* \"venda_gassless.sol\":556:588  uint256 public royaltyPercentage */\n    tag_53:\n      sload(0x04)\n      dup2\n      jump\t// out\n        /* \"@openzeppelin/contracts/access/Ownable.sol\":1201:1286  function owner() public view virtual returns (address) {... */\n    tag_57:\n        /* \"@openzeppelin/contracts/access/Ownable.sol\":1247:1254  address */\n      0x00\n        /* \"@openzeppelin/contracts/access/Ownable.sol\":1273:1279  _owner */\n      dup1\n      0x00\n      swap1\n      sload\n      swap1\n      0x0100\n      exp\n      swap1\n      div\n      0xffffffffffffffffffffffffffffffffffffffff\n      and\n        /* \"@openzeppelin/contracts/access/Ownable.sol\":1266:1279  return _owner */\n      swap1\n      pop\n        /* \"@openzeppelin/contracts/access/Ownable.sol\":1201:1286  function owner() public view virtual returns (address) {... */\n      swap1\n      jump\t// out\n        /* \"venda_gassless.sol\":759:791  uint256 public nextListingId = 1 */\n    tag_62:\n      sload(0x09)\n      dup2\n      jump\t// out\n        /* \"venda_gassless.sol\":636:665  address public royaltyAddress */\n    tag_66:\n      0x06\n      0x00\n      swap1\n      sload\n      swap1\n      0x0100\n      exp\n      swap1\n      div\n      0xffffffffffffffffffffffffffffffffffffffff\n      and\n      dup2\n      jump\t// out\n        /* \"venda_gassless.sol\":594:630  uint256 public platformFeePercentage */\n    tag_70:\n      sload(0x05)\n      dup2\n      jump\t// out\n        /* \"venda_gassless.sol\":710:753  mapping(uint256 => Listing) public listings */\n    tag_76:\n      mstore(0x20, 0x08)\n      dup1\n      0x00\n      mstore\n      keccak256(0x00, 0x40)\n      0x00\n      swap2\n      pop\n      swap1\n      pop\n      dup1\n      0x00\n      add\n      0x00\n      swap1\n      sload\n      swap1\n      0x0100\n      exp\n      swap1\n      div\n      0xffffffffffffffffffffffffffffffffffffffff\n      and\n      swap1\n      dup1\n      0x01\n      add\n      sload\n      swap1\n      dup1\n      0x02\n      add\n      0x00\n      swap1\n      sload\n      swap1\n      0x0100\n      exp\n      swap1\n      div\n      0xffffffffffffffffffffffffffffffffffffffff\n      and\n      swap1\n      dup1\n      0x03\n      add\n      sload\n      swap1\n      dup1\n      0x04\n      add\n      sload\n      swap1\n      pop\n      dup6\n      jump\t// out\n        /* \"venda_gassless.sol\":517:550  uint256[] public activeListingIds */\n    tag_82:\n      0x03\n      dup2\n      dup2\n      sload\n      dup2\n      lt\n      tag_147\n      jumpi\n      0x00\n      dup1\n      revert\n    tag_147:\n      swap1\n      0x00\n      mstore\n      keccak256(0x00, 0x20)\n      add\n      0x00\n      swap2\n      pop\n      swap1\n      pop\n      sload\n      dup2\n      jump\t// out\n        /* \"venda_gassless.sol\":671:704  address public platformFeeAddress */\n    tag_86:\n      0x07\n      0x00\n      swap1\n      sload\n      swap1\n      0x0100\n      exp\n      swap1\n      div\n      0xffffffffffffffffffffffffffffffffffffffff\n      and\n      dup2\n      jump\t// out\n        /* \"@openzeppelin/contracts/access/Ownable.sol\":2074:2272  function transferOwnership(address newOwner) public virtual onlyOwner {... */\n    tag_91:\n        /* \"@openzeppelin/contracts/access/Ownable.sol\":1094:1107  _checkOwner() */\n      tag_150\n        /* \"@openzeppelin/contracts/access/Ownable.sol\":1094:1105  _checkOwner */\n      tag_142\n        /* \"@openzeppelin/contracts/access/Ownable.sol\":1094:1107  _checkOwner() */\n      jump\t// in\n    tag_150:\n        /* \"@openzeppelin/contracts/access/Ownable.sol\":2182:2183  0 */\n      0x00\n        /* \"@openzeppelin/contracts/access/Ownable.sol\":2162:2184  newOwner != address(0) */\n      0xffffffffffffffffffffffffffffffffffffffff\n      and\n        /* \"@openzeppelin/contracts/access/Ownable.sol\":2162:2170  newOwner */\n      dup2\n        /* \"@openzeppelin/contracts/access/Ownable.sol\":2162:2184  newOwner != address(0) */\n      0xffffffffffffffffffffffffffffffffffffffff\n      and\n      sub\n        /* \"@openzeppelin/contracts/access/Ownable.sol\":2154:2227  require(newOwner != address(0), \"Ownable: new owner is the zero address\") */\n      tag_152\n      jumpi\n      mload(0x40)\n      0x08c379a000000000000000000000000000000000000000000000000000000000\n      dup2\n      mstore\n      0x04\n      add\n      tag_153\n      swap1\n      tag_154\n      jump\t// in\n    tag_153:\n      mload(0x40)\n      dup1\n      swap2\n      sub\n      swap1\n      revert\n    tag_152:\n        /* \"@openzeppelin/contracts/access/Ownable.sol\":2237:2265  _transferOwnership(newOwner) */\n      tag_155\n        /* \"@openzeppelin/contracts/access/Ownable.sol\":2256:2264  newOwner */\n      dup2\n        /* \"@openzeppelin/contracts/access/Ownable.sol\":2237:2255  _transferOwnership */\n      tag_145\n        /* \"@openzeppelin/contracts/access/Ownable.sol\":2237:2265  _transferOwnership(newOwner) */\n      jump\t// in\n    tag_155:\n        /* \"@openzeppelin/contracts/access/Ownable.sol\":2074:2272  function transferOwnership(address newOwner) public virtual onlyOwner {... */\n      pop\n      jump\t// out\n        /* \"@openzeppelin/contracts/security/Pausable.sol\":1767:1873  function _requireNotPaused() internal view virtual {... */\n    tag_94:\n        /* \"@openzeppelin/contracts/security/Pausable.sol\":1837:1845  paused() */\n      tag_157\n        /* \"@openzeppelin/contracts/security/Pausable.sol\":1837:1843  paused */\n      tag_39\n        /* \"@openzeppelin/contracts/security/Pausable.sol\":1837:1845  paused() */\n      jump\t// in\n    tag_157:\n        /* \"@openzeppelin/contracts/security/Pausable.sol\":1836:1845  !paused() */\n      iszero\n        /* \"@openzeppelin/contracts/security/Pausable.sol\":1828:1866  require(!paused(), \"Pausable: paused\") */\n      tag_158\n      jumpi\n      mload(0x40)\n      0x08c379a000000000000000000000000000000000000000000000000000000000\n      dup2\n      mstore\n      0x04\n      add\n      tag_159\n      swap1\n      tag_160\n      jump\t// in\n    tag_159:\n      mload(0x40)\n      dup1\n      swap2\n      sub\n      swap1\n      revert\n    tag_158:\n        /* \"@openzeppelin/contracts/security/Pausable.sol\":1767:1873  function _requireNotPaused() internal view virtual {... */\n      jump\t// out\n        /* \"venda_gassless.sol\":3590:3747  function prefixed(bytes32 hash) internal pure returns (bytes32) {... */\n    tag_134:\n        /* \"venda_gassless.sol\":3645:3652  bytes32 */\n      0x00\n        /* \"venda_gassless.sol\":3734:3738  hash */\n      dup2\n        /* \"venda_gassless.sol\":3681:3739  abi.encodePacked(\"\\x19Ethereum Signed Message:\\n32\", hash) */\n      add(0x20, mload(0x40))\n      tag_162\n      swap2\n      swap1\n      tag_163\n      jump\t// in\n    tag_162:\n      mload(0x40)\n      0x20\n      dup2\n      dup4\n      sub\n      sub\n      dup2\n      mstore\n      swap1\n      0x40\n      mstore\n        /* \"venda_gassless.sol\":3671:3740  keccak256(abi.encodePacked(\"\\x19Ethereum Signed Message:\\n32\", hash)) */\n      dup1\n      mload\n      swap1\n      0x20\n      add\n      keccak256\n        /* \"venda_gassless.sol\":3664:3740  return keccak256(abi.encodePacked(\"\\x19Ethereum Signed Message:\\n32\", hash)) */\n      swap1\n      pop\n        /* \"venda_gassless.sol\":3590:3747  function prefixed(bytes32 hash) internal pure returns (bytes32) {... */\n      swap2\n      swap1\n      pop\n      jump\t// out\n        /* \"@openzeppelin/contracts/access/Ownable.sol\":1359:1489  function _checkOwner() internal view virtual {... */\n    tag_142:\n        /* \"@openzeppelin/contracts/access/Ownable.sol\":1433:1445  _msgSender() */\n      tag_165\n        /* \"@openzeppelin/contracts/access/Ownable.sol\":1433:1443  _msgSender */\n      tag_166\n        /* \"@openzeppelin/contracts/access/Ownable.sol\":1433:1445  _msgSender() */\n      jump\t// in\n    tag_165:\n        /* \"@openzeppelin/contracts/access/Ownable.sol\":1422:1445  owner() == _msgSender() */\n      0xffffffffffffffffffffffffffffffffffffffff\n      and\n        /* \"@openzeppelin/contracts/access/Ownable.sol\":1422:1429  owner() */\n      tag_167\n        /* \"@openzeppelin/contracts/access/Ownable.sol\":1422:1427  owner */\n      tag_57\n        /* \"@openzeppelin/contracts/access/Ownable.sol\":1422:1429  owner() */\n      jump\t// in\n    tag_167:\n        /* \"@openzeppelin/contracts/access/Ownable.sol\":1422:1445  owner() == _msgSender() */\n      0xffffffffffffffffffffffffffffffffffffffff\n      and\n      eq\n        /* \"@openzeppelin/contracts/access/Ownable.sol\":1414:1482  require(owner() == _msgSender(), \"Ownable: caller is not the owner\") */\n      tag_168\n      jumpi\n      mload(0x40)\n      0x08c379a000000000000000000000000000000000000000000000000000000000\n      dup2\n      mstore\n      0x04\n      add\n      tag_169\n      swap1\n      tag_170\n      jump\t// in\n    tag_169:\n      mload(0x40)\n      dup1\n      swap2\n      sub\n      swap1\n      revert\n    tag_168:\n        /* \"@openzeppelin/contracts/access/Ownable.sol\":1359:1489  function _checkOwner() internal view virtual {... */\n      jump\t// out\n        /* \"@openzeppelin/contracts/access/Ownable.sol\":2426:2613  function _transferOwnership(address newOwner) internal virtual {... */\n    tag_145:\n        /* \"@openzeppelin/contracts/access/Ownable.sol\":2499:2515  address oldOwner */\n      0x00\n        /* \"@openzeppelin/contracts/access/Ownable.sol\":2518:2524  _owner */\n      dup1\n      0x00\n      swap1\n      sload\n      swap1\n      0x0100\n      exp\n      swap1\n      div\n      0xffffffffffffffffffffffffffffffffffffffff\n      and\n        /* \"@openzeppelin/contracts/access/Ownable.sol\":2499:2524  address oldOwner = _owner */\n      swap1\n      pop\n        /* \"@openzeppelin/contracts/access/Ownable.sol\":2543:2551  newOwner */\n      dup2\n        /* \"@openzeppelin/contracts/access/Ownable.sol\":2534:2540  _owner */\n      0x00\n      dup1\n        /* \"@openzeppelin/contracts/access/Ownable.sol\":2534:2551  _owner = newOwner */\n      0x0100\n      exp\n      dup2\n      sload\n      dup2\n      0xffffffffffffffffffffffffffffffffffffffff\n      mul\n      not\n      and\n      swap1\n      dup4\n      0xffffffffffffffffffffffffffffffffffffffff\n      and\n      mul\n      or\n      swap1\n      sstore\n      pop\n        /* \"@openzeppelin/contracts/access/Ownable.sol\":2597:2605  newOwner */\n      dup2\n        /* \"@openzeppelin/contracts/access/Ownable.sol\":2566:2606  OwnershipTransferred(oldOwner, newOwner) */\n      0xffffffffffffffffffffffffffffffffffffffff\n      and\n        /* \"@openzeppelin/contracts/access/Ownable.sol\":2587:2595  oldOwner */\n      dup2\n        /* \"@openzeppelin/contracts/access/Ownable.sol\":2566:2606  OwnershipTransferred(oldOwner, newOwner) */\n      0xffffffffffffffffffffffffffffffffffffffff\n      and\n      0x8be0079c531659141344cd1fd0a4f28419497f9722a3daafe3b4186f6b6457e0\n      mload(0x40)\n      mload(0x40)\n      dup1\n      swap2\n      sub\n      swap1\n      log3\n        /* \"@openzeppelin/contracts/access/Ownable.sol\":2489:2613  {... */\n      pop\n        /* \"@openzeppelin/contracts/access/Ownable.sol\":2426:2613  function _transferOwnership(address newOwner) internal virtual {... */\n      pop\n      jump\t// out\n        /* \"@openzeppelin/contracts/utils/Context.sol\":640:736  function _msgSender() internal view virtual returns (address) {... */\n    tag_166:\n        /* \"@openzeppelin/contracts/utils/Context.sol\":693:700  address */\n      0x00\n        /* \"@openzeppelin/contracts/utils/Context.sol\":719:729  msg.sender */\n      caller\n        /* \"@openzeppelin/contracts/utils/Context.sol\":712:729  return msg.sender */\n      swap1\n      pop\n        /* \"@openzeppelin/contracts/utils/Context.sol\":640:736  function _msgSender() internal view virtual returns (address) {... */\n      swap1\n      jump\t// out\n        /* \"#utility.yul\":7:82   */\n    tag_173:\n        /* \"#utility.yul\":40:46   */\n      0x00\n        /* \"#utility.yul\":73:75   */\n      0x40\n        /* \"#utility.yul\":67:76   */\n      mload\n        /* \"#utility.yul\":57:76   */\n      swap1\n      pop\n        /* \"#utility.yul\":7:82   */\n      swap1\n      jump\t// out\n        /* \"#utility.yul\":88:205   */\n    tag_174:\n        /* \"#utility.yul\":197:198   */\n      0x00\n        /* \"#utility.yul\":194:195   */\n      dup1\n        /* \"#utility.yul\":187:199   */\n      revert\n        /* \"#utility.yul\":211:328   */\n    tag_175:\n        /* \"#utility.yul\":320:321   */\n      0x00\n        /* \"#utility.yul\":317:318   */\n      dup1\n        /* \"#utility.yul\":310:322   */\n      revert\n        /* \"#utility.yul\":334:460   */\n    tag_176:\n        /* \"#utility.yul\":371:378   */\n      0x00\n        /* \"#utility.yul\":411:453   */\n      0xffffffffffffffffffffffffffffffffffffffff\n        /* \"#utility.yul\":404:409   */\n      dup3\n        /* \"#utility.yul\":400:454   */\n      and\n        /* \"#utility.yul\":389:454   */\n      swap1\n      pop\n        /* \"#utility.yul\":334:460   */\n      swap2\n      swap1\n      pop\n      jump\t// out\n        /* \"#utility.yul\":466:562   */\n    tag_177:\n        /* \"#utility.yul\":503:510   */\n      0x00\n        /* \"#utility.yul\":532:556   */\n      tag_250\n        /* \"#utility.yul\":550:555   */\n      dup3\n        /* \"#utility.yul\":532:556   */\n      tag_176\n      jump\t// in\n    tag_250:\n        /* \"#utility.yul\":521:556   */\n      swap1\n      pop\n        /* \"#utility.yul\":466:562   */\n      swap2\n      swap1\n      pop\n      jump\t// out\n        /* \"#utility.yul\":568:690   */\n    tag_178:\n        /* \"#utility.yul\":641:665   */\n      tag_252\n        /* \"#utility.yul\":659:664   */\n      dup2\n        /* \"#utility.yul\":641:665   */\n      tag_177\n      jump\t// in\n    tag_252:\n        /* \"#utility.yul\":634:639   */\n      dup2\n        /* \"#utility.yul\":631:666   */\n      eq\n        /* \"#utility.yul\":621:684   */\n      tag_253\n      jumpi\n        /* \"#utility.yul\":680:681   */\n      0x00\n        /* \"#utility.yul\":677:678   */\n      dup1\n        /* \"#utility.yul\":670:682   */\n      revert\n        /* \"#utility.yul\":621:684   */\n    tag_253:\n        /* \"#utility.yul\":568:690   */\n      pop\n      jump\t// out\n        /* \"#utility.yul\":696:835   */\n    tag_179:\n        /* \"#utility.yul\":742:747   */\n      0x00\n        /* \"#utility.yul\":780:786   */\n      dup2\n        /* \"#utility.yul\":767:787   */\n      calldataload\n        /* \"#utility.yul\":758:787   */\n      swap1\n      pop\n        /* \"#utility.yul\":796:829   */\n      tag_255\n        /* \"#utility.yul\":823:828   */\n      dup2\n        /* \"#utility.yul\":796:829   */\n      tag_178\n      jump\t// in\n    tag_255:\n        /* \"#utility.yul\":696:835   */\n      swap3\n      swap2\n      pop\n      pop\n      jump\t// out\n        /* \"#utility.yul\":841:918   */\n    tag_180:\n        /* \"#utility.yul\":878:885   */\n      0x00\n        /* \"#utility.yul\":907:912   */\n      dup2\n        /* \"#utility.yul\":896:912   */\n      swap1\n      pop\n        /* \"#utility.yul\":841:918   */\n      swap2\n      swap1\n      pop\n      jump\t// out\n        /* \"#utility.yul\":924:1046   */\n    tag_181:\n        /* \"#utility.yul\":997:1021   */\n      tag_258\n        /* \"#utility.yul\":1015:1020   */\n      dup2\n        /* \"#utility.yul\":997:1021   */\n      tag_180\n      jump\t// in\n    tag_258:\n        /* \"#utility.yul\":990:995   */\n      dup2\n        /* \"#utility.yul\":987:1022   */\n      eq\n        /* \"#utility.yul\":977:1040   */\n      tag_259\n      jumpi\n        /* \"#utility.yul\":1036:1037   */\n      0x00\n        /* \"#utility.yul\":1033:1034   */\n      dup1\n        /* \"#utility.yul\":1026:1038   */\n      revert\n        /* \"#utility.yul\":977:1040   */\n    tag_259:\n        /* \"#utility.yul\":924:1046   */\n      pop\n      jump\t// out\n        /* \"#utility.yul\":1052:1191   */\n    tag_182:\n        /* \"#utility.yul\":1098:1103   */\n      0x00\n        /* \"#utility.yul\":1136:1142   */\n      dup2\n        /* \"#utility.yul\":1123:1143   */\n      calldataload\n        /* \"#utility.yul\":1114:1143   */\n      swap1\n      pop\n        /* \"#utility.yul\":1152:1185   */\n      tag_261\n        /* \"#utility.yul\":1179:1184   */\n      dup2\n        /* \"#utility.yul\":1152:1185   */\n      tag_181\n      jump\t// in\n    tag_261:\n        /* \"#utility.yul\":1052:1191   */\n      swap3\n      swap2\n      pop\n      pop\n      jump\t// out\n        /* \"#utility.yul\":1197:2108   */\n    tag_23:\n        /* \"#utility.yul\":1292:1298   */\n      0x00\n        /* \"#utility.yul\":1300:1306   */\n      dup1\n        /* \"#utility.yul\":1308:1314   */\n      0x00\n        /* \"#utility.yul\":1316:1322   */\n      dup1\n        /* \"#utility.yul\":1324:1330   */\n      0x00\n        /* \"#utility.yul\":1373:1376   */\n      0xa0\n        /* \"#utility.yul\":1361:1370   */\n      dup7\n        /* \"#utility.yul\":1352:1359   */\n      dup9\n        /* \"#utility.yul\":1348:1371   */\n      sub\n        /* \"#utility.yul\":1344:1377   */\n      slt\n        /* \"#utility.yul\":1341:1461   */\n      iszero\n      tag_263\n      jumpi\n        /* \"#utility.yul\":1380:1459   */\n      tag_264\n      tag_174\n      jump\t// in\n    tag_264:\n        /* \"#utility.yul\":1341:1461   */\n    tag_263:\n        /* \"#utility.yul\":1500:1501   */\n      0x00\n        /* \"#utility.yul\":1525:1578   */\n      tag_265\n        /* \"#utility.yul\":1570:1577   */\n      dup9\n        /* \"#utility.yul\":1561:1567   */\n      dup3\n        /* \"#utility.yul\":1550:1559   */\n      dup10\n        /* \"#utility.yul\":1546:1568   */\n      add\n        /* \"#utility.yul\":1525:1578   */\n      tag_179\n      jump\t// in\n    tag_265:\n        /* \"#utility.yul\":1515:1578   */\n      swap6\n      pop\n        /* \"#utility.yul\":1471:1588   */\n      pop\n        /* \"#utility.yul\":1627:1629   */\n      0x20\n        /* \"#utility.yul\":1653:1706   */\n      tag_266\n        /* \"#utility.yul\":1698:1705   */\n      dup9\n        /* \"#utility.yul\":1689:1695   */\n      dup3\n        /* \"#utility.yul\":1678:1687   */\n      dup10\n        /* \"#utility.yul\":1674:1696   */\n      add\n        /* \"#utility.yul\":1653:1706   */\n      tag_182\n      jump\t// in\n    tag_266:\n        /* \"#utility.yul\":1643:1706   */\n      swap5\n      pop\n        /* \"#utility.yul\":1598:1716   */\n      pop\n        /* \"#utility.yul\":1755:1757   */\n      0x40\n        /* \"#utility.yul\":1781:1834   */\n      tag_267\n        /* \"#utility.yul\":1826:1833   */\n      dup9\n        /* \"#utility.yul\":1817:1823   */\n      dup3\n        /* \"#utility.yul\":1806:1815   */\n      dup10\n        /* \"#utility.yul\":1802:1824   */\n      add\n        /* \"#utility.yul\":1781:1834   */\n      tag_182\n      jump\t// in\n    tag_267:\n        /* \"#utility.yul\":1771:1834   */\n      swap4\n      pop\n        /* \"#utility.yul\":1726:1844   */\n      pop\n        /* \"#utility.yul\":1883:1885   */\n      0x60\n        /* \"#utility.yul\":1909:1962   */\n      tag_268\n        /* \"#utility.yul\":1954:1961   */\n      dup9\n        /* \"#utility.yul\":1945:1951   */\n      dup3\n        /* \"#utility.yul\":1934:1943   */\n      dup10\n        /* \"#utility.yul\":1930:1952   */\n      add\n        /* \"#utility.yul\":1909:1962   */\n      tag_182\n      jump\t// in\n    tag_268:\n        /* \"#utility.yul\":1899:1962   */\n      swap3\n      pop\n        /* \"#utility.yul\":1854:1972   */\n      pop\n        /* \"#utility.yul\":2011:2014   */\n      0x80\n        /* \"#utility.yul\":2038:2091   */\n      tag_269\n        /* \"#utility.yul\":2083:2090   */\n      dup9\n        /* \"#utility.yul\":2074:2080   */\n      dup3\n        /* \"#utility.yul\":2063:2072   */\n      dup10\n        /* \"#utility.yul\":2059:2081   */\n      add\n        /* \"#utility.yul\":2038:2091   */\n      tag_179\n      jump\t// in\n    tag_269:\n        /* \"#utility.yul\":2028:2091   */\n      swap2\n      pop\n        /* \"#utility.yul\":1982:2101   */\n      pop\n        /* \"#utility.yul\":1197:2108   */\n      swap3\n      swap6\n      pop\n      swap3\n      swap6\n      swap1\n      swap4\n      pop\n      jump\t// out\n        /* \"#utility.yul\":2114:2231   */\n    tag_183:\n        /* \"#utility.yul\":2223:2224   */\n      0x00\n        /* \"#utility.yul\":2220:2221   */\n      dup1\n        /* \"#utility.yul\":2213:2225   */\n      revert\n        /* \"#utility.yul\":2237:2354   */\n    tag_184:\n        /* \"#utility.yul\":2346:2347   */\n      0x00\n        /* \"#utility.yul\":2343:2344   */\n      dup1\n        /* \"#utility.yul\":2336:2348   */\n      revert\n        /* \"#utility.yul\":2360:2462   */\n    tag_185:\n        /* \"#utility.yul\":2401:2407   */\n      0x00\n        /* \"#utility.yul\":2452:2454   */\n      0x1f\n        /* \"#utility.yul\":2448:2455   */\n      not\n        /* \"#utility.yul\":2443:2445   */\n      0x1f\n        /* \"#utility.yul\":2436:2441   */\n      dup4\n        /* \"#utility.yul\":2432:2446   */\n      add\n        /* \"#utility.yul\":2428:2456   */\n      and\n        /* \"#utility.yul\":2418:2456   */\n      swap1\n      pop\n        /* \"#utility.yul\":2360:2462   */\n      swap2\n      swap1\n      pop\n      jump\t// out\n        /* \"#utility.yul\":2468:2648   */\n    tag_186:\n        /* \"#utility.yul\":2516:2593   */\n      0x4e487b7100000000000000000000000000000000000000000000000000000000\n        /* \"#utility.yul\":2513:2514   */\n      0x00\n        /* \"#utility.yul\":2506:2594   */\n      mstore\n        /* \"#utility.yul\":2613:2617   */\n      0x41\n        /* \"#utility.yul\":2610:2611   */\n      0x04\n        /* \"#utility.yul\":2603:2618   */\n      mstore\n        /* \"#utility.yul\":2637:2641   */\n      0x24\n        /* \"#utility.yul\":2634:2635   */\n      0x00\n        /* \"#utility.yul\":2627:2642   */\n      revert\n        /* \"#utility.yul\":2654:2935   */\n    tag_187:\n        /* \"#utility.yul\":2737:2764   */\n      tag_275\n        /* \"#utility.yul\":2759:2763   */\n      dup3\n        /* \"#utility.yul\":2737:2764   */\n      tag_185\n      jump\t// in\n    tag_275:\n        /* \"#utility.yul\":2729:2735   */\n      dup2\n        /* \"#utility.yul\":2725:2765   */\n      add\n        /* \"#utility.yul\":2867:2873   */\n      dup2\n        /* \"#utility.yul\":2855:2865   */\n      dup2\n        /* \"#utility.yul\":2852:2874   */\n      lt\n        /* \"#utility.yul\":2831:2849   */\n      0xffffffffffffffff\n        /* \"#utility.yul\":2819:2829   */\n      dup3\n        /* \"#utility.yul\":2816:2850   */\n      gt\n        /* \"#utility.yul\":2813:2875   */\n      or\n        /* \"#utility.yul\":2810:2898   */\n      iszero\n      tag_276\n      jumpi\n        /* \"#utility.yul\":2878:2896   */\n      tag_277\n      tag_186\n      jump\t// in\n    tag_277:\n        /* \"#utility.yul\":2810:2898   */\n    tag_276:\n        /* \"#utility.yul\":2918:2928   */\n      dup1\n        /* \"#utility.yul\":2914:2916   */\n      0x40\n        /* \"#utility.yul\":2907:2929   */\n      mstore\n        /* \"#utility.yul\":2697:2935   */\n      pop\n        /* \"#utility.yul\":2654:2935   */\n      pop\n      pop\n      jump\t// out\n        /* \"#utility.yul\":2941:3070   */\n    tag_188:\n        /* \"#utility.yul\":2975:2981   */\n      0x00\n        /* \"#utility.yul\":3002:3022   */\n      tag_279\n      tag_173\n      jump\t// in\n    tag_279:\n        /* \"#utility.yul\":2992:3022   */\n      swap1\n      pop\n        /* \"#utility.yul\":3031:3064   */\n      tag_280\n        /* \"#utility.yul\":3059:3063   */\n      dup3\n        /* \"#utility.yul\":3051:3057   */\n      dup3\n        /* \"#utility.yul\":3031:3064   */\n      tag_187\n      jump\t// in\n    tag_280:\n        /* \"#utility.yul\":2941:3070   */\n      swap2\n      swap1\n      pop\n      jump\t// out\n        /* \"#utility.yul\":3076:3383   */\n    tag_189:\n        /* \"#utility.yul\":3137:3141   */\n      0x00\n        /* \"#utility.yul\":3227:3245   */\n      0xffffffffffffffff\n        /* \"#utility.yul\":3219:3225   */\n      dup3\n        /* \"#utility.yul\":3216:3246   */\n      gt\n        /* \"#utility.yul\":3213:3269   */\n      iszero\n      tag_282\n      jumpi\n        /* \"#utility.yul\":3249:3267   */\n      tag_283\n      tag_186\n      jump\t// in\n    tag_283:\n        /* \"#utility.yul\":3213:3269   */\n    tag_282:\n        /* \"#utility.yul\":3287:3316   */\n      tag_284\n        /* \"#utility.yul\":3309:3315   */\n      dup3\n        /* \"#utility.yul\":3287:3316   */\n      tag_185\n      jump\t// in\n    tag_284:\n        /* \"#utility.yul\":3279:3316   */\n      swap1\n      pop\n        /* \"#utility.yul\":3371:3375   */\n      0x20\n        /* \"#utility.yul\":3365:3369   */\n      dup2\n        /* \"#utility.yul\":3361:3376   */\n      add\n        /* \"#utility.yul\":3353:3376   */\n      swap1\n      pop\n        /* \"#utility.yul\":3076:3383   */\n      swap2\n      swap1\n      pop\n      jump\t// out\n        /* \"#utility.yul\":3389:3535   */\n    tag_190:\n        /* \"#utility.yul\":3486:3492   */\n      dup3\n        /* \"#utility.yul\":3481:3484   */\n      dup2\n        /* \"#utility.yul\":3476:3479   */\n      dup4\n        /* \"#utility.yul\":3463:3493   */\n      calldatacopy\n        /* \"#utility.yul\":3527:3528   */\n      0x00\n        /* \"#utility.yul\":3518:3524   */\n      dup4\n        /* \"#utility.yul\":3513:3516   */\n      dup4\n        /* \"#utility.yul\":3509:3525   */\n      add\n        /* \"#utility.yul\":3502:3529   */\n      mstore\n        /* \"#utility.yul\":3389:3535   */\n      pop\n      pop\n      pop\n      jump\t// out\n        /* \"#utility.yul\":3541:3964   */\n    tag_191:\n        /* \"#utility.yul\":3618:3623   */\n      0x00\n        /* \"#utility.yul\":3643:3708   */\n      tag_287\n        /* \"#utility.yul\":3659:3707   */\n      tag_288\n        /* \"#utility.yul\":3700:3706   */\n      dup5\n        /* \"#utility.yul\":3659:3707   */\n      tag_189\n      jump\t// in\n    tag_288:\n        /* \"#utility.yul\":3643:3708   */\n      tag_188\n      jump\t// in\n    tag_287:\n        /* \"#utility.yul\":3634:3708   */\n      swap1\n      pop\n        /* \"#utility.yul\":3731:3737   */\n      dup3\n        /* \"#utility.yul\":3724:3729   */\n      dup2\n        /* \"#utility.yul\":3717:3738   */\n      mstore\n        /* \"#utility.yul\":3769:3773   */\n      0x20\n        /* \"#utility.yul\":3762:3767   */\n      dup2\n        /* \"#utility.yul\":3758:3774   */\n      add\n        /* \"#utility.yul\":3807:3810   */\n      dup5\n        /* \"#utility.yul\":3798:3804   */\n      dup5\n        /* \"#utility.yul\":3793:3796   */\n      dup5\n        /* \"#utility.yul\":3789:3805   */\n      add\n        /* \"#utility.yul\":3786:3811   */\n      gt\n        /* \"#utility.yul\":3783:3895   */\n      iszero\n      tag_289\n      jumpi\n        /* \"#utility.yul\":3814:3893   */\n      tag_290\n      tag_184\n      jump\t// in\n    tag_290:\n        /* \"#utility.yul\":3783:3895   */\n    tag_289:\n        /* \"#utility.yul\":3904:3958   */\n      tag_291\n        /* \"#utility.yul\":3951:3957   */\n      dup5\n        /* \"#utility.yul\":3946:3949   */\n      dup3\n        /* \"#utility.yul\":3941:3944   */\n      dup6\n        /* \"#utility.yul\":3904:3958   */\n      tag_190\n      jump\t// in\n    tag_291:\n        /* \"#utility.yul\":3624:3964   */\n      pop\n        /* \"#utility.yul\":3541:3964   */\n      swap4\n      swap3\n      pop\n      pop\n      pop\n      jump\t// out\n        /* \"#utility.yul\":3983:4321   */\n    tag_192:\n        /* \"#utility.yul\":4038:4043   */\n      0x00\n        /* \"#utility.yul\":4087:4090   */\n      dup3\n        /* \"#utility.yul\":4080:4084   */\n      0x1f\n        /* \"#utility.yul\":4072:4078   */\n      dup4\n        /* \"#utility.yul\":4068:4085   */\n      add\n        /* \"#utility.yul\":4064:4091   */\n      slt\n        /* \"#utility.yul\":4054:4176   */\n      tag_293\n      jumpi\n        /* \"#utility.yul\":4095:4174   */\n      tag_294\n      tag_183\n      jump\t// in\n    tag_294:\n        /* \"#utility.yul\":4054:4176   */\n    tag_293:\n        /* \"#utility.yul\":4212:4218   */\n      dup2\n        /* \"#utility.yul\":4199:4219   */\n      calldataload\n        /* \"#utility.yul\":4237:4315   */\n      tag_295\n        /* \"#utility.yul\":4311:4314   */\n      dup5\n        /* \"#utility.yul\":4303:4309   */\n      dup3\n        /* \"#utility.yul\":4296:4300   */\n      0x20\n        /* \"#utility.yul\":4288:4294   */\n      dup7\n        /* \"#utility.yul\":4284:4301   */\n      add\n        /* \"#utility.yul\":4237:4315   */\n      tag_191\n      jump\t// in\n    tag_295:\n        /* \"#utility.yul\":4228:4315   */\n      swap2\n      pop\n        /* \"#utility.yul\":4044:4321   */\n      pop\n        /* \"#utility.yul\":3983:4321   */\n      swap3\n      swap2\n      pop\n      pop\n      jump\t// out\n        /* \"#utility.yul\":4327:4404   */\n    tag_193:\n        /* \"#utility.yul\":4364:4371   */\n      0x00\n        /* \"#utility.yul\":4393:4398   */\n      dup2\n        /* \"#utility.yul\":4382:4398   */\n      swap1\n      pop\n        /* \"#utility.yul\":4327:4404   */\n      swap2\n      swap1\n      pop\n      jump\t// out\n        /* \"#utility.yul\":4410:4532   */\n    tag_194:\n        /* \"#utility.yul\":4483:4507   */\n      tag_298\n        /* \"#utility.yul\":4501:4506   */\n      dup2\n        /* \"#utility.yul\":4483:4507   */\n      tag_193\n      jump\t// in\n    tag_298:\n        /* \"#utility.yul\":4476:4481   */\n      dup2\n        /* \"#utility.yul\":4473:4508   */\n      eq\n        /* \"#utility.yul\":4463:4526   */\n      tag_299\n      jumpi\n        /* \"#utility.yul\":4522:4523   */\n      0x00\n        /* \"#utility.yul\":4519:4520   */\n      dup1\n        /* \"#utility.yul\":4512:4524   */\n      revert\n        /* \"#utility.yul\":4463:4526   */\n    tag_299:\n        /* \"#utility.yul\":4410:4532   */\n      pop\n      jump\t// out\n        /* \"#utility.yul\":4538:4677   */\n    tag_195:\n        /* \"#utility.yul\":4584:4589   */\n      0x00\n        /* \"#utility.yul\":4622:4628   */\n      dup2\n        /* \"#utility.yul\":4609:4629   */\n      calldataload\n        /* \"#utility.yul\":4600:4629   */\n      swap1\n      pop\n        /* \"#utility.yul\":4638:4671   */\n      tag_301\n        /* \"#utility.yul\":4665:4670   */\n      dup2\n        /* \"#utility.yul\":4638:4671   */\n      tag_194\n      jump\t// in\n    tag_301:\n        /* \"#utility.yul\":4538:4677   */\n      swap3\n      swap2\n      pop\n      pop\n      jump\t// out\n        /* \"#utility.yul\":4683:4769   */\n    tag_196:\n        /* \"#utility.yul\":4718:4725   */\n      0x00\n        /* \"#utility.yul\":4758:4762   */\n      0xff\n        /* \"#utility.yul\":4751:4756   */\n      dup3\n        /* \"#utility.yul\":4747:4763   */\n      and\n        /* \"#utility.yul\":4736:4763   */\n      swap1\n      pop\n        /* \"#utility.yul\":4683:4769   */\n      swap2\n      swap1\n      pop\n      jump\t// out\n        /* \"#utility.yul\":4775:4893   */\n    tag_197:\n        /* \"#utility.yul\":4846:4868   */\n      tag_304\n        /* \"#utility.yul\":4862:4867   */\n      dup2\n        /* \"#utility.yul\":4846:4868   */\n      tag_196\n      jump\t// in\n    tag_304:\n        /* \"#utility.yul\":4839:4844   */\n      dup2\n        /* \"#utility.yul\":4836:4869   */\n      eq\n        /* \"#utility.yul\":4826:4887   */\n      tag_305\n      jumpi\n        /* \"#utility.yul\":4883:4884   */\n      0x00\n        /* \"#utility.yul\":4880:4881   */\n      dup1\n        /* \"#utility.yul\":4873:4885   */\n      revert\n        /* \"#utility.yul\":4826:4887   */\n    tag_305:\n        /* \"#utility.yul\":4775:4893   */\n      pop\n      jump\t// out\n        /* \"#utility.yul\":4899:5034   */\n    tag_198:\n        /* \"#utility.yul\":4943:4948   */\n      0x00\n        /* \"#utility.yul\":4981:4987   */\n      dup2\n        /* \"#utility.yul\":4968:4988   */\n      calldataload\n        /* \"#utility.yul\":4959:4988   */\n      swap1\n      pop\n        /* \"#utility.yul\":4997:5028   */\n      tag_307\n        /* \"#utility.yul\":5022:5027   */\n      dup2\n        /* \"#utility.yul\":4997:5028   */\n      tag_197\n      jump\t// in\n    tag_307:\n        /* \"#utility.yul\":4899:5034   */\n      swap3\n      swap2\n      pop\n      pop\n      jump\t// out\n        /* \"#utility.yul\":5040:6125   */\n    tag_27:\n        /* \"#utility.yul\":5142:5148   */\n      0x00\n        /* \"#utility.yul\":5150:5156   */\n      dup1\n        /* \"#utility.yul\":5158:5164   */\n      0x00\n        /* \"#utility.yul\":5166:5172   */\n      dup1\n        /* \"#utility.yul\":5174:5180   */\n      0x00\n        /* \"#utility.yul\":5223:5226   */\n      0xa0\n        /* \"#utility.yul\":5211:5220   */\n      dup7\n        /* \"#utility.yul\":5202:5209   */\n      dup9\n        /* \"#utility.yul\":5198:5221   */\n      sub\n        /* \"#utility.yul\":5194:5227   */\n      slt\n        /* \"#utility.yul\":5191:5311   */\n      iszero\n      tag_309\n      jumpi\n        /* \"#utility.yul\":5230:5309   */\n      tag_310\n      tag_174\n      jump\t// in\n    tag_310:\n        /* \"#utility.yul\":5191:5311   */\n    tag_309:\n        /* \"#utility.yul\":5350:5351   */\n      0x00\n        /* \"#utility.yul\":5375:5428   */\n      tag_311\n        /* \"#utility.yul\":5420:5427   */\n      dup9\n        /* \"#utility.yul\":5411:5417   */\n      dup3\n        /* \"#utility.yul\":5400:5409   */\n      dup10\n        /* \"#utility.yul\":5396:5418   */\n      add\n        /* \"#utility.yul\":5375:5428   */\n      tag_179\n      jump\t// in\n    tag_311:\n        /* \"#utility.yul\":5365:5428   */\n      swap6\n      pop\n        /* \"#utility.yul\":5321:5438   */\n      pop\n        /* \"#utility.yul\":5505:5507   */\n      0x20\n        /* \"#utility.yul\":5494:5503   */\n      dup7\n        /* \"#utility.yul\":5490:5508   */\n      add\n        /* \"#utility.yul\":5477:5509   */\n      calldataload\n        /* \"#utility.yul\":5536:5554   */\n      0xffffffffffffffff\n        /* \"#utility.yul\":5528:5534   */\n      dup2\n        /* \"#utility.yul\":5525:5555   */\n      gt\n        /* \"#utility.yul\":5522:5639   */\n      iszero\n      tag_312\n      jumpi\n        /* \"#utility.yul\":5558:5637   */\n      tag_313\n      tag_175\n      jump\t// in\n    tag_313:\n        /* \"#utility.yul\":5522:5639   */\n    tag_312:\n        /* \"#utility.yul\":5663:5725   */\n      tag_314\n        /* \"#utility.yul\":5717:5724   */\n      dup9\n        /* \"#utility.yul\":5708:5714   */\n      dup3\n        /* \"#utility.yul\":5697:5706   */\n      dup10\n        /* \"#utility.yul\":5693:5715   */\n      add\n        /* \"#utility.yul\":5663:5725   */\n      tag_192\n      jump\t// in\n    tag_314:\n        /* \"#utility.yul\":5653:5725   */\n      swap5\n      pop\n        /* \"#utility.yul\":5448:5735   */\n      pop\n        /* \"#utility.yul\":5774:5776   */\n      0x40\n        /* \"#utility.yul\":5800:5853   */\n      tag_315\n        /* \"#utility.yul\":5845:5852   */\n      dup9\n        /* \"#utility.yul\":5836:5842   */\n      dup3\n        /* \"#utility.yul\":5825:5834   */\n      dup10\n        /* \"#utility.yul\":5821:5843   */\n      add\n        /* \"#utility.yul\":5800:5853   */\n      tag_195\n      jump\t// in\n    tag_315:\n        /* \"#utility.yul\":5790:5853   */\n      swap4\n      pop\n        /* \"#utility.yul\":5745:5863   */\n      pop\n        /* \"#utility.yul\":5902:5904   */\n      0x60\n        /* \"#utility.yul\":5928:5981   */\n      tag_316\n        /* \"#utility.yul\":5973:5980   */\n      dup9\n        /* \"#utility.yul\":5964:5970   */\n      dup3\n        /* \"#utility.yul\":5953:5962   */\n      dup10\n        /* \"#utility.yul\":5949:5971   */\n      add\n        /* \"#utility.yul\":5928:5981   */\n      tag_195\n      jump\t// in\n    tag_316:\n        /* \"#utility.yul\":5918:5981   */\n      swap3\n      pop\n        /* \"#utility.yul\":5873:5991   */\n      pop\n        /* \"#utility.yul\":6030:6033   */\n      0x80\n        /* \"#utility.yul\":6057:6108   */\n      tag_317\n        /* \"#utility.yul\":6100:6107   */\n      dup9\n        /* \"#utility.yul\":6091:6097   */\n      dup3\n        /* \"#utility.yul\":6080:6089   */\n      dup10\n        /* \"#utility.yul\":6076:6098   */\n      add\n        /* \"#utility.yul\":6057:6108   */\n      tag_198\n      jump\t// in\n    tag_317:\n        /* \"#utility.yul\":6047:6108   */\n      swap2\n      pop\n        /* \"#utility.yul\":6001:6118   */\n      pop\n        /* \"#utility.yul\":5040:6125   */\n      swap3\n      swap6\n      pop\n      swap3\n      swap6\n      swap1\n      swap4\n      pop\n      jump\t// out\n        /* \"#utility.yul\":6131:6229   */\n    tag_199:\n        /* \"#utility.yul\":6182:6188   */\n      0x00\n        /* \"#utility.yul\":6216:6221   */\n      dup2\n        /* \"#utility.yul\":6210:6222   */\n      mload\n        /* \"#utility.yul\":6200:6222   */\n      swap1\n      pop\n        /* \"#utility.yul\":6131:6229   */\n      swap2\n      swap1\n      pop\n      jump\t// out\n        /* \"#utility.yul\":6235:6403   */\n    tag_200:\n        /* \"#utility.yul\":6318:6329   */\n      0x00\n        /* \"#utility.yul\":6352:6358   */\n      dup3\n        /* \"#utility.yul\":6347:6350   */\n      dup3\n        /* \"#utility.yul\":6340:6359   */\n      mstore\n        /* \"#utility.yul\":6392:6396   */\n      0x20\n        /* \"#utility.yul\":6387:6390   */\n      dup3\n        /* \"#utility.yul\":6383:6397   */\n      add\n        /* \"#utility.yul\":6368:6397   */\n      swap1\n      pop\n        /* \"#utility.yul\":6235:6403   */\n      swap3\n      swap2\n      pop\n      pop\n      jump\t// out\n        /* \"#utility.yul\":6409:6655   */\n    tag_201:\n        /* \"#utility.yul\":6490:6491   */\n      0x00\n        /* \"#utility.yul\":6500:6613   */\n    tag_321:\n        /* \"#utility.yul\":6514:6520   */\n      dup4\n        /* \"#utility.yul\":6511:6512   */\n      dup2\n        /* \"#utility.yul\":6508:6521   */\n      lt\n        /* \"#utility.yul\":6500:6613   */\n      iszero\n      tag_323\n      jumpi\n        /* \"#utility.yul\":6599:6600   */\n      dup1\n        /* \"#utility.yul\":6594:6597   */\n      dup3\n        /* \"#utility.yul\":6590:6601   */\n      add\n        /* \"#utility.yul\":6584:6602   */\n      mload\n        /* \"#utility.yul\":6580:6581   */\n      dup2\n        /* \"#utility.yul\":6575:6578   */\n      dup5\n        /* \"#utility.yul\":6571:6582   */\n      add\n        /* \"#utility.yul\":6564:6603   */\n      mstore\n        /* \"#utility.yul\":6536:6538   */\n      0x20\n        /* \"#utility.yul\":6533:6534   */\n      dup2\n        /* \"#utility.yul\":6529:6539   */\n      add\n        /* \"#utility.yul\":6524:6539   */\n      swap1\n      pop\n        /* \"#utility.yul\":6500:6613   */\n      jump(tag_321)\n    tag_323:\n        /* \"#utility.yul\":6647:6648   */\n      0x00\n        /* \"#utility.yul\":6638:6644   */\n      dup5\n        /* \"#utility.yul\":6633:6636   */\n      dup5\n        /* \"#utility.yul\":6629:6645   */\n      add\n        /* \"#utility.yul\":6622:6649   */\n      mstore\n        /* \"#utility.yul\":6471:6655   */\n      pop\n        /* \"#utility.yul\":6409:6655   */\n      pop\n      pop\n      pop\n      jump\t// out\n        /* \"#utility.yul\":6661:7034   */\n    tag_202:\n        /* \"#utility.yul\":6747:6750   */\n      0x00\n        /* \"#utility.yul\":6775:6813   */\n      tag_325\n        /* \"#utility.yul\":6807:6812   */\n      dup3\n        /* \"#utility.yul\":6775:6813   */\n      tag_199\n      jump\t// in\n    tag_325:\n        /* \"#utility.yul\":6829:6899   */\n      tag_326\n        /* \"#utility.yul\":6892:6898   */\n      dup2\n        /* \"#utility.yul\":6887:6890   */\n      dup6\n        /* \"#utility.yul\":6829:6899   */\n      tag_200\n      jump\t// in\n    tag_326:\n        /* \"#utility.yul\":6822:6899   */\n      swap4\n      pop\n        /* \"#utility.yul\":6908:6973   */\n      tag_327\n        /* \"#utility.yul\":6966:6972   */\n      dup2\n        /* \"#utility.yul\":6961:6964   */\n      dup6\n        /* \"#utility.yul\":6954:6958   */\n      0x20\n        /* \"#utility.yul\":6947:6952   */\n      dup7\n        /* \"#utility.yul\":6943:6959   */\n      add\n        /* \"#utility.yul\":6908:6973   */\n      tag_201\n      jump\t// in\n    tag_327:\n        /* \"#utility.yul\":6998:7027   */\n      tag_328\n        /* \"#utility.yul\":7020:7026   */\n      dup2\n        /* \"#utility.yul\":6998:7027   */\n      tag_185\n      jump\t// in\n    tag_328:\n        /* \"#utility.yul\":6993:6996   */\n      dup5\n        /* \"#utility.yul\":6989:7028   */\n      add\n        /* \"#utility.yul\":6982:7028   */\n      swap2\n      pop\n        /* \"#utility.yul\":6751:7034   */\n      pop\n        /* \"#utility.yul\":6661:7034   */\n      swap3\n      swap2\n      pop\n      pop\n      jump\t// out\n        /* \"#utility.yul\":7040:7349   */\n    tag_30:\n        /* \"#utility.yul\":7151:7155   */\n      0x00\n        /* \"#utility.yul\":7189:7191   */\n      0x20\n        /* \"#utility.yul\":7178:7187   */\n      dup3\n        /* \"#utility.yul\":7174:7192   */\n      add\n        /* \"#utility.yul\":7166:7192   */\n      swap1\n      pop\n        /* \"#utility.yul\":7238:7247   */\n      dup2\n        /* \"#utility.yul\":7232:7236   */\n      dup2\n        /* \"#utility.yul\":7228:7248   */\n      sub\n        /* \"#utility.yul\":7224:7225   */\n      0x00\n        /* \"#utility.yul\":7213:7222   */\n      dup4\n        /* \"#utility.yul\":7209:7226   */\n      add\n        /* \"#utility.yul\":7202:7249   */\n      mstore\n        /* \"#utility.yul\":7266:7342   */\n      tag_330\n        /* \"#utility.yul\":7337:7341   */\n      dup2\n        /* \"#utility.yul\":7328:7334   */\n      dup5\n        /* \"#utility.yul\":7266:7342   */\n      tag_202\n      jump\t// in\n    tag_330:\n        /* \"#utility.yul\":7258:7342   */\n      swap1\n      pop\n        /* \"#utility.yul\":7040:7349   */\n      swap3\n      swap2\n      pop\n      pop\n      jump\t// out\n        /* \"#utility.yul\":7355:7445   */\n    tag_203:\n        /* \"#utility.yul\":7389:7396   */\n      0x00\n        /* \"#utility.yul\":7432:7437   */\n      dup2\n        /* \"#utility.yul\":7425:7438   */\n      iszero\n        /* \"#utility.yul\":7418:7439   */\n      iszero\n        /* \"#utility.yul\":7407:7439   */\n      swap1\n      pop\n        /* \"#utility.yul\":7355:7445   */\n      swap2\n      swap1\n      pop\n      jump\t// out\n        /* \"#utility.yul\":7451:7560   */\n    tag_204:\n        /* \"#utility.yul\":7532:7553   */\n      tag_333\n        /* \"#utility.yul\":7547:7552   */\n      dup2\n        /* \"#utility.yul\":7532:7553   */\n      tag_203\n      jump\t// in\n    tag_333:\n        /* \"#utility.yul\":7527:7530   */\n      dup3\n        /* \"#utility.yul\":7520:7554   */\n      mstore\n        /* \"#utility.yul\":7451:7560   */\n      pop\n      pop\n      jump\t// out\n        /* \"#utility.yul\":7566:7776   */\n    tag_36:\n        /* \"#utility.yul\":7653:7657   */\n      0x00\n        /* \"#utility.yul\":7691:7693   */\n      0x20\n        /* \"#utility.yul\":7680:7689   */\n      dup3\n        /* \"#utility.yul\":7676:7694   */\n      add\n        /* \"#utility.yul\":7668:7694   */\n      swap1\n      pop\n        /* \"#utility.yul\":7704:7769   */\n      tag_335\n        /* \"#utility.yul\":7766:7767   */\n      0x00\n        /* \"#utility.yul\":7755:7764   */\n      dup4\n        /* \"#utility.yul\":7751:7768   */\n      add\n        /* \"#utility.yul\":7742:7748   */\n      dup5\n        /* \"#utility.yul\":7704:7769   */\n      tag_204\n      jump\t// in\n    tag_335:\n        /* \"#utility.yul\":7566:7776   */\n      swap3\n      swap2\n      pop\n      pop\n      jump\t// out\n        /* \"#utility.yul\":7782:8111   */\n    tag_47:\n        /* \"#utility.yul\":7841:7847   */\n      0x00\n        /* \"#utility.yul\":7890:7892   */\n      0x20\n        /* \"#utility.yul\":7878:7887   */\n      dup3\n        /* \"#utility.yul\":7869:7876   */\n      dup5\n        /* \"#utility.yul\":7865:7888   */\n      sub\n        /* \"#utility.yul\":7861:7893   */\n      slt\n        /* \"#utility.yul\":7858:7977   */\n      iszero\n      tag_337\n      jumpi\n        /* \"#utility.yul\":7896:7975   */\n      tag_338\n      tag_174\n      jump\t// in\n    tag_338:\n        /* \"#utility.yul\":7858:7977   */\n    tag_337:\n        /* \"#utility.yul\":8016:8017   */\n      0x00\n        /* \"#utility.yul\":8041:8094   */\n      tag_339\n        /* \"#utility.yul\":8086:8093   */\n      dup5\n        /* \"#utility.yul\":8077:8083   */\n      dup3\n        /* \"#utility.yul\":8066:8075   */\n      dup6\n        /* \"#utility.yul\":8062:8084   */\n      add\n        /* \"#utility.yul\":8041:8094   */\n      tag_179\n      jump\t// in\n    tag_339:\n        /* \"#utility.yul\":8031:8094   */\n      swap2\n      pop\n        /* \"#utility.yul\":7987:8104   */\n      pop\n        /* \"#utility.yul\":7782:8111   */\n      swap3\n      swap2\n      pop\n      pop\n      jump\t// out\n        /* \"#utility.yul\":8117:8235   */\n    tag_205:\n        /* \"#utility.yul\":8204:8228   */\n      tag_341\n        /* \"#utility.yul\":8222:8227   */\n      dup2\n        /* \"#utility.yul\":8204:8228   */\n      tag_180\n      jump\t// in\n    tag_341:\n        /* \"#utility.yul\":8199:8202   */\n      dup3\n        /* \"#utility.yul\":8192:8229   */\n      mstore\n        /* \"#utility.yul\":8117:8235   */\n      pop\n      pop\n      jump\t// out\n        /* \"#utility.yul\":8241:8463   */\n    tag_50:\n        /* \"#utility.yul\":8334:8338   */\n      0x00\n        /* \"#utility.yul\":8372:8374   */\n      0x20\n        /* \"#utility.yul\":8361:8370   */\n      dup3\n        /* \"#utility.yul\":8357:8375   */\n      add\n        /* \"#utility.yul\":8349:8375   */\n      swap1\n      pop\n        /* \"#utility.yul\":8385:8456   */\n      tag_343\n        /* \"#utility.yul\":8453:8454   */\n      0x00\n        /* \"#utility.yul\":8442:8451   */\n      dup4\n        /* \"#utility.yul\":8438:8455   */\n      add\n        /* \"#utility.yul\":8429:8435   */\n      dup5\n        /* \"#utility.yul\":8385:8456   */\n      tag_205\n      jump\t// in\n    tag_343:\n        /* \"#utility.yul\":8241:8463   */\n      swap3\n      swap2\n      pop\n      pop\n      jump\t// out\n        /* \"#utility.yul\":8469:8587   */\n    tag_206:\n        /* \"#utility.yul\":8556:8580   */\n      tag_345\n        /* \"#utility.yul\":8574:8579   */\n      dup2\n        /* \"#utility.yul\":8556:8580   */\n      tag_177\n      jump\t// in\n    tag_345:\n        /* \"#utility.yul\":8551:8554   */\n      dup3\n        /* \"#utility.yul\":8544:8581   */\n      mstore\n        /* \"#utility.yul\":8469:8587   */\n      pop\n      pop\n      jump\t// out\n        /* \"#utility.yul\":8593:8815   */\n    tag_59:\n        /* \"#utility.yul\":8686:8690   */\n      0x00\n        /* \"#utility.yul\":8724:8726   */\n      0x20\n        /* \"#utility.yul\":8713:8722   */\n      dup3\n        /* \"#utility.yul\":8709:8727   */\n      add\n        /* \"#utility.yul\":8701:8727   */\n      swap1\n      pop\n        /* \"#utility.yul\":8737:8808   */\n      tag_347\n        /* \"#utility.yul\":8805:8806   */\n      0x00\n        /* \"#utility.yul\":8794:8803   */\n      dup4\n        /* \"#utility.yul\":8790:8807   */\n      add\n        /* \"#utility.yul\":8781:8787   */\n      dup5\n        /* \"#utility.yul\":8737:8808   */\n      tag_206\n      jump\t// in\n    tag_347:\n        /* \"#utility.yul\":8593:8815   */\n      swap3\n      swap2\n      pop\n      pop\n      jump\t// out\n        /* \"#utility.yul\":8821:9150   */\n    tag_75:\n        /* \"#utility.yul\":8880:8886   */\n      0x00\n        /* \"#utility.yul\":8929:8931   */\n      0x20\n        /* \"#utility.yul\":8917:8926   */\n      dup3\n        /* \"#utility.yul\":8908:8915   */\n      dup5\n        /* \"#utility.yul\":8904:8927   */\n      sub\n        /* \"#utility.yul\":8900:8932   */\n      slt\n        /* \"#utility.yul\":8897:9016   */\n      iszero\n      tag_349\n      jumpi\n        /* \"#utility.yul\":8935:9014   */\n      tag_350\n      tag_174\n      jump\t// in\n    tag_350:\n        /* \"#utility.yul\":8897:9016   */\n    tag_349:\n        /* \"#utility.yul\":9055:9056   */\n      0x00\n        /* \"#utility.yul\":9080:9133   */\n      tag_351\n        /* \"#utility.yul\":9125:9132   */\n      dup5\n        /* \"#utility.yul\":9116:9122   */\n      dup3\n        /* \"#utility.yul\":9105:9114   */\n      dup6\n        /* \"#utility.yul\":9101:9123   */\n      add\n        /* \"#utility.yul\":9080:9133   */\n      tag_182\n      jump\t// in\n    tag_351:\n        /* \"#utility.yul\":9070:9133   */\n      swap2\n      pop\n        /* \"#utility.yul\":9026:9143   */\n      pop\n        /* \"#utility.yul\":8821:9150   */\n      swap3\n      swap2\n      pop\n      pop\n      jump\t// out\n        /* \"#utility.yul\":9156:9820   */\n    tag_78:\n        /* \"#utility.yul\":9361:9365   */\n      0x00\n        /* \"#utility.yul\":9399:9402   */\n      0xa0\n        /* \"#utility.yul\":9388:9397   */\n      dup3\n        /* \"#utility.yul\":9384:9403   */\n      add\n        /* \"#utility.yul\":9376:9403   */\n      swap1\n      pop\n        /* \"#utility.yul\":9413:9484   */\n      tag_353\n        /* \"#utility.yul\":9481:9482   */\n      0x00\n        /* \"#utility.yul\":9470:9479   */\n      dup4\n        /* \"#utility.yul\":9466:9483   */\n      add\n        /* \"#utility.yul\":9457:9463   */\n      dup9\n        /* \"#utility.yul\":9413:9484   */\n      tag_206\n      jump\t// in\n    tag_353:\n        /* \"#utility.yul\":9494:9566   */\n      tag_354\n        /* \"#utility.yul\":9562:9564   */\n      0x20\n        /* \"#utility.yul\":9551:9560   */\n      dup4\n        /* \"#utility.yul\":9547:9565   */\n      add\n        /* \"#utility.yul\":9538:9544   */\n      dup8\n        /* \"#utility.yul\":9494:9566   */\n      tag_205\n      jump\t// in\n    tag_354:\n        /* \"#utility.yul\":9576:9648   */\n      tag_355\n        /* \"#utility.yul\":9644:9646   */\n      0x40\n        /* \"#utility.yul\":9633:9642   */\n      dup4\n        /* \"#utility.yul\":9629:9647   */\n      add\n        /* \"#utility.yul\":9620:9626   */\n      dup7\n        /* \"#utility.yul\":9576:9648   */\n      tag_206\n      jump\t// in\n    tag_355:\n        /* \"#utility.yul\":9658:9730   */\n      tag_356\n        /* \"#utility.yul\":9726:9728   */\n      0x60\n        /* \"#utility.yul\":9715:9724   */\n      dup4\n        /* \"#utility.yul\":9711:9729   */\n      add\n        /* \"#utility.yul\":9702:9708   */\n      dup6\n        /* \"#utility.yul\":9658:9730   */\n      tag_205\n      jump\t// in\n    tag_356:\n        /* \"#utility.yul\":9740:9813   */\n      tag_357\n        /* \"#utility.yul\":9808:9811   */\n      0x80\n        /* \"#utility.yul\":9797:9806   */\n      dup4\n        /* \"#utility.yul\":9793:9812   */\n      add\n        /* \"#utility.yul\":9784:9790   */\n      dup5\n        /* \"#utility.yul\":9740:9813   */\n      tag_205\n      jump\t// in\n    tag_357:\n        /* \"#utility.yul\":9156:9820   */\n      swap7\n      swap6\n      pop\n      pop\n      pop\n      pop\n      pop\n      pop\n      jump\t// out\n        /* \"#utility.yul\":9826:9969   */\n    tag_207:\n        /* \"#utility.yul\":9883:9888   */\n      0x00\n        /* \"#utility.yul\":9914:9920   */\n      dup2\n        /* \"#utility.yul\":9908:9921   */\n      mload\n        /* \"#utility.yul\":9899:9921   */\n      swap1\n      pop\n        /* \"#utility.yul\":9930:9963   */\n      tag_359\n        /* \"#utility.yul\":9957:9962   */\n      dup2\n        /* \"#utility.yul\":9930:9963   */\n      tag_178\n      jump\t// in\n    tag_359:\n        /* \"#utility.yul\":9826:9969   */\n      swap3\n      swap2\n      pop\n      pop\n      jump\t// out\n        /* \"#utility.yul\":9975:10326   */\n    tag_100:\n        /* \"#utility.yul\":10045:10051   */\n      0x00\n        /* \"#utility.yul\":10094:10096   */\n      0x20\n        /* \"#utility.yul\":10082:10091   */\n      dup3\n        /* \"#utility.yul\":10073:10080   */\n      dup5\n        /* \"#utility.yul\":10069:10092   */\n      sub\n        /* \"#utility.yul\":10065:10097   */\n      slt\n        /* \"#utility.yul\":10062:10181   */\n      iszero\n      tag_361\n      jumpi\n        /* \"#utility.yul\":10100:10179   */\n      tag_362\n      tag_174\n      jump\t// in\n    tag_362:\n        /* \"#utility.yul\":10062:10181   */\n    tag_361:\n        /* \"#utility.yul\":10220:10221   */\n      0x00\n        /* \"#utility.yul\":10245:10309   */\n      tag_363\n        /* \"#utility.yul\":10301:10308   */\n      dup5\n        /* \"#utility.yul\":10292:10298   */\n      dup3\n        /* \"#utility.yul\":10281:10290   */\n      dup6\n        /* \"#utility.yul\":10277:10299   */\n      add\n        /* \"#utility.yul\":10245:10309   */\n      tag_207\n      jump\t// in\n    tag_363:\n        /* \"#utility.yul\":10235:10309   */\n      swap2\n      pop\n        /* \"#utility.yul\":10191:10319   */\n      pop\n        /* \"#utility.yul\":9975:10326   */\n      swap3\n      swap2\n      pop\n      pop\n      jump\t// out\n        /* \"#utility.yul\":10332:10501   */\n    tag_208:\n        /* \"#utility.yul\":10416:10427   */\n      0x00\n        /* \"#utility.yul\":10450:10456   */\n      dup3\n        /* \"#utility.yul\":10445:10448   */\n      dup3\n        /* \"#utility.yul\":10438:10457   */\n      mstore\n        /* \"#utility.yul\":10490:10494   */\n      0x20\n        /* \"#utility.yul\":10485:10488   */\n      dup3\n        /* \"#utility.yul\":10481:10495   */\n      add\n        /* \"#utility.yul\":10466:10495   */\n      swap1\n      pop\n        /* \"#utility.yul\":10332:10501   */\n      swap3\n      swap2\n      pop\n      pop\n      jump\t// out\n        /* \"#utility.yul\":10507:10689   */\n    tag_209:\n        /* \"#utility.yul\":10647:10681   */\n      0x596f75206d757374206f776e20746865204e465420746f206c6973742069742e\n        /* \"#utility.yul\":10643:10644   */\n      0x00\n        /* \"#utility.yul\":10635:10641   */\n      dup3\n        /* \"#utility.yul\":10631:10645   */\n      add\n        /* \"#utility.yul\":10624:10682   */\n      mstore\n        /* \"#utility.yul\":10507:10689   */\n      pop\n      jump\t// out\n        /* \"#utility.yul\":10695:11061   */\n    tag_210:\n        /* \"#utility.yul\":10837:10840   */\n      0x00\n        /* \"#utility.yul\":10858:10925   */\n      tag_367\n        /* \"#utility.yul\":10922:10924   */\n      0x20\n        /* \"#utility.yul\":10917:10920   */\n      dup4\n        /* \"#utility.yul\":10858:10925   */\n      tag_208\n      jump\t// in\n    tag_367:\n        /* \"#utility.yul\":10851:10925   */\n      swap2\n      pop\n        /* \"#utility.yul\":10934:11027   */\n      tag_368\n        /* \"#utility.yul\":11023:11026   */\n      dup3\n        /* \"#utility.yul\":10934:11027   */\n      tag_209\n      jump\t// in\n    tag_368:\n        /* \"#utility.yul\":11052:11054   */\n      0x20\n        /* \"#utility.yul\":11047:11050   */\n      dup3\n        /* \"#utility.yul\":11043:11055   */\n      add\n        /* \"#utility.yul\":11036:11055   */\n      swap1\n      pop\n        /* \"#utility.yul\":10695:11061   */\n      swap2\n      swap1\n      pop\n      jump\t// out\n        /* \"#utility.yul\":11067:11486   */\n    tag_103:\n        /* \"#utility.yul\":11233:11237   */\n      0x00\n        /* \"#utility.yul\":11271:11273   */\n      0x20\n        /* \"#utility.yul\":11260:11269   */\n      dup3\n        /* \"#utility.yul\":11256:11274   */\n      add\n        /* \"#utility.yul\":11248:11274   */\n      swap1\n      pop\n        /* \"#utility.yul\":11320:11329   */\n      dup2\n        /* \"#utility.yul\":11314:11318   */\n      dup2\n        /* \"#utility.yul\":11310:11330   */\n      sub\n        /* \"#utility.yul\":11306:11307   */\n      0x00\n        /* \"#utility.yul\":11295:11304   */\n      dup4\n        /* \"#utility.yul\":11291:11308   */\n      add\n        /* \"#utility.yul\":11284:11331   */\n      mstore\n        /* \"#utility.yul\":11348:11479   */\n      tag_370\n        /* \"#utility.yul\":11474:11478   */\n      dup2\n        /* \"#utility.yul\":11348:11479   */\n      tag_210\n      jump\t// in\n    tag_370:\n        /* \"#utility.yul\":11340:11479   */\n      swap1\n      pop\n        /* \"#utility.yul\":11067:11486   */\n      swap2\n      swap1\n      pop\n      jump\t// out\n        /* \"#utility.yul\":11492:11672   */\n    tag_211:\n        /* \"#utility.yul\":11540:11617   */\n      0x4e487b7100000000000000000000000000000000000000000000000000000000\n        /* \"#utility.yul\":11537:11538   */\n      0x00\n        /* \"#utility.yul\":11530:11618   */\n      mstore\n        /* \"#utility.yul\":11637:11641   */\n      0x11\n        /* \"#utility.yul\":11634:11635   */\n      0x04\n        /* \"#utility.yul\":11627:11642   */\n      mstore\n        /* \"#utility.yul\":11661:11665   */\n      0x24\n        /* \"#utility.yul\":11658:11659   */\n      0x00\n        /* \"#utility.yul\":11651:11666   */\n      revert\n        /* \"#utility.yul\":11678:11869   */\n    tag_105:\n        /* \"#utility.yul\":11718:11721   */\n      0x00\n        /* \"#utility.yul\":11737:11757   */\n      tag_373\n        /* \"#utility.yul\":11755:11756   */\n      dup3\n        /* \"#utility.yul\":11737:11757   */\n      tag_180\n      jump\t// in\n    tag_373:\n        /* \"#utility.yul\":11732:11757   */\n      swap2\n      pop\n        /* \"#utility.yul\":11771:11791   */\n      tag_374\n        /* \"#utility.yul\":11789:11790   */\n      dup4\n        /* \"#utility.yul\":11771:11791   */\n      tag_180\n      jump\t// in\n    tag_374:\n        /* \"#utility.yul\":11766:11791   */\n      swap3\n      pop\n        /* \"#utility.yul\":11814:11815   */\n      dup3\n        /* \"#utility.yul\":11811:11812   */\n      dup3\n        /* \"#utility.yul\":11807:11816   */\n      add\n        /* \"#utility.yul\":11800:11816   */\n      swap1\n      pop\n        /* \"#utility.yul\":11835:11838   */\n      dup1\n        /* \"#utility.yul\":11832:11833   */\n      dup3\n        /* \"#utility.yul\":11829:11839   */\n      gt\n        /* \"#utility.yul\":11826:11862   */\n      iszero\n      tag_375\n      jumpi\n        /* \"#utility.yul\":11842:11860   */\n      tag_376\n      tag_211\n      jump\t// in\n    tag_376:\n        /* \"#utility.yul\":11826:11862   */\n    tag_375:\n        /* \"#utility.yul\":11678:11869   */\n      swap3\n      swap2\n      pop\n      pop\n      jump\t// out\n        /* \"#utility.yul\":11875:12317   */\n    tag_109:\n        /* \"#utility.yul\":12024:12028   */\n      0x00\n        /* \"#utility.yul\":12062:12064   */\n      0x60\n        /* \"#utility.yul\":12051:12060   */\n      dup3\n        /* \"#utility.yul\":12047:12065   */\n      add\n        /* \"#utility.yul\":12039:12065   */\n      swap1\n      pop\n        /* \"#utility.yul\":12075:12146   */\n      tag_378\n        /* \"#utility.yul\":12143:12144   */\n      0x00\n        /* \"#utility.yul\":12132:12141   */\n      dup4\n        /* \"#utility.yul\":12128:12145   */\n      add\n        /* \"#utility.yul\":12119:12125   */\n      dup7\n        /* \"#utility.yul\":12075:12146   */\n      tag_205\n      jump\t// in\n    tag_378:\n        /* \"#utility.yul\":12156:12228   */\n      tag_379\n        /* \"#utility.yul\":12224:12226   */\n      0x20\n        /* \"#utility.yul\":12213:12222   */\n      dup4\n        /* \"#utility.yul\":12209:12227   */\n      add\n        /* \"#utility.yul\":12200:12206   */\n      dup6\n        /* \"#utility.yul\":12156:12228   */\n      tag_205\n      jump\t// in\n    tag_379:\n        /* \"#utility.yul\":12238:12310   */\n      tag_380\n        /* \"#utility.yul\":12306:12308   */\n      0x40\n        /* \"#utility.yul\":12295:12304   */\n      dup4\n        /* \"#utility.yul\":12291:12309   */\n      add\n        /* \"#utility.yul\":12282:12288   */\n      dup5\n        /* \"#utility.yul\":12238:12310   */\n      tag_205\n      jump\t// in\n    tag_380:\n        /* \"#utility.yul\":11875:12317   */\n      swap5\n      swap4\n      pop\n      pop\n      pop\n      pop\n      jump\t// out\n        /* \"#utility.yul\":12323:12556   */\n    tag_111:\n        /* \"#utility.yul\":12362:12365   */\n      0x00\n        /* \"#utility.yul\":12385:12409   */\n      tag_382\n        /* \"#utility.yul\":12403:12408   */\n      dup3\n        /* \"#utility.yul\":12385:12409   */\n      tag_180\n      jump\t// in\n    tag_382:\n        /* \"#utility.yul\":12376:12409   */\n      swap2\n      pop\n        /* \"#utility.yul\":12431:12497   */\n      0xffffffffffffffffffffffffffffffffffffffffffffffffffffffffffffffff\n        /* \"#utility.yul\":12424:12429   */\n      dup3\n        /* \"#utility.yul\":12421:12498   */\n      sub\n        /* \"#utility.yul\":12418:12521   */\n      tag_383\n      jumpi\n        /* \"#utility.yul\":12501:12519   */\n      tag_384\n      tag_211\n      jump\t// in\n    tag_384:\n        /* \"#utility.yul\":12418:12521   */\n    tag_383:\n        /* \"#utility.yul\":12548:12549   */\n      0x01\n        /* \"#utility.yul\":12541:12546   */\n      dup3\n        /* \"#utility.yul\":12537:12550   */\n      add\n        /* \"#utility.yul\":12530:12550   */\n      swap1\n      pop\n        /* \"#utility.yul\":12323:12556   */\n      swap2\n      swap1\n      pop\n      jump\t// out\n        /* \"#utility.yul\":12562:12782   */\n    tag_212:\n        /* \"#utility.yul\":12702:12736   */\n      0x5369676e657220616e64207369676e617475726520646f206e6f74206d617463\n        /* \"#utility.yul\":12698:12699   */\n      0x00\n        /* \"#utility.yul\":12690:12696   */\n      dup3\n        /* \"#utility.yul\":12686:12700   */\n      add\n        /* \"#utility.yul\":12679:12737   */\n      mstore\n        /* \"#utility.yul\":12771:12774   */\n      0x6800000000000000000000000000000000000000000000000000000000000000\n        /* \"#utility.yul\":12766:12768   */\n      0x20\n        /* \"#utility.yul\":12758:12764   */\n      dup3\n        /* \"#utility.yul\":12754:12769   */\n      add\n        /* \"#utility.yul\":12747:12775   */\n      mstore\n        /* \"#utility.yul\":12562:12782   */\n      pop\n      jump\t// out\n        /* \"#utility.yul\":12788:13154   */\n    tag_213:\n        /* \"#utility.yul\":12930:12933   */\n      0x00\n        /* \"#utility.yul\":12951:13018   */\n      tag_387\n        /* \"#utility.yul\":13015:13017   */\n      0x21\n        /* \"#utility.yul\":13010:13013   */\n      dup4\n        /* \"#utility.yul\":12951:13018   */\n      tag_208\n      jump\t// in\n    tag_387:\n        /* \"#utility.yul\":12944:13018   */\n      swap2\n      pop\n        /* \"#utility.yul\":13027:13120   */\n      tag_388\n        /* \"#utility.yul\":13116:13119   */\n      dup3\n        /* \"#utility.yul\":13027:13120   */\n      tag_212\n      jump\t// in\n    tag_388:\n        /* \"#utility.yul\":13145:13147   */\n      0x40\n        /* \"#utility.yul\":13140:13143   */\n      dup3\n        /* \"#utility.yul\":13136:13148   */\n      add\n        /* \"#utility.yul\":13129:13148   */\n      swap1\n      pop\n        /* \"#utility.yul\":12788:13154   */\n      swap2\n      swap1\n      pop\n      jump\t// out\n        /* \"#utility.yul\":13160:13579   */\n    tag_116:\n        /* \"#utility.yul\":13326:13330   */\n      0x00\n        /* \"#utility.yul\":13364:13366   */\n      0x20\n        /* \"#utility.yul\":13353:13362   */\n      dup3\n        /* \"#utility.yul\":13349:13367   */\n      add\n        /* \"#utility.yul\":13341:13367   */\n      swap1\n      pop\n        /* \"#utility.yul\":13413:13422   */\n      dup2\n        /* \"#utility.yul\":13407:13411   */\n      dup2\n        /* \"#utility.yul\":13403:13423   */\n      sub\n        /* \"#utility.yul\":13399:13400   */\n      0x00\n        /* \"#utility.yul\":13388:13397   */\n      dup4\n        /* \"#utility.yul\":13384:13401   */\n      add\n        /* \"#utility.yul\":13377:13424   */\n      mstore\n        /* \"#utility.yul\":13441:13572   */\n      tag_390\n        /* \"#utility.yul\":13567:13571   */\n      dup2\n        /* \"#utility.yul\":13441:13572   */\n      tag_213\n      jump\t// in\n    tag_390:\n        /* \"#utility.yul\":13433:13572   */\n      swap1\n      pop\n        /* \"#utility.yul\":13160:13579   */\n      swap2\n      swap1\n      pop\n      jump\t// out\n        /* \"#utility.yul\":13585:13732   */\n    tag_214:\n        /* \"#utility.yul\":13686:13697   */\n      0x00\n        /* \"#utility.yul\":13723:13726   */\n      dup2\n        /* \"#utility.yul\":13708:13726   */\n      swap1\n      pop\n        /* \"#utility.yul\":13585:13732   */\n      swap3\n      swap2\n      pop\n      pop\n      jump\t// out\n        /* \"#utility.yul\":13738:14124   */\n    tag_215:\n        /* \"#utility.yul\":13842:13845   */\n      0x00\n        /* \"#utility.yul\":13870:13908   */\n      tag_393\n        /* \"#utility.yul\":13902:13907   */\n      dup3\n        /* \"#utility.yul\":13870:13908   */\n      tag_199\n      jump\t// in\n    tag_393:\n        /* \"#utility.yul\":13924:14012   */\n      tag_394\n        /* \"#utility.yul\":14005:14011   */\n      dup2\n        /* \"#utility.yul\":14000:14003   */\n      dup6\n        /* \"#utility.yul\":13924:14012   */\n      tag_214\n      jump\t// in\n    tag_394:\n        /* \"#utility.yul\":13917:14012   */\n      swap4\n      pop\n        /* \"#utility.yul\":14021:14086   */\n      tag_395\n        /* \"#utility.yul\":14079:14085   */\n      dup2\n        /* \"#utility.yul\":14074:14077   */\n      dup6\n        /* \"#utility.yul\":14067:14071   */\n      0x20\n        /* \"#utility.yul\":14060:14065   */\n      dup7\n        /* \"#utility.yul\":14056:14072   */\n      add\n        /* \"#utility.yul\":14021:14086   */\n      tag_201\n      jump\t// in\n    tag_395:\n        /* \"#utility.yul\":14111:14117   */\n      dup1\n        /* \"#utility.yul\":14106:14109   */\n      dup5\n        /* \"#utility.yul\":14102:14118   */\n      add\n        /* \"#utility.yul\":14095:14118   */\n      swap2\n      pop\n        /* \"#utility.yul\":13846:14124   */\n      pop\n        /* \"#utility.yul\":13738:14124   */\n      swap3\n      swap2\n      pop\n      pop\n      jump\t// out\n        /* \"#utility.yul\":14130:14224   */\n    tag_216:\n        /* \"#utility.yul\":14163:14171   */\n      0x00\n        /* \"#utility.yul\":14211:14216   */\n      dup2\n        /* \"#utility.yul\":14207:14209   */\n      0x60\n        /* \"#utility.yul\":14203:14217   */\n      shl\n        /* \"#utility.yul\":14182:14217   */\n      swap1\n      pop\n        /* \"#utility.yul\":14130:14224   */\n      swap2\n      swap1\n      pop\n      jump\t// out\n        /* \"#utility.yul\":14230:14324   */\n    tag_217:\n        /* \"#utility.yul\":14269:14276   */\n      0x00\n        /* \"#utility.yul\":14298:14318   */\n      tag_398\n        /* \"#utility.yul\":14312:14317   */\n      dup3\n        /* \"#utility.yul\":14298:14318   */\n      tag_216\n      jump\t// in\n    tag_398:\n        /* \"#utility.yul\":14287:14318   */\n      swap1\n      pop\n        /* \"#utility.yul\":14230:14324   */\n      swap2\n      swap1\n      pop\n      jump\t// out\n        /* \"#utility.yul\":14330:14430   */\n    tag_218:\n        /* \"#utility.yul\":14369:14376   */\n      0x00\n        /* \"#utility.yul\":14398:14424   */\n      tag_400\n        /* \"#utility.yul\":14418:14423   */\n      dup3\n        /* \"#utility.yul\":14398:14424   */\n      tag_217\n      jump\t// in\n    tag_400:\n        /* \"#utility.yul\":14387:14424   */\n      swap1\n      pop\n        /* \"#utility.yul\":14330:14430   */\n      swap2\n      swap1\n      pop\n      jump\t// out\n        /* \"#utility.yul\":14436:14593   */\n    tag_219:\n        /* \"#utility.yul\":14541:14586   */\n      tag_402\n        /* \"#utility.yul\":14561:14585   */\n      tag_403\n        /* \"#utility.yul\":14579:14584   */\n      dup3\n        /* \"#utility.yul\":14561:14585   */\n      tag_177\n      jump\t// in\n    tag_403:\n        /* \"#utility.yul\":14541:14586   */\n      tag_218\n      jump\t// in\n    tag_402:\n        /* \"#utility.yul\":14536:14539   */\n      dup3\n        /* \"#utility.yul\":14529:14587   */\n      mstore\n        /* \"#utility.yul\":14436:14593   */\n      pop\n      pop\n      jump\t// out\n        /* \"#utility.yul\":14599:15011   */\n    tag_119:\n        /* \"#utility.yul\":14757:14760   */\n      0x00\n        /* \"#utility.yul\":14779:14872   */\n      tag_405\n        /* \"#utility.yul\":14868:14871   */\n      dup3\n        /* \"#utility.yul\":14859:14865   */\n      dup6\n        /* \"#utility.yul\":14779:14872   */\n      tag_215\n      jump\t// in\n    tag_405:\n        /* \"#utility.yul\":14772:14872   */\n      swap2\n      pop\n        /* \"#utility.yul\":14882:14957   */\n      tag_406\n        /* \"#utility.yul\":14953:14956   */\n      dup3\n        /* \"#utility.yul\":14944:14950   */\n      dup5\n        /* \"#utility.yul\":14882:14957   */\n      tag_219\n      jump\t// in\n    tag_406:\n        /* \"#utility.yul\":14982:14984   */\n      0x14\n        /* \"#utility.yul\":14977:14980   */\n      dup3\n        /* \"#utility.yul\":14973:14985   */\n      add\n        /* \"#utility.yul\":14966:14985   */\n      swap2\n      pop\n        /* \"#utility.yul\":15002:15005   */\n      dup2\n        /* \"#utility.yul\":14995:15005   */\n      swap1\n      pop\n        /* \"#utility.yul\":14599:15011   */\n      swap4\n      swap3\n      pop\n      pop\n      pop\n      jump\t// out\n        /* \"#utility.yul\":15017:15288   */\n    tag_121:\n        /* \"#utility.yul\":15147:15150   */\n      0x00\n        /* \"#utility.yul\":15169:15262   */\n      tag_408\n        /* \"#utility.yul\":15258:15261   */\n      dup3\n        /* \"#utility.yul\":15249:15255   */\n      dup5\n        /* \"#utility.yul\":15169:15262   */\n      tag_215\n      jump\t// in\n    tag_408:\n        /* \"#utility.yul\":15162:15262   */\n      swap2\n      pop\n        /* \"#utility.yul\":15279:15282   */\n      dup2\n        /* \"#utility.yul\":15272:15282   */\n      swap1\n      pop\n        /* \"#utility.yul\":15017:15288   */\n      swap3\n      swap2\n      pop\n      pop\n      jump\t// out\n        /* \"#utility.yul\":15294:15464   */\n    tag_220:\n        /* \"#utility.yul\":15434:15456   */\n      0x46756e6374696f6e2063616c6c206661696c6564000000000000000000000000\n        /* \"#utility.yul\":15430:15431   */\n      0x00\n        /* \"#utility.yul\":15422:15428   */\n      dup3\n        /* \"#utility.yul\":15418:15432   */\n      add\n        /* \"#utility.yul\":15411:15457   */\n      mstore\n        /* \"#utility.yul\":15294:15464   */\n      pop\n      jump\t// out\n        /* \"#utility.yul\":15470:15836   */\n    tag_221:\n        /* \"#utility.yul\":15612:15615   */\n      0x00\n        /* \"#utility.yul\":15633:15700   */\n      tag_411\n        /* \"#utility.yul\":15697:15699   */\n      0x14\n        /* \"#utility.yul\":15692:15695   */\n      dup4\n        /* \"#utility.yul\":15633:15700   */\n      tag_208\n      jump\t// in\n    tag_411:\n        /* \"#utility.yul\":15626:15700   */\n      swap2\n      pop\n        /* \"#utility.yul\":15709:15802   */\n      tag_412\n        /* \"#utility.yul\":15798:15801   */\n      dup3\n        /* \"#utility.yul\":15709:15802   */\n      tag_220\n      jump\t// in\n    tag_412:\n        /* \"#utility.yul\":15827:15829   */\n      0x20\n        /* \"#utility.yul\":15822:15825   */\n      dup3\n        /* \"#utility.yul\":15818:15830   */\n      add\n        /* \"#utility.yul\":15811:15830   */\n      swap1\n      pop\n        /* \"#utility.yul\":15470:15836   */\n      swap2\n      swap1\n      pop\n      jump\t// out\n        /* \"#utility.yul\":15842:16261   */\n    tag_127:\n        /* \"#utility.yul\":16008:16012   */\n      0x00\n        /* \"#utility.yul\":16046:16048   */\n      0x20\n        /* \"#utility.yul\":16035:16044   */\n      dup3\n        /* \"#utility.yul\":16031:16049   */\n      add\n        /* \"#utility.yul\":16023:16049   */\n      swap1\n      pop\n        /* \"#utility.yul\":16095:16104   */\n      dup2\n        /* \"#utility.yul\":16089:16093   */\n      dup2\n        /* \"#utility.yul\":16085:16105   */\n      sub\n        /* \"#utility.yul\":16081:16082   */\n      0x00\n        /* \"#utility.yul\":16070:16079   */\n      dup4\n        /* \"#utility.yul\":16066:16083   */\n      add\n        /* \"#utility.yul\":16059:16106   */\n      mstore\n        /* \"#utility.yul\":16123:16254   */\n      tag_414\n        /* \"#utility.yul\":16249:16253   */\n      dup2\n        /* \"#utility.yul\":16123:16254   */\n      tag_221\n      jump\t// in\n    tag_414:\n        /* \"#utility.yul\":16115:16254   */\n      swap1\n      pop\n        /* \"#utility.yul\":15842:16261   */\n      swap2\n      swap1\n      pop\n      jump\t// out\n        /* \"#utility.yul\":16267:16371   */\n    tag_222:\n        /* \"#utility.yul\":16312:16319   */\n      0x00\n        /* \"#utility.yul\":16341:16365   */\n      tag_416\n        /* \"#utility.yul\":16359:16364   */\n      dup3\n        /* \"#utility.yul\":16341:16365   */\n      tag_176\n      jump\t// in\n    tag_416:\n        /* \"#utility.yul\":16330:16365   */\n      swap1\n      pop\n        /* \"#utility.yul\":16267:16371   */\n      swap2\n      swap1\n      pop\n      jump\t// out\n        /* \"#utility.yul\":16377:16519   */\n    tag_223:\n        /* \"#utility.yul\":16480:16512   */\n      tag_418\n        /* \"#utility.yul\":16506:16511   */\n      dup2\n        /* \"#utility.yul\":16480:16512   */\n      tag_222\n      jump\t// in\n    tag_418:\n        /* \"#utility.yul\":16475:16478   */\n      dup3\n        /* \"#utility.yul\":16468:16513   */\n      mstore\n        /* \"#utility.yul\":16377:16519   */\n      pop\n      pop\n      jump\t// out\n        /* \"#utility.yul\":16525:17086   */\n    tag_129:\n        /* \"#utility.yul\":16708:16712   */\n      0x00\n        /* \"#utility.yul\":16746:16748   */\n      0x60\n        /* \"#utility.yul\":16735:16744   */\n      dup3\n        /* \"#utility.yul\":16731:16749   */\n      add\n        /* \"#utility.yul\":16723:16749   */\n      swap1\n      pop\n        /* \"#utility.yul\":16759:16830   */\n      tag_420\n        /* \"#utility.yul\":16827:16828   */\n      0x00\n        /* \"#utility.yul\":16816:16825   */\n      dup4\n        /* \"#utility.yul\":16812:16829   */\n      add\n        /* \"#utility.yul\":16803:16809   */\n      dup7\n        /* \"#utility.yul\":16759:16830   */\n      tag_206\n      jump\t// in\n    tag_420:\n        /* \"#utility.yul\":16840:16928   */\n      tag_421\n        /* \"#utility.yul\":16924:16926   */\n      0x20\n        /* \"#utility.yul\":16913:16922   */\n      dup4\n        /* \"#utility.yul\":16909:16927   */\n      add\n        /* \"#utility.yul\":16900:16906   */\n      dup6\n        /* \"#utility.yul\":16840:16928   */\n      tag_223\n      jump\t// in\n    tag_421:\n        /* \"#utility.yul\":16975:16984   */\n      dup2\n        /* \"#utility.yul\":16969:16973   */\n      dup2\n        /* \"#utility.yul\":16965:16985   */\n      sub\n        /* \"#utility.yul\":16960:16962   */\n      0x40\n        /* \"#utility.yul\":16949:16958   */\n      dup4\n        /* \"#utility.yul\":16945:16963   */\n      add\n        /* \"#utility.yul\":16938:16986   */\n      mstore\n        /* \"#utility.yul\":17003:17079   */\n      tag_422\n        /* \"#utility.yul\":17074:17078   */\n      dup2\n        /* \"#utility.yul\":17065:17071   */\n      dup5\n        /* \"#utility.yul\":17003:17079   */\n      tag_202\n      jump\t// in\n    tag_422:\n        /* \"#utility.yul\":16995:17079   */\n      swap1\n      pop\n        /* \"#utility.yul\":16525:17086   */\n      swap5\n      swap4\n      pop\n      pop\n      pop\n      pop\n      jump\t// out\n        /* \"#utility.yul\":17092:17171   */\n    tag_224:\n        /* \"#utility.yul\":17131:17138   */\n      0x00\n        /* \"#utility.yul\":17160:17165   */\n      dup2\n        /* \"#utility.yul\":17149:17165   */\n      swap1\n      pop\n        /* \"#utility.yul\":17092:17171   */\n      swap2\n      swap1\n      pop\n      jump\t// out\n        /* \"#utility.yul\":17177:17334   */\n    tag_225:\n        /* \"#utility.yul\":17282:17327   */\n      tag_425\n        /* \"#utility.yul\":17302:17326   */\n      tag_426\n        /* \"#utility.yul\":17320:17325   */\n      dup3\n        /* \"#utility.yul\":17302:17326   */\n      tag_180\n      jump\t// in\n    tag_426:\n        /* \"#utility.yul\":17282:17327   */\n      tag_224\n      jump\t// in\n    tag_425:\n        /* \"#utility.yul\":17277:17280   */\n      dup3\n        /* \"#utility.yul\":17270:17328   */\n      mstore\n        /* \"#utility.yul\":17177:17334   */\n      pop\n      pop\n      jump\t// out\n        /* \"#utility.yul\":17340:17400   */\n    tag_226:\n        /* \"#utility.yul\":17368:17371   */\n      0x00\n        /* \"#utility.yul\":17389:17394   */\n      dup2\n        /* \"#utility.yul\":17382:17394   */\n      swap1\n      pop\n        /* \"#utility.yul\":17340:17400   */\n      swap2\n      swap1\n      pop\n      jump\t// out\n        /* \"#utility.yul\":17406:17548   */\n    tag_227:\n        /* \"#utility.yul\":17456:17465   */\n      0x00\n        /* \"#utility.yul\":17489:17542   */\n      tag_429\n        /* \"#utility.yul\":17507:17541   */\n      tag_430\n        /* \"#utility.yul\":17516:17540   */\n      tag_431\n        /* \"#utility.yul\":17534:17539   */\n      dup5\n        /* \"#utility.yul\":17516:17540   */\n      tag_176\n      jump\t// in\n    tag_431:\n        /* \"#utility.yul\":17507:17541   */\n      tag_226\n      jump\t// in\n    tag_430:\n        /* \"#utility.yul\":17489:17542   */\n      tag_176\n      jump\t// in\n    tag_429:\n        /* \"#utility.yul\":17476:17542   */\n      swap1\n      pop\n        /* \"#utility.yul\":17406:17548   */\n      swap2\n      swap1\n      pop\n      jump\t// out\n        /* \"#utility.yul\":17554:17680   */\n    tag_228:\n        /* \"#utility.yul\":17604:17613   */\n      0x00\n        /* \"#utility.yul\":17637:17674   */\n      tag_433\n        /* \"#utility.yul\":17668:17673   */\n      dup3\n        /* \"#utility.yul\":17637:17674   */\n      tag_227\n      jump\t// in\n    tag_433:\n        /* \"#utility.yul\":17624:17674   */\n      swap1\n      pop\n        /* \"#utility.yul\":17554:17680   */\n      swap2\n      swap1\n      pop\n      jump\t// out\n        /* \"#utility.yul\":17686:17834   */\n    tag_229:\n        /* \"#utility.yul\":17758:17767   */\n      0x00\n        /* \"#utility.yul\":17791:17828   */\n      tag_435\n        /* \"#utility.yul\":17822:17827   */\n      dup3\n        /* \"#utility.yul\":17791:17828   */\n      tag_228\n      jump\t// in\n    tag_435:\n        /* \"#utility.yul\":17778:17828   */\n      swap1\n      pop\n        /* \"#utility.yul\":17686:17834   */\n      swap2\n      swap1\n      pop\n      jump\t// out\n        /* \"#utility.yul\":17840:18054   */\n    tag_230:\n        /* \"#utility.yul\":17967:18047   */\n      tag_437\n        /* \"#utility.yul\":17987:18046   */\n      tag_438\n        /* \"#utility.yul\":18040:18045   */\n      dup3\n        /* \"#utility.yul\":17987:18046   */\n      tag_229\n      jump\t// in\n    tag_438:\n        /* \"#utility.yul\":17967:18047   */\n      tag_218\n      jump\t// in\n    tag_437:\n        /* \"#utility.yul\":17962:17965   */\n      dup3\n        /* \"#utility.yul\":17955:18048   */\n      mstore\n        /* \"#utility.yul\":17840:18054   */\n      pop\n      pop\n      jump\t// out\n        /* \"#utility.yul\":18060:18798   */\n    tag_133:\n        /* \"#utility.yul\":18296:18299   */\n      0x00\n        /* \"#utility.yul\":18311:18386   */\n      tag_440\n        /* \"#utility.yul\":18382:18385   */\n      dup3\n        /* \"#utility.yul\":18373:18379   */\n      dup8\n        /* \"#utility.yul\":18311:18386   */\n      tag_219\n      jump\t// in\n    tag_440:\n        /* \"#utility.yul\":18411:18413   */\n      0x14\n        /* \"#utility.yul\":18406:18409   */\n      dup3\n        /* \"#utility.yul\":18402:18414   */\n      add\n        /* \"#utility.yul\":18395:18414   */\n      swap2\n      pop\n        /* \"#utility.yul\":18424:18499   */\n      tag_441\n        /* \"#utility.yul\":18495:18498   */\n      dup3\n        /* \"#utility.yul\":18486:18492   */\n      dup7\n        /* \"#utility.yul\":18424:18499   */\n      tag_225\n      jump\t// in\n    tag_441:\n        /* \"#utility.yul\":18524:18526   */\n      0x20\n        /* \"#utility.yul\":18519:18522   */\n      dup3\n        /* \"#utility.yul\":18515:18527   */\n      add\n        /* \"#utility.yul\":18508:18527   */\n      swap2\n      pop\n        /* \"#utility.yul\":18537:18634   */\n      tag_442\n        /* \"#utility.yul\":18630:18633   */\n      dup3\n        /* \"#utility.yul\":18621:18627   */\n      dup6\n        /* \"#utility.yul\":18537:18634   */\n      tag_230\n      jump\t// in\n    tag_442:\n        /* \"#utility.yul\":18659:18661   */\n      0x14\n        /* \"#utility.yul\":18654:18657   */\n      dup3\n        /* \"#utility.yul\":18650:18662   */\n      add\n        /* \"#utility.yul\":18643:18662   */\n      swap2\n      pop\n        /* \"#utility.yul\":18679:18772   */\n      tag_443\n        /* \"#utility.yul\":18768:18771   */\n      dup3\n        /* \"#utility.yul\":18759:18765   */\n      dup5\n        /* \"#utility.yul\":18679:18772   */\n      tag_215\n      jump\t// in\n    tag_443:\n        /* \"#utility.yul\":18672:18772   */\n      swap2\n      pop\n        /* \"#utility.yul\":18789:18792   */\n      dup2\n        /* \"#utility.yul\":18782:18792   */\n      swap1\n      pop\n        /* \"#utility.yul\":18060:18798   */\n      swap6\n      swap5\n      pop\n      pop\n      pop\n      pop\n      pop\n      jump\t// out\n        /* \"#utility.yul\":18804:18922   */\n    tag_231:\n        /* \"#utility.yul\":18891:18915   */\n      tag_445\n        /* \"#utility.yul\":18909:18914   */\n      dup2\n        /* \"#utility.yul\":18891:18915   */\n      tag_193\n      jump\t// in\n    tag_445:\n        /* \"#utility.yul\":18886:18889   */\n      dup3\n        /* \"#utility.yul\":18879:18916   */\n      mstore\n        /* \"#utility.yul\":18804:18922   */\n      pop\n      pop\n      jump\t// out\n        /* \"#utility.yul\":18928:19040   */\n    tag_232:\n        /* \"#utility.yul\":19011:19033   */\n      tag_447\n        /* \"#utility.yul\":19027:19032   */\n      dup2\n        /* \"#utility.yul\":19011:19033   */\n      tag_196\n      jump\t// in\n    tag_447:\n        /* \"#utility.yul\":19006:19009   */\n      dup3\n        /* \"#utility.yul\":18999:19034   */\n      mstore\n        /* \"#utility.yul\":18928:19040   */\n      pop\n      pop\n      jump\t// out\n        /* \"#utility.yul\":19046:19591   */\n    tag_136:\n        /* \"#utility.yul\":19219:19223   */\n      0x00\n        /* \"#utility.yul\":19257:19260   */\n      0x80\n        /* \"#utility.yul\":19246:19255   */\n      dup3\n        /* \"#utility.yul\":19242:19261   */\n      add\n        /* \"#utility.yul\":19234:19261   */\n      swap1\n      pop\n        /* \"#utility.yul\":19271:19342   */\n      tag_449\n        /* \"#utility.yul\":19339:19340   */\n      0x00\n        /* \"#utility.yul\":19328:19337   */\n      dup4\n        /* \"#utility.yul\":19324:19341   */\n      add\n        /* \"#utility.yul\":19315:19321   */\n      dup8\n        /* \"#utility.yul\":19271:19342   */\n      tag_231\n      jump\t// in\n    tag_449:\n        /* \"#utility.yul\":19352:19420   */\n      tag_450\n        /* \"#utility.yul\":19416:19418   */\n      0x20\n        /* \"#utility.yul\":19405:19414   */\n      dup4\n        /* \"#utility.yul\":19401:19419   */\n      add\n        /* \"#utility.yul\":19392:19398   */\n      dup7\n        /* \"#utility.yul\":19352:19420   */\n      tag_232\n      jump\t// in\n    tag_450:\n        /* \"#utility.yul\":19430:19502   */\n      tag_451\n        /* \"#utility.yul\":19498:19500   */\n      0x40\n        /* \"#utility.yul\":19487:19496   */\n      dup4\n        /* \"#utility.yul\":19483:19501   */\n      add\n        /* \"#utility.yul\":19474:19480   */\n      dup6\n        /* \"#utility.yul\":19430:19502   */\n      tag_231\n      jump\t// in\n    tag_451:\n        /* \"#utility.yul\":19512:19584   */\n      tag_452\n        /* \"#utility.yul\":19580:19582   */\n      0x60\n        /* \"#utility.yul\":19569:19578   */\n      dup4\n        /* \"#utility.yul\":19565:19583   */\n      add\n        /* \"#utility.yul\":19556:19562   */\n      dup5\n        /* \"#utility.yul\":19512:19584   */\n      tag_231\n      jump\t// in\n    tag_452:\n        /* \"#utility.yul\":19046:19591   */\n      swap6\n      swap5\n      pop\n      pop\n      pop\n      pop\n      pop\n      jump\t// out\n        /* \"#utility.yul\":19597:19822   */\n    tag_233:\n        /* \"#utility.yul\":19737:19771   */\n      0x4f776e61626c653a206e6577206f776e657220697320746865207a65726f2061\n        /* \"#utility.yul\":19733:19734   */\n      0x00\n        /* \"#utility.yul\":19725:19731   */\n      dup3\n        /* \"#utility.yul\":19721:19735   */\n      add\n        /* \"#utility.yul\":19714:19772   */\n      mstore\n        /* \"#utility.yul\":19806:19814   */\n      0x6464726573730000000000000000000000000000000000000000000000000000\n        /* \"#utility.yul\":19801:19803   */\n      0x20\n        /* \"#utility.yul\":19793:19799   */\n      dup3\n        /* \"#utility.yul\":19789:19804   */\n      add\n        /* \"#utility.yul\":19782:19815   */\n      mstore\n        /* \"#utility.yul\":19597:19822   */\n      pop\n      jump\t// out\n        /* \"#utility.yul\":19828:20194   */\n    tag_234:\n        /* \"#utility.yul\":19970:19973   */\n      0x00\n        /* \"#utility.yul\":19991:20058   */\n      tag_455\n        /* \"#utility.yul\":20055:20057   */\n      0x26\n        /* \"#utility.yul\":20050:20053   */\n      dup4\n        /* \"#utility.yul\":19991:20058   */\n      tag_208\n      jump\t// in\n    tag_455:\n        /* \"#utility.yul\":19984:20058   */\n      swap2\n      pop\n        /* \"#utility.yul\":20067:20160   */\n      tag_456\n        /* \"#utility.yul\":20156:20159   */\n      dup3\n        /* \"#utility.yul\":20067:20160   */\n      tag_233\n      jump\t// in\n    tag_456:\n        /* \"#utility.yul\":20185:20187   */\n      0x40\n        /* \"#utility.yul\":20180:20183   */\n      dup3\n        /* \"#utility.yul\":20176:20188   */\n      add\n        /* \"#utility.yul\":20169:20188   */\n      swap1\n      pop\n        /* \"#utility.yul\":19828:20194   */\n      swap2\n      swap1\n      pop\n      jump\t// out\n        /* \"#utility.yul\":20200:20619   */\n    tag_154:\n        /* \"#utility.yul\":20366:20370   */\n      0x00\n        /* \"#utility.yul\":20404:20406   */\n      0x20\n        /* \"#utility.yul\":20393:20402   */\n      dup3\n        /* \"#utility.yul\":20389:20407   */\n      add\n        /* \"#utility.yul\":20381:20407   */\n      swap1\n      pop\n        /* \"#utility.yul\":20453:20462   */\n      dup2\n        /* \"#utility.yul\":20447:20451   */\n      dup2\n        /* \"#utility.yul\":20443:20463   */\n      sub\n        /* \"#utility.yul\":20439:20440   */\n      0x00\n        /* \"#utility.yul\":20428:20437   */\n      dup4\n        /* \"#utility.yul\":20424:20441   */\n      add\n        /* \"#utility.yul\":20417:20464   */\n      mstore\n        /* \"#utility.yul\":20481:20612   */\n      tag_458\n        /* \"#utility.yul\":20607:20611   */\n      dup2\n        /* \"#utility.yul\":20481:20612   */\n      tag_234\n      jump\t// in\n    tag_458:\n        /* \"#utility.yul\":20473:20612   */\n      swap1\n      pop\n        /* \"#utility.yul\":20200:20619   */\n      swap2\n      swap1\n      pop\n      jump\t// out\n        /* \"#utility.yul\":20625:20791   */\n    tag_235:\n        /* \"#utility.yul\":20765:20783   */\n      0x5061757361626c653a2070617573656400000000000000000000000000000000\n        /* \"#utility.yul\":20761:20762   */\n      0x00\n        /* \"#utility.yul\":20753:20759   */\n      dup3\n        /* \"#utility.yul\":20749:20763   */\n      add\n        /* \"#utility.yul\":20742:20784   */\n      mstore\n        /* \"#utility.yul\":20625:20791   */\n      pop\n      jump\t// out\n        /* \"#utility.yul\":20797:21163   */\n    tag_236:\n        /* \"#utility.yul\":20939:20942   */\n      0x00\n        /* \"#utility.yul\":20960:21027   */\n      tag_461\n        /* \"#utility.yul\":21024:21026   */\n      0x10\n        /* \"#utility.yul\":21019:21022   */\n      dup4\n        /* \"#utility.yul\":20960:21027   */\n      tag_208\n      jump\t// in\n    tag_461:\n        /* \"#utility.yul\":20953:21027   */\n      swap2\n      pop\n        /* \"#utility.yul\":21036:21129   */\n      tag_462\n        /* \"#utility.yul\":21125:21128   */\n      dup3\n        /* \"#utility.yul\":21036:21129   */\n      tag_235\n      jump\t// in\n    tag_462:\n        /* \"#utility.yul\":21154:21156   */\n      0x20\n        /* \"#utility.yul\":21149:21152   */\n      dup3\n        /* \"#utility.yul\":21145:21157   */\n      add\n        /* \"#utility.yul\":21138:21157   */\n      swap1\n      pop\n        /* \"#utility.yul\":20797:21163   */\n      swap2\n      swap1\n      pop\n      jump\t// out\n        /* \"#utility.yul\":21169:21588   */\n    tag_160:\n        /* \"#utility.yul\":21335:21339   */\n      0x00\n        /* \"#utility.yul\":21373:21375   */\n      0x20\n        /* \"#utility.yul\":21362:21371   */\n      dup3\n        /* \"#utility.yul\":21358:21376   */\n      add\n        /* \"#utility.yul\":21350:21376   */\n      swap1\n      pop\n        /* \"#utility.yul\":21422:21431   */\n      dup2\n        /* \"#utility.yul\":21416:21420   */\n      dup2\n        /* \"#utility.yul\":21412:21432   */\n      sub\n        /* \"#utility.yul\":21408:21409   */\n      0x00\n        /* \"#utility.yul\":21397:21406   */\n      dup4\n        /* \"#utility.yul\":21393:21410   */\n      add\n        /* \"#utility.yul\":21386:21433   */\n      mstore\n        /* \"#utility.yul\":21450:21581   */\n      tag_464\n        /* \"#utility.yul\":21576:21580   */\n      dup2\n        /* \"#utility.yul\":21450:21581   */\n      tag_236\n      jump\t// in\n    tag_464:\n        /* \"#utility.yul\":21442:21581   */\n      swap1\n      pop\n        /* \"#utility.yul\":21169:21588   */\n      swap2\n      swap1\n      pop\n      jump\t// out\n        /* \"#utility.yul\":21594:21742   */\n    tag_237:\n        /* \"#utility.yul\":21696:21707   */\n      0x00\n        /* \"#utility.yul\":21733:21736   */\n      dup2\n        /* \"#utility.yul\":21718:21736   */\n      swap1\n      pop\n        /* \"#utility.yul\":21594:21742   */\n      swap3\n      swap2\n      pop\n      pop\n      jump\t// out\n        /* \"#utility.yul\":21748:21962   */\n    tag_238:\n        /* \"#utility.yul\":21888:21954   */\n      0x19457468657265756d205369676e6564204d6573736167653a0a333200000000\n        /* \"#utility.yul\":21884:21885   */\n      0x00\n        /* \"#utility.yul\":21876:21882   */\n      dup3\n        /* \"#utility.yul\":21872:21886   */\n      add\n        /* \"#utility.yul\":21865:21955   */\n      mstore\n        /* \"#utility.yul\":21748:21962   */\n      pop\n      jump\t// out\n        /* \"#utility.yul\":21968:22370   */\n    tag_239:\n        /* \"#utility.yul\":22128:22131   */\n      0x00\n        /* \"#utility.yul\":22149:22234   */\n      tag_468\n        /* \"#utility.yul\":22231:22233   */\n      0x1c\n        /* \"#utility.yul\":22226:22229   */\n      dup4\n        /* \"#utility.yul\":22149:22234   */\n      tag_237\n      jump\t// in\n    tag_468:\n        /* \"#utility.yul\":22142:22234   */\n      swap2\n      pop\n        /* \"#utility.yul\":22243:22336   */\n      tag_469\n        /* \"#utility.yul\":22332:22335   */\n      dup3\n        /* \"#utility.yul\":22243:22336   */\n      tag_238\n      jump\t// in\n    tag_469:\n        /* \"#utility.yul\":22361:22363   */\n      0x1c\n        /* \"#utility.yul\":22356:22359   */\n      dup3\n        /* \"#utility.yul\":22352:22364   */\n      add\n        /* \"#utility.yul\":22345:22364   */\n      swap1\n      pop\n        /* \"#utility.yul\":21968:22370   */\n      swap2\n      swap1\n      pop\n      jump\t// out\n        /* \"#utility.yul\":22376:22455   */\n    tag_240:\n        /* \"#utility.yul\":22415:22422   */\n      0x00\n        /* \"#utility.yul\":22444:22449   */\n      dup2\n        /* \"#utility.yul\":22433:22449   */\n      swap1\n      pop\n        /* \"#utility.yul\":22376:22455   */\n      swap2\n      swap1\n      pop\n      jump\t// out\n        /* \"#utility.yul\":22461:22618   */\n    tag_241:\n        /* \"#utility.yul\":22566:22611   */\n      tag_472\n        /* \"#utility.yul\":22586:22610   */\n      tag_473\n        /* \"#utility.yul\":22604:22609   */\n      dup3\n        /* \"#utility.yul\":22586:22610   */\n      tag_193\n      jump\t// in\n    tag_473:\n        /* \"#utility.yul\":22566:22611   */\n      tag_240\n      jump\t// in\n    tag_472:\n        /* \"#utility.yul\":22561:22564   */\n      dup3\n        /* \"#utility.yul\":22554:22612   */\n      mstore\n        /* \"#utility.yul\":22461:22618   */\n      pop\n      pop\n      jump\t// out\n        /* \"#utility.yul\":22624:23146   */\n    tag_163:\n        /* \"#utility.yul\":22837:22840   */\n      0x00\n        /* \"#utility.yul\":22859:23007   */\n      tag_475\n        /* \"#utility.yul\":23003:23006   */\n      dup3\n        /* \"#utility.yul\":22859:23007   */\n      tag_239\n      jump\t// in\n    tag_475:\n        /* \"#utility.yul\":22852:23007   */\n      swap2\n      pop\n        /* \"#utility.yul\":23017:23092   */\n      tag_476\n        /* \"#utility.yul\":23088:23091   */\n      dup3\n        /* \"#utility.yul\":23079:23085   */\n      dup5\n        /* \"#utility.yul\":23017:23092   */\n      tag_241\n      jump\t// in\n    tag_476:\n        /* \"#utility.yul\":23117:23119   */\n      0x20\n        /* \"#utility.yul\":23112:23115   */\n      dup3\n        /* \"#utility.yul\":23108:23120   */\n      add\n        /* \"#utility.yul\":23101:23120   */\n      swap2\n      pop\n        /* \"#utility.yul\":23137:23140   */\n      dup2\n        /* \"#utility.yul\":23130:23140   */\n      swap1\n      pop\n        /* \"#utility.yul\":22624:23146   */\n      swap3\n      swap2\n      pop\n      pop\n      jump\t// out\n        /* \"#utility.yul\":23152:23334   */\n    tag_242:\n        /* \"#utility.yul\":23292:23326   */\n      0x4f776e61626c653a2063616c6c6572206973206e6f7420746865206f776e6572\n        /* \"#utility.yul\":23288:23289   */\n      0x00\n        /* \"#utility.yul\":23280:23286   */\n      dup3\n        /* \"#utility.yul\":23276:23290   */\n      add\n        /* \"#utility.yul\":23269:23327   */\n      mstore\n        /* \"#utility.yul\":23152:23334   */\n      pop\n      jump\t// out\n        /* \"#utility.yul\":23340:23706   */\n    tag_243:\n        /* \"#utility.yul\":23482:23485   */\n      0x00\n        /* \"#utility.yul\":23503:23570   */\n      tag_479\n        /* \"#utility.yul\":23567:23569   */\n      0x20\n        /* \"#utility.yul\":23562:23565   */\n      dup4\n        /* \"#utility.yul\":23503:23570   */\n      tag_208\n      jump\t// in\n    tag_479:\n        /* \"#utility.yul\":23496:23570   */\n      swap2\n      pop\n        /* \"#utility.yul\":23579:23672   */\n      tag_480\n        /* \"#utility.yul\":23668:23671   */\n      dup3\n        /* \"#utility.yul\":23579:23672   */\n      tag_242\n      jump\t// in\n    tag_480:\n        /* \"#utility.yul\":23697:23699   */\n      0x20\n        /* \"#utility.yul\":23692:23695   */\n      dup3\n        /* \"#utility.yul\":23688:23700   */\n      add\n        /* \"#utility.yul\":23681:23700   */\n      swap1\n      pop\n        /* \"#utility.yul\":23340:23706   */\n      swap2\n      swap1\n      pop\n      jump\t// out\n        /* \"#utility.yul\":23712:24131   */\n    tag_170:\n        /* \"#utility.yul\":23878:23882   */\n      0x00\n        /* \"#utility.yul\":23916:23918   */\n      0x20\n        /* \"#utility.yul\":23905:23914   */\n      dup3\n        /* \"#utility.yul\":23901:23919   */\n      add\n        /* \"#utility.yul\":23893:23919   */\n      swap1\n      pop\n        /* \"#utility.yul\":23965:23974   */\n      dup2\n        /* \"#utility.yul\":23959:23963   */\n      dup2\n        /* \"#utility.yul\":23955:23975   */\n      sub\n        /* \"#utility.yul\":23951:23952   */\n      0x00\n        /* \"#utility.yul\":23940:23949   */\n      dup4\n        /* \"#utility.yul\":23936:23953   */\n      add\n        /* \"#utility.yul\":23929:23976   */\n      mstore\n        /* \"#utility.yul\":23993:24124   */\n      tag_482\n        /* \"#utility.yul\":24119:24123   */\n      dup2\n        /* \"#utility.yul\":23993:24124   */\n      tag_243\n      jump\t// in\n    tag_482:\n        /* \"#utility.yul\":23985:24124   */\n      swap1\n      pop\n        /* \"#utility.yul\":23712:24131   */\n      swap2\n      swap1\n      pop\n      jump\t// out\n\n    auxdata: 0xa26469706673582212206389d4c96e998d43fc720e43da0c9962a742f1f1ea7cbf720f02d67e804fd36764736f6c63430008100033\n}\n",
				"bytecode": {
					"linkReferences": {},
					"object": "608060405260016009553480156200001657600080fd5b5060405162001db238038062001db283398181016040528101906200003c919062000336565b6200005c62000050620001c560201b60201c565b620001cd60201b60201c565b600180819055506000600260006101000a81548160ff021916908315150217905550600073ffffffffffffffffffffffffffffffffffffffff168273ffffffffffffffffffffffffffffffffffffffff1614158015620000e95750600073ffffffffffffffffffffffffffffffffffffffff168173ffffffffffffffffffffffffffffffffffffffff1614155b6200012b576040517f08c379a0000000000000000000000000000000000000000000000000000000008152600401620001229062000409565b60405180910390fd5b836004819055508260058190555081600660006101000a81548173ffffffffffffffffffffffffffffffffffffffff021916908373ffffffffffffffffffffffffffffffffffffffff16021790555080600760006101000a81548173ffffffffffffffffffffffffffffffffffffffff021916908373ffffffffffffffffffffffffffffffffffffffff160217905550505050506200042b565b600033905090565b60008060009054906101000a900473ffffffffffffffffffffffffffffffffffffffff169050816000806101000a81548173ffffffffffffffffffffffffffffffffffffffff021916908373ffffffffffffffffffffffffffffffffffffffff1602179055508173ffffffffffffffffffffffffffffffffffffffff168173ffffffffffffffffffffffffffffffffffffffff167f8be0079c531659141344cd1fd0a4f28419497f9722a3daafe3b4186f6b6457e060405160405180910390a35050565b600080fd5b6000819050919050565b620002ab8162000296565b8114620002b757600080fd5b50565b600081519050620002cb81620002a0565b92915050565b600073ffffffffffffffffffffffffffffffffffffffff82169050919050565b6000620002fe82620002d1565b9050919050565b6200031081620002f1565b81146200031c57600080fd5b50565b600081519050620003308162000305565b92915050565b6000806000806080858703121562000353576200035262000291565b5b60006200036387828801620002ba565b94505060206200037687828801620002ba565b935050604062000389878288016200031f565b92505060606200039c878288016200031f565b91505092959194509250565b600082825260208201905092915050565b7f4164647265737365732063616e6e6f74206265207a65726f0000000000000000600082015250565b6000620003f1601883620003a8565b9150620003fe82620003b9565b602082019050919050565b600060208201905081810360008301526200042481620003e2565b9050919050565b611977806200043b6000396000f3fe6080604052600436106100e85760003560e01c80638da5cb5b1161008a578063de74e57b11610059578063de74e57b146102d9578063e3b6a1f61461031a578063ed14834f14610357578063f2fde38b14610382576100e8565b80638da5cb5b1461022d578063aaccf1ec14610258578063ad2f852a14610283578063cdd78cfc146102ae576100e8565b80635c975abb116100c65780635c975abb14610183578063715018a6146101ae5780637ecebe00146101c55780638a71bb2d14610202576100e8565b8063028ef312146100ed5780630c53c51c146101165780633392972614610146575b600080fd5b3480156100f957600080fd5b50610114600480360381019061010f9190610da4565b6103ab565b005b610130600480360381019061012b9190610fd4565b610683565b60405161013d91906110ea565b60405180910390f35b34801561015257600080fd5b5061016d60048036038101906101689190610fd4565b61083d565b60405161017a9190611127565b60405180910390f35b34801561018f57600080fd5b50610198610951565b6040516101a59190611127565b60405180910390f35b3480156101ba57600080fd5b506101c3610968565b005b3480156101d157600080fd5b506101ec60048036038101906101e79190611142565b61097c565b6040516101f9919061117e565b60405180910390f35b34801561020e57600080fd5b50610217610994565b604051610224919061117e565b60405180910390f35b34801561023957600080fd5b5061024261099a565b60405161024f91906111a8565b60405180910390f35b34801561026457600080fd5b5061026d6109c3565b60405161027a919061117e565b60405180910390f35b34801561028f57600080fd5b506102986109c9565b6040516102a591906111a8565b60405180910390f35b3480156102ba57600080fd5b506102c36109ef565b6040516102d0919061117e565b60405180910390f35b3480156102e557600080fd5b5061030060048036038101906102fb91906111c3565b6109f5565b6040516103119594939291906111f0565b60405180910390f35b34801561032657600080fd5b50610341600480360381019061033c91906111c3565b610a6b565b60405161034e919061117e565b60405180910390f35b34801561036357600080fd5b5061036c610a8f565b60405161037991906111a8565b60405180910390f35b34801561038e57600080fd5b506103a960048036038101906103a49190611142565b610ab5565b005b6103b3610b38565b60008590508173ffffffffffffffffffffffffffffffffffffffff168173ffffffffffffffffffffffffffffffffffffffff16636352211e876040518263ffffffff1660e01b8152600401610408919061117e565b602060405180830381865afa158015610425573d6000803e3d6000fd5b505050506040513d601f19601f820116820180604052508101906104499190611258565b73ffffffffffffffffffffffffffffffffffffffff161461049f576040517f08c379a0000000000000000000000000000000000000000000000000000000008152600401610496906112e2565b60405180910390fd5b6040518060a001604052808773ffffffffffffffffffffffffffffffffffffffff1681526020018681526020018373ffffffffffffffffffffffffffffffffffffffff16815260200185815260200184426104fa9190611331565b81525060086000600954815260200190815260200160002060008201518160000160006101000a81548173ffffffffffffffffffffffffffffffffffffffff021916908373ffffffffffffffffffffffffffffffffffffffff1602179055506020820151816001015560408201518160020160006101000a81548173ffffffffffffffffffffffffffffffffffffffff021916908373ffffffffffffffffffffffffffffffffffffffff1602179055506060820151816003015560808201518160040155905050600360095490806001815401808255809150506001900390600052602060002001600090919091909150558573ffffffffffffffffffffffffffffffffffffffff168273ffffffffffffffffffffffffffffffffffffffff166009547ff33c76fec15a03b2e414df8c9dce93f5b05f8672742e0f1eb558b2161162dfcb8888884261064c9190611331565b60405161065b93929190611365565b60405180910390a4600960008154809291906106769061139c565b9190505550505050505050565b6060610692868686868661083d565b6106d1576040517f08c379a00000000000000000000000000000000000000000000000000000000081526004016106c890611456565b60405180910390fd5b600a60008773ffffffffffffffffffffffffffffffffffffffff1673ffffffffffffffffffffffffffffffffffffffff16815260200190815260200160002060008154809291906107219061139c565b91905055506000803073ffffffffffffffffffffffffffffffffffffffff1687896040516020016107539291906114fa565b60405160208183030381529060405260405161076f9190611522565b600060405180830381855af49150503d80600081146107aa576040519150601f19603f3d011682016040523d82523d6000602084013e6107af565b606091505b5091509150816107f4576040517f08c379a00000000000000000000000000000000000000000000000000000000081526004016107eb90611585565b60405180910390fd5b7f5845892132946850460bff5a0083f71031bc5bf9aadcd40f1de79423eac9b10b883389604051610827939291906115c6565b60405180910390a1809250505095945050505050565b6000808690506000600a60008973ffffffffffffffffffffffffffffffffffffffff1673ffffffffffffffffffffffffffffffffffffffff16815260200190815260200160002054905060006108be8383308b6040516020016108a3949392919061168c565b60405160208183030381529060405280519060200120610b82565b90506000600182878a8a604051600081526020016040526040516108e594939291906116f4565b6020604051602081039080840390855afa158015610907573d6000803e3d6000fd5b5050506020604051035190508973ffffffffffffffffffffffffffffffffffffffff168173ffffffffffffffffffffffffffffffffffffffff161494505050505095945050505050565b6000600260009054906101000a900460ff16905090565b610970610bb2565b61097a6000610c30565b565b600a6020528060005260406000206000915090505481565b60045481565b60008060009054906101000a900473ffffffffffffffffffffffffffffffffffffffff16905090565b60095481565b600660009054906101000a900473ffffffffffffffffffffffffffffffffffffffff1681565b60055481565b60086020528060005260406000206000915090508060000160009054906101000a900473ffffffffffffffffffffffffffffffffffffffff16908060010154908060020160009054906101000a900473ffffffffffffffffffffffffffffffffffffffff16908060030154908060040154905085565b60038181548110610a7b57600080fd5b906000526020600020016000915090505481565b600760009054906101000a900473ffffffffffffffffffffffffffffffffffffffff1681565b610abd610bb2565b600073ffffffffffffffffffffffffffffffffffffffff168173ffffffffffffffffffffffffffffffffffffffff1603610b2c576040517f08c379a0000000000000000000000000000000000000000000000000000000008152600401610b23906117ab565b60405180910390fd5b610b3581610c30565b50565b610b40610951565b15610b80576040517f08c379a0000000000000000000000000000000000000000000000000000000008152600401610b7790611817565b60405180910390fd5b565b600081604051602001610b9591906118af565b604051602081830303815290604052805190602001209050919050565b610bba610cf4565b73ffffffffffffffffffffffffffffffffffffffff16610bd861099a565b73ffffffffffffffffffffffffffffffffffffffff1614610c2e576040517f08c379a0000000000000000000000000000000000000000000000000000000008152600401610c2590611921565b60405180910390fd5b565b60008060009054906101000a900473ffffffffffffffffffffffffffffffffffffffff169050816000806101000a81548173ffffffffffffffffffffffffffffffffffffffff021916908373ffffffffffffffffffffffffffffffffffffffff1602179055508173ffffffffffffffffffffffffffffffffffffffff168173ffffffffffffffffffffffffffffffffffffffff167f8be0079c531659141344cd1fd0a4f28419497f9722a3daafe3b4186f6b6457e060405160405180910390a35050565b600033905090565b6000604051905090565b600080fd5b600080fd5b600073ffffffffffffffffffffffffffffffffffffffff82169050919050565b6000610d3b82610d10565b9050919050565b610d4b81610d30565b8114610d5657600080fd5b50565b600081359050610d6881610d42565b92915050565b6000819050919050565b610d8181610d6e565b8114610d8c57600080fd5b50565b600081359050610d9e81610d78565b92915050565b600080600080600060a08688031215610dc057610dbf610d06565b5b6000610dce88828901610d59565b9550506020610ddf88828901610d8f565b9450506040610df088828901610d8f565b9350506060610e0188828901610d8f565b9250506080610e1288828901610d59565b9150509295509295909350565b600080fd5b600080fd5b6000601f19601f8301169050919050565b7f4e487b7100000000000000000000000000000000000000000000000000000000600052604160045260246000fd5b610e7282610e29565b810181811067ffffffffffffffff82111715610e9157610e90610e3a565b5b80604052505050565b6000610ea4610cfc565b9050610eb08282610e69565b919050565b600067ffffffffffffffff821115610ed057610ecf610e3a565b5b610ed982610e29565b9050602081019050919050565b82818337600083830152505050565b6000610f08610f0384610eb5565b610e9a565b905082815260208101848484011115610f2457610f23610e24565b5b610f2f848285610ee6565b509392505050565b600082601f830112610f4c57610f4b610e1f565b5b8135610f5c848260208601610ef5565b91505092915050565b6000819050919050565b610f7881610f65565b8114610f8357600080fd5b50565b600081359050610f9581610f6f565b92915050565b600060ff82169050919050565b610fb181610f9b565b8114610fbc57600080fd5b50565b600081359050610fce81610fa8565b92915050565b600080600080600060a08688031215610ff057610fef610d06565b5b6000610ffe88828901610d59565b955050602086013567ffffffffffffffff81111561101f5761101e610d0b565b5b61102b88828901610f37565b945050604061103c88828901610f86565b935050606061104d88828901610f86565b925050608061105e88828901610fbf565b9150509295509295909350565b600081519050919050565b600082825260208201905092915050565b60005b838110156110a557808201518184015260208101905061108a565b60008484015250505050565b60006110bc8261106b565b6110c68185611076565b93506110d6818560208601611087565b6110df81610e29565b840191505092915050565b6000602082019050818103600083015261110481846110b1565b905092915050565b60008115159050919050565b6111218161110c565b82525050565b600060208201905061113c6000830184611118565b92915050565b60006020828403121561115857611157610d06565b5b600061116684828501610d59565b91505092915050565b61117881610d6e565b82525050565b6000602082019050611193600083018461116f565b92915050565b6111a281610d30565b82525050565b60006020820190506111bd6000830184611199565b92915050565b6000602082840312156111d9576111d8610d06565b5b60006111e784828501610d8f565b91505092915050565b600060a0820190506112056000830188611199565b611212602083018761116f565b61121f6040830186611199565b61122c606083018561116f565b611239608083018461116f565b9695505050505050565b60008151905061125281610d42565b92915050565b60006020828403121561126e5761126d610d06565b5b600061127c84828501611243565b91505092915050565b600082825260208201905092915050565b7f596f75206d757374206f776e20746865204e465420746f206c6973742069742e600082015250565b60006112cc602083611285565b91506112d782611296565b602082019050919050565b600060208201905081810360008301526112fb816112bf565b9050919050565b7f4e487b7100000000000000000000000000000000000000000000000000000000600052601160045260246000fd5b600061133c82610d6e565b915061134783610d6e565b925082820190508082111561135f5761135e611302565b5b92915050565b600060608201905061137a600083018661116f565b611387602083018561116f565b611394604083018461116f565b949350505050565b60006113a782610d6e565b91507fffffffffffffffffffffffffffffffffffffffffffffffffffffffffffffffff82036113d9576113d8611302565b5b600182019050919050565b7f5369676e657220616e64207369676e617475726520646f206e6f74206d61746360008201527f6800000000000000000000000000000000000000000000000000000000000000602082015250565b6000611440602183611285565b915061144b826113e4565b604082019050919050565b6000602082019050818103600083015261146f81611433565b9050919050565b600081905092915050565b600061148c8261106b565b6114968185611476565b93506114a6818560208601611087565b80840191505092915050565b60008160601b9050919050565b60006114ca826114b2565b9050919050565b60006114dc826114bf565b9050919050565b6114f46114ef82610d30565b6114d1565b82525050565b60006115068285611481565b915061151282846114e3565b6014820191508190509392505050565b600061152e8284611481565b915081905092915050565b7f46756e6374696f6e2063616c6c206661696c6564000000000000000000000000600082015250565b600061156f601483611285565b915061157a82611539565b602082019050919050565b6000602082019050818103600083015261159e81611562565b9050919050565b60006115b082610d10565b9050919050565b6115c0816115a5565b82525050565b60006060820190506115db6000830186611199565b6115e860208301856115b7565b81810360408301526115fa81846110b1565b9050949350505050565b6000819050919050565b61161f61161a82610d6e565b611604565b82525050565b6000819050919050565b600061164a61164561164084610d10565b611625565b610d10565b9050919050565b600061165c8261162f565b9050919050565b600061166e82611651565b9050919050565b61168661168182611663565b6114d1565b82525050565b600061169882876114e3565b6014820191506116a8828661160e565b6020820191506116b88285611675565b6014820191506116c88284611481565b915081905095945050505050565b6116df81610f65565b82525050565b6116ee81610f9b565b82525050565b600060808201905061170960008301876116d6565b61171660208301866116e5565b61172360408301856116d6565b61173060608301846116d6565b95945050505050565b7f4f776e61626c653a206e6577206f776e657220697320746865207a65726f206160008201527f6464726573730000000000000000000000000000000000000000000000000000602082015250565b6000611795602683611285565b91506117a082611739565b604082019050919050565b600060208201905081810360008301526117c481611788565b9050919050565b7f5061757361626c653a2070617573656400000000000000000000000000000000600082015250565b6000611801601083611285565b915061180c826117cb565b602082019050919050565b60006020820190508181036000830152611830816117f4565b9050919050565b600081905092915050565b7f19457468657265756d205369676e6564204d6573736167653a0a333200000000600082015250565b6000611878601c83611837565b915061188382611842565b601c82019050919050565b6000819050919050565b6118a96118a482610f65565b61188e565b82525050565b60006118ba8261186b565b91506118c68284611898565b60208201915081905092915050565b7f4f776e61626c653a2063616c6c6572206973206e6f7420746865206f776e6572600082015250565b600061190b602083611285565b9150611916826118d5565b602082019050919050565b6000602082019050818103600083015261193a816118fe565b905091905056fea26469706673582212206389d4c96e998d43fc720e43da0c9962a742f1f1ea7cbf720f02d67e804fd36764736f6c63430008100033",
					"opcodes": "PUSH1 0x80 PUSH1 0x40 MSTORE PUSH1 0x1 PUSH1 0x9 SSTORE CALLVALUE DUP1 ISZERO PUSH3 0x16 JUMPI PUSH1 0x0 DUP1 REVERT JUMPDEST POP PUSH1 0x40 MLOAD PUSH3 0x1DB2 CODESIZE SUB DUP1 PUSH3 0x1DB2 DUP4 CODECOPY DUP2 DUP2 ADD PUSH1 0x40 MSTORE DUP2 ADD SWAP1 PUSH3 0x3C SWAP2 SWAP1 PUSH3 0x336 JUMP JUMPDEST PUSH3 0x5C PUSH3 0x50 PUSH3 0x1C5 PUSH1 0x20 SHL PUSH1 0x20 SHR JUMP JUMPDEST PUSH3 0x1CD PUSH1 0x20 SHL PUSH1 0x20 SHR JUMP JUMPDEST PUSH1 0x1 DUP1 DUP2 SWAP1 SSTORE POP PUSH1 0x0 PUSH1 0x2 PUSH1 0x0 PUSH2 0x100 EXP DUP2 SLOAD DUP2 PUSH1 0xFF MUL NOT AND SWAP1 DUP4 ISZERO ISZERO MUL OR SWAP1 SSTORE POP PUSH1 0x0 PUSH20 0xFFFFFFFFFFFFFFFFFFFFFFFFFFFFFFFFFFFFFFFF AND DUP3 PUSH20 0xFFFFFFFFFFFFFFFFFFFFFFFFFFFFFFFFFFFFFFFF AND EQ ISZERO DUP1 ISZERO PUSH3 0xE9 JUMPI POP PUSH1 0x0 PUSH20 0xFFFFFFFFFFFFFFFFFFFFFFFFFFFFFFFFFFFFFFFF AND DUP2 PUSH20 0xFFFFFFFFFFFFFFFFFFFFFFFFFFFFFFFFFFFFFFFF AND EQ ISZERO JUMPDEST PUSH3 0x12B JUMPI PUSH1 0x40 MLOAD PUSH32 0x8C379A000000000000000000000000000000000000000000000000000000000 DUP2 MSTORE PUSH1 0x4 ADD PUSH3 0x122 SWAP1 PUSH3 0x409 JUMP JUMPDEST PUSH1 0x40 MLOAD DUP1 SWAP2 SUB SWAP1 REVERT JUMPDEST DUP4 PUSH1 0x4 DUP2 SWAP1 SSTORE POP DUP3 PUSH1 0x5 DUP2 SWAP1 SSTORE POP DUP2 PUSH1 0x6 PUSH1 0x0 PUSH2 0x100 EXP DUP2 SLOAD DUP2 PUSH20 0xFFFFFFFFFFFFFFFFFFFFFFFFFFFFFFFFFFFFFFFF MUL NOT AND SWAP1 DUP4 PUSH20 0xFFFFFFFFFFFFFFFFFFFFFFFFFFFFFFFFFFFFFFFF AND MUL OR SWAP1 SSTORE POP DUP1 PUSH1 0x7 PUSH1 0x0 PUSH2 0x100 EXP DUP2 SLOAD DUP2 PUSH20 0xFFFFFFFFFFFFFFFFFFFFFFFFFFFFFFFFFFFFFFFF MUL NOT AND SWAP1 DUP4 PUSH20 0xFFFFFFFFFFFFFFFFFFFFFFFFFFFFFFFFFFFFFFFF AND MUL OR SWAP1 SSTORE POP POP POP POP POP PUSH3 0x42B JUMP JUMPDEST PUSH1 0x0 CALLER SWAP1 POP SWAP1 JUMP JUMPDEST PUSH1 0x0 DUP1 PUSH1 0x0 SWAP1 SLOAD SWAP1 PUSH2 0x100 EXP SWAP1 DIV PUSH20 0xFFFFFFFFFFFFFFFFFFFFFFFFFFFFFFFFFFFFFFFF AND SWAP1 POP DUP2 PUSH1 0x0 DUP1 PUSH2 0x100 EXP DUP2 SLOAD DUP2 PUSH20 0xFFFFFFFFFFFFFFFFFFFFFFFFFFFFFFFFFFFFFFFF MUL NOT AND SWAP1 DUP4 PUSH20 0xFFFFFFFFFFFFFFFFFFFFFFFFFFFFFFFFFFFFFFFF AND MUL OR SWAP1 SSTORE POP DUP2 PUSH20 0xFFFFFFFFFFFFFFFFFFFFFFFFFFFFFFFFFFFFFFFF AND DUP2 PUSH20 0xFFFFFFFFFFFFFFFFFFFFFFFFFFFFFFFFFFFFFFFF AND PUSH32 0x8BE0079C531659141344CD1FD0A4F28419497F9722A3DAAFE3B4186F6B6457E0 PUSH1 0x40 MLOAD PUSH1 0x40 MLOAD DUP1 SWAP2 SUB SWAP1 LOG3 POP POP JUMP JUMPDEST PUSH1 0x0 DUP1 REVERT JUMPDEST PUSH1 0x0 DUP2 SWAP1 POP SWAP2 SWAP1 POP JUMP JUMPDEST PUSH3 0x2AB DUP2 PUSH3 0x296 JUMP JUMPDEST DUP2 EQ PUSH3 0x2B7 JUMPI PUSH1 0x0 DUP1 REVERT JUMPDEST POP JUMP JUMPDEST PUSH1 0x0 DUP2 MLOAD SWAP1 POP PUSH3 0x2CB DUP2 PUSH3 0x2A0 JUMP JUMPDEST SWAP3 SWAP2 POP POP JUMP JUMPDEST PUSH1 0x0 PUSH20 0xFFFFFFFFFFFFFFFFFFFFFFFFFFFFFFFFFFFFFFFF DUP3 AND SWAP1 POP SWAP2 SWAP1 POP JUMP JUMPDEST PUSH1 0x0 PUSH3 0x2FE DUP3 PUSH3 0x2D1 JUMP JUMPDEST SWAP1 POP SWAP2 SWAP1 POP JUMP JUMPDEST PUSH3 0x310 DUP2 PUSH3 0x2F1 JUMP JUMPDEST DUP2 EQ PUSH3 0x31C JUMPI PUSH1 0x0 DUP1 REVERT JUMPDEST POP JUMP JUMPDEST PUSH1 0x0 DUP2 MLOAD SWAP1 POP PUSH3 0x330 DUP2 PUSH3 0x305 JUMP JUMPDEST SWAP3 SWAP2 POP POP JUMP JUMPDEST PUSH1 0x0 DUP1 PUSH1 0x0 DUP1 PUSH1 0x80 DUP6 DUP8 SUB SLT ISZERO PUSH3 0x353 JUMPI PUSH3 0x352 PUSH3 0x291 JUMP JUMPDEST JUMPDEST PUSH1 0x0 PUSH3 0x363 DUP8 DUP3 DUP9 ADD PUSH3 0x2BA JUMP JUMPDEST SWAP5 POP POP PUSH1 0x20 PUSH3 0x376 DUP8 DUP3 DUP9 ADD PUSH3 0x2BA JUMP JUMPDEST SWAP4 POP POP PUSH1 0x40 PUSH3 0x389 DUP8 DUP3 DUP9 ADD PUSH3 0x31F JUMP JUMPDEST SWAP3 POP POP PUSH1 0x60 PUSH3 0x39C DUP8 DUP3 DUP9 ADD PUSH3 0x31F JUMP JUMPDEST SWAP2 POP POP SWAP3 SWAP6 SWAP2 SWAP5 POP SWAP3 POP JUMP JUMPDEST PUSH1 0x0 DUP3 DUP3 MSTORE PUSH1 0x20 DUP3 ADD SWAP1 POP SWAP3 SWAP2 POP POP JUMP JUMPDEST PUSH32 0x4164647265737365732063616E6E6F74206265207A65726F0000000000000000 PUSH1 0x0 DUP3 ADD MSTORE POP JUMP JUMPDEST PUSH1 0x0 PUSH3 0x3F1 PUSH1 0x18 DUP4 PUSH3 0x3A8 JUMP JUMPDEST SWAP2 POP PUSH3 0x3FE DUP3 PUSH3 0x3B9 JUMP JUMPDEST PUSH1 0x20 DUP3 ADD SWAP1 POP SWAP2 SWAP1 POP JUMP JUMPDEST PUSH1 0x0 PUSH1 0x20 DUP3 ADD SWAP1 POP DUP2 DUP2 SUB PUSH1 0x0 DUP4 ADD MSTORE PUSH3 0x424 DUP2 PUSH3 0x3E2 JUMP JUMPDEST SWAP1 POP SWAP2 SWAP1 POP JUMP JUMPDEST PUSH2 0x1977 DUP1 PUSH3 0x43B PUSH1 0x0 CODECOPY PUSH1 0x0 RETURN INVALID PUSH1 0x80 PUSH1 0x40 MSTORE PUSH1 0x4 CALLDATASIZE LT PUSH2 0xE8 JUMPI PUSH1 0x0 CALLDATALOAD PUSH1 0xE0 SHR DUP1 PUSH4 0x8DA5CB5B GT PUSH2 0x8A JUMPI DUP1 PUSH4 0xDE74E57B GT PUSH2 0x59 JUMPI DUP1 PUSH4 0xDE74E57B EQ PUSH2 0x2D9 JUMPI DUP1 PUSH4 0xE3B6A1F6 EQ PUSH2 0x31A JUMPI DUP1 PUSH4 0xED14834F EQ PUSH2 0x357 JUMPI DUP1 PUSH4 0xF2FDE38B EQ PUSH2 0x382 JUMPI PUSH2 0xE8 JUMP JUMPDEST DUP1 PUSH4 0x8DA5CB5B EQ PUSH2 0x22D JUMPI DUP1 PUSH4 0xAACCF1EC EQ PUSH2 0x258 JUMPI DUP1 PUSH4 0xAD2F852A EQ PUSH2 0x283 JUMPI DUP1 PUSH4 0xCDD78CFC EQ PUSH2 0x2AE JUMPI PUSH2 0xE8 JUMP JUMPDEST DUP1 PUSH4 0x5C975ABB GT PUSH2 0xC6 JUMPI DUP1 PUSH4 0x5C975ABB EQ PUSH2 0x183 JUMPI DUP1 PUSH4 0x715018A6 EQ PUSH2 0x1AE JUMPI DUP1 PUSH4 0x7ECEBE00 EQ PUSH2 0x1C5 JUMPI DUP1 PUSH4 0x8A71BB2D EQ PUSH2 0x202 JUMPI PUSH2 0xE8 JUMP JUMPDEST DUP1 PUSH4 0x28EF312 EQ PUSH2 0xED JUMPI DUP1 PUSH4 0xC53C51C EQ PUSH2 0x116 JUMPI DUP1 PUSH4 0x33929726 EQ PUSH2 0x146 JUMPI JUMPDEST PUSH1 0x0 DUP1 REVERT JUMPDEST CALLVALUE DUP1 ISZERO PUSH2 0xF9 JUMPI PUSH1 0x0 DUP1 REVERT JUMPDEST POP PUSH2 0x114 PUSH1 0x4 DUP1 CALLDATASIZE SUB DUP2 ADD SWAP1 PUSH2 0x10F SWAP2 SWAP1 PUSH2 0xDA4 JUMP JUMPDEST PUSH2 0x3AB JUMP JUMPDEST STOP JUMPDEST PUSH2 0x130 PUSH1 0x4 DUP1 CALLDATASIZE SUB DUP2 ADD SWAP1 PUSH2 0x12B SWAP2 SWAP1 PUSH2 0xFD4 JUMP JUMPDEST PUSH2 0x683 JUMP JUMPDEST PUSH1 0x40 MLOAD PUSH2 0x13D SWAP2 SWAP1 PUSH2 0x10EA JUMP JUMPDEST PUSH1 0x40 MLOAD DUP1 SWAP2 SUB SWAP1 RETURN JUMPDEST CALLVALUE DUP1 ISZERO PUSH2 0x152 JUMPI PUSH1 0x0 DUP1 REVERT JUMPDEST POP PUSH2 0x16D PUSH1 0x4 DUP1 CALLDATASIZE SUB DUP2 ADD SWAP1 PUSH2 0x168 SWAP2 SWAP1 PUSH2 0xFD4 JUMP JUMPDEST PUSH2 0x83D JUMP JUMPDEST PUSH1 0x40 MLOAD PUSH2 0x17A SWAP2 SWAP1 PUSH2 0x1127 JUMP JUMPDEST PUSH1 0x40 MLOAD DUP1 SWAP2 SUB SWAP1 RETURN JUMPDEST CALLVALUE DUP1 ISZERO PUSH2 0x18F JUMPI PUSH1 0x0 DUP1 REVERT JUMPDEST POP PUSH2 0x198 PUSH2 0x951 JUMP JUMPDEST PUSH1 0x40 MLOAD PUSH2 0x1A5 SWAP2 SWAP1 PUSH2 0x1127 JUMP JUMPDEST PUSH1 0x40 MLOAD DUP1 SWAP2 SUB SWAP1 RETURN JUMPDEST CALLVALUE DUP1 ISZERO PUSH2 0x1BA JUMPI PUSH1 0x0 DUP1 REVERT JUMPDEST POP PUSH2 0x1C3 PUSH2 0x968 JUMP JUMPDEST STOP JUMPDEST CALLVALUE DUP1 ISZERO PUSH2 0x1D1 JUMPI PUSH1 0x0 DUP1 REVERT JUMPDEST POP PUSH2 0x1EC PUSH1 0x4 DUP1 CALLDATASIZE SUB DUP2 ADD SWAP1 PUSH2 0x1E7 SWAP2 SWAP1 PUSH2 0x1142 JUMP JUMPDEST PUSH2 0x97C JUMP JUMPDEST PUSH1 0x40 MLOAD PUSH2 0x1F9 SWAP2 SWAP1 PUSH2 0x117E JUMP JUMPDEST PUSH1 0x40 MLOAD DUP1 SWAP2 SUB SWAP1 RETURN JUMPDEST CALLVALUE DUP1 ISZERO PUSH2 0x20E JUMPI PUSH1 0x0 DUP1 REVERT JUMPDEST POP PUSH2 0x217 PUSH2 0x994 JUMP JUMPDEST PUSH1 0x40 MLOAD PUSH2 0x224 SWAP2 SWAP1 PUSH2 0x117E JUMP JUMPDEST PUSH1 0x40 MLOAD DUP1 SWAP2 SUB SWAP1 RETURN JUMPDEST CALLVALUE DUP1 ISZERO PUSH2 0x239 JUMPI PUSH1 0x0 DUP1 REVERT JUMPDEST POP PUSH2 0x242 PUSH2 0x99A JUMP JUMPDEST PUSH1 0x40 MLOAD PUSH2 0x24F SWAP2 SWAP1 PUSH2 0x11A8 JUMP JUMPDEST PUSH1 0x40 MLOAD DUP1 SWAP2 SUB SWAP1 RETURN JUMPDEST CALLVALUE DUP1 ISZERO PUSH2 0x264 JUMPI PUSH1 0x0 DUP1 REVERT JUMPDEST POP PUSH2 0x26D PUSH2 0x9C3 JUMP JUMPDEST PUSH1 0x40 MLOAD PUSH2 0x27A SWAP2 SWAP1 PUSH2 0x117E JUMP JUMPDEST PUSH1 0x40 MLOAD DUP1 SWAP2 SUB SWAP1 RETURN JUMPDEST CALLVALUE DUP1 ISZERO PUSH2 0x28F JUMPI PUSH1 0x0 DUP1 REVERT JUMPDEST POP PUSH2 0x298 PUSH2 0x9C9 JUMP JUMPDEST PUSH1 0x40 MLOAD PUSH2 0x2A5 SWAP2 SWAP1 PUSH2 0x11A8 JUMP JUMPDEST PUSH1 0x40 MLOAD DUP1 SWAP2 SUB SWAP1 RETURN JUMPDEST CALLVALUE DUP1 ISZERO PUSH2 0x2BA JUMPI PUSH1 0x0 DUP1 REVERT JUMPDEST POP PUSH2 0x2C3 PUSH2 0x9EF JUMP JUMPDEST PUSH1 0x40 MLOAD PUSH2 0x2D0 SWAP2 SWAP1 PUSH2 0x117E JUMP JUMPDEST PUSH1 0x40 MLOAD DUP1 SWAP2 SUB SWAP1 RETURN JUMPDEST CALLVALUE DUP1 ISZERO PUSH2 0x2E5 JUMPI PUSH1 0x0 DUP1 REVERT JUMPDEST POP PUSH2 0x300 PUSH1 0x4 DUP1 CALLDATASIZE SUB DUP2 ADD SWAP1 PUSH2 0x2FB SWAP2 SWAP1 PUSH2 0x11C3 JUMP JUMPDEST PUSH2 0x9F5 JUMP JUMPDEST PUSH1 0x40 MLOAD PUSH2 0x311 SWAP6 SWAP5 SWAP4 SWAP3 SWAP2 SWAP1 PUSH2 0x11F0 JUMP JUMPDEST PUSH1 0x40 MLOAD DUP1 SWAP2 SUB SWAP1 RETURN JUMPDEST CALLVALUE DUP1 ISZERO PUSH2 0x326 JUMPI PUSH1 0x0 DUP1 REVERT JUMPDEST POP PUSH2 0x341 PUSH1 0x4 DUP1 CALLDATASIZE SUB DUP2 ADD SWAP1 PUSH2 0x33C SWAP2 SWAP1 PUSH2 0x11C3 JUMP JUMPDEST PUSH2 0xA6B JUMP JUMPDEST PUSH1 0x40 MLOAD PUSH2 0x34E SWAP2 SWAP1 PUSH2 0x117E JUMP JUMPDEST PUSH1 0x40 MLOAD DUP1 SWAP2 SUB SWAP1 RETURN JUMPDEST CALLVALUE DUP1 ISZERO PUSH2 0x363 JUMPI PUSH1 0x0 DUP1 REVERT JUMPDEST POP PUSH2 0x36C PUSH2 0xA8F JUMP JUMPDEST PUSH1 0x40 MLOAD PUSH2 0x379 SWAP2 SWAP1 PUSH2 0x11A8 JUMP JUMPDEST PUSH1 0x40 MLOAD DUP1 SWAP2 SUB SWAP1 RETURN JUMPDEST CALLVALUE DUP1 ISZERO PUSH2 0x38E JUMPI PUSH1 0x0 DUP1 REVERT JUMPDEST POP PUSH2 0x3A9 PUSH1 0x4 DUP1 CALLDATASIZE SUB DUP2 ADD SWAP1 PUSH2 0x3A4 SWAP2 SWAP1 PUSH2 0x1142 JUMP JUMPDEST PUSH2 0xAB5 JUMP JUMPDEST STOP JUMPDEST PUSH2 0x3B3 PUSH2 0xB38 JUMP JUMPDEST PUSH1 0x0 DUP6 SWAP1 POP DUP2 PUSH20 0xFFFFFFFFFFFFFFFFFFFFFFFFFFFFFFFFFFFFFFFF AND DUP2 PUSH20 0xFFFFFFFFFFFFFFFFFFFFFFFFFFFFFFFFFFFFFFFF AND PUSH4 0x6352211E DUP8 PUSH1 0x40 MLOAD DUP3 PUSH4 0xFFFFFFFF AND PUSH1 0xE0 SHL DUP2 MSTORE PUSH1 0x4 ADD PUSH2 0x408 SWAP2 SWAP1 PUSH2 0x117E JUMP JUMPDEST PUSH1 0x20 PUSH1 0x40 MLOAD DUP1 DUP4 SUB DUP2 DUP7 GAS STATICCALL ISZERO DUP1 ISZERO PUSH2 0x425 JUMPI RETURNDATASIZE PUSH1 0x0 DUP1 RETURNDATACOPY RETURNDATASIZE PUSH1 0x0 REVERT JUMPDEST POP POP POP POP PUSH1 0x40 MLOAD RETURNDATASIZE PUSH1 0x1F NOT PUSH1 0x1F DUP3 ADD AND DUP3 ADD DUP1 PUSH1 0x40 MSTORE POP DUP2 ADD SWAP1 PUSH2 0x449 SWAP2 SWAP1 PUSH2 0x1258 JUMP JUMPDEST PUSH20 0xFFFFFFFFFFFFFFFFFFFFFFFFFFFFFFFFFFFFFFFF AND EQ PUSH2 0x49F JUMPI PUSH1 0x40 MLOAD PUSH32 0x8C379A000000000000000000000000000000000000000000000000000000000 DUP2 MSTORE PUSH1 0x4 ADD PUSH2 0x496 SWAP1 PUSH2 0x12E2 JUMP JUMPDEST PUSH1 0x40 MLOAD DUP1 SWAP2 SUB SWAP1 REVERT JUMPDEST PUSH1 0x40 MLOAD DUP1 PUSH1 0xA0 ADD PUSH1 0x40 MSTORE DUP1 DUP8 PUSH20 0xFFFFFFFFFFFFFFFFFFFFFFFFFFFFFFFFFFFFFFFF AND DUP2 MSTORE PUSH1 0x20 ADD DUP7 DUP2 MSTORE PUSH1 0x20 ADD DUP4 PUSH20 0xFFFFFFFFFFFFFFFFFFFFFFFFFFFFFFFFFFFFFFFF AND DUP2 MSTORE PUSH1 0x20 ADD DUP6 DUP2 MSTORE PUSH1 0x20 ADD DUP5 TIMESTAMP PUSH2 0x4FA SWAP2 SWAP1 PUSH2 0x1331 JUMP JUMPDEST DUP2 MSTORE POP PUSH1 0x8 PUSH1 0x0 PUSH1 0x9 SLOAD DUP2 MSTORE PUSH1 0x20 ADD SWAP1 DUP2 MSTORE PUSH1 0x20 ADD PUSH1 0x0 KECCAK256 PUSH1 0x0 DUP3 ADD MLOAD DUP2 PUSH1 0x0 ADD PUSH1 0x0 PUSH2 0x100 EXP DUP2 SLOAD DUP2 PUSH20 0xFFFFFFFFFFFFFFFFFFFFFFFFFFFFFFFFFFFFFFFF MUL NOT AND SWAP1 DUP4 PUSH20 0xFFFFFFFFFFFFFFFFFFFFFFFFFFFFFFFFFFFFFFFF AND MUL OR SWAP1 SSTORE POP PUSH1 0x20 DUP3 ADD MLOAD DUP2 PUSH1 0x1 ADD SSTORE PUSH1 0x40 DUP3 ADD MLOAD DUP2 PUSH1 0x2 ADD PUSH1 0x0 PUSH2 0x100 EXP DUP2 SLOAD DUP2 PUSH20 0xFFFFFFFFFFFFFFFFFFFFFFFFFFFFFFFFFFFFFFFF MUL NOT AND SWAP1 DUP4 PUSH20 0xFFFFFFFFFFFFFFFFFFFFFFFFFFFFFFFFFFFFFFFF AND MUL OR SWAP1 SSTORE POP PUSH1 0x60 DUP3 ADD MLOAD DUP2 PUSH1 0x3 ADD SSTORE PUSH1 0x80 DUP3 ADD MLOAD DUP2 PUSH1 0x4 ADD SSTORE SWAP1 POP POP PUSH1 0x3 PUSH1 0x9 SLOAD SWAP1 DUP1 PUSH1 0x1 DUP2 SLOAD ADD DUP1 DUP3 SSTORE DUP1 SWAP2 POP POP PUSH1 0x1 SWAP1 SUB SWAP1 PUSH1 0x0 MSTORE PUSH1 0x20 PUSH1 0x0 KECCAK256 ADD PUSH1 0x0 SWAP1 SWAP2 SWAP1 SWAP2 SWAP1 SWAP2 POP SSTORE DUP6 PUSH20 0xFFFFFFFFFFFFFFFFFFFFFFFFFFFFFFFFFFFFFFFF AND DUP3 PUSH20 0xFFFFFFFFFFFFFFFFFFFFFFFFFFFFFFFFFFFFFFFF AND PUSH1 0x9 SLOAD PUSH32 0xF33C76FEC15A03B2E414DF8C9DCE93F5B05F8672742E0F1EB558B2161162DFCB DUP9 DUP9 DUP9 TIMESTAMP PUSH2 0x64C SWAP2 SWAP1 PUSH2 0x1331 JUMP JUMPDEST PUSH1 0x40 MLOAD PUSH2 0x65B SWAP4 SWAP3 SWAP2 SWAP1 PUSH2 0x1365 JUMP JUMPDEST PUSH1 0x40 MLOAD DUP1 SWAP2 SUB SWAP1 LOG4 PUSH1 0x9 PUSH1 0x0 DUP2 SLOAD DUP1 SWAP3 SWAP2 SWAP1 PUSH2 0x676 SWAP1 PUSH2 0x139C JUMP JUMPDEST SWAP2 SWAP1 POP SSTORE POP POP POP POP POP POP POP JUMP JUMPDEST PUSH1 0x60 PUSH2 0x692 DUP7 DUP7 DUP7 DUP7 DUP7 PUSH2 0x83D JUMP JUMPDEST PUSH2 0x6D1 JUMPI PUSH1 0x40 MLOAD PUSH32 0x8C379A000000000000000000000000000000000000000000000000000000000 DUP2 MSTORE PUSH1 0x4 ADD PUSH2 0x6C8 SWAP1 PUSH2 0x1456 JUMP JUMPDEST PUSH1 0x40 MLOAD DUP1 SWAP2 SUB SWAP1 REVERT JUMPDEST PUSH1 0xA PUSH1 0x0 DUP8 PUSH20 0xFFFFFFFFFFFFFFFFFFFFFFFFFFFFFFFFFFFFFFFF AND PUSH20 0xFFFFFFFFFFFFFFFFFFFFFFFFFFFFFFFFFFFFFFFF AND DUP2 MSTORE PUSH1 0x20 ADD SWAP1 DUP2 MSTORE PUSH1 0x20 ADD PUSH1 0x0 KECCAK256 PUSH1 0x0 DUP2 SLOAD DUP1 SWAP3 SWAP2 SWAP1 PUSH2 0x721 SWAP1 PUSH2 0x139C JUMP JUMPDEST SWAP2 SWAP1 POP SSTORE POP PUSH1 0x0 DUP1 ADDRESS PUSH20 0xFFFFFFFFFFFFFFFFFFFFFFFFFFFFFFFFFFFFFFFF AND DUP8 DUP10 PUSH1 0x40 MLOAD PUSH1 0x20 ADD PUSH2 0x753 SWAP3 SWAP2 SWAP1 PUSH2 0x14FA JUMP JUMPDEST PUSH1 0x40 MLOAD PUSH1 0x20 DUP2 DUP4 SUB SUB DUP2 MSTORE SWAP1 PUSH1 0x40 MSTORE PUSH1 0x40 MLOAD PUSH2 0x76F SWAP2 SWAP1 PUSH2 0x1522 JUMP JUMPDEST PUSH1 0x0 PUSH1 0x40 MLOAD DUP1 DUP4 SUB DUP2 DUP6 GAS DELEGATECALL SWAP2 POP POP RETURNDATASIZE DUP1 PUSH1 0x0 DUP2 EQ PUSH2 0x7AA JUMPI PUSH1 0x40 MLOAD SWAP2 POP PUSH1 0x1F NOT PUSH1 0x3F RETURNDATASIZE ADD AND DUP3 ADD PUSH1 0x40 MSTORE RETURNDATASIZE DUP3 MSTORE RETURNDATASIZE PUSH1 0x0 PUSH1 0x20 DUP5 ADD RETURNDATACOPY PUSH2 0x7AF JUMP JUMPDEST PUSH1 0x60 SWAP2 POP JUMPDEST POP SWAP2 POP SWAP2 POP DUP2 PUSH2 0x7F4 JUMPI PUSH1 0x40 MLOAD PUSH32 0x8C379A000000000000000000000000000000000000000000000000000000000 DUP2 MSTORE PUSH1 0x4 ADD PUSH2 0x7EB SWAP1 PUSH2 0x1585 JUMP JUMPDEST PUSH1 0x40 MLOAD DUP1 SWAP2 SUB SWAP1 REVERT JUMPDEST PUSH32 0x5845892132946850460BFF5A0083F71031BC5BF9AADCD40F1DE79423EAC9B10B DUP9 CALLER DUP10 PUSH1 0x40 MLOAD PUSH2 0x827 SWAP4 SWAP3 SWAP2 SWAP1 PUSH2 0x15C6 JUMP JUMPDEST PUSH1 0x40 MLOAD DUP1 SWAP2 SUB SWAP1 LOG1 DUP1 SWAP3 POP POP POP SWAP6 SWAP5 POP POP POP POP POP JUMP JUMPDEST PUSH1 0x0 DUP1 DUP7 SWAP1 POP PUSH1 0x0 PUSH1 0xA PUSH1 0x0 DUP10 PUSH20 0xFFFFFFFFFFFFFFFFFFFFFFFFFFFFFFFFFFFFFFFF AND PUSH20 0xFFFFFFFFFFFFFFFFFFFFFFFFFFFFFFFFFFFFFFFF AND DUP2 MSTORE PUSH1 0x20 ADD SWAP1 DUP2 MSTORE PUSH1 0x20 ADD PUSH1 0x0 KECCAK256 SLOAD SWAP1 POP PUSH1 0x0 PUSH2 0x8BE DUP4 DUP4 ADDRESS DUP12 PUSH1 0x40 MLOAD PUSH1 0x20 ADD PUSH2 0x8A3 SWAP5 SWAP4 SWAP3 SWAP2 SWAP1 PUSH2 0x168C JUMP JUMPDEST PUSH1 0x40 MLOAD PUSH1 0x20 DUP2 DUP4 SUB SUB DUP2 MSTORE SWAP1 PUSH1 0x40 MSTORE DUP1 MLOAD SWAP1 PUSH1 0x20 ADD KECCAK256 PUSH2 0xB82 JUMP JUMPDEST SWAP1 POP PUSH1 0x0 PUSH1 0x1 DUP3 DUP8 DUP11 DUP11 PUSH1 0x40 MLOAD PUSH1 0x0 DUP2 MSTORE PUSH1 0x20 ADD PUSH1 0x40 MSTORE PUSH1 0x40 MLOAD PUSH2 0x8E5 SWAP5 SWAP4 SWAP3 SWAP2 SWAP1 PUSH2 0x16F4 JUMP JUMPDEST PUSH1 0x20 PUSH1 0x40 MLOAD PUSH1 0x20 DUP2 SUB SWAP1 DUP1 DUP5 SUB SWAP1 DUP6 GAS STATICCALL ISZERO DUP1 ISZERO PUSH2 0x907 JUMPI RETURNDATASIZE PUSH1 0x0 DUP1 RETURNDATACOPY RETURNDATASIZE PUSH1 0x0 REVERT JUMPDEST POP POP POP PUSH1 0x20 PUSH1 0x40 MLOAD SUB MLOAD SWAP1 POP DUP10 PUSH20 0xFFFFFFFFFFFFFFFFFFFFFFFFFFFFFFFFFFFFFFFF AND DUP2 PUSH20 0xFFFFFFFFFFFFFFFFFFFFFFFFFFFFFFFFFFFFFFFF AND EQ SWAP5 POP POP POP POP POP SWAP6 SWAP5 POP POP POP POP POP JUMP JUMPDEST PUSH1 0x0 PUSH1 0x2 PUSH1 0x0 SWAP1 SLOAD SWAP1 PUSH2 0x100 EXP SWAP1 DIV PUSH1 0xFF AND SWAP1 POP SWAP1 JUMP JUMPDEST PUSH2 0x970 PUSH2 0xBB2 JUMP JUMPDEST PUSH2 0x97A PUSH1 0x0 PUSH2 0xC30 JUMP JUMPDEST JUMP JUMPDEST PUSH1 0xA PUSH1 0x20 MSTORE DUP1 PUSH1 0x0 MSTORE PUSH1 0x40 PUSH1 0x0 KECCAK256 PUSH1 0x0 SWAP2 POP SWAP1 POP SLOAD DUP2 JUMP JUMPDEST PUSH1 0x4 SLOAD DUP2 JUMP JUMPDEST PUSH1 0x0 DUP1 PUSH1 0x0 SWAP1 SLOAD SWAP1 PUSH2 0x100 EXP SWAP1 DIV PUSH20 0xFFFFFFFFFFFFFFFFFFFFFFFFFFFFFFFFFFFFFFFF AND SWAP1 POP SWAP1 JUMP JUMPDEST PUSH1 0x9 SLOAD DUP2 JUMP JUMPDEST PUSH1 0x6 PUSH1 0x0 SWAP1 SLOAD SWAP1 PUSH2 0x100 EXP SWAP1 DIV PUSH20 0xFFFFFFFFFFFFFFFFFFFFFFFFFFFFFFFFFFFFFFFF AND DUP2 JUMP JUMPDEST PUSH1 0x5 SLOAD DUP2 JUMP JUMPDEST PUSH1 0x8 PUSH1 0x20 MSTORE DUP1 PUSH1 0x0 MSTORE PUSH1 0x40 PUSH1 0x0 KECCAK256 PUSH1 0x0 SWAP2 POP SWAP1 POP DUP1 PUSH1 0x0 ADD PUSH1 0x0 SWAP1 SLOAD SWAP1 PUSH2 0x100 EXP SWAP1 DIV PUSH20 0xFFFFFFFFFFFFFFFFFFFFFFFFFFFFFFFFFFFFFFFF AND SWAP1 DUP1 PUSH1 0x1 ADD SLOAD SWAP1 DUP1 PUSH1 0x2 ADD PUSH1 0x0 SWAP1 SLOAD SWAP1 PUSH2 0x100 EXP SWAP1 DIV PUSH20 0xFFFFFFFFFFFFFFFFFFFFFFFFFFFFFFFFFFFFFFFF AND SWAP1 DUP1 PUSH1 0x3 ADD SLOAD SWAP1 DUP1 PUSH1 0x4 ADD SLOAD SWAP1 POP DUP6 JUMP JUMPDEST PUSH1 0x3 DUP2 DUP2 SLOAD DUP2 LT PUSH2 0xA7B JUMPI PUSH1 0x0 DUP1 REVERT JUMPDEST SWAP1 PUSH1 0x0 MSTORE PUSH1 0x20 PUSH1 0x0 KECCAK256 ADD PUSH1 0x0 SWAP2 POP SWAP1 POP SLOAD DUP2 JUMP JUMPDEST PUSH1 0x7 PUSH1 0x0 SWAP1 SLOAD SWAP1 PUSH2 0x100 EXP SWAP1 DIV PUSH20 0xFFFFFFFFFFFFFFFFFFFFFFFFFFFFFFFFFFFFFFFF AND DUP2 JUMP JUMPDEST PUSH2 0xABD PUSH2 0xBB2 JUMP JUMPDEST PUSH1 0x0 PUSH20 0xFFFFFFFFFFFFFFFFFFFFFFFFFFFFFFFFFFFFFFFF AND DUP2 PUSH20 0xFFFFFFFFFFFFFFFFFFFFFFFFFFFFFFFFFFFFFFFF AND SUB PUSH2 0xB2C JUMPI PUSH1 0x40 MLOAD PUSH32 0x8C379A000000000000000000000000000000000000000000000000000000000 DUP2 MSTORE PUSH1 0x4 ADD PUSH2 0xB23 SWAP1 PUSH2 0x17AB JUMP JUMPDEST PUSH1 0x40 MLOAD DUP1 SWAP2 SUB SWAP1 REVERT JUMPDEST PUSH2 0xB35 DUP2 PUSH2 0xC30 JUMP JUMPDEST POP JUMP JUMPDEST PUSH2 0xB40 PUSH2 0x951 JUMP JUMPDEST ISZERO PUSH2 0xB80 JUMPI PUSH1 0x40 MLOAD PUSH32 0x8C379A000000000000000000000000000000000000000000000000000000000 DUP2 MSTORE PUSH1 0x4 ADD PUSH2 0xB77 SWAP1 PUSH2 0x1817 JUMP JUMPDEST PUSH1 0x40 MLOAD DUP1 SWAP2 SUB SWAP1 REVERT JUMPDEST JUMP JUMPDEST PUSH1 0x0 DUP2 PUSH1 0x40 MLOAD PUSH1 0x20 ADD PUSH2 0xB95 SWAP2 SWAP1 PUSH2 0x18AF JUMP JUMPDEST PUSH1 0x40 MLOAD PUSH1 0x20 DUP2 DUP4 SUB SUB DUP2 MSTORE SWAP1 PUSH1 0x40 MSTORE DUP1 MLOAD SWAP1 PUSH1 0x20 ADD KECCAK256 SWAP1 POP SWAP2 SWAP1 POP JUMP JUMPDEST PUSH2 0xBBA PUSH2 0xCF4 JUMP JUMPDEST PUSH20 0xFFFFFFFFFFFFFFFFFFFFFFFFFFFFFFFFFFFFFFFF AND PUSH2 0xBD8 PUSH2 0x99A JUMP JUMPDEST PUSH20 0xFFFFFFFFFFFFFFFFFFFFFFFFFFFFFFFFFFFFFFFF AND EQ PUSH2 0xC2E JUMPI PUSH1 0x40 MLOAD PUSH32 0x8C379A000000000000000000000000000000000000000000000000000000000 DUP2 MSTORE PUSH1 0x4 ADD PUSH2 0xC25 SWAP1 PUSH2 0x1921 JUMP JUMPDEST PUSH1 0x40 MLOAD DUP1 SWAP2 SUB SWAP1 REVERT JUMPDEST JUMP JUMPDEST PUSH1 0x0 DUP1 PUSH1 0x0 SWAP1 SLOAD SWAP1 PUSH2 0x100 EXP SWAP1 DIV PUSH20 0xFFFFFFFFFFFFFFFFFFFFFFFFFFFFFFFFFFFFFFFF AND SWAP1 POP DUP2 PUSH1 0x0 DUP1 PUSH2 0x100 EXP DUP2 SLOAD DUP2 PUSH20 0xFFFFFFFFFFFFFFFFFFFFFFFFFFFFFFFFFFFFFFFF MUL NOT AND SWAP1 DUP4 PUSH20 0xFFFFFFFFFFFFFFFFFFFFFFFFFFFFFFFFFFFFFFFF AND MUL OR SWAP1 SSTORE POP DUP2 PUSH20 0xFFFFFFFFFFFFFFFFFFFFFFFFFFFFFFFFFFFFFFFF AND DUP2 PUSH20 0xFFFFFFFFFFFFFFFFFFFFFFFFFFFFFFFFFFFFFFFF AND PUSH32 0x8BE0079C531659141344CD1FD0A4F28419497F9722A3DAAFE3B4186F6B6457E0 PUSH1 0x40 MLOAD PUSH1 0x40 MLOAD DUP1 SWAP2 SUB SWAP1 LOG3 POP POP JUMP JUMPDEST PUSH1 0x0 CALLER SWAP1 POP SWAP1 JUMP JUMPDEST PUSH1 0x0 PUSH1 0x40 MLOAD SWAP1 POP SWAP1 JUMP JUMPDEST PUSH1 0x0 DUP1 REVERT JUMPDEST PUSH1 0x0 DUP1 REVERT JUMPDEST PUSH1 0x0 PUSH20 0xFFFFFFFFFFFFFFFFFFFFFFFFFFFFFFFFFFFFFFFF DUP3 AND SWAP1 POP SWAP2 SWAP1 POP JUMP JUMPDEST PUSH1 0x0 PUSH2 0xD3B DUP3 PUSH2 0xD10 JUMP JUMPDEST SWAP1 POP SWAP2 SWAP1 POP JUMP JUMPDEST PUSH2 0xD4B DUP2 PUSH2 0xD30 JUMP JUMPDEST DUP2 EQ PUSH2 0xD56 JUMPI PUSH1 0x0 DUP1 REVERT JUMPDEST POP JUMP JUMPDEST PUSH1 0x0 DUP2 CALLDATALOAD SWAP1 POP PUSH2 0xD68 DUP2 PUSH2 0xD42 JUMP JUMPDEST SWAP3 SWAP2 POP POP JUMP JUMPDEST PUSH1 0x0 DUP2 SWAP1 POP SWAP2 SWAP1 POP JUMP JUMPDEST PUSH2 0xD81 DUP2 PUSH2 0xD6E JUMP JUMPDEST DUP2 EQ PUSH2 0xD8C JUMPI PUSH1 0x0 DUP1 REVERT JUMPDEST POP JUMP JUMPDEST PUSH1 0x0 DUP2 CALLDATALOAD SWAP1 POP PUSH2 0xD9E DUP2 PUSH2 0xD78 JUMP JUMPDEST SWAP3 SWAP2 POP POP JUMP JUMPDEST PUSH1 0x0 DUP1 PUSH1 0x0 DUP1 PUSH1 0x0 PUSH1 0xA0 DUP7 DUP9 SUB SLT ISZERO PUSH2 0xDC0 JUMPI PUSH2 0xDBF PUSH2 0xD06 JUMP JUMPDEST JUMPDEST PUSH1 0x0 PUSH2 0xDCE DUP9 DUP3 DUP10 ADD PUSH2 0xD59 JUMP JUMPDEST SWAP6 POP POP PUSH1 0x20 PUSH2 0xDDF DUP9 DUP3 DUP10 ADD PUSH2 0xD8F JUMP JUMPDEST SWAP5 POP POP PUSH1 0x40 PUSH2 0xDF0 DUP9 DUP3 DUP10 ADD PUSH2 0xD8F JUMP JUMPDEST SWAP4 POP POP PUSH1 0x60 PUSH2 0xE01 DUP9 DUP3 DUP10 ADD PUSH2 0xD8F JUMP JUMPDEST SWAP3 POP POP PUSH1 0x80 PUSH2 0xE12 DUP9 DUP3 DUP10 ADD PUSH2 0xD59 JUMP JUMPDEST SWAP2 POP POP SWAP3 SWAP6 POP SWAP3 SWAP6 SWAP1 SWAP4 POP JUMP JUMPDEST PUSH1 0x0 DUP1 REVERT JUMPDEST PUSH1 0x0 DUP1 REVERT JUMPDEST PUSH1 0x0 PUSH1 0x1F NOT PUSH1 0x1F DUP4 ADD AND SWAP1 POP SWAP2 SWAP1 POP JUMP JUMPDEST PUSH32 0x4E487B7100000000000000000000000000000000000000000000000000000000 PUSH1 0x0 MSTORE PUSH1 0x41 PUSH1 0x4 MSTORE PUSH1 0x24 PUSH1 0x0 REVERT JUMPDEST PUSH2 0xE72 DUP3 PUSH2 0xE29 JUMP JUMPDEST DUP2 ADD DUP2 DUP2 LT PUSH8 0xFFFFFFFFFFFFFFFF DUP3 GT OR ISZERO PUSH2 0xE91 JUMPI PUSH2 0xE90 PUSH2 0xE3A JUMP JUMPDEST JUMPDEST DUP1 PUSH1 0x40 MSTORE POP POP POP JUMP JUMPDEST PUSH1 0x0 PUSH2 0xEA4 PUSH2 0xCFC JUMP JUMPDEST SWAP1 POP PUSH2 0xEB0 DUP3 DUP3 PUSH2 0xE69 JUMP JUMPDEST SWAP2 SWAP1 POP JUMP JUMPDEST PUSH1 0x0 PUSH8 0xFFFFFFFFFFFFFFFF DUP3 GT ISZERO PUSH2 0xED0 JUMPI PUSH2 0xECF PUSH2 0xE3A JUMP JUMPDEST JUMPDEST PUSH2 0xED9 DUP3 PUSH2 0xE29 JUMP JUMPDEST SWAP1 POP PUSH1 0x20 DUP2 ADD SWAP1 POP SWAP2 SWAP1 POP JUMP JUMPDEST DUP3 DUP2 DUP4 CALLDATACOPY PUSH1 0x0 DUP4 DUP4 ADD MSTORE POP POP POP JUMP JUMPDEST PUSH1 0x0 PUSH2 0xF08 PUSH2 0xF03 DUP5 PUSH2 0xEB5 JUMP JUMPDEST PUSH2 0xE9A JUMP JUMPDEST SWAP1 POP DUP3 DUP2 MSTORE PUSH1 0x20 DUP2 ADD DUP5 DUP5 DUP5 ADD GT ISZERO PUSH2 0xF24 JUMPI PUSH2 0xF23 PUSH2 0xE24 JUMP JUMPDEST JUMPDEST PUSH2 0xF2F DUP5 DUP3 DUP6 PUSH2 0xEE6 JUMP JUMPDEST POP SWAP4 SWAP3 POP POP POP JUMP JUMPDEST PUSH1 0x0 DUP3 PUSH1 0x1F DUP4 ADD SLT PUSH2 0xF4C JUMPI PUSH2 0xF4B PUSH2 0xE1F JUMP JUMPDEST JUMPDEST DUP2 CALLDATALOAD PUSH2 0xF5C DUP5 DUP3 PUSH1 0x20 DUP7 ADD PUSH2 0xEF5 JUMP JUMPDEST SWAP2 POP POP SWAP3 SWAP2 POP POP JUMP JUMPDEST PUSH1 0x0 DUP2 SWAP1 POP SWAP2 SWAP1 POP JUMP JUMPDEST PUSH2 0xF78 DUP2 PUSH2 0xF65 JUMP JUMPDEST DUP2 EQ PUSH2 0xF83 JUMPI PUSH1 0x0 DUP1 REVERT JUMPDEST POP JUMP JUMPDEST PUSH1 0x0 DUP2 CALLDATALOAD SWAP1 POP PUSH2 0xF95 DUP2 PUSH2 0xF6F JUMP JUMPDEST SWAP3 SWAP2 POP POP JUMP JUMPDEST PUSH1 0x0 PUSH1 0xFF DUP3 AND SWAP1 POP SWAP2 SWAP1 POP JUMP JUMPDEST PUSH2 0xFB1 DUP2 PUSH2 0xF9B JUMP JUMPDEST DUP2 EQ PUSH2 0xFBC JUMPI PUSH1 0x0 DUP1 REVERT JUMPDEST POP JUMP JUMPDEST PUSH1 0x0 DUP2 CALLDATALOAD SWAP1 POP PUSH2 0xFCE DUP2 PUSH2 0xFA8 JUMP JUMPDEST SWAP3 SWAP2 POP POP JUMP JUMPDEST PUSH1 0x0 DUP1 PUSH1 0x0 DUP1 PUSH1 0x0 PUSH1 0xA0 DUP7 DUP9 SUB SLT ISZERO PUSH2 0xFF0 JUMPI PUSH2 0xFEF PUSH2 0xD06 JUMP JUMPDEST JUMPDEST PUSH1 0x0 PUSH2 0xFFE DUP9 DUP3 DUP10 ADD PUSH2 0xD59 JUMP JUMPDEST SWAP6 POP POP PUSH1 0x20 DUP7 ADD CALLDATALOAD PUSH8 0xFFFFFFFFFFFFFFFF DUP2 GT ISZERO PUSH2 0x101F JUMPI PUSH2 0x101E PUSH2 0xD0B JUMP JUMPDEST JUMPDEST PUSH2 0x102B DUP9 DUP3 DUP10 ADD PUSH2 0xF37 JUMP JUMPDEST SWAP5 POP POP PUSH1 0x40 PUSH2 0x103C DUP9 DUP3 DUP10 ADD PUSH2 0xF86 JUMP JUMPDEST SWAP4 POP POP PUSH1 0x60 PUSH2 0x104D DUP9 DUP3 DUP10 ADD PUSH2 0xF86 JUMP JUMPDEST SWAP3 POP POP PUSH1 0x80 PUSH2 0x105E DUP9 DUP3 DUP10 ADD PUSH2 0xFBF JUMP JUMPDEST SWAP2 POP POP SWAP3 SWAP6 POP SWAP3 SWAP6 SWAP1 SWAP4 POP JUMP JUMPDEST PUSH1 0x0 DUP2 MLOAD SWAP1 POP SWAP2 SWAP1 POP JUMP JUMPDEST PUSH1 0x0 DUP3 DUP3 MSTORE PUSH1 0x20 DUP3 ADD SWAP1 POP SWAP3 SWAP2 POP POP JUMP JUMPDEST PUSH1 0x0 JUMPDEST DUP4 DUP2 LT ISZERO PUSH2 0x10A5 JUMPI DUP1 DUP3 ADD MLOAD DUP2 DUP5 ADD MSTORE PUSH1 0x20 DUP2 ADD SWAP1 POP PUSH2 0x108A JUMP JUMPDEST PUSH1 0x0 DUP5 DUP5 ADD MSTORE POP POP POP POP JUMP JUMPDEST PUSH1 0x0 PUSH2 0x10BC DUP3 PUSH2 0x106B JUMP JUMPDEST PUSH2 0x10C6 DUP2 DUP6 PUSH2 0x1076 JUMP JUMPDEST SWAP4 POP PUSH2 0x10D6 DUP2 DUP6 PUSH1 0x20 DUP7 ADD PUSH2 0x1087 JUMP JUMPDEST PUSH2 0x10DF DUP2 PUSH2 0xE29 JUMP JUMPDEST DUP5 ADD SWAP2 POP POP SWAP3 SWAP2 POP POP JUMP JUMPDEST PUSH1 0x0 PUSH1 0x20 DUP3 ADD SWAP1 POP DUP2 DUP2 SUB PUSH1 0x0 DUP4 ADD MSTORE PUSH2 0x1104 DUP2 DUP5 PUSH2 0x10B1 JUMP JUMPDEST SWAP1 POP SWAP3 SWAP2 POP POP JUMP JUMPDEST PUSH1 0x0 DUP2 ISZERO ISZERO SWAP1 POP SWAP2 SWAP1 POP JUMP JUMPDEST PUSH2 0x1121 DUP2 PUSH2 0x110C JUMP JUMPDEST DUP3 MSTORE POP POP JUMP JUMPDEST PUSH1 0x0 PUSH1 0x20 DUP3 ADD SWAP1 POP PUSH2 0x113C PUSH1 0x0 DUP4 ADD DUP5 PUSH2 0x1118 JUMP JUMPDEST SWAP3 SWAP2 POP POP JUMP JUMPDEST PUSH1 0x0 PUSH1 0x20 DUP3 DUP5 SUB SLT ISZERO PUSH2 0x1158 JUMPI PUSH2 0x1157 PUSH2 0xD06 JUMP JUMPDEST JUMPDEST PUSH1 0x0 PUSH2 0x1166 DUP5 DUP3 DUP6 ADD PUSH2 0xD59 JUMP JUMPDEST SWAP2 POP POP SWAP3 SWAP2 POP POP JUMP JUMPDEST PUSH2 0x1178 DUP2 PUSH2 0xD6E JUMP JUMPDEST DUP3 MSTORE POP POP JUMP JUMPDEST PUSH1 0x0 PUSH1 0x20 DUP3 ADD SWAP1 POP PUSH2 0x1193 PUSH1 0x0 DUP4 ADD DUP5 PUSH2 0x116F JUMP JUMPDEST SWAP3 SWAP2 POP POP JUMP JUMPDEST PUSH2 0x11A2 DUP2 PUSH2 0xD30 JUMP JUMPDEST DUP3 MSTORE POP POP JUMP JUMPDEST PUSH1 0x0 PUSH1 0x20 DUP3 ADD SWAP1 POP PUSH2 0x11BD PUSH1 0x0 DUP4 ADD DUP5 PUSH2 0x1199 JUMP JUMPDEST SWAP3 SWAP2 POP POP JUMP JUMPDEST PUSH1 0x0 PUSH1 0x20 DUP3 DUP5 SUB SLT ISZERO PUSH2 0x11D9 JUMPI PUSH2 0x11D8 PUSH2 0xD06 JUMP JUMPDEST JUMPDEST PUSH1 0x0 PUSH2 0x11E7 DUP5 DUP3 DUP6 ADD PUSH2 0xD8F JUMP JUMPDEST SWAP2 POP POP SWAP3 SWAP2 POP POP JUMP JUMPDEST PUSH1 0x0 PUSH1 0xA0 DUP3 ADD SWAP1 POP PUSH2 0x1205 PUSH1 0x0 DUP4 ADD DUP9 PUSH2 0x1199 JUMP JUMPDEST PUSH2 0x1212 PUSH1 0x20 DUP4 ADD DUP8 PUSH2 0x116F JUMP JUMPDEST PUSH2 0x121F PUSH1 0x40 DUP4 ADD DUP7 PUSH2 0x1199 JUMP JUMPDEST PUSH2 0x122C PUSH1 0x60 DUP4 ADD DUP6 PUSH2 0x116F JUMP JUMPDEST PUSH2 0x1239 PUSH1 0x80 DUP4 ADD DUP5 PUSH2 0x116F JUMP JUMPDEST SWAP7 SWAP6 POP POP POP POP POP POP JUMP JUMPDEST PUSH1 0x0 DUP2 MLOAD SWAP1 POP PUSH2 0x1252 DUP2 PUSH2 0xD42 JUMP JUMPDEST SWAP3 SWAP2 POP POP JUMP JUMPDEST PUSH1 0x0 PUSH1 0x20 DUP3 DUP5 SUB SLT ISZERO PUSH2 0x126E JUMPI PUSH2 0x126D PUSH2 0xD06 JUMP JUMPDEST JUMPDEST PUSH1 0x0 PUSH2 0x127C DUP5 DUP3 DUP6 ADD PUSH2 0x1243 JUMP JUMPDEST SWAP2 POP POP SWAP3 SWAP2 POP POP JUMP JUMPDEST PUSH1 0x0 DUP3 DUP3 MSTORE PUSH1 0x20 DUP3 ADD SWAP1 POP SWAP3 SWAP2 POP POP JUMP JUMPDEST PUSH32 0x596F75206D757374206F776E20746865204E465420746F206C6973742069742E PUSH1 0x0 DUP3 ADD MSTORE POP JUMP JUMPDEST PUSH1 0x0 PUSH2 0x12CC PUSH1 0x20 DUP4 PUSH2 0x1285 JUMP JUMPDEST SWAP2 POP PUSH2 0x12D7 DUP3 PUSH2 0x1296 JUMP JUMPDEST PUSH1 0x20 DUP3 ADD SWAP1 POP SWAP2 SWAP1 POP JUMP JUMPDEST PUSH1 0x0 PUSH1 0x20 DUP3 ADD SWAP1 POP DUP2 DUP2 SUB PUSH1 0x0 DUP4 ADD MSTORE PUSH2 0x12FB DUP2 PUSH2 0x12BF JUMP JUMPDEST SWAP1 POP SWAP2 SWAP1 POP JUMP JUMPDEST PUSH32 0x4E487B7100000000000000000000000000000000000000000000000000000000 PUSH1 0x0 MSTORE PUSH1 0x11 PUSH1 0x4 MSTORE PUSH1 0x24 PUSH1 0x0 REVERT JUMPDEST PUSH1 0x0 PUSH2 0x133C DUP3 PUSH2 0xD6E JUMP JUMPDEST SWAP2 POP PUSH2 0x1347 DUP4 PUSH2 0xD6E JUMP JUMPDEST SWAP3 POP DUP3 DUP3 ADD SWAP1 POP DUP1 DUP3 GT ISZERO PUSH2 0x135F JUMPI PUSH2 0x135E PUSH2 0x1302 JUMP JUMPDEST JUMPDEST SWAP3 SWAP2 POP POP JUMP JUMPDEST PUSH1 0x0 PUSH1 0x60 DUP3 ADD SWAP1 POP PUSH2 0x137A PUSH1 0x0 DUP4 ADD DUP7 PUSH2 0x116F JUMP JUMPDEST PUSH2 0x1387 PUSH1 0x20 DUP4 ADD DUP6 PUSH2 0x116F JUMP JUMPDEST PUSH2 0x1394 PUSH1 0x40 DUP4 ADD DUP5 PUSH2 0x116F JUMP JUMPDEST SWAP5 SWAP4 POP POP POP POP JUMP JUMPDEST PUSH1 0x0 PUSH2 0x13A7 DUP3 PUSH2 0xD6E JUMP JUMPDEST SWAP2 POP PUSH32 0xFFFFFFFFFFFFFFFFFFFFFFFFFFFFFFFFFFFFFFFFFFFFFFFFFFFFFFFFFFFFFFFF DUP3 SUB PUSH2 0x13D9 JUMPI PUSH2 0x13D8 PUSH2 0x1302 JUMP JUMPDEST JUMPDEST PUSH1 0x1 DUP3 ADD SWAP1 POP SWAP2 SWAP1 POP JUMP JUMPDEST PUSH32 0x5369676E657220616E64207369676E617475726520646F206E6F74206D617463 PUSH1 0x0 DUP3 ADD MSTORE PUSH32 0x6800000000000000000000000000000000000000000000000000000000000000 PUSH1 0x20 DUP3 ADD MSTORE POP JUMP JUMPDEST PUSH1 0x0 PUSH2 0x1440 PUSH1 0x21 DUP4 PUSH2 0x1285 JUMP JUMPDEST SWAP2 POP PUSH2 0x144B DUP3 PUSH2 0x13E4 JUMP JUMPDEST PUSH1 0x40 DUP3 ADD SWAP1 POP SWAP2 SWAP1 POP JUMP JUMPDEST PUSH1 0x0 PUSH1 0x20 DUP3 ADD SWAP1 POP DUP2 DUP2 SUB PUSH1 0x0 DUP4 ADD MSTORE PUSH2 0x146F DUP2 PUSH2 0x1433 JUMP JUMPDEST SWAP1 POP SWAP2 SWAP1 POP JUMP JUMPDEST PUSH1 0x0 DUP2 SWAP1 POP SWAP3 SWAP2 POP POP JUMP JUMPDEST PUSH1 0x0 PUSH2 0x148C DUP3 PUSH2 0x106B JUMP JUMPDEST PUSH2 0x1496 DUP2 DUP6 PUSH2 0x1476 JUMP JUMPDEST SWAP4 POP PUSH2 0x14A6 DUP2 DUP6 PUSH1 0x20 DUP7 ADD PUSH2 0x1087 JUMP JUMPDEST DUP1 DUP5 ADD SWAP2 POP POP SWAP3 SWAP2 POP POP JUMP JUMPDEST PUSH1 0x0 DUP2 PUSH1 0x60 SHL SWAP1 POP SWAP2 SWAP1 POP JUMP JUMPDEST PUSH1 0x0 PUSH2 0x14CA DUP3 PUSH2 0x14B2 JUMP JUMPDEST SWAP1 POP SWAP2 SWAP1 POP JUMP JUMPDEST PUSH1 0x0 PUSH2 0x14DC DUP3 PUSH2 0x14BF JUMP JUMPDEST SWAP1 POP SWAP2 SWAP1 POP JUMP JUMPDEST PUSH2 0x14F4 PUSH2 0x14EF DUP3 PUSH2 0xD30 JUMP JUMPDEST PUSH2 0x14D1 JUMP JUMPDEST DUP3 MSTORE POP POP JUMP JUMPDEST PUSH1 0x0 PUSH2 0x1506 DUP3 DUP6 PUSH2 0x1481 JUMP JUMPDEST SWAP2 POP PUSH2 0x1512 DUP3 DUP5 PUSH2 0x14E3 JUMP JUMPDEST PUSH1 0x14 DUP3 ADD SWAP2 POP DUP2 SWAP1 POP SWAP4 SWAP3 POP POP POP JUMP JUMPDEST PUSH1 0x0 PUSH2 0x152E DUP3 DUP5 PUSH2 0x1481 JUMP JUMPDEST SWAP2 POP DUP2 SWAP1 POP SWAP3 SWAP2 POP POP JUMP JUMPDEST PUSH32 0x46756E6374696F6E2063616C6C206661696C6564000000000000000000000000 PUSH1 0x0 DUP3 ADD MSTORE POP JUMP JUMPDEST PUSH1 0x0 PUSH2 0x156F PUSH1 0x14 DUP4 PUSH2 0x1285 JUMP JUMPDEST SWAP2 POP PUSH2 0x157A DUP3 PUSH2 0x1539 JUMP JUMPDEST PUSH1 0x20 DUP3 ADD SWAP1 POP SWAP2 SWAP1 POP JUMP JUMPDEST PUSH1 0x0 PUSH1 0x20 DUP3 ADD SWAP1 POP DUP2 DUP2 SUB PUSH1 0x0 DUP4 ADD MSTORE PUSH2 0x159E DUP2 PUSH2 0x1562 JUMP JUMPDEST SWAP1 POP SWAP2 SWAP1 POP JUMP JUMPDEST PUSH1 0x0 PUSH2 0x15B0 DUP3 PUSH2 0xD10 JUMP JUMPDEST SWAP1 POP SWAP2 SWAP1 POP JUMP JUMPDEST PUSH2 0x15C0 DUP2 PUSH2 0x15A5 JUMP JUMPDEST DUP3 MSTORE POP POP JUMP JUMPDEST PUSH1 0x0 PUSH1 0x60 DUP3 ADD SWAP1 POP PUSH2 0x15DB PUSH1 0x0 DUP4 ADD DUP7 PUSH2 0x1199 JUMP JUMPDEST PUSH2 0x15E8 PUSH1 0x20 DUP4 ADD DUP6 PUSH2 0x15B7 JUMP JUMPDEST DUP2 DUP2 SUB PUSH1 0x40 DUP4 ADD MSTORE PUSH2 0x15FA DUP2 DUP5 PUSH2 0x10B1 JUMP JUMPDEST SWAP1 POP SWAP5 SWAP4 POP POP POP POP JUMP JUMPDEST PUSH1 0x0 DUP2 SWAP1 POP SWAP2 SWAP1 POP JUMP JUMPDEST PUSH2 0x161F PUSH2 0x161A DUP3 PUSH2 0xD6E JUMP JUMPDEST PUSH2 0x1604 JUMP JUMPDEST DUP3 MSTORE POP POP JUMP JUMPDEST PUSH1 0x0 DUP2 SWAP1 POP SWAP2 SWAP1 POP JUMP JUMPDEST PUSH1 0x0 PUSH2 0x164A PUSH2 0x1645 PUSH2 0x1640 DUP5 PUSH2 0xD10 JUMP JUMPDEST PUSH2 0x1625 JUMP JUMPDEST PUSH2 0xD10 JUMP JUMPDEST SWAP1 POP SWAP2 SWAP1 POP JUMP JUMPDEST PUSH1 0x0 PUSH2 0x165C DUP3 PUSH2 0x162F JUMP JUMPDEST SWAP1 POP SWAP2 SWAP1 POP JUMP JUMPDEST PUSH1 0x0 PUSH2 0x166E DUP3 PUSH2 0x1651 JUMP JUMPDEST SWAP1 POP SWAP2 SWAP1 POP JUMP JUMPDEST PUSH2 0x1686 PUSH2 0x1681 DUP3 PUSH2 0x1663 JUMP JUMPDEST PUSH2 0x14D1 JUMP JUMPDEST DUP3 MSTORE POP POP JUMP JUMPDEST PUSH1 0x0 PUSH2 0x1698 DUP3 DUP8 PUSH2 0x14E3 JUMP JUMPDEST PUSH1 0x14 DUP3 ADD SWAP2 POP PUSH2 0x16A8 DUP3 DUP7 PUSH2 0x160E JUMP JUMPDEST PUSH1 0x20 DUP3 ADD SWAP2 POP PUSH2 0x16B8 DUP3 DUP6 PUSH2 0x1675 JUMP JUMPDEST PUSH1 0x14 DUP3 ADD SWAP2 POP PUSH2 0x16C8 DUP3 DUP5 PUSH2 0x1481 JUMP JUMPDEST SWAP2 POP DUP2 SWAP1 POP SWAP6 SWAP5 POP POP POP POP POP JUMP JUMPDEST PUSH2 0x16DF DUP2 PUSH2 0xF65 JUMP JUMPDEST DUP3 MSTORE POP POP JUMP JUMPDEST PUSH2 0x16EE DUP2 PUSH2 0xF9B JUMP JUMPDEST DUP3 MSTORE POP POP JUMP JUMPDEST PUSH1 0x0 PUSH1 0x80 DUP3 ADD SWAP1 POP PUSH2 0x1709 PUSH1 0x0 DUP4 ADD DUP8 PUSH2 0x16D6 JUMP JUMPDEST PUSH2 0x1716 PUSH1 0x20 DUP4 ADD DUP7 PUSH2 0x16E5 JUMP JUMPDEST PUSH2 0x1723 PUSH1 0x40 DUP4 ADD DUP6 PUSH2 0x16D6 JUMP JUMPDEST PUSH2 0x1730 PUSH1 0x60 DUP4 ADD DUP5 PUSH2 0x16D6 JUMP JUMPDEST SWAP6 SWAP5 POP POP POP POP POP JUMP JUMPDEST PUSH32 0x4F776E61626C653A206E6577206F776E657220697320746865207A65726F2061 PUSH1 0x0 DUP3 ADD MSTORE PUSH32 0x6464726573730000000000000000000000000000000000000000000000000000 PUSH1 0x20 DUP3 ADD MSTORE POP JUMP JUMPDEST PUSH1 0x0 PUSH2 0x1795 PUSH1 0x26 DUP4 PUSH2 0x1285 JUMP JUMPDEST SWAP2 POP PUSH2 0x17A0 DUP3 PUSH2 0x1739 JUMP JUMPDEST PUSH1 0x40 DUP3 ADD SWAP1 POP SWAP2 SWAP1 POP JUMP JUMPDEST PUSH1 0x0 PUSH1 0x20 DUP3 ADD SWAP1 POP DUP2 DUP2 SUB PUSH1 0x0 DUP4 ADD MSTORE PUSH2 0x17C4 DUP2 PUSH2 0x1788 JUMP JUMPDEST SWAP1 POP SWAP2 SWAP1 POP JUMP JUMPDEST PUSH32 0x5061757361626C653A2070617573656400000000000000000000000000000000 PUSH1 0x0 DUP3 ADD MSTORE POP JUMP JUMPDEST PUSH1 0x0 PUSH2 0x1801 PUSH1 0x10 DUP4 PUSH2 0x1285 JUMP JUMPDEST SWAP2 POP PUSH2 0x180C DUP3 PUSH2 0x17CB JUMP JUMPDEST PUSH1 0x20 DUP3 ADD SWAP1 POP SWAP2 SWAP1 POP JUMP JUMPDEST PUSH1 0x0 PUSH1 0x20 DUP3 ADD SWAP1 POP DUP2 DUP2 SUB PUSH1 0x0 DUP4 ADD MSTORE PUSH2 0x1830 DUP2 PUSH2 0x17F4 JUMP JUMPDEST SWAP1 POP SWAP2 SWAP1 POP JUMP JUMPDEST PUSH1 0x0 DUP2 SWAP1 POP SWAP3 SWAP2 POP POP JUMP JUMPDEST PUSH32 0x19457468657265756D205369676E6564204D6573736167653A0A333200000000 PUSH1 0x0 DUP3 ADD MSTORE POP JUMP JUMPDEST PUSH1 0x0 PUSH2 0x1878 PUSH1 0x1C DUP4 PUSH2 0x1837 JUMP JUMPDEST SWAP2 POP PUSH2 0x1883 DUP3 PUSH2 0x1842 JUMP JUMPDEST PUSH1 0x1C DUP3 ADD SWAP1 POP SWAP2 SWAP1 POP JUMP JUMPDEST PUSH1 0x0 DUP2 SWAP1 POP SWAP2 SWAP1 POP JUMP JUMPDEST PUSH2 0x18A9 PUSH2 0x18A4 DUP3 PUSH2 0xF65 JUMP JUMPDEST PUSH2 0x188E JUMP JUMPDEST DUP3 MSTORE POP POP JUMP JUMPDEST PUSH1 0x0 PUSH2 0x18BA DUP3 PUSH2 0x186B JUMP JUMPDEST SWAP2 POP PUSH2 0x18C6 DUP3 DUP5 PUSH2 0x1898 JUMP JUMPDEST PUSH1 0x20 DUP3 ADD SWAP2 POP DUP2 SWAP1 POP SWAP3 SWAP2 POP POP JUMP JUMPDEST PUSH32 0x4F776E61626C653A2063616C6C6572206973206E6F7420746865206F776E6572 PUSH1 0x0 DUP3 ADD MSTORE POP JUMP JUMPDEST PUSH1 0x0 PUSH2 0x190B PUSH1 0x20 DUP4 PUSH2 0x1285 JUMP JUMPDEST SWAP2 POP PUSH2 0x1916 DUP3 PUSH2 0x18D5 JUMP JUMPDEST PUSH1 0x20 DUP3 ADD SWAP1 POP SWAP2 SWAP1 POP JUMP JUMPDEST PUSH1 0x0 PUSH1 0x20 DUP3 ADD SWAP1 POP DUP2 DUP2 SUB PUSH1 0x0 DUP4 ADD MSTORE PUSH2 0x193A DUP2 PUSH2 0x18FE JUMP JUMPDEST SWAP1 POP SWAP2 SWAP1 POP JUMP INVALID LOG2 PUSH5 0x6970667358 0x22 SLT KECCAK256 PUSH4 0x89D4C96E SWAP10 DUP14 NUMBER 0xFC PUSH19 0xE43DA0C9962A742F1F1EA7CBF720F02D67E80 0x4F 0xD3 PUSH8 0x64736F6C63430008 LT STOP CALLER "
				},
				"gasEstimates": {
					"creation": {
						"codeDepositCost": "1303800",
						"executionCost": "infinite",
						"totalCost": "infinite"
					},
					"external": {
						"activeListingIds(uint256)": "infinite",
						"executeMetaTransaction(address,bytes,bytes32,bytes32,uint8)": "infinite",
						"isSigner(address,bytes,bytes32,bytes32,uint8)": "infinite",
						"listNFT(address,uint256,uint256,uint256,address)": "infinite",
						"listings(uint256)": "infinite",
						"nextListingId()": "2474",
						"nonces(address)": "2881",
						"owner()": "2545",
						"paused()": "2502",
						"platformFeeAddress()": "2580",
						"platformFeePercentage()": "2518",
						"renounceOwnership()": "30443",
						"royaltyAddress()": "2581",
						"royaltyPercentage()": "2518",
						"transferOwnership(address)": "30832"
					},
					"internal": {
						"prefixed(bytes32)": "infinite"
					}
				},
				"methodIdentifiers": {
					"activeListingIds(uint256)": "e3b6a1f6",
					"executeMetaTransaction(address,bytes,bytes32,bytes32,uint8)": "0c53c51c",
					"isSigner(address,bytes,bytes32,bytes32,uint8)": "33929726",
					"listNFT(address,uint256,uint256,uint256,address)": "028ef312",
					"listings(uint256)": "de74e57b",
					"nextListingId()": "aaccf1ec",
					"nonces(address)": "7ecebe00",
					"owner()": "8da5cb5b",
					"paused()": "5c975abb",
					"platformFeeAddress()": "ed14834f",
					"platformFeePercentage()": "cdd78cfc",
					"renounceOwnership()": "715018a6",
					"royaltyAddress()": "ad2f852a",
					"royaltyPercentage()": "8a71bb2d",
					"transferOwnership(address)": "f2fde38b"
				}
			},
			"storageLayout": {
				"storage": [
					{
						"astId": 7,
						"contract": "venda_gassless.sol:NFTMarketplace",
						"label": "_owner",
						"offset": 0,
						"slot": "0",
						"type": "t_address"
					},
					{
						"astId": 231,
						"contract": "venda_gassless.sol:NFTMarketplace",
						"label": "_status",
						"offset": 0,
						"slot": "1",
						"type": "t_uint256"
					},
					{
						"astId": 130,
						"contract": "venda_gassless.sol:NFTMarketplace",
						"label": "_paused",
						"offset": 0,
						"slot": "2",
						"type": "t_bool"
					},
					{
						"astId": 461,
						"contract": "venda_gassless.sol:NFTMarketplace",
						"label": "activeListingIds",
						"offset": 0,
						"slot": "3",
						"type": "t_array(t_uint256)dyn_storage"
					},
					{
						"astId": 463,
						"contract": "venda_gassless.sol:NFTMarketplace",
						"label": "royaltyPercentage",
						"offset": 0,
						"slot": "4",
						"type": "t_uint256"
					},
					{
						"astId": 465,
						"contract": "venda_gassless.sol:NFTMarketplace",
						"label": "platformFeePercentage",
						"offset": 0,
						"slot": "5",
						"type": "t_uint256"
					},
					{
						"astId": 467,
						"contract": "venda_gassless.sol:NFTMarketplace",
						"label": "royaltyAddress",
						"offset": 0,
						"slot": "6",
						"type": "t_address"
					},
					{
						"astId": 469,
						"contract": "venda_gassless.sol:NFTMarketplace",
						"label": "platformFeeAddress",
						"offset": 0,
						"slot": "7",
						"type": "t_address"
					},
					{
						"astId": 474,
						"contract": "venda_gassless.sol:NFTMarketplace",
						"label": "listings",
						"offset": 0,
						"slot": "8",
						"type": "t_mapping(t_uint256,t_struct(Listing)458_storage)"
					},
					{
						"astId": 477,
						"contract": "venda_gassless.sol:NFTMarketplace",
						"label": "nextListingId",
						"offset": 0,
						"slot": "9",
						"type": "t_uint256"
					},
					{
						"astId": 481,
						"contract": "venda_gassless.sol:NFTMarketplace",
						"label": "nonces",
						"offset": 0,
						"slot": "10",
						"type": "t_mapping(t_address,t_uint256)"
					}
				],
				"types": {
					"t_address": {
						"encoding": "inplace",
						"label": "address",
						"numberOfBytes": "20"
					},
					"t_array(t_uint256)dyn_storage": {
						"base": "t_uint256",
						"encoding": "dynamic_array",
						"label": "uint256[]",
						"numberOfBytes": "32"
					},
					"t_bool": {
						"encoding": "inplace",
						"label": "bool",
						"numberOfBytes": "1"
					},
					"t_mapping(t_address,t_uint256)": {
						"encoding": "mapping",
						"key": "t_address",
						"label": "mapping(address => uint256)",
						"numberOfBytes": "32",
						"value": "t_uint256"
					},
					"t_mapping(t_uint256,t_struct(Listing)458_storage)": {
						"encoding": "mapping",
						"key": "t_uint256",
						"label": "mapping(uint256 => struct NFTMarketplace.Listing)",
						"numberOfBytes": "32",
						"value": "t_struct(Listing)458_storage"
					},
					"t_struct(Listing)458_storage": {
						"encoding": "inplace",
						"label": "struct NFTMarketplace.Listing",
						"members": [
							{
								"astId": 449,
								"contract": "venda_gassless.sol:NFTMarketplace",
								"label": "nftContractAddress",
								"offset": 0,
								"slot": "0",
								"type": "t_address"
							},
							{
								"astId": 451,
								"contract": "venda_gassless.sol:NFTMarketplace",
								"label": "nftId",
								"offset": 0,
								"slot": "1",
								"type": "t_uint256"
							},
							{
								"astId": 453,
								"contract": "venda_gassless.sol:NFTMarketplace",
								"label": "seller",
								"offset": 0,
								"slot": "2",
								"type": "t_address"
							},
							{
								"astId": 455,
								"contract": "venda_gassless.sol:NFTMarketplace",
								"label": "price",
								"offset": 0,
								"slot": "3",
								"type": "t_uint256"
							},
							{
								"astId": 457,
								"contract": "venda_gassless.sol:NFTMarketplace",
								"label": "deadline",
								"offset": 0,
								"slot": "4",
								"type": "t_uint256"
							}
						],
						"numberOfBytes": "160"
					},
					"t_uint256": {
						"encoding": "inplace",
						"label": "uint256",
						"numberOfBytes": "32"
					}
				}
			},
			"userdoc": {
				"kind": "user",
				"methods": {},
				"version": 1
			}
		}
	}
}